:020000021000EC
:10000000D09D0020313B0100393901002D3B01001A
:100010002D3B01002D3B01002D3B01002D3B01003C
:100020000000000000000000000000002D3B010067
:100030002D3B0100000000002D3B01007D08010068
:10004000DD2E0100BD2F01006D300100BD2F01002C
:100050006D300100A5200100A52001004D18010010
:10006000591701001D190100691901004D180100FF
:10007000591701001D19010069190100051001003F
:1000800065100100E1100100911101002D2901000E
:10009000B128010000000000000000000000000086
:1000A0000000000000000000000000000000000050
:1000B0000000000000000000000000000000000040
:1000C0000000000000000000000000000000000030
:1000D0000000000000000000000000000000000020
:1000E0000000000000000000000000000000000010
:1000F0000000000000000000000000000000000000
:1001000000000000000000000000000000000000EF
:1001100000000000000000000000000000000000DF
:1001200000000000000000000000000000000000CF
:1001300000000000000000000000000000000000BF
:1001400000000000000000000000000000000000AF
:10015000000000000000000000000000000000009F
:10016000000000000000000000000000000000008F
:10017000000000000000000000000000000000007F
:10018000000000000000000000000000000000006F
:10019000000000000000000000000000000000005F
:1001A000000000000000000000000000000000004F
:1001B000000000000000000000000000000000003F
:1001C0000348044B834202D0034B03B118477047E6
:1001D0004C2800204C28002000000000064B074956
:1001E000C91A891048BF0131491003D0044B0BB123
:1001F00001481847704700BF4C2800204C280020B9
:100200000000000010B5064C237843B9FFF7D8FF73
:10021000044B13B10448AFF300800123237010BDD9
:10022000682800200000000050DA020008B5054BE5
:100230001BB105490548AFF30080BDE80840FFF752
:10024000CDBF00BF000000006C28002050DA020083
:100250000369C268934204D881688A1A1344581EFD
:100260007047981A013870472DE9F84304468846CC
:100270001646C5688768A7EB0509914509D9406806
:10028000284414F08DFFBFF35F8F3544E560BDE86F
:10029000F88340684A46284414F082FFED1B354439
:1002A0002A4608EB0901606814F07AFFBFF35F8FFC
:1002B000E560ECE72DE9F843064688461746C56831
:1002C0004FF000091AE05B1B5A1EB3685C1B944296
:1002D00028BF1446BC4228BF3C46706822464146AF
:1002E000284414F05DFFA144A0443F1B2544B3689B
:1002F000AB420BD0BFF35F8FF5604FB133699D42C6
:10030000E1D3B2685B1B1A44013ADEE70025F1E74E
:100310004846BDE8F883FFFF10B5154CA822002120
:10032000204615F01FFE032323616361114AA26179
:10033000114BE3614FF4006323620023A362636205
:10034000E36222660D4A62661022A2662367E366B4
:100350006367BFF35F8F06E0C3F10F020849895658
:10036000034AD15401330F2BF6D9BFF35F8F10BD71
:1003700094300020A09902009428002084280020B6
:1003800020CF0200F8B50F461646441C04EB440487
:10039000164B03EBC40400EB400003EBC003DD6A23
:1003A000012D0ED0022D1AD0F5B92046FFF750FFCF
:1003B000864212D8324639462046FFF755FF354669
:1003C0000BE02046FFF744FF3546864228BF05462E
:1003D0002A4639462046FFF747FF2846F8BD204603
:1003E000FFF768FF0546F8E70025F6E794300020A0
:1003F000F8B504460D4616460A4B1B785BB2532BE4
:100400000DD1EFF311874FF0200181F311883246AF
:1004100029462046FFF7B6FF87F31188F8BDFFF79E
:100420007BFFEEE79430002010B504468268531C31
:100430004068834205D820688154A360E368013393
:10044000E360A26863689A4200D010BD2168206909
:10045000FFF7CEFFA368984203D04FF0FF33E3606D
:10046000F3E70023A360F0E72DE9F84F81460F463C
:1004700015461E46DDF828A00B9A0B464FF00108E2
:1004800003E0B3FBF5F308F10108AB42F9D2B04544
:1004900000D2B04612F0010B18D1BAF1000F15D0FE
:1004A00012F0020F02D0BEB1202400E02024BAF1E5
:1004B000000F0BD0C24509D90AF1FF3A2146484640
:1004C000FFF7B2FFD9F80C30002BF0DAD9F80C3076
:1004D000002B25DB012404E03024E8E7013E05FB86
:1004E00004F4012EFAD8B7FBF4F39D42F7D900E0EB
:1004F0001C46B7FBF4F304FB1377124AD156484667
:10050000FFF792FFD9F80C30002B03DBB4FBF5F3B7
:10051000AC42EDD2BBF1000F02D0BAF1000F01D115
:10052000BDE8F88FBAF1000FFAD0C245F8D90AF148
:10053000FF3A20214846FFF777FFD9F80C30002B0F
:10054000F0DAEDE734CF02002DE9F04782B007463C
:100550008846154699460A9EDDF82CA081EAE17C82
:10056000ACEBE17C012402E09CFBF5FC0134654529
:10057000FADD4C4500D24C4636B1B8F1000F02DB33
:100580001AF0040F00D0013E1AF0020F02D0B9F1A8
:10059000000F03D01AF0010F00D1AEB9FB68002B99
:1005A0000FDBB8F1000F1CDB1AF0040F20D1FB6841
:1005B000002B06DB0AF00303022B1ED0FB68002B86
:1005C0002DDA02B0BDE8F087002EE7D0A642E5D9CB
:1005D000013E20213846FFF727FFFB68002BF3DAA6
:1005E000DCE7C8F100082D213846FFF71DFFDEE7E4
:1005F0002B213846FFF718FFD9E7B9F1000FDDD1FD
:10060000002EDBD0002ED9D0A642D7D9013E302112
:100610003846FFF709FFFB68002BF3DACEE7CDF889
:1006200004A000964B462A4641463846FFF71CFF79
:10063000C7E7FFFFF0B599B006460C46154603AB79
:10064000139340231493002315931790169391E06E
:100650000020012211E040F0010001340CE040F0E4
:100660000200013408E040F00400013404E040F0EE
:100670000800013400E0002222B394F90030233B4B
:100680000D2BF8D801A151F823F000BF6F0601002F
:100690007706010077060100770601007706010062
:1006A0007706010077060100770601006706010062
:1006B0007706010057060100770601007706010062
:1006C0005F06010094F90030A3F13001C9B2092995
:1006D00007D8013402EB820203EB4203A3F130029C
:1006E000F0E72E2B03D0002394F9001015E001341D
:1006F000002306E0013403EB830301EB4301A1F186
:10070000300394F90010A1F1300C5FFA8CFCBCF1BD
:10071000090FEFD9E8E714F9011F6C29FBD068290C
:10072000F9D0252971D021DB78291FDC58291DDB60
:10073000583920291AD8DFE801F03E19191919197A
:100740001919191919112819191919191919191912
:1007500019195B191949193319193E002B681A1D0B
:100760002A6093F9001013A8FFF75EFE0134169B70
:10077000002B4FDB14F9011B00294BD025293FF436
:1007800067AF13A8FFF750FEF1E729680F1D2F6030
:100790000968019000920A2213A8FFF7D5FEE5E749
:1007A00029680F1D2F600968019000920A2213A882
:1007B000FFF75AFEDAE729680F1D2F6009680190DC
:1007C0000092102213A8FFF74FFECFE72B681A1DE7
:1007D0002A601F6857B117F9011B0029C6D013A85A
:1007E000FFF722FE169B002BF5DABFE7124FF2E768
:1007F0002B681A1D2A6019680023019308230093AF
:10080000102213A8FFF730FEB0E7252113A8FFF749
:100810000BFEABE7169B002B05DD159A32B9169B34
:10082000159A13441693169819B0F0BD03A93046D3
:10083000FFF7DEFDF3E700BFAC9902000EB400B590
:1008400082B003AB53F8041B019301AAFFF7F2FE39
:1008500002B05DF804EB03B0704708B50121806871
:100860000FF084FF08BD08B513F000F908BDFFFFC5
:10087000014BD3E9000170474031002010B4054C12
:10088000D4E90023501C43F10001C4E900015DF8E4
:10089000044B70474031002010B502F001FF214B9E
:1008A0001B68214AA2FB03239B09013BB3F1807F14
:1008B0000AD24FF0E02253611C4BF02183F8231041
:1008C0000023936107231361184B002283F8232030
:1008D0000CF07CFA12F0D0FF044698B103200CF023
:1008E00061FA18B1224612490CF09CF801200CF074
:1008F00059FA18B122460F490CF094F8204613F02B
:10090000BEF8FBE7FFF7B4FF02460B490020FFF7F4
:1009100095FF0A490020FFF791FF09490020FFF7E2
:100920008DFF10BD98340020D34D621000ED00E023
:100930005B08010067080100B4990200C099020039
:100940004CBF020008B5FFF7A7FF002008BDFFFF5E
:100950000B4B00F1C00253F8221021F4803143F810
:10096000221053F82230BFF35F8F00F01F024009BE
:10097000012393406030034A42F82030704700BFA3
:100980000060004000E100E010B50446FFF7E0FF22
:1009900004F01F02640901239340024A42F8243004
:1009A00010BD00BF00E100E04162C262836200202E
:1009B0007047FFFF10B504460023036043685B697E
:1009C0001BB19A68126A1868904763681B691BB16B
:1009D0009A68126A18689047636893F90230002B8E
:1009E0000CDB03F01F015B0901228A4020332149FF
:1009F00041F82320BFF34F8FBFF36F8F636893F9E4
:100A00000130002B0CDB03F01F015B0901228A403F
:100A10002033184941F82320BFF34F8FBFF36F8F66
:100A2000636893F9033003F01F015B09012202FAA6
:100A300001F11048203340F82310BFF34F8FBFF36C
:100A40006F8F636893F9043003F01F015B098A40DC
:100A5000203340F82320BFF34F8FBFF36F8FA2687E
:100A6000137823F040031370A368DA780020D8705D
:100A700010BD00BF00E100E0F8B506460569037847
:100A800003F5800303F58D531B021C1D002D26D09A
:100A90006B681B684FF000621A606B681B689C6093
:100AA000AB681B686968286898470746A8B97369E6
:100AB0009BB15A6812684FF4002111605A6812689D
:100AC00054609A681268596818689047074620B1C0
:100AD0001DB1AB681B6A286898473846F8BD0027E7
:100AE000E5E7FFFF2DE9F04F85B041684D7A65BB22
:100AF000082465BB4FF0100E8B7ACA7A43EA420392
:100B00004A7B43EA02330A6A16782EBB097811B988
:100B100005BB80210B4344F0B004567824EAC61488
:100B2000710141EA46012143039192F802C0D47851
:100B30000CFA04FC23F0700343EA0413147974B133
:100B4000022C69D0202101910BE00024D1E74FF065
:100B5000000ED1E70021DDE744F0B104DDE700211C
:100B60000191547924B14EF00106012C57D0B646BC
:100B700092F80680147A04F0030443EA8403002DFB
:100B800050D143F46043567A917A0291D47AEFF3CC
:100B9000108A012585F31088244FD7F80490416806
:100BA00091F800B0CBF1130B05FA0BF529EA050516
:100BB0007D607D688AF310888568EF780027EF7084
:100BC00085689DF80C10297081685FFA8CFC81F8AB
:100BD00001C081689DF804508D708168D2798A7255
:100BE0008268F6B2167381689DF808204A7382689D
:100BF000E4B2947382685FFA8EFE82F80FE0826836
:100C00009BB21382836883F820808368102283F864
:100C1000212005B0BDE8F08F30210191A1E74EF011
:100C2000030EA5E7002402942646B0E700400840E2
:100C300070B50446436893F9020000281FDA636820
:100C400093F90100002829DA636893F904001B7AFC
:100C50001B01DBB2194D2A1882F80033184E46F8F2
:100C60002040FFF791FE636893F90320DB791B01B5
:100C7000DBB2154485F8003346F8224070BD9B79FD
:100C80001B01DBB200F1604202F5614282F80033E1
:100C90000B4B43F82040FFF777FED0E75B791B0151
:100CA000DBB200F1604202F5614282F80033044B8E
:100CB00043F82040FFF768FEC6E700BF00E100E010
:100CC0000C33002070B504460D460846FFF7D4FEED
:100CD000064608B1304670BD6560AB696362EB697A
:100CE000E3620023A3622B7803F5800303F58D53A1
:100CF0001B02A3602046FFF7F5FE2046FFF798FF92
:100D0000014B2360E6E700BF4950535210B484689A
:100D1000E27AD2B2238A9BB290F820100F2916D91A
:100D200022F0400242F020028C460F2903D9013103
:100D30008908A1F1050C23F4706343EA0C23D2B2B5
:100D4000E27282689BB213825DF8044B70470729F8
:100D500002D842F04002E7E722F06002E4E782684E
:100D6000137843F0600313707047FFFF70B50E46B1
:100D70001D469DF810308168097811F0400F40F051
:100D8000BC800446C6600261002141618161C56189
:100D900080F820304168486900282BD0A5610F2BCE
:100DA00067D94B695B681B68D978022060F305112D
:100DB000D97063685B695B681B689978022060F38F
:100DC0008301997063685B695B681B68A9B2D9810C
:100DD00063685B695B681B689A60002A5CD0636823
:100DE0005B699A68526859680968186890470346B1
:100DF00000283CD163681A69002A31D0656194F8F3
:100E000020200F2A57D91B695B681B68DA780221FA
:100E100061F30512DA7063681B695B681B68DA7836
:100E2000022161F38302DA7063681B695B681B68E7
:100E3000ADB2DD8163681B695B681B685E60002E74
:100E40004CD0A268137823F02003137063681B69E9
:100E50009A6852685968096818689047034630B91B
:100E60002046FFF753FF2046FFF779FF002318467F
:100E700070BD072B07D84B695B681968CB7823F0E6
:100E80003003CB7095E74B695B681B68D97801200C
:100E900060F30511D9708CE763685B695B681A6859
:100EA000937823F00C03937063685B695B681B683D
:100EB000134A9A6093E7072A07D81B695B681A6888
:100EC000D37823F03003D370A5E71B695B681B68F8
:100ED000DA78012161F30512DA709CE763681B6917
:100EE0005B681A68D37823F00C03D37063681B69BE
:100EF0005B681B68034A5A60A3E70823B7E700BF93
:100F0000CC320020C832002000B583B000931346D5
:100F10000A460021FFF72AFF03B05DF804FB00B585
:100F200083B0009313460022FFF720FF03B05DF863
:100F300004FB10B582B09DF810400094FFF716FF37
:100F400002B010BD8369C2699A420BD0026952B1E6
:100F500090F820100F2909D98168496842F82310B8
:100F600001338361704782685268F9E7072903D823
:100F700081680979D154F3E78168898822F81310D0
:100F8000EEE74369C2699A420BD0C26852B190F849
:100F900020100F290AD9816852F823204A600133B2
:100FA00043617047826800215160F8E7072903D840
:100FB0008168D25C0A71F2E7816832F813208A8076
:100FC000EDE710B584B004468C46836AC3B193E85C
:100FD00007000DF1100E0EE90700626812781A6022
:100FE00083F804C0E26A9A60626A18469047A36A6E
:100FF00023B104AA12E9070083E8070004B010BD7A
:1010000001ABEAE710B5EFF30383C3F30803103B2A
:101010005BB2114A03F1C00152F8210020F4803084
:1010200042F8210052F821200C4A52F82340204671
:10103000FFF788FFA269E3699A4200D010BD636898
:1010400093F9033003F01F015B0901228A40044930
:1010500041F82320F2E700BF006000400C3300207D
:1010600000E100E010B5EFF30383C3F30803103B86
:101070005BB2184A03F1C00152F8210020F480301D
:1010800042F8210052F82120134A52F823406268A6
:10109000136A13B15B78012B03D02046FFF771FF71
:1010A00010BD6169E369013B99420DD01369002BC2
:1010B000F3D092F9033003F01F015B0901228A404B
:1010C000064941F82320E8E792F90300FFF75CFCAA
:1010D000E3E700BF006000400C33002000E100E0C7
:1010E00010B5EFF30383C3F30803103B5FFA83FCEF
:1010F0005BB2244A03F1C00152F8210020F4803091
:1011000042F8210052F821201F4A52F82340A268D9
:10111000D27812F0020F03D06268527A012A2DD1E0
:101120000CF01F0C5B09012202FA0CF22033174964
:1011300041F82320BFF34F8FBFF36F8F636893F99C
:101140000230002B0CDB03F01F015B0901228A40F7
:1011500020330E4941F82320BFF34F8FBFF36F8F29
:10116000A268137823F040031370636893F90200B8
:10117000002804DA01212046FFF723FF10BDFFF706
:1011800003FCF7E7006000400C33002000E100E0C2
:1011900070B5EFF30383C3F30803103B5CB2274B36
:1011A00053F824506B6893F90230002B0CDB03F0EA
:1011B0001F015B0901228A402033214941F8232085
:1011C000BFF34F8FBFF36F8FAA68137823F04003EC
:1011D00013706B6893F9020000281CDAAA68D378B0
:1011E000DEB20021D17013F0080F17D116F0010FF5
:1011F00019D116F0040F02D016F0100F18D1114AB1
:1012000004F1C00352F8231021F4803142F8231076
:1012100052F8233070BDFFF7B7FBDFE70521284602
:10122000FFF7CFFEE2E704212846FFF7CAFEE0E71A
:1012300008212846FFF7C5FEE1E700BF0C33002078
:1012400000E100E0006000400B4B00F1C00253F8E9
:10125000221021F4803143F8221053F82230BFF3DA
:101260005F8F00F01F024009012393406030034A62
:1012700042F82030704700BF0060004000E100E00D
:1012800010B50446FFF7E0FF04F01F0264090123D4
:101290009340024A42F8243010BD00BF00E100E054
:1012A00030B40346002058601A6A9070DA6992F9E7
:1012B000052002F01F055209012101FA05F5234C12
:1012C000203244F82250BFF34F8FBFF36F8FDA699B
:1012D00092F90B2002F01F05520901FA05F52032A0
:1012E00044F82250BFF34F8FBFF36F8FDA6992F942
:1012F000072002F01F05520901FA05F5203244F8D3
:101300002250BFF34F8FBFF36F8FDA6992F9092034
:1013100002F01F05520901FA05F5203244F8225067
:10132000BFF34F8FBFF36F8FEFF3108481F31088FB
:10133000074A5168DB691D784FF00043EB400B43CF
:101340005360536884F3108830BC704700E100E0BC
:1013500000400840416182610020704710B4046A77
:10136000A37803F07B03A3700378A3B10261C1608B
:10137000026A937843F08003937003783BB98378D3
:1013800003F00303022B0ED0036A0A78DA70002000
:101390005DF8044B7047837803F00303D21A0261AF
:1013A0000B44C360E4E70B88026A43F47E43D381B5
:1013B000EDE74162C2628362002070474FF0FF3365
:1013C0004B600B6000207047034611F0020F25D0E0
:1013D000006A827802F07B0282701A784AB1186A39
:1013E000828A42F0040282821A6A928A12F0040F00
:1013F000FAD10020186111F0010F12D000229A6179
:101400001A786AB1196A8A8A42F002028A821A6AD2
:10141000928A12F0020FFAD1002070470620EAE704
:1014200000207047034682690A6000209861704777
:101430000378ABB1C269D269013B117A1940090244
:1014400001F4706141F001011B039AB20A43036A7F
:1014500042F006019982036A9B8A9BB29342FAD1B9
:101460007047FFFF30B402F01F03540901259D406F
:101470000E4B203443F82450BFF34F8FBFF36F8FD0
:101480000B4C02F1C00C54F82C5025F4803544F874
:101490002C5054F82C400901C9B2134483F80013AE
:1014A000044B43F8220030BC704700BF00E100E06D
:1014B000006000400C33002038B505460C4691F919
:1014C0000B20897AFFF7CEFF94F905202179284671
:1014D000FFF7C8FF94F90720A1792846FFF7C2FF5C
:1014E00094F90920217A2846FFF7BCFF38BD8B7894
:1014F00043704A78037862F301030370CB788374F6
:10150000C37903F0A3030A7802F05C021343C371AA
:10151000704738B504460D46FFF78AFFAA78EB7886
:10152000DB0043EA02136A78032A02D06AB3F2228C
:1015300002E043F04003F222216ADBB20B70216A21
:10154000D3B28B71E9690B7B082B20D05B00226A38
:1015500003F0020353734B78DB01DBB28A7852014C
:1015600002F020021343226A002010720A78023A25
:10157000D2B2012A12D8226AFF2050700A78022AB9
:1015800009D0226ADBB2D37138BDE222D4E7236AE4
:101590000A225A73DFE743F01003F2E7226ADBB254
:1015A000D3714968206AFFF7A2FFEDE7F8B504465A
:1015B0000D460B7801229A4012F0060F05D0CA6939
:1015C0005268127812F0080F7DD103F5800303F5FD
:1015D0008C531B022362002323702A7840F21923C4
:1015E000D34013F0010F01D010232370E5616B6924
:1015F0006362AB69E3620023A362A378012262F312
:101600000103A3706B7823B9A378022262F301036C
:10161000A37029462046FFF74FFFEFF31080012308
:1016200083F31088294B5A682E784FF00041F1401F
:1016300022EA01025A605B6880F31088226A002364
:101640009370226A1371226A5372226A9372226A19
:10165000D372226A53832A7840F21923D34013F0BD
:10166000010F02D0236A4022DA74236A06221A7715
:1016700029462046FFF74DFF0026E6602661666199
:10168000A661EF693D78E36993F90500FFF7F8FD7E
:10169000E36993F90B00FFF7F3FDE36993F90700A2
:1016A000FFF7EEFDE36993F90900FFF7E9FD05F0A7
:1016B000030545F07005236A9D707B892381044BE7
:1016C00063603046F8BD0320FCE700BF00400840DF
:1016D0005549435370B50446C3691A7801239340B2
:1016E00013F0060F03D00B7813F0080F0FD1226A06
:1016F000937803F07B0603F00B0393700025E560FD
:10170000206AFFF7F4FE236A9E70284670BD03200E
:10171000FCE770B584B005460E469446846ACCB1A9
:1017200094E80F000DF1100E0EE90F00EB691B7825
:101730002360A66084F804C0EB6AE3606B6A20460D
:101740009847AC6A24B104AB13E90F0084E80F009A
:1017500004B070BD6C46E9E708B5EFF30383C3F34B
:101760000803103B5BB2374A03F1C00152F8210075
:1017700020F4803042F8210052F82120324A52F8F9
:101780002300C3691B698BB1036973B9026A93783B
:1017900003F07F0343F0040393700023C360436AA4
:1017A0001BB180220021FFF7B4FF08BD0369002BA5
:1017B000EAD003785BB3036AD98AC1F304210FE04E
:1017C000C3681B88026A43F47E43D381026983782D
:1017D00003F00303D21A0261C2681A44C2600131E5
:1017E00003788B420BD903694BB1837803F0030371
:1017F000022BE5D0C268036A1278DA73E6E7026A60
:10180000137903F07D0343F002031371BCE783787F
:1018100003F00303022B0DD0C268036A1278DA705A
:101820000269837803F00303D21A0261C2681A4482
:10183000C260A9E7C3681B88026A43F47E43D38170
:10184000EEE700BF006000400C33002010B582B00E
:10185000EFF30383C3F30803103B5BB22D4A03F19C
:10186000C00152F8210020F4803042F8210052F8E3
:101870002120294A52F823402DE0A37803F00303E6
:10188000022B03D0236A5B79019330E0236A1B8A21
:10189000C3F3080301932AE0A27802F0030201A92E
:1018A000606913F07DFC6369A27802F003021344BF
:1018B0006361A3699B1AA36133B9636A23B10122EF
:1018C00000212046FFF725FF2378E3B1236ADB8A56
:1018D00013F01F0F17D02378002BCED0236ADA8A9B
:1018E00012F01F0F0FD01B8AC3F308030193A369E3
:1018F000002BD1D1636A002BE6D004220199204647
:10190000FFF707FFE0E7237813B1236ABE221A71BD
:1019100002B010BD006000400C33002010B5EFF3A2
:101920000383C3F30803103B5CB20D4B53F8240050
:10193000026A937803F07B039370436A1BB102221F
:101940000021FFF7E6FE074A04F1C00352F8231016
:1019500021F4803142F8231052F8233010BD00BF2B
:101960000C3300200060004010B5EFF30383C3F395
:101970000803103B5CB21B4B53F82400037843B9B7
:10198000837803F00303022B03D0036A5979C9B2A9
:1019900003E0036A198AC1F30801036A93F804C0DB
:1019A0000CF038021CF0100F06D093F81CC01CF08D
:1019B000010F01D142F0400293F804C00CF0C70CB3
:1019C00083F804C0436A0BB1FFF7A3FE064A04F193
:1019D000C00352F8231021F4803142F8231052F84A
:1019E000233010BD0C33002000600040EFF3108165
:1019F000012383F31088074B1B6823B9064B002291
:101A0000DA704022DA70034A13680133136081F3FD
:101A10001088704708330020000D0840EFF3108352
:101A2000012282F31088094A12681AB107490A682C
:101A3000013A0A60054A126822B9054A0021D170AC
:101A40008021D17083F31088704700BF08330020D5
:101A5000000D084003460020186070470B0A1B0168
:101A600053FA81F1034B53F82130C3F34003137051
:101A70000020704700080840090A490101F180412F
:101A800001F500214B6813800020704702EA030033
:101A9000D24312B21340090A490101F1804101F514
:101AA000002140EA0340886000207047CBB201204B
:101AB000984080B262B9024600200B0A5B0103F134
:101AC000804303F5002340EA0240986000207047FD
:101AD0000022F2E7090A490101F1804101F50021E4
:101AE000086802EA030C40EA0C0062EA03020240C2
:101AF0000A6000207047090A490101F1804101F59F
:101B000000214B68C3F30F431380002070470B0A7A
:101B10005B0103F1804303F500235868C9B2012338
:101B20008B4099B203EA10438B4203D00023137019
:101B30000020704701231370FAE702EA0300D24342
:101B400012B21340090A490101F1804101F5002157
:101B500040EA0340C86000207047000A400100F1DD
:101B6000804000F50020012303FA01F1C368012A37
:101B700005D023EA010343EA0141C160704723EA2B
:101B800001431943F9E708B50846C9B200F47F409C
:101B9000FFF7E3FF002008BD10B411F4803F0ED022
:101BA000030A0C4A1B0153FA80F352F8234024F431
:101BB000803442F8234021F4803442F82340030A61
:101BC0001B0153FA80F0034B43F820105DF8044BDF
:101BD000704700BF00080840F8B50646002541E000
:101BE000234B93F8BB240123A340DFB213422BD035
:101BF0000134022C35D8736803EBC50291881D4A65
:101C000032F814209142F3D153F8353003F0F853F1
:101C1000B3F1807FE4D0B3F1106FE1D0144B93F8AF
:101C2000BB240123A340DFB21342E1D0012001F025
:101C30002FFF0F4A92F8BB3423EA070382F8BB3424
:101C4000012001F0F1FED3E7012001F021FF084A55
:101C500092F8BB343B4382F8BB34012001F0E4FE30
:101C6000C6E701353388AB4201D90024C1E7F8BD8E
:101C700000E0014038D3020038B50546FFF7ACFF5D
:101C8000FFF7B4FE002409E06B6803EBC40253F8CD
:101C900034109088FFF780FF0134A4B22B88A34250
:101CA000F2D8FFF7BBFE38BD08B5034B036008460A
:101CB000FFF7E2FF002008BD54524F5008B5084618
:101CC000FFF7DAFF002008BD30B587B00C46154697
:101CD000ADF8081001920123ADF80C3001AB04936C
:101CE00003A8FFF779FFFFF781FE29462046FFF79B
:101CF00053FFFFF793FE002007B030BD0B4B00F100
:101D0000C00253F8221021F4803143F8221053F816
:101D10002230BFF35F8F00F01F0240090123934080
:101D20006030034A42F82030704700BF0060004036
:101D300000E100E010B50446FFF7E0FF04F01F02E9
:101D4000640901239340024A42F8243010BD00BFC9
:101D500000E100E08368C2689A60002070478368F1
:101D6000C2685A60002070478368C268DA60002049
:101D7000704730B44368DB695A6842F000429968A2
:101D800041F00044D96841F0004185686C61846885
:101D9000A16181680A6182681969516282685B6920
:101DA0009362002030BC704701398368996683686C
:101DB000DA6A12F0010F03D159668368C268DA60EB
:101DC000002070470620704783680139123203EB08
:101DD00082035960002070478368DB6AC3F3000305
:101DE0000B7183689B6C0B60002070474161C2617E
:101DF000836100207047FFFF416001230374C368C3
:101E000013F00F0F01D0002303740A7C054B134419
:101E10001B0283604B6943618B69C361002383614B
:101E2000704700BF9016400082684FF00043136176
:101E3000826853618268936182680023536282687A
:101E40009362704708B5FFF7EFFF002008BDFFFF62
:101E5000002810DB00F01F01430901228A402033D3
:101E6000054941F82320BFF34F8FBFF36F8F034B1A
:101E7000002243F82020704700E100E00C330020EE
:101E800038B504464368DD6993F91200FFF7E0FFB7
:101E900095F92400FFF7DCFF95F92500FFF7D8FF3F
:101EA00000202060A368E2689A60A368586338BD88
:101EB000002800DA704708B50901C9B200F1604393
:101EC00003F5614383F80013024B43F82020FFF72A
:101ED00031FF08BD0C3300208368D86AC0F3C350BB
:101EE000064B1A6A02F00701C2F30262044B1B6838
:101EF0009340CB4023FA00F0704700BF00E0014060
:101F00009834002010B50C4683685B6E01338B60FB
:101F1000FFF7E2FF606001232370002010BD4368DB
:101F2000DB6993F8302012F0010F03D09A6A8168C0
:101F3000013ACA6493F8302012F0020F03D0DB6A32
:101F40008268013B13657047F8B504460E46CD69BB
:101F5000EFF31080012383F31088374B1A690F7C4D
:101F60004FF00041F94022EA01021A611B6980F337
:101F70001088A3684FF425421A60A2680023D36238
:101F8000A268D363A2689364337ADB057768013F64
:101F90003278032A49D0A268D3622046FFF744FF73
:101FA000A368AA69DA61A368EA691A62A3689F66EE
:101FB000A3685F66AF6B2046FFF7B1FFA2680023FE
:101FC0009363A268C2F88830AB6B3BB995F82030B8
:101FD00047EA433395F8217043EA477795F8303064
:101FE00033BB4FF4AA02A3681A64A3685F63A368B3
:101FF00003221A63A36801221A63A368E268DA6005
:102000002246717C96F91200FFF752FF224695F89E
:10201000221095F92400FFF74BFF224695F8231074
:1020200095F92500FFF744FFF8BD43F48033B2E78C
:102030004FF4A002D7E700BF0040084038B504467F
:102040000D460A7C01239340C360FFF7D5FE294665
:102050002046FFF779FF024B2360002038BD00BF08
:102060005450470030B585B004468C461546836908
:10207000B3B193E807000DF1100E0EE9070083F8E5
:1020800004C09D60E2691A60626918469047A369BE
:1020900023B104AA12E9070083E8070005B030BDA8
:1020A00001ABECE710B5EFF30380C0F30800103884
:1020B00040B2134B00F1C00253F8221021F48031DA
:1020C00043F8221053F822300E4B53F82040636837
:1020D0001B78012B07D0636923B1002211462046EB
:1020E000FFF7C0FF10BDA368E2689A60A2680023F2
:1020F0009364A268D364A2681365FFF7FFFDEAE763
:10210000006000400C3300200B4B00F1C00253F87C
:10211000221021F4803143F8221053F82230BFF30B
:102120005F8F00F01F024009012393406030034A93
:1021300042F82030704700BF0060004000E100E03E
:1021400010B50446FFF7E0FF04F01F026409012305
:102150009340024A42F8243010BD00BF00E100E085
:10216000054BB3F8843003F0810313B90B700020E2
:10217000704701230B70FAE700E07F4006207047AC
:1021800006207047062070470620704706207047DB
:102190000B46064A92E8030083E80300044A08332A
:1021A00092E8030083E8030000207047FCD302009C
:1021B000E4D3020000230360436893F91130002B3D
:1021C0000CDB03F01F015B0901228A402033104918
:1021D00041F82320BFF34F8FBFF36F8F0D4B0022C9
:1021E0001A76436893F9133093420CDB03F01F0116
:1021F0005B0901228A402033054941F82320BFF3BF
:102200004F8FBFF36F8F0020024B1875704700BFD0
:1022100000E100E000E07F4081630264C3630020CE
:102220007047FFFF30B482B014467AB9436893F91F
:10223000113003F01F055B090122AA4020332A4D0B
:1022400045F82320BFF34F8FBFF36F8FC26A274B30
:102250001A63A3F5F033E8221A704FEA510CC1F368
:102260004701197000218C451FD903690193836AC6
:102270001A881F4B1A801D4BD3F8803013F4806FDF
:1022800008D0019B5A1E0192002BF4D1142002B0F9
:1022900030BC7047836A02338362C36A0233C3620D
:1022A000036B013B03630131DDE7114BD0221A7050
:1022B00064B9436893F9113003F01F015B090122EF
:1022C0008A40094941F823202046E0E7074BD3F82C
:1022D000803013F4004F04D10CB1013CF6E7142018
:1022E000D5E70020D3E700BF00E100E000E07F4039
:1022F00000007E40002380F834303549012381F806
:1023000016340A6AC2F3027CC2F30262314B1B68C4
:1023100003FA02F222FA0CF2096AC1F302618B405D
:10232000CB402D498A424FD902F5742202F23F2256
:102330002A49A1FB02C2920C03F5742303F23F2346
:10234000A1FB03139B0C02F5F0522549A1F8E420F0
:1023500043F6B85103FB01F1224AA2FB01C18908EF
:10236000816040F6D86103FB01F1A2FB01C189083D
:10237000C1605900A2FB01C189080161542103FB1E
:1023800001F1A2FB01C189084161174903FB01F179
:10239000A2FB01C18908816144F2506103FB01F194
:1023A000A2FB01C189084162104903FB01F1A2FBB4
:1023B00001C1890801620E4901FB03F3A2FB03235B
:1023C0009B08C361002070474FF4FB70704700BF4B
:1023D00000E0014098340020FF083D0083DE1B43ED
:1023E00000E07F40ABAAAAAA38AF040080DE0F004D
:1023F000A0F703002DE9F041044641600B785BB97A
:102400001A4B00221A761A752046FFF773FF08B997
:10241000174B2360BDE8F0810D464B688363CB68A2
:1024200003640023C363DFF84480012388F8183075
:1024300091F911000B7C1B01DBB20E4E321882F8B1
:1024400000330D4F47F82040FFF77AFE982388F8B5
:10245000143095F91300AB7C1B01DBB2064486F8FF
:10246000003347F82040FFF76BFECDE700E07F40E8
:102470004E45504F00E100E00C33002008B5FFF757
:1024800039FF08BD10B4124B846A1C63A3F5F03306
:102490004FF0200C83F800C04FF0D00C83F800C040
:1024A000836A0B448362036B013B036310461AB9D2
:1024B0005DF8044B70470138054BD3F8803013F4B6
:1024C000004F03D10028F6D11420F1E70020EFE7F8
:1024D00000E07F40164BB3F8841089B24FF42A42D3
:1024E000A3F884204FF49642002000E0013A104BFC
:1024F000B3F884309BB223B1002AF7D14FF4FA70BD
:10250000F4E7012900D07047094B4DF60112A3F8FA
:102510004420084B0122A3F80421064BB3F80431F0
:102520009BB2002BF9D1034B0122A3F80021EAE76B
:1025300000E07F4000C0014082B04FF49643019319
:102540000E4BB3221A7002E0019B013B01930C4B2E
:10255000D3F8803013F4004F05D1019B002BF3D149
:10256000142002B07047064B1B7C13F0100F01D1F2
:102570000020F6E740F2F510F3E700BF00007E40D0
:1025800000E07F4010B503461446134A127C12F057
:10259000100F0CD10020104AD2F880200A4200D13E
:1025A0000446A3B9ACB1FFF7C7FF204610BD0A4AE5
:1025B000D2F8802012F4804F02D140F2F510EAE701
:1025C000054A107C0020107440F2F510E3E71C4629
:1025D000E9E72046EAE700BF00E07F4082B04FF421
:1025E000964301930E4B50221A7002E0019B013B6F
:1025F00001930C4BD3F8803013F4004F05D1019BAD
:10260000002BF3D1142002B07047064B1B7C13F053
:10261000100F01D10020F6E740F2F510F3E700BFFC
:1026200000007E4000E07F4010B582B004460A46BC
:10263000C36BA3B193E803000DF1080C0CE9030090
:102640001A70226C5A60A26B18469047E36B23B154
:1026500002AA12E9030083E8030002B010BD6B4632
:10266000EEE7FFFF10B582B04FF496430193436845
:102670001A782AB9114B4AF68022A3F884200DE07B
:10268000044693F91100FFF75BFD636893F91300AB
:10269000FFF756FDEEE7019B013B0193074BB3F8B3
:1026A00084309BB2802B05D0019B002BF3D14FF4DB
:1026B000FA7000E0002002B010BD00BF00E07F40D3
:1026C00070B50546FFF7CEFFE0B96B681B78D3B154
:1026D000012385F834300646324604212846FFF7A8
:1026E000A1FD6B681B786BB918224FF48051FFF77E
:1026F00049FF04462B6B0BB10028EDD0FFF7EAFE33
:1027000004B1204670BDEE68E6E708B55B080363D8
:102710008162C262002380F83430FFF7D1FF08BD28
:1027200070B5054681620263FFF79CFF18BB064641
:102730006B681B78EBB1022385F834300F4B012214
:10274000A3F8E020324640212846FFF79BFE6B6845
:102750001B786BB919224FF40051FFF713FF0446A1
:102760002B6B0BB10028EDD0FFF7B4FE04B120466F
:1027700070BD6E6AE2E74FF4FA70F9E700E07F405F
:1027800008B54FF0000C80F834C021F03F01FFF78E
:10279000C7FF08BDF8B507460C4616461D46FFF7AD
:1027A00061FFD0B91D4B002283F8D0201C63344454
:1027B000013C5C63A3F5F03371221A70D0221A70C9
:1027C0007B681B7823B97969B60806FB011606E019
:1027D000032387F8343002232B70F8BD013E0F49E4
:1027E000D1F8801011F4004F02D1002EF6D1142040
:1027F0004FF4FC720021FFF7C5FE0446074B93F827
:10280000D430DBB2012B07D000232B70FFF762FE20
:10281000002CE2D02046E0E72B70F7E700E07F4095
:1028200008B5FFF7B7FF08BD70B5044643681A78CE
:10283000EAB193F9113003F01F015B09012202FA9A
:1028400001F11748203340F82310BFF34F8FBFF337
:102850006F8F636893F9133003F01F015B098A409F
:10286000203340F82320BFF34F8FBFF36F8F0D4B02
:10287000B3F884309BB27BB1FFF75EFE0646FFF7EC
:10288000ADFE054606B13546FFF724FE05B12846E4
:10289000002384F8343070BD2046FFF7E3FEEBE7F9
:1028A00000E100E000E07F4008B5FFF7BDFF08BD94
:1028B00070B5EFF30383C3F30803103B5CB2184B0E
:1028C00053F82450174A137CD2F8802013F0080FD5
:1028D0000BD1D9B211F0800F1BD111F0100F1AD00B
:1028E00012F4405F19D0072600E004262846FFF7BF
:1028F0009BFF0D4A04F1C00352F8231021F48031EC
:1029000042F8231052F8233031462846FFF78CFE58
:1029100070BD0526EAE70726E8E70626E6E700BFDA
:102920000C33002000E07F400060004038B5EFF33A
:102930000383C3F30803103B5BB21F4A52F82340E2
:102940001E4AC03352F8231021F4803142F823107C
:1029500052F8233094F83450012D12D0022D1ED09D
:10296000174B93F8D430DBB2012B22D00225FFF7AE
:10297000B1FD002384F8343029462046FFF754FE89
:1029800038BD236B002BF2D0002204212046FFF734
:1029900049FC0028F4D02046FFF746FFF0E7236B00
:1029A0000BB90025E3E7002240212046FFF76AFD2E
:1029B000E6E70325DBE700BF0C33002000600040A2
:1029C00000E07F400B4B00F1C00253F8221021F4CD
:1029D000803143F8221053F82230BFF35F8F00F0AC
:1029E0001F024009012393406030034A42F820301F
:1029F000704700BF0060004000E100E010B50446F1
:102A0000FFF7E0FF04F01F02640901239340024A2C
:102A100042F8243010BD00BF00E100E030B40346AE
:102A2000002098601A6892F9152002F01F055109DC
:102A3000012202FA05F51E4C203144F82150BFF363
:102A40004F8FBFF36F8F196891F9161001F01F05B2
:102A5000490902FA05F5203144F82150BFF34F8FA0
:102A6000BFF36F8F196891F9171001F01F0549091D
:102A700002FA05F5203144F82150BFF34F8FBFF320
:102A80006F8F596881F84C08C1F82C04EFF310855A
:102A900082F3108807494C681B681B68C3F1020366
:102AA0009A4022434A604B6885F3108830BC7047D7
:102AB00000E100E000400840062070474268B2F89C
:102AC00042389BB20B6092F84E384B7392F84F38F5
:102AD0000B7392F8503803F07F030B6183F07F0390
:102AE00082F8503800207047C161426203620020C2
:102AF0007047FFFF037B43B1022B04D00023106813
:102B000020F0604006E0137953B91368084800EAE2
:102B100083400023527943EA827303430B6070477A
:102B2000012B01D00023EAE74FF00043E7E700BFA5
:102B30000000FC1FF8B503461746026810695E687E
:102B4000731893F82038DB091FD10D4601F12003DB
:102B500006EB03143A462146FFF7CCFFBA79A38867
:102B600062F30303A380B879A31D07F10C0204E00C
:102B700012F8010B03F8010B0846411E0028F7D19B
:102B80002E44802386F82038F8BD4EF66320FBE7FC
:102B900030B4446801F1200C4FEA0C1C54F80C507E
:102BA000C5F38073537103681B691B7B54F80C00D9
:102BB00043EAD07303F00103137193B9C5F38A4557
:102BC000156001F1200304EB03139B88C3F303009A
:102BD00003F00F039071082B01D908239371002390
:102BE0000CE025F060451560EBE704EB011018449C
:102BF00090F806C2D01880F80CC001339079984242
:102C0000F3D80C44442384F820380023936030BC6C
:102C1000704770B58AB005468C46066A6EB3EE46BC
:102C200034460FCCAEE80F000FCCAEE80F0094E8AE
:102C300003008EE80300B646BCE80F00AEE80F00C4
:102C4000BCE80F00AEE80F009CE803008EE803002C
:102C5000EB69304698472B6A6BB19C46EE46BEE85E
:102C60000F00ACE80F00BEE80F00ACE80F009EE8D4
:102C700003008CE803000AB070BD0E46E8E7426826
:102C8000B2F8403823F48063A2F84038B2F84038F4
:102C900061F30923A2F84038B2F8423803F4E06344
:102CA000B3EB012FF8D17047F8B504460D464768DD
:102CB000437B93420AD1237BAB4206D0052D0FD034
:102CC00029462046FFF7DBFF2573F8BD1646022193
:102CD000FFF7D5FF87F85868667302232373EAE786
:102CE00002212046FFF7CBFFB7F8403843F480635A
:102CF000A7F84038B7F8423813F4806FFAD0E3E70A
:102D000008B5FFF7D1FF002008BDFFFF2DE9F04116
:102D1000074688460D690E6806F58026A8363603F4
:102D20004660EFF3108C012181F31088654A5468E6
:102D3000D8F80030C3F1020301FA03F324EA0303D5
:102D4000536053688CF31088C0F80080D8F80830BE
:102D5000C361D8F80C304362002404622B780376F8
:102D60002246FFF7A1FF2A7B2B7DDB0043EA4203CB
:102D700043F4E073A6F84038D8F804201368591ECD
:102D8000514B03EA01435168013943EA01739168E9
:102D9000013943EA0123D268013A43EA02333A7E19
:102DA0001343C6F84438224602213846FFF77CFF19
:102DB000802386F850384FF400722146B01813F083
:102DC000D1F804E00023321982F8203801341F2C96
:102DD00011D8AA6802EBC4029379002BF2D12969B9
:102DE000A142F0D904F1200106EB01112846FFF7BA
:102DF00081FE4023E7E700231C4607E003F58071CE
:102E000046F821200F228240144301332A69B3EB94
:102E1000920F0ED26A68980052F823206FF060413A
:102E20008A42F2D2297B0029E8D1284901EA82426C
:102E3000E4E7E443C6F82844002211463846FFF789
:102E400033FFB6F8403843F02003A6F84038B6F810
:102E5000403813F0200FFAD198F9150098F8143083
:102E60001B01DBB21A4C221882F80033194D45F8C9
:102E70002070FFF7C3FD98F9160098F814301B0175
:102E8000DBB2221882F8003345F82070FFF7B6FD58
:102E900098F9170098F814301B01DBB2044484F849
:102EA000003345F82070FFF7A9FD3E2386F84C3823
:102EB0004FF0FF33C6F82C34074BBB600020BDE851
:102EC000F08100BF004008400000FF030000FC1F2D
:102ED00000E100E00C3300204E41435230B58BB08E
:102EE000EFF30383C3F30803103B5BB2304AC033F4
:102EF00052F8231021F4803142F8231052F8233085
:102F0000EFF30383C3F30803103B5BB2294A52F883
:102F1000235028220021684613F024F86C6894F8A6
:102F20004D38DBB2ADF80430002284F84D28B4F8F7
:102F3000422812F0100F38D043F02003ADF80430CF
:102F400094F85328D2B2022384F8533894F85238B4
:102F500003F01F0384F85328E11891F8202822F089
:102F6000040281F820282A68126800926A6A049292
:102F7000039369462846FFF74CFE2B681969B4F89D
:102F8000422812F0100F0ED00A7D62B193F915306D
:102F9000002B08DB03F01F015B0901228A4040334C
:102FA000054941F823200BB030BD0023DBE700BF0B
:102FB000006000400C33002000E100E02DE9F0410A
:102FC0008AB0EFF30383C3F30803103B5BB2244AD8
:102FD000C03352F8231021F4803142F8231052F804
:102FE0002330EFF30383C3F30803103B5FFA83F846
:102FF0005CB21C4B53F824604FF48063ADF804308E
:10300000756895F85338DBB2002285F8532895F897
:10301000527807F01F0785F8533805AA394630461D
:10302000FFF7B6FD039733681B680093736A049338
:1030300069463046FFF7EDFDB5F8423813F0010F51
:103040000BD0002C09DB08F01F086309012202FAEB
:1030500008F24033044941F823200AB0BDE8F0816A
:10306000006000400C33002000E100E030B58BB080
:10307000EFF30383C3F30803103B5BB2254AC0336D
:1030800052F8231021F4803142F8231052F82330F3
:10309000EFF30383C3F30803103B5BB21E4A52F8FD
:1030A00023500022ADF804206C6894F85318C9B27C
:1030B000012384F8533894F8523803F01F0384F83E
:1030C0005318E11881F8202881F8202803934FF441
:1030D0000063ADF804302B681B6800936B6A04939F
:1030E00069462846FFF795FDB4F8423813F0020F01
:1030F0000DD02B6893F91730002B08DB03F01F016C
:103100005B0901228A404033044941F823200BB077
:1031100030BD00BF006000400C33002000E100E043
:103120000B4B00F1C00253F8221021F4803143F818
:10313000221053F82230BFF35F8F00F01F024009C6
:10314000012393406030034A42F82030704700BFAB
:103150000060004000E100E010B50446FFF7E0FF2A
:1031600004F01F02640901239340024A42F824300C
:1031700010BD00BF00E100E081610262C361002078
:1031800070470368828A1A800020704706207047C3
:10319000036800201880704703681B88C3F3C0339E
:1031A0000B70002070470368103133F81130138022
:1031B0000020704730B583B0054614460023ADF8B3
:1031C00006300DF10602FFF7EEFF30B9BDF806300C
:1031D0006A681279012A02D0236003B030BD1B0453
:1031E000FAE70620704706207047FFFF2DE9F041FF
:1031F0004C698B785B0343F41073A578002D4BD199
:103200004FF480721A433F2D48D04FF4007313439C
:103210002279002A44D043F080039AB28282A378B4
:103220001B0203F47C53E57805F03F0543EA050EE5
:10323000CD780B79DB0343EA4503657843EA451310
:103240002678EFF310884FF0010C8CF31088174D9F
:10325000EF680988C1F110010CFA01FC27EA0C079C
:10326000EF60E96888F31088016822F40072520464
:10327000520C0A8001681FFA8EF20A8202689BB221
:10328000D38103681E73A379012B00D00023026849
:1032900082F8D030BDE8F0810022B3E70023B6E722
:1032A0003F2DBAD143F40043B7E700BF00400840C8
:1032B000104B1A6AC2F30211C2F302620E4B1B6872
:1032C0009340CB400D4AA2FB03239B0941F23602F7
:1032D00002FB03F302F1864202F5DE1202F64D62B2
:1032E000A2FB03239B0C0133062B00D807230360AA
:1032F000704700BF00E0014098340020D34D6210B9
:1033000030B583B005460C460023019301A8FFF7B2
:10331000CFFF226863681A4312F0005320D0EFF306
:103320001080012383F310881D4BD96821F480019C
:10333000D960DB6880F310881A4B902119702B68D4
:103340009DF8041083F8DE10236813F0005F20D08E
:103350004FF48073A16811F0005F01D043F00103C6
:1033600012F0804F10D02A689DF8041082F8DF1008
:10337000226812F0804F0FD043F40073A26812F05D
:10338000804F01D043F002032A689BB2538203B0FE
:1033900030BD4FF48063DDE743F40063EEE700BF28
:1033A0000040084000300F40002800DA704708B5A0
:1033B0000901C9B200F1604303F5614383F80013CA
:1033C000024B43F82020FFF7C7FE08BD0C33002056
:1033D000F8B504460D464E694160CB6883610B69C0
:1033E00003620027C7610B885B0203F1804303F58A
:1033F000B8130360FFF7FAFE2246697A95F90600D2
:10340000FFF7D2FF2246A97A95F90700FFF7CCFF14
:103410002246717A96F90700FFF7C6FF2246B17A75
:1034200096F90800FFF7C0FF2761024BA3603846FA
:10343000F8BD00BF43444152002810DB00F01F01DB
:10344000430901228A402033054941F82320BFF374
:103450004F8FBFF36F8F034B002243F8202070473C
:1034600000E100E00C33002070B5044600258560C3
:10347000C56043685E6993F90600FFF7DDFF636886
:1034800093F90700FFF7D8FF96F90700FFF7D4FF7D
:1034900096F90800FFF7D0FF23681D8223681D807E
:1034A000EFF31086012383F31088074AD168606820
:1034B0000088C0F1100083400B43D360D36886F3CB
:1034C0001088284670BD00BF0040084002464FF0FB
:1034D000FF30002303E00130012383401340002B21
:1034E000F9D070472DE9F84304460D460B6823F0E8
:1034F000C04642685769D1F8048028F0C04CD1F822
:1035000008E02EF0C0499BB20268938003681FFA5E
:1035100088F8A3F8148003681FFA8EFEA3F808E069
:1035200003684FEA164EA3F806E003684FEA1C4C06
:10353000A3F816C003684FEA19425A81FFF7E0FE6C
:10354000EB68002B66D01A8912F4006F32D0216824
:10355000A1F8902021685889A1F89C0021689889D9
:10356000A1F89E00196820681FFA81FCA0F894C099
:103570004FEA114C20682CF4C04C1FFA8CFCA0F8C8
:1035800096C02068C1F3417180F892105968206894
:103590001FFA81FCA0F898C04FEA114C20682CF467
:1035A000C04C1FFA8CFCA0F89AC02068C1F341718E
:1035B00080F89310198911F4007F0FD0997C93F84B
:1035C00013C0206841EA0C0180F8A6102168D88950
:1035D000A1F8A80021681B8AA1F8AA302368A3F8E3
:1035E000902023682A8AA3F880203B7973B122684F
:1035F00013889BB223F01F0376B1B6FA86F69B1BA5
:103600001F339BB21380A28A1343A382034BE36050
:10361000BDE8F8830022E1E72026F0E74344415269
:1036200038B504460D46FFF75DFF2B682361002087
:1036300038BDFFFF70B506460C4605695DB34FEA1D
:1036400075752846FFF742FF336800F10D0203EB62
:1036500042032360EDB1B5FA85F3C3F11F031B1AD2
:1036600001336360012323724FF4B0736381736885
:103670001B8804335B0063724FF0FF33E360074B3A
:10368000D3F87C319BB2E3604FF47A63238200204D
:1036900070BD2023E1E700234B60E3E700B07F40EB
:1036A000064B93F826101A6AC2F30262044B53F8D1
:1036B0002130D340034A1360704700BF00E001404F
:1036C0004C2800209834002008B5084B084A1A609E
:1036D000084A5A604FF400429A600749D9601A615B
:1036E000064A5A61FFF7DCFF08BD00BF4C280020E6
:1036F0000024F40000127A00001BB70000E1F50579
:1037000008B50A4B012283F81C2103F50053084A2F
:103710001A62052283F82620FFF7C2FF054BF1222B
:103720001A7300221A72F0221A7308BD00C00140F9
:1037300010010110002000407047FFFF08B5144B36
:1037400093F880342BB9124B93F8813413F0030FA4
:1037500018D00F4B93F8803433B10D4B002283F80F
:10376000812483F8802408BD0121094B83F880144B
:10377000C82000F08FF8064B93F88034DBB2012BA1
:10378000F9D1EAE74FF47A70FFF7D6FFEBE700BF15
:1037900000E0014010B51E4B4AF20352A3F8FE238D
:1037A000A3F500530122A3F804211A4BB3F8043106
:1037B0009BB2002BF9D1174B0122A3F80021FFF790
:1037C00083FF134C202384F81334092384F8A23098
:1037D000FFF7B4FF002384F832300D4B93F83C30F0
:1037E00013F0080FF9D00A4B43F202121A85002297
:1037F00083F82A20064B93F83C3013F0200FF9D0C1
:10380000FFF77EFF024B4FF42542A3F8FE2310BDC5
:1038100000E0014000C0014038B5184C002584F894
:1038200028500121C82000F035F884F82450134BAB
:1038300093F82430002BFAD1104A92F8243043F048
:10384000020382F824300D4B93F8243013F0020F5A
:10385000F9D10A4B002283F82220084B93F822303A
:10386000002BFAD1012000F013F9054B002283F858
:10387000BB24012000F0D8F838BD00BF003008405C
:1038800000E00140704700BEFEE7A0F10100002803
:10389000FBD1704708B500FB01F1204B1B682048A5
:1038A000B0FBF3F0CA0E4B015B1A62F1000292000A
:1038B00042EA93729B005B1842F10002D20042EA96
:1038C0005372DB004FF0FF3C9C454FF0000C7CEB4B
:1038D000020C06D3B3FBF0F3980808B1FFF7D5FF4D
:1038E00008BD8000B1FBF0F1CA0E4B015B1A62F11A
:1038F0000002920042EA93729B005B1842F10002C0
:10390000D20042EA5372D8004FF0FF3383424FF0A7
:1039100000039341E1D24FF0FF30DFE798340020FD
:1039200000CA9A3B08B5034B53F8203003B19847BF
:1039300008BD00BFD032002038B50D4BB3F82021B0
:10394000B3F84051ADB21540002401E00134E4B2B7
:103950000D2C08D825FA04F313F0010FF6D02046F9
:10396000FFF7E0FFF2E7024BA3F8305138BD00BF8C
:103970000060004000B585B0032000F089F8254BB9
:103980006FF0FF029A644FF0FF33019302930393A9
:10399000002300E001335F2B14D81F4A32F81320B4
:1039A000002AF7D05A0903F01F0C04A901EB820288
:1039B00052F80C1C012000FA0CF021EA000142F838
:1039C0000C1CE7E700230DE004AA02EB830252F887
:1039D0000C2C124941F8232003F1A000104941F8B2
:1039E00020200133022BEFD9032000F01DF8002323
:1039F00000E001335F2B0AD8074A32F81320002A6F
:103A0000F7D003F1C001074840F82120F1E705B0E5
:103A10005DF804FB008000403CD202007080004052
:103A200000E100E000600040EFF31082012383F327
:103A30001088144B33F810309BB23BB1114931F868
:103A400010309BB2013B9BB221F810300D4B33F884
:103A500010309BB293B910B40B49B1F8FE339BB24E
:103A60000A4C34F8100043F4254323EA0003A1F87C
:103A7000FE3382F310885DF8044B704782F31088A0
:103A8000704700BF8C34002000E0014074D4020075
:103A900010B4EFF31081012383F310880F4B33F838
:103AA00010309BB263B90E4AB2F8FE339BB20D4C94
:103AB00034F810C043EA0C0343F42543A2F8FE3364
:103AC000064A32F810309BB201339BB222F8103014
:103AD00081F310885DF8044B704700BF8C340020E0
:103AE00000E0014074D4020008B503460C4A126895
:103AF0005AB10B4A1068033323F003030344094A05
:103B0000934206D8064A136008BD054A064911606B
:103B1000EFE712F025F90C2303604FF0FF30F3E7D5
:103B200094340020D07D0020D05D002000BE70477E
:103B300008B500F005F8FCF705FFFEE77047FFFF4A
:103B400038B52C4B4FF47002C3F888202A4C9C6087
:103B50000020FFF7F3FFFFF71DFE0120FFF7EEFF48
:103B60002368A3F5005383F30A882448244A121AD1
:103B7000002112F0F7F92348234A121A234911F0C1
:103B80000FFB234D234BED1AAD10002404E0214B15
:103B900053F8243098470134AC42F8DBFFF780FD3E
:103BA000FFF73AFE0320FFF773FF002307E003F15E
:103BB0000801194A4FF6FF7022F811000133072B54
:103BC000F5D90320FFF730FF0320FFF761FF134B08
:103BD00000245C609C60DC601C610320FFF724FF14
:103BE0000220FFF7ABFFFFF7C5FE2046FFF74AFEB6
:103BF00038BD00BF00ED00E0000001006828002093
:103C0000CC5D0020000000204C2800207CDA02005F
:103C10004828002044280020000D084000000E40E5
:103C200070B50D461646044670B1681C6060A6600B
:103C300000256561E56025612560314611F0E2FCF3
:103C40002060257660B170BD1C2011F0B7FA0446E3
:103C50000028EAD1044B054A2F210548FFF713FE3F
:103C6000044811F095FAEEE7E49902007CD40200D2
:103C7000F49902001C9A020038B504460123037629
:103C8000C36801334568B3FBF5F005FB10352369C4
:103C9000AB4202D10020207638BD2368E068A268DC
:103CA00002FB003011F07CFAE56063690133636167
:103CB000002323760120EFE710B5044601230376A5
:103CC000C26803699A4202D10020207610BD0846DE
:103CD00023682169A26802FB013111F061FA2369AE
:103CE00001336268B3FBF2F102FB113323616369B4
:103CF000013B6361002323760120E7E770B50546A9
:103D00000E46102011F05AFA044650B18560466004
:103D100006FB05F011F052FA0546206018B10023A9
:103D2000E360204670BD204611F050FA2C46F8E7BB
:103D300080B110B50446C368826893420DD2006812
:103D4000626802FB030011F02BFAE3680133E360C1
:103D5000002010BD4FF0FF3070474FF0FF30F8E704
:103D600008B1C06870474FF0FF307047034630B16C
:103D7000C0689B68984234BF002001207047012032
:103D8000704740B1C2683AB18A4207D902684068B8
:103D900001FB0020704770470020704700207047EB
:103DA000D8B138B50B460446D1B105684168C06842
:103DB000013800FB0152AB4215D3934216D809D00B
:103DC000D21A1944184612F0B3F8E368013BE360D5
:103DD000002038BDE0600020FBE74FF0FF30704767
:103DE0004FF0FF30F5E74FF0FF30F2E74FF0FF30D4
:103DF000EFE7FFFF28B100B5864600234FF6FF70BE
:103E00000CE07047020292B21EF803C08CEA102C3C
:103E10000448006830F81C00504001338B42F1D355
:103E20005DF804FBD80000200023934212D210B4A6
:103E300011F803C08CEA102C074C246834F81CC01D
:103E4000000280B28CEA000001339342F0D35DF8A7
:103E5000044B7047704700BFD80000200146002384
:103E6000FF2004E0A1F13000C0B201339BB2152B5A
:103E700012D80C4AD25C8A42F7D1092BF2D9A3F1AD
:103E80000A0292B2052A03D9A1F15700C0B2ECE7A9
:103E9000A1F13700C0B2E8E7FF2800D0704708461C
:103EA000FCE700BFDC0200200123002205E010F83F
:103EB00003C06244D2B201339BB201F1FF3C6345BF
:103EC000F5DB5042C0B2704710B502783A2A2AD1C9
:103ED000174B1A7042785A7082789A70C278DA70EA
:103EE00002791A71134A9A60002309E003F1050C64
:103EF0000F4A926810F80CC002F803C001339BB25D
:103F00000B4A52789A42F1D80532845C084B1C73F4
:103F1000FFF7CAFF844201D1054810BD064811F0E1
:103F200037F90020F9E7054811F032F90020F4E7ED
:103F3000BC3400209C340020309A0200409A0200D9
:103F40002DE9F0478046894692460024254607E041
:103F50000AF805600135ADB2013CA4B20234A4B246
:103F60004C4515D218F90470F8B2FFF777FF0646F2
:103F700008EB040393F90100C0B2FFF76FFFBE42E4
:103F8000E6D040EA06100AF805000135ADB2E5E7D3
:103F90002846BDE8F08780B100B5864681B1002390
:103FA000934207D21EF903C0C85684450BDB0DDCD3
:103FB0000133F5E700205DF804FB6FF00100704766
:103FC0006FF00100F7E74FF0FF30F4E70120F2E770
:103FD00048B110B50446406808B111F0F7F8204622
:103FE00011F0F4F810BD7047F8B5044609B9204641
:103FF000F8BD15460F460C2011F0E0F806460E4BB2
:104000000360A0682844B060013011F0D7F87060F8
:10401000A268616811F0C4F87068A3682A4639463E
:10402000184411F0BDF87268B3680021D1542046DD
:10403000FFF7CEFF3446DAE78CD4020038B50446E9
:1040400009B9204638BD0D46084611F033FA02463C
:1040500029462046FFF7C8FF0446F2E740B110B5F5
:104060000446406811F0B2F800236360A36010BDFD
:104070007047884210D088B191B108B582688B68CA
:104080009A4201D0002008BD4968406811F040FF05
:10409000B0FA80F04009F6E7012070470020704731
:1040A0000020704708B58268406811F031FFB0FA0F
:1040B00080F0400908BDFFFF70B50646A0B10D466F
:1040C0000C2011F07BF80446084B0360681C11F0CB
:1040D00075F86060A5602A46314611F061F86368A2
:1040E00000225A55204670BD0446FBE78CD40200DE
:1040F00010B5044611F0DEF901462046FFF7DCFF5B
:1041000010BDF8B515461E4611F098FAB0B1074635
:10411000294611F093FA044698B1284611F0CAF9DD
:104120000444E41B069B9C420EDC22463946304682
:1041300011F008F9002333552046F8BD4FF0FF3445
:10414000FAE76FF00104F7E76FF06204F4E7FFFFAE
:10415000F8B50F46044610B12CB920461FE0144BA9
:104160001C68F9E7013494F900502DB1294638460E
:1041700010F0ACFF0028F5D1BDB1254695F90060DF
:1041800036B13146384610F0A1FF08B90135F5E7E0
:1041900036B1002305F8013B054B1D602046F8BDF4
:1041A000034B00221A602046F9E70020F7E700BF22
:1041B000CC3400202DE9F04F83B0824690F90030D6
:1041C0002D2B08D02B2B0CD0012301934FF000088E
:1041D0004FF0000920E000F1010A4FF0FF33019396
:1041E000F4E700F1010A01230193EFE70022304BCD
:1041F0004046494610F070FA06460F46A4F13000DA
:1042000010F000FA02460B463046394610F0AEF880
:10421000804689460AF1010A9AF90040A4F1300368
:10422000DBB2092BE2D92E2C3ED10AF1010A4FF064
:10423000010B00241E4D0026002718E0303810F036
:10424000E1F922462B4610F071FB02460B46304640
:10425000394610F08BF806460F460022144B2046D4
:10426000294610F039FA04460D460AF1010ABBF15D
:10427000000F05D09AF900002F2801DD3928DDDD77
:1042800032463B464046494610F070F804460D461B
:10429000019810F0B7F922462B4610F01DFA41ECB8
:1042A000100B03B0BDE8F08F4FF0000BC1E700BF6B
:1042B000000024400146002005E000EB8000303B78
:1042C00003EB4000013191F90030A3F13002D2B28A
:1042D000092AF2D970470023436401E00133DBB2BD
:1042E000022B0AD803EB4302024492F84920032A26
:1042F000F4D1426C01324264F0E770475BB100EBED
:1043000040000344012283F848200E2283F849200C
:10431000002283F84A20704722B310B5144600EB00
:104320004003134493F84930032B0BD000EB4003B8
:104330002344012283F8482083F84920A16B81425D
:1043400004D010BD536C013B5364EFE7E36D2BB118
:10435000DB681BB1226EC9B2002098474FF0FF33D3
:10436000A363EEE7704794467AB100EB4003134431
:1043700093F84930102B09D08B6A00EB40001044B1
:1043800080F849308B6A032B10D07047137A032BC7
:10439000F8D18B6A0E2BF5D100EB400010440023BE
:1043A00080F84A300E2380F84930EBE7DCF84430DF
:1043B000002BEAD10133CCF84430E6E710B50446CF
:1043C000FCF756FAA368E268C01A61EB02012368A1
:1043D0006268984271EB020403DA181A62EB010179
:1043E00010BD00200146FBE7F0B583B004460E4641
:1043F0001546089FFCF73CFA024630490020FCF7BE
:104400001DFA2F4B53F82620ADB12E4B00932346B7
:104410002D490020FCF712FA2C490020FCF70EFA77
:10442000002D3BD13B7A013B042B3AD8DFE803F067
:10443000050E39272200264BE8E7022E31D104EB86
:1044400044043C44102384F849302AE0032E28D148
:10445000FCF70EFA024619490020FCF7EFF91D4956
:104460000020FCF7EBF919490020FCF7E7F90323DA
:104470003B7216E0032E14D100233B7211E0032E91
:104480000FD13846FFF727FFFB6D53B15B6843B18F
:104490003A6E97F83C100020984702E03B7A032BD5
:1044A00004D04FF0FF337B6303B0F0BD04EB440452
:1044B0003C44002384F84A30F3E700BF5C9A0200D2
:1044C00010030020549A0200689A02004CBF0200B8
:1044D0005CA50200809A0200F8B506460024254635
:1044E00001E00134E4B2022C13D804EB440333445A
:1044F00093F84830002BF4D02146306806F08CFA4F
:104500000028EED02146306806F0FDF9036B1D440B
:10451000E7E76B1F07EE903AF8EE677A9FED057AB2
:1045200067EE877ADFED046A87EEA67A736D83ED16
:10453000007AF8BD000091440000C84270B52DED2E
:10454000028B054600249FED178A01E00134E4B296
:10455000022C21D804EB44032B4493F84830002B61
:10456000F4D02146286806F057FA0028EED02146FC
:10457000286806F0C8F9D0ED087AF8EEE77A90EDF1
:10458000097AB8EEC77A67EE877ADFED076A87EEB9
:10459000A67A38EE078AD9E76B6D83ED018ABDEC08
:1045A000028B70BD000000000024744910B5044661
:1045B000FFF792FF2046FFF7C1FF10BD2DE9F04144
:1045C000054600244FF0FF37A046264602E0032BA5
:1045D0001FD00134022C1FDC04EB44032B4493F85E
:1045E0004830002BF5D004EB44032B4493F84930BA
:1045F000012BEED0052BECD02146286806F083F97C
:10460000836A0E2BE3D1026AB242E0DD27461646EA
:10461000DDE7D0F82080DCE7B7F1FF3F34D0EF636F
:10462000A6EB080686EAE671A1EBE6716B685A68AC
:10463000914205DB1B68B34214DB0020BDE8F0812A
:10464000FCF716F9024611490020FCF7F7F83A4644
:104650000F490020FCF7F2F80E490020FCF7EEF8B5
:104660000420EBE7FCF704F9024608490020FCF7B8
:10467000E5F83A4608490020FCF7E0F80549002033
:10468000FCF7DCF80120D9E70020D7E75C9A0200AC
:10469000A49A02004CBF0200D89A02002DE9F04112
:1046A0000546002427464FF0FF3801E00134E4B20C
:1046B000022C1DD8264604EB44032B4493F84830C3
:1046C000002BF3D004EB44032B4493F84920052A34
:1046D00004D82A23D34013F0010FE7D131462868CC
:1046E00006F011F9036ABB42E0DD1F46B046DDE784
:1046F0004046BDE8F081FFFF70B582B00446406BD4
:10470000B0F1FF3F23D10E461546022A1DD8626341
:104710000194104B009300230A462946206806F0B6
:1047200089F9FCF7A5F802460B490020FCF786F84A
:104730002B460A4A52F8262009490020FCF77EF849
:1047400008490020FCF77AF8002002B070BD4FF055
:10475000FF30FAE7E94301005C9A020010030020F1
:10476000109B02004CBF020070B505462030FFF7D9
:1047700025FE084345D1002401E00134E4B2022CB7
:104780001BD826462146286806F046F90028F4D0B2
:1047900004EB44032B4493F84830002BEDD104EB99
:1047A00044032B4493F84930032B01D0102BE4D160
:1047B000324604212846FFF79FFF6B6C002B14DC68
:1047C00095F830300133DBB285F83030092B10D941
:1047D0002846FFF763FF2864B0F1FF3F01D00523AF
:1047E0002B72002385F8303003E02846FFF7E6FE01
:1047F0002872FCF73DF8C5E90A01FCF739F8C5E96C
:10480000060170BD10B504462030FFF7D7FD084300
:1048100007D1636BB3F1FF3F04D0FCF729F8C4E97B
:104820000A0110BD226C03212046FFF765FFF4E763
:1048300010B50446002201E00132D2B2022A0BD8A0
:1048400002EB4203234493F84930032BF4D10221B5
:104850002046FFF751FF18E002232372FCF708F807
:1048600002460A490020FBF7E9FF09490020FBF74F
:10487000E5FF08490020FBF7E1FFFBF7F9FFC4E97A
:104880000A01FBF7F5FFC4E9060110BD5C9A0200BE
:104890002C9B02004CBF020010B504462030FFF7ED
:1048A0008DFD084300D010BDE16B206806F02BF8A9
:1048B00010B1836A0E2B04D0FBF7DAFFC4E90A01BA
:1048C000F1E7E26B03212046FFF716FFFBF7D0FF6D
:1048D00002460A490020FBF7B1FF237A022B0AD0D7
:1048E000074AE36B07490020FBF7A8FF06490020B1
:1048F000FBF7A4FFE0E7054AF3E700BF609B020077
:10490000589B02006C9B02004CBF02004C9B0200B3
:1049100070B505462030FFF751FD08436AD10024E9
:1049200001E00134E4B2022C1FD804EB44032B4411
:1049300093F84930102BF4D104EB44032B4493F843
:104940004A30002BEDD1224604212846FFF7D4FE41
:104950000028E6DB04EB44062E44012386F84A30A7
:10496000FBF786FFC5E90A0144E02846FFF7B3FCE0
:10497000EB6D33B11B6823B12A6E95F83C10002013
:104980009847AB6B002B1ADBFBF772FF02461A4904
:104990000020FBF753FF19490020FBF74FFF184990
:1049A0000020FBF74BFF06232B72EB6DD3B19B6806
:1049B000C3B12A6E95F838100020984712E0FBF733
:1049C00057FF02460C490020FBF738FF0D49002035
:1049D000FBF734FF0A490020FBF730FF00232B725E
:1049E00085F83030FBF744FFC5E90A01FBF740FFCB
:1049F000C5E9060170BD00BF609B0200909B0200EC
:104A00004CBF0200C09B020010B504462030FFF7E7
:104A1000D5FC08432DD1A16BB1F1FF3F09D020682F
:104A200005F071FF836A0E2B06D0042B04D00023FF
:104A30000AE0002323721CE0A26B03212046FFF74B
:104A40005BFE16E00133DBB2022B0ED81A4603EBF5
:104A50004301214491F849100329F3D1A16B8B4202
:104A6000F0D004212046FFF747FEFBF701FFC4E921
:104A70000A0110BD10B50446037A072B07D8DFE8FA
:104A800003F0041727372707474AFFF76DFE10BDCD
:104A90001030FFF793FC084303D02046FFF7B2FE27
:104AA000F5E7FBF7E5FEC4E9060107232372F4E707
:104AB0001030FFF783FC084303D02046FFF7B8FE11
:104AC000E5E7FBF7D5FEC4E9060107232372F4E707
:104AD0001030FFF773FC084303D02046FFF7DCFEDD
:104AE000D5E7FBF7C5FEC4E9060107232372F4E707
:104AF0001030FFF763FC084303D02046FFF708FFA0
:104B0000C5E7FBF7B5FEC4E9060105232372F4E708
:104B1000FFF77AFFBBE7C36D3BB11B682BB1026E99
:104B200090F83C104FF0FF3098474FF0FF3363632D
:104B3000FBF79EFEC4E90601FBF79AFEC4E90A01F1
:104B400000232372A3E7FFFF38B500283DD00D46B0
:104B50001E4A10601E4905F0B5FE2DB11B4B5D606D
:104B600000231A4A137210E0184B1A4A5A60F7E7EA
:104B700003EB4301154A0A44012182F8481082F8E8
:104B80004910002182F84A100133022BF0DD0F4C4E
:104B90000023636484F830304FF0FF326263A26315
:104BA00084F8583063689B68DA1723616261FBF709
:104BB0005FFEC4E906014FF47A720023C4E90823BA
:104BC000FBF756FEC4E90A01204638BDD034002068
:104BD000F40200200003002068B110B50446FFF77E
:104BE000E5FC94F858300BB1002010BD2046FFF7CB
:104BF00041FF0020F9E74FF0FF307047034668B1EE
:104C000000205860986083F81E04A3F81C04C3F8C1
:104C10001404C3F81804D860186170474FF0FF30CF
:104C2000704730B141B1C0F83814C0F83C240020BE
:104C300070474FF0FF3070474FF0FF30704730B192
:104C4000B0F81C04884214BF0020012070474FF0C8
:104C5000FF30704768B370B50E46034661B3C1605C
:104C600002611146002A21DB8912C3F81814C2F32D
:104C7000090212B10131C3F81814002583F81E543B
:104C8000A3F81C54C3F8145483F8205403F5866425
:104C900044F62062002344E90223FBF7E9FDC4E95E
:104CA000000130460CF064FC284670BD02F2FF3172
:104CB000DAE74FF0FF3070474FF0FF30F5E730B1E3
:104CC00008B539B1416080680CF010FB08BD4FF0A9
:104CD000FF3070474FF0FF30F8E7FFFF002872D039
:104CE00030B583B0044619B1416080680CF0FEFA1B
:104CF000D4F81424D4F81834013B9A4202DB01237F
:104D000084F81E3494F81E34FBB1A0680CF0E0FA6D
:104D10002269D4F81414A2EB81228902A0680CF055
:104D2000DDFA23462A4A6168A0680CF0E1FA0028FF
:104D30001DDBD4F814340133C4F81434D4F8182427
:104D4000934243DA012003B030BDA0680CF0C0FAF2
:104D5000D4F814144FF480628902A0680CF0BEFAF3
:104D600023461B4A6168A0680CF0C2FADFE7FBF734
:104D70007FFD024617490020FBF760FDD4F814249C
:104D800015490020FBF75AFD14490020FBF756FD9A
:104D9000D4F8385455B1D4F83C340093104B6FF02C
:104DA000020294F81E14D4F81404A84794F820348E
:104DB0000133DBB284F82034132B01D80020C2E782
:104DC0004FF0FF30BFE74FF0FF3070470220BAE7E7
:104DD000E54D0100B4990200CC9C02004CBF0200DA
:104DE000E89C020070B582B01C4613B10E46154611
:104DF000F2B9FBF73DFD02462E490020FBF71EFDF0
:104E00002D490020FBF71AFD2C490020FBF716FD69
:104E1000D4F8385455B1D4F83C340093284B4FF0B3
:104E2000FF3294F81E14D4F81404A84702B070BDE1
:104E3000D3F81414134632468902E0680CF0A3FB41
:104E4000002816DB2A463146B4F81C04FEF7ECFFB6
:104E5000A4F81C04D4F83854002DE7D0D4F83C341E
:104E60000093184B002294F81E14D4F81404A84799
:104E7000DCE7FBF7FDFC02460E490020FBF7DEFCF9
:104E8000D4F8142410490020FBF7D8FC0B4900206B
:104E9000FBF7D4FCD4F83854002DC7D0D4F83C34F8
:104EA00000930A4B6FF0010294F81E14D4F8140416
:104EB000A847BBE7B4990200F89C02004CBF02006F
:104EC0002C9D02005CA502003C9D0200649D020036
:104ED00010B5044630B10C48846000234360C360C1
:104EE000036110BDFBF7C4FC024608490020FBF734
:104EF000A5FC07490020FBF7A1FC06490020FBF7B1
:104F00009DFC2046EDE700BF40030020B49902005D
:104F10007C9D02004CBF0200032809D8DFE800F0A6
:104F2000020A040604487047044870470448704762
:104F30000448704704487047B09D0200B89D0200C5
:104F4000BC9D0200C09D0200B49D02000023032B03
:104F500008DC03EB830200EB8202127F8A4203D05B
:104F60000133F4E700207047012070478446002297
:104F700000E00132032A10DC02EB82039B001833AD
:104F80006344181DF5D002EB82030CEB83031B7FF7
:104F90008B42EED1CCF86C0070470020704710B502
:104FA00004460021FFF7E2FF20B1E06602232376EA
:104FB000002010BD01212046FFF7D8FF20B1E06698
:104FC000022323760020F4E702212046FFF7CEFFDC
:104FD00020B1E066022323760020EAE70321204681
:104FE000FFF7C4FF20B1E066022323760020E0E74C
:104FF0004FF0FF30DDE710B50446C06870B10368BC
:105000001B68E26E926821699847E0680368DB6874
:10501000E26E126951689847002010BD4FF0FF30D2
:10502000FBE7FFFF10B5B8B10446FBF721FC0246D1
:1050300011490020FBF702FCE36E1878FFF76CFFC4
:1050400002460E490020FBF7F9FB0D490020FBF753
:10505000F5FB0823237610BDFBF70AFC024609493D
:105060000020FBF7EBFB08490020FBF7E7FB0449B6
:105070000020FBF7E3FBEEE75C9A0200F09D0200E4
:105080004CBF0200B4990200D09D020070B582B0FE
:10509000002A2CD01446936F002B38D0DB68002BED
:1050A00035D0002944D011F1030F5ED011F1020F69
:1050B00079D0FBF7DDFB02464A490020FBF7BEFB37
:1050C00049490020FBF7BAFB48490020FBF7B6FB33
:1050D000A36FDE68E56E2878FFF71EFF6B685968DE
:1050E000E36F0093424B6FF00802B0471EE0FBF7FE
:1050F000BFFB02463F490020FBF7A0FB3E490020D2
:10510000FBF79CFB39490020FBF798FB0EE0FBF70F
:10511000AFFB024639490020FBF790FB38490020DD
:10512000FBF78CFB31490020FBF788FB02B070BD18
:10513000FBF79EFB02462B490020FBF77FFB314922
:105140000020FBF77BFB29490020FBF777FBA36FCF
:10515000DE68E56E2878FFF7DFFE6B685968E36F5D
:105160000093294B0022B047E0E7FBF781FB0246A2
:105170001C490020FBF762FB24490020FBF75EFB83
:105180001A490020FBF75AFBA36FDE68E56E28780A
:10519000FFF7C2FE6B685968E36F00931C4B6FF01A
:1051A0000502B047C2E7FBF763FB02460D4900204A
:1051B000FBF744FB17490020FBF740FB0B4900209D
:1051C000FBF73CFBA36FDE68E56E2878FFF7A4FED3
:1051D0006B685968E36F00930F4B6FF00702B0479D
:1051E000A4E700BF5C9A0200009F02004CBF0200CF
:1051F000289F0200B4990200D09D02000C9E02007C
:10520000189E02003C9E0200549E0200649E020012
:10521000949E0200B49E0200E09E02002DE9F0433D
:1052200083B00A9E002E37D0044615461F46FBF772
:105230001FFB024623490020FBF700FB002D3BD15A
:10524000214B224621490020FBF7F8FA2049002093
:10525000FBF7F4FAB26FE2B1D2F80880B8F1000FB0
:1052600017D01C4BDB6E9A681346002A26DB9B1274
:105270009946C2F309020AB103F10109F36E1878E5
:10528000FFF74AFEF36F019300972B464A462146EB
:10529000C04703B0BDE8F083FBF7EAFA02460949CC
:1052A0000020FBF7CBFA0C490020FBF7C7FA0849AE
:1052B0000020FBF7C3FAECE7084BC2E702F2FF332A
:1052C000D5E700BFB49902005CA502004C9F020024
:1052D0004CBF020040350020D09D0200E09C02003F
:1052E00010B50C4604230B700023CB608B6048681C
:1052F00008B1FEF76DFE00236360206908B1FEF778
:1053000067FE0023236110BD00B583B0C16E0B782A
:10531000032B22D8DFE803F0020A101A0169406863
:1053200004F06EF9002003B05DF804FB01694068E9
:1053300004F02CF90020F6E7436F0093036F4269F5
:105340000169406804F096F90020ECE702694978A9
:10535000406804F0D9F80020E5E7FBF789FA024637
:1053600007490020FBF76AFA06490020FBF766FAB6
:1053700005490020FBF762FA4FF0FF30D3E700BF8A
:105380005C9A0200649F02004CBF0200F8B5D0B1E5
:105390000C461646B9B1B2B1234A10605160FFF70E
:1053A00097FD054600B303689B681F4F3A461F49A7
:1053B0009847BD607C601E498F60204604F09CF8D1
:1053C0003E6100242AE0FBF753FA02461949002007
:1053D000FBF734FA18490020FBF730FA1749002090
:1053E000FBF72CFA00251CE0FBF742FA02461149B4
:1053F0000020FBF723FA12490020FBF71FFA0F49A0
:105400000020FBF71BFA0CE004EB84018900183143
:10541000054801440431FFF763FF0134032CF3DD39
:10542000014D2846F8BD00BF403500201D52010047
:1054300098070020B4990200789F02004CBF020038
:10544000AC9F020020B141610267436700207047B2
:105450004FF0FF30704720B131B18167C267002043
:1054600070474FF0FF3070474FF0FF30704720B16A
:10547000007E003818BF012070474FF0FF307047A2
:10548000002865D02DE9F0470E4617469846054698
:10549000012915D88B1C50F823308BB10321FFF75D
:1054A00055FDF8B90024032C4EDC04EB840C05EB0D
:1054B0008C0C9CF81CC0BCF1040F26D00134F2E720
:1054C000FBF7D6F9024624490020FBF7B7F9234938
:1054D0000020FBF7B3F922490020FBF7AFF94FF0AA
:1054E000FF3033E0FBF7C4F902461E490020FBF70A
:1054F000A5F903221C490020FBF7A0F91849002058
:10550000FBF79CF94FF0FF3020E004EB840905EB3A
:105510008909032389F81C3089F81D70089BC9F894
:105520002430099BC9F828304046FEF7E1FDC9F850
:1055300020000A98FEF7DCFDC9F82C00023655F869
:105540002630EB60002001E04FF0FF30BDE8F0872F
:105550004FF0FF30704700BFB4990200F09F020087
:105560004CBF02000C9E02000CA00200002862D07A
:105570002DE9F0470E46174698460546012915D8ED
:105580008B1C50F823308BB11146FFF7DFFCF8B9C4
:105590000024032C4BDC04EB840C05EB8C0C9CF8F6
:1055A0001CC0BCF1040F26D00134F2E7FBF760F910
:1055B000024622490020FBF741F921490020FBF770
:1055C0003DF920490020FBF739F94FF0FF3030E07A
:1055D000FBF74EF902461C490020FBF72FF93A462B
:1055E0001A490020FBF72AF916490020FBF726F993
:1055F0004FF0FF301DE004EB840905EB890989F8C1
:105600001C70089BC9F82430099BC9F82830404613
:10561000FEF76EFDC9F820000A98FEF769FDC9F88B
:105620002C00023655F82630EB60002001E04FF0E8
:10563000FF30BDE8F0874FF0FF307047B4990200AB
:10564000F09F02004CBF02000C9E02000CA0020062
:1056500018B101220276002070474FF0FF307047EA
:10566000002800F0EF8070B582B00446037E013B55
:10567000082B00F2EA80DFE813F00900130058005D
:105680006C007F00BE00CA00CF00DD00836F1B6886
:105690000BB1C06F984702232376002002B070BD83
:1056A000FFF77DFC002828DBA36F4BB15D683DB19F
:1056B000E36E1E783046FFF72FFCE26F3146A847B5
:1056C000E36E23B12046FFF796FC03232376FBF716
:1056D000CFF8024660490020FBF7B0F8E36E187877
:1056E000FFF71AFC02465D490020FBF7A7F85C496A
:1056F0000020FBF7A3F80020D0E7FBF7B9F802463B
:1057000058490020FBF79AF857490020FBF796F814
:1057100053490020FBF792F8A36F1BB19B690BB1B3
:10572000E06F984700202076B8E7C06803681B69DF
:1057300000219847022804D0B0F1FF3F05D0002097
:10574000ACE7042323760020A8E708232376002073
:10575000A4E7FBF78DF802463F490020FBF76EF8FF
:1057600042490020FBF76AF83D490020FBF766F844
:1057700005232376002091E7C06803685B69E26E29
:1057800091899847002812DBFBF772F802463249EC
:105790000020FBF753F836490020FBF74FF830495B
:1057A0000020FBF74BF806232376002076E7FBF773
:1057B0005FF802462B490020FBF740F82D490020F6
:1057C000FBF73CF826490020FBF738F8A36F002BC5
:1057D000DAD01D69002DD7D0E66E3078FFF79CFB3C
:1057E00073685968E36F0093234B6FF00302A84777
:1057F00009232376C8E7FFF787FD002803DB07238B
:10580000237600204AE709232376002046E74068F4
:1058100003F064FE002041E709230376836FB3B1F0
:105820005D69B5B1C36E1878FFF776FBE16FA847E5
:10583000002033E7C16EFFF753FD0020E06602232E
:1058400023762BE74FF0FF307047002026E700203B
:1058500024E7002022E700BF5C9A020070A002004B
:105860004CBF0200B499020054A0020098A00200AC
:1058700020A10200D8A0020004A1020020B131B191
:105880008160C260002070474FF0FF3070474FF0DA
:10589000FF307047034628B1826832B1002098601B
:1058A000D86070474FF0FF3070474FF0FF307047BF
:1058B000034610B10020187570474FF0FF30704755
:1058C00018B101220275002070474FF0FF30704779
:1058D00008B1002070474FF0FF30704730B190F8AA
:1058E000A208012894BF0020012070474FF0FF302C
:1058F000704710B50446FAF7BBFFA368E268C01A08
:1059000061EB020123686268984271EB020403DADA
:10591000181A62EB010110BD00200146FBE7FFFFF2
:10592000F9B130B583B005460C46FAF7A1FF02463F
:105930000C490020FAF782FF8DB90B4A94F87C30AD
:10594000591D04EBC1046168009108490020FAF771
:1059500075FF07490020FAF771FF03B030BD054A13
:10596000ECE770475C9A02005CA5020040A10200CF
:105970004CBF0200E09C020051B338B504460D460E
:10598000B0B9FAF775FF024612490020FAF756FF40
:1059900011490020FAF752FF10490020FAF74EFF94
:1059A000AB6823B11B6813B1E9682046984738BD3E
:1059B000FAF75EFF02460A490020FAF73FFF09495D
:1059C0000020FAF73BFF05490020FAF737FFE7E729
:1059D000704700BF5C9A020078A102004CBF020031
:1059E000B499020094A1020091B110B50446FAF7EF
:1059F0003FFF024607490020FAF720FF22460649EA
:105A00000020FAF71BFF05490020FAF717FF10BD29
:105A1000704700BF609B0200C0A102004CBF0200A3
:105A200041B338B50C468B681BB15B680BB1C968D4
:105A30009847012384F8A238002584F87C5004F5A7
:105A40000B6440F6B832002344E90223FAF710FF52
:105A5000C4E90001FAF70CFF024607492846FAF7A5
:105A6000EDFE06492846FAF7E9FE05492846FAF709
:105A7000E5FE38BD704700BF0C9E0200E0A10200A9
:105A80004CBF020091B110B50446FAF7F1FE024690
:105A900007490020FAF7D2FE224606490020FAF70D
:105AA000CDFE05490020FAF7C9FE10BD704700BFC2
:105AB000609B020014A202004CBF020010B584B02B
:105AC0000C46114602900F4B0193002300930123D3
:105AD0002246806A0BF01BFB041E02DB204604B04A
