:020000021000EC
:1000000048B70020A5F70100CDF5010081F70100F8
:1000100081F7010081F7010081F7010081F70100FC
:1000200000000000000000000000000081F7010057
:1000300081F701000000000081F7010081F7010055
:1000400059EC010009ED010001EE010009ED01008C
:1000500001EE01006DDA010079DB010049DC0100ED
:10006000DDDC010039F4010005D201002DD10100D1
:10007000A5D20100E5D2010071E00100EDEF010021
:1000800071E0010071E0010069E50100FDE401009B
:1000900045CB0100B5CB01005DCC0100B1CC010026
:1000A00071E00100000000000000000000000000FE
:1000B0000000000000000000000000000000000040
:1000C0000000000000000000000000000000000030
:1000D0000000000000000000000000000000000020
:1000E0000000000000000000000000000000000010
:1000F0000000000000000000000000000000000000
:1001000000000000000000000000000000000000EF
:1001100000000000000000000000000000000000DF
:1001200000000000000000000000000000000000CF
:1001300000000000000000000000000000000000BF
:1001400000000000000000000000000000000000AF
:10015000000000000000000000000000000000009F
:10016000000000000000000000000000000000008F
:10017000000000000000000000000000000000007F
:10018000000000000000000000000000000000006F
:10019000000000000000000000000000000000005F
:1001A000000000000000000000000000000000004F
:1001B000000000000000000000000000000000003F
:1001C000FFFFFFFFFFFFFFFFFFFFFFFFFFFFFFFF3F
:1001D000FFFFFFFFFFFFFFFFFFFFFFFFFFFFFFFF2F
:1001E000FFFFFFFFFFFFFFFFFFFFFFFFFFFFFFFF1F
:1001F000FFFFFFFFFFFFFFFFFFFFFFFFFFFFFFFF0F
:1002000010B5054C237833B9044B13B1044800E012
:1002100000BF0123237010BD301B00200000000030
:100220002864020008B5034B1BB10349034800E0F2
:1002300000BF08BD00000000341B0020286402003D
:10024000CB780278534003704B8842785340437018
:100250000A68837883EA122383700A68C37853405C
:10026000C370CB79027953400371CB8842795340F4
:1002700043714A68837983EA122383714A68C37998
:100280005340C371CB7A027A53400372427A4B894E
:10029000534043728A68837A83EA122383728A689E
:1002A000C37A5340C372CB7B027B53400373CB8929
:1002B000427B53404373CA68837B83EA1223837370
:1002C000CA68C37B5340C3737047FFFF0449431E92
:1002D0000F3013F8012F8A5C83421A70F9D17047EE
:1002E000384102001FB50278C3788DF80020427BA8
:1002F0008DF80120827A8DF80220C2798DF80320D2
:1003000002798DF8042042788DF80520827B8DF8E3
:100310000620C27A8DF80720027A8DF808204279EB
:100320008DF8092082788DF80A20C27B8DF80B2089
:10033000027B8DF80C20427A8DF80D2082798DF8A1
:100340000E208DF80F3010236A46194600F0D8F9B8
:1003500005B05DF804FB2DE9F74F054608780C461B
:1003600000F0DDF900F0DBF900F0D9F90190207818
:1003700000F0D5F900F0D3F90090207800F0CFF923
:100380008346607800F0CBF900F0C9F900F0C7F9B6
:100390008246607800F0C3F98146A078667800F064
:1003A000BEF900F0BCF900F0BAF98046A07800F080
:1003B000B6F900F0B4F9A1780746E0784E4000F0B5
:1003C000AEF900F0ACF900F0AAF9E178019A4E40DC
:1003D000009B724053408BEA030B8AEA0B0A89EABE
:1003E0000A0988EA090887EA08077840287020780F
:1003F00000F095F900F093F900F091F90190607820
:10040000267800F08CF900F08AF900F088F9009065
:10041000607800F084F900F082F98346607800F09B
:100420007EF98246A07800F07AF900F078F900F0C1
:1004300076F98146A07800F072F9A1788046E078DC
:100440004E4000F06CF900F06AF900F068F90746D8
:10045000E07800F064F900F062F9E178019A4E402A
:10046000009B724053408BEA030B8AEA0B0A89EA2D
:100470000A0988EA090887EA08077840687020783E
:1004800000F04DF900F04BF900F049F901902078A7
:1004900000F045F900F043F900906078267800F00C
:1004A0003EF900F03CF900F03AF961788346A07813
:1004B0004E4000F034F900F032F900F030F9824695
:1004C000A07800F02CF900F02AF98146A07800F01D
:1004D00026F98046E07800F022F900F020F900F0DB
:1004E0001EF90746E07800F01AF9E178019A4E40CB
:1004F000009B724053408BEA030B8AEA0B0A89EA9D
:100500000A0988EA090887EA08077840A87020786D
:1005100000F005F900F003F900F001F982462078B7
:1005200000F0FDF88146607894F800B000F0F7F82C
:1005300000F0F5F800F0F3F80646607800F0EFF808
:1005400000F0EDF863788046A0788BEA030B00F0AA
:10055000E6F800F0E4F800F0E2F8A3788BEA030B89
:100560008AEA0B0B89EA0B0986EA090688EA06087B
:1005700080EA08005FFA80F8E07800F0D0F800F038
:10058000CEF800F0CCF80746E07800F0C8F800F0AC
:10059000C6F80646E07800F0C2F887EA08077E4011
:1005A0007040E87003B0BDE8F08F70B514460546A2
:1005B00088B000284AD000294AD0002A4AD0102307
:1005C0000A466846194600F09BF8684604F1A00107
:1005D000FFF736FE04F190066846FFF783FE684693
:1005E000FFF774FE31466846FFF72AFE694604A805
:1005F000FFF7B1FE01A905A8FFF7ADFE02A906A805
:10060000FFF7A9FE03A907A8FFF7A5FE1023684678
:1006100019460DEB0302103E00F072F8B442DBD134
:100620006846FFF75FFE6846FFF750FE21466846C2
:10063000FFF706FE10236A461946284600F060F8C8
:1006400068461022002100F068F8012008B070BD53
:100650000846FBE71046F9E7F0B50746264E8DB091
:1006600001AD0C460FCE0FC50FCE0FC596E80700A3
:1006700085E807003846002F39D0002C39D0381FC4
:100680000246214610344B780D781B0443EA05637B
:10069000CD7804312B4311F8025C8C4243EA0523E8
:1006A00042F8043FEFD10421144C8A07036916D1A4
:1006B000C3F30742A55C1A0EA25C42EA0562C3F3CB
:1006C0000725655DDBB2E35C42EA054242EA0322AC
:1006D00021F0030330336B4453F82C3C534050F863
:1006E000042F013153402C290361DED101200DB0CC
:1006F000F0BD2046FBE700BF384202006442020022
:1007000038B50D46AB4211461C4604D81A460FF0C8
:10071000CDFC204638BD0024FBE70FF0D4BCC30954
:1007200003EB430303EBC30383EA4000C0B270470B
:100730002DE9FF41984613070F464FEA12151AD1CB
:1007400004460026B54203DC012004B0BDE8F08178
:1007500007EB061142466846FFF727FF6946204629
:1007600004F1100311F8012B00F8012B9842F9D184
:1007700004460136E6E70135ADB2E1E701EBD1739E
:10078000014430B50C465B10421E601A834200DC07
:1007900030BD12F9010F11F9015D15700870F4E711
:1007A0002DE9F0418CB004AA04460D4690461D4B3D
:1007B00003F11006174618685968083303C7B34297
:1007C0003A46F7D16E46184B08AF0FCB07C60D213E
:1007D00033706846FFF7D2FF4646002239464FF095
:1007E0000D0C4FF0FF0EB2FBFCF00CFB102000F1E3
:1007F00030030DEB030010F8303C16F8018BA85CB9
:10080000434403F5BD730344B3FBFEF001320344DC
:10081000102A07F8013BE6D12046FFF71DFF0CB078
:10082000BDE8F081644302008000000870B5002537
:10083000013A12B29542ABB202DD2B4698B270BDBE
:10084000541B04EBD47403EB64039CB21BB231F869
:1008500013608642F2D08BBF013404F1FF3225B21F
:1008600012B2E7E7B5EEC00AF1EE10FA48BFB1EEFA
:10087000400A7047FFFFFFFF38B517A5D5E90045CF
:100880002DED048BB7EE008AF0EE408AB0EE489A68
:10089000F6EE009A28EE087AC7EE287A77EEC97A43
:1008A000F5EEC07AF1EE10FA48BFF1EE677A17EE76
:1008B000900A0FF041F922462B460FF009FA20B9B1
:1008C000B0EE480ABDEC048B38BD88EE880A30EEE5
:1008D000088A28EE298ADDE72D431CEBE2361A3F11
:1008E000F7EE007A20EE007A30EE270AF6EE007A74
:1008F00007EE270A7047FFFFB5EEC00AF1EE10FAC7
:1009000003D405DDB7EE000A7047BFEE000A70475A
:100910009FED010A704700BF00000000F0B585B0F0
:1009200004AC04E90300694681E80C009DF80D3031
:100930009DF80C10144611FB03F16FF040460123A3
:100940000A9D8B4201DD05B0F0BD9A1905EB8207C7
:1009500000EB820C04EB8202DCED007A92ED007A6F
:1009600077EE877A0133C7ED007ADBB2E9E7F0B5BD
:1009700085B004AC04E90300694681E80C009DF8E9
:100980000D309DF80C10144611FB03F16FF040463A
:1009900001230A9D8B4201DD05B0F0BD9A1905EBDC
:1009A000820700EB820C04EB8202DCED007A92ED10
:1009B000007A77EEC77A0133C7ED007ADBB2E9E758
:1009C0007FB504AC04E90300694681E80C009DF89A
:1009D0000D309DF80C10144611FB03F16FF04045EB
:1009E00001238B4201DD04B070BD5A1900EB820671
:1009F000366804EB820201331660DBB2F1E7FFFFD9
:100A00007FB504AC04E90300694681E80C009DF859
:100A10000C309DF80D101446994238BF19469FEDD1
:100A20000B0A01236FF040458B4201D904B070BD21
:100A30005A1900EB820604EB820296ED007AD2EDA1
:100A4000007A013307EE270ADBB2EDE70000000071
:100A50007FB504AC04E90300694681E80C009DF809
:100A60000D309DF80C10144611FB03F16FF040455A
:100A700001238B4201DD04B070BD5A1904EB8206DC
:100A800000EB8202D2ED007A67EE807A0133C6ED88
:100A9000007ADBB2EDE7FFFF2DE9F04F89B004AC3F
:100AA00084E803009DF84D609DF84C0002A98DF884
:100AB0001C0010FB06F081E80C0080009DF81580FA
:100AC0009DF80D900FF0D2FA012405466FF04047D3
:100AD000049B9DF814B0DDF808A00093A34530D323
:100AE000631E03FB06FC03FB08FE012320E0511EEE
:100AF00009FB013139440AEB810101910EEB02003F
:100B00000099384401EB8000019990ED007AD1ED15
:100B1000006A46EE877A0132D2B29045E7D20CEBFA
:100B200003023A4405EB8202C2ED007A0133DBB2E4
:100B3000994502D20134E4B2D0E7DFED097A01220F
:100B4000EBE706958DF81D6012AB08A90CCB11E9F7
:100B50000300FFF735FF09B0BDE8F04F0FF08EBA84
:100B6000000000002DE9F04F87B006AC04E9030057
:100B700002A981E80C000090002301209DF8157067
:100B80009DF80DC09DF845E0129D9DF81490DDF88C
:100B90004080019281454ED3441E012204FB07FB95
:100BA000013B10E00BEB020A009E0AF1804A0AF1B9
:100BB000FF3A06EB8A0ADAF800A005EB8101013260
:100BC000C1F800A0D2B2D1189742C9B2EAD201222C
:100BD00004FB0CFA013953189445DBB20CD2012204
:100BE00004FB0EF403F1FF3A02EB0A039645DBB275
:100BF00014D20130C0B2CDE70AEB020B019E0BF11B
:100C0000804B0BF1FF3B06EB8B0BDBF800B005EBE9
:100C100083030132C3F800B0D2B2DCE7A11801F1BE
:100C20008041013908EB8101096805EB830301323A
:100C30001960D2B2D8E707B0BDE8F08F82B02DE9D5
:100C4000F34102AC04E903000746002601216FF0DE
:100C5000404E9DF804C009938C4516D301EB0E0558
:100C6000002407EB850505E0D5F8008003EB800044
:100C7000C0F80080301901345FFA84F84245C0B2F0
:100C8000F2D201310646C9B2E6E702B0BDE8F04152
:100C900002B070472DE9F04F8BB006AE86E8030036
:100CA00004A981E80C009DF814709DF81550804649
:100CB00017FB05F080000FF0D9F9044600B9FEE7F4
:100CC000089096E8030001268DF824708DF82550D1
:100CD0000AAB13E90C00FFF773FE6B1C9B00039338
:100CE000B7425AD202230026AD00D8B2874262D260
:100CF000DDE904230AA911E90300FFF761FE20469C
:100D00000BB0BDE8F04F0FF0B9B9F9EC017A4FF034
:100D1000000CDDF808B004EB810E0CF1010C5FFA59
:100D20008CF39A420EF1040E2BD8D0ED006A87EEB8
:100D3000A67AAAEC017A039B0132D2B21844294464
:100D40009642E2D8019B6B43F21802F18042013ACD
:100D50004FEA820908EB820292ED000A002204EBBE
:100D600083030132D1B28E4203F1040310D8FFF79E
:100D700079FDFFF781FDA144013689ED000AF6B245
:100D8000AEE7FBEC016A1EED017A46EEC77AC4E7D6
:100D900053ED017A07EEE70AE3E7731E05FB03F262
:100DA00004EB820A08EB820920460021012201930C
:100DB000CDF808A0C4E7012204EB830101325FFAF9
:100DC00082FC604541F8046C2944F7D801338CE774
:100DD000002210B504461046A15CA1F13003092B96
:100DE0000BD8A0F13003032A01EB030002F101024A
:100DF00018BF0001042AEFD110BDA1F14103052B5A
:100E000002D8A0F13703EEE7A1F16103052B02D868
:100E1000A0F15703E7E70020EEE7FFFF2DE9F84FC9
:100E20000A688B6880465D1CD018D35C8A46222BEA
:100E3000154440F0DD802F4600234C68B91AA142CA
:100E400080F0D680397822290ED1C3F10103381AF7
:100E5000DAF81020184490478346002800F0C88034
:100E60000446DFF898910FE05C2905D10137B91AE3
:100E70008C4240F2BD8001330137DFE72B785C2BD9
:100E800012D0013504F8013BBD42F7D30023237093
:100E900010230120C8E9033BDAF80030FB1A0133C4
:100EA000CAF80830BDE8F88F7A1B002A0DDD6B7890
:100EB000752B0AD86D2B12D8622B2BD026D82F2B4E
:100EC00029D05C2B27D0222B25D05846DAF81430B5
:100ED0009847DAF80000281ACAF808008BE06E3B41
:100EE000072BF2D801A151F823F000BF210F010018
:100EF000CB0E0100CB0E0100CB0E0100250F01002F
:100F0000CB0E0100290F01002D0F0100662BDCD153
:100F10000C2300E0082304F8013B02231D44B3E73F
:100F20000A23F8E70D23F6E70923F4E7052ACCDDC9
:100F3000A81CFFF74DFFA0F55C43B3F5806F064694
:100F4000C3D3A0F55843B3F5806F2DD2AB1DFB1A68
:100F5000052BBADDAB795C2BB7D1EB79752BB4D10E
:100F600005F10800FFF734FFA0F55C43B3F5806F8F
:100F7000ABD20C2309EA8626C0F30900304300F502
:100F800080364FF0F00C042000F1FF3E54FA8EFE44
:100F9000A645F2B224D1012814BF42EA0C0202F0A5
:100FA0007F0222700444B9E77F280AD9B0F5006FA8
:100FB0000CD3B0F5803F0ED3B0F5881F85D2062341
:100FC000DFE706234FF0000C0120DDE706234FF09A
:100FD000C00C0220D8E706234FF0E00C0320D3E733
:100FE00002F03F0262F07F010EF80119B609CFE767
:100FF000002D7FF46EAF002054E700BF00FC0F000F
:1010000010B528B1016889B1D0E901329A4202D302
:1010100010BD013282608268934203D98C5C202C1F
:10102000F7D9F5E7F4D1013B8360F1E70846EFE734
:1010300010B1806800B101B9704700680139F9E763
:1010400038B5044638B1006828B1A56828440FF0C7
:1010500072FA2844A06038BD70B50446B8B105687E
:1010600065B1436813B18268934210D900290EDB41
:10107000A2684E1C1644B34202D31544284670BDE4
:10108000236923B9B6F1804F03D3002E0FDA002570
:10109000F4E77600236A6BB1284631469847054647
:1010A000B0B9E36920689847C4E90055E6E76FF0F6
:1010B0000046EFE73046A369984705460028F0D080
:1010C000A268216801320EF0F1FFE36920689847B9
:1010D000A368C4E900561D44D0E7FFFFF8B50D46EC
:1010E0000446002834D0002931D08468FAB9194E5A
:1010F00074B3236AC3B1AB4221D005F1FF3C013B7D
:101100001CF8011F0F468A5D02F00302012A13F842
:10111000012F08BF01F12007B05C00F00300012897
:1011200008BF203297420FD02468E1E724687CB1E1
:10113000216A21B128460FF0DBF90028F6D1236A95
:10114000002B08BF002403E00029D9D1F7E70C46A3
:101150002046F8BDCD5F020081B138B181420DD08B
:10116000836823B98160C1E90031012070475A6862
:10117000002AFAD011604A605960F6E700207047F3
:101180002DE9F84F0646084611B90020BDE8F88F52
:1011900036B331464FF0000A0124424F0D4611F894
:1011A000013B3BBBAD1B5544E91CFFF755FF074610
:1011B0000028EAD04FF0220B441C05F1010905F18B
:1011C000020880F800B0BAF1000F29D12A46314652
:1011D00020460EF06BFF07F809B007F808A007E0FB
:1011E0000321FFF739FF0028CFD02F490FF08AF9EC
:1011F0000120CBE7222B0BD8072B0CD9A3F1080237
:10120000D2B204FA02F23A4205D00AF1010AC5E765
:101210005C2BC3D1F9E71F2B98BF0AF1050ABDE784
:101220005C254FF0740ADFF884B0013E16F8013FE8
:101230002BB9222207F8092007F80830D8E71F2B1E
:1012400007D9222B05D05C2B03D020462370441CE9
:10125000ECE7204600F8015B32780D2A0AD8072A0D
:101260001AD9A2F10803052B16D8DFE803F00912FA
:101270000E150C10222A01D05C2A0DD16270E6E70F
:1012800062236370E3E76623FBE76E23F9E77223CB
:10129000F7E784F801A0DAE759460FF08BF8601DF4
:1012A000D5E700BF37000004754302007843020011
:1012B00037B5054680B10FF03EF9084B421C104689
:1012C0001B6801929847044618B12946019A0EF00E
:1012D000EDFE204603B030BD0446FAE7900600203C
:1012E000F8B50D461446074600B3F9B1F2B1904285
:1012F0001CD093B1D66846F40076E3689B0504D40D
:10130000206A10B10A4B5B6898472146384625622F
:10131000E660BDE8F840FFF71FBF0846FFF7C8FFCB
:10132000054618B1E66826F40076E6E70020F8BD29
:1013300090060020034610B528209847044618B1AF
:10134000282200210EF0BFFE204610BD2DE9F04FEF
:101350000C4680468DB008B900255DE00029FBD021
:10136000057B102D00F00E8118DC6B1E072BF3D8C7
:10137000072BF1D801A252F823F000BF0714010097
:101380002114010059130100F11301005913010048
:10139000591301005913010031140100402D00F0D0
:1013A0002081802D00F0D980202DD5D186680121A3
:1013B0002046FFF751FE0028CED05B232C274FF0AC
:1013C00000080370A3680133A360E3680133E3609E
:1013D000002E40F0DD8002212046FFF73DFE002870
:1013E000BAD05D2346700370E368013BE36008E018
:1013F00005212046FFF730FE0028ADD092490FF0BE
:1014000081F8012508E006212046FFF725FE002887
:10141000A2D08E490FF076F828460DB0BDE8F08FC7
:1014200005212046FFF718FE002895D08849E6E7F9
:101430000021D0E90667162206A805910EF043FEAA
:10144000002200233046CDE90223394632463B468E
:101450000EF052FC90B927F0004B4FF0FF323046AF
:1014600059467C4BB2460EF047FCF0B94FF0FF32C4
:1014700030465946774B0EF021FCB0B9724905A8A9
:101480000FF040F804252046691CFFF7E5FD002811
:101490003FF462AF034605A94619B34257D1002372
:1014A0004355A0682844A060ABE7D8F814502846FC
:1014B0000EF030FB02460B46304639460EF0EAFB92
:1014C00048B12A46644905A80EF074FF0546192D57
:1014D0003FF642AFD7E732463B46604905A80EF0DB
:1014E00069FF5F49054602AA05A80EF083FF01289F
:1014F00026D1DDE9028929F00043CDF8008001936F
:101500005046DDE9002359460EF0CEFB08B9CDE97F
:1015100000AB32463B46404649460EF0ADF900224C
:101520008046504B21F00049DDE9000112F0FEF940
:1015300002460B46404649460EF0C0FB0028C6D185
:1015400032463B46484905A80EF034FFBEE711F885
:10155000012B013303F8012C9FE7006900283FF4B9
:10156000FBAE0EF0E8FF421C114620460092FFF74A
:1015700073FD00283FF4F0AE009AD8F810100EF07A
:1015800095FD3EE700690DB0BDE8F04FFFF7F8BDEF
:1015900021463046FFF7DAFE00283FF4DDAE204654
:1015A000FFF74EFD3368BBB163692046002B14BFC3
:1015B0004FF002094FF0010909F10101FFF74CFD5D
:1015C00000283FF4C9AE077063693BB9431C83F838
:1015D0000080A3684B44A3603668F9E6831C45701D
:1015E000F5E74B698568002B14BF022601262046CB
:1015F000711CFFF731FD00283FF4AEAE7B23037072
:10160000E26863690132E2600BB10A234370A368A8
:101610003A2733440926A36063693DBB002B00F0E1
:101620008580E16801312046FFF716FD00283FF470
:1016300093AE6369002B40F0838003467D221A70CD
:1016400000225A70D0E600BF7E43020083430200AE
:1016500089430200FFFFEF7F8E43020091430200A7
:10166000984302000000B03C9C43020073B1204646
:10167000E168FFF7F1FC00283FF46EAE0246E16836
:10168000131A99424FD8A3680B44A3602146286AD5
:10169000FFF776FD00283FF45FAE2046FFF7D0FC51
:1016A00063692046002B14BF4FF002084FF0010879
:1016B0004146FFF7D1FC00283FF44EAE0770636946
:1016C00003B14670A368214643442846A360FFF750
:1016D0003DFE00283FF440AE2046FFF7B1FC2B68EA
:1016E0006269B3F1000818BF4FF00108002A18BF63
:1016F00008F10108204608F10101FFF7ADFC0028C0
:101700003FF42AAE2B6813B12C2300F8013B636928
:1017100013B10A2300F8013B00230370A3682D686E
:101720004344A36078E702F8016BA8E702217AE757
:1017300003F8015BE268191A013A8A42F8D87DE79A
:1017400003460925F6E700BF70B504460F4D04B9FE
:1017500070BDE3682668D90503D4A06868B920691C
:1017600088B9E3689B0503D4206A08B16B68984781
:1017700020466B6898473446E9E7FFF7E5FFE368E2
:10178000DA05ECD5EDE76B689847EAE790060020AC
:101790002DE9F04706460C4692B009B9002023E037
:1017A0000F68002FFAD08D68D1F8048005F1040984
:1017B000C1450BD80422924978190EF0C4FE28B90D
:1017C0000423F360C4F8089001200DE005F1050A38
:1017D000D0450CD305228B4978190EF0B4FE30B9F0
:1017E0000120F060C4F808A012B0BDE8F087C14540
:1017F0000CD80422844978190EF0A5FE30B90223D2
:101800000120F3607061C4F80890EDE74545C5D24A
:101810007B5D7819222B06D12146304612B0BDE8F7
:10182000F047FFF7FBBA2D2B03D0A3F13002092AB2
:1018300062D8002302AA17464FF02E0E0193A8EBA0
:10184000050510F8011B392910D82A291BD9A1F147
:101850002B0CBCF10E0F16D8DFE80CF00D150D3B6C
:10186000150D0D0D0D0D0D0D0D0D0D0001F0DF0C05
:10187000BCF1450F07D1117001333F2B02F101027A
:1018800001D0AB42DDD1002548336B44384603F824
:10189000405C01A90FF09AFCDDF804A059EC108B14
:1018A000BA453FF47BAF54A3D3E9002386ED060B82
:1018B00010EE100A49460EF00BFA68B16FF00043C3
:1018C00073610823AAEB070AA768F3605744A7606F
:1018D0007AE782F800E0CFE70022404649464B4BCA
:1018E0000EF0ECF910B14FF00043E9E740464946ED
:1018F0000EF018FA7061E4E75B2B54D1E368B3F59E
:101900007A7FBFF44BAF0133E3607B5D5B2B7FF4E9
:1019100045AF01352046A560FFF772FBD4E90123EE
:10192000934264D22268D25C5D2A0DD100252F46F5
:10193000E368013BE36007B17D602023C6E90273E1
:10194000A3680133A3603FE700252F46013BA36056
:101950002069FFF7EFFCA8460546002800F09D80AF
:10196000FFB1C8F80000C0F80480A3682046013326
:10197000A360FFF745FB21462846FFF709FF002833
:1019800000F08E802046FFF73BFBD4E90123934211
:1019900080F086802268D35C2C2BD9D05D2B7FD140
:1019A000C6E70746E1E77B2B7FF4F8AEE368B3F5C3
:1019B0007A7FBFF4F3AE0133E3607B5D7B2B7FF472
:1019C000EDAE01352046A560FFF71AFBD4E90123EF
:1019D00093420CD22268D25C7D2A19D100252F4671
:1019E000E368013BE36007B17D604023A6E7013B6C
:1019F000A360D3E6AFF300800000C0FFFFFFDF412C
:101A00007E43020083430200894302000000E0C1DC
:101A100000252F46A846013BA3602069FFF78AFCFA
:101A2000A9460546002838D0AFB3C9F80000C0F871
:101A30000490A36820460133A360FFF7E1FA214632
:101A40002846FFF7EBF958B32046FFF7D9FA2B6980
:101A5000C5F810802B62D4E90123934220D222687A
:101A6000D25C3A2A1CD101332046A360FFF7C8FAA2
:101A700021462846FFF78CFE90B12046FFF7C0FABA
:101A8000D4E9012393420BD22268D35C2C2BC4D01F
:101A90007D2B05D1A4E70746CBE7002F3FF47EAEB0
:101AA0003846FFF751FE79E62DE9F04305464FF041
:101AB000000989B02E4F0C46164600211C2201A8B1
:101AC00098460EF000FBC7E90099002D46D0002C87
:101AD00039D0284BCDE9015493E8070008AB03E95E
:101AE0000700FFF727FC044668B3019870B1039B19
:101AF0005BB9029B042B06D903221F490EF023FD7C
:101B000008B90323039301A800E04846FFF778FAD9
:101B100001462046FFF73CFE90B1B8F1000F04D11A
:101B2000F6B9204609B0BDE8F08301A8FFF768FACE
:101B3000DDE90223934203D2019AD35C002BEFD05C
:101B40002046FFF701FEDDE902329A420DD303B1D0
:101B5000013B0EB1EA183260C7E900530024E0E708
:101B6000019B039A13443360DBE71346F1E700BFA0
:101B70004C1B002090060020A343020037B50D4601
:101B80000446019250B10EF0D6FC2A46411C204674
:101B9000019B03B0BDE83040FFF786BF03B030BD06
:101BA00000221146FFF7EABFF0B515468BB0064696
:101BB0000C462422002101A81F460EF084FA002DB5
:101BC00011DB94B10123CDE90537094BCDE901457E
:101BD00093E807000AAB03E90700304601A9FFF7C5
:101BE000B5FB0BB0F0BD0020FBE72046F9E700BFD6
:101BF00090060020002901DBFFF71ABA0020704789
:101C00000022FFF76BBA0023FFF76ABBFFFFFFFF5D
:101C1000174BD0B5186857EC106BFFF78BFB0446D9
:101C200070B10823C0E90667C36039460EA3D3E943
:101C3000002330460EF04CF820B16FF00043636192
:101C40002046D0BD0022304639460A4B0EF036F809
:101C500010B14FF00043F2E7304639460EF062F81B
:101C60006061EDE7AFF300800000C0FFFFFFDF41E0
:101C7000900600200000E0C137B505460191FFF74E
:101C8000C7FF00230246044601992846FFF728FBB8
:101C9000054618B92046FFF757FD2C46204603B0ED
:101CA00030BDFFFF38B50A4B05461868FFF742FB09
:101CB000044658B11023C3602846FFF7F9FA0546D9
:101CC000206118B92046FFF73FFD2C46204638BD5D
:101CD0009006002037B5054610460191FFF7E2FF58
:101CE00000230246044601992846FFF7F9FA054603
:101CF00018B92046FFF728FD2C46204603B030BD1A
:101D000008B5044B1868FFF715FB08B12023C36022
:101D100008BD00BF9006002008B5044B1868FFF707
:101D200009FB08B14023C36008BD00BF9006002036
:101D300037B505460191FFF7EFFF00230246044641
:101D400001992846FFF7CCFA054618B92046FFF757
:101D5000FBFC2C46204603B030BD2DE9F843B1F121
:101D60000009804603DA00242046BDE8F8830028F5
:101D7000F9D0FFF7C5FF002604463746002CF2D005
:101D8000B94504D8A368002BEED05E60ECE758F8A4
:101D900027000DF0BFFE41EC100BFFF739FF0546A1
:101DA00018B92046FFF7D0FCDDE71FB9A0602E462A
:101DB0000137E3E730604660F9E720B1007BA0F12E
:101DC000080358425841704708B50246FFF7F5FF2F
:101DD00010B192ED060B08BD9FED010BFBE700BFB4
:101DE000000000000000F87F20B1007BA0F110038C
:101DF00058425841704708B50246FFF7F5FF00B159
:101E0000106908BD70B50D461646044618B918206D
:101E10000EF02CF90446002363614FF0FF33681C79
:101E2000C4E90106E360704323610EF01FF92060EE
:101E300020B90348BDE870400EF09CBA70BD00BFE9
:101E4000A743020038B5C56843680135B5FBF3F216
:101E500003FB125503690446AB420CD02368C068EB
:101E6000A26802FB00300EF021F90120E5606369F1
:101E70000133636138BD0020FCE710B50446E26819
:101E8000236908469A4213D02368A268216902FB9D
:101E900001310EF00BF9236962680133B3FBF2F1F3
:101EA000012002FB113323616369013B636110BDB3
:101EB0000020FCE74FF6FF7210B5074C0144884242
:101EC00001D1104610BD10F8013B5340DBB234F88D
:101ED000133083EA1222F2E7B84302002DE9F84FEB
:101EE0000B7806467E2B0D46904600AF66D1B1F8C2
:101EF00001304FF400725BBA83809CB2831D184698
:101F000000210EF0E0F803466FF00100AA1C401B10
:101F100081188C4231DC04F1030BB8F1000F31D091
:101F2000AB4406F2062306F216221BF8011B03F847
:101F3000011B9A42F9D1EA4604F113092A1915F84E
:101F4000093092F814801A34E40848EA0328AAEB0E
:101F5000C4039D464A4629466846A6F816820EF0F6
:101F6000A5F868461FFA89F1FFF7A4FF804524D140
:101F7000D5463046BD46BDE8F88F12F8011F03F87C
:101F8000011BC5E7EA462A1915F80B3092F80490B0
:101F90000A34E40849EA0329AAEBC4039D465A46D9
:101FA00029466846A6F816920EF080F868461FFA91
:101FB0008BF1FFF77FFF8145D9E7D5460026D8E7AB
:101FC000D0ED037A9FED1B7AF4EEC77AF1EE10FAAA
:101FD00010B504462DED028B03D50020BDEC028B1D
:101FE00010BD9FED157AF4EEC77AF1EE10FAF4DC2D
:101FF00090ED000AFEF736FC9FED108AB4EEC80A99
:10200000F1EE10FAE9D494ED010AFEF72BFCB4EEE0
:10201000C80AF1EE10FAE0D494ED020AFEF722FCB1
:10202000B4EEC80AF1EE10FA54BF0120002040B20D
:10203000D4E700BF0000A0420000C8426F12833AFC
:10204000044B0360044B4360044B8360044BC36048
:10205000704700BF8155854260559543DD40A744D8
:102060000000C8429FED1A7AC0EE077AF8FE677A40
:1020700067EE877AC0ED017A07EE901A9FED157A28
:10208000F8EEE76A0029C6EE877ABCBF9FED127AA8
:1020900067EE877AC0ED007ADFED107A90ED007A76
:1020A00027EE277ADFED0E7AC7EE276AD0ED047AA5
:1020B00077EEE67A0029B8BF49421429C8BFB0F8C4
:1020C0004030C0ED047AC4BF0133A0F840307047FF
:1020D0006F12833A0000C8C3CDCC8C3F3433333FFA
:1020E00000006145D0ED017A90ED020A37EEC00A9A
:1020F000C0ED027A10B580ED030A0446FEF7B2FB8C
:10210000DFED137AB4EEE70AF1EE10FA03D50023FF
:10211000E360236110BDDFED0F7A94ED047ADFED0B
:102120000E6A27EE277AD4ED037A67EEA67AC7EE19
:10213000276ADFED0A7AF4EEE76AF1EE10FAE6D4E8
:10214000F7EE087AF4EEE76AF1EE10FADFDCE1E789
:102150000AD7233C00006145000073463333333F08
:1021600090ED037A9FED526A67EE075A10B5DFEDE6
:10217000516A2DED028BD0ED0C7A85EE868A07EE42
:10218000A68AD0ED047A27EE277AC7EE065A90ED9C
:102190000D5AB0EE657A67EEA77A05EE267A80EDE5
:1021A000067A87EE867AD0ED0E5AF0EE477A45EE43
:1021B000A67A80ED058AC0ED077A9FED3F0A0446B6
:1021C000FEF75AFBF0EE408A9FED3B0AFEF754FB08
:1021D000D4ED077A28EE800A00EE678A9FED360A72
:1021E000FEF74AFBF0EE488AB0EE408A9FED320AD5
:1021F000FEF742FB38EE088A28EE008A94ED060AC4
:1022000028EE008A88EE880A84ED0A0A20EE008A09
:102210009FED290AFEF730FBF0EE408A9FED260A7B
:10222000FEF72AFB28EE800AF7EE008AC8EE807AD5
:1022300037EE880AFEF720FBD4ED0A7A30EE670A03
:10224000DFED1E7A84ED090A9FED1D7A20EE270A44
:10225000DFED1C6A20EE070A80EE267AB4EEE77AFC
:10226000F1EE10FA94ED0F0A77FE877AC4ED087A42
:1022700030EE670AFEF7F6FAB4EEE80AF1EE10FA6D
:10228000114B13D5226AE26362692263A269626319
:10229000E269A26301221A700022BDEC028B226166
:1022A000002293F90000A4F8402010BD0022F2E7BC
:1022B0008FC2F53A77BE7F3F66CF8B3A0000C842A7
:1022C0000000614500007346541B0020D0ED0F7ADA
:1022D000F8FE677AFCEEE77A17EE900A704701691C
:1022E000B0F91830D1ED007AF4EE407AF1EE10FA40
:1022F00001EB830237FE800A52ED017AF4EE407A58
:10230000F1EE10FA4FF0000248BFB0EE670A30B5A8
:1023100095B29D424FEA850409DA0D19D5ED007A90
:10232000F4EEC07AF1EE10FA02F10102F0DBC368BC
:10233000234493ED000A30BDC16830B5D1ED007A79
:10234000F4EE407AF1EE10FAB0F9184037FE800A48
:1023500001EB840353ED017AF4EE407AF1EE10FACA
:102360004FF0000248BFB0EE670A93B2A34202DB0F
:10237000DFED0F7A19E09D0001EB8303D3ED007AC6
:10238000F4EEC07AF1EE10FA02F10102EDDB4269DF
:1023900003692A442B4470EE677AD2ED006A93ED0C
:1023A000007A07EEA67AC7EE007AB0EE670A30BD73
:1023B00000000000D0ED007ADFED386AF8EE677AB1
:1023C000F8B50122002387EEA67A2DED028BC0E935
:1023D0000E23436B324A334E1A60334A00245A604C
:1023E000324A9A603368324A83ED007A9FED317A3F
:1023F000D0ED036AC6EE877A2F4B02F120071B68E7
:10240000C3ED007A5C609C602C4B1B68154603CDC5
:10241000BD42186059602A4603F10803F6D1B7EEB1
:10242000008A2868264F18603D6820220021281D58
:102430000DF049FE85ED008A9FED220AFEF750FA65
:1024400085ED040A204D3B682F6883ED088A14222D
:102450000021381D0DF037FE1C4B9FED1A0A3B6022
:10246000FEF73EFA38EE400ABDEC028B2B68184AA4
:1024700083ED020A174B1B681C605C609A60164B68
:10248000164A1B681C605A60154B1B681C605C6018
:1024900033681A68134B1B681A60F8BD00007A464F
:1024A0005839B43C641B0020B537F83CA8B49041BF
:1024B000604F02000000C842E006002060070020D4
:1024C000B8060020607BA3BFC006002060AA4FB8FA
:1024D00031082CBDC8060020D00600200AD723BB37
:1024E00030070020801B00202DE9F04F2DED048BDC
:1024F000032997B00446DFF85083089100F0D48494
:10250000042900F0FD84D8F80030DFEDB67A93EDB1
:10251000007AB4EEE77AF1EE10FA03D54368132B94
:1025200040F3B384D4ED097ADFEDAF6AF8EE677A51
:1025300087EEA67AD4ED0A7ADFEDAC6AF8EEE77A98
:10254000AB4BAC4F1B68032283ED007A87EEA67A73
:10255000A94BAA4D1B68AA4E83ED007A7B689FEDBC
:10256000A98A009398E803003B68FEF767FB95E8AB
:102570000C00A54903C9FEF78DFB95E80C0095E812
:1025800003009FEDA20AFEF763FA97E803008DE8C7
:10259000030095E80C00FEF7C1F995E80C0095E8FA
:1025A0000300B0EE000AFEF753FA95E803008DE849
:1025B000030095E80C0097E80300FEF7D8F996E8C9
:1025C000030002AB83E8030095E803008DE80300F5
:1025D00097E80C008E4F98E80300FEF7C3FA97E8DF
:1025E00003008DE803008B4D8B4B95E803008B4D6A
:1025F0000CCBFEF751FA6B68072200932B6897E823
:102600000300FEF71BFB96E803008DE80300844FF0
:1026100096E80C0097E80300FEF73EFA96E8030000
:102620008DE8030095E80C007E4DFEF777F92F4604
:10263000366806F15408F6EC017A67EE887A17EEF0
:10264000900A0DF0D9FC4645E7E80201F3D10022DB
:10265000754B17469E4690469446914616460593FE
:102660000692DEE9003AD5E90010584301FB0A0062
:10267000A3FB011B0835584411EB0C0C40EB090976
:10268000D5E90C1058430AFB0100A1FB031B584479
:10269000CF1940EB0808D5E91A105843A1FB03B342
:1026A0000AFB010001361844069B1BEB0202F6B23E
:1026B00040EB0303072E0EF1080E0693D1D15B4DBC
:1026C000C5E904235A4BC5E900C99B461E68C5E904
:1026D000027806F10C07F5E802010DF03BFC07EE6D
:1026E000900AC7EE887AE6EC017ABE42F3D1514DEA
:1026F00007226B68424E00932B689BE80300FEF7AD
:102700009DFA95E803008DE8030095E80C0096E833
:102710000300FEF72CF9484B9FED488A1E462D68B2
:10272000069305F15407F5EC017A67EE887A17EE07
:10273000900A0DF061FCBD42E6E80201F3D14822A7
:102740003F4940480DF0B2FC0023DFF8ECC0DFF851
:10275000FCE00793DEF80030DFF8E8A00A93DEF82B
:1027600004305546674600260C930EF1080E26E00D
:10277000D8F804300B9A09995343D8F8002009F18E
:10278000010901FB023319460B9B08F13808A2FB33
:1027900003230D930D9B19440368D218436840F836
:1027A000082B41EB0303B9F1030F40F8043CDFD1E0
:1027B0000336092E07F1380705F118054AD0D7E985
:1027C00000130A9AE04653430C9A284602FB013351
:1027D0000A9A4FF00009A1FB02210B920A461A4403
:1027E0000992C5E768916D3C00007A460000C8C3B5
:1027F000641B0020E8060020601B0020F00600207B
:1028000050070020A5D4685360070020F085493C9C
:1028100018070020C006002030070020080700200D
:10282000B8060020281C0020D04F0200A01B00206A
:102830003807002058070020D01C002020BCBE4CC8
:10284000884F0200781D0020E0060020284F02007B
:10285000EC78AD60079B0CF1080C0133072B079354
:102860007FF478AF1FED068AD84E356805F124074E
:10287000FAE802010DF06EFB07EE900AC7EE887AC7
:10288000E5EC017AAF42F3D1D14FD24D7B68032200
:1028900000933B689BE80300FEF7D0F995E80C0035
:1028A00096E80300FEF7F6F995E80C0095E80300BA
:1028B0009FEDC90AFEF7CCF897E803008DE8030006
:1028C00095E80C00FEF72AF895E80C0095E803005F
:1028D000B0EE000AFEF7BCF895E803008DE80300AF
:1028E000BE4E95E80C0097E80300FEF740F896E826
:1028F000030002AB83E8030095E803008DE80300C2
:10290000B74D9BE8030097E80C00FEF72BF92B6806
:10291000DFF8249393ED000AD9F800709FEDB18A97
:1029200087ED000AFDF7E8FF87ED010A2B684F46A7
:1029300093ED000AFDF796FFDFEDAB7AB4EEE70A00
:10294000F1EE10FA48BF00229FEDA87A48BFD9F8EF
:102950000030DFF8E89248BF5A60D9F800302A68A2
:1029600083ED007AD2ED007AF5EEC07ADFEDA07A41
:10297000F1EE10FA58BFF0EE477AC3ED007A636BC0
:10298000DFF8BCA2D3ED027A93ED010A20EE270A0C
:1029900088EE000AFDF766FFB1EE400ADAF800B0F3
:1029A000FDF79EFF8BED000AD9F800309FED910AEC
:1029B000D3ED007A67EE807A2B6867EE887A93ED24
:1029C000000ADFED8D8A67EE807A94ED100A20EE22
:1029D000280A87EE800AFDF745FF884DB1EE400AD0
:1029E000D5F800B0FDF77CFF8BED000ADAF8001097
:1029F000834B0A681B68B0461A612A680FAD1068DD
:102A00001862D9F800007F4BD0ED007A28EE678A73
:102A1000D4ED107A67EEA87A88EE277A1B68B7EEB5
:102A2000008A83ED007AD1ED007A78EE677AC3ED03
:102A3000027AD2ED007A77EEC87A1C22C3ED057ACD
:102A400000210FA80DF03FFB4FF000093368606BC9
:102A50004B4493ED000AFFF76FFC09F10409B9F14B
:102A60001C0FA5EC010AF1D19DED107ADDED0F7A76
:102A700077EE877A9DED117A77EE877A9DED127A5F
:102A800077EE877A9DED137A77EE877A9DED147A4B
:102A900077EE877A9DED157AF1EE0C6A77EE877AFC
:102AA00087EEA67ADFF89CC1636BDCF80020564EF7
:102AB00082ED007AD3ED017AF1EE677AC2ED017A08
:102AC000D3ED007AF1EE677A3268504DC2ED007AAC
:102AD00095E803008DE803009CE8030098E80C00EB
:102AE000FDF7DAFF96E8030097E80C002E46FDF7A5
:102AF00087FF474B1A6802F11C01A2EC010A9142C0
:102B0000FBD196E803008DE803000CCB96E80300A8
:102B1000FDF704FF2F683F4DDFED3F8AA84607F120
:102B20001C09F7EC017A67EEA87A17EE900A0DF00F
:102B300063FAB945E8E80201F3D1002001460746EF
:102B4000059B059A1B68D2F804E008320592D5E986
:102B500000C25A430CFB0E22A3FB0C3C0137181891
:102B60009444FFB24CEB0101072F05F10805E7D1B2
:102B70002A4BC3E900012A4B1D680DF0EBF907EE63
:102B8000900AC7EEA87AC5ED007A264B1A6802F1C2
:102B90001C01286842F8040B9142FAD1224D9FEDA6
:102BA000239A95E803008DE8030096E803000CCB18
:102BB000FDF7DDFE2D68DFF89090AB46DFF88CA0C6
:102BC0001B4E1C4F05F11C0842E000BF60070020AF
:102BD000E8060020F0060020F085493C5007002060
:102BE000601B00203433333F6F12833ACDCC8C3FCF
:102BF0008C4A8A3FCCFF764200007346581B002067
:102C0000B8060020C0060020D0060020480700209B
:102C100000070020B81B0020286B6E4E881B002088
:102C2000801B0020F8060020400700208096184BEB
:102C300000005B629AE09E0030070020901B00209D
:102C40005C1B0020C8060020284F0200F01B00205B
:102C5000FBEC017A67EE897A17EE900A0DF0CCF959
:102C6000D9E90032424303FB0122A0FB033CCAE93D
:102C700000015943624400FB0211A3FB00309E197E
:102C8000084440EB0707D8450AF1080A09F108098A
:102C9000DED1A84B3046C3E90067A74B39461B6815
:102CA000A64F05930DF056F99FEDA57A07EE900A11
:102CB000C7EE877A059BC3ED007AA24B1E6806F12A
:102CC0005409F6EC017A67EEA87A17EE900A0DF037
:102CD00093F9B145E7E80201F3D19B4EF5EC017A97
:102CE00067EEA87A17EE900A0DF086F9A845E6E897
:102CF0000201F3D100220023944D4FF0000A284630
:102D0000C5E90023C5E90223C5E90423D0E9008908
:102D10000026DFF834E28E4FDDF818B00830DBE92A
:102D200000320992DEF80020D7E9001C079203FB6D
:102D30000CFCDEF8042001360A92099AF6B201FB77
:102D400002CCA3FB01310A9A8C445A4307990BF138
:102D5000080B01FB0C2CA3FB013113EB08088C447E
:102D60004CEB0909072E07F108070EF1080ED6D122
:102D7000069B0AF1070A3833BAF1150F40E90289B8
:102D80000693C3D1DFED738A734E376807F10C08E1
:102D9000F5E802010DF0DEF807EE900AC7EEA87A1A
:102DA000E7EC017AB845F3D196E80300059B6B4D3B
:102DB00093ED000A95E80C0088EE000AFDF748FE46
:102DC00095E80300664B674E1A68674B92ED000A60
:102DD0001B68664FD3ED007A96E80C0030EE670A68
:102DE000FDF736FE97E803008DE80300DFF8A4C185
:102DF00096E80C009CE80300FDF790FD3B68BFEEF1
:102E0000007AD3ED007AF4EEC87AD3ED027AF1EECF
:102E100010FAF4EEC77AC8BF83ED008AF1EE10FA1B
:102E20002E4639D583ED027AD3ED007AF5EEC07ADD
:102E3000F1EE10FA03D504212046FFF755FB29686F
:102E40004B4B08681A684B4D1060486850608968A1
:102E5000916095E803008DE8030096E803000CCB31
:102E6000FDF71AFE344B444E196895E80C0091EDBD
:102E7000000A95E80300FDF7EBFD96E803008DE8F6
:102E8000030095E80C00FDF772FD089B237417B052
:102E9000BDEC048BBDE8F08FF4EEC87AF1EE10FAC9
:102EA000C8BF83ED028ABFE7D8F80030DFED337A80
:102EB00093ED006AB4EEE76AF1EE10FAE5DCD0EDCE
:102EC0000A7AB8EEE77ADFED2E7ADFED2E6A27EE8A
:102ED000277AD0ED107A67EEA67ADFED2B6A67EEDF
:102EE000A67AC7EE276AF7EE007A36EE867AB4EE57
:102EF000E77AF1EE10FA77FE877AC3ED007AC4E73D
:102F0000D0ED007A9FED210AF8EE677A406B87EEEC
:102F1000800AFFF7E4F9DFED1E7A002220EE270A8F
:102F2000D8F8003084ED030A20469A60FFF742FA91
:102F3000ABE700BF981B0020941B0020D01C002092
:102F40006B0B5E5D58070020F01B0020681B002003
:102F5000284F020078860764D8060020100700205A
:102F6000641B002020070020801B0020E0060020BA
:102F7000680700202807002060070020295C7F3FA9
:102F80003433333F0000C8430000734600007A46E4
:102F90000000C8423807002080ED030A7047FFFF99
:102FA00007EE901ADFED116AF8EE677A87EEA67ADF
:102FB000D0ED037AF8FE677A38B5FCEEE77A0025A3
:102FC000436802688362C0E9072380ED107AC0ED90
:102FD000027AC0E905554262C5620446FFF7EAF984
:102FE000012384F83050237438BD00BF0000C8426C
:102FF00070B5836B2DED028B01338363C36A044686
:10300000462B19D1D0ED057ADFED656AB8EE677A07
:10301000C7EE267AFCEEE77AC0ED097AD0ED067AA3
:10302000B8EEE77AC7EE267AFDEEE77A0023C0ED28
:103030000A7AC0E90533C36246F2A811D4E905064D
:103040002368E26AA3F52F45C83D8D4202F10102D3
:1030500010D9E5690544206A65613044A061E262E7
:10306000227C0025052A00F29380DFE802F00B564F
:103070002C2C44466168184421623144E36160614C
:10308000A161ECE707EE903A9FED460AF8EE677A09
:10309000606B87EE800A94ED038AFFF720F9DFED7D
:1030A000427A00EE678AB0EE480AFDF7DBFBF2EEEB
:1030B000047AB4EEE70AF1EE10FA04DD04212046AA
:1030C000FFF712FA01E001232374384B9FED367AA3
:1030D0001B680020D3ED007A67EE877AC4ED037A8F
:1030E000F8FE677AFCEEE77A17EE903A642B88BF19
:1030F0006423A36051E00523E6E7D4ED017AA563DC
:10310000B8EEE70AFDF7AEFBDFED297AB4EEE70A89
:10311000F1EE10FAC4BF01232374D4ED017AB8EEA6
:10312000E70AFDF79FFB9FED238AB4EEC80AF1EE94
:1031300010FAD4ED017A48BFE36BB8EEE70A44BF5A
:103140000133E363FDF78EFBB4EEC80AF1EE10FA2B
:1031500014DD0023E363A36B452BB6D92268164B1D
:103160009A4213D96368013BB3F5957F0ED80321CA
:103170002046FFF7B9F90023A363A6E744F25063A2
:10318000E26B9A42E7D10023E36397E70221EFE77E
:103190002046FFF70FF901202574BDEC028B70BDAE
:1031A00000008C4200007A460000C842E006002081
:1031B00000005C4200007042C40301003B4B00F180
:1031C0000C0218603A4B1A603A4B00F130021A6058
:1031D000394B00F184021A60384B00F190021A60FA
:1031E000374B00F1B4021A60364B00F1CC021A6082
:1031F000354B00F1D8021A60344B00F1E0021A603E
:10320000334B00F59A721A60324B00F59E721A60C9
:10321000314B00F5AC721A60304B00F5BA721A608F
:103220002F4B00F5C0721A602E4B00F5C6721A6063
:103230002D4B00F5C8721A602C4B00F5CA721A604B
:103240002B4B00F5CC721A602A4B00F5CE721A6037
:10325000294B00F5D0721A60284B00F5D2721A6023
:10326000274B00F5D4721A60264B00F5E6721A60FF
:10327000254B00F5F8721A60244B00F5FE721A60B7
:10328000234B00F523721A60224B00F52A721A6054
:10329000214B00F534721A60204B00F537721A602A
:1032A0001F4B00F53A701860704700BFE006002021
:1032B000600700205007002038070020B8060020D3
:1032C000C0060020C8060020D006002058070020B5
:1032D000300700204807002040070020D8060020C3
:1032E00010070020901B0020801B0020941B002052
:1032F0005C1B0020581B0020641B0020601B00206A
:10330000E8060020F006002018070020080700202B
:1033100000070020F8060020200700206807002092
:103320002807002090ED030A7047806A7047FFFF6E
:1033300037B5019054200D460CF098FE044680B13C
:1033400095F900300146722B0CBF01234FF48173B5
:10335000019A054805F024FB18B120460CF08EFEBA
:103360000024204603B030BDC0330020F8B502462B
:1033700004460B46144E154F354603CDBD42106032
:1033800051602E4602F10802F6D1286810602278BA
:103390001D2A0FD00E4B012263600E4B2046A36006
:1033A0000D4B0949E3600D4B2361402307F0F4F80E
:1033B0000020F8BD626801201A60A2685A60E268C5
:1033C0009A602269DA60F4E74001000850010008C1
:1033D0008155854260559543DD40A7440000C842B1
:1033E0001D2208B502700A68402342604A68826064
:1033F0008A68C260CA6804490261012207F0CCF8F9
:10340000B0FA80F0400908BD400100082DE9F04FF6
:1034100005460E4690464FF00009DFF878A01C4F95
:10342000DFF874B089B0C14503DB002009B0BDE806
:10343000F08F51463046FFF77BFF044610232A46A3
:103440000146384604F0AEF92146384605F06CF9DD
:1034500020460CF013FE59463046FFF769FF04463C
:1034600010236A460146384604F078FB2146384668
:1034700005F05AF920460CF001FE694628460DF089
:1034800037F810B109F10109CDE70120CEE700BFFF
:10349000C033002008500200E050020013B5164966
:1034A00004461648FFF744FF014698B9144805F052
:1034B0003BF921461348FFF759FFD8B92046FEF7DC
:1034C000BFFD204605220D49FFF7A0FF44B220466C
:1034D00002B010BD224610230190094804F03EFBC3
:1034E000019944B2064805F01FF9019908460CF00D
:1034F000C5FDECE70124EAE7E05002000A500200B3
:10350000C0330020C01D00201FB504460846FF211F
:10351000039005F00EFD1023FF22009321460023A7
:10352000039805F097FD04B010BDFFFF38B590F982
:103530002C30044600F130058BB905220A49284693
:10354000FFF764FF29460948FFF74AFF2846084964
:10355000FFF7DAFF10B9012384F82C3038BD284674
:103560000349FFF7D1FFF9E70A500200C01D002010
:103570008032002038B50B490546FFF7D9FE0446D6
:103580000146094854B105F0CFF820460CF076FD0D
:103590002946054805F00EFA012038BD05F0C4F8AB
:1035A0002046FAE7E0500200C033002008B5044886
:1035B000FFF7E0FFBDE808400248FFF7DBBF00BFB0
:1035C0001A500200235002008160704737B50C4644
:1035D000154690B94B7801334B701D232846237054
:1035E000FD2105F0A6FC0423FD22009321460023C3
:1035F000284605F02FFD03B030BD012802BF8B78AF
:1036000001338B70E9E773B504230E460546014686
:103610000093FD220023304605F09EFD2B781D2BE4
:1036200000D190B900241D23FD2130462B706C7011
:10363000AC70EC7005F07DFC0423FD22009329465C
:103640002346304605F006FD204602B070BDFFFF60
:1036500064224FF47A51C0E91022094A0023C0E9DC
:10366000071244F26821074A80F858304262064A3D
:10367000C363C0E90B124DF2D862038742637047FF
:10368000005C26053200FCFFB8050100D0F860356B
:1036900013B15B1AC0F86035D0F868351BB9002348
:1036A00080F870357047591AC0F868150029F6D0AF
:1036B000704710B590F8A830044680F8A93006F09D
:1036C000A9FE84F8A80010BD90F8A8007047B0F8D3
:1036D000A800431E584258417047FFFFC36D30B5E4
:1036E0001B681B685A6803F1C00511465C680C33FF
:1036F000A24238BF2246A14228BF2146AB42F5D1A3
:1037000041F267039A420FD840F6B73399420BD97A
:103710000023434A1370434A1370434A1370434AC9
:103720001370434A137030BD90F858400E2CFAD8ED
:1037300044F28A03E340DB075BD5A1F5FA63B3F5F6
:103740007A7F26D2816C41F001038364036F0A33D0
:1037500008DA334D2B78052B8BBF41F00301013381
:1037600081642B7041F268039A42DCD9826C42F08A
:103770000A038364036F0A2B08DD2C490B78052BA1
:103780008BBF42F00F02013382640B70042CCAD14C
:1037900035E0A1F59663B3F5487F1CD2836C43F006
:1037A00001018164016F11F10A0F07DA1D4D2978BB
:1037B00005290DD943F003038364D3E7B1F5967F60
:1037C000D0DD1B4D2978052902D943F00703F3E723
:1037D00001312970C6E7B1F5966FC3D212490B7853
:1037E000052B03D9836C43F00403E5E701330B7029
:1037F000B8E7042C97D141F268039A4293D9826CBE
:1038000042F00A038364036F0A2B8CDD07490B78AF
:10381000052B8BBF42F00F02013382640B7082E7ED
:10382000D91D0020DA1D0020DC1D0020D81D00203D
:10383000DB1D002010B50446C06D05F03CFDE36DB6
:103840001B69E36410BD10B50446C06D05F044FD6E
:10385000E36D5B69236710BDC06D05F04EBDC06DA3
:1038600005F05CBD10B50446C06D05F068FDE36D64
:103870005B7F236510BDC06D05F072BDC06D05F0A6
:1038800095BDFFFF012240F20121014809F0F6BD7C
:10389000F0420020C06D05F0ECBEFFFF08B5064BFE
:1038A0001B683BB9054800F059FABDE808400448D8
:1038B000FFF73CBE08BD00BF9C400020FC1D00205F
:1038C0006035002010B50446C06D05F096FC00235D
:1038D0006365A36410BDFFF7F5BF10B5046EA36860
:1038E000204698470123237010BD10B5046E63680D
:1038F000204698470023237010BD10B5846E63687E
:10390000204698470023237010BD10B5846EA3682D
:10391000204698470123237010BDC06D05F07CBC84
:10392000C06D05F0BBBC38B504460025D4F888202E
:10393000EBB29A4205F1010500D838BDD4F88C20CD
:1039400052F8230005F077F9F0E7C06F05F058B999
:10395000D0F8800005F054B9C06D05F055BD13B521
:103960000446C36D01AA1B681979186805F025FC87
:103970000199E06D06F03CFA02B010BDC06D06F092
:103980001FBAFFFF4B1E70B504460D46122B12D80E
:10399000DFE803F00A113311354011232527292BC5
:1039A0002D2F441111114800FFF7AFFF002363656D
:1039B000012384F8583094F88C35002B3BD1AB1E92
:1039C000102B36D8DFE803F030354635353E353537
:1039D0003535353535354A3030000823E9E70923D8
:1039E000E7E70A23E5E70B23E3E70C23E1E70D23F1
:1039F000DFE7FFF78AFF0E23DBE70323D9E7002683
:103A0000FFF783FF204684F88460FFF7B7FF0523A4
:103A1000E663CEE7FFF73EFF0623CAE7FFF73EFF68
:103A20000F23C6E71323C4E72046FFF766FF0023F2
:103A3000A36784F85850D4F878359BB12046BDE888
:103A4000704018472046FFF799FF074A1368013373
:103A50001360EEE72046FFF748FFEAE72046FFF74E
:103A60003CFFE6E770BD00BFE01D0020D0F8A400D9
:103A7000FFF7AABDD0F8A400D0F81038184710B549
:103A80000446FFF7F3FF2046BDE81040FFF7F2BF02
:103A900010B590F88430044663B990F85820132A82
:103AA00016D8274BD340DA0712D50E21BDE81040B7
:103AB000FFF768BF012B0CD190F858300E2B01D0C6
:103AC000132B02D112212046F0E7002380F8843026
:103AD00010BD022B05D190F858300E2BF8D11121D2
:103AE000E4E7032B09D190F85820132AF0D84FF4BB
:103AF0001423D340DB07E5D4EAE7042B09D190F87F
:103B000058300E2B03D003F0FB03032BE0D1102120
:103B1000D9E7052B08D190F85830DA1E012A01D9CF
:103B2000012BD5D11321CEE70521FFF72BFF002371
:103B3000204684F884301621BDE81040FFF79FBF6F
:103B40001800090030B585B001A90C46D0F88C30BA
:103B50001A1F0C3352F8045F6D899A4221F8025BF8
:103B6000F8D1C36F01215B89ADF80C30D0F88030FB
:103B70005B89ADF80E30BDF904301A4634F91100F6
:103B800001318342A8BF03468242B8BF02460629DC
:103B9000F4D15A2A02DC13F10A0F0CDA0C4A13880A
:103BA000022B8BBF012000200A4B01338CBF187001
:103BB000138005B030BD0749087818B1502AF8DCE9
:103BC000002BF6DB0020024B08701880F1E700BFE5
:103BD000E41D0020E61D002010B50446FFF7B2FFEB
:103BE000E26DA36C92F8221079B923F0FF0392F8EA
:103BF000232062B923F47F4360B923F48033204645
:103C0000A364BDE81040FFF769BD0B43EFE743EA4B
:103C10000223F1E743F48033F1E790F88D355A1C25
:103C200080F88D2518467047002380F88D3518469A
:103C30007047FFFF37B5019054200D460CF016FA7F
:103C4000044680B195F900300146722B0CBF012368
:103C50004FF48173019A054804F0A2FE18B1204682
:103C60000CF00CFA0024204603B030BDC033002015
:103C7000F8B5024604460B46154E164F354603CDA1
:103C8000BD42106051602E4602F10802F6D128684C
:103C9000106022781D2A0ED000251D2301222370DA
:103CA00020464023C4E90155C4E90355084906F0FC
:103CB00073FC2846F8BD626801201A60A268DA60C9
:103CC000E2681A61228A9A82628ADA82F2E700BF87
:103CD00080010008900100081D2208B502700A68E2
:103CE00040234260CA68C0E902228A8A0282CA8AE4
:103CF00004494282012206F04FFCB0FA80F04009EC
:103D000008BD00BF800100081FB51D2203460846FC
:103D10000B4CFE2122701A6803906260DA68A26080
:103D20001A695B69E260236105F003F91423FE223E
:103D3000009321460023039805F08CF904B010BDD0
:103D4000E81D002000234FF07E52C0E90033C0E997
:103D500003338260436103837047FFFF70B53949C5
:103D60000546C0B03848FFF765FF044650B101462C
:103D7000364804F0D9FC20460CF080F9324933482B
:103D800004F018FE2146314804F0CEFC20460CF029
:103D900075F92F492C48FFF74DFF0646FDF7BCFF8C
:103DA000044628680BF0B6FE41EC100B204629496A
:103DB000FDF762FFE8680BF09DFE41EC100B20461A
:103DC0002549FDF759FF28690BF094FE41EC100BD3
:103DD00020462249FDF750FFA88A0BF08BFE41ECEC
:103DE000100B20461E49FDF747FFE88A0BF082FEC4
:103DF00041EC100B20461B49FDF73EFF69460023AE
:103E00004FF480722046FDF7CFFE68460CF093FB1E
:103E10006A46034631460D4803F0C4FC31460B4860
:103E200004F082FC30460CF029F929460E48FFF7D1
:103E300053FF0E492846FFF767FF2046FDF784FC35
:103E400040B070BDE050020034500200C03300208A
:103E50000850020040500200445002004C50020042
:103E60005550020060500200E81D00208032002002
:103E70004FF07E52036870B5CB1A002B04460E46F5
:103E8000436082601BDA0269C18AD31A632B036123
:103E900003D94B1CC38200230361E38AA58A1D4416
:103EA000238BC5F34E05AB4207D0E3690BB1206A03
:103EB000984720462583FFF751FF266070BDECD060
:103EC000C168828A0B44632BC36081BF531C838209
:103ED0000023C360E1E7FFFF2DE9F04F46490446A8
:103EE000ADF2044D4548FFF7A5FE064690B9002304
:103EF0000A222146C4E9033323606361228363609D
:103F00003F48FFF7B5FE20460DF2044DBDE8F04FE7
:103F1000FFF724BF4FF48062002168460CF0D3F80D
:103F20004FF480636A463146364803F017FE684610
:103F3000FDF736FE054638B93146324804F0F4FB49
:103F400030460CF09BF8D2E72F49FDF759FE2F4978
:103F500083462846FDF754FE2D4982462846FDF744
:103F60004FFE2C4981462846FDF74AFE2A498046E5
:103F70002846FDF745FE07465846FDF725FF51EC5C
:103F8000100B0BF0CFFE20605046FDF71DFF51ECEB
:103F9000100B0BF0EFFEE0604846FDF715FF51EC0B
:103FA000100B0BF0E7FE20614046FDF70DFF51ECD2
:103FB000100B0BF0DFFEA0823846FDF705FF51EC39
:103FC000100B0BF0D7FEA38A80B2E0821844C0F336
:103FD0004E00314620830B4804F0A6FB30460CF01F
:103FE0004DF82846FDF7B0FB20460C49FFF78CFE44
:103FF0000DF2044DBDE8F08FE05002003450020095
:10400000E81D0020C0330020405002004450020050
:104010004C500200555002006050020080320020D7
:1040200010B500230C468882C882C1E903332046BC
:104030000B60116CFFF71CFF2046BDE81040FFF736
:104040008DBE01600021C0E90423416000F25C40A4
:1040500000F078B838B50446164B92B91A78013298
:104060001A701B78022B0ED104F1180504F5767432
:10407000012228461146F03500F07BFCA542F7D11D
:1040800038BD0022ECE7042BFAD1012204F19000A4
:10409000114600F06EFC012204F5C070114600F0DC
:1040A00068FC012204F51C701146BDE8384000F0A0
:1040B00060BC00BF201E002037B504460D460A46EE
:1040C00000F58660012100F09FFB2946019004F570
:1040D000727000F07FF929462046019A03B0BDE8CE
:1040E0003040FFF7B7BF2DE9F341054600F5727088
:1040F00005F118060F46344600F060FB05F55878C8
:1041000020463946783400F04FFC4445F8D1BC00D5
:104110000B3CA4B205F57675032F8CBF2146002118
:104120003046019100F045FC06F178000199F03627
:1041300000F03FFC0134AE42A4B2EDD102B0BDE8C4
:10414000F081704700B9FEE70023C0E90233036045
:104150004360704770B5054600240288944211D22E
:10416000A3185E10C3F34F006B6833F836308B42F0
:1041700011D003D92EB1421E92B2EFE7431C9CB27C
:10418000ECE7B44208D14FF6FF706B6833F8343077
:104190008B4208BF204670BD4FF6FF70FBE7FFFF64
:1041A000054A00F11403343043F8042B834202F132
:1041B0000102F9D1704700BF7407002010B510B19B
:1041C0000A78072A00D9FEE7002380F8342004315A
:1041D00038309A4200DC10BD51F8044B013340F8EE
:1041E000044BF6E72DE9F84F4FF0000904468846E6
:1041F00007464D464FF6FF7AC37843F08003C370FD
:1042000094F834304B4501DCBDE8F88F4046398FD7
:1042100097F83A6097F83BB0FFF79CFF504504D100
:104220002046BDE8F84FFFF7BBBFB8F80030834227
:10423000F6D9D8F8043003EBC0008378B342EFD945
:10424000436806EB460613EB8606E9D000200F4BC9
:104250001A686B1D04EB8303834507DCE37809F1DF
:1042600001096FF3C713E3700437C9E7F18801351B
:104270008142C8BF3168EDB2C6BF091819601A6023
:10428000082D03F10403CBD80130E5E77C070020BB
:1042900038B51546044638B1FFF790FF2946204649
:1042A000BDE83840FFF79EBF38BDFFFF38B580231B
:1042B00080F82030082380F82830094B04461B681A
:1042C000416218300D4698470023A4F84C306375BE
:1042D00084F854304FF44073A565A4F8603038BDBD
:1042E000700700200023A0F84C30437580F854304C
:1042F0004FF440738165A0F860307047012310B51A
:104300004FF4C0640370836964F31C038361082362
:104310004FF4B0640385436864F31C0343600023D7
:1043200080F83030C362B1F86440896E4375C0E9EB
:104330001133C0E91332C0E9163344864163A0F853
:10434000403080F8423080F85430A0F8603010BD22
:10435000002310B59CB2A24200D810BDCC5CC4545E
:104360000133F7E7014B1B68184700BF70070020B7
:1043700070B50124047091F85C40856904F5B0665D
:1043800066F31C05856108250585456804F5C0644C
:1043900064F31C0500248482C46280F830404560C8
:1043A000B1F85E5080F84240C363B1F86030C0E9B4
:1043B0001144C0E9164445860487A0F84040A0F89F
:1043C0004C40A0F84E30026580F85440A0F86040A0
:1043D00070BDFFFF037873B5044623B9012584F847
:1043E000615002B070BDB0F84C3063B11944B0F800
:1043F0004E3089B28B42A0F84C1004D2A949FFF785
:1044000071FF0325EBE7637D83B994F85430002BEB
:10441000E4D094F86030113B042B00F2AE80DFE86A
:1044200013F065001401AC0083008A010023257B92
:10443000A4F84C306D09042D11D1227C63758DF8E0
:104440000020627C84F860308DF80120A27C8DF819
:104450000220E27C8DF80320009AE265D1E794F80F
:104460006030002BD5D16B1E012B04D98E4920461C
:10447000FFF71CFFC5E7637BE06B8DF80030A37B83
:104480008DF80130BDF80010E37BA4F8401084F8EB
:104490004230FFF75FFE4FF6FF739842208712D03D
:1044A000E26B138883420ED9526894F8423002EBD3
:1044B000C00082789A4206D9426803EB43039E000B
:1044C00012EB830303D1002378496364CFE763646D
:1044D000012D197923D1890701D47549C7E79B6854
:1044E000DBB99359A364112384F8603094F85430F5
:1044F000002B4FD0636C9B685B68984703283AD1C8
:10450000002504F1180084F85450A4F84C50FFF72B
:1045100029FF84F8605002256EE01B68E2E7CB07B4
:10452000DBD5142384F860300026637B616C84F84B
:104530002130E38984F830606384CA88A685042A20
:10454000E28504F1180500F2DD80C2F104039B004E
:1045500003F00C0343F0430384F82030096804F1AE
:104560002400FFF7F5FE2846FFF7FCFEE38D84F8F4
:104570006060A385CFE7022801D001253CE000233D
:104580004C4984F85430A4F84C302046FFF78EFE96
:10459000032531E084F83030A385637B84F8213033
:1045A000E3896384237B03F00305032D27D1626C29
:1045B000C3F38103D288C3F104039BB2934298BF33
:1045C0001A46E385A06C04F11001FFF7C1FEE38DEC
:1045D000A385602384F82030636C9B683BB904F1A9
:1045E0001800FFF7BFFE002384F8603093E7012531
:1045F000A4F84C5084F8545000236375EFE6012D65
:1046000021D1237C626C8DF80030637CD2888DF8D8
:104610000130A37C8DF80230E37C8DF80330BDF8C7
:1046200000309A42E38501D22349AEE76023A4F823
:104630004C5084F8203004F11800FFF793FE122349
:1046400084F86030D8E71D499FE794F85430002B78
:104650007FF450AF237B5A0901D0194995E794F8AC
:10466000301003F01002914201D016498DE7A18D60
:10467000E28DA06CCD1DAA42084403F0010323DCA7
:1046800013B94FF0006180E7521A92B204F10D01A4
:10469000FFF75EFEE38DA38594F8303043F02003EE
:1046A00098E700BF00000405010004051100090699
:1046B000000001062100000805000405100007069F
:1046C00023000A0600000305002BDAD1072201258A
:1046D00004F10D01FFF73CFEA38DA4F84C501344E8
:1046E000A38594F8303004F1180043F0200384F8D7
:1046F0002030FFF737FE94F8303083F0100384F851
:10470000303079E741232846012584F82030C2F370
:10471000072384F8242084F82530C2F30743C2F32A
:10472000076284F8263084F82720FFF71BFE152344
:10473000A4F84C5084E7237B5A09032A8DD194F8BE
:10474000302003F010039A428FD1626CA38D116860
:10475000E28DDE1DB242194404F1210004F1180576
:104760001ADCD21AD6B23246FFF7F2FDE38DC6F15B
:104770000706A38594F83030284643EA460343F001
:10478000010384F82030FFF7EDFD94F8303083F01A
:10479000100384F8303026E70722FFF7D9FD2846BA
:1047A0000125A38D1344A38594F8303084F820307C
:1047B000FFF7D8FDA4F84C509DE700BF037E01F041
:1047C0007F0161F306030376037961F30603037146
:1047D000704703460A46D1E9010183E8030003213B
:1047E000198291899982D189D982B2F85810198396
:1047F00092F85A209A760022DA6183F820205A62D1
:1048000083F828207047FFFF13B590F90310044682
:104810000029C37855DB818B0A4492B2914238BF9C
:10482000828313F0400335D0828B838A9A4246D329
:10483000C38B028B01339BB29A42C38311D20122F4
:1048400090F82030817E1344DBB2994280F820300A
:104850003CBF002380F8203090F82030C2839A407B
:104860004262E38B20462372C3F30723637294F8FA
:104870002030A372144B1B68984700230120A383A8
:10488000A38BE28A93428CBF0023012384F8283053
:1048900002B010BD407C0028F2D0227AA17A8DF8B7
:1048A0000020627A84F820108DF80120BDF80020E5
:1048B000A383E28301228A4062626374E0E70020FE
:1048C000DEE70020E4E700BF7007002010B50446D3
:1048D00094F873300830022B09D1636F98470A4B64
:1048E00020461B689847002384F8723010BD04F1FD
:1048F000100304F1300253F8041F0978934200F8C2
:10490000011BF8D1EBE700BF700700202DE9F04153
:104910000446069D0E4611461A469DF81C80089FC7
:10492000FFF7B6FC2B892968AA89A4F864306B8943
:10493000E165A4F86630A4F86820A87BB8F1020FFE
:1049400084F86A002869216084F871304FF008010A
:104950004FF00103E0662182A66584F8702084F898
:10496000723084F87380676701D107B9FEE7BDE84C
:10497000F08190F90330002B15DB4FF6FF71B0F892
:1049800064308B4204D190F8723063B1FFF79EBF60
:104990004AB1826DD18B994203D1C16E526A1142E4
:1049A000F4D1002BEFD07047037861F30603037056
:1049B0007047A0F864107047012301600371184626
:1049C0007047FFFF012810B516D1144CE368186832
:1049D00008F082FF08B1002010BDE368186808F0F5
:1049E00081FF0028F7D1E3680D49186808F018FF27
:1049F000B0FA80F04009EFE70028ECD1074CE368FB
:104A0000186808F069FF0028E5D1E368186808F025
:104A100069FF0028DFD1E3685968E6E7180800203D
:104A20006C500200036810B59A6818681469012276
:104A3000A047B0FA80F0400910BD08B503689A6835
:104A40001868D2689047012008BD2DE9F047054657
:104A50000F46904699466424D0F800A02846FFF7F8
:104A6000ECFFDAF8083042469E6839464B46DAF8E1
:104A70000000B0470646012005F0FDFD013C11D0C5
:104A8000002EEBD164242B79032B06D04FF47A71DE
:104A900001200AF069FD013CF5D12879013818BFE1
:104AA000012002E0002EEDD02046BDE8F0872DE980
:104AB000F04705460F46904699466424D0F800A07A
:104AC0002846FFF7BAFFDAF8083042465E683946F2
:104AD0004B46DAF80000B0470646012005F0CBFD52
:104AE000013C11D0002EEBD164242B79022B06D08F
:104AF0004FF47A7101200AF037FD013CF5D1287995
:104B0000013818BF012002E0002EEDD02046BDE89C
:104B1000F087017170470023436003708360704722
:104B200037B5019054200D460BF0A0FA044680B131
:104B300095F900300146722B0CBF01234FF48173AD
:104B4000019A054803F02CFF18B120460BF096FAA5
:104B50000024204603B030BDC033002070B50D46A0
:104B60000021044601F0A1F8134B1E261870012005
:104B7000FFF728FF0121204601F087F830B94FF4F4
:104B80007A7101200AF0F0FC013EF3D11E26402389
:104B90002A464FF47861204601F061F930B94FF4AC
:104BA0007A7101200AF0E0FC013EF0D10020BDE85E
:104BB0007040FFF707BF00BFD02D0020F0B599B0BF
:104BC0000C460746FDF7A8F8064620460AF092FF75
:104BD00041EC100B30462649FDF74EF8002369469C
:104BE00020223046FCF7E0FF68460BF0A4FC402290
:104BF0000546002108A80BF066FA7F23ACB22A46CE
:104C000069460DF123008DF820308DF821500BF00E
:104C10004DFAE11C89B208A8FDF74CF905F16003D3
:104C200018AA0DEB0305231D05F83D0C12FA83F3BA
:104C3000000A03F8400C631D12FA83F30D2203F8F7
:104C4000402C18AAA31D12FA83F30A22073403F892
:104C5000402C18AB13FA84F40023384604F8403C87
:104C600008A9FFF77BFF3046FCF76EFD19B0F0BDD9
:104C7000C450020010B50B49FFF752FF044678B14B
:104C800001464FF40073084A084802F08BFD2146A4
:104C9000064803F049FD2046BDE810400BF0EEB990
:104CA00010BD00BF08500200A02F0020C03300201C
:104CB00037B50D460B490192FFF732FF044678B134
:104CC0002A460146019B084802F048FF2146064853
:104CD00003F02AFD204603B0BDE830400BF0CEB90A
:104CE00003B030BDE0500200C03300200B892DE935
:104CF000F04101220160838005460C4638484FF49C
:104D00008061FDF77FF80526364F2146286800F0C0
:104D10005CFF10B10526334F12E0013E16F0FF068E
:104D200003D100263046BDE8F081384608F00EFB7E
:104D3000EBE7013E16F0FF06F3D0384608F006FB1D
:104D4000286800F13C0100F045FF0028F1D005265D
:104D5000244F0021204600F086FF10B10526214F88
:104D60000EE0013E16F0FF06DBD0384608F0EEFA02
:104D7000EFE7013E16F0FF06D3D0384608F0E6FA1A
:104D80003021204600F07CFF0028F2D00526154F88
:104D900006E0013E16F0FF06C3D0384608F0D6FA0A
:104DA0000C21204600F067FF0028F2D00527DFF82D
:104DB000348006E0013F17F0FF07B2D0404608F00C
:104DC000C5FA0021204600F068FF06460028F1D011
:104DD0004FF45471204600F096FF0023AB71A1E719
:104DE000B8270020884400202DE9F0470F4682466E
:104DF0000BF0A1FB84B2224D04F108081FFA88F8D9
:104E000006464246002128460BF05DF97F232B70B1
:104E1000230A6E70AB702646002303F103099E42FD
:104E20001FFA89F921DCE11C154889B2FDF742F827
:104E30000D22231D05F809009BB2000AE854631DEA
:104E40009BB2EA540A22A31D9BB2EA540023073402
:104E5000A4B20B4A2B5598450DDC42460021084868
:104E60000BF031F94046BDE8F0871AF80320013312
:104E700005F80920D1E712F8011BF9540133EAE7DC
:104E8000A0200020FFFFFFFF2DE9F04100248A4D04
:104E9000ADF5886D10AB28461919FCF7EEFF18B177
:104EA0000134B4F5806FF5D10E22002104A80BF077
:104EB0000AF9824B04AC0FCB07C48149814D0846E7
:104EC0002370D5F88C301A1F0C3352F8044FA47A93
:104ED0009A4241F8044BF8D1002740F67464EB6F16
:104EE000794A9B7A0361D5F880309B7A4361EB6DF8
:104EF0001B681B6803F1C00059680C33A14204BF52
:104F00000137FFB2834242F8041BF5D16A466F4B6A
:104F100003F10806144618685968083303C4B342FD
:104F20002246F7D118681B79694E2371694B2060BE
:104F300008AC224618685968083303C2B3421446C5
:104F4000F7D1FCF7E9FE06469FED590B6249FCF7E5
:104F500093FE62493046FCF7EBFE0446286C0AF0EB
:104F6000C9FD41EC100B5E492046FCF785FE686CDC
:104F70000AF0C0FD41EC100B5A492046FCF77CFEBC
:104F8000EB6D58680AF0B6FD41EC100B564920460F
:104F9000FCF772FE0A202B6F58430AF0BBFD41EC70
:104FA000100B52492046FCF767FE514B188B0AF054
:104FB000A1FD41EC100B4F492046FCF75DFEA86CAB
:104FC0000AF098FD41EC100B4B492046FCF754FECB
:104FD00095F858000AF08EFD41EC100B4749204629
:104FE000FCF74AFE2046464904AAFCF773FEEB6D27
:104FF00093F85F3053B1102F08D010213248FCF7DE
:10500000ACFE404902462046FCF7FDFD06212C4837
:10501000FCF7A3FE3C4902462046FCF7F4FD6A4635
:1050200020463A49FCF756FE394908AA2046FCF7C3
:1050300051FE3848FCF7B4FD374902462046FCF7DC
:10504000E2FD95F87C050AF055FD41EC100B204679
:105050003249FCF711FE95F88C050AF04BFD41EC46
:10506000100B20462E49FCF707FE00234FF4806208
:105070002C493046FCF798FD2B492A48FFF7B4FE2F
:1050800000240546284FDFF83080A3B29D4206D9A0
:1050900039194046FCF7D6FE01340028F5D13046D8
:1050A000FCF752FB0DF5886DBDE8F081AFF3008091
:1050B0000000000000006940B827002080000008C0
:1050C00048200020403A0020602000201B510200B0
:1050D000D5000008C5000008C45002009950020025
:1050E000A2500200A6500200AA500200B2500200D4
:1050F000FC1D0020BA500200C1500200CB5002003B
:10510000D4500200E2500200E7500200EC500200CE
:10511000F7500200982E0020FF5002000B510200B1
:1051200012510200D0270020D0290020F8B50446F3
:10513000B0F801305BBA9BB2DD1CA9B203441E7902
:10514000475DFCF7B7FE23787F2B08D146EA072698
:1051500086424FF0000304D1E01C6355F8BD0020E7
:10516000FCE71846FAE7FFFF2DE9F84F0D468146A8
:1051700010B90020BDE8F88F9449FCF741FDFCF719
:105180003AFE934982460BF0B3F90446C8B9484643
:105190009049FCF735FD064698B12146FCF72AFDFB
:1051A000044618B12946FFF7DFFF044601213046C7
:1051B000FCF720FD10B12946FFF7D6FF2040C0B212
:1051C000D8E7504684490BF093F90446C0B94846E5
:1051D0008049FCF715FD064690B12146FCF70AFD13
:1051E000044618B12946FFF7BFFF044601213046A7
:1051F000FCF700FD10B12946FFF7B6FF2043DEE7BC
:10520000504676490BF074F98046002871D1484623
:105210007349FCF7F5FC064600286AD07149FCF793
:10522000EFFCFCF7E8FD704907463046FCF7E8FC68
:10523000FCF7CAFD51EC100B0AF09CFD6B490446CB
:105240003046FCF7DDFCFCF7D6FD6949834638465D
:105250000BF04EF920BB6E6C384666490BF048F9EE
:1052600000B92E6C384664490BF042F908B9634B1B
:105270001E8B384662490BF03BF900B92E6F384659
:1052800060490BF035F908B9EB6D5E6858465E4928
:105290000BF02EF930B9B4422CBF0020012069E791
:1052A0004646D9E7584659490BF022F920B9B4428D
:1052B00094BF002001205DE7584655490BF018F9CE
:1052C00020B9B4428CBF0020012053E75846514911
:1052D0000BF00EF920B9B44234BF0020012049E799
:1052E00058464D490BF004F918B9A31B58425841D0
:1052F00040E7504649490BF0FBF8064600287FF48A
:1053000038AF48463649FCF77BFC074600283FF497
:1053100030AF3449FCF774FCFCF76DFD3249804630
:105320003846FCF76DFCFCF74FFD51EC100B0AF012
:1053300021FD2E4904463846FCF762FCFCF75BFD74
:105340002B49074640460BF0D3F800B96E6C404637
:1053500028490BF0CDF800B92E6C404626490BF0D9
:10536000C7F808B9254B1E8B404625490BF0C0F8FD
:1053700000B92E6F404623490BF0BAF808B9EB6D1F
:105380005E68384620490BF0B3F80028A3D03846B1
:105390001E490BF0ADF8002893D038461C490BF09D
:1053A000A7F8002883D038461A490BF0A1F8002846
:1053B0003FF471AF384618490BF09AF800287FF493
:1053C000D8AEA01B18BF0120D4E600BF28510200B0
:1053D0002D51020031510200375102003A510200B2
:1053E000065102003F5102004351020049510200A0
:1053F000525102004050020056510200FC1D002094
:10540000B2500200AA5002005C5102005E5102003C
:1054100060510200635102006651020069510200AE
:1054200010B5431813F8012C04460F2A04D8881A23
:10543000204400210AF047FE207810BD2DE9F04FEE
:1054400083B004461E26026800AF02F14A052A46D0
:105450000621206800F092FC30B94FF47A710120E7
:105460000AF082F8013EF2D11E26226802F14405BC
:105470002A460021206800F081FC30B94FF47A718F
:1054800001200AF071F8013EF2D1DFF8F082B8F89D
:10549000003001339BB20A2BA8F8003067D1A04B33
:1054A0001A88002A6BD000269E4D012228469E496C
:1054B0001E80FCF713FD05F206219C48FBF770F9EE
:1054C0004FF4007231469A480AF0FDFDAA88974BC6
:1054D000A91D9748FBF72CF9A9889548FFF7A0FF6D
:1054E0009348FCF75DFB054600286AD09149FCF71C
:1054F00087FB0646FCF77FFC8F490AF0F9FF88B965
:105500008E48FFF7B7FBDFF86492C8212068FFF7E9
:1055100055FB8B492846FCF773FB4946FFF724FEF1
:1055200089F87C053046FCF766FC86490AF0E0FF06
:105530000646C8B98448FFF79DFBC8212068FFF7DD
:105540003DFB28468149FCF75BFB814660B14FF487
:10555000807231467E480AF0B6FD33464FF48072C1
:1055600048467B49FCF720FB2846FCF7EDF8B8F8E5
:105570000030B3F5FA7F04BF0023A8F80030A37908
:105580002068012B23D0022B00F0918183B990F881
:105590004A30D9070CD5012100F087FB6D4B1870FC
:1055A0000121206800F071FB0028F9D00123A371CC
:1055B00023680821D868FFF735FA0C37BD46BDE8E7
:1055C000F08F4FF4C8712068FFF7F8FACCE790F835
:1055D0004A30DA0640F160815F4D40232A464FF49D
:1055E000786100F087FC0023A8F800302B78594E32
:1055F0007E2B307057D12B464B4A05F1400153F8B2
:10560000040B8B4242F8040BF9D1DFF81881012218
:1056100040464549FCF762FC002844D008F20621C8
:105620004248FBF7BDF84FF40072002140480AF0F1
:105630004AFD3E4BB8F8042008F106013C48FBF750
:1056400077F8B8F804103A48FFF7EAFE3848FCF754
:10565000A7FA40B33749FCF7D3FAFCF7CCFB3F4934
:105660000AF046FF0146F0B94FF400723C480AF0D8
:105670002AFD3C493148FFF753FA014658B178609A
:10568000394803F051F8796808460AF0F7FC2B49CD
:10569000354803F08FF9C8212068FFF78FFA002200
:1056A000324B83F87D252B781D2B21D02A48FFF71C
:1056B0003DFD8046002865D12B78012B40F0E78026
:1056C000014640222A480AF0FEFC4546DFF8B09029
:1056D000DFF89C80484608EB0501FCF7CEFB10B1D3
:1056E0000135402DF6D122492068FFF737FACEE088
:1056F0000B4A2049138801339BB213801E4AC3EB27
:1057000083130B4402F13C0152F8040B8A4243F824
:10571000040BF9D11188198092789A70C6E700BFFE
:1057200044200020A0220020A02F0020D42D002003
:10573000441E00206D510200715102007951020097
:10574000855102008F51020099510200065102005A
:10575000982E0020D02D0020A0310020A35102005F
:10576000B824002008500200C0330020403A002036
:10577000E2310020A12F0020A1310020E0310020E3
:10578000B8270020FCF70CFA4A498046FCF738FAA3
:105790008146FCF730FB48490AF0AAFE0546B8B935
:1057A000FFF772FB4022294644480AF08CFCDFF8E0
:1057B0000CA1DFF824B158460AEB0501FCF75DFBAC
:1057C00010B10135402DF6D13C492068FFF7C6F9EC
:1057D0004846FCF710FB3A490AF08AFE8146002849
:1057E00052D140463749FCF70BFA054600284BD00A
:1057F0003549FCF705FA78B1FCF7FDFA824620221C
:10580000494632480AF05FFC514630480AF07AFEB9
:10581000C8212068FFF7D2F928462D49FCF7F0F996
:1058200090B3FCF7E8FAE94690B00346EC46DFF89F
:10583000ACE0DFF8ACA003AA754603CD5545106077
:105840005160AE4602F10802F6D1286803F10C015E
:105850001060624653F8040B8B4242F8040BF9D1F6
:105860001B78137062B6402301226046194904F088
:1058700093FE05466420EDB204F0FDFECD469DB9D1
:10588000C8212068FFF79AF94046FBF75DFF012128
:10589000206800F00AFA3070236893F84A30DB077A
:1058A0003FF586AE022382E64FF4C871E9E7002394
:1058B0007DE600BF6D510200AC510200E2310020D4
:1058C000B051020099500200F750020092340020BB
:1058D000B551020080000008B82700208C000008A5
:1058E000BC00000870B5264C01220D46014620463A
:1058F000FCF7F4FA04F206212248FAF751FF4FF4BC
:105900000072002120480AF0DEFBA2881D4BA11D79
:105910001D48FAF70DFFA1881B48FFF781FD1A48C3
:10592000FCF73EF9044638B31849FCF769F9064616
:10593000FCF761FA16490AF0DBFD68B91549204603
:10594000FCF75EF92946FFF70FFC85F87C05204639
:10595000FBF7FAFE012070BD3046FCF74CFA0E4909
:105960000AF0C6FD08B985F87C052046FBF7ECFE79
:10597000002085F87C05EEE785F87C05EBE700BFA5
:10598000A0220020D42D0020441E00206D510200D2
:105990007151020085510200A351020038B5224C1A
:1059A000014601222046FCF799FA04F206211F481D
:1059B000FAF7F6FE4FF4007200211D480AF083FB4F
:1059C000A2881A4BA11D1A48FAF7B2FEA1881848FE
:1059D000FFF726FD1648FCF7E3F8044608B315491F
:1059E000FCF70EF9FCF707FA13490AF081FD0546AA
:1059F000A0B920461149FCF703F9044660B14FF401
:105A0000807229460E480AF05EFB2B464FF48072E6
:105A100020460B49FCF7C8F8012003E02046FBF7BD
:105A200093FE002038BD00BFA0220020D42D00200E
:105A3000441E00206D5102008F51020006510200E9
:105A4000982E00200F4B10B518464FF4007200211D
:105A50000AF039FB0C4C01464FF400720B48FFF77B
:105A600027F94FF48072002120460AF02CFB2146D2
:105A700007484FF48072FFF71BF92046BDE810403D
:105A8000FFF78CBFB8240020B8260020795102000F
:105A900099510200552373B540F201322249009317
:105AA0000446224B224800F081F821492148FFF7A3
:105AB0001DF930B10023237602B0BDE87040FFF736
:105AC000C1BF0123062623761B4D1C4CD5F8C820E8
:105AD00040F20231C2F3400282F00102204607F098
