:020000021000EC
:1000000058A7002061EF0100A9ED01005DEF01009C
:100010005DEF01005DEF01005DEF01005DEF0100AC
:100020000000000000000000000000005DEF010083
:100030005DEF0100000000005DEF01005DEF0100D9
:1000400045E40100F5E40100EDE50100F5E40100FF
:10005000EDE50100F5D1010001D30100D1D301008C
:1000600065D4010025EC0100F1C9010019C90100A6
:1000700091CA0100D1CA0100F9D70100D9E70100F6
:10008000F9D70100F9D7010031C30100A1C3010074
:1000900049C401009DC40100F9D70100000000001F
:1000A0000000000000000000000000000000000050
:1000B0000000000000000000000000000000000040
:1000C0000000000000000000000000000000000030
:1000D0000000000000000000000000000000000020
:1000E0000000000000000000000000000000000010
:1000F0000000000000000000000000000000000000
:1001000000000000000000000000000000000000EF
:1001100000000000000000000000000000000000DF
:1001200000000000000000000000000000000000CF
:1001300000000000000000000000000000000000BF
:1001400000000000000000000000000000000000AF
:10015000000000000000000000000000000000009F
:10016000000000000000000000000000000000008F
:10017000000000000000000000000000000000007F
:10018000000000000000000000000000000000006F
:10019000000000000000000000000000000000005F
:1001A000000000000000000000000000000000004F
:1001B000000000000000000000000000000000003F
:1001C000FFFFFFFFFFFFFFFFFFFFFFFFFFFFFFFF3F
:1001D000FFFFFFFFFFFFFFFFFFFFFFFFFFFFFFFF2F
:1001E000FFFFFFFFFFFFFFFFFFFFFFFFFFFFFFFF1F
:1001F000FFFFFFFFFFFFFFFFFFFFFFFFFFFFFFFF0F
:1002000010B5054C237833B9044B13B1044800E012
:1002100000BF0123237010BD701D002000000000EE
:10022000D859020008B5034B1BB10349034800E04D
:1002300000BF08BD00000000741D0020D859020056
:1002400000231A46F0B5A0F15701A0F13704A0F140
:1002500030050C4EC9B2E4B2EDB216F8017B87420C
:1002600002D1092B06D82A4601339BB2162BF4D1B2
:100270001046F0BDA3F10A02052A8CBF0A462246A9
:10028000F2E700BF900600202DE9F84311F00104C9
:1002900080460E4617462AD00446571E01F1FF3904
:1002A000A4EB08039BB24B4504F1020403DB740882
:1002B0002046BDE8F88314F8020CFFF7C1FF05469D
:1002C00014F8010CFFF7BCFF40EA051007F8010F16
:1002D000E6E718F80500FFF7B3FF45448146687864
:1002E000FFF7AEFF40EA091038550134A4B26500AB
:1002F000ADB2AE42EDD8DBE770B50025013A12B2DF
:100300009542ABB202DD2B4698B270BD541B04EB94
:10031000D47403EB64039CB21BB231F813608642C1
:10032000F2D08BBF013404F1FF3225B212B2E7E7FD
:10033000B5EEC00AF1EE10FA48BFB1EE400A7047C0
:1003400038B517A5D5E900452DED048BB7EE008A29
:10035000F0EE408AB0EE489AF6EE009A28EE087A5F
:10036000C7EE287A77EEC97AF5EEC07AF1EE10FA88
:1003700048BFF1EE677A17EE900A0EF0BBFF2246F7
:100380002B460FF083F820B9B0EE480ABDEC048B81
:1003900038BD88EE880A30EE088A28EE298ADDE723
:1003A0002D431CEBE2361A3FF7EE007A20EE007A7E
:1003B00030EE270AF6EE007A07EE270A7047FFFFB5
:1003C000B5EEC00AF1EE10FA03D405DDB7EE000A6F
:1003D0007047BFEE000A70479FED010A704700BFEB
:1003E00000000000F0B585B004AC04E903006946E4
:1003F00081E80C009DF80D309DF80C10144611FB9F
:1004000003F16FF0404601230A9D8B4201DD05B0E8
:10041000F0BD9A1905EB820700EB820C04EB820217
:10042000DCED007A92ED007A77EE877A0133C7ED42
:10043000007ADBB2E9E7F0B585B004AC04E903006B
:10044000694681E80C009DF80D309DF80C101446AB
:1004500011FB03F16FF0404601230A9D8B4201DD41
:1004600005B0F0BD9A1905EB820700EB820C04EB96
:100470008202DCED007A92ED007A77EEC77A0133E2
:10048000C7ED007ADBB2E9E77FB504AC04E903000D
:10049000694681E80C009DF80D309DF80C1014465B
:1004A00011FB03F16FF0404501238B4201DD04B0E5
:1004B00070BD5A1900EB8206366804EB82020133E4
:1004C0001660DBB2F1E7FFFF7FB504AC04E903007F
:1004D000694681E80C009DF80C309DF80D1014461B
:1004E000994238BF19469FED0B0A01236FF0404532
:1004F0008B4201D904B070BD5A1900EB820604EB9F
:10050000820296ED007AD2ED007A013307EE270AD7
:10051000DBB2EDE7000000007FB504AC04E90300A6
:10052000694681E80C009DF80D309DF80C101446CA
:1005300011FB03F16FF0404501238B4201DD04B054
:1005400070BD5A1904EB820600EB8202D2ED007AEC
:1005500067EE807A0133C6ED007ADBB2EDE7FFFF8C
:100560002DE9F04F89B004AC84E803009DF84D609C
:100570009DF84C0002A98DF81C0010FB06F081E8E4
:100580000C0080009DF815809DF80D900FF04CF93F
:10059000012405466FF04047049B9DF814B0DDF838
:1005A00008A00093A34530D3631E03FB06FC03FBA6
:1005B00008FE012320E0511E09FB013139440AEBFA
:1005C000810101910EEB02000099384401EB80009B
:1005D000019990ED007AD1ED006A46EE877A0132FA
:1005E000D2B29045E7D20CEB03023A4405EB82020B
:1005F000C2ED007A0133DBB2994502D20134E4B294
:10060000D0E7DFED097A0122EBE706958DF81D6052
:1006100012AB08A90CCB11E90300FFF735FF09B0B5
:10062000BDE8F04F0FF008B9000000002DE9F04FD1
:1006300087B006AC04E9030002A981E80C00009031
:10064000002301209DF815709DF80DC09DF845E030
:10065000129D9DF81490DDF84080019281454ED3A3
:10066000441E012204FB07FB013B10E00BEB020AD6
:10067000009E0AF1804A0AF1FF3A06EB8A0ADAF88C
:1006800000A005EB81010132C1F800A0D2B2D1185F
:100690009742C9B2EAD2012204FB0CFA013953187D
:1006A0009445DBB20CD2012204FB0EF403F1FF3AB5
:1006B00002EB0A039645DBB214D20130C0B2CDE79B
:1006C0000AEB020B019E0BF1804B0BF1FF3B06EB9B
:1006D0008B0BDBF800B005EB83030132C3F800B0ED
:1006E000D2B2DCE7A11801F18041013908EB8101A8
:1006F000096805EB830301321960D2B2D8E707B06D
:10070000BDE8F08F82B02DE9F34102AC04E90300AB
:100710000746002601216FF0404E9DF804C0099362
:100720008C4516D301EB0E05002407EB850505E08B
:10073000D5F8008003EB8000C0F800803019013448
:100740005FFA84F84245C0B2F2D201310646C9B21E
:10075000E6E702B0BDE8F04102B070472DE9F04F86
:100760008BB006AE86E8030004A981E80C009DF872
:1007700014709DF81550804617FB05F080000FF0AF
:1007800053F8044600B9FEE7089096E803000126F6
:100790008DF824708DF825500AAB13E90C00FFF793
:1007A00073FE6B1C9B000393B7425AD202230026B0
:1007B000AD00D8B2874262D2DDE904230AA911E96B
:1007C0000300FFF761FE20460BB0BDE8F04F0FF0CD
:1007D00033B8F9EC017A4FF0000CDDF808B004EB07
:1007E000810E0CF1010C5FFA8CF39A420EF1040EAB
:1007F0002BD8D0ED006A87EEA67AAAEC017A039B8B
:100800000132D2B2184429449642E2D8019B6B438C
:10081000F21802F18042013A4FEA820908EB8202A3
:1008200092ED000A002204EB83030132D1B28E4222
:1008300003F1040310D8FFF77BFDFFF781FDA1440E
:10084000013689ED000AF6B2AEE7FBEC016A1EED57
:10085000017A46EEC77AC4E753ED017A07EEE70A5C
:10086000E3E7731E05FB03F204EB820A08EB82093F
:100870002046002101220193CDF808A0C4E70122FF
:1008800004EB830101325FFA82FC604541F8046C9D
:100890002944F7D801338CE7002210B504461046EE
:1008A000A15CA1F13003092B0BD8A0F13003032A7E
:1008B00001EB030002F1010218BF0001042AEFD18D
:1008C00010BDA1F14103052B02D8A0F13703EEE7DB
:1008D000A1F16103052B02D8A0F15703E7E700203F
:1008E000EEE7FFFF2DE9F84F0A688B6880465D1C34
:1008F000D018D35C8A46222B154440F0DD802F4669
:1009000000234C68B91AA14280F0D6803978222998
:100910000ED1C3F10103381ADAF8102018449047B9
:100920008346002800F0C8800446DFF898910FE065
:100930005C2905D10137B91A8C4240F2BD800133E0
:100940000137DFE72B785C2B12D0013504F8013B2F
:10095000BD42F7D30023237010230120C8E9033BD5
:10096000DAF80030FB1A0133CAF80830BDE8F88F16
:100970007A1B002A0DDD6B78752B0AD86D2B12D8E7
:10098000622B2BD026D82F2B29D05C2B27D0222BC3
:1009900025D05846DAF814309847DAF80000281ABB
:1009A000CAF808008BE06E3B072BF2D801A151F882
:1009B00023F000BFE9090100930901009309010038
:1009C00093090100ED09010093090100F1090100FB
:1009D000F5090100662BDCD10C2300E0082304F8A4
:1009E000013B02231D44B3E70A23F8E70D23F6E792
:1009F0000923F4E7052ACCDDA81CFFF74DFFA0F57D
:100A00005C43B3F5806F0646C3D3A0F55843B3F5F6
:100A1000806F2DD2AB1DFB1A052BBADDAB795C2B99
:100A2000B7D1EB79752BB4D105F10800FFF734FF8E
:100A3000A0F55C43B3F5806FABD20C2309EA8626A0
:100A4000C0F30900304300F580364FF0F00C04206D
:100A500000F1FF3E54FA8EFEA645F2B224D10128E1
:100A600014BF42EA0C0202F07F0222700444B9E78C
:100A70007F280AD9B0F5006F0CD3B0F5803F0ED3B4
:100A8000B0F5881F85D20623DFE706234FF0000C60
:100A90000120DDE706234FF0C00C0220D8E7062333
:100AA0004FF0E00C0320D3E702F03F0262F07F0139
:100AB0000EF80119B609CFE7002D7FF46EAF0020C4
:100AC00054E700BF00FC0F0010B528B1016889B1E0
:100AD000D0E901329A4202D310BD013282608268AD
:100AE000934203D98C5C202CF7D9F5E7F4D1013B74
:100AF0008360F1E70846EFE738B5044638B100688F
:100B000028B1A56828440FF0F4F82844A06038BD47
:100B100070B50446B8B1056865B1436813B1826821
:100B2000934210D900290EDBA2684E1C1644B34232
:100B300002D31544284670BD236923B9B6F1804F0E
:100B400003D3002E0FDA0025F4E77600236A6BB199
:100B50002846314698470546B0B9E369206898476A
:100B6000C4E90055E6E76FF00046EFE73046A369B9
:100B7000984705460028F0D0A268216801320EF09F
:100B800073FEE36920689847A368C4E900561D44D2
:100B9000D0E7FFFFF8B50D460446002834D0002901
:100BA00031D08468FAB9194E74B3236AC3B1AB4229
:100BB00021D005F1FF3C013B1CF8011F0F468A5D67
:100BC00002F00302012A13F8012F08BF01F12007E8
:100BD000B05C00F00300012808BF203297420FD01C
:100BE0002468E1E724687CB1216A21B128460FF02E
:100BF0005DF80028F6D1236A002B08BF002403E02B
:100C00000029D9D1F7E70C462046F8BD79550200F6
:100C100081B138B181420DD0836823B98160C1E9C7
:100C20000031012070475A68002AFAD011604A60EA
:100C30005960F6E7002070472DE9F84F0646084650
:100C400011B90020BDE8F88F36B331464FF0000AE5
:100C50000124424F0D4611F8013B3BBBAD1B5544EF
:100C6000E91CFFF755FF07460028EAD04FF0220B9A
:100C7000441C05F1010905F1020880F800B0BAF141
:100C8000000F29D12A46314620460EF0EDFD07F827
:100C900009B007F808A007E00321FFF739FF002893
:100CA000CFD02F490FF00CF80120CBE7222B0BD827
:100CB000072B0CD9A3F10802D2B204FA02F23A428D
:100CC00005D00AF1010AC5E75C2BC3D1F9E71F2B58
:100CD00098BF0AF1050ABDE75C254FF0740ADFF8FA
:100CE00084B0013E16F8013F2BB9222207F80920F3
:100CF00007F80830D8E71F2B07D9222B05D05C2B2B
:100D000003D020462370441CECE7204600F8015B2A
:100D100032780D2A0AD8072A1AD9A2F10803052B1E
:100D200016D8DFE803F009120E150C10222A01D0A4
:100D30005C2A0DD16270E6E762236370E3E7662305
:100D4000FBE76E23F9E77223F7E784F801A0DAE7FF
:100D500059460EF00DFF601DD5E700BF37000004B7
:100D6000E8380200EB38020037B5054680B10EF0D6
:100D7000C0FF084B421C10461B680192984704466E
:100D800018B12946019A0EF06FFD204603B030BD20
:100D90000446FAE7A8060020F8B50D4614460746B3
:100DA00000B3F9B1F2B190421CD093B1D66846F4C9
:100DB0000076E3689B0504D4206A10B10A4B5B6897
:100DC0009847214638462562E660BDE8F840FFF7BF
:100DD0001FBF0846FFF7C8FF054618B1E66826F4AE
:100DE0000076E6E70020F8BDA8060020034610B50F
:100DF00028209847044618B1282200210EF041FD12
:100E0000204610BD2DE9F04F0C4680468DB008B944
:100E100000255DE00029FBD0057B102D00F00E8140
:100E200018DC6B1E072BF3D8072BF1D801A252F860
:100E300023F000BFBF0E0100D90E0100110E01000A
:100E4000A90E0100110E0100110E0100110E01008A
:100E5000E90E0100402D00F02081802D00F0D980A6
:100E6000202DD5D1866801212046FFF751FE0028AC
:100E7000CED05B232C274FF000080370A36801330A
:100E8000A360E3680133E360002E40F0DD800221BF
:100E90002046FFF73DFE0028BAD05D234670037060
:100EA000E368013BE36008E005212046FFF730FEE0
:100EB0000028ADD092490EF003FF012508E006217D
:100EC0002046FFF725FE0028A2D08E490EF0F8FE3E
:100ED00028460DB0BDE8F08F05212046FFF718FE2B
:100EE000002895D08849E6E70021D0E90667162258
:100EF00006A805910EF0C5FC002200233046CDE97E
:100F00000223394632463B460EF0D4FA90B927F018
:100F1000004B4FF0FF32304659467C4BB2460EF044
:100F2000C9FAF0B94FF0FF3230465946774B0EF010
:100F3000A3FAB0B9724905A80EF0C2FE04252046F6
:100F4000691CFFF7E5FD00283FF462AF034605A9E1
:100F50004619B34257D100234355A0682844A060E6
:100F6000ABE7D8F8145028460EF0B2F902460B460B
:100F7000304639460EF06CFA48B12A46644905A855
:100F80000EF0F6FD0546192D3FF642AFD7E7324683
:100F90003B46604905A80EF0EBFD5F49054602AAF5
:100FA00005A80EF005FE012826D1DDE9028929F009
:100FB0000043CDF8008001935046DDE900235946F7
:100FC0000EF050FA08B9CDE900AB32463B46404638
:100FD00049460EF02FF800228046504B21F0004980
:100FE000DDE9000112F082F802460B464046494610
:100FF0000EF042FA0028C6D132463B46484905A8C1
:101000000EF0B6FDBEE711F8012B013303F8012CF9
:101010009FE7006900283FF4FBAE0EF06AFE421C19
:10102000114620460092FFF773FD00283FF4F0AE12
:10103000009AD8F810100EF017FC3EE700690DB0CA
:10104000BDE8F04FFFF7F8BD21463046FFF7DAFE66
:1010500000283FF4DDAE2046FFF74EFD3368BBB1FC
:1010600063692046002B14BF4FF002094FF00109BD
:1010700009F10101FFF74CFD00283FF4C9AE0770EC
:1010800063693BB9431C83F80080A3684B44A360A9
:101090003668F9E6831C4570F5E74B698568002BD7
:1010A00014BF022601262046711CFFF731FD0028DF
:1010B0003FF4AEAE7B230370E26863690132E26005
:1010C0000BB10A234370A3683A2733440926A3606F
:1010D00063693DBB002B00F08580E168013120464B
:1010E000FFF716FD00283FF493AE6369002B40F034
:1010F000838003467D221A7000225A70D0E600BF1A
:10110000F1380200F6380200FC380200FFFFEF7FE2
:1011100001390200043902000B3902000000B03C22
:101120000F39020073B12046E168FFF7F1FC002897
:101130003FF46EAE0246E168131A99424FD8A36895
:101140000B44A3602146286AFFF776FD00283FF490
:101150005FAE2046FFF7D0FC63692046002B14BF2A
:101160004FF002084FF001084146FFF7D1FC00287C
:101170003FF44EAE0770636903B14670A368214621
:1011800043442846A360FFF73DFE00283FF440AEED
:101190002046FFF7B1FC2B686269B3F1000818BF65
:1011A0004FF00108002A18BF08F10108204608F195
:1011B0000101FFF7ADFC00283FF42AAE2B6813B104
:1011C0002C2300F8013B636913B10A2300F8013BAB
:1011D00000230370A3682D684344A36078E702F8F6
:1011E000016BA8E702217AE703F8015BE268191AAC
:1011F000013A8A42F8D87DE703460925F6E700BFA1
:1012000070B504460F4D04B970BDE3682668D90572
:1012100003D4A06868B9206988B9E3689B0503D442
:10122000206A08B16B68984720466B689847344637
:10123000E9E7FFF7E5FFE368DA05ECD5EDE76B6872
:101240009847EAE7A80600202DE9F04706460C4635
:1012500092B009B9002023E00F68002FFAD08D6802
:10126000D1F8048005F10409C1450BD80422924944
:1012700078190EF046FD28B90423F360C4F80890ED
:1012800001200DE005F1050AD0450CD305228B495C
:1012900078190EF036FD30B90120F060C4F808A0CE
:1012A00012B0BDE8F087C1450CD8042284497819F2
:1012B0000EF027FD30B902230120F3607061C4F8FD
:1012C0000890EDE74545C5D27B5D7819222B06D104
:1012D0002146304612B0BDE8F047FFF703BB2D2B87
:1012E00003D0A3F13002092A62D8002302AA1746CC
:1012F0004FF02E0E0193A8EB050510F8011B3929BC
:1013000010D82A291BD9A1F12B0CBCF10E0F16D82D
:10131000DFE80CF00D150D3B150D0D0D0D0D0D0D30
:101320000D0D0D0001F0DF0CBCF1450F07D1117060
:1013300001333F2B02F1010201D0AB42DDD1002588
:1013400048336B44384603F8405C01A90FF01EFB9C
:10135000DDF804A059EC108BBA453FF47BAF54A3E1
:10136000D3E9002386ED060B10EE100A49460EF075
:101370008DF868B16FF0004373610823AAEB070A88
:10138000A768F3605744A7607AE782F800E0CFE7E8
:101390000022404649464B4B0EF06EF810B14FF01C
:1013A0000043E9E7404649460EF09AF87061E4E7E9
:1013B0005B2B54D1E368B3F57A7FBFF44BAF0133B5
:1013C000E3607B5D5B2B7FF445AF01352046A56074
:1013D000FFF77AFBD4E90123934264D22268D25CFE
:1013E0005D2A0DD100252F46E368013BE36007B17C
:1013F0007D602023C6E90273A3680133A3603FE741
:1014000000252F46013BA3602069FFF7EFFCA846AB
:101410000546002800F09D80FFB1C8F80000C0F824
:101420000480A36820460133A360FFF74DFB2146EB
:101430002846FFF709FF002800F08E802046FFF7BE
:1014400043FBD4E90123934280F086802268D35C79
:101450002C2BD9D05D2B7FD1C6E70746E1E77B2B4C
:101460007FF4F8AEE368B3F57A7FBFF4F3AE0133EF
:10147000E3607B5D7B2B7FF4EDAE01352046A560FC
:10148000FFF722FBD4E9012393420CD22268D25CFD
:101490007D2A19D100252F46E368013BE36007B19F
:1014A0007D604023A6E7013BA360D3E6AFF3008055
:1014B0000000C0FFFFFFDF41F1380200F6380200F4
:1014C000FC3802000000E0C100252F46A846013B81
:1014D000A3602069FFF78AFCA9460546002838D09A
:1014E000AFB3C9F80000C0F80490A36820460133E8
:1014F000A360FFF7E9FA21462846FFF7F3F958B34E
:101500002046FFF7E1FA2B69C5F810802B62D4E979
:101510000123934220D22268D25C3A2A1CD10133A3
:101520002046A360FFF7D0FA21462846FFF78CFE3D
:1015300090B12046FFF7C8FAD4E9012393420BD2B9
:101540002268D35C2C2BC4D07D2B05D1A4E70746A1
:10155000CBE7002F3FF47EAE3846FFF751FE79E629
:101560002DE9F04305464FF0000989B02E4F0C4697
:10157000164600211C2201A898460EF082F9C7E900
:101580000099002D46D0002C39D0284BCDE90154CC
:1015900093E8070008AB03E90700FFF727FC0446C0
:1015A00068B3019870B1039B5BB9029B042B06D909
:1015B00003221F490EF0A5FB08B90323039301A8DA
:1015C00000E04846FFF780FA01462046FFF73CFE60
:1015D00090B1B8F1000F04D1F6B9204609B0BDE8CA
:1015E000F08301A8FFF770FADDE90223934203D2EA
:1015F000019AD35C002BEFD02046FFF701FEDDE916
:1016000002329A420DD303B1013B0EB1EA183260A7
:10161000C7E900530024E0E7019B039A13443360B9
:10162000DBE71346F1E700BF8C1D0020A806002071
:101630001639020037B50D460446019250B10EF03E
:1016400058FB2A46411C2046019B03B0BDE83040B0
:10165000FFF786BF03B030BD00221146FFF7EABF97
:10166000F0B515468BB006460C462422002101A891
:101670001F460EF006F9002D11DB94B10123CDE9D0
:101680000537094BCDE9014593E807000AAB03E9AB
:101690000700304601A9FFF7B5FB0BB0F0BD0020F5
:1016A000FBE72046F9E700BFA80600200022FFF76D
:1016B00071BA0023FFF770BB174BD0B5186857EC11
:1016C000106BFFF793FB044670B10823C0E906676F
:1016D000C36039460EA3D3E9002330460DF0D6FE91
:1016E00020B16FF0004363612046D0BD0022304638
:1016F00039460A4B0DF0C0FE10B14FF00043F2E73F
:10170000304639460DF0ECFE6061EDE7AFF3008046
:101710000000C0FFFFFFDF41A80600200000E0C17D
:1017200037B505460191FFF7C7FF0023024604467F
:1017300001992846FFF730FB054618B92046FFF708
:101740005FFD2C46204603B030BDFFFF38B50A4B85
:1017500005461868FFF74AFB044658B11023C360DA
:101760002846FFF701FB0546206118B92046FFF720
:1017700047FD2C46204638BDA806002037B5054653
:1017800010460191FFF7E2FF00230246044601994B
:101790002846FFF701FB054618B92046FFF730FD44
:1017A0002C46204603B030BD08B5044B1868FFF73F
:1017B0001DFB08B12023C36008BD00BFA8060020A0
:1017C00008B5044B1868FFF711FB08B14023C3604C
:1017D00008BD00BFA806002037B505460191FFF7F8
:1017E000EFFF00230246044601992846FFF7D4FA8A
:1017F000054618B92046FFF703FD2C46204603B0E6
:1018000030BD2DE9F843B1F10009804603DA002428
:101810002046BDE8F8830028F9D0FFF7C5FF002671
:1018200004463746002CF2D0B94504D8A368002BF3
:10183000EED05E60ECE758F827000DF049FD41EC72
:10184000100BFFF739FF054618B92046FFF7D8FC03
:10185000DDE71FB9A0602E460137E3E73060466040
:10186000F9E720B1007BA0F10803584258417047C6
:1018700008B50246FFF7F5FF10B192ED060B08BD63
:101880009FED010BFBE700BF000000000000F87FA8
:1018900020B1007BA0F1100358425841704708B5B1
:1018A0000246FFF7F5FF00B1106908BD70B50D469F
:1018B0001646044618B918200DF0B6FF044600235A
:1018C00063614FF0FF33681CC4E90106E3607043B5
:1018D00023610DF0A9FF206020B90348BDE87040E6
:1018E0000EF026B970BD00BF1A39020038B5C568C0
:1018F00043680135B5FBF3F203FB12550369044657
:10190000AB420CD02368C068A26802FB00300DF027
:10191000ABFF0120E56063690133636138BD0020DE
:10192000FCE710B50446E268236908469A4213D0E2
:101930002368A268216902FB01310DF095FF23693C
:1019400062680133B3FBF2F1012002FB1133236122
:101950006369013B636110BD0020FCE74FF6FF7235
:1019600010B5074C0144884201D1104610BD10F853
:10197000013B5340DBB234F8133083EA1222F2E722
:101980002C3902002DE9F84F0B7806467D2B0D46C9
:10199000904600AF66D1B1F801304FF496625BBA61
:1019A00083809CB2831D184600210DF06AFF034618
:1019B0006FF00100AA1C401B81188C4231DC04F13D
:1019C000030BB8F1000F31D0AB4406F2B64306F278
:1019D000C6421BF8011B03F8011B9A42F9D1EA46E3
:1019E00004F113092A1915F8093092F814801A34F1
:1019F000E40848EA0328AAEBC4039D464A46294660
:101A00006846A6F8C6840DF02FFF68461FFA89F1D4
:101A1000FFF7A4FF804524D1D5463046BD46BDE83A
:101A2000F88F12F8011F03F8011BC5E7EA462A19CF
:101A300015F80B3092F804900A34E40849EA0329B7
:101A4000AAEBC4039D465A4629466846A6F8C694A2
:101A50000DF00AFF68461FFA8BF1FFF77FFF814503
:101A6000D9E7D5460026D8E7D0ED037A9FED1B7A5B
:101A7000F4EEC77AF1EE10FA10B504462DED028BA4
:101A800003D50020BDEC028B10BD9FED157AF4EE5E
:101A9000C77AF1EE10FAF4DC90ED000AFEF748FC8C
:101AA0009FED108AB4EEC80AF1EE10FAE9D494ED75
:101AB000010AFEF73DFCB4EEC80AF1EE10FAE0D4DC
:101AC00094ED020AFEF734FCB4EEC80AF1EE10FA07
:101AD00054BF0120002040B2D4E700BF0000A04264
:101AE0000000C8426F12833A044B0360044B43600A
:101AF000044B8360044BC360704700BF815585422F
:101B000060559543DD40A7440000C8429FED1A7A16
:101B1000C0EE077AF8FE677A67EE877AC0ED017A41
:101B200007EE901A9FED157AF8EEE76A0029C6EEE7
:101B3000877ABCBF9FED127A67EE877AC0ED007A94
:101B4000DFED107A90ED007A27EE277ADFED0E7A3E
:101B5000C7EE276AD0ED047A77EEE67A0029B8BF9F
:101B600049421429C8BFB0F84030C0ED047AC4BF60
:101B70000133A0F8403070476F12833A0000C8C3A9
:101B8000CDCC8C3F3433333F00006145D0ED017A3A
:101B900090ED020A37EEC00AC0ED027A10B580ED72
:101BA000030A0446FEF7C4FBDFED137AB4EEE70A3E
:101BB000F1EE10FA03D50023E360236110BDDFEDE1
:101BC0000F7A94ED047ADFED0E6A27EE277AD4EDD2
:101BD000037A67EEA67AC7EE276ADFED0A7AF4EE9B
:101BE000E76AF1EE10FAE6D4F7EE087AF4EEE76A67
:101BF000F1EE10FADFDCE1E70AD7233C0000614593
:101C0000000073463333333F90ED037A9FED526A01
:101C100067EE075A10B5DFED516A2DED028BD0ED5E
:101C20000C7A85EE868A07EEA68AD0ED047A27EE36
:101C3000277AC7EE065A90ED0D5AB0EE657A67EE38
:101C4000A77A05EE267A80ED067A87EE867AD0EDC1
:101C50000E5AF0EE477A45EEA67A80ED058AC0ED81
:101C6000077A9FED3F0A0446FEF76AFBF0EE408AD2
:101C70009FED3B0AFEF764FBD4ED077A28EE800A5D
:101C800000EE678A9FED360AFEF75AFBF0EE488AAF
:101C9000B0EE408A9FED320AFEF752FB38EE088A1A
:101CA00028EE008A94ED060A28EE008A88EE880A5B
:101CB00084ED0A0A20EE008A9FED290AFEF740FB18
:101CC000F0EE408A9FED260AFEF73AFB28EE800AE6
:101CD000F7EE008AC8EE807A37EE880AFEF730FB0E
:101CE000D4ED0A7A30EE670ADFED1E7A84ED090A38
:101CF0009FED1D7A20EE270ADFED1C6A20EE070A11
:101D000080EE267AB4EEE77AF1EE10FA94ED0F0A3F
:101D100077FE877AC4ED087A30EE670AFEF708FB93
:101D2000B4EEE80AF1EE10FA114B13D5226AE26321
:101D300062692263A2696263E269A26301221A7086
:101D40000022BDEC028B2261002293F90000A4F86E
:101D5000402010BD0022F2E78FC2F53A77BE7F3FE8
:101D600066CF8B3A0000C842000061450000734610
:101D7000941D0020D0ED0F7AF8FE677AFCEEE77A2A
:101D800017EE900A70470169B0F91830D1ED007A6A
:101D9000F4EE407AF1EE10FA01EB830237FE800A8E
:101DA00052ED017AF4EE407AF1EE10FA4FF00002B3
:101DB00048BFB0EE670A30B595B29D424FEA850440
:101DC00009DA0D19D5ED007AF4EEC07AF1EE10FAC9
:101DD00002F10102F0DBC368234493ED000A30BD39
:101DE000C16830B5D1ED007AF4EE407AF1EE10FA28
:101DF000B0F9184037FE800A01EB840353ED017AF5
:101E0000F4EE407AF1EE10FA4FF0000248BFB0EE67
:101E1000670A93B2A34202DBDFED0F7A19E09D005F
:101E200001EB8303D3ED007AF4EEC07AF1EE10FA01
:101E300002F10102EDDB426903692A442B4470EE92
:101E4000677AD2ED006A93ED007A07EEA67AC7EEC4
:101E5000007AB0EE670A30BD00000000D0ED007AD5
:101E6000DFED386AF8EE677AF8B50122002387EED5
:101E7000A67A2DED028BC0E90E23436B324A334E16
:101E80001A60334A00245A60324A9A603368324AF0
:101E900083ED007A9FED317AD0ED036AC6EE877A42
:101EA0002F4B02F120071B68C3ED007A5C609C6039
:101EB0002C4B1B68154603CDBD42186059602A465D
:101EC00003F10803F6D1B7EE008A2868264F1860A0
:101ED0003D6820220021281D0DF0D3FC85ED008AED
:101EE0009FED220AFEF760FA85ED040A204D3B685B
:101EF0002F6883ED088A14220021381D0DF0C1FCE3
:101F00001C4B9FED1A0A3B60FEF74EFA38EE400A72
:101F1000BDEC028B2B68184A83ED020A174B1B6835
:101F20001C605C609A60164B164A1B681C605A6005
:101F3000154B1B681C605C6033681A68134B1B6888
:101F40001A60F8BD00007A465839B43CA41D002040
:101F5000B537F83CA8B49041D04402000000C84214
:101F6000F806002078070020D0060020607BA3BF81
:101F7000D806002060AA4FB831082CBDE00600202A
:101F8000E80600200AD723BB48070020C01D002018
:101F90002DE9F04F2DED048B032997B00446DFF8AF
:101FA0005083089100F0D484042900F0FD84D8F80F
:101FB0000030DFEDB67A93ED007AB4EEE77AF1EE19
:101FC00010FA03D54368132B40F3B384D4ED097A98
:101FD000DFEDAF6AF8EE677A87EEA67AD4ED0A7A7B
:101FE000DFEDAC6AF8EEE77AAB4BAC4F1B6803222F
:101FF00083ED007A87EEA67AA94BAA4D1B68AA4EFC
:1020000083ED007A7B689FEDA98A009398E803002E
:102010003B68FEF777FB95E80C00A54903C9FEF77E
:102020009DFB95E80C0095E803009FEDA20AFEF7E2
:1020300073FA97E803008DE8030095E80C00FEF7BB
:10204000D1F995E80C0095E80300B0EE000AFEF720
:1020500063FA95E803008DE8030095E80C0097E823
:102060000300FEF7E8F996E8030002AB83E80300FB
:1020700095E803008DE8030097E80C008E4F98E880
:102080000300FEF7D3FA97E803008DE803008B4DB9
:102090008B4B95E803008B4D0CCBFEF761FA6B6818
:1020A000072200932B6897E80300FEF72BFB96E8C6
:1020B00003008DE80300844F96E80C0097E80300C6
:1020C000FEF74EFA96E803008DE8030095E80C0051
:1020D0007E4DFEF787F92F46366806F15408F6EC78
:1020E000017A67EE887A17EE900A0DF063FB464599
:1020F000E7E80201F3D10022754B17469E46904651
:1021000094469146164605930692DEE9003AD5E9D3
:102110000010584301FB0A00A3FB011B083558447B
:1021200011EB0C0C40EB0909D5E90C1058430AFBE4
:102130000100A1FB031B5844CF1940EB0808D5E967
:102140001A105843A1FB03B30AFB010001361844DF
:10215000069B1BEB0202F6B240EB0303072E0EF1C7
:10216000080E0693D1D15B4DC5E904235A4BC5E94E
:1021700000C99B461E68C5E9027806F10C07F5E820
:1021800002010DF0C5FA07EE900AC7EE887AE6EC78
:10219000017ABE42F3D1514D07226B68424E009343
:1021A0002B689BE80300FEF7ADFA95E803008DE885
:1021B000030095E80C0096E80300FEF73CF9484B55
:1021C0009FED488A1E462D68069305F15407F5ECED
:1021D000017A67EE887A17EE900A0DF0EBFABD42AD
:1021E000E6E80201F3D148223F4940480DF03CFBAC
:1021F0000023DFF8ECC0DFF8FCE00793DEF80030E6
:10220000DFF8E8A00A93DEF804305546674600265A
:102210000C930EF1080E26E0D8F804300B9A0999B9
:102220005343D8F8002009F1010901FB0233194694
:102230000B9B08F13808A2FB03230D930D9B194457
:102240000368D218436840F8082B41EB0303B9F147
:10225000030F40F8043CDFD10336092E07F138079D
:1022600005F118054AD0D7E900130A9AE04653430E
:102270000C9A284602FB01330A9A4FF00009A1FB91
:1022800002210B920A461A440992C5E768916D3CF7
:1022900000007A460000C8C3A41D002000070020EB
:1022A000A01D00200807002068070020A5D468535F
:1022B00078070020F085493C30070020D806002030
:1022C0004807002020070020D0060020681E0020BC
:1022D00040450200E01D002050070020700700204C
:1022E000101F002020BCBE4CF8440200B81F002084
:1022F000F806002098440200EC78AD60079B0CF1D2
:10230000080C0133072B07937FF478AF1FED068A83
:10231000D84E356805F12407FAE802010DF0F8F906
:1023200007EE900AC7EE887AE5EC017AAF42F3D166
:10233000D14FD24D7B68032200933B689BE803009A
:10234000FEF7E0F995E80C0096E80300FEF706FAC0
:1023500095E80C0095E803009FEDC90AFEF7DCF84C
:1023600097E803008DE8030095E80C00FEF73AF8C3
:1023700095E80C0095E80300B0EE000AFEF7CCF8F3
:1023800095E803008DE80300BE4E95E80C0097E841
:102390000300FEF750F896E8030002AB83E8030061
:1023A00095E803008DE80300B74D9BE8030097E82C
:1023B0000C00FEF73BF92B68DFF8249393ED000A3D
:1023C000D9F800709FEDB18A87ED000AFDF7F8FF9C
:1023D00087ED010A2B684F4693ED000AFDF7A8FF31
:1023E000DFEDAB7AB4EEE70AF1EE10FA48BF002257
:1023F0009FEDA87A48BFD9F80030DFF8E89248BFCF
:102400005A60D9F800302A6883ED007AD2ED007A5C
:10241000F5EEC07ADFEDA07AF1EE10FA58BFF0EEDB
:10242000477AC3ED007A636BDFF8BCA2D3ED027A82
:1024300093ED010A20EE270A88EE000AFDF778FFE7
:10244000B1EE400ADAF800B0FDF7AEFF8BED000AFE
:10245000D9F800309FED910AD3ED007A67EE807ACB
:102460002B6867EE887A93ED000ADFED8D8A67EEC0
:10247000807A94ED100A20EE280A87EE800AFDF794
:1024800057FF884DB1EE400AD5F800B0FDF78CFF3C
:102490008BED000ADAF80010834B0A681B68B0461F
:1024A0001A612A680FAD10681862D9F800007F4BD6
:1024B000D0ED007A28EE678AD4ED107A67EEA87A1C
:1024C00088EE277A1B68B7EE008A83ED007AD1ED9B
:1024D000007A78EE677AC3ED027AD2ED007A77EE71
:1024E000C87A1C22C3ED057A00210FA80DF0C9F9A6
:1024F0004FF000093368606B4B4493ED000AFFF71F
:102500006FFC09F10409B9F11C0FA5EC010AF1D126
:102510009DED107ADDED0F7A77EE877A9DED117AD9
:1025200077EE877A9DED127A77EE877A9DED137AB2
:1025300077EE877A9DED147A77EE877A9DED157A9E
:10254000F1EE0C6A77EE877A87EEA67ADFF89CC107
:10255000636BDCF80020564E82ED007AD3ED017AF1
:10256000F1EE677AC2ED017AD3ED007AF1EE677A87
:102570003268504DC2ED007A95E803008DE8030003
:102580009CE8030098E80C00FDF7EAFF96E80300DA
:1025900097E80C002E46FDF797FF474B1A6802F1AB
:1025A0001C01A2EC010A9142FBD196E803008DE8E0
:1025B00003000CCB96E80300FDF714FF2F683F4D96
:1025C000DFED3F8AA84607F11C09F7EC017A67EEB8
:1025D000A87A17EE900A0DF0EDF8B945E8E8020187
:1025E000F3D1002001460746059B059A1B68D2F8E7
:1025F00004E008320592D5E900C25A430CFB0E22D2
:10260000A3FB0C3C013718189444FFB24CEB0101BA
:10261000072F05F10805E7D12A4BC3E900012A4B32
:102620001D680DF075F807EE900AC7EEA87AC5EDA3
:10263000007A264B1A6802F11C01286842F8040B44
:102640009142FAD1224D9FED239A95E803008DE83F
:10265000030096E803000CCBFDF7EDFE2D68DFF8D4
:102660009090AB46DFF88CA01B4E1C4F05F11C0868
:1026700042E000BF78070020000700200807002084
:10268000F085493C68070020A01D00203433333F0B
:102690006F12833ACDCC8C3F8C4A8A3FCCFF764276
:1026A00000007346981D0020D0060020D8060020A8
:1026B000E80600206007002018070020F81D002011
:1026C000286B6E4EC81D0020C01D00201007002082
:1026D000580700208096184B00005B629AE09E002D
:1026E00048070020D01D00209C1D0020E00600208F
:1026F00098440200301E0020FBEC017A67EE897AD4
:1027000017EE900A0DF056F8D9E90032424303FB68
:102710000122A0FB033CCAE900015943624400FBCB
:102720000211A3FB00309E19084440EB0707D8456F
:102730000AF1080A09F10809DED1A84B3046C3E9BD
:102740000067A74B39461B68A64F05930CF0E0FFC6
:102750009FEDA57A07EE900AC7EE877A059BC3ED39
:10276000007AA24B1E6806F15409F6EC017A67EE76
:10277000A87A17EE900A0DF01DF8B145E7E80201BE
:10278000F3D19B4EF5EC017A67EEA87A17EE900A2A
:102790000DF010F8A845E6E80201F3D1002200236D
:1027A000944D4FF0000A2846C5E90023C5E90223ED
:1027B000C5E90423D0E900890026DFF834E28E4F12
:1027C000DDF818B00830DBE900320992DEF80020AD
:1027D000D7E9001C079203FB0CFCDEF8042001364D
:1027E0000A92099AF6B201FB02CCA3FB01310A9AC4
:1027F0008C445A4307990BF1080B01FB0C2CA3FBEB
:10280000013113EB08088C444CEB0909072E07F142
:1028100008070EF1080ED6D1069B0AF1070A3833D5
:10282000BAF1150F40E902890693C3D1DFED738A2F
:10283000734E376807F10C08F5E802010CF068FFE9
:1028400007EE900AC7EEA87AE7EC017AB845F3D113
:1028500096E80300059B6B4D93ED000A95E80C008C
:1028600088EE000AFDF758FE95E80300664B674EB8
:102870001A68674B92ED000A1B68664FD3ED007A29
:1028800096E80C0030EE670AFDF746FE97E8030075
:102890008DE80300DFF8A4C196E80C009CE8030073
:1028A000FDF7A0FD3B68BFEE007AD3ED007AF4EEB1
:1028B000C87AD3ED027AF1EE10FAF4EEC77AC8BF07
:1028C00083ED008AF1EE10FA2E4639D583ED027AB7
:1028D000D3ED007AF5EEC07AF1EE10FA03D50421BB
:1028E0002046FFF755FB29684B4B08681A684B4D8B
:1028F0001060486850608968916095E803008DE831
:10290000030096E803000CCBFDF72AFE344B444E3F
:10291000196895E80C0091ED000A95E80300FDF7B1
:10292000FBFD96E803008DE8030095E80C00FDF739
:1029300082FD089B237417B0BDEC048BBDE8F08FBB
:10294000F4EEC87AF1EE10FAC8BF83ED028ABFE751
:10295000D8F80030DFED337A93ED006AB4EEE76A21
:10296000F1EE10FAE5DCD0ED0A7AB8EEE77ADFEDA9
:102970002E7ADFED2E6A27EE277AD0ED107A67EEF9
:10298000A67ADFED2B6A67EEA67AC7EE276AF7EE26
:10299000007A36EE867AB4EEE77AF1EE10FA77FE38
:1029A000877AC3ED007AC4E7D0ED007A9FED210A63
:1029B000F8EE677A406B87EE800AFFF7E4F9DFED07
:1029C0001E7A002220EE270AD8F8003084ED030A90
:1029D00020469A60FFF742FAABE700BFD81D0020FF
:1029E000D41D0020101F00206B0B5E5D70070020BF
:1029F000301E0020A81D002098440200788607643D
:102A0000F006002028070020A41D00203807002021
:102A1000C01D0020F806002080070020400700208D
:102A200078070020295C7F3F3433333F0000C843E0
:102A30000000734600007A460000C842500700209C
:102A400080ED030A7047FFFF07EE901ADFED116A71
:102A5000F8EE677A87EEA67AD0ED037AF8FE677A09
:102A600038B5FCEEE77A0025436802688362C0E966
:102A7000072380ED107AC0ED027AC0E90555426265
:102A8000C5620446FFF7EAF9012384F83050237445
:102A900038BD00BF0000C84270B5836B2DED028BBE
:102AA00001338363C36A0446462B19D1D0ED057AFE
:102AB000DFED656AB8EE677AC7EE267AFCEEE77A54
:102AC000C0ED097AD0ED067AB8EEE77AC7EE267A3D
:102AD000FDEEE77A0023C0ED0A7AC0E90533C36250
:102AE00046F2A811D4E905062368E26AA3F52F454A
:102AF000C83D8D4202F1010210D9E5690544206A02
:102B000065613044A061E262227C0025052A00F262
:102B10009380DFE802F00B562C2C44466168184481
:102B200021623144E3616061A161ECE707EE903A14
:102B30009FED460AF8EE677A606B87EE800A94EDA7
:102B4000038AFFF720F9DFED427A00EE678AB0EEE4
:102B5000480AFDF7EDFBF2EE047AB4EEE70AF1EE77
:102B600010FA04DD04212046FFF712FA01E00123E8
:102B70002374384B9FED367A1B680020D3ED007A22
:102B800067EE877AC4ED037AF8FE677AFCEEE77A9F
:102B900017EE903A642B88BF6423A36051E00523AD
:102BA000E6E7D4ED017AA563B8EEE70AFDF7C0FBCE
:102BB000DFED297AB4EEE70AF1EE10FAC4BF012383
:102BC0002374D4ED017AB8EEE70AFDF7B1FB9FED6F
:102BD000238AB4EEC80AF1EE10FAD4ED017A48BFA8
:102BE000E36BB8EEE70A44BF0133E363FDF7A0FBF4
:102BF000B4EEC80AF1EE10FA14DD0023E363A36B10
:102C0000452BB6D92268164B9A4213D96368013B0B
:102C1000B3F5957F0ED803212046FFF7B9F90023BD
:102C2000A363A6E744F25063E26B9A42E7D1002324
:102C3000E36397E70221EFE72046FFF70FF9012052
:102C40002574BDEC028B70BD00008C4200007A46FA
:102C50000000C842F806002000005C4200007042FC
:102C6000C40301003B4B00F10C0218603A4B1A60A0
:102C70003A4B00F130021A60394B00F184021A60BD
:102C8000384B00F190021A60374B00F1B4021A6021
:102C9000364B00F1CC021A60354B00F1D8021A60B5
:102CA000344B00F1E0021A60334B00F59A721A605F
:102CB000324B00F59E721A60314B00F5AC721A600F
:102CC000304B00F5BA721A602F4B00F5C0721A60D3
:102CD0002E4B00F5C6721A602D4B00F5C8721A60B3
:102CE0002C4B00F5CA721A602B4B00F5CC721A609F
:102CF0002A4B00F5CE721A60294B00F5D0721A608B
:102D0000284B00F5D2721A60274B00F5D4721A6076
:102D1000264B00F5E6721A60254B00F5F8721A6032
:102D2000244B00F5FE721A60234B00F523721A60E3
:102D3000224B00F52A721A60214B00F534721A609A
:102D4000204B00F537721A601F4B00F53A7018607F
:102D5000704700BFF80600207807002068070020B1
:102D600050070020D0060020D8060020E0060020F2
:102D7000E8060020700700204807002060070020B8
:102D800058070020F006002028070020D01D002052
:102D9000C01D0020D41D00209C1D0020981D002077
:102DA000A41D0020A01D002000070020080700200F
:102DB00030070020200700201807002010070020FF
:102DC00038070020800700204007002090ED030A0C
:102DD0007047806A7047FFFF37B5019054200D4659
:102DE0000CF022FD044680B195F900300146722BAB
:102DF0000CBF01234FF48173019A054805F0A4F834
:102E000018B120460CF018FD0024204603B030BD58
:102E1000FC3300202DE9F04F05460E4690464FF05A
:102E20000009DFF878A01C4FDFF874B089B0C14505
:102E300003DB002009B0BDE8F08F51463046FFF7B4
:102E4000CBFF044610232A460146384603F064FFB0
:102E50002146384604F03CFF20460CF0EDFC594674
:102E60003046FFF7B9FF044610236A46014638464C
:102E700004F02EF92146384604F02AFF20460CF0D3
:102E8000DBFC694628460CF011FF10B109F101097D
:102E9000CDE70120CEE700BFFC33002078450200DB
:102EA000D047020010B590F92C3004464BB90522EA
:102EB00005493030FFF7AEFF10B9012384F82C30FC
:102EC00010BD0020FCE700BF7A45020013B513498E
:102ED00004461348FFF780FF014670B9114804F01B
:102EE000F7FE2046FEF700FE204605220C49FFF7BC
:102EF00091FF44B2204602B010BD2246102301903B
:102F0000084804F0E5F8019944B2064804F0E0FEF0
:102F1000019908460CF090FCECE700BFD047020096
:102F20007A450200FC33002038B50B490546FFF70F
:102F300053FF04460146094854B104F0C9FE204637
:102F40000CF07AFC2946054805F008F8012038BD48
:102F500004F0BEFE2046FAE7D0470200FC33002012
:102F600008B50448FFF7E0FFBDE808400248FFF756
:102F7000DBBF00BF8A4502009345020081607047B5
:102F800064224FF47A51C0E91022094A0023C0E9B3
:102F9000071244F26821074A80F858304262064A14
:102FA000C363C0E90B124DF2D862038742637047D6
:102FB000005C26053200FCFFB8050100D0F8603542
:102FC00013B15B1AC0F86035D0F868351BB900231F
:102FD00080F870357047591AC0F868150029F6D086
:102FE000704710B590F8A830044680F8A93006F074
:102FF000E9FB84F8A80010BD90F8A8007047B0F86D
:10300000A800431E58425841704710B50446C06D91
:1030100005F019FCE36D1B69E36410BD10B50446AF
:10302000C06D05F021FCE36D5B69236710BDC06DC9
:1030300005F02BBCC06D05F039BC10B50446C06D61
:1030400005F045FCE36D5B7F236510BDC06D05F0A9
:103050004FBCC06D05F072BC012240F20121014855
:1030600009F0D0BD04430020C06D05F0CABDFFFFCC
:1030700038B51048104C114DFFF714FF104800F000
:1030800005FA2968204604F023FE28680D4D0CF04F
:10309000D3FB2968204604F01BFE28680A4D0CF07B
:1030A000CBFB2046296804F013FE2868BDE83840B1
:1030B0000CF0C2BB98350020FC330020AC2C002063
:1030C0000C200020B02C0020B42C002010B50446A9
:1030D000C06D05F05BFB00236365A36410BDFFF7C3
:1030E000F5BF10B5046EA3682046984701232370EE
:1030F00010BD10B5046E6368204698470023237006
:1031000010BD10B5846E6368204698470023237075
:1031100010BD10B5846EA368204698470123237024
:1031200010BDC06D05F040BBC06D05F07FBBFFFF5B
:1031300090F8583030B5012B26D0C36D1B681B6842
:10314000596803F1C0050A465C680C33A14238BFD8
:103150002146A24228BF22469D42F5D141F2680392
:10316000994212D9036F042B16DD1B490B780A2BE9
:1031700089BF836C013343F40033836498BF0B70C1
:1031800040F6B7339A421BD830BD0021836C23F43C
:1031900000338364104B197040F6B7339A420FD84E
:1031A000036F0433F0DA0D4A13780A2B89BF836C5E
:1031B000013343F48023836488BF00231370E3E763
:1031C00040F6B8339A42DFD00022044B1A70836C69
:1031D00023F480238364D7E7062000200720002003
:1031E00038B504460025D4F88820EBB29A4205F1A0
:1031F000010500D838BDD4F88C2052F8230005F022
:1032000006F8F0E7C06F04F0E7BFD0F8800004F0E4
:10321000E3BFC06D05F0C0BB13B50446C36D01AA82
:103220001B681979186805F091FA0199E06D05F0AD
:10323000B9FF02B010BDC06D05F09CBF4B1E70B54C
:1032400004460D46112B3CD8DFE803F009160D2586
:103250002B351B0D0D0D0D0D0D2238281616FFF701
:1032600058FF00236365D4F8783584F8585043B389
:103270002046BDE870401847FFF743FF0023A367CF
:10328000F1E7FFF7D8FF0F4A136801331360EAE74D
:10329000FFF73FFFE7E7FFF72CFFE4E7FFF721FF2A
:1032A000E1E70026FFF735FF204684F88460FFF74A
:1032B000C2FFE663D7E7FFF7D7FED4E7FFF7D8FEF4
:1032C000D1E770BD00200020D0F8A400FFF756BE63
:1032D000D0F8A400D0F81038184710B50446FFF70E
:1032E000F3FF2046BDE81040FFF7F2BF10B590F89D
:1032F0008430044663B990F85830DA1E012A01D9A7
:10330000102B10D10E212046BDE81040FFF796BFCC
:10331000012B09D190F858300E2B01D11221F2E780
:10332000002380F8843010BD022B05D190F858306E
:103330000E2BF8D11121E7E7032B06D190F8583076
:103340000E2BEBD0102BEED1E8E7042BEBD00521B0
:10335000FFF774FF0023204684F884301621BDE86F
:103360001040FFF7BABFFFFF30B585B001A90C468A
:10337000D0F88C301A1F0C3352F8045F6D899A42D2
:1033800021F8025BF8D1C36F01215B89ADF80C30E5
:10339000D0F880305B89ADF80E30BDF904301A46A4
:1033A00034F9110001318342A8BF03468242B8BFFD
:1033B00002460629F4D15A2A02DC13F10A0F0CDA6C
:1033C0000C4A1388022B8BBF012000200A4B0133CB
:1033D0008CBF1870138005B030BD0749087818B14C
:1033E000502AF8DC002BF6DB0020024B0870188016
:1033F000F1E700BF042000200820002010B504469B
:10340000FFF7B2FFE26DA36C92F8221059B923F0D6
:10341000FF0392F8232042B923F47F4340B923F4F9
:103420008033A36410BD0B43F3E743EA0223F5E7BF
:1034300043F48033F5E7FFFF37B5019054200D4684
:103440000CF0F2F9044680B195F900300146722B78
:103450000CBF01234FF48173019A054804F074FDF9
:1034600018B120460CF0E8F90024204603B030BD26
:10347000FC33002000234FF07E52C0E90033C0E946
:1034800003338260436103837047FFFF70B52F49A8
:10349000C0B005462E4804F061FD2E492B48FFF7C9
:1034A000CBFF0646FEF78CF9044628B95A212A4B71
:1034B0002A4A2B480BF047FC28680BF009FF41EC27
:1034C000100B20462749FEF72BF9E8680BF0F0FEB9
:1034D00041EC100B20462449FEF722F928690BF035
:1034E000E7FE41EC100B20462049FEF719F9A88AA7
:1034F0000BF0DEFE41EC100B20461D49FEF710F9E3
:10350000E88A0BF0D5FE41EC100B20461949FEF776
:1035100007F9694600234FF480722046FEF7A0F8B1
:1035200068460CF0E6FB6A4603463146084803F05D
:10353000F3FB3146064804F0CBFB30460CF07CF937
:103540002046FDF75DFE40B070BD00BFA4450200FF
:10355000FC33002078450200B04502002B460200F3
:10356000BD450200EC450200F0450200F8450200AE
:10357000014602000C4602004FF07E52036870B50F
:10358000CB1A002B04460E46436082601BDA0269A8
:10359000C18AD31A632B036103D94B1CC382002356
:1035A0000361E38AA58A1D44238BC5F34E05AB4214
:1035B00007D0E3690BB1206A984720462583FFF7BF
:1035C00065FF266070BDECD0C168828A0B44632B16
:1035D000C36081BF531C83820023C360E1E7FFFF08
:1035E0002DE9F04F50490446ADF2044D4F48FFF726
:1035F00023FF064670B900230A222046C4E903339C
:1036000023606361228363600DF2044DBDE8F04FD7
:10361000FFF73CBF4FF48062002168460CF031F99F
:103620004FF480636A463146414803F051FD6846D5
:10363000FEF712F8054638B931463D4804F048FB1C
:1036400030460CF0F9F8D6E73A49FEF72FF88346F2
:1036500028B98621374B384A38480BF074FB284686
:103660003749FEF723F8824618B98821344B324A8D
:10367000F2E728463349FEF719F8814618B98A213E
:10368000304B2D4AE8E728462F49FEF70FF88046D1
:1036900018B98C212C4B284ADEE728462B49FEF727
:1036A00005F8074618B98E21284B234AD4E7584617
:1036B000FEF7DEF851EC100B0BF012FF20605046C5
:1036C000FEF7D6F851EC100B0BF032FFE0604846E5
:1036D000FEF7CEF851EC100B0BF02AFF20614046AC
:1036E000FEF7C6F851EC100B0BF022FFA082384613
:1036F000FEF7BEF851EC100B0BF01AFFA38A80B254
:10370000E0821844C0F34E0031462083084804F09C
:10371000DFFA30460CF090F82846FDF771FD0DF207
:10372000044DBDE8F08F00BFD0470200A445020061
:10373000FC330020EC45020018460200BD450200A3
:10374000F0450200F8450200014602000C46020066
:10375000024B1B6803B11847704700BF30200020A0
:1037600010B5054C4FF48072002104F10C000CF0F0
:1037700088F80023A36010BD3020002008B50D207C
:10378000FFF7E6FFBDE808400A20FFF7E1BF38B5C4
:10379000451E15F9014F04B938BD0A2C02D1FFF7B7
:1037A000EDFFF6E7082C204605D1FFF7D1FF2020DA
:1037B000FFF7CEFF2046FFF7CBFFEAE708B5026828
:1037C000064B1A6042685A60FFF7CAFF0448FFF7C9
:1037D000DEFFBDE808400348FFF7D9BF30200020D6
:1037E0003E4602008807002001600021C0E9042352
:1037F000416000F25C4000F07EB8FFFF38B504463F
:10380000164B92B91A7801321A701B78022B0ED11E
:1038100004F1180504F57674012228461146F035A6
:1038200000F05FFEA542F7D138BD0022ECE7042B83
:10383000FAD1012204F19000114600F052FE01225B
:1038400004F5C070114600F04CFE012204F51C7016
:103850001146BDE8384000F044BE00BF3C210020C6
:1038600037B504460D460A4600F58660012100F092
:1038700083FD2946019004F5727000F063FB294630
:1038800004F5587000F04CF929462046019A03B01F
:10389000BDE83040FFF7B2BF2DE9F341054600F522
:1038A000727005F118060F46344600F03FFD05F52D
:1038B000587820463946783400F02EFE4445F8D139
:1038C000BC000B3CA4B205F57675032F8CBF2146D6
:1038D00000213046019100F024FE06F178000199A4
:1038E000F03600F01EFE0134AE42A4B2EDD102B0BB
:1038F000BDE8F081704700B9FEE70023C0E902335C
:1039000003604360704770B5054600240288944206
:1039100011D2A3185E10C3F34F006B6833F8363032
:103920008B4211D003D92EB1421E92B2EFE7431C55
:103930009CB2ECE7B44208D14FF6FF706B6833F8E5
:1039400034308B4208BF204670BD4FF6FF70FBE756
:10395000054A00F11403343043F8042B834202F18A
:103960000102F9D1704700BF0C08002010B510B15A
:103970000A78072A00D9FEE7002380F834200431B2
:1039800038309A4200DC10BD51F8044B013340F846
:10399000044BF6E72DE9F84F4FF00009044688463E
:1039A00007464D464FF6FF7AC37843F08003C37055
:1039B00094F834304B4501DCBDE8F88F4046398F30
:1039C00097F83A6097F83BB0FFF79DFF504504D158
:1039D0002046BDE8F84FFFF7BBBFB8F80030834280
:1039E000F6D9D8F8043003EBC0008378B342EFD99E
:1039F000436806EB460613EB8606E9D000200F4B22
:103A00001A686B1D04EB8303834507DCE37809F137
:103A100001096FF3C713E3700437C9E7F188013573
:103A20008142C8BF3168EDB2C6BF091819601A607B
:103A3000082D03F10403CBD80130E5E7140800207A
:103A400038B51546044638B1FFF790FF29462046A1
:103A5000BDE83840FFF79EBF38BDFFFF38B5802373
:103A600080F82030082380F82830094B04461B6872
:103A7000416218300D4698470023A4F84C30637516
:103A800084F854304FF44073A565A4F8603038BD15
:103A9000080800200023A0F84C30437580F854300B
:103AA0004FF440738165A0F860307047002310B573
:103AB0009CB2A24200D810BDCC5CC4540133F7E7DD
:103AC000014B1B68184700BF08080020012310B5F0
:103AD0004FF4C0640370836964F31C03836108239B
:103AE0004FF4B0640385436864F31C034360002310
:103AF00080F83030C362B1F86440896E4375C0E924
:103B00001133C0E91332C0E9163344864163A0F88B
:103B1000403080F8423080F85430A0F8603010BD5A
:103B2000037873B5044623B9012584F8615002B0C7
:103B300070BD90F86030002BF9D0B0F84C2062B125
:103B40001144B0F84E2089B28A42A0F84C1004D239
:103B5000B249FFF79FFF0325E7E7216D628EC88B0F
:103B6000904240F0A98118B1606B4A6A1042DBD0E4
:103B7000627D82B994F85420002AD5D0103B0026EB
:103B8000052B00F29781DFE813F01F006000AF0003
:103B9000D400F00055010022217BA4F84C204909F3
:103BA0000429EBD1237C62758DF80030637C84F8A6
:103BB00060208DF80130A37C8DF80230E37C8DF815
:103BC0000330009BE365C6E7B4F84030616C84F8CD
:103BD00021301B0A84F8223094F8423084F8306097
:103BE00084F82330CA88A685042AE2851BD8C2F14E
:103BF00004039B0003F00C0343F0230384F82030FC
:103C0000096804F12400FFF751FF04F11800FFF7E1
:103C100057FF0023012584F854301123A4F84C5099
:103C200084F860301AE0212384F82030C2F307239F
:103C300084F8242084F82530C2F30743C2F30762D6
:103C400084F8263084F82720DFE7237B5B09032BE9
:103C500007D073492046FFF701FF03250023637552
:103C600063E7637BB4F840208DF80030A37B8DF8C8
:103C70000130BDF800309A4201D06A49EAE7E27BA0
:103C800094F842309A42F8D1E28D042A04D80023F5
:103C900084F860300225E1E7636C04F121001968C3
:103CA000A38D07339A420EDCD5B22A46FFF7FEFEFB
:103CB000E38DC5F10705A38594F8303043EA450349
:103CC00043F0010305E00722FFF7F0FEA28594F818
:103CD0003030012584F82030A4F84C5004F118004D
:103CE000FFF7EEFE12239BE7237B5A09012AB0D18E
:103CF00094F8302003F01003934201D04A49A9E719
:103D000083F01003E28D84F83030A38D9A42BED93F
:103D1000616CDD1D0968AA42194404F1210001DC2F
:103D2000D21AC1E70722FFF7C1FEA38D1344A38572
:103D3000CDE7B4F84030012584F821301B0A84F81F
:103D4000223094F8423084F8306084F823304023E5
:103D5000A68584F8203004F11800FFF7B1FE142383
:103D6000A4F84C5084F854605AE7227B5609022E7E
:103D70007FF46FAF637BB4F840108DF80030A37B05
:103D80008DF80130BDF8003099427FF476AFE17BC9
:103D900094F8423099427FF470AF02F00305032D8E
:103DA00016D1636CC2F38102D988C2F1040292B2C7
:103DB0009142E28504D220461C49FFF76BFE4DE795
:103DC000186804F11001FFF771FEE38DA3855EE72B
:103DD000012D21D1237C626C8DF80030637CD28868
:103DE0008DF80130A37C8DF80230E37C8DF8033030
:103DF000BDF800309A42E38501D20C492AE700233E
:103E0000A3856023A4F84C5084F8203004F11800F6
:103E1000FFF756FE152303E705491BE700000405DD
:103E200023000A06430004060000030505000405FC
:103E300010000706237B5D097FF40BAF94F8301068
:103E400003F010028A427FF459AF82F0100284F826
:103E50003020626CA18D1068E28DCE1DB242084404
:103E600003F001030EDC13B94FF00061F2E6521AC1
:103E700092B204F10D01FFF719FEE38D84F8605052
:103E8000A38507E7002BEFD10722012504F10D01DF
:103E9000FFF70CFEA38D04F118001344A38594F8DA
:103EA000303043F0600384F82030FFF709FEA4F8B7
:103EB0004C50D3E60125D1E6002A3FF459AE33E653
:103EC000002310B59CB2A24200D810BDCC5CC454F3
:103ED0000133F7E7014B1B68184700BF08080020B3
:103EE00070B50124047091F85C40856904F5B066F2
:103EF00066F31C05856108250585456804F5C064E1
:103F000064F31C0500248482C46280F8304045605C
:103F1000B1F85E5080F84240C363B1F86030C0E948
:103F20001144C0E9164445860487A0F84040A0F833
:103F30004C40A0F84E30026580F85440A0F8604034
:103F400070BDFFFF037873B5044623B9012584F8DB
:103F5000615002B070BDB0F84C3063B11944B0F894
:103F60004E3089B28B42A0F84C1004D2A949FFF719
:103F700091FD0325EBE7637D83B994F85430002B62
:103F8000E4D094F86030113B042B00F2AE80DFE8FF
:103F900013F065001401AC0083008A010023257B27
:103FA000A4F84C306D09042D11D1227C63758DF875
:103FB0000020627C84F860308DF80120A27C8DF8AE
:103FC0000220E27C8DF80320009AE265D1E794F8A4
:103FD0006030002BD5D16B1E012B04D98E492046B1
:103FE000FFF73CFDC5E7637BE06B8DF80030A37BFA
:103FF0008DF80130BDF80010E37BA4F8401084F880
:104000004230FFF780FC4FF6FF739842208712D0B2
:10401000E26B138883420ED9526894F8423002EB67
:10402000C00082789A4206D9426803EB43039E009F
:1040300012EB830303D1002378496364CFE7636401
:10404000012D197923D1890701D47549C7E79B68E8
:10405000DBB99359A364112384F8603094F8543089
:10406000002B4FD0636C9B685B68984703283AD15C
:10407000002504F1180084F85450A4F84C50FFF7C0
:1040800029FF84F8605002256EE01B68E2E7CB0749
:10409000DBD5142384F860300026637B616C84F8E0
:1040A0002130E38984F830606384CA88A685042AB5
:1040B000E28504F1180500F2DD80C2F104039B00E3
:1040C00003F00C0343F0430384F82030096804F143
:1040D0002400FFF7F5FE2846FFF7FCFEE38D84F889
:1040E0006060A385CFE7022801D001253CE00023D2
:1040F0004C4984F85430A4F84C302046FFF7AEFC0D
:10410000032531E084F83030A385637B84F82130C7
:10411000E3896384237B03F00305032D27D1626CBD
:10412000C3F38103D288C3F104039BB2934298BFC7
:104130001A46E385A06C04F11001FFF7C1FEE38D80
:10414000A385602384F82030636C9B683BB904F13D
:104150001800FFF7BFFE002384F8603093E70125C5
:10416000A4F84C5084F8545000236375EFE6012DF9
:1041700021D1237C626C8DF80030637CD2888DF86D
:104180000130A37C8DF80230E37C8DF80330BDF85C
:1041900000309A42E38501D22349AEE76023A4F8B8
:1041A0004C5084F8203004F11800FFF793FE1223DE
:1041B00084F86030D8E71D499FE794F85430002B0D
:1041C0007FF450AF237B5A0901D0194995E794F841
:1041D000301003F01002914201D016498DE7A18DF5
:1041E000E28DA06CCD1DAA42084403F0010323DC3C
:1041F00013B94FF0006180E7521A92B204F10D0139
:10420000FFF75EFEE38DA38594F8303043F0200382
:1042100098E700BF0000040501000405110009062D
:104220000000010621000008050004051000070633
:1042300023000A0600000305002BDAD1072201251E
:1042400004F10D01FFF73CFEA38DA4F84C5013447C
:10425000A38594F8303004F1180043F0200384F86B
:104260002030FFF737FE94F8303083F0100384F8E5
:10427000303079E741232846012584F82030C2F305
:10428000072384F8242084F82530C2F30743C2F3BF
:10429000076284F8263084F82720FFF71BFE1523D9
:1042A000A4F84C5084E7237B5A09032A8DD194F853
:1042B000302003F010039A428FD1626CA38D1168F5
:1042C000E28DDE1DB242194404F1210004F118050B
:1042D0001ADCD21AD6B23246FFF7F2FDE38DC6F1F0
:1042E0000706A38594F83030284643EA460343F096
:1042F000010384F82030FFF7EDFD94F8303083F0AF
:10430000100384F8303026E70722FFF7D9FD28464E
:104310000125A38D1344A38594F8303084F8203010
:10432000FFF7D8FDA4F84C509DE700BF037E01F0D5
:104330007F0161F306030376037961F306030371DA
:10434000704703460A46D1E9010183E803000321CF
:10435000198291899982D189D982B2F8581019832A
:1043600092F85A209A760022DA6183F820205A6265
:1043700083F828207047FFFF13B590F90310044617
:104380000029C37855DB818B0A4492B2914238BF31
:10439000828313F0400335D0828B838A9A4246D3BE
:1043A000C38B028B01339BB29A42C38311D2012289
:1043B00090F82030817E1344DBB2994280F820309F
:1043C0003CBF002380F8203090F82030C2839A4010
:1043D0004262E38B20462372C3F30723637294F88F
:1043E0002030A372144B1B68984700230120A3833D
:1043F000A38BE28A93428CBF0023012384F82830E8
:1044000002B010BD407C0028F2D0227AA17A8DF84B
:104410000020627A84F820108DF80120BDF8002079
:10442000A383E28301228A4062626374E0E7002092
:10443000DEE70020E4E700BF0808002010B50446CE
:1044400094F873300830022B09D1636F98470A4BF8
:1044500020461B689847002384F8723010BD04F191
:10446000100304F1300253F8041F0978934200F856
:10447000011BF8D1EBE700BF080800202DE9F0414F
:104480000446069D0E4611461A469DF81C80089F5C
:10449000FFF7D6FA2B892968AA89A4F864306B89BA
:1044A000E165A4F86630A4F86820A87BB8F1020F93
:1044B00084F86A002869216084F871304FF008019F
:1044C0004FF00103E0662182A66584F8702084F82D
:1044D000723084F87380676701D107B9FEE7BDE8E1
:1044E000F08190F90330002B15DB4FF6FF71B0F827
:1044F00064308B4204D190F8723063B1FFF79EBFF5
:104500004AB1826DD18B994203D1C16E526A114278
:10451000F4D1002BEFD07047037861F306030370EA
:104520007047A0F8641070470123016003711846BA
:104530007047FFFF012810B516D1144CE3681868C6
:1045400008F08EFD08B1002010BDE368186808F07F
:104550008DFD0028F7D1E3680D49186808F024FDA7
:10456000B0FA80F04009EFE70028ECD1074CE3688F
:10457000186808F075FD0028E5D1E368186808F0B0
:1045800075FD0028DFD1E3685968E6E7B40A00202A
:1045900040460200036810B59A6818681469012241
:1045A000A047B0FA80F0400910BD08B503689A68CA
:1045B0001868D2689047012008BD2DE9F0470546EC
:1045C0000F46904699466424D0F800A02846FFF78D
:1045D000ECFFDAF8083042469E6839464B46DAF876
:1045E0000000B0470646012005F047FA013C11D013
:1045F000002EEBD164242B79032B06D04FF47A7173
:1046000001200AF0A7FB013CF5D12879013818BF39
:10461000012002E0002EEDD02046BDE8F0872DE914
:10462000F04705460F46904699466424D0F800A00E
:104630002846FFF7BAFFDAF8083042465E68394686
:104640004B46DAF80000B0470646012005F015FA9F
:10465000013C11D0002EEBD164242B79022B06D023
:104660004FF47A7101200AF075FB013CF5D12879ED
:10467000013818BF012002E0002EEDD02046BDE831
:10468000F0870171704700234360037083607047B7
:1046900013B5019054200BF0C7F8044658B10146F9
:1046A0004FF48173019A054803F04EFC18B120467F
:1046B0000BF0C2F80024204602B010BDFC330020ED
:1046C0000B892DE9F04101220160838005460C46EB
:1046D00040484FF48061FDF7E9F805263E4F21463A
:1046E000286800F02CFD10B105263B4F12E0013E7A
:1046F00016F0FF0603D100263046BDE8F0813846AB
:1047000008F020FAEBE7013E16F0FF06F3D038463A
:1047100008F018FA286800F13C0100F015FD0028A7
:10472000F1D005262C4F0021204600F056FD10B197
:104730000526294F0EE0013E16F0FF06DBD0384675
:1047400008F000FAEFE7013E16F0FF06D3D0384636
:1047500008F0F8F93021204600F04CFD0028F2D096
:1047600005261D4F06E0013E16F0FF06C3D0384671
:1047700008F0E8F90C21204600F037FD0028F2D0BF
:104780000527DFF8548006E0013F17F0FF07B2D09D
:10479000404608F0D7F90021204600F038FD0646D3
:1047A0000028F1D040F65201204600F066FD0023BB
:1047B0000A48AB71FFF76CFF094B18600948FFF717
:1047C00067FF094B18600948FFF762FF084B186044
:1047D00092E700BF902800209C4400206D46020014
:1047E000AC2C00207C460200B02C00208D4602003C
:1047F000B42C0020552373B540F2013221490093B7
:104800000446214B214800F08BFC20492048FFF74B
:1048100057FF18B10023237602B070BD012306268E
:1048200023761C4D1C4CD5F8C82040F20231C2F34F
:10483000400282F00102204608F0E4F96A6B0D2183
:10484000C2F3400282F00102204608F0DBF9AA6BB5
:104850000E21C2F3400282F00102204608F0D2F994
:10486000D5F8982040F20621C2F3400282F00102FE
:10487000204608F0C7F9642005F0FFF8013ED2D1C8
:10488000CAE700BF40210020482100206C320020F0
:10489000BC2C002000080840044300202DE9F0470C
:1048A0000F4682460BF025FA84B2224D04F1080827
:1048B0001FFA88F806464246002128460AF0E1FF22
:1048C0007F232B70230A6E70AB702646002303F102
:1048D00003099E421FFA89F921DCE11C154889B2BF
:1048E000FDF73CF80D22231D05F809009BB2000AD4
:1048F000E854631D9BB2EA540A22A31D9BB2EA54FA
:1049000000230734A4B20B4A2B5598450DDC4246D0
:10491000002108480AF0B5FF4046BDE8F0871AF8C4
:104920000320013305F80920D1E712F8011BF954DF
:104930000133EAE7C82100202DE9F04F2DED028B6D
:1049400000248D4DADF23C4D0EAB28461919FCF7F5
:10495000E8FF18B10134B4F5806FF5D10A21874C16
:10496000874E276FD4E910234F4308EE103A85494C
:10497000E36DB1F818A0D3F804B0D4F8489094F8D7
:104980005880814DDFF854E2B446BCE80300F4459A
:1049900028606960664605F10805F5D1DCF800007D
:1049A00028609CF804102971784DD4F88C102E469C
:1049B000081F0C3150F804CF9CF80AC0884245F813
:1049C00004CBF7D1E16F40F6746C897A704831619D
:1049D000D4F88010897A716100261968096801F19C
:1049E000C0054C680C31644504BF0136F6B2A942DB
:1049F00040F8044BF5D1674C02AD04F1080EAC460B
:104A0000206861680834ACE8030074456546F6D157
:104A1000217920688CF8041000215F4CDFF8C0E198
:104A2000CCF800008DF815100DF1180C65462068C3
:104A30006168083403C57445AC46F7D10192FCF7B0
:104A4000BFFE05469FED4A0B5449FCF769FE5449E9
:104A50002846FCF7C1FE019A044610460AF028FCDD
:104A600041EC100B4F492046FCF75AFE18EE100A95
:104A70000AF01EFC41EC100B4B492046FCF750FE9F
:104A800058460AF015FC41EC100B48492046FCF74B
:104A900047FE38460AF01CFC41EC100B4449204606
:104AA000FCF73EFE50460AF003FC41EC100B414976
:104AB0002046FCF735FE48460AF0FAFB41EC100BA5
:104AC0003D492046FCF72CFE40460AF0F1FB41EC44
:104AD000100B3A492046FCF723FE20462A4A384963
:104AE000FCF74CFE254BDB6D93F85F3053B1102E75
:104AF00008D010212648FCF784FE324902462046A1
:104B0000FCF7D7FD06212148FCF77BFE2E49024623
:104B10002046FCF7CEFD20462C4902AAFCF72EFECB
:104B200020462B4906AAFCF729FE00234FF4007209
:104B300028492846FCF794FD27492648FFF7AEFE92
:104B400000240646244FDFF83080A3B29E4206D9E7
:104B500039194046FCF7CAFE01340028F5D1284631
:104B6000FCF74EFB0DF23C4DBDEC028BBDE8F08F27
:104B7000000000000000694090280020783A0020E2
:104B8000800000080C2000206021002070210020FF
:104B90008821002019470200C5000008CA4602000B
:104BA0009F460200A8460200AC460200B046020042
:104BB000B8460200C0460200C7460200D1460200C5
:104BC000DA460200E8460200ED460200F246020024
:104BD000FD460200A8280020A82A0020880000081E
:104BE000D5000008F8B50446B0F801305BBA9BB2B6
:104BF000DD1CA9B203441E79475DFCF7AFFE2378A4
:104C00007F2B08D146EA072686424FF0000304D1E5
:104C1000E01C6355F8BD0020FCE71846FAE7FFFFEB
:104C20002DE9F0410D4600211646044600F0F7FA42
:104C3000DFF85C801E2788F800000120FFF77AFC6F
:104C40000121204600F0DBFA30B94FF47A710120DF
:104C50000AF080F8013FF3D11E2733462A464FF46D
:104C60007861204600F0B5FB30B94FF47A7101202D
:104C70000AF070F8013FF0D10121204600F0CFFA90
:104C800088F800000020FFF755FC0120BDE8F08106
:104C9000A82C00202DE9F04198B00C460746FCF7FF
:104CA0008FFD064620460AF003FB41EC100B304610
:104CB0002749FCF735FD0023694620223046FCF7E2
:104CC000CFFC68460BF015F84FF040080546424609
:104CD000002108A80AF0D5FD7F23ACB22A46694618
:104CE0000DF123008DF820308DF821500AF0BCFD25
:104CF000E11C89B208A8FCF731FE05F1600218A991
:104D00000DEB0205221D11FA82F2030A05F83D0C93
:104D100002F8403C0D22631D11FA83F303F8402C86
:104D20000A22A31D11FA83F303F8402C0023073451
:104D300011FA84F4424604F8403C08A93846FFF7CB
:104D40006FFF3046FCF75CFA18B0BDE8F08100BF99
:104D5000CA4602002DE9F84F04461E26026800AF3D
:104D600002F14A052A460621206800F0C1FA30B94E
:104D70004FF47A71012009F0EDFF013EF2D11E26B9
:104D8000226802F144052A460021206800F0B0FAAA
:104D900030B94FF47A71012009F0DCFF013EF2D105
:104DA000AF4EB04D338801339BB20A2B33803AD1DA
:104DB0002B78002B3DD0DFF8C892B9F80080B8F10D
:104DC000000F18D04FF00008A749A848A9F80080A4
:104DD00005F0DEFA38B3A64805F01CFD41464FF455
:104DE0009662A3480AF04DFD40F2145241469E4897
:104DF0000AF047FD17E09C499C4805F0C9FA70B1DC
:104E00009B4805F007FD4FF49662414698480AF02A
:104E100038FD40F21452414693480AF032FDB9F889
:104E20000030002BCED13388B3F5FA7F04BF0023C6
:104E3000338020682A7890F84A3013F0010100F09E
:104E40000A810AB901222A70A279012A19D0022AFC
:104E500000F0FF806AB961B1012100F0E0F9854BF3
:104E600018700121206800F0CAF90028F9D0012348
:104E7000A37123680821D868FFF78CFBBD46BDE805
:104E8000F88FDA0640F1DA80DFF8EC814023424601
:104E90004FF4786100F0E8FA0023338098F800308E
:104EA000744D7D2B28702BD143466F4A08F1400189
:104EB00053F8040B8B4242F8040BF9D16E48FFF70C
:104EC00091FE0646B0BB98F80030012B40F0B1804F
:104ED0000146402269480AF0D4FCDFF8A081DFF8DF
:104EE000C891484608EB0601FCF71BFD10B10136DE
:104EF000402EF6D1402261492068FFF791FE98E0EC
:104F00001D2BDBD15E4A5F49138801339BB21380AE
:104F1000C3EB83130B4408F1010208F13D0152F881
:104F2000040B8A4243F8040BF9D111881980927856
:104F30009A70C3E7FCF790FB53498046FCF7B6FB39
:104F40008146FCF7ACFC51490AF0B0FE0646C0B9F8
:104F5000FFF7F2FC4022314648480AF092FCDFF8A5
:104F60001CA1DFF844B158460AEB0601FCF7D9FC56
:104F700010B10136402EF6D1402240492068FFF79B
:104F80004FFE4846FCF78BFC41490AF08FFE002893
:104F90004CD140463F49FCF789FB0646002845D0E6
:104FA0003D49FCF783FB48B1FCF779FC01463B48DF
:104FB0000AF086FEC8212068FFF76CFE30463849AB
:104FC000FCF774FB90B3FCF76AFCE94690B003462B
:104FD000EC46DFF8D8E0DFF8D8A003AA764603CE87
:104FE000564510605160B64602F10802F6D13068AD
:104FF00003F10C011060624653F8040B8B4242F837
:10500000040BF9D11B78137062B64023012260466D
:10501000244904F0B7FC06466420F6B204F02DFDE6
:10502000CD469EB9C8212068FFF734FE4046FCF704
:10503000E7F80121206800F0F2F82870236893F85F
:105040004A30DB073FF515AF022311E74FF4C87173
:10505000E9E700230CE7002A3FF4F6AE2970F3E6F7
:1050600018320020B82C0020042D0020C823002076
:10507000CE230020A82C0020C42C00201A320020AF
:105080005A320020052D0020054702000947020082
:105090000D4702009F460200FD460200CC3400206E
:1050A0001247020080000008902800208C000008B1
:1050B000BC00000873B5C5688DF80710C179284693
:1050C00016461C46FFF766FA18B90024204602B0BF
:1050D00070BD0023012228460DF10701FFF76DFA8C
:1050E0000028F2D0214601232846B2B2FFF797FAF2
:1050F00004462846FFF759FAE8E713B58DF806206D
:105100000422FE248DF805108DF807300DEB020106
:105110000123C0688DF80440FFF74FFA02B010BDBC
:1051200010B40446184622810022019BE160E3711D
:1051300022612275A0615DF8044BFFF7A4BA0B460B
:1051400007220021FFF7B6BF38B50D4C0D462346A8
:1051500010223A21FFF7AEFF80B1204623782B7052
:1051600063786B70A378AB70E378EB7023792B7165
:1051700063796B71A379AB71E379EB7138BD00BFD3
:105180005C3200207FB5FE2304468DF80110C17902
:10519000C06816468DF80030FFF7FCF900230222A4
:1051A0006946E068FFF709FA80B1012369461A46AB
:1051B000E068FFF734FA054640B1E068FFF7F5F91B
:1051C0009DF800303370284604B070BDE068FFF7EA
:1051D000ECF90025F7E7FFF7D5BF002914BF8023BE
:1051E000002380220021FFF788BF0B460C220021FC
:1051F000FFF783BF0B4630220021FFF77EBF002957
:1052000014BF4023002340220021FFF776BF00296E
:1052100014BF0223002302220021FFF76EBF30B526
:10522000002485B001910DF10F02214605468DF84D
:105230000F40FFF7D0FF9DF80F20019B02F0010106
:10524000994211D012F0400111D021462846FFF7B3
:10525000D6FF214601222846019BFFF74EFF012180
:1052600004462846FFF7CBFF204605B030BD01229B
:105270002846FFF742FF0446F6E770B5CBB20C466E
:10528000FF2203210546FFF738FF38B12846230ADD
:10529000FF22BDE870400421FFF72FBF70BDF8B5B5
:1052A000044680F82C10C179C06817461D46FFF7E8
:1052B00071F900230122E06804F12C01FFF77DF968
:1052C00008B90020F8BD04F11C0601231022314664
:1052D000E068FFF7A4F90028F3D0102D28BF1025AF
:1052E0000023AB42EED216F8012BFA540133F8E753
:1052F00038B5FE23044680F82C3080F82D10C17993
:10530000C0681546FFF746F900230222E06804F161
:105310002C01FFF752F908B9002038BD0123E068DD
:105320001A4604F11C01FFF77AF90028F4D0237F14
:105330002B70F2E773B5102B0D466FF02C064FF073
:105340000001044628BF10238DF8071080F82C5068
:10535000013A00F12D01361A7018834232D8591CD7
:10536000C9B2C3F11002102903F12D0388BF012235
:1053700054FA83F000210AF084FAE179E068FFF73B
:1053800009F901231122E06804F12C01FFF715F956
:105390000646E0B10835EDB2032D18D903250520E6
:1053A00004F06BFB062120460DF10702FFF7A0FF7A
:1053B00030B9013D0BD09DF807309B07EFD4304644
:1053C00002B070BD12F8010F01F8010BC4E7002014
:1053D000F6E72DE9F74F07468A469146984600269C
:1053E00000F11C0B464501D3012019E00AEB06042D
:1053F000C4F3071104F00F04A8EB0605C4F1100371
:10540000ADB29BB29D4228BF1D46102D28D000236F
:1054100038461A460191FFF742FF019918B1002062
:1054200003B0BDE8F08F11B90CB1FB793B770023D5
:1054300009EB06020F2C98BFD05C03F1010398BF63
:105440000BF804009D4204F10104F3D810235A46DE
:105450003846FFF76FFF0028E1D12E44B6B2C1E70E
:105460002B4609EB0602F3E72DE9F84F07468A467B
:1054700091469846002600F11C0B464501D30120B9
:1054800017E00AEB0605C5F3071105F00F05A8EBB9
:105490000604C5F11003A4B29BB29C4228BF1C466F
:1054A000102C19D0002338461A46FFF7F8FE10B921
:1054B0000020BDE8F88F002309EB06020F2D98BFEE
:1054C0001BF8051005F1010598BFD15401339C422A
:1054D000F4D82644B6B2D0E72346384609EB060294
:1054E000FFF7DDFE0028F4D1E2E70368013304D0C2
:1054F0004068431C5842584170470120704710B51E
:105500000B6804689C4209D040684A68904205D004
:10551000944203D0181A18BF012010BD0020FCE7E8
:1055200040F30903B3F1FF3F08BF0130C0F30900A6
:105530000430704710B5031F0439083053F8042FA6
:1055400051F8044F834282EA04021A60F6D110BD7A
:1055500008B503681B0D13F4E06306D00430FFF7B1
:10556000CEFFB0FA80F0400908BD1846FCE7836E14
:1055700010B51A6A436DD31A1944B1FBF2F302FB5A
:105580001311836D8B420BD90123426E4C0901F03C
:105590001F0103FA01F152F824300B4342F8243082
:1055A000002010BD164A11F0805F30B5154C18BFB1
:1055B0001446036883EA010525421FD043F309041A
:1055C00001341BD001EA02040F4A1A4042F09F4204
:1055D00042F4E002944211D00A0D02F4E064B4F502
:1055E000806F09D1C3F38924C1F389218C4203D38D
:1055F00052B203EB82230360002000E0012030BDA3
:1056000000FCFF7F00FC0F7000FC0F00024608B595
:105610000846FFF785FF136818441060002008BD96
:10562000036B1944C1F30903003B18BF012321F0A8
:10563000004141EAC37101637047036801330360AD
:1056400000207047836E10B51B6B044613B9C06809
:105650000AF0F2F8A36E5B6B13B9E0690AF0ECF89C
:10566000A36E9B6B13B9606E0AF0E6F8002010BDC4
:105670002DE9F04F89B00392826E0693136ADDE93B
:1056800012B45B458946DDE91486059040F29A80A4
:10569000D269A319934200F29580069B013B0793C0
:1056A0000EB930468BE0B9F1000F3CD0D9F800308C
:1056B0009B4538D1D9E9015205EB020AA24532D9FE
:1056C000A54211D8AAEB040AB24528BFB246D9F8C0
:1056D0000C10651B4046524629440AF0C5F8D044D8
:1056E0005444A6EB0A06DBE72D1BB54228BF35461E
:1056F000039B1B689B451CD1039BD3E901120A4401
:10570000944216D28C4210D3121B954228BF1546E4
:10571000DB68611A40462A4619440AF0A5F8A844F5
:105720002C44761BBCE73546E2E7091B8D4228BFB7
:105730000D46059B986E41694268B4FBF1F317462C
:10574000069A01FB1343B24216D8ABB98E4213D36B
:10575000B5FBF1FA01FB1A53A5EB030A04932246A9
:1057600043465946CDF800A0B84740BB049BD044FF
:105770005D1B54442E4493E7039A039DC2F800B086
:10578000E21A6A60079D1B1B05EB010AA244BAFBE3
:10579000F1F501FB15A1AAEB010AC1698A4594BF85
:1057A00053445B18816A8B4228BF0B4603998B6078
:1057B0000093CB685946B84700283FF471AF09B051
:1057C000BDE8F08F6FF05300F9E730B5016804468B
:1057D000082087B004AD8B6E03900295506801904D
:1057E000126800920A46DB6910461031FFF740FF4D
:1057F00030B92846211DFFF782FE003818BF01206E
:1058000007B030BD2DE9F04F93B0154609931368EA
:10581000826E0746126A0C46934205D36FF0530618
:10582000304613B0BDE8F08F69688A42F6D900218E
:105830004FF004080CAACDE901120093024643463A
:10584000CDF80C80CDE90C11FFF712FF064610B120
:1058500010F1540FE4D1CDF80C804FF000080DABDF
:105860000293CDF804806B683A46009341460423C6
:105870003846FFF7FDFE064620B110F1540FCFD198
:10588000414606E0DDE90C31C91A0029D4BF0021E8
:10589000012155F821304FF0FF36236081F00103DC
:1058A000079355F82330636012AB03EB810151F885
:1058B000183CA3600023E36002230893B04A0EABB8
:1058C00092E80300042283E803004FF0FF3004F164
:1058D000080102F04DFC0023B0464FF0FF399A4614
:1058E000CDE9053304904846FFF71AFE04228244AE
:1058F0000DF12C0B0392CDE901AB2268BB6E009237
:1059000000213A463846DB69FFF7B2FE054638B15A
:1059100015F1540F40F03A814FF00003A37522E0D7
:1059200059460422049802F023FC0B9B04901BBAF6
:1059300089EA030BBBF1000FCDF82CB03DDA4FEA3A
:10594000195A0AF4E06ABAF5A06F09D1BB6EE5688E
:105950009869B5FBF0F300FB1355B5FA85F56D09B1
:1059600005F00100A075E368002B00F019812146C5
:1059700007F13C00FFF7ECFD48B1FB6BC6F3892251
:10598000C3F389239A4240F0038146F000461D9BF1
:105990003BB1A28AC6F38923934228BF13461D9ABE
:1059A0001380002EBFF63CAFA38AC6F38926B3420C
:1059B0008CBF6FF00106002632E75846FFF7B0FDB6
:1059C000BB6E5044DB699842A6D84FEA1B5202F4E2
:1059D000E062B2F5A06F7CD10422039210AA029279
:1059E0000AF10402019222682946009238463A469A
:1059F000FFF73EFE054600288AD1109B049A934289
:105A00008AD10B98030D8BEAC37BFB6A5340FB6280
:105A1000FFF786FD059B4FF0FF32A3820E9B50449B
:105A2000A3610F9BC4E9030BE361069B0492E3753A
:105A300043464646D946984655E70122049810A9A0
:105A400002F096FB09F1010904900B98FFF768FD3D
:105A50004845236818D90121039110A9029109EB47
:105A60000A01CDE90031BA6E0021D36938463A46C1
:105A7000FFF7FEFD05460028DFD010F1540F40F07F
:105A800085804FF00003A3750B9B1A0D12F4E061A3
:105A900022D1059AC3F389239A4201D80133059391
:105AA0001C9B0B9981EA0309099B19EA030950D150
:105AB000236810AA10930AF104031193DDE91E3044
:105AC0009847051E42DA15F1540F5FD184F81690FD
:105AD00049E74FF00409B8E7B1F5806F1DD105988B
