:020000021000EC
:10000000D8B6002099EF0100E1ED010095EF010065
:1000100095EF010095EF010095EF010095EF0100CC
:1000200000000000000000000000000095EF01004B
:1000300095EF01000000000095EF010095EF010031
:100040006DE401001DE5010015E601001DE501005C
:1000500015E6010081D201008DD301005DD40100BD
:10006000F1D401004DEC010019CA010041C90100A1
:10007000B9CA0100F9CA010085D8010001E80100F0
:1000800085D8010085D801007DDD010011DD01006A
:1000900059C30100C9C3010071C40100C5C40100F6
:1000A00085D80100000000000000000000000000F2
:1000B0000000000000000000000000000000000040
:1000C0000000000000000000000000000000000030
:1000D0000000000000000000000000000000000020
:1000E0000000000000000000000000000000000010
:1000F0000000000000000000000000000000000000
:1001000000000000000000000000000000000000EF
:1001100000000000000000000000000000000000DF
:1001200000000000000000000000000000000000CF
:1001300000000000000000000000000000000000BF
:1001400000000000000000000000000000000000AF
:10015000000000000000000000000000000000009F
:10016000000000000000000000000000000000008F
:10017000000000000000000000000000000000007F
:10018000000000000000000000000000000000006F
:10019000000000000000000000000000000000005F
:1001A000000000000000000000000000000000004F
:1001B000000000000000000000000000000000003F
:1001C000FFFFFFFFFFFFFFFFFFFFFFFFFFFFFFFF3F
:1001D000FFFFFFFFFFFFFFFFFFFFFFFFFFFFFFFF2F
:1001E000FFFFFFFFFFFFFFFFFFFFFFFFFFFFFFFF1F
:1001F000FFFFFFFFFFFFFFFFFFFFFFFFFFFFFFFF0F
:1002000010B5054C237833B9044B13B1044800E012
:1002100000BF0123237010BD001B00200000000060
:10022000805C020008B5034B1BB10349034800E0A2
:1002300000BF08BD00000000041B0020805C02001D
:10024000CB780278534003704B8842785340437018
:100250000A68837883EA122383700A68C37853405C
:10026000C370CB79027953400371CB8842795340F4
:1002700043714A68837983EA122383714A68C37998
:100280005340C371CB7A027A53400372427A4B894E
:10029000534043728A68837A83EA122383728A689E
:1002A000C37A5340C372CB7B027B53400373CB8929
:1002B000427B53404373CA68837B83EA1223837370
:1002C000CA68C37B5340C3737047FFFF0449431E92
:1002D0000F3013F8012F8A5C83421A70F9D17047EE
:1002E000303902001FB50278C3788DF80020427BB8
:1002F0008DF80120827A8DF80220C2798DF80320D2
:1003000002798DF8042042788DF80520827B8DF8E3
:100310000620C27A8DF80720027A8DF808204279EB
:100320008DF8092082788DF80A20C27B8DF80B2089
:10033000027B8DF80C20427A8DF80D2082798DF8A1
:100340000E208DF80F3010236A46194600F0D8F9B8
:1003500005B05DF804FB2DE9F74F054608780C461B
:1003600000F0DDF900F0DBF900F0D9F90190207818
:1003700000F0D5F900F0D3F90090207800F0CFF923
:100380008346607800F0CBF900F0C9F900F0C7F9B6
:100390008246607800F0C3F98146A078667800F064
:1003A000BEF900F0BCF900F0BAF98046A07800F080
:1003B000B6F900F0B4F9A1780746E0784E4000F0B5
:1003C000AEF900F0ACF900F0AAF9E178019A4E40DC
:1003D000009B724053408BEA030B8AEA0B0A89EABE
:1003E0000A0988EA090887EA08077840287020780F
:1003F00000F095F900F093F900F091F90190607820
:10040000267800F08CF900F08AF900F088F9009065
:10041000607800F084F900F082F98346607800F09B
:100420007EF98246A07800F07AF900F078F900F0C1
:1004300076F98146A07800F072F9A1788046E078DC
:100440004E4000F06CF900F06AF900F068F90746D8
:10045000E07800F064F900F062F9E178019A4E402A
:10046000009B724053408BEA030B8AEA0B0A89EA2D
:100470000A0988EA090887EA08077840687020783E
:1004800000F04DF900F04BF900F049F901902078A7
:1004900000F045F900F043F900906078267800F00C
:1004A0003EF900F03CF900F03AF961788346A07813
:1004B0004E4000F034F900F032F900F030F9824695
:1004C000A07800F02CF900F02AF98146A07800F01D
:1004D00026F98046E07800F022F900F020F900F0DB
:1004E0001EF90746E07800F01AF9E178019A4E40CB
:1004F000009B724053408BEA030B8AEA0B0A89EA9D
:100500000A0988EA090887EA08077840A87020786D
:1005100000F005F900F003F900F001F982462078B7
:1005200000F0FDF88146607894F800B000F0F7F82C
:1005300000F0F5F800F0F3F80646607800F0EFF808
:1005400000F0EDF863788046A0788BEA030B00F0AA
:10055000E6F800F0E4F800F0E2F8A3788BEA030B89
:100560008AEA0B0B89EA0B0986EA090688EA06087B
:1005700080EA08005FFA80F8E07800F0D0F800F038
:10058000CEF800F0CCF80746E07800F0C8F800F0AC
:10059000C6F80646E07800F0C2F887EA08077E4011
:1005A0007040E87003B0BDE8F08F70B514460546A2
:1005B00088B000284AD000294AD0002A4AD0102307
:1005C0000A466846194600F09BF8684604F1A00107
:1005D000FFF736FE04F190066846FFF783FE684693
:1005E000FFF774FE31466846FFF72AFE694604A805
:1005F000FFF7B1FE01A905A8FFF7ADFE02A906A805
:10060000FFF7A9FE03A907A8FFF7A5FE1023684678
:1006100019460DEB0302103E00F072F8B442DBD134
:100620006846FFF75FFE6846FFF750FE21466846C2
:10063000FFF706FE10236A461946284600F060F8C8
:1006400068461022002100F068F8012008B070BD53
:100650000846FBE71046F9E7F0B50746264E8DB091
:1006600001AD0C460FCE0FC50FCE0FC596E80700A3
:1006700085E807003846002F39D0002C39D0381FC4
:100680000246214610344B780D781B0443EA05637B
:10069000CD7804312B4311F8025C8C4243EA0523E8
:1006A00042F8043FEFD10421144C8A07036916D1A4
:1006B000C3F30742A55C1A0EA25C42EA0562C3F3CB
:1006C0000725655DDBB2E35C42EA054242EA0322AC
:1006D00021F0030330336B4453F82C3C534050F863
:1006E000042F013153402C290361DED101200DB0CC
:1006F000F0BD2046FBE700BF303A02005C3A020042
:1007000038B50D46AB4211461C4604D81A460FF0C8
:10071000C7F8204638BD0024FBE70FF0CEB8C30968
:1007200003EB430303EBC30383EA4000C0B270470B
:100730002DE9FF41984613070F464FEA12151AD1CB
:1007400004460026B54203DC012004B0BDE8F08178
:1007500007EB061142466846FFF727FF6946204629
:1007600004F1100311F8012B00F8012B9842F9D184
:1007700004460136E6E70135ADB2E1E701EBD1739E
:10078000014430B50C465B10421E601A834200DC07
:1007900030BD12F9010F11F9015D15700870F4E711
:1007A0002DE9F0418CB004AA04460D4690461D4B3D
:1007B00003F11006174618685968083303C7B34297
:1007C0003A46F7D16E46184B08AF0FCB07C60D213E
:1007D00033706846FFF7D2FF4646002239464FF095
:1007E0000D0C4FF0FF0EB2FBFCF00CFB102000F1E3
:1007F00030030DEB030010F8303C16F8018BA85CB9
:10080000434403F5BD730344B3FBFEF001320344DC
:10081000102A07F8013BE6D12046FFF71DFF0CB078
:10082000BDE8F0815C3B02008000000870B5002547
:10083000013A12B29542ABB202DD2B4698B270BDBE
:10084000541B04EBD47403EB64039CB21BB231F869
:1008500013608642F2D08BBF013404F1FF3225B21F
:1008600012B2E7E7B5EEC00AF1EE10FA48BFB1EEFA
:10087000400A7047FFFFFFFF38B517A5D5E90045CF
:100880002DED048BB7EE008AF0EE408AB0EE489A68
:10089000F6EE009A28EE087AC7EE287A77EEC97A43
:1008A000F5EEC07AF1EE10FA48BFF1EE677A17EE76
:1008B000900A0EF03BFD22462B460EF003FE20B9B7
:1008C000B0EE480ABDEC048B38BD88EE880A30EEE5
:1008D000088A28EE298ADDE72D431CEBE2361A3F11
:1008E000F7EE007A20EE007A30EE270AF6EE007A74
:1008F00007EE270A7047FFFFB5EEC00AF1EE10FAC7
:1009000003D405DDB7EE000A7047BFEE000A70475A
:100910009FED010A704700BF00000000F0B585B0F0
:1009200004AC04E90300694681E80C009DF80D3031
:100930009DF80C10144611FB03F16FF040460123A3
:100940000A9D8B4201DD05B0F0BD9A1905EB8207C7
:1009500000EB820C04EB8202DCED007A92ED007A6F
:1009600077EE877A0133C7ED007ADBB2E9E7F0B5BD
:1009700085B004AC04E90300694681E80C009DF8E9
:100980000D309DF80C10144611FB03F16FF040463A
:1009900001230A9D8B4201DD05B0F0BD9A1905EBDC
:1009A000820700EB820C04EB8202DCED007A92ED10
:1009B000007A77EEC77A0133C7ED007ADBB2E9E758
:1009C0007FB504AC04E90300694681E80C009DF89A
:1009D0000D309DF80C10144611FB03F16FF04045EB
:1009E00001238B4201DD04B070BD5A1900EB820671
:1009F000366804EB820201331660DBB2F1E7FFFFD9
:100A00007FB504AC04E90300694681E80C009DF859
:100A10000C309DF80D101446994238BF19469FEDD1
:100A20000B0A01236FF040458B4201D904B070BD21
:100A30005A1900EB820604EB820296ED007AD2EDA1
:100A4000007A013307EE270ADBB2EDE70000000071
:100A50007FB504AC04E90300694681E80C009DF809
:100A60000D309DF80C10144611FB03F16FF040455A
:100A700001238B4201DD04B070BD5A1904EB8206DC
:100A800000EB8202D2ED007A67EE807A0133C6ED88
:100A9000007ADBB2EDE7FFFF2DE9F04F89B004AC3F
:100AA00084E803009DF84D609DF84C0002A98DF884
:100AB0001C0010FB06F081E80C0080009DF81580FA
:100AC0009DF80D900EF0CCFE012405466FF04047D6
:100AD000049B9DF814B0DDF808A00093A34530D323
:100AE000631E03FB06FC03FB08FE012320E0511EEE
:100AF00009FB013139440AEB810101910EEB02003F
:100B00000099384401EB8000019990ED007AD1ED15
:100B1000006A46EE877A0132D2B29045E7D20CEBFA
:100B200003023A4405EB8202C2ED007A0133DBB2E4
:100B3000994502D20134E4B2D0E7DFED097A01220F
:100B4000EBE706958DF81D6012AB08A90CCB11E9F7
:100B50000300FFF735FF09B0BDE8F04F0EF088BE87
:100B6000000000002DE9F04F87B006AC04E9030057
:100B700002A981E80C000090002301209DF8157067
:100B80009DF80DC09DF845E0129D9DF81490DDF88C
:100B90004080019281454ED3441E012204FB07FB95
:100BA000013B10E00BEB020A009E0AF1804A0AF1B9
:100BB000FF3A06EB8A0ADAF800A005EB8101013260
:100BC000C1F800A0D2B2D1189742C9B2EAD201222C
:100BD00004FB0CFA013953189445DBB20CD2012204
:100BE00004FB0EF403F1FF3A02EB0A039645DBB275
:100BF00014D20130C0B2CDE70AEB020B019E0BF11B
:100C0000804B0BF1FF3B06EB8B0BDBF800B005EBE9
:100C100083030132C3F800B0D2B2DCE7A11801F1BE
:100C20008041013908EB8101096805EB830301323A
:100C30001960D2B2D8E707B0BDE8F08F82B02DE9D5
:100C4000F34102AC04E903000746002601216FF0DE
:100C5000404E9DF804C009938C4516D301EB0E0558
:100C6000002407EB850505E0D5F8008003EB800044
:100C7000C0F80080301901345FFA84F84245C0B2F0
:100C8000F2D201310646C9B2E6E702B0BDE8F04152
:100C900002B070472DE9F04F8BB006AE86E8030036
:100CA00004A981E80C009DF814709DF81550804649
:100CB00017FB05F080000EF0D3FD044600B9FEE7F7
:100CC000089096E8030001268DF824708DF82550D1
:100CD0000AAB13E90C00FFF773FE6B1C9B00039338
:100CE000B7425AD202230026AD00D8B2874262D260
:100CF000DDE904230AA911E90300FFF761FE20469C
:100D00000BB0BDE8F04F0EF0B3BDF9EC017A4FF037
:100D1000000CDDF808B004EB810E0CF1010C5FFA59
:100D20008CF39A420EF1040E2BD8D0ED006A87EEB8
:100D3000A67AAAEC017A039B0132D2B21844294464
:100D40009642E2D8019B6B43F21802F18042013ACD
:100D50004FEA820908EB820292ED000A002204EBBE
:100D600083030132D1B28E4203F1040310D8FFF79E
:100D700079FDFFF781FDA144013689ED000AF6B245
:100D8000AEE7FBEC016A1EED017A46EEC77AC4E7D6
:100D900053ED017A07EEE70AE3E7731E05FB03F262
:100DA00004EB820A08EB820920460021012201930C
:100DB000CDF808A0C4E7012204EB830101325FFAF9
:100DC00082FC604541F8046C2944F7D801338CE774
:100DD000002210B504461046A15CA1F13003092B96
:100DE0000BD8A0F13003032A01EB030002F101024A
:100DF00018BF0001042AEFD110BDA1F14103052B5A
:100E000002D8A0F13703EEE7A1F16103052B02D868
:100E1000A0F15703E7E70020EEE7FFFF2DE9F84FC9
:100E20000A688B6880465D1CD018D35C8A46222BEA
:100E3000154440F0DD802F4600234C68B91AA142CA
:100E400080F0D680397822290ED1C3F10103381AF7
:100E5000DAF81020184490478346002800F0C88034
:100E60000446DFF898910FE05C2905D10137B91AE3
:100E70008C4240F2BD8001330137DFE72B785C2BD9
:100E800012D0013504F8013BBD42F7D30023237093
:100E900010230120C8E9033BDAF80030FB1A0133C4
:100EA000CAF80830BDE8F88F7A1B002A0DDD6B7890
:100EB000752B0AD86D2B12D8622B2BD026D82F2B4E
:100EC00029D05C2B27D0222B25D05846DAF81430B5
:100ED0009847DAF80000281ACAF808008BE06E3B41
:100EE000072BF2D801A151F823F000BF210F010018
:100EF000CB0E0100CB0E0100CB0E0100250F01002F
:100F0000CB0E0100290F01002D0F0100662BDCD153
:100F10000C2300E0082304F8013B02231D44B3E73F
:100F20000A23F8E70D23F6E70923F4E7052ACCDDC9
:100F3000A81CFFF74DFFA0F55C43B3F5806F064694
:100F4000C3D3A0F55843B3F5806F2DD2AB1DFB1A68
:100F5000052BBADDAB795C2BB7D1EB79752BB4D10E
:100F600005F10800FFF734FFA0F55C43B3F5806F8F
:100F7000ABD20C2309EA8626C0F30900304300F502
:100F800080364FF0F00C042000F1FF3E54FA8EFE44
:100F9000A645F2B224D1012814BF42EA0C0202F0A5
:100FA0007F0222700444B9E77F280AD9B0F5006FA8
:100FB0000CD3B0F5803F0ED3B0F5881F85D2062341
:100FC000DFE706234FF0000C0120DDE706234FF09A
:100FD000C00C0220D8E706234FF0E00C0320D3E733
:100FE00002F03F0262F07F010EF80119B609CFE767
:100FF000002D7FF46EAF002054E700BF00FC0F000F
:1010000010B528B1016889B1D0E901329A4202D302
:1010100010BD013282608268934203D98C5C202C1F
:10102000F7D9F5E7F4D1013B8360F1E70846EFE734
:1010300010B1806800B101B9704700680139F9E763
:1010400038B5044638B1006828B1A56828440EF0C8
:101050006CFE2844A06038BD70B50446B8B1056880
:1010600065B1436813B18268934210D900290EDB41
:10107000A2684E1C1644B34202D31544284670BDE4
:10108000236923B9B6F1804F03D3002E0FDA002570
:10109000F4E77600236A6BB1284631469847054647
:1010A000B0B9E36920689847C4E90055E6E76FF0F6
:1010B0000046EFE73046A369984705460028F0D080
:1010C000A268216801320EF0EBFBE36920689847C3
:1010D000A368C4E900561D44D0E7FFFFF8B50D46EC
:1010E0000446002834D0002931D08468FAB9194E5A
:1010F00074B3236AC3B1AB4221D005F1FF3C013B7D
:101100001CF8011F0F468A5D02F00302012A13F842
:10111000012F08BF01F12007B05C00F00300012897
:1011200008BF203297420FD02468E1E724687CB1E1
:10113000216A21B128460EF0D5FD0028F6D1236A98
:10114000002B08BF002403E00029D9D1F7E70C46A3
:101150002046F8BD2158020081B138B181420DD03E
:10116000836823B98160C1E90031012070475A6862
:10117000002AFAD011604A605960F6E700207047F3
:101180002DE9F84F0646084611B90020BDE8F88F52
:1011900036B331464FF0000A0124424F0D4611F894
:1011A000013B3BBBAD1B5544E91CFFF755FF074610
:1011B0000028EAD04FF0220B441C05F1010905F18B
:1011C000020880F800B0BAF1000F29D12A46314652
:1011D00020460EF065FB07F809B007F808A007E005
:1011E0000321FFF739FF0028CFD02F490EF084FDEF
:1011F0000120CBE7222B0BD8072B0CD9A3F1080237
:10120000D2B204FA02F23A4205D00AF1010AC5E765
:101210005C2BC3D1F9E71F2B98BF0AF1050ABDE784
:101220005C254FF0740ADFF884B0013E16F8013FE8
:101230002BB9222207F8092007F80830D8E71F2B1E
:1012400007D9222B05D05C2B03D020462370441CE9
:10125000ECE7204600F8015B32780D2A0AD8072A0D
:101260001AD9A2F10803052B16D8DFE803F00912FA
:101270000E150C10222A01D05C2A0DD16270E6E70F
:1012800062236370E3E76623FBE76E23F9E77223CB
:10129000F7E784F801A0DAE759460EF085FC601DF7
:1012A000D5E700BF370000046D3B0200703B020031
:1012B00037B5054680B10EF038FD084B421C10468C
:1012C0001B6801929847044618B12946019A0EF00E
:1012D000E7FA204603B030BD0446FAE79006002046
:1012E000F8B50D461446074600B3F9B1F2B1904285
:1012F0001CD093B1D66846F40076E3689B0504D40D
:10130000206A10B10A4B5B6898472146384625622F
:10131000E660BDE8F840FFF71FBF0846FFF7C8FFCB
:10132000054618B1E66826F40076E6E70020F8BD29
:1013300090060020034610B528209847044618B1AF
:10134000282200210EF0B9FA204610BD2DE9F04FF9
:101350000C4680468DB008B900255DE00029FBD021
:10136000057B102D00F00E8118DC6B1E072BF3D8C7
:10137000072BF1D801A252F823F000BF0714010097
:101380002114010059130100F11301005913010048
:10139000591301005913010031140100402D00F0D0
:1013A0002081802D00F0D980202DD5D186680121A3
:1013B0002046FFF751FE0028CED05B232C274FF0AC
:1013C00000080370A3680133A360E3680133E3609E
:1013D000002E40F0DD8002212046FFF73DFE002870
:1013E000BAD05D2346700370E368013BE36008E018
:1013F00005212046FFF730FE0028ADD092490EF0BF
:101400007BFC012508E006212046FFF725FE002889
:10141000A2D08E490EF070FC28460DB0BDE8F08FCA
:1014200005212046FFF718FE002895D08849E6E7F9
:101430000021D0E90667162206A805910EF03DFAB4
:10144000002200233046CDE90223394632463B468E
:101450000EF04CF890B927F0004B4FF0FF323046B9
:1014600059467C4BB2460EF041F8F0B94FF0FF32CE
:1014700030465946774B0EF01BF8B0B9724905A8B3
:101480000EF03AFC04252046691CFFF7E5FD002814
:101490003FF462AF034605A94619B34257D1002372
:1014A0004355A0682844A060ABE7D8F814502846FC
:1014B0000DF02AFF02460B46304639460DF0E4FF98
:1014C00048B12A46644905A80EF06EFB0546192D61
:1014D0003FF642AFD7E732463B46604905A80EF0DB
:1014E00063FB5F49054602AA05A80EF07DFB0128B3
:1014F00026D1DDE9028929F00043CDF8008001936F
:101500005046DDE9002359460DF0C8FF08B9CDE982
:1015100000AB32463B46404649460DF0A7FD00224F
:101520008046504B21F00049DDE9000111F0FAFD41
:1015300002460B46404649460DF0BAFF0028C6D188
:1015400032463B46484905A80EF02EFBBEE711F88F
:10155000012B013303F8012C9FE7006900283FF4B9
:10156000FBAE0EF0E2FB421C114620460092FFF754
:1015700073FD00283FF4F0AE009AD8F810100EF07A
:101580008FF93EE700690DB0BDE8F04FFFF7F8BDF9
:1015900021463046FFF7DAFE00283FF4DDAE204654
:1015A000FFF74EFD3368BBB163692046002B14BFC3
:1015B0004FF002094FF0010909F10101FFF74CFD5D
:1015C00000283FF4C9AE077063693BB9431C83F838
:1015D0000080A3684B44A3603668F9E6831C45701D
:1015E000F5E74B698568002B14BF022601262046CB
:1015F000711CFFF731FD00283FF4AEAE7B23037072
:10160000E26863690132E2600BB10A234370A368A8
:101610003A2733440926A36063693DBB002B00F0E1
:101620008580E16801312046FFF716FD00283FF470
:1016300093AE6369002B40F0838003467D221A70CD
:1016400000225A70D0E600BF763B02007B3B0200CE
:10165000813B0200FFFFEF7F863B0200893B0200D7
:10166000903B02000000B03C943B020073B1204666
:10167000E168FFF7F1FC00283FF46EAE0246E16836
:10168000131A99424FD8A3680B44A3602146286AD5
:10169000FFF776FD00283FF45FAE2046FFF7D0FC51
:1016A00063692046002B14BF4FF002084FF0010879
:1016B0004146FFF7D1FC00283FF44EAE0770636946
:1016C00003B14670A368214643442846A360FFF750
:1016D0003DFE00283FF440AE2046FFF7B1FC2B68EA
:1016E0006269B3F1000818BF4FF00108002A18BF63
:1016F00008F10108204608F10101FFF7ADFC0028C0
:101700003FF42AAE2B6813B12C2300F8013B636928
:1017100013B10A2300F8013B00230370A3682D686E
:101720004344A36078E702F8016BA8E702217AE757
:1017300003F8015BE268191A013A8A42F8D87DE79A
:1017400003460925F6E700BF70B504460F4D04B9FE
:1017500070BDE3682668D90503D4A06868B920691C
:1017600088B9E3689B0503D4206A08B16B68984781
:1017700020466B6898473446E9E7FFF7E5FFE368E2
:10178000DA05ECD5EDE76B689847EAE790060020AC
:101790002DE9F04706460C4692B009B9002023E037
:1017A0000F68002FFAD08D68D1F8048005F1040984
:1017B000C1450BD80422924978190EF0BEFA28B917
:1017C0000423F360C4F8089001200DE005F1050A38
:1017D000D0450CD305228B4978190EF0AEFA30B9FA
:1017E0000120F060C4F808A012B0BDE8F087C14540
:1017F0000CD80422844978190EF09FFA30B90223DC
:101800000120F3607061C4F80890EDE74545C5D24A
:101810007B5D7819222B06D12146304612B0BDE8F7
:10182000F047FFF7FBBA2D2B03D0A3F13002092AB2
:1018300062D8002302AA17464FF02E0E0193A8EBA0
:10184000050510F8011B392910D82A291BD9A1F147
:101850002B0CBCF10E0F16D8DFE80CF00D150D3B6C
:10186000150D0D0D0D0D0D0D0D0D0D0001F0DF0C05
:10187000BCF1450F07D1117001333F2B02F101027A
:1018800001D0AB42DDD1002548336B44384603F824
:10189000405C01A90FF096F8DDF804A059EC108B1C
:1018A000BA453FF47BAF54A3D3E9002386ED060B82
:1018B00010EE100A49460DF005FE68B16FF00043C6
:1018C00073610823AAEB070AA768F3605744A7606F
:1018D0007AE782F800E0CFE70022404649464B4BCA
:1018E0000DF0E6FD10B14FF00043E9E740464946F0
:1018F0000DF012FE7061E4E75B2B54D1E368B3F5A1
:101900007A7FBFF44BAF0133E3607B5D5B2B7FF4E9
:1019100045AF01352046A560FFF772FBD4E90123EE
:10192000934264D22268D25C5D2A0DD100252F46F5
:10193000E368013BE36007B17D602023C6E90273E1
:10194000A3680133A3603FE700252F46013BA36056
:101950002069FFF7EFFCA8460546002800F09D80AF
:10196000FFB1C8F80000C0F80480A3682046013326
:10197000A360FFF745FB21462846FFF709FF002833
:1019800000F08E802046FFF73BFBD4E90123934211
:1019900080F086802268D35C2C2BD9D05D2B7FD140
:1019A000C6E70746E1E77B2B7FF4F8AEE368B3F5C3
:1019B0007A7FBFF4F3AE0133E3607B5D7B2B7FF472
:1019C000EDAE01352046A560FFF71AFBD4E90123EF
:1019D00093420CD22268D25C7D2A19D100252F4671
:1019E000E368013BE36007B17D604023A6E7013B6C
:1019F000A360D3E6AFF300800000C0FFFFFFDF412C
:101A0000763B02007B3B0200813B02000000E0C10C
:101A100000252F46A846013BA3602069FFF78AFCFA
:101A2000A9460546002838D0AFB3C9F80000C0F871
:101A30000490A36820460133A360FFF7E1FA214632
:101A40002846FFF7EBF958B32046FFF7D9FA2B6980
:101A5000C5F810802B62D4E90123934220D222687A
:101A6000D25C3A2A1CD101332046A360FFF7C8FAA2
:101A700021462846FFF78CFE90B12046FFF7C0FABA
:101A8000D4E9012393420BD22268D35C2C2BC4D01F
:101A90007D2B05D1A4E70746CBE7002F3FF47EAEB0
:101AA0003846FFF751FE79E62DE9F04305464FF041
:101AB000000989B02E4F0C46164600211C2201A8B1
:101AC00098460DF0FAFEC7E90099002D46D0002C8B
:101AD00039D0284BCDE9015493E8070008AB03E95E
:101AE0000700FFF727FC044668B3019870B1039B19
:101AF0005BB9029B042B06D903221F490EF01DF986
:101B000008B90323039301A800E04846FFF778FAD9
:101B100001462046FFF73CFE90B1B8F1000F04D11A
:101B2000F6B9204609B0BDE8F08301A8FFF768FACE
:101B3000DDE90223934203D2019AD35C002BEFD05C
:101B40002046FFF701FEDDE902329A420DD303B1D0
:101B5000013B0EB1EA183260C7E900530024E0E708
:101B6000019B039A13443360DBE71346F1E700BFA0
:101B70001C1B0020900600209B3B020037B50D4641
:101B80000446019250B10EF0D0F82A46411C20467E
:101B9000019B03B0BDE83040FFF786BF03B030BD06
:101BA00000221146FFF7EABFF0B515468BB0064696
:101BB0000C462422002101A81F460DF07EFE002DB8
:101BC00011DB94B10123CDE90537094BCDE901457E
:101BD00093E807000AAB03E90700304601A9FFF7C5
:101BE000B5FB0BB0F0BD0020FBE72046F9E700BFD6
:101BF00090060020002901DBFFF71ABA0020704789
:101C00000022FFF76BBA0023FFF76ABBFFFFFFFF5D
:101C1000174BD0B5186857EC106BFFF78BFB0446D9
:101C200070B10823C0E90667C36039460EA3D3E943
:101C3000002330460DF046FC20B16FF00043636195
:101C40002046D0BD0022304639460A4B0DF030FC0C
:101C500010B14FF00043F2E7304639460DF05CFC1E
:101C60006061EDE7AFF300800000C0FFFFFFDF41E0
:101C7000900600200000E0C137B505460191FFF74E
:101C8000C7FF00230246044601992846FFF728FBB8
:101C9000054618B92046FFF757FD2C46204603B0ED
:101CA00030BDFFFF38B50A4B05461868FFF742FB09
:101CB000044658B11023C3602846FFF7F9FA0546D9
:101CC000206118B92046FFF73FFD2C46204638BD5D
:101CD0009006002037B5054610460191FFF7E2FF58
:101CE00000230246044601992846FFF7F9FA054603
:101CF00018B92046FFF728FD2C46204603B030BD1A
:101D000008B5044B1868FFF715FB08B12023C36022
:101D100008BD00BF9006002008B5044B1868FFF707
:101D200009FB08B14023C36008BD00BF9006002036
:101D300037B505460191FFF7EFFF00230246044641
:101D400001992846FFF7CCFA054618B92046FFF757
:101D5000FBFC2C46204603B030BD2DE9F843B1F121
:101D60000009804603DA00242046BDE8F8830028F5
:101D7000F9D0FFF7C5FF002604463746002CF2D005
:101D8000B94504D8A368002BEED05E60ECE758F8A4
:101D900027000DF0B9FA41EC100BFFF739FF0546AB
:101DA00018B92046FFF7D0FCDDE71FB9A0602E462A
:101DB0000137E3E730604660F9E720B1007BA0F12E
:101DC000080358425841704708B50246FFF7F5FF2F
:101DD00010B192ED060B08BD9FED010BFBE700BFB4
:101DE000000000000000F87F20B1007BA0F110038C
:101DF00058425841704708B50246FFF7F5FF00B159
:101E0000106908BD70B50D461646044618B918206D
:101E10000DF026FD0446002363614FF0FF33681C7C
:101E2000C4E90106E360704323610DF019FD2060F1
:101E300020B90348BDE870400DF096BE70BD00BFEC
:101E40009F3B020038B5C56843680135B5FBF3F226
:101E500003FB125503690446AB420CD02368C068EB
:101E6000A26802FB00300DF01BFD0120E5606369F4
:101E70000133636138BD0020FCE710B50446E26819
:101E8000236908469A4213D02368A268216902FB9D
:101E900001310DF005FD236962680133B3FBF2F1F6
:101EA000012002FB113323616369013B636110BDB3
:101EB0000020FCE74FF6FF7210B5074C0144884242
:101EC00001D1104610BD10F8013B5340DBB234F88D
:101ED000133083EA1222F2E7B03B02002DE9F84FFB
:101EE0000B7806467E2B0D46904600AF66D1B1F8C2
:101EF00001304FF400725BBA83809CB2831D184698
:101F000000210DF0DAFC03466FF00100AA1C401B13
:101F100081188C4231DC04F1030BB8F1000F31D091
:101F2000AB4406F2062306F216221BF8011B03F847
:101F3000011B9A42F9D1EA4604F113092A1915F84E
:101F4000093092F814801A34E40848EA0328AAEB0E
:101F5000C4039D464A4629466846A6F816820DF0F7
:101F60009FFC68461FFA89F1FFF7A4FF804524D142
:101F7000D5463046BD46BDE8F88F12F8011F03F87C
:101F8000011BC5E7EA462A1915F80B3092F80490B0
:101F90000A34E40849EA0329AAEBC4039D465A46D9
:101FA00029466846A6F816920DF07AFC68461FFA94
:101FB0008BF1FFF77FFF8145D9E7D5460026D8E7AB
:101FC000D0ED037A9FED1B7AF4EEC77AF1EE10FAAA
:101FD00010B504462DED028B03D50020BDEC028B1D
:101FE00010BD9FED157AF4EEC77AF1EE10FAF4DC2D
:101FF00090ED000AFEF736FC9FED108AB4EEC80A99
:10200000F1EE10FAE9D494ED010AFEF72BFCB4EEE0
:10201000C80AF1EE10FAE0D494ED020AFEF722FCB1
:10202000B4EEC80AF1EE10FA54BF0120002040B20D
:10203000D4E700BF0000A0420000C8426F12833AFC
:10204000044B0360044B4360044B8360044BC36048
:10205000704700BF8155854260559543DD40A744D8
:102060000000C8429FED1A7AC0EE077AF8FE677A40
:1020700067EE877AC0ED017A07EE901A9FED157A28
:10208000F8EEE76A0029C6EE877ABCBF9FED127AA8
:1020900067EE877AC0ED007ADFED107A90ED007A76
:1020A00027EE277ADFED0E7AC7EE276AD0ED047AA5
:1020B00077EEE67A0029B8BF49421429C8BFB0F8C4
:1020C0004030C0ED047AC4BF0133A0F840307047FF
:1020D0006F12833A0000C8C3CDCC8C3F3433333FFA
:1020E00000006145D0ED017A90ED020A37EEC00A9A
:1020F000C0ED027A10B580ED030A0446FEF7B2FB8C
:10210000DFED137AB4EEE70AF1EE10FA03D50023FF
:10211000E360236110BDDFED0F7A94ED047ADFED0B
:102120000E6A27EE277AD4ED037A67EEA67AC7EE19
:10213000276ADFED0A7AF4EEE76AF1EE10FAE6D4E8
:10214000F7EE087AF4EEE76AF1EE10FADFDCE1E789
:102150000AD7233C00006145000073463333333F08
:1021600090ED037A9FED526A67EE075A10B5DFEDE6
:10217000516A2DED028BD0ED0C7A85EE868A07EE42
:10218000A68AD0ED047A27EE277AC7EE065A90ED9C
:102190000D5AB0EE657A67EEA77A05EE267A80EDE5
:1021A000067A87EE867AD0ED0E5AF0EE477A45EE43
:1021B000A67A80ED058AC0ED077A9FED3F0A0446B6
:1021C000FEF75AFBF0EE408A9FED3B0AFEF754FB08
:1021D000D4ED077A28EE800A00EE678A9FED360A72
:1021E000FEF74AFBF0EE488AB0EE408A9FED320AD5
:1021F000FEF742FB38EE088A28EE008A94ED060AC4
:1022000028EE008A88EE880A84ED0A0A20EE008A09
:102210009FED290AFEF730FBF0EE408A9FED260A7B
:10222000FEF72AFB28EE800AF7EE008AC8EE807AD5
:1022300037EE880AFEF720FBD4ED0A7A30EE670A03
:10224000DFED1E7A84ED090A9FED1D7A20EE270A44
:10225000DFED1C6A20EE070A80EE267AB4EEE77AFC
:10226000F1EE10FA94ED0F0A77FE877AC4ED087A42
:1022700030EE670AFEF7F6FAB4EEE80AF1EE10FA6D
:10228000114B13D5226AE26362692263A269626319
:10229000E269A26301221A700022BDEC028B226166
:1022A000002293F90000A4F8402010BD0022F2E7BC
:1022B0008FC2F53A77BE7F3F66CF8B3A0000C842A7
:1022C0000000614500007346241B0020D0ED0F7A0A
:1022D000F8FE677AFCEEE77A17EE900A704701691C
:1022E000B0F91830D1ED007AF4EE407AF1EE10FA40
:1022F00001EB830237FE800A52ED017AF4EE407A58
:10230000F1EE10FA4FF0000248BFB0EE670A30B5A8
:1023100095B29D424FEA850409DA0D19D5ED007A90
:10232000F4EEC07AF1EE10FA02F10102F0DBC368BC
:10233000234493ED000A30BDC16830B5D1ED007A79
:10234000F4EE407AF1EE10FAB0F9184037FE800A48
:1023500001EB840353ED017AF4EE407AF1EE10FACA
:102360004FF0000248BFB0EE670A93B2A34202DB0F
:10237000DFED0F7A19E09D0001EB8303D3ED007AC6
:10238000F4EEC07AF1EE10FA02F10102EDDB4269DF
:1023900003692A442B4470EE677AD2ED006A93ED0C
:1023A000007A07EEA67AC7EE007AB0EE670A30BD73
:1023B00000000000D0ED007ADFED386AF8EE677AB1
:1023C000F8B50122002387EEA67A2DED028BC0E935
:1023D0000E23436B324A334E1A60334A00245A604C
:1023E000324A9A603368324A83ED007A9FED317A3F
:1023F000D0ED036AC6EE877A2F4B02F120071B68E7
:10240000C3ED007A5C609C602C4B1B68154603CDC5
:10241000BD42186059602A4603F10803F6D1B7EEB1
:10242000008A2868264F18603D6820220021281D58
:102430000DF043FA85ED008A9FED220AFEF750FA6F
:1024400085ED040A204D3B682F6883ED088A14222D
:102450000021381D0DF031FA1C4B9FED1A0A3B602C
:10246000FEF73EFA38EE400ABDEC028B2B68184AA4
:1024700083ED020A174B1B681C605C609A60164B68
:10248000164A1B681C605A60154B1B681C605C6018
:1024900033681A68134B1B681A60F8BD00007A464F
:1024A0005839B43C341B0020B537F83CA8B49041EF
:1024B000584702000000C842E006002060070020E4
:1024C000B8060020607BA3BFC006002060AA4FB8FA
:1024D00031082CBDC8060020D00600200AD723BB37
:1024E00030070020501B00202DE9F04F2DED048B0C
:1024F000032997B00446DFF85083089100F0D48494
:10250000042900F0FD84D8F80030DFEDB67A93EDB1
:10251000007AB4EEE77AF1EE10FA03D54368132B94
:1025200040F3B384D4ED097ADFEDAF6AF8EE677A51
:1025300087EEA67AD4ED0A7ADFEDAC6AF8EEE77A98
:10254000AB4BAC4F1B68032283ED007A87EEA67A73
:10255000A94BAA4D1B68AA4E83ED007A7B689FEDBC
:10256000A98A009398E803003B68FEF767FB95E8AB
:102570000C00A54903C9FEF78DFB95E80C0095E812
:1025800003009FEDA20AFEF763FA97E803008DE8C7
:10259000030095E80C00FEF7C1F995E80C0095E8FA
:1025A0000300B0EE000AFEF753FA95E803008DE849
:1025B000030095E80C0097E80300FEF7D8F996E8C9
:1025C000030002AB83E8030095E803008DE80300F5
:1025D00097E80C008E4F98E80300FEF7C3FA97E8DF
:1025E00003008DE803008B4D8B4B95E803008B4D6A
:1025F0000CCBFEF751FA6B68072200932B6897E823
:102600000300FEF71BFB96E803008DE80300844FF0
:1026100096E80C0097E80300FEF73EFA96E8030000
:102620008DE8030095E80C007E4DFEF777F92F4604
:10263000366806F15408F6EC017A67EE887A17EEF0
:10264000900A0DF0D3F84645E7E80201F3D10022E5
:10265000754B17469E4690469446914616460593FE
:102660000692DEE9003AD5E90010584301FB0A0062
:10267000A3FB011B0835584411EB0C0C40EB090976
:10268000D5E90C1058430AFB0100A1FB031B584479
:10269000CF1940EB0808D5E91A105843A1FB03B342
:1026A0000AFB010001361844069B1BEB0202F6B23E
:1026B00040EB0303072E0EF1080E0693D1D15B4DBC
:1026C000C5E904235A4BC5E900C99B461E68C5E904
:1026D000027806F10C07F5E802010DF035F807EE77
:1026E000900AC7EE887AE6EC017ABE42F3D1514DEA
:1026F00007226B68424E00932B689BE80300FEF7AD
:102700009DFA95E803008DE8030095E80C0096E833
:102710000300FEF72CF9484B9FED488A1E462D68B2
:10272000069305F15407F5EC017A67EE887A17EE07
:10273000900A0DF05BF8BD42E6E80201F3D14822B1
:102740003F4940480DF0ACF80023DFF8ECC0DFF85B
:10275000FCE00793DEF80030DFF8E8A00A93DEF82B
:1027600004305546674600260C930EF1080E26E00D
:10277000D8F804300B9A09995343D8F8002009F18E
:10278000010901FB023319460B9B08F13808A2FB33
:1027900003230D930D9B19440368D218436840F836
:1027A000082B41EB0303B9F1030F40F8043CDFD1E0
:1027B0000336092E07F1380705F118054AD0D7E985
:1027C00000130A9AE04653430C9A284602FB013351
:1027D0000A9A4FF00009A1FB02210B920A461A4403
:1027E0000992C5E768916D3C00007A460000C8C3B5
:1027F000341B0020E8060020301B0020F0060020DB
:1028000050070020A5D4685360070020F085493C9C
:1028100018070020C006002030070020080700200D
:10282000B8060020F81B0020C8470200701B0020DB
:102830003807002058070020A01C002020BCBE4CF8
:1028400080470200481D0020E006002020470200CB
:10285000EC78AD60079B0CF1080C0133072B079354
:102860007FF478AF1FED068AD84E356805F124074E
:10287000FAE802010CF068FF07EE900AC7EE887ACA
:10288000E5EC017AAF42F3D1D14FD24D7B68032200
:1028900000933B689BE80300FEF7D0F995E80C0035
:1028A00096E80300FEF7F6F995E80C0095E80300BA
:1028B0009FEDC90AFEF7CCF897E803008DE8030006
:1028C00095E80C00FEF72AF895E80C0095E803005F
:1028D000B0EE000AFEF7BCF895E803008DE80300AF
:1028E000BE4E95E80C0097E80300FEF740F896E826
:1028F000030002AB83E8030095E803008DE80300C2
:10290000B74D9BE8030097E80C00FEF72BF92B6806
:10291000DFF8249393ED000AD9F800709FEDB18A97
:1029200087ED000AFDF7E8FF87ED010A2B684F46A7
:1029300093ED000AFDF796FFDFEDAB7AB4EEE70A00
:10294000F1EE10FA48BF00229FEDA87A48BFD9F8EF
:102950000030DFF8E89248BF5A60D9F800302A68A2
:1029600083ED007AD2ED007AF5EEC07ADFEDA07A41
:10297000F1EE10FA58BFF0EE477AC3ED007A636BC0
:10298000DFF8BCA2D3ED027A93ED010A20EE270A0C
:1029900088EE000AFDF766FFB1EE400ADAF800B0F3
:1029A000FDF79EFF8BED000AD9F800309FED910AEC
:1029B000D3ED007A67EE807A2B6867EE887A93ED24
:1029C000000ADFED8D8A67EE807A94ED100A20EE22
:1029D000280A87EE800AFDF745FF884DB1EE400AD0
:1029E000D5F800B0FDF77CFF8BED000ADAF8001097
:1029F000834B0A681B68B0461A612A680FAD1068DD
:102A00001862D9F800007F4BD0ED007A28EE678A73
:102A1000D4ED107A67EEA87A88EE277A1B68B7EEB5
:102A2000008A83ED007AD1ED007A78EE677AC3ED03
:102A3000027AD2ED007A77EEC87A1C22C3ED057ACD
:102A400000210FA80CF039FF4FF000093368606BCC
:102A50004B4493ED000AFFF76FFC09F10409B9F14B
:102A60001C0FA5EC010AF1D19DED107ADDED0F7A76
:102A700077EE877A9DED117A77EE877A9DED127A5F
:102A800077EE877A9DED137A77EE877A9DED147A4B
:102A900077EE877A9DED157AF1EE0C6A77EE877AFC
:102AA00087EEA67ADFF89CC1636BDCF80020564EF7
:102AB00082ED007AD3ED017AF1EE677AC2ED017A08
:102AC000D3ED007AF1EE677A3268504DC2ED007AAC
:102AD00095E803008DE803009CE8030098E80C00EB
:102AE000FDF7DAFF96E8030097E80C002E46FDF7A5
:102AF00087FF474B1A6802F11C01A2EC010A9142C0
:102B0000FBD196E803008DE803000CCB96E80300A8
:102B1000FDF704FF2F683F4DDFED3F8AA84607F120
:102B20001C09F7EC017A67EEA87A17EE900A0CF010
:102B30005DFEB945E8E80201F3D1002001460746F1
:102B4000059B059A1B68D2F804E008320592D5E986
:102B500000C25A430CFB0E22A3FB0C3C0137181891
:102B60009444FFB24CEB0101072F05F10805E7D1B2
:102B70002A4BC3E900012A4B1D680CF0E5FD07EE66
:102B8000900AC7EEA87AC5ED007A264B1A6802F1C2
:102B90001C01286842F8040B9142FAD1224D9FEDA6
:102BA000239A95E803008DE8030096E803000CCB18
:102BB000FDF7DDFE2D68DFF89090AB46DFF88CA0C6
:102BC0001B4E1C4F05F11C0842E000BF60070020AF
:102BD000E8060020F0060020F085493C5007002060
:102BE000301B00203433333F6F12833ACDCC8C3FFF
:102BF0008C4A8A3FCCFF764200007346281B002097
:102C0000B8060020C0060020D0060020480700209B
:102C100000070020881B0020286B6E4E581B0020E8
:102C2000501B0020F8060020400700208096184B1B
:102C300000005B629AE09E0030070020601B0020CD
:102C40002C1B0020C806002020470200C01B0020CB
:102C5000FBEC017A67EE897A17EE900A0CF0C6FD5C
:102C6000D9E90032424303FB0122A0FB033CCAE93D
:102C700000015943624400FB0211A3FB00309E197E
:102C8000084440EB0707D8450AF1080A09F108098A
:102C9000DED1A84B3046C3E90067A74B39461B6815
:102CA000A64F05930CF050FD9FEDA57A07EE900A14
:102CB000C7EE877A059BC3ED007AA24B1E6806F12A
:102CC0005409F6EC017A67EEA87A17EE900A0CF038
:102CD0008DFDB145E7E80201F3D19B4EF5EC017A99
:102CE00067EEA87A17EE900A0CF080FDA845E6E89A
:102CF0000201F3D100220023944D4FF0000A284630
:102D0000C5E90023C5E90223C5E90423D0E9008908
:102D10000026DFF834E28E4FDDF818B00830DBE92A
:102D200000320992DEF80020D7E9001C079203FB6D
:102D30000CFCDEF8042001360A92099AF6B201FB77
:102D400002CCA3FB01310A9A8C445A4307990BF138
:102D5000080B01FB0C2CA3FB013113EB08088C447E
:102D60004CEB0909072E07F108070EF1080ED6D122
:102D7000069B0AF1070A3833BAF1150F40E90289B8
:102D80000693C3D1DFED738A734E376807F10C08E1
:102D9000F5E802010CF0D8FC07EE900AC7EEA87A1D
:102DA000E7EC017AB845F3D196E80300059B6B4D3B
:102DB00093ED000A95E80C0088EE000AFDF748FE46
:102DC00095E80300664B674E1A68674B92ED000A60
:102DD0001B68664FD3ED007A96E80C0030EE670A68
:102DE000FDF736FE97E803008DE80300DFF8A4C185
:102DF00096E80C009CE80300FDF790FD3B68BFEEF1
:102E0000007AD3ED007AF4EEC87AD3ED027AF1EECF
:102E100010FAF4EEC77AC8BF83ED008AF1EE10FA1B
:102E20002E4639D583ED027AD3ED007AF5EEC07ADD
:102E3000F1EE10FA03D504212046FFF755FB29686F
:102E40004B4B08681A684B4D1060486850608968A1
:102E5000916095E803008DE8030096E803000CCB31
:102E6000FDF71AFE344B444E196895E80C0091EDBD
:102E7000000A95E80300FDF7EBFD96E803008DE8F6
:102E8000030095E80C00FDF772FD089B237417B052
:102E9000BDEC048BBDE8F08FF4EEC87AF1EE10FAC9
:102EA000C8BF83ED028ABFE7D8F80030DFED337A80
:102EB00093ED006AB4EEE76AF1EE10FAE5DCD0EDCE
:102EC0000A7AB8EEE77ADFED2E7ADFED2E6A27EE8A
:102ED000277AD0ED107A67EEA67ADFED2B6A67EEDF
:102EE000A67AC7EE276AF7EE007A36EE867AB4EE57
:102EF000E77AF1EE10FA77FE877AC3ED007AC4E73D
:102F0000D0ED007A9FED210AF8EE677A406B87EEEC
:102F1000800AFFF7E4F9DFED1E7A002220EE270A8F
:102F2000D8F8003084ED030A20469A60FFF742FA91
:102F3000ABE700BF681B0020641B0020A01C002022
:102F40006B0B5E5D58070020C01B0020381B002063
:102F50002047020078860764D8060020100700206A
:102F6000341B002020070020501B0020E00600201A
:102F7000680700202807002060070020295C7F3FA9
:102F80003433333F0000C8430000734600007A46E4
:102F90000000C8423807002080ED030A7047FFFF99
:102FA00007EE901ADFED116AF8EE677A87EEA67ADF
:102FB000D0ED037AF8FE677A38B5FCEEE77A0025A3
:102FC000436802688362C0E9072380ED107AC0ED90
:102FD000027AC0E905554262C5620446FFF7EAF984
:102FE000012384F83050237438BD00BF0000C8426C
:102FF00070B5836B2DED028B01338363C36A044686
:10300000462B19D1D0ED057ADFED656AB8EE677A07
:10301000C7EE267AFCEEE77AC0ED097AD0ED067AA3
:10302000B8EEE77AC7EE267AFDEEE77A0023C0ED28
:103030000A7AC0E90533C36246F2A811D4E905064D
:103040002368E26AA3F52F45C83D8D4202F10102D3
:1030500010D9E5690544206A65613044A061E262E7
:10306000227C0025052A00F29380DFE802F00B564F
:103070002C2C44466168184421623144E36160614C
:10308000A161ECE707EE903A9FED460AF8EE677A09
:10309000606B87EE800A94ED038AFFF720F9DFED7D
:1030A000427A00EE678AB0EE480AFDF7DBFBF2EEEB
:1030B000047AB4EEE70AF1EE10FA04DD04212046AA
:1030C000FFF712FA01E001232374384B9FED367AA3
:1030D0001B680020D3ED007A67EE877AC4ED037A8F
:1030E000F8FE677AFCEEE77A17EE903A642B88BF19
:1030F0006423A36051E00523E6E7D4ED017AA563DC
:10310000B8EEE70AFDF7AEFBDFED297AB4EEE70A89
:10311000F1EE10FAC4BF01232374D4ED017AB8EEA6
:10312000E70AFDF79FFB9FED238AB4EEC80AF1EE94
:1031300010FAD4ED017A48BFE36BB8EEE70A44BF5A
:103140000133E363FDF78EFBB4EEC80AF1EE10FA2B
:1031500014DD0023E363A36B452BB6D92268164B1D
:103160009A4213D96368013BB3F5957F0ED80321CA
:103170002046FFF7B9F90023A363A6E744F25063A2
:10318000E26B9A42E7D10023E36397E70221EFE77E
:103190002046FFF70FF901202574BDEC028B70BDAE
:1031A00000008C4200007A460000C842E006002081
:1031B00000005C4200007042C40301003B4B00F180
:1031C0000C0218603A4B1A603A4B00F130021A6058
:1031D000394B00F184021A60384B00F190021A60FA
:1031E000374B00F1B4021A60364B00F1CC021A6082
:1031F000354B00F1D8021A60344B00F1E0021A603E
:10320000334B00F59A721A60324B00F59E721A60C9
:10321000314B00F5AC721A60304B00F5BA721A608F
:103220002F4B00F5C0721A602E4B00F5C6721A6063
:103230002D4B00F5C8721A602C4B00F5CA721A604B
:103240002B4B00F5CC721A602A4B00F5CE721A6037
:10325000294B00F5D0721A60284B00F5D2721A6023
:10326000274B00F5D4721A60264B00F5E6721A60FF
:10327000254B00F5F8721A60244B00F5FE721A60B7
:10328000234B00F523721A60224B00F52A721A6054
:10329000214B00F534721A60204B00F537721A602A
:1032A0001F4B00F53A701860704700BFE006002021
:1032B000600700205007002038070020B8060020D3
:1032C000C0060020C8060020D006002058070020B5
:1032D000300700204807002040070020D8060020C3
:1032E00010070020601B0020501B0020641B0020E2
:1032F0002C1B0020281B0020341B0020301B00202A
:10330000E8060020F006002018070020080700202B
:1033100000070020F8060020200700206807002092
:103320002807002090ED030A7047806A7047FFFF6E
:1033300037B5019054200D460CF092FA044680B146
:1033400095F900300146722B0CBF01234FF48173B5
:10335000019A054805F03EF918B120460CF088FAAC
:103360000024204603B030BD603300202DE9F04F2B
:1033700005460E4690464FF00009DFF878A01C4F36
:10338000DFF874B089B0C14503DB002009B0BDE8A7
:10339000F08F51463046FFF7CBFF044610232A46F4
:1033A0000146384604F018F82146384604F0D6FFA6
:1033B00020460CF05DFA59463046FFF7B9FF044647
:1033C00010236A460146384604F0E2F921463846A1
:1033D00004F0C4FF20460CF04BFA694628460CF076
:1033E00081FC10B109F10109CDE70120CEE700BF52
:1033F00060330020004802003C49020010B590F9FB
:103400002C3004464BB9052205493030FFF7AEFF9A
:1034100010B9012384F82C3010BD0020FCE700BF58
:103420000248020013B5134904461348FFF780FF12
:10343000014670B9114804F091FF2046FEF700FEE6
:10344000204605220C49FFF791FF44B2204602B006
:1034500010BD224610230190084804F099F9019903
:1034600044B2064804F07AFF019908460CF000FACD
:10347000ECE700BF3C490200024802006033002034
:1034800038B50B490546FFF753FF04460146094886
:1034900054B104F063FF20460CF0EAF929460548D0
:1034A00005F0A2F8012038BD04F058FF2046FAE7E5
:1034B0003C4902006033002008B50448FFF7E0FFF4
:1034C000BDE808400248FFF7DBBF00BF124802001A
:1034D0001B4802008160704764224FF47A51C0E9B2
:1034E0001022094A0023C0E9071244F26821074A62
:1034F00080F858304262064AC363C0E90B124DF2AD
:10350000D862038742637047005C26053200FCFFE7
:10351000B8050100D0F8603513B15B1AC0F860350A
:10352000D0F868351BB9002380F870357047591AF8
:10353000C0F868150029F6D0704710B590F8A8308B
:10354000044680F8A93006F06DFC84F8A80010BD90
:1035500090F8A8007047B0F8A800431E58425841A0
:10356000704710B50446C06D05F09BFCE36D1B6908
:10357000E36410BD10B50446C06D05F0A3FCE36D17
:103580005B69236710BDC06D05F0ADBCC06D05F073
:10359000BBBC10B50446C06D05F0C7FCE36D5B7F96
:1035A000236510BDC06D05F0D1BCC06D05F0F4BC45
:1035B000012240F20121014809F06ABB7C4200204F
:1035C000C06D05F04CBEFFFF08B5044800F0FEF9E1
:1035D000BDE808400248FFF711BF00BF9C1D002056
:1035E000FC34002010B50446C06D05F0FDFB00233F
:1035F0006365A36410BDFFF7F5BF10B5046EA36843
:10360000204698470123237010BD10B5046E6368EF
:10361000204698470023237010BD10B5846E636860
:10362000204698470023237010BD10B5846EA36810
:10363000204698470123237010BDC06D05F0E2BB02
:10364000C06D05F021BCFFFF90F8583030B5012B5C
:1036500026D0C36D1B681B68596803F1C0050A4674
:103660005C680C33A14238BF2146A24228BF2246E3
:103670009D42F5D141F26803994212D9036F042BA0
:1036800016DD1B490B780A2B89BF836C013343F489
:103690000033836498BF0B7040F6B7339A421BD84F
:1036A00030BD0021836C23F400338364104B197008
:1036B00040F6B7339A420FD8036F0433F0DA0D4A5D
:1036C00013780A2B89BF836C013343F4802383640E
:1036D00088BF00231370E3E740F6B8339A42DFD087
:1036E0000022044B1A70836C23F480238364D7E791
:1036F000961D0020971D002038B504460025D4F8FB
:103700008820EBB29A4205F1010500D838BDD4F803
:103710008C2052F8230005F0A8F8F0E7C06F05F000
:1037200089B8D0F8800005F085B8C06D05F062BC9E
:1037300013B50446C36D01AA1B681979186805F012
:1037400033FB0199E06D06F05BF802B010BDC06D6F
:1037500006F03EB84B1E70B504460D46122B3DD800
:10376000DFE803F00A170E262C361C0E0E0E0E0E86
:103770000E23392917170E00FFF757FF0023636543
:10378000D4F8783584F8585043B32046BDE87040EB
:103790001847FFF742FF0023A367F1E7FFF7D7FFC2
:1037A0000F4A136801331360EAE7FFF73EFFE7E7CC
:1037B000FFF72BFFE4E7FFF720FFE1E70026FFF725
:1037C00034FF204684F88460FFF7C1FFE663D7E743
:1037D000FFF7F6FED4E7FFF7F7FED1E770BD00BFB5
:1037E000901D0020D0F8A400FFF774BED0F8A4000C
:1037F000D0F81038184710B50446FFF7F3FF2046FD
:10380000BDE81040FFF7F2BF10B590F884300446D1
:1038100063B990F85820132A16D8224BD340DA0700
:1038200012D50E21BDE81040FFF794BF012B0CD13B
:1038300090F858300E2B01D0132B02D112212046C4
:10384000F0E7002380F8843010BD022B05D190F8FA
:1038500058300E2BF8D11121E4E7032B09D190F851
:103860005820132AF0D84FF41423D340DB07E5D4B3
:10387000EAE7042BE8D0052B08D190F85830DA1E7F
:10388000012A01D9012BDFD11321D8E70521FFF748
:1038900061FF0023204684F884301621BDE81040E3
:1038A000FFF7A9BF1800090030B585B001A90C4683
:1038B000D0F88C301A1F0C3352F8045F6D899A428D
:1038C00021F8025BF8D1C36F01215B89ADF80C30A0
:1038D000D0F880305B89ADF80E30BDF904301A465F
:1038E00034F9110001318342A8BF03468242B8BFB8
:1038F00002460629F4D15A2A02DC13F10A0F0CDA27
:103900000C4A1388022B8BBF012000200A4B013385
:103910008CBF1870138005B030BD0749087818B106
:10392000502AF8DC002BF6DB0020024B08701880D0
:10393000F1E700BF941D0020981D002010B504463B
:10394000FFF7B2FFE26DA36C92F8221059B923F091
:10395000FF0392F8232042B923F47F4340B923F4B4
:103960008033A36410BD0B43F3E743EA0223F5E77A
:1039700043F48033F5E7FFFF37B5019054200D463F
:103980000BF06EFF044680B195F900300146722BB2
:103990000CBF01234FF48173019A054804F01AFE0D
:1039A00018B120460BF064FF0024204603B030BD60
:1039B0006033002000234FF07E52C0E90033C0E99D
:1039C00003338260436103837047FFFF70B52F4963
:1039D000C0B005462E4804F007FE2E492B48FFF7DD
:1039E000CBFF0646FEF798F9044628B95A212A4B20
:1039F0002A4A2B480BF0BBF928680BF085FC41ECF8
:103A0000100B20462749FEF737F9E8680BF06CFCED
:103A100041EC100B20462449FEF72EF928690BF0E3
:103A200063FC41EC100B20462049FEF725F9A88ADB
:103A30000BF05AFC41EC100B20461D49FEF71CF917
:103A4000E88A0BF051FC41EC100B20461949FEF7B7
:103A500013F9694600234FF480722046FEF7A4F85C
:103A600068460CF062F96A4603463146084803F09E
:103A7000B3FC3146064804F071FC30460BF0F8FE0A
:103A80002046FDF761FE40B070BD00BF2C4802002B
:103A9000603300200048020038480200B3480200AA
:103AA000454802007448020078480200804802003D
:103AB00089480200944802004FF07E52036870B5B6
:103AC000CB1A002B04460E46436082601BDA026963
:103AD000C18AD31A632B036103D94B1CC382002311
:103AE0000361E38AA58A1D44238BC5F34E05AB42CF
:103AF00007D0E3690BB1206A984720462583FFF77A
:103B000065FF266070BDECD0C168828A0B44632BD0
:103B1000C36081BF531C83820023C360E1E7FFFFC2
:103B20002DE9F04F50490446ADF2044D4F48FFF7E0
:103B300023FF064670B900230A222046C4E9033356
:103B400023606361228363600DF2044DBDE8F04F92
:103B5000FFF73CBF4FF48062002168460BF0ADFEDA
:103B60004FF480636A463146414803F011FE6846CF
:103B7000FEF716F8054638B931463D4804F0EEFB2D
:103B800030460BF075FED6E73A49FEF739F8834622
:103B900028B98621374B384A38480BF0E8F82846D0
:103BA0003749FEF72DF8824618B98821344B324A3E
:103BB000F2E728463349FEF723F8814618B98A21EF
:103BC000304B2D4AE8E728462F49FEF719F8804682
:103BD00018B98C212C4B284ADEE728462B49FEF7E2
:103BE0000FF8074618B98E21284B234AD4E75846C8
:103BF000FEF7EAF851EC100B0BF08EFC20605046FB
:103C0000FEF7E2F851EC100B0BF0AEFCE06048461A
:103C1000FEF7DAF851EC100B0BF0A6FC20614046E1
:103C2000FEF7D2F851EC100B0BF09EFCA082384648
:103C3000FEF7CAF851EC100B0BF096FCA38A80B289
:103C4000E0821844C0F34E0031462083084804F057
:103C500085FB30460BF00CFE2846FDF775FD0DF296
:103C6000044DBDE8F08F00BF3C4902002C48020023
:103C70006033002074480200A0480200454802005A
:103C800078480200804802008948020094480200F7
:103C900001600021C0E90423416000F25C4000F0B3
:103CA00079B8FFFF38B50446164B92B91A7801323D
:103CB0001A701B78022B0ED104F1180504F57674E6
:103CC000012228461146F03500F07BFCA542F7D1D1
:103CD00038BD0022ECE7042BFAD1012204F1900058
:103CE000114600F06EFC012204F5C070114600F090
:103CF00068FC012204F51C701146BDE8384000F054
:103D000060BC00BFC01D002037B504460D460A4602
:103D100000F58660012100F09FFB2946019004F523
:103D2000727000F07FF929462046019A03B0BDE881
:103D30003040FFF7B7BF2DE9F341054600F572703B
:103D400005F118060F46344600F060FB05F558787B
:103D500020463946783400F04FFC4445F8D1BC0089
:103D60000B3CA4B205F57675032F8CBF21460021CC
:103D70003046019100F045FC06F178000199F036DB
:103D800000F03FFC0134AE42A4B2EDD102B0BDE878
:103D9000F081704700B9FEE70023C0E902330360F9
:103DA0004360704770B5054600240288944211D2E2
:103DB000A3185E10C3F34F006B6833F836308B42A4
:103DC00011D003D92EB1421E92B2EFE7431C9CB230
:103DD000ECE7B44208D14FF6FF706B6833F834302B
:103DE0008B4208BF204670BD4FF6FF70FBE7FFFF18
:103DF000054A00F11403343043F8042B834202F1E6
:103E00000102F9D1704700BF7407002010B510B14E
:103E10000A78072A00D9FEE7002380F8342004310D
:103E200038309A4200DC10BD51F8044B013340F8A1
:103E3000044BF6E72DE9F84F4FF000090446884699
:103E400007464D464FF6FF7AC37843F08003C370B0
:103E500094F834304B4501DCBDE8F88F4046398F8B
:103E600097F83A6097F83BB0FFF79CFF504504D1B4
:103E70002046BDE8F84FFFF7BBBFB8F800308342DB
:103E8000F6D9D8F8043003EBC0008378B342EFD9F9
:103E9000436806EB460613EB8606E9D000200F4B7D
:103EA0001A686B1D04EB8303834507DCE37809F193
:103EB00001096FF3C713E3700437C9E7F1880135CF
:103EC0008142C8BF3168EDB2C6BF091819601A60D7
:103ED000082D03F10403CBD80130E5E77C0700206F
:103EE00038B51546044638B1FFF790FF29462046FD
:103EF000BDE83840FFF79EBF38BDFFFF38B58023CF
:103F000080F82030082380F82830094B04461B68CD
:103F1000416218300D4698470023A4F84C30637571
:103F200084F854304FF44073A565A4F8603038BD70
:103F3000700700200023A0F84C30437580F85430FF
:103F40004FF440738165A0F860307047012310B5CD
:103F50004FF4C0640370836964F31C038361082316
:103F60004FF4B0640385436864F31C03436000238B
:103F700080F83030C362B1F86440896E4375C0E99F
:103F80001133C0E91332C0E9163344864163A0F807
:103F9000403080F8423080F85430A0F8603010BDD6
:103FA000002310B59CB2A24200D810BDCC5CC45412
:103FB0000133F7E7014B1B68184700BF700700206B
:103FC00070B50124047091F85C40856904F5B06611
:103FD00066F31C05856108250585456804F5C06400
:103FE00064F31C0500248482C46280F8304045607C
:103FF000B1F85E5080F84240C363B1F86030C0E968
:104000001144C0E9164445860487A0F84040A0F852
:104010004C40A0F84E30026580F85440A0F8604053
:1040200070BDFFFF037873B5044623B9012584F8FA
:10403000615002B070BDB0F84C3063B11944B0F8B3
:104040004E3089B28B42A0F84C1004D2A949FFF738
:1040500071FF0325EBE7637D83B994F85430002B9F
:10406000E4D094F86030113B042B00F2AE80DFE81E
:1040700013F065001401AC0083008A010023257B46
:10408000A4F84C306D09042D11D1227C63758DF894
:104090000020627C84F860308DF80120A27C8DF8CD
:1040A0000220E27C8DF80320009AE265D1E794F8C3
:1040B0006030002BD5D16B1E012B04D98E492046D0
:1040C000FFF71CFFC5E7637BE06B8DF80030A37B37
:1040D0008DF80130BDF80010E37BA4F8401084F89F
:1040E0004230FFF75FFE4FF6FF739842208712D0F1
:1040F000E26B138883420ED9526894F8423002EB87
:10410000C00082789A4206D9426803EB43039E00BE
:1041100012EB830303D1002378496364CFE7636420
:10412000012D197923D1890701D47549C7E79B6807
:10413000DBB99359A364112384F8603094F85430A8
:10414000002B4FD0636C9B685B68984703283AD17B
:10415000002504F1180084F85450A4F84C50FFF7DF
:1041600029FF84F8605002256EE01B68E2E7CB0768
:10417000DBD5142384F860300026637B616C84F8FF
:104180002130E38984F830606384CA88A685042AD4
:10419000E28504F1180500F2DD80C2F104039B0002
:1041A00003F00C0343F0430384F82030096804F162
:1041B0002400FFF7F5FE2846FFF7FCFEE38D84F8A8
:1041C0006060A385CFE7022801D001253CE00023F1
:1041D0004C4984F85430A4F84C302046FFF78EFE4A
:1041E000032531E084F83030A385637B84F82130E7
:1041F000E3896384237B03F00305032D27D1626CDD
:10420000C3F38103D288C3F104039BB2934298BFE6
:104210001A46E385A06C04F11001FFF7C1FEE38D9F
:10422000A385602384F82030636C9B683BB904F15C
:104230001800FFF7BFFE002384F8603093E70125E4
:10424000A4F84C5084F8545000236375EFE6012D18
:1042500021D1237C626C8DF80030637CD2888DF88C
:104260000130A37C8DF80230E37C8DF80330BDF87B
:1042700000309A42E38501D22349AEE76023A4F8D7
:104280004C5084F8203004F11800FFF793FE1223FD
:1042900084F86030D8E71D499FE794F85430002B2C
:1042A0007FF450AF237B5A0901D0194995E794F860
:1042B000301003F01002914201D016498DE7A18D14
:1042C000E28DA06CCD1DAA42084403F0010323DC5B
:1042D00013B94FF0006180E7521A92B204F10D0158
:1042E000FFF75EFEE38DA38594F8303043F02003A2
:1042F00098E700BF0000040501000405110009064D
:104300000000010621000008050004051000070652
:1043100023000A0600000305002BDAD1072201253D
:1043200004F10D01FFF73CFEA38DA4F84C5013449B
:10433000A38594F8303004F1180043F0200384F88A
:104340002030FFF737FE94F8303083F0100384F804
:10435000303079E741232846012584F82030C2F324
:10436000072384F8242084F82530C2F30743C2F3DE
:10437000076284F8263084F82720FFF71BFE1523F8
:10438000A4F84C5084E7237B5A09032A8DD194F872
:10439000302003F010039A428FD1626CA38D116814
:1043A000E28DDE1DB242194404F1210004F118052A
:1043B0001ADCD21AD6B23246FFF7F2FDE38DC6F10F
:1043C0000706A38594F83030284643EA460343F0B5
:1043D000010384F82030FFF7EDFD94F8303083F0CE
:1043E000100384F8303026E70722FFF7D9FD28466E
:1043F0000125A38D1344A38594F8303084F8203030
:10440000FFF7D8FDA4F84C509DE700BF037E01F0F4
:104410007F0161F306030376037961F306030371F9
:10442000704703460A46D1E9010183E803000321EE
:10443000198291899982D189D982B2F85810198349
:1044400092F85A209A760022DA6183F820205A6284
:1044500083F828207047FFFF13B590F90310044636
:104460000029C37855DB818B0A4492B2914238BF50
:10447000828313F0400335D0828B838A9A4246D3DD
:10448000C38B028B01339BB29A42C38311D20122A8
:1044900090F82030817E1344DBB2994280F82030BE
:1044A0003CBF002380F8203090F82030C2839A402F
:1044B0004262E38B20462372C3F30723637294F8AE
:1044C0002030A372144B1B68984700230120A3835C
:1044D000A38BE28A93428CBF0023012384F8283007
:1044E00002B010BD407C0028F2D0227AA17A8DF86B
:1044F0000020627A84F820108DF80120BDF8002099
:10450000A383E28301228A4062626374E0E70020B1
:10451000DEE70020E4E700BF7007002010B5044686
:1045200094F873300830022B09D1636F98470A4B17
:1045300020461B689847002384F8723010BD04F1B0
:10454000100304F1300253F8041F0978934200F875
:10455000011BF8D1EBE700BF700700202DE9F04107
:104560000446069D0E4611461A469DF81C80089F7B
:10457000FFF7B6FC2B892968AA89A4F864306B89F7
:10458000E165A4F86630A4F86820A87BB8F1020FB2
:1045900084F86A002869216084F871304FF00801BE
:1045A0004FF00103E0662182A66584F8702084F84C
:1045B000723084F87380676701D107B9FEE7BDE800
:1045C000F08190F90330002B15DB4FF6FF71B0F846
:1045D00064308B4204D190F8723063B1FFF79EBF14
:1045E0004AB1826DD18B994203D1C16E526A114298
:1045F000F4D1002BEFD07047037861F3060303700A
:104600007047A0F8641070470123016003711846D9
:104610007047FFFF012810B516D1144CE3681868E5
:1046200008F064FD08B1002010BDE368186808F0C8
:1046300063FD0028F7D1E3680D49186808F0FAFC1B
:10464000B0FA80F04009EFE70028ECD1074CE368AE
:10465000186808F04BFD0028E5D1E368186808F0F9
:104660004BFD0028DFD1E3685968E6E71808002011
:10467000C8480200036810B59A68186814690122D6
:10468000A047B0FA80F0400910BD08B503689A68E9
:104690001868D2689047012008BD2DE9F04705460B
:1046A0000F46904699466424D0F800A02846FFF7AC
:1046B000ECFFDAF8083042469E6839464B46DAF895
:1046C0000000B0470646012005F0DDFC013C11D09A
:1046D000002EEBD164242B79032B06D04FF47A7192
:1046E00001200AF04BFB013CF5D12879013818BFB5
:1046F000012002E0002EEDD02046BDE8F0872DE934
:10470000F04705460F46904699466424D0F800A02D
:104710002846FFF7BAFFDAF8083042465E683946A5
:104720004B46DAF80000B0470646012005F0ABFC26
:10473000013C11D0002EEBD164242B79022B06D042
:104740004FF47A7101200AF019FB013CF5D1287968
:10475000013818BF012002E0002EEDD02046BDE850
:10476000F0870171704700234360037083607047D6
:1047700037B5019054200D460BF072F8044680B115
:1047800095F900300146722B0CBF01234FF4817361
:10479000019A054803F01EFF18B120460BF068F897
:1047A0000024204603B030BD6033002070B50D46B4
:1047B0000021044601F093F8134B1E2618700120C7
:1047C000FFF728FF0121204601F079F830B94FF4B6
:1047D0007A7101200AF0D2FA013EF3D11E2640235D
:1047E0002A464FF47861204601F053F930B94FF46E
:1047F0007A7101200AF0C2FA013EF0D10020BDE832
:104800007040FFF707BF00BF702D0020F0B599B0D2
:104810000C460746FDF780FA064620460AF064FD7E
:1048200041EC100B30462649FDF726FA0023694675
:1048300020223046FDF7B8F968460BF076FA4022A0
:104840000546002108A80BF038F87F23ACB22A46B1
:1048500069460DF123008DF820308DF821500BF0C2
:104860001FF8E11C89B208A8FDF724FB05F16003DD
:1048700018AA0DEB0305231D05F83D0C12FA83F36E
:10488000000A03F8400C631D12FA83F30D2203F8AB
:10489000402C18AAA31D12FA83F30A22073403F846
:1048A000402C18AB13FA84F40023384604F8403C3B
:1048B00008A9FFF77BFF3046FCF746FF19B0F0BDB3
:1048C0002049020010B50B49FFF752FF044678B1AA
:1048D00001464FF40073084A084802F07DFD214666
:1048E000064803F03BFD2046BDE810400AF0C0BF7B
:1048F00010BD00BF00480200402F002060330020A0
:1049000037B50D460B490192FFF732FF044678B1E7
:104910002A460146019B084802F03AFF2146064814
:1049200003F01CFD204603B0BDE830400AF0A0BFF4
:1049300003B030BD3C490200603300200B892DE9F3
:10494000F04101220160838005460C4638484FF44F
:104950008061FDF757FA0526364F2146286800F09A
:104960004EFF10B10526334F12E0013E16F0FF0650
:1049700003D100263046BDE8F081384608F0F0F853
:10498000EBE7013E16F0FF06F3D0384608F0E8F8F2
:10499000286800F13C0100F037FF0028F1D005261F
:1049A000244F0021204600F078FF10B10526214F4A
:1049B0000EE0013E16F0FF06DBD0384608F0D0F8D6
:1049C000EFE7013E16F0FF06D3D0384608F0C8F8EE
:1049D0003021204600F06EFF0028F2D00526154F4A
:1049E00006E0013E16F0FF06C3D0384608F0B8F8DE
:1049F0000C21204600F059FF0028F2D00527DFF8EF
:104A0000348006E0013F17F0FF07B2D0404608F0BF
:104A1000A7F80021204600F05AFF06460028F1D0F2
:104A20004FF45471204600F088FF0023AB71A1E7DA
:104A300058270020144400202DE9F0470F468246F5
:104A40000BF073F984B2224D04F108081FFA88F8BC
:104A500006464246002128460AF02FFF7F232B708E
:104A6000230A6E70AB702646002303F103099E42B1
:104A70001FFA89F921DCE11C154889B2FDF71AFA01
:104A80000D22231D05F809009BB2000AE854631D9E
:104A90009BB2EA540A22A31D9BB2EA5400230734B6
:104AA000A4B20B4A2B5598450DDC4246002108481C
:104AB0000AF003FF4046BDE8F0871AF803200133EF
:104AC00005F80920D1E712F8011BF9540133EAE790
:104AD00040200020FFFFFFFF2DE9F0410024844D1E
:104AE000ADF5886D10AB28461919FDF7C6F918B158
:104AF0000134B4F5806FF5D10E22002104A80AF02C
:104B0000DCFE7C4B04AC0FCB07C47B497B4D0846D5
:104B10002370D5F88C301A1F0C3352F8044FA47A46
:104B20009A4241F8044BF8D1002740F67464EB6FC9
:104B3000734A9B7A0361D5F880309B7A4361EB6DB1
:104B40001B681B6803F1C00059680C33A14204BF05
:104B50000137FFB2834242F8041BF5D16A46694B24
:104B600003F10806144618685968083303C4B342B1
:104B70002246F7D118681B79634E2371634B20607E
:104B800008AC224618685968083303C2B342144679
:104B9000F7D1FDF7C1F806469FED530B5C49FDF7D1
:104BA0006BF85C493046FDF7C3F80446286C0AF000
:104BB0009BFB41EC100B58492046FDF75DF8686CF3
:104BC0000AF092FB41EC100B54492046FDF754F8D3
:104BD000EB6D58680AF088FB41EC100B50492046F9
:104BE000FDF74AF80A202B6F58430AF08DFB41EC81
:104BF000100B4C492046FDF73FF84B4B188B0AF041
:104C000073FB41EC100B49492046FDF735F8A86CC1
:104C10000AF06AFB41EC100B45492046FDF72CF8E1
:104C200095F858000AF060FB41EC100B4149204612
:104C3000FDF722F82046404904AAFDF74BF8EB6D3A
:104C400093F85F3053B1102F08D010212C48FDF796
:104C500084F83A4902462046FCF7D5FF062126484B
:104C6000FDF77BF8364902462046FCF7CCFF6A4642
:104C700020463449FDF72EF8334908AA2046FDF7AF
:104C800029F83248FCF78CFF314902462046FCF7F0
:104C9000BAFF95F87C050AF027FB41EC100B204683
:104CA0002C49FCF7E9FF00234FF480622A49304683
:104CB000FCF77AFF29492848FFF7BEFE0024054685
:104CC000264FDFF82C80A3B29D4206D93919404601
:104CD000FDF7B8F801340028F5D13046FCF734FD73
:104CE0000DF5886DBDE8F08100000000000069400E
:104CF0005827002080000008E81F0020DC39002031
:104D0000002000206E490200D5000008C500000800
:104D100020490200F5480200FE4802000249020054
:104D2000064902000E4902009C1D0020164902009F
:104D30001D49020027490200304902003E49020095
:104D4000434902004849020053490200382E00201E
:104D50005B4902006749020070270020702900208B
:104D6000F8B50446B0F801305BBA9BB2DD1CA9B2BD
:104D700003441E79475DFDF79DF823787F2B08D10A
:104D800046EA072686424FF0000304D1E01C635533
:104D9000F8BD0020FCE71846FAE7FFFF2DE9F84FC1
:104DA0000D46814610B90020BDE8F88F9449FCF704
:104DB00027FFFDF720F8934982460AF093FF044647
:104DC000C8B948469049FCF71BFF064698B12146F2
:104DD000FCF710FF044618B12946FFF7DFFF044631
:104DE00001213046FCF706FF10B12946FFF7D6FF38
:104DF0002040C0B2D8E7504684490AF073FF044609
:104E0000C0B948468049FCF7FBFE064690B12146F2
:104E1000FCF7F0FE044618B12946FFF7BFFF044631
:104E200001213046FCF7E6FE10B12946FFF7B6FF38
:104E30002043DEE7504676490AF054FF80460028BA
:104E400071D148467349FCF7DBFE064600286AD05C
:104E50007149FCF7D5FEFCF7CEFF70490746304696
:104E6000FCF7CEFEFCF7B0FF51EC100B0AF07CFB18
:104E70006B4904463046FCF7C3FEFCF7BCFF6949AA
:104E8000834638460AF02EFF20BB6E6C38466649D2
:104E90000AF028FF00B92E6C384664490AF022FF58
:104EA00008B9634B1E8B384662490AF01BFF00B9F4
:104EB0002E6F384660490AF015FF08B9EB6D5E6841
:104EC00058465E490AF00EFF30B9B4422CBF0020AC
:104ED000012069E74646D9E7584659490AF002FFDA
:104EE00020B9B44294BF002001205DE758465549DF
:104EF0000AF0F8FE20B9B4428CBF0020012053E72D
:104F0000584651490AF0EEFE20B9B44234BF0020A1
:104F1000012049E758464D490AF0E4FE18B9A31BA1
:104F20005842584140E7504649490AF0DBFE0646E0
:104F300000287FF438AF48463649FCF761FE074643
:104F400000283FF430AF3449FCF75AFEFCF753FF1A
:104F5000324980463846FCF753FEFCF735FF51ECEA
:104F6000100B0AF001FB2E4904463846FCF748FEB8
:104F7000FCF741FF2B49074640460AF0B3FE00B953
:104F80006E6C404628490AF0ADFE00B92E6C4046D2
:104F900026490AF0A7FE08B9254B1E8B4046254935
:104FA0000AF0A0FE00B92E6F404623490AF09AFE8F
:104FB00008B9EB6D5E68384620490AF093FE002878
:104FC000A3D038461E490AF08DFE002893D03846FB
:104FD0001C490AF087FE002883D038461A490AF097
:104FE00081FE00283FF471AF384618490AF07AFE76
:104FF00000287FF4D8AEA01B18BF0120D4E600BF64
:105000007B49020080490200844902008A4902006B
:105010008D4902006249020092490200964902004D
:105020009C490200A549020074480200A9490200F7
:105030009C1D00200E49020006490200AF490200F3
:10504000B1490200B3490200B6490200B949020061
:10505000BC49020010B5431813F8012C04460F2A6E
:1050600004D8881A204400210AF027FC207810BDBB
:105070002DE9F04F83B004461E26026800AF02F10E
:105080004A052A460621206800F092FC30B94FF408
:105090007A71012009F072FE013EF2D11E262268CB
:1050A00002F144052A460021206800F081FC30B955
:1050B0004FF47A71012009F061FE013EF2D1DFF870
:1050C000F082B8F8003001339BB20A2BA8F8003008
:1050D00067D1A04B1A88002A6BD000269E4D012272
:1050E00028469E491E80FCF7F9FE05F206219C48E1
:1050F000FBF756FB4FF4007231469A480AF0DDFB8D
:10510000AA88974BA91D9748FBF712FBA9889548D9
:10511000FFF7A0FF9348FCF743FD054600286AD03F
:105120009149FCF76DFD0646FCF765FE8F490AF0D4
:10513000D9FD88B98E48FFF7C5FBDFF86492C82116
:105140002068FFF763FB8B492846FCF759FD494669
:10515000FFF724FE89F87C053046FCF74CFE8649B3
:105160000AF0C0FD0646C8B98448FFF7ABFBC8216A
:105170002068FFF74BFB28468149FCF741FD81463B
:1051800060B14FF4807231467E480AF096FB334698
:105190004FF4807248467B49FCF706FD2846FCF731
:1051A000D3FAB8F80030B3F5FA7F04BF0023A8F8AB
:1051B0000030A3792068012B23D0022B00F09181CD
:1051C00083B990F84A30D9070CD5012100F087FB4C
:1051D0006D4B18700121206800F071FB0028F9D098
:1051E0000123A37123680821D868FFF743FA0C371D
:1051F000BD46BDE8F08F4FF4C8712068FFF706FB8D
:10520000CCE790F84A30DA0640F160815F4D4023E8
:105210002A464FF4786100F087FC0023A8F800309C
:105220002B78594E7E2B307057D12B464B4A05F1C7
:10523000400153F8040B8B4242F8040BF9D1DFF81C
:105240001881012240464549FCF748FE002844D019
:1052500008F206214248FBF7A3FA4FF4007200213E
:1052600040480AF02AFB3E4BB8F8042008F106013A
:105270003C48FBF75DFAB8F804103A48FFF7EAFE3D
:105280003848FCF78DFC40B33749FCF7B9FCFCF714
:10529000B2FD3F490AF026FD0146F0B94FF4007215
:1052A0003C480AF00AFB3C493148FFF761FA0146E5
:1052B00058B17860394803F051F8796808460AF027
:1052C000D7FA2B49354803F08FF9C8212068FFF73A
:1052D0009DFA0022324B83F87D252B781D2B21D09F
:1052E0002A48FFF73DFD8046002865D12B78012B29
:1052F00040F0E780014640222A480AF0DEFA45469F
:10530000DFF8B090DFF89C80484608EB0501FCF719
:10531000B4FD10B10135402DF6D122492068FFF7C8
:1053200045FACEE00B4A2049138801339BB2138023
:105330001E4AC3EB83130B4402F13C0152F8040BE9
:105340008A4243F8040BF9D11188198092789A7037
:10535000C6E700BFE41F002040220020402F0020AD
:10536000742D0020E41D0020C0490200C449020041
:10537000CC490200D8490200E2490200EC4902008F
:1053800062490200382E0020702D0020403100209C
:10539000F649020058240020004802006033002033
:1053A000DC39002082310020412F002041310020D3
:1053B0008031002058270020FCF7F2FB4A49804644
:1053C000FCF71EFC8146FCF716FD48490AF08AFCF2
:1053D0000546B8B9FFF780FB4022294644480AF049
:1053E0006CFADFF80CA1DFF824B158460AEB05018E
:1053F000FCF743FD10B10135402DF6D13C49206842
:10540000FFF7D4F94846FCF7F6FC3A490AF06AFC83
:105410008146002852D140463749FCF7F1FB05464A
:1054200000284BD03549FCF7EBFB78B1FCF7E3FCE7
:1054300082462022494632480AF03FFA5146304817
:105440000AF05AFCC8212068FFF7E0F928462D49E8
:10545000FCF7D6FB90B3FCF7CEFCE94690B00346D0
:10546000EC46DFF8ACE0DFF8ACA003AA754603CD4C
:10547000554510605160AE4602F10802F6D1286829
:1054800003F10C011060624653F8040B8B4242F8A2
:10549000040BF9D11B78137062B6402301226046D9
:1054A000194904F081FD05466420EDB204F0EBFDDE
:1054B000CD469DB9C8212068FFF7A8F94046FCF702
:1054C00043F90121206800F00AFA3070236893F84C
:1054D0004A30DB073FF586AE022382E64FF4C871FF
:1054E000E9E700237DE600BFC0490200FF49020052
:1054F00082310020034A0200F548020053490200AD
:1055000030340020084A020080000008582700209C
:105510008C000008BC00000870B5264C01220D4626
:1055200001462046FCF7DAFC04F206212248FBF78C
:1055300037F94FF40072002120480AF0BEF9A28822
:105540001D4BA11D1D48FBF7F3F8A1881B48FFF771
:1055500081FD1A48FCF724FB044638B31849FCF7D0
:105560004FFB0646FCF747FC16490AF0BBFB68B93F
:1055700015492046FCF744FB2946FFF70FFC85F848
:105580007C052046FCF7E0F8012070BD3046FCF7B2
:1055900032FC0E490AF0A6FB08B985F87C052046C6
:1055A000FCF7D2F8002085F87C05EEE785F87C054D
:1055B000EBE700BF40220020742D0020E41D0020F6
:1055C000C0490200C4490200D8490200F64902005D
:1055D00038B5224C014601222046FCF77FFC04F23C
:1055E00006211F48FBF7DCF84FF4007200211D482C
:1055F0000AF063F9A2881A4BA11D1A48FBF798F824
:10560000A1881848FFF726FD1648FCF7C9FA04469A
:1056100008B31549FCF7F4FAFCF7EDFB13490AF05F
:1056200061FB0546A0B920461149FCF7E9FA04469A
:1056300060B14FF4807229460E480AF03EF92B46BD
:105640004FF4807220460B49FCF7AEFA012003E0CC
:105650002046FCF779F8002038BD00BF402200202A
:10566000742D0020E41D0020C0490200E249020020
:1056700062490200382E00200F4B10B518464FF437
:10568000007200210AF019F90C4C01464FF4007227
:105690000B48FFF735F94FF48072002120460AF0DD
:1056A0000CF9214607484FF48072FFF729F920468C
:1056B000BDE81040FFF78CBF58240020582600207A
:1056C000CC490200EC490200552373B540F2013287
:1056D000224900930446224B224800F081F82149D8
:1056E0002148FFF72BF930B10023237602B0BDE843
:1056F0007040FFF7C1BF0123062623761B4D1C4CCB
:10570000D5F8C82040F20231C2F3400282F0010213
:10571000204607F0BDFA6A6B0D21C2F3400282F009
:105720000102204607F0B4FAAA6B0E21C2F3400230
:1057300082F00102204607F0ABFAD5F8982040F23B
:105740000621C2F3400282F00102204607F0A0FACF
:10575000642004F098FC013ED2D1C7E7C41D0020AC
:10576000CC1D0020D4310020382F00200008084034
:105770007C42002073B5C5688DF80710C1792846B2
:1057800016461C46FEF776FF18B90024204602B0E4
:1057900070BD0023012228460DF10701FEF77DFFB1
:1057A0000028F2D0214601232846B2B2FEF7A7FF17
:1057B00004462846FEF769FFE8E713B58DF8062092
:1057C0000422FE248DF805108DF807300DEB020140
:1057D0000123C0688DF80440FEF75FFF02B010BDE2
:1057E00010B40446184622810022019BE160E37157
:1057F00022612275A0615DF8044BFEF7B4BF0B4631
:1058000007220021FFF7B6BF38B50D4C0D462346E1
:1058100010223A21FFF7AEFF80B1204623782B708B
:1058200063786B70A378AB70E378EB7023792B719E
:1058300063796B71A379AB71E379EB7138BD00BF0C
:10584000C23100207FB5FE2304468DF80110C179D6
:10585000C06816468DF80030FEF70CFF00230222C8
:105860006946E068FEF719FF80B1012369461A46D0
:10587000E068FEF744FF054640B1E068FEF705FF2B
:105880009DF800303370284604B070BDE068FEF724
:10589000FCFE0025F7E7FFF7D5BF002914BF8023E2
:1058A000002380220021FFF788BF0B460C22002135
:1058B000FFF783BF0B4630220021FFF77EBF002990
:1058C00014BF4023002340220021FFF776BF0029A8
:1058D00014BF0223002302220021FFF76EBF30B560
:1058E000002485B001910DF10F02214605468DF887
:1058F0000F40FFF7D0FF9DF80F20019B02F0010140
:10590000994211D012F0400111D021462846FFF7EC
:10591000D6FF214601222846019BFFF74EFF0121B9
:1059200004462846FFF7CBFF204605B030BD0122D4
:105930002846FFF742FF0446F6E770B5CBB20C46A7
:10594000FF2203210546FFF738FF38B12846230A16
:10595000FF22BDE870400421FFF72FBF70BDF8B5EE
:10596000044680F82C10C179C06817461D46FEF722
:1059700081FE00230122E06804F12C01FEF78DFE78
:1059800008B90020F8BD04F11C060123102231469D
:10599000E068FEF7B4FE0028F3D0102D28BF1025D4
:1059A0000023AB42EED216F8012BFA540133F8E78C
:1059B00038B5FE23044680F82C3080F82D10C179CC
:1059C000C0681546FEF756FE00230222E06804F187
:1059D0002C01FEF762FE08B9002038BD0123E06803
:1059E0001A4604F11C01FEF78AFE0028F4D0237F3A
:1059F0002B70F2E773B5102B0D466FF02C064FF0AD
:105A00000001044628BF10238DF8071080F82C50A1
:105A1000013A00F12D01361A7018834232D8591C10
:105A2000C9B2C3F11002102903F12D0388BF01226E
:105A300054FA83F0002109F040FFE179E068FEF7B5
:105A400019FE01231122E06804F12C01FEF725FE66
:105A50000646E0B10835EDB2032D18D9032505201F
:105A600004F011FB062120460DF10702FFF7A0FF0D
:105A700030B9013D0BD09DF807309B07EFD430467D
:105A800002B070BD12F8010F01F8010BC4E700204D
:105A9000F6E72DE9F74F07468A46914698460026D5
:105AA00000F11C0B464501D3012019E00AEB060466
:105AB000C4F3071104F00F04A8EB0605C4F11003AA
:105AC000ADB29BB29D4228BF1D46102D28D00023A9
:105AD00038461A460191FFF742FF019918B100209C
