:020000021000EC
:10000000C0990020E5E701002DE60100E1E70100CD
:10001000E1E70100E1E70100E1E70100E1E70100BC
:10002000000000000000000000000000E1E7010007
:10003000E1E7010000000000E1E70100E1E7010065
:10004000C9DC010079DD010071DE010079DD01000C
:1000500071DE0100DDCA0100E9CB0100B9CC01006D
:100060004DCD0100A9E40100D9C2010001C2010087
:1000700079C30100B9C30100E1D001005DE00100D6
:10008000E1D00100E1D00100D9D501006DD501001A
:1000900019BC010089BC010031BD010085BD010012
:1000A000E1D001000000000000000000000000009E
:1000B0000000000000000000000000000000000040
:1000C0000000000000000000000000000000000030
:1000D0000000000000000000000000000000000020
:1000E0000000000000000000000000000000000010
:1000F0000000000000000000000000000000000000
:1001000000000000000000000000000000000000EF
:1001100000000000000000000000000000000000DF
:1001200000000000000000000000000000000000CF
:1001300000000000000000000000000000000000BF
:1001400000000000000000000000000000000000AF
:10015000000000000000000000000000000000009F
:10016000000000000000000000000000000000008F
:10017000000000000000000000000000000000007F
:10018000000000000000000000000000000000006F
:10019000000000000000000000000000000000005F
:1001A000000000000000000000000000000000004F
:1001B000000000000000000000000000000000003F
:1001C000FFFFFFFFFFFFFFFFFFFFFFFFFFFFFFFF3F
:1001D000FFFFFFFFFFFFFFFFFFFFFFFFFFFFFFFF2F
:1001E000FFFFFFFFFFFFFFFFFFFFFFFFFFFFFFFF1F
:1001F000FFFFFFFFFFFFFFFFFFFFFFFFFFFFFFFF0F
:1002000010B5054C237833B9044B13B1044800E012
:1002100000BF0123237010BDD81A00200000000089
:100220000852020008B5034B1BB10349034800E024
:1002300000BF08BD00000000DC1A002008520200C8
:1002400002440139824200D1704712F8013D01F8A1
:10025000013FF7E7F0B500240A2785B0CDE9004457
:10026000CDE902440D460F49661C04F1100309282C
:10027000F2B26B440CD8095C684603F8101C29469E
:10028000FFF7DEFF002230462B195A7005B0F0BD93
:10029000B0FBF7F407FB1400085C03F8100C2046D1
:1002A0001446E1E778310200021E08B503DBBDE821
:1002B0000840FFF7CFBF2D23504201F8013BFFF765
:1002C000C9FF013008BD70B50025013A12B2954250
:1002D000ABB202DD2B4698B270BD541B04EBD47454
:1002E00003EB64039CB21BB231F813608642F2D078
:1002F0008BBF013404F1FF3225B212B2E7E7B5EE4D
:10030000C00AF1EE10FA48BFB1EE400A7047FFFF95
:1003100038B517A5D5E900452DED048BB7EE008A59
:10032000F0EE408AB0EE489AF6EE009A28EE087A8F
:10033000C7EE287A77EEC97AF5EEC07AF1EE10FAB8
:1003400048BFF1EE677A17EE900A0EF015FC2246D0
:100350002B460EF0DDFC20B9B0EE480ABDEC048B54
:1003600038BD88EE880A30EE088A28EE298ADDE753
:100370002D431CEBE2361A3FF7EE007A20EE007AAE
:1003800030EE270AF6EE007A07EE270A7047FFFFE5
:10039000B5EEC00AF1EE10FA03D405DDB7EE000A9F
:1003A0007047BFEE000A70479FED010A704700BF1B
:1003B00000000000F0B585B004AC04E90300694614
:1003C00081E80C009DF80D309DF80C10144611FBCF
:1003D00003F16FF0404601230A9D8B4201DD05B019
:1003E000F0BD9A1905EB820700EB820C04EB820248
:1003F000DCED007A92ED007A77EE877A0133C7ED73
:10040000007ADBB2E9E7F0B585B004AC04E903009B
:10041000694681E80C009DF80D309DF80C101446DB
:1004200011FB03F16FF0404601230A9D8B4201DD71
:1004300005B0F0BD9A1905EB820700EB820C04EBC6
:100440008202DCED007A92ED007A77EEC77A013312
:10045000C7ED007ADBB2E9E77FB504AC04E903003D
:10046000694681E80C009DF80D309DF80C1014468B
:1004700011FB03F16FF0404501238B4201DD04B015
:1004800070BD5A1900EB8206366804EB8202013314
:100490001660DBB2F1E7FFFF7FB504AC04E90300AF
:1004A000694681E80C009DF80C309DF80D1014464B
:1004B000994238BF19469FED0B0A01236FF0404562
:1004C0008B4201D904B070BD5A1900EB820604EBCF
:1004D000820296ED007AD2ED007A013307EE270A08
:1004E000DBB2EDE7000000007FB504AC04E90300D7
:1004F000694681E80C009DF80D309DF80C101446FB
:1005000011FB03F16FF0404501238B4201DD04B084
:1005100070BD5A1904EB820600EB8202D2ED007A1C
:1005200067EE807A0133C6ED007ADBB2EDE7FFFFBC
:100530002DE9F04F89B004AC84E803009DF84D60CC
:100540009DF84C0002A98DF81C0010FB06F081E814
:100550000C0080009DF815809DF80D900EF0A6FD12
:10056000012405466FF04047049B9DF814B0DDF868
:1005700008A00093A34530D3631E03FB06FC03FBD6
:1005800008FE012320E0511E09FB013139440AEB2A
:10059000810101910EEB02000099384401EB8000CB
:1005A000019990ED007AD1ED006A46EE877A01322A
:1005B000D2B29045E7D20CEB03023A4405EB82023B
:1005C000C2ED007A0133DBB2994502D20134E4B2C4
:1005D000D0E7DFED097A0122EBE706958DF81D6083
:1005E00012AB08A90CCB11E90300FFF735FF09B0E6
:1005F000BDE8F04F0EF062BD000000002DE9F04FA5
:1006000087B006AC04E9030002A981E80C00009061
:10061000002301209DF815709DF80DC09DF845E060
:10062000129D9DF81490DDF84080019281454ED3D3
:10063000441E012204FB07FB013B10E00BEB020A06
:10064000009E0AF1804A0AF1FF3A06EB8A0ADAF8BC
:1006500000A005EB81010132C1F800A0D2B2D1188F
:100660009742C9B2EAD2012204FB0CFA01395318AD
:100670009445DBB20CD2012204FB0EF403F1FF3AE5
:1006800002EB0A039645DBB214D20130C0B2CDE7CB
:100690000AEB020B019E0BF1804B0BF1FF3B06EBCB
:1006A0008B0BDBF800B005EB83030132C3F800B01D
:1006B000D2B2DCE7A11801F18041013908EB8101D8
:1006C000096805EB830301321960D2B2D8E707B09D
:1006D000BDE8F08F82B02DE9F34102AC04E90300DC
:1006E0000746002601216FF0404E9DF804C0099393
:1006F0008C4516D301EB0E05002407EB850505E0BC
:10070000D5F8008003EB8000C0F800803019013478
:100710005FFA84F84245C0B2F2D201310646C9B24E
:10072000E6E702B0BDE8F04102B070472DE9F04FB6
:100730008BB006AE86E8030004A981E80C009DF8A2
:1007400014709DF81550804617FB05F080000EF0E0
:10075000ADFC044600B9FEE7089096E803000126C8
:100760008DF824708DF825500AAB13E90C00FFF7C3
:1007700073FE6B1C9B000393B7425AD202230026E0
:10078000AD00D8B2874262D2DDE904230AA911E99B
:100790000300FFF761FE20460BB0BDE8F04F0EF0FE
:1007A0008DBCF9EC017A4FF0000CDDF808B004EBD9
:1007B000810E0CF1010C5FFA8CF39A420EF1040EDB
:1007C0002BD8D0ED006A87EEA67AAAEC017A039BBB
:1007D0000132D2B2184429449642E2D8019B6B43BD
:1007E000F21802F18042013A4FEA820908EB8202D4
:1007F00092ED000A002204EB83030132D1B28E4253
:1008000003F1040310D8FFF77AFDFFF781FDA1443F
:10081000013689ED000AF6B2AEE7FBEC016A1EED87
:10082000017A46EEC77AC4E753ED017A07EEE70A8C
:10083000E3E7731E05FB03F204EB820A08EB82096F
:100840002046002101220193CDF808A0C4E701222F
:1008500004EB830101325FFA82FC604541F8046CCD
:100860002944F7D801338CE7002210B5044610461E
:10087000A15CA1F13003092B0BD8A0F13003032AAE
:1008800001EB030002F1010218BF0001042AEFD1BD
:1008900010BDA1F14103052B02D8A0F13703EEE70B
:1008A000A1F16103052B02D8A0F15703E7E700206F
:1008B000EEE7FFFF2DE9F84F0A688B6880465D1C64
:1008C000D018D35C8A46222B154440F0DD802F4699
:1008D00000234C68B91AA14280F0D68039782229C9
:1008E0000ED1C3F10103381ADAF8102018449047EA
:1008F0008346002800F0C8800446DFF898910FE096
:100900005C2905D10137B91A8C4240F2BD80013310
:100910000137DFE72B785C2B12D0013504F8013B5F
:10092000BD42F7D30023237010230120C8E9033B05
:10093000DAF80030FB1A0133CAF80830BDE8F88F46
:100940007A1B002A0DDD6B78752B0AD86D2B12D817
:10095000622B2BD026D82F2B29D05C2B27D0222BF3
:1009600025D05846DAF814309847DAF80000281AEB
:10097000CAF808008BE06E3B072BF2D801A151F8B2
:1009800023F000BFB90901006309010063090100F8
:1009900063090100BD09010063090100C1090100EB
:1009A000C5090100662BDCD10C2300E0082304F804
:1009B000013B02231D44B3E70A23F8E70D23F6E7C2
:1009C0000923F4E7052ACCDDA81CFFF74DFFA0F5AD
:1009D0005C43B3F5806F0646C3D3A0F55843B3F527
:1009E000806F2DD2AB1DFB1A052BBADDAB795C2BCA
:1009F000B7D1EB79752BB4D105F10800FFF734FFBF
:100A0000A0F55C43B3F5806FABD20C2309EA8626D0
:100A1000C0F30900304300F580364FF0F00C04209D
:100A200000F1FF3E54FA8EFEA645F2B224D1012811
:100A300014BF42EA0C0202F07F0222700444B9E7BC
:100A40007F280AD9B0F5006F0CD3B0F5803F0ED3E4
:100A5000B0F5881F85D20623DFE706234FF0000C90
:100A60000120DDE706234FF0C00C0220D8E7062363
:100A70004FF0E00C0320D3E702F03F0262F07F0169
:100A80000EF80119B609CFE7002D7FF46EAF0020F4
:100A900054E700BF00FC0F0010B528B1016889B110
:100AA000D0E901329A4202D310BD013282608268DD
:100AB000934203D98C5C202CF7D9F5E7F4D1013BA4
:100AC0008360F1E70846EFE738B5044638B10068BF
:100AD00028B1A56828440EF04EFD2844A06038BD1A
:100AE00070B50446B8B1056865B1436813B1826852
:100AF000934210D900290EDBA2684E1C1644B34263
:100B000002D31544284670BD236923B9B6F1804F3E
:100B100003D3002E0FDA0025F4E77600236A6BB1C9
:100B20002846314698470546B0B9E369206898479A
:100B3000C4E90055E6E76FF00046EFE73046A369E9
:100B4000984705460028F0D0A268216801320EF0CF
:100B5000CDFAE36920689847A368C4E900561D44AC
:100B6000D0E7FFFFF8B50D460446002834D0002931
:100B700031D08468FAB9194E74B3236AC3B1AB4259
:100B800021D005F1FF3C013B1CF8011F0F468A5D97
:100B900002F00302012A13F8012F08BF01F1200718
:100BA000B05C00F00300012808BF203297420FD04C
:100BB0002468E1E724687CB1216A21B128460EF05F
:100BC000B7FC0028F6D1236A002B08BF002403E0FD
:100BD0000029D9D1F7E70C462046F8BDA94D0200FF
:100BE00081B138B181420DD0836823B98160C1E9F8
:100BF0000031012070475A68002AFAD011604A601B
:100C00005960F6E7002070472DE9F84F0646084680
:100C100011B90020BDE8F88F36B331464FF0000A15
:100C20000124424F0D4611F8013B3BBBAD1B55441F
:100C3000E91CFFF755FF07460028EAD04FF0220BCA
:100C4000441C05F1010905F1020880F800B0BAF171
:100C5000000F29D12A46314620460EF047FA07F800
:100C600009B007F808A007E00321FFF739FF0028C3
:100C7000CFD02F490EF066FC0120CBE7222B0BD8FA
:100C8000072B0CD9A3F10802D2B204FA02F23A42BD
:100C900005D00AF1010AC5E75C2BC3D1F9E71F2B88
:100CA00098BF0AF1050ABDE75C254FF0740ADFF82A
:100CB00084B0013E16F8013F2BB9222207F8092023
:100CC00007F80830D8E71F2B07D9222B05D05C2B5B
:100CD00003D020462370441CECE7204600F8015B5B
:100CE00032780D2A0AD8072A1AD9A2F10803052B4F
:100CF00016D8DFE803F009120E150C10222A01D0D5
:100D00005C2A0DD16270E6E762236370E3E7662335
:100D1000FBE76E23F9E77223F7E784F801A0DAE72F
:100D200059460EF067FB601DD5E700BF3700000491
:100D3000823102008531020037B5054680B10EF0E0
:100D40001AFC084B421C10461B6801929847044647
:100D500018B12946019A0EF0C9F9204603B030BDFA
:100D60000446FAE790060020F8B50D4614460746FB
:100D700000B3F9B1F2B190421CD093B1D66846F4F9
:100D80000076E3689B0504D4206A10B10A4B5B68C7
:100D90009847214638462562E660BDE8F840FFF7EF
:100DA0001FBF0846FFF7C8FF054618B1E66826F4DE
:100DB0000076E6E70020F8BD90060020034610B557
:100DC00028209847044618B1282200210EF09BF9EC
:100DD000204610BD2DE9F04F0C4680468DB008B975
:100DE00000255DE00029FBD0057B102D00F00E8171
:100DF00018DC6B1E072BF3D8072BF1D801A252F891
:100E000023F000BF8F0E0100A90E0100E10D0100CB
:100E1000790E0100E10D0100E10D0100E10D01007D
:100E2000B90E0100402D00F02081802D00F0D98006
:100E3000202DD5D1866801212046FFF751FE0028DC
:100E4000CED05B232C274FF000080370A36801333A
:100E5000A360E3680133E360002E40F0DD800221EF
:100E60002046FFF73DFE0028BAD05D234670037090
:100E7000E368013BE36008E005212046FFF730FE10
:100E80000028ADD092490EF05DFB012508E0062157
:100E90002046FFF725FE0028A2D08E490EF052FB17
:100EA00028460DB0BDE8F08F05212046FFF718FE5B
:100EB000002895D08849E6E70021D0E90667162288
:100EC00006A805910EF01FF9002200233046CDE957
:100ED0000223394632463B460DF02EFF90B927F0EB
:100EE000004B4FF0FF32304659467C4BB2460DF076
:100EF00023FFF0B94FF0FF3230465946774B0DF0E3
:100F0000FDFEB0B9724905A80EF01CFB0425204671
:100F1000691CFFF7E5FD00283FF462AF034605A911
:100F20004619B34257D100234355A0682844A06016
:100F3000ABE7D8F8145028460DF00CFE02460B46DD
:100F4000304639460DF0C6FE48B12A46644905A828
:100F50000EF050FA0546192D3FF642AFD7E732465C
:100F60003B46604905A80EF045FA5F49054602AACE
:100F700005A80EF05FFA012826D1DDE9028929F0E3
:100F80000043CDF8008001935046DDE90023594627
:100F90000DF0AAFE08B9CDE900AB32463B4640460B
:100FA00049460DF089FC00228046504B21F0004953
:100FB000DDE9000111F0DAFC02460B4640464946E5
:100FC0000DF09CFE0028C6D132463B46484905A894
:100FD0000EF010FABEE711F8012B013303F8012CD3
:100FE0009FE7006900283FF4FBAE0EF0C4FA421CF4
:100FF000114620460092FFF773FD00283FF4F0AE43
:10100000009AD8F810100EF071F83EE700690DB0A4
:10101000BDE8F04FFFF7F8BD21463046FFF7DAFE96
:1010200000283FF4DDAE2046FFF74EFD3368BBB12C
:1010300063692046002B14BF4FF002094FF00109ED
:1010400009F10101FFF74CFD00283FF4C9AE07701C
:1010500063693BB9431C83F80080A3684B44A360D9
:101060003668F9E6831C4570F5E74B698568002B07
:1010700014BF022601262046711CFFF731FD00280F
:101080003FF4AEAE7B230370E26863690132E26035
:101090000BB10A234370A3683A2733440926A3609F
:1010A00063693DBB002B00F08580E168013120467B
:1010B000FFF716FD00283FF493AE6369002B40F064
:1010C000838003467D221A7000225A70D0E600BF4A
:1010D0008B3102009031020096310200FFFFEF7F5A
:1010E0009B3102009E310200A53102000000B03C9D
:1010F000A931020073B12046E168FFF7F1FC002836
:101100003FF46EAE0246E168131A99424FD8A368C5
:101110000B44A3602146286AFFF776FD00283FF4C0
:101120005FAE2046FFF7D0FC63692046002B14BF5A
:101130004FF002084FF001084146FFF7D1FC0028AC
:101140003FF44EAE0770636903B14670A368214651
:1011500043442846A360FFF73DFE00283FF440AE1D
:101160002046FFF7B1FC2B686269B3F1000818BF95
:101170004FF00108002A18BF08F10108204608F1C5
:101180000101FFF7ADFC00283FF42AAE2B6813B134
:101190002C2300F8013B636913B10A2300F8013BDB
:1011A00000230370A3682D684344A36078E702F826
:1011B000016BA8E702217AE703F8015BE268191ADC
:1011C000013A8A42F8D87DE703460925F6E700BFD1
:1011D00070B504460F4D04B970BDE3682668D905A3
:1011E00003D4A06868B9206988B9E3689B0503D473
:1011F000206A08B16B68984720466B689847344668
:10120000E9E7FFF7E5FFE368DA05ECD5EDE76B68A2
:101210009847EAE7900600202DE9F04706460C467D
:1012200092B009B9002023E00F68002FFAD08D6832
:10123000D1F8048005F10409C1450BD80422924974
:1012400078190EF0A0F928B90423F360C4F80890C7
:1012500001200DE005F1050AD0450CD305228B498C
:1012600078190EF090F930B90120F060C4F808A0A8
:1012700012B0BDE8F087C1450CD804228449781922
:101280000EF081F930B902230120F3607061C4F8D7
:101290000890EDE74545C5D27B5D7819222B06D134
:1012A0002146304612B0BDE8F047FFF703BB2D2BB7
:1012B00003D0A3F13002092A62D8002302AA1746FC
:1012C0004FF02E0E0193A8EB050510F8011B3929EC
:1012D00010D82A291BD9A1F12B0CBCF10E0F16D85E
:1012E000DFE80CF00D150D3B150D0D0D0D0D0D0D61
:1012F0000D0D0D0001F0DF0CBCF1450F07D1117091
:1013000001333F2B02F1010201D0AB42DDD10025B8
:1013100048336B44384603F8405C01A90EF076FF71
:10132000DDF804A059EC108BBA453FF47BAF54A311
:10133000D3E9002386ED060B10EE100A49460DF0A6
:10134000E7FC68B16FF0004373610823AAEB070A5A
:10135000A768F3605744A7607AE782F800E0CFE718
:101360000022404649464B4B0DF0C8FC10B14FF0EF
:101370000043E9E7404649460DF0F4FC7061E4E7BC
:101380005B2B54D1E368B3F57A7FBFF44BAF0133E5
:10139000E3607B5D5B2B7FF445AF01352046A560A4
:1013A000FFF77AFBD4E90123934264D22268D25C2E
:1013B0005D2A0DD100252F46E368013BE36007B1AC
:1013C0007D602023C6E90273A3680133A3603FE771
:1013D00000252F46013BA3602069FFF7EFFCA846DC
:1013E0000546002800F09D80FFB1C8F80000C0F855
:1013F0000480A36820460133A360FFF74DFB21461C
:101400002846FFF709FF002800F08E802046FFF7EE
:1014100043FBD4E90123934280F086802268D35CA9
:101420002C2BD9D05D2B7FD1C6E70746E1E77B2B7C
:101430007FF4F8AEE368B3F57A7FBFF4F3AE01331F
:10144000E3607B5D7B2B7FF4EDAE01352046A5602C
:10145000FFF722FBD4E9012393420CD22268D25C2D
:101460007D2A19D100252F46E368013BE36007B1CF
:101470007D604023A6E7013BA360D3E6AFF3008085
:101480000000C0FFFFFFDF418B31020090310200FE
:10149000963102000000E0C100252F46A846013B1E
:1014A000A3602069FFF78AFCA9460546002838D0CA
:1014B000AFB3C9F80000C0F80490A3682046013318
:1014C000A360FFF7E9FA21462846FFF7F3F958B37E
:1014D0002046FFF7E1FA2B69C5F810802B62D4E9AA
:1014E0000123934220D22268D25C3A2A1CD10133D4
:1014F0002046A360FFF7D0FA21462846FFF78CFE6E
:1015000090B12046FFF7C8FAD4E9012393420BD2E9
:101510002268D35C2C2BC4D07D2B05D1A4E70746D1
:10152000CBE7002F3FF47EAE3846FFF751FE79E659
:101530002DE9F04305464FF0000989B02E4F0C46C7
:10154000164600211C2201A898460DF0DCFDC7E9D3
:101550000099002D46D0002C39D0284BCDE90154FC
:1015600093E8070008AB03E90700FFF727FC0446F0
:1015700068B3019870B1039B5BB9029B042B06D939
:1015800003221F490DF0FFFF08B90323039301A8AD
:1015900000E04846FFF780FA01462046FFF73CFE90
:1015A00090B1B8F1000F04D1F6B9204609B0BDE8FA
:1015B000F08301A8FFF770FADDE90223934203D21A
:1015C000019AD35C002BEFD02046FFF701FEDDE946
:1015D00002329A420DD303B1013B0EB1EA183260D8
:1015E000C7E900530024E0E7019B039A13443360EA
:1015F000DBE71346F1E700BFF41A00209006002055
:10160000B031020037B50D460446019250B10DF0DD
:10161000B2FF2A46411C2046019B03B0BDE8304082
:10162000FFF786BF03B030BD00221146FFF7EABFC7
:10163000F0B515468BB006460C462422002101A8C1
:101640001F460DF060FD002D11DB94B10123CDE9A3
:101650000537094BCDE9014593E807000AAB03E9DB
:101660000700304601A9FFF7B5FB0BB0F0BD002025
:10167000FBE72046F9E700BF900600200022FFF7B5
:1016800071BA0023FFF770BB174BD0B5186857EC41
:10169000106BFFF793FB044670B10823C0E906679F
:1016A000C36039460EA3D3E9002330460DF030FB6A
:1016B00020B16FF0004363612046D0BD0022304668
:1016C00039460A4B0DF01AFB10B14FF00043F2E718
:1016D000304639460DF046FB6061EDE7AFF3008020
:1016E0000000C0FFFFFFDF41900600200000E0C1C6
:1016F00037B505460191FFF7C7FF002302460446B0
:1017000001992846FFF730FB054618B92046FFF738
:101710005FFD2C46204603B030BDFFFF38B50A4BB5
:1017200005461868FFF74AFB044658B11023C3600A
:101730002846FFF701FB0546206118B92046FFF750
:1017400047FD2C46204638BD9006002037B505469B
:1017500010460191FFF7E2FF00230246044601997B
:101760002846FFF701FB054618B92046FFF730FD74
:101770002C46204603B030BD08B5044B1868FFF76F
:101780001DFB08B12023C36008BD00BF90060020E8
:1017900008B5044B1868FFF711FB08B14023C3607C
:1017A00008BD00BF9006002037B505460191FFF740
:1017B000EFFF00230246044601992846FFF7D4FABA
:1017C000054618B92046FFF703FD2C46204603B016
:1017D00030BD2DE9F843B1F10009804603DA002459
:1017E0002046BDE8F8830028F9D0FFF7C5FF0026A2
:1017F00004463746002CF2D0B94504D8A368002B24
:10180000EED05E60ECE758F827000DF0A3F941EC4C
:10181000100BFFF739FF054618B92046FFF7D8FC33
:10182000DDE71FB9A0602E460137E3E73060466070
:10183000F9E720B1007BA0F10803584258417047F6
:1018400008B50246FFF7F5FF10B192ED060B08BD93
:101850009FED010BFBE700BF000000000000F87FD8
:1018600020B1007BA0F1100358425841704708B5E1
:101870000246FFF7F5FF00B1106908BD70B50D46CF
:101880001646044618B918200DF010FC0446002333
:1018900063614FF0FF33681CC4E90106E3607043E5
:1018A00023610DF003FC206020B90348BDE87040BF
:1018B0000DF080BD70BD00BFB431020038B5C56801
:1018C00043680135B5FBF3F203FB12550369044687
:1018D000AB420CD02368C068A26802FB00300DF058
:1018E00005FC0120E56063690133636138BD0020B8
:1018F000FCE710B50446E268236908469A4213D013
:101900002368A268216902FB01310DF0EFFB236916
:1019100062680133B3FBF2F1012002FB1133236152
:101920006369013B636110BD0020FCE74FF6FF7265
:1019300010B5074C0144884201D1104610BD10F883
:10194000013B5340DBB234F8133083EA1222F2E752
:10195000C6310200D0ED037A9FED1B7AF4EEC77A10
:10196000F1EE10FA10B504462DED028B03D50020E0
:10197000BDEC028B10BD9FED157AF4EEC77AF1EE47
:1019800010FAF4DC90ED000AFEF7B9FC9FED108A26
:10199000B4EEC80AF1EE10FAE9D494ED010AFEF7AC
:1019A000AEFCB4EEC80AF1EE10FAE0D494ED020AEF
:1019B000FEF7A5FCB4EEC80AF1EE10FA54BF012000
:1019C000002040B2D4E700BF0000A0420000C8429F
:1019D0006F12833A044B0360044B4360044B8360F3
:1019E000044BC360704700BF8155854260559543E5
:1019F000DD40A7440000C8429FED1A7AC0EE077A86
:101A0000F8FE677A67EE877AC0ED017A07EE901AE2
:101A10009FED157AF8EEE76A0029C6EE877ABCBF1B
:101A20009FED127A67EE877AC0ED007ADFED107ACB
:101A300090ED007A27EE277ADFED0E7AC7EE276A5F
:101A4000D0ED047A77EEE67A0029B8BF494214292E
:101A5000C8BFB0F84030C0ED047AC4BF0133A0F86D
:101A6000403070476F12833A0000C8C3CDCC8C3F22
:101A70003433333F00006145D0ED017A90ED020A26
:101A800037EEC00AC0ED027A10B580ED030A0446B5
:101A9000FEF735FCDFED137AB4EEE70AF1EE10FA4B
:101AA00003D50023E360236110BDDFED0F7A94EDD1
:101AB000047ADFED0E6A27EE277AD4ED037A67EE1B
:101AC000A67AC7EE276ADFED0A7AF4EEE76AF1EE4E
:101AD00010FAE6D4F7EE087AF4EEE76AF1EE10FABF
:101AE000DFDCE1E70AD7233C0000614500007346D4
:101AF0003333333F90ED037A9FED526A67EE075A16
:101B000010B5DFED516A2DED028BD0ED0C7A85EE2C
:101B1000868A07EEA68AD0ED047A27EE277AC7EEEA
:101B2000065A90ED0D5AB0EE657A67EEA77A05EE8B
:101B3000267A80ED067A87EE867AD0ED0E5AF0EEA0
:101B4000477A45EEA67A80ED058AC0ED077A9FEDCB
:101B50003F0A0446FEF7DCFBF0EE408A9FED3B0AAD
:101B6000FEF7D6FBD4ED077A28EE800A00EE678AEE
:101B70009FED360AFEF7CCFBF0EE488AB0EE408AC5
:101B80009FED320AFEF7C4FB38EE088A28EE008A81
:101B900094ED060A28EE008A88EE880A84ED0A0A87
:101BA00020EE008A9FED290AFEF7B2FBF0EE408A94
:101BB0009FED260AFEF7ACFB28EE800AF7EE008ABE
:101BC000C8EE807A37EE880AFEF7A2FBD4ED0A7AD7
:101BD00030EE670ADFED1E7A84ED090A9FED1D7A6B
:101BE00020EE270ADFED1C6A20EE070A80EE267A37
:101BF000B4EEE77AF1EE10FA94ED0F0A77FE877AE9
:101C0000C4ED087A30EE670AFEF779FBB4EEE80A15
:101C1000F1EE10FA114B13D5226AE2636269226376
:101C2000A2696263E269A26301221A700022BDEC1C
:101C3000028B2261002293F90000A4F8402010BD1D
:101C40000022F2E78FC2F53A77BE7F3F66CF8B3A2C
:101C50000000C8420000614500007346FC1A0020E5
:101C6000D0ED0F7AF8FE677AFCEEE77A17EE900A6D
:101C700070470169B0F91830D1ED007AF4EE407A7E
:101C8000F1EE10FA01EB830237FE800A52ED017A81
:101C9000F4EE407AF1EE10FA4FF0000248BFB0EED9
:101CA000670A30B595B29D424FEA850409DA0D19ED
:101CB000D5ED007AF4EEC07AF1EE10FA02F10102ED
:101CC000F0DBC368234493ED000A30BDC16830B532
:101CD000D1ED007AF4EE407AF1EE10FAB0F9184046
:101CE00037FE800A01EB840353ED017AF4EE407A6B
:101CF000F1EE10FA4FF0000248BFB0EE670A93B25F
:101D0000A34202DBDFED0F7A19E09D0001EB8303B4
:101D1000D3ED007AF4EEC07AF1EE10FA02F101028E
:101D2000EDDB426903692A442B4470EE677AD2EDF9
:101D3000006A93ED007A07EEA67AC7EE007AB0EE5D
:101D4000670A30BD00000000D0ED007ADFED386A90
:101D5000F8EE677AF8B50122002387EEA67A2DED1A
:101D6000028BC0E90E23436B324A334E1A60334A6A
:101D700000245A60324A9A603368324A83ED007A0E
:101D80009FED317AD0ED036AC6EE877A2F4B02F1D0
:101D900020071B68C3ED007A5C609C602C4B1B68BD
:101DA000154603CDBD42186059602A4603F1080369
:101DB000F6D1B7EE008A2868264F18603D682022C9
:101DC0000021281D0DF09FF985ED008A9FED220A64
:101DD000FEF7D2FA85ED040A204D3B682F6883EDAB
:101DE000088A14220021381D0DF08DF91C4B9FED3F
:101DF0001A0A3B60FEF7C0FA38EE400ABDEC028BCF
:101E00002B68184A83ED020A174B1B681C605C6044
:101E10009A60164B164A1B681C605A60154B1B686B
:101E20001C605C6033681A68134B1B681A60F8BD4D
:101E300000007A465839B43C0C1B0020B537F83CFA
:101E4000A8B49041703D02000000C842E0060020A6
:101E500060070020B8060020607BA3BFC0060020FA
:101E600060AA4FB831082CBDC8060020D00600205B
:101E70000AD723BB30070020281B00202DE9F04F94
:101E80002DED048B032997B00446DFF850830891A9
:101E900000F0D484042900F0FD84D8F80030DFED90
:101EA000B67A93ED007AB4EEE77AF1EE10FA03D544
:101EB0004368132B40F3B384D4ED097ADFEDAF6AA6
:101EC000F8EE677A87EEA67AD4ED0A7ADFEDAC6A8F
:101ED000F8EEE77AAB4BAC4F1B68032283ED007A38
:101EE00087EEA67AA94BAA4D1B68AA4E83ED007A0D
:101EF0007B689FEDA98A009398E803003B68FEF792
:101F0000E9FB95E80C00A54903C9FEF70FFC95E82D
:101F10000C0095E803009FEDA20AFEF7E5FA97E8AA
:101F200003008DE8030095E80C00FEF743FA95E8FE
:101F30000C0095E80300B0EE000AFEF7D5FA95E82C
:101F400003008DE8030095E80C0097E80300FEF716
:101F50005AFA96E8030002AB83E8030095E8030011
:101F60008DE8030097E80C008E4F98E80300FEF719
:101F700045FB97E803008DE803008B4D8B4B95E8FC
:101F800003008B4D0CCBFEF7D3FA6B68072200934E
:101F90002B6897E80300FEF79DFB96E803008DE8A9
:101FA0000300844F96E80C0097E80300FEF7C0FAA0
:101FB00096E803008DE8030095E80C007E4DFEF7DF
:101FC000F9F92F46366806F15408F6EC017A67EE07
:101FD000887A17EE900A0DF02FF84645E7E80201DF
:101FE000F3D10022754B17469E4690469446914683
:101FF000164605930692DEE9003AD5E900105843EB
:1020000001FB0A00A3FB011B0835584411EB0C0C23
:1020100040EB0909D5E90C1058430AFB0100A1FB6C
:10202000031B5844CF1940EB0808D5E91A10584350
:10203000A1FB03B30AFB010001361844069B1BEB0E
:102040000202F6B240EB0303072E0EF1080E0693D0
:10205000D1D15B4DC5E904235A4BC5E900C99B4664
:102060001E68C5E9027806F10C07F5E802010CF0DC
:1020700091FF07EE900AC7EE887AE6EC017ABE423D
:10208000F3D1514D07226B68424E00932B689BE8B9
:102090000300FEF71FFB95E803008DE8030095E8B9
:1020A0000C0096E80300FEF7AEF9484B9FED488A16
:1020B0001E462D68069305F15407F5EC017A67EE8C
:1020C000887A17EE900A0CF0B7FFBD42E6E80201ED
:1020D000F3D148223F4940480DF008F80023DFF8CB
:1020E000ECC0DFF8FCE00793DEF80030DFF8E8A092
:1020F0000A93DEF804305546674600260C930EF12D
:10210000080E26E0D8F804300B9A09995343D8F802
:10211000002009F1010901FB023319460B9B08F16C
:102120003808A2FB03230D930D9B19440368D218B2
:10213000436840F8082B41EB0303B9F1030F40F863
:10214000043CDFD10336092E07F1380705F11805E5
:102150004AD0D7E900130A9AE04653430C9A28461E
:1021600002FB01330A9A4FF00009A1FB02210B92F6
:102170000A461A440992C5E768916D3C00007A4608
:102180000000C8C30C1B0020E8060020081B00202C
:10219000F006002050070020A5D4685360070020F7
:1021A000F085493C18070020C006002030070020B9
:1021B00008070020B8060020D01B0020E03D0200E8
:1021C000481B00203807002058070020781C0020FA
:1021D00020BCBE4C983D0200201D0020E0060020DF
:1021E000383D0200EC78AD60079B0CF1080C013320
:1021F000072B07937FF478AF1FED068AD84E35681A
:1022000005F12407FAE802010CF0C4FE07EE900A7B
:10221000C7EE887AE5EC017AAF42F3D1D14FD24DC7
:102220007B68032200933B689BE80300FEF752FAA9
:1022300095E80C0096E80300FEF778FA95E80C00A4
:1022400095E803009FEDC90AFEF74EF997E80300F1
:102250008DE8030095E80C00FEF7ACF895E80C005B
:1022600095E80300B0EE000AFEF73EF995E803009A
:102270008DE80300BE4E95E80C0097E80300FEF7DA
:10228000C2F896E8030002AB83E8030095E8030078
:102290008DE80300B74D9BE8030097E80C00FEF7BC
:1022A000ADF92B68DFF8249393ED000AD9F800709C
:1022B0009FEDB18A87ED000AFEF76AF887ED010A03
:1022C0002B684F4693ED000AFEF719F8DFEDAB7A65
:1022D000B4EEE70AF1EE10FA48BF00229FEDA87AAB
:1022E00048BFD9F80030DFF8E89248BF5A60D9F803
:1022F00000302A6883ED007AD2ED007AF5EEC07ADC
:10230000DFEDA07AF1EE10FA58BFF0EE477AC3ED98
:10231000007A636BDFF8BCA2D3ED027A93ED010A79
:1023200020EE270A88EE000AFDF7E9FFB1EE400A29
:10233000DAF800B0FEF720F88BED000AD9F800308B
:102340009FED910AD3ED007A67EE807A2B6867EEF5
:10235000887A93ED000ADFED8D8A67EE807A94ED3E
:10236000100A20EE280A87EE800AFDF7C8FF884D84
:10237000B1EE400AD5F800B0FDF7FEFF8BED000A84
:10238000DAF80010834B0A681B68B0461A612A68A5
:102390000FAD10681862D9F800007F4BD0ED007ABD
:1023A00028EE678AD4ED107A67EEA87A88EE277A4D
:1023B0001B68B7EE008A83ED007AD1ED007A78EEE3
:1023C000677AC3ED027AD2ED007A77EEC87A1C22E2
:1023D000C3ED057A00210FA80CF095FE4FF000091F
:1023E0003368606B4B4493ED000AFFF76FFC09F113
:1023F0000409B9F11C0FA5EC010AF1D19DED107A89
:10240000DDED0F7A77EE877A9DED117A77EE877A98
:102410009DED127A77EE877A9DED137A77EE877AC3
:102420009DED147A77EE877A9DED157AF1EE0C6AC0
:1024300077EE877A87EEA67ADFF89CC1636BDCF8CB
:102440000020564E82ED007AD3ED017AF1EE677AE4
:10245000C2ED017AD3ED007AF1EE677A3268504D21
:10246000C2ED007A95E803008DE803009CE80300C4
:1024700098E80C00FEF75CF896E8030097E80C007B
:102480002E46FEF709F8474B1A6802F11C01A2EC30
:10249000010A9142FBD196E803008DE803000CCBC2
:1024A00096E80300FDF786FF2F683F4DDFED3F8A7A
:1024B000A84607F11C09F7EC017A67EEA87A17EE37
:1024C000900A0CF0B9FDB945E8E80201F3D100200B
:1024D00001460746059B059A1B68D2F804E00832BE
:1024E0000592D5E900C25A430CFB0E22A3FB0C3C1B
:1024F000013718189444FFB24CEB0101072F05F186
:102500000805E7D12A4BC3E900012A4B1D680CF0EE
:1025100041FD07EE900AC7EEA87AC5ED007A264B7A
:102520001A6802F11C01286842F8040B9142FAD1A2
:10253000224D9FED239A95E803008DE8030096E86D
:1025400003000CCBFDF75FFF2D68DFF89090AB46E2
:10255000DFF88CA01B4E1C4F05F11C0842E000BFA9
:1025600060070020E8060020F0060020F085493CC6
:1025700050070020081B00203433333F6F12833A8A
:10258000CDCC8C3F8C4A8A3FCCFF7642000073460C
:10259000001B0020B8060020C0060020D006002046
:1025A0004807002000070020601B0020286B6E4EAB
:1025B000301B0020281B0020F806002040070020C8
:1025C0008096184B00005B629AE09E003007002066
:1025D000381B0020041B0020C8060020383D0200E4
:1025E000981B0020FBEC017A67EE897A17EE900ABF
:1025F0000CF022FDD9E90032424303FB0122A0FB8B
:10260000033CCAE900015943624400FB0211A3FBE9
:1026100000309E19084440EB0707D8450AF1080A24
:1026200009F10809DED1A84B3046C3E90067A74B82
:1026300039461B68A64F05930CF0ACFC9FEDA57ABC
:1026400007EE900AC7EE877A059BC3ED007AA24B8E
:102650001E6806F15409F6EC017A67EEA87A17EEC7
:10266000900A0CF0E9FCB145E7E80201F3D19B4E7A
:10267000F5EC017A67EEA87A17EE900A0CF0DCFC14
:10268000A845E6E80201F3D100220023944D4FF063
:10269000000A2846C5E90023C5E90223C5E9042349
:1026A000D0E900890026DFF834E28E4FDDF818B05B
:1026B0000830DBE900320992DEF80020D7E9001C7F
:1026C000079203FB0CFCDEF8042001360A92099AFB
:1026D000F6B201FB02CCA3FB01310A9A8C445A43A7
:1026E00007990BF1080B01FB0C2CA3FB013113EB39
:1026F00008088C444CEB0909072E07F108070EF176
:10270000080ED6D1069B0AF1070A3833BAF1150F25
:1027100040E902890693C3D1DFED738A734E3768AF
:1027200007F10C08F5E802010CF034FC07EE900A02
:10273000C7EEA87AE7EC017AB845F3D196E8030032
:10274000059B6B4D93ED000A95E80C0088EE000A9E
:10275000FDF7CAFE95E80300664B674E1A68674BA3
:1027600092ED000A1B68664FD3ED007A96E80C00E4
:1027700030EE670AFDF7B8FE97E803008DE8030026
:10278000DFF8A4C196E80C009CE80300FDF712FEF8
:102790003B68BFEE007AD3ED007AF4EEC87AD3ED51
:1027A000027AF1EE10FAF4EEC77AC8BF83ED008A20
:1027B000F1EE10FA2E4639D583ED027AD3ED007A88
:1027C000F5EEC07AF1EE10FA03D504212046FFF7AA
:1027D00055FB29684B4B08681A684B4D10604868D8
:1027E00050608968916095E803008DE8030096E8E1
:1027F00003000CCBFDF79CFE344B444E196895E862
:102800000C0091ED000A95E80300FDF76DFE96E8D7
:1028100003008DE8030095E80C00FDF7F4FD089B2C
:10282000237417B0BDEC048BBDE8F08FF4EEC87ACA
:10283000F1EE10FAC8BF83ED028ABFE7D8F8003086
:10284000DFED337A93ED006AB4EEE76AF1EE10FA49
:10285000E5DCD0ED0A7AB8EEE77ADFED2E7ADFED2F
:102860002E6A27EE277AD0ED107A67EEA67ADFED92
:102870002B6A67EEA67AC7EE276AF7EE007A36EE85
:10288000867AB4EEE77AF1EE10FA77FE877AC3ED36
:10289000007AC4E7D0ED007A9FED210AF8EE677A5E
:1028A000406B87EE800AFFF7E4F9DFED1E7A002225
:1028B00020EE270AD8F8003084ED030A20469A60FB
:1028C000FFF742FAABE700BF401B00203C1B002093
:1028D000781C00206B0B5E5D58070020981B0020C1
:1028E000101B0020383D020078860764D8060020BF
:1028F000100700200C1B002020070020281B0020B0
:10290000E00600206807002028070020600700205C
:10291000295C7F3F3433333F0000C84300007346D7
:1029200000007A460000C8423807002080ED030A04
:102930007047FFFF07EE901ADFED116AF8EE677A35
:1029400087EEA67AD0ED037AF8FE677A38B5FCEE0A
:10295000E77A0025436802688362C0E9072380EDB7
:10296000107AC0ED027AC0E905554262C56204469C
:10297000FFF7EAF9012384F83050237438BD00BF13
:102980000000C84270B5836B2DED028B0133836369
:10299000C36A0446462B19D1D0ED057ADFED656A8E
:1029A000B8EE677AC7EE267AFCEEE77AC0ED097AD0
:1029B000D0ED067AB8EEE77AC7EE267AFDEEE77A32
:1029C0000023C0ED0A7AC0E90533C36246F2A811BC
:1029D000D4E905062368E26AA3F52F45C83D8D4278
:1029E00002F1010210D9E5690544206A65613044AD
:1029F000A061E262227C0025052A00F29380DFE8D4
:102A000002F00B562C2C4446616818442162314474
:102A1000E3616061A161ECE707EE903A9FED460A41
:102A2000F8EE677A606B87EE800A94ED038AFFF711
:102A300020F9DFED427A00EE678AB0EE480AFDF732
:102A40005EFCF2EE047AB4EEE70AF1EE10FA04DD71
:102A500004212046FFF712FA01E001232374384BCA
:102A60009FED367A1B680020D3ED007A67EE877AF7
:102A7000C4ED037AF8FE677AFCEEE77A17EE903A37
:102A8000642B88BF6423A36051E00523E6E7D4EDFF
:102A9000017AA563B8EEE70AFDF731FCDFED297A8C
:102AA000B4EEE70AF1EE10FAC4BF01232374D4EDAB
:102AB000017AB8EEE70AFDF722FC9FED238AB4EE17
:102AC000C80AF1EE10FAD4ED017A48BFE36BB8EE14
:102AD000E70A44BF0133E363FDF711FCB4EEC80A13
:102AE000F1EE10FA14DD0023E363A36B452BB6D996
:102AF0002268164B9A4213D96368013BB3F5957F60
:102B00000ED803212046FFF7B9F90023A363A6E7F7
:102B100044F25063E26B9A42E7D10023E36397E704
:102B20000221EFE72046FFF70FF901202574BDECE5
:102B3000028B70BD00008C4200007A460000C84243
:102B4000E006002000005C4200007042C403010067
:102B50003B4B00F10C0218603A4B1A603A4B00F103
:102B600030021A60394B00F184021A60384B00F1D0
:102B700090021A60374B00F1B4021A60364B00F134
:102B8000CC021A60354B00F1D8021A60344B00F1C8
:102B9000E0021A60334B00F59A721A60324B00F56E
:102BA0009E721A60314B00F5AC721A60304B00F522
:102BB000BA721A602F4B00F5C0721A602E4B00F5E6
:102BC000C6721A602D4B00F5C8721A602C4B00F5C6
:102BD000CA721A602B4B00F5CC721A602A4B00F5B2
:102BE000CE721A60294B00F5D0721A60284B00F59E
:102BF000D2721A60274B00F5D4721A60264B00F58A
:102C0000E6721A60254B00F5F8721A60244B00F545
:102C1000FE721A60234B00F523721A60224B00F5F6
:102C20002A721A60214B00F534721A60204B00F5AD
:102C300037721A601F4B00F53A701860704700BF7A
:102C4000E006002060070020500700203807002021
:102C5000B8060020C0060020C8060020D0060020CC
:102C600058070020300700204807002040070020B8
:102C7000D806002010070020381B0020281B002049
:102C80003C1B0020041B0020001B00200C1B00200C
:102C9000081B0020E8060020F0060020180700208E
:102CA0000807002000070020F80600202007002069
:102CB000680700202807002090ED030A7047806A0B
:102CC0007047FFFF37B5019054200D460CF0EEF928
:102CD000044680B195F900300146722B0CBF0123E8
:102CE0004FF48173019A054805F028F818B1204681
:102CF0000CF0E4F90024204603B030BD6426002027
:102D00002DE9F04F05460E4690464FF00009DFF8DA
:102D100078A01C4FDFF874B089B0C14503DB0020F8
:102D200009B0BDE8F08F51463046FFF7CBFF0446AF
:102D300010232A460146384603F002FF2146384652
:102D400004F0C0FE20460CF0B9F959463046FFF7B2
:102D5000B9FF044610236A460146384604F0CCF811
:102D60002146384604F0AEFE20460CF0A7F969462D
:102D700028460CF0DDFB10B109F10109CDE7012077
:102D8000CEE700BF64260020183E02005C3F020030
:102D900010B590F92C3004464BB905220549303066
:102DA000FFF7AEFF10B9012384F82C3010BD0020CE
:102DB000FCE700BF1A3E020013B51349044613484E
:102DC000FFF780FF014670B9114804F07BFE2046F2
:102DD000FEF700FE204605220C49FFF791FF44B2A2
:102DE000204602B010BD224610230190084804F08E
:102DF00083F8019944B2064804F064FE019908463C
:102E00000CF05CF9ECE700BF5C3F02001A3E0200E8
:102E10006426002038B50B490546FFF753FF0446EA
:102E20000146094854B104F04DFE20460CF046F925
:102E30002946054804F08CFF012038BD04F042FE0D
:102E40002046FAE75C3F02006426002008B50448EB
:102E5000FFF7E0FFBDE808400248FFF7DBBF00BF17
:102E60002A3E0200333E02008160704764224FF424
:102E70007A51C0E91022094A0023C0E9071244F23E
:102E80006821074A80F858304262064AC363C0E9A5
:102E90000B124DF2D862038742637047005C26052F
:102EA0003200FCFFB8050100D0F8603513B15B1AA1
:102EB000C0F86035D0F868351BB9002380F870354C
:102EC0007047591AC0F868150029F6D0704710B538
:102ED00090F8A830044680F8A93006F055FB84F835
:102EE000A80010BD90F8A8007047B0F8A800431ED5
:102EF00058425841704710B50446C06D05F085FB37
:102F0000E36D1B69E36410BD10B50446C06D05F0A8
:102F10008DFBE36D5B69236710BDC06D05F097BB4A
:102F2000C06D05F0A5BB10B50446C06D05F0B1FB42
:102F3000E36D5B7F236510BDC06D05F0BBBBC06D4D
:102F400005F0DEBB012240F20121014809F0CEBAB2
:102F50006C350020C06D05F036BDFFFF08B5044894
:102F600000F0E8F9BDE808400248FFF711BF00BFD4
:102F7000741D00200028002010B50446C06D05F027
:102F8000E7FA00236365A36410BDFFF7F5BF10B532
:102F9000046EA368204698470123237010BD10B526
:102FA000046E6368204698470023237010BD10B557
:102FB000846E6368204698470023237010BD10B5C7
:102FC000846EA368204698470123237010BDC06D0E
:102FD00005F0CCBAC06D05F00BBBFFFF90F8583080
:102FE00030B5012B25D0C36D1B681B68596803F1F0
:102FF000C0050A465C680C33A14238BF2146A24294
:1030000028BF22469D42F5D141F2CC03994211D905
:10301000036F042B15DD1A490B780A2B89BF836CCB
:10302000013343F40033836498BF0B70B2F5FA6F39
:103030001AD230BD0021836C23F400338364104B1B
:103040001970B2F5FA6F0FD2036F0433F1DA0D4A3B
:1030500013780A2B89BF836C013343F48023836484
:1030600088BF00231370E4E7B2F5FA6FE1D00022C5
:10307000044B1A70836C23F480238364D9E700BF68
:103080006E1D00206F1D002038B504460025D4F8C1
:103090008820EBB29A4205F1010500D838BDD4F87A
:1030A0008C2052F8230004F094FFF0E7C06F04F086
:1030B00075BFD0F8800004F071BFC06D05F04EBB45
:1030C00013B50446C36D01AA1B681979186805F089
:1030D0001FFA0199E06D05F047FF02B010BDC06D09
:1030E00005F02ABF4B1E70B504460D46112B3CD887
:1030F000DFE803F009160D252B351B0D0D0D0D0D09
:103100000D2238281616FFF75AFF00236365D4F8FE
:10311000783584F8585043B32046BDE870401847CE
:10312000FFF745FF0023A367F1E7FFF7D8FF0F4A3A
:10313000136801331360EAE7FFF741FFE7E7FFF7A2
:103140002EFFE4E7FFF723FFE1E70026FFF737FF55
:10315000204684F88460FFF7C2FFE663D7E7FFF7F5
:10316000F9FED4E7FFF7FAFED1E770BD681D002035
:10317000D0F8A400FFF778BED0F8A400D0F810383B
:10318000184710B50446FFF7F3FF2046BDE810408E
:10319000FFF7F2BF10B590F88430044663B990F899
:1031A0005830DA1E012A01D9102B10D10E212046E9
:1031B000BDE81040FFF796BF012B09D190F85830B9
:1031C0000E2B01D11221F2E7002380F8843010BDCC
:1031D000022B05D190F858300E2BF8D11121E7E7DA
:1031E000032B06D190F858300E2BEBD0102BEED1DC
:1031F000E8E7042BEBD00521FFF774FF00232046FE
:1032000084F884301621BDE81040FFF7BABFFFFFF5
:1032100030B585B001A90C46D0F88C301A1F0C339C
:1032200052F8045F6D899A4221F8025BF8D1C36FAE
:1032300001215B89ADF80C30D0F880305B89ADF8A6
:103240000E30BDF904301A4634F9110001318342C1
:10325000A8BF03468242B8BF02460629F4D15A2AC3
:1032600002DC13F10A0F0CDA0C4A1388022B8BBF15
:10327000012000200A4B01338CBF1870138005B069
:1032800030BD0749087818B1502AF8DC002BF6DB6E
:103290000020024B08701880F1E700BF6C1D002071
:1032A000701D002010B50446FFF7B2FFE26DA36C5D
:1032B00092F8221059B923F0FF0392F8232042B963
:1032C00023F47F4340B923F48033A36410BD0B4340
:1032D000F3E743EA0223F5E743F48033F5E7FFFF22
:1032E00037B5019054200D460BF0E0FE044680B146
:1032F00095F900300146722B0CBF01234FF4817306
:10330000019A054804F01AFD18B120460BF0D6FECC
:103310000024204603B030BD6426002000234FF077
:103320007E52C0E90033C0E9033382604361038306
:103330007047FFFF70B52F49C0B005462E4804F016
:1033400007FD2E492B48FFF7CBFF0646FEF720FA74
:10335000044628B95A212A4B2A4A2B480BF035F942
:1033600028680BF0F7FB41EC100B20462749FEF7CD
:10337000BFF9E8680BF0DEFB41EC100B2046244956
:10338000FEF7B6F928690BF0D5FB41EC100B20468F
:103390002049FEF7ADF9A88A0BF0CCFB41EC100BED
:1033A00020461D49FEF7A4F9E88A0BF0C3FB41EC67
:1033B000100B20461949FEF79BF9694600234FF48C
:1033C00080722046FEF734F968460CF0D4F86A465D
:1033D00003463146084803F0B3FB3146064804F083
:1033E00071FB30460BF06AFE2046FDF7F1FE40B05F
:1033F00070BD00BF443E020064260020183E02005B
:10340000503E0200CB3E02005D3E02008C3E0200B8
:10341000903E0200983E0200A13E0200AC3E020037
:103420004FF07E52036870B5CB1A002B04460E464F
:10343000436082601BDA0269C18AD31A632B03617D
:1034400003D94B1CC38200230361E38AA58A1D4470
:10345000238BC5F34E05AB4207D0E3690BB1206A5D
:10346000984720462583FFF765FF266070BDECD0A6
:10347000C168828A0B44632BC36081BF531C838263
:103480000023C360E1E7FFFF2DE9F04F50490446F8
:10349000ADF2044D4F48FFF723FF064670B90023F5
:1034A0000A222046C4E903332360636122836360F8
:1034B0000DF2044DBDE8F04FFFF73CBF4FF48062C2
:1034C000002168460BF01FFE4FF480636A463146C8
:1034D000414803F011FD6846FEF7A6F8054638B9E5
:1034E00031463D4804F0EEFA30460BF0E7FDD6E7F2
:1034F0003A49FEF7C3F8834628B98621374B384A44
:1035000038480BF062F828463749FEF7B7F882468C
:1035100018B98821344B324AF2E728463349FEF77E
:10352000ADF8814618B98A21304B2D4AE8E7284684
:103530002F49FEF7A3F8804618B98C212C4B284A56
:10354000DEE728462B49FEF799F8074618B98E2181
:10355000284B234AD4E75846FEF772F951EC100B7A
:103560000BF000FC20605046FEF76AF951EC100B9E
:103570000BF020FCE0604846FEF762F951EC100BBE
:103580000BF018FC20614046FEF75AF951EC100B85
:103590000BF010FCA0823846FEF752F951EC100BEC
:1035A0000BF008FCA38A80B2E0821844C0F34E00FE
:1035B00031462083084804F085FA30460BF07EFD42
:1035C0002846FDF705FE0DF2044DBDE8F08F00BF63
:1035D0005C3F0200443E0200642600208C3E020054
:1035E000B83E02005D3E0200903E0200983E02009E
:1035F000A13E0200AC3E020001600021C0E90423AC
:10360000416000F25C4000F07EB8FFFF38B5044630
:10361000164B92B91A7801321A701B78022B0ED110
:1036200004F1180504F57674012228461146F03598
:1036300000F05FFEA542F7D138BD0022ECE7042B75
:10364000FAD1012204F19000114600F052FE01224D
:1036500004F5C070114600F04CFE012204F51C7008
:103660001146BDE8384000F044BE00BF981D002060
:1036700037B504460D460A4600F58660012100F084
:1036800083FD2946019004F5727000F063FB294622
:1036900004F5587000F04CF929462046019A03B011
:1036A000BDE83040FFF7B2BF2DE9F341054600F514
:1036B000727005F118060F46344600F03FFD05F51F
:1036C000587820463946783400F02EFE4445F8D12B
:1036D000BC000B3CA4B205F57675032F8CBF2146C8
:1036E00000213046019100F024FE06F17800019996
:1036F000F03600F01EFE0134AE42A4B2EDD102B0AD
:10370000BDE8F081704700B9FEE70023C0E902334D
:1037100003604360704770B50546002402889442F8
:1037200011D2A3185E10C3F34F006B6833F8363024
:103730008B4211D003D92EB1421E92B2EFE7431C47
:103740009CB2ECE7B44208D14FF6FF706B6833F8D7
:1037500034308B4208BF204670BD4FF6FF70FBE748
:10376000054A00F11403343043F8042B834202F17C
:103770000102F9D1704700BF7407002010B510B1E5
:103780000A78072A00D9FEE7002380F834200431A4
:1037900038309A4200DC10BD51F8044B013340F838
:1037A000044BF6E72DE9F84F4FF000090446884630
:1037B00007464D464FF6FF7AC37843F08003C37047
:1037C00094F834304B4501DCBDE8F88F4046398F22
:1037D00097F83A6097F83BB0FFF79DFF504504D14A
:1037E0002046BDE8F84FFFF7BBBFB8F80030834272
:1037F000F6D9D8F8043003EBC0008378B342EFD990
:10380000436806EB460613EB8606E9D000200F4B13
:103810001A686B1D04EB8303834507DCE37809F129
:1038200001096FF3C713E3700437C9E7F188013565
:103830008142C8BF3168EDB2C6BF091819601A606D
:10384000082D03F10403CBD80130E5E77C07002005
:1038500038B51546044638B1FFF790FF2946204693
:10386000BDE83840FFF79EBF38BDFFFF38B5802365
:1038700080F82030082380F82830094B04461B6864
:10388000416218300D4698470023A4F84C30637508
:1038900084F854304FF44073A565A4F8603038BD07
:1038A000700700200023A0F84C30437580F8543096
:1038B0004FF440738165A0F860307047002310B565
:1038C0009CB2A24200D810BDCC5CC4540133F7E7CF
:1038D000014B1B68184700BF70070020012310B57B
:1038E0004FF4C0640370836964F31C03836108238D
:1038F0004FF4B0640385436864F31C034360002302
:1039000080F83030C362B1F86440896E4375C0E915
:103910001133C0E91332C0E9163344864163A0F87D
:10392000403080F8423080F85430A0F8603010BD4C
:10393000037873B5044623B9012584F8615002B0B9
:1039400070BD90F86030002BF9D0B0F84C2062B117
:103950001144B0F84E2089B28A42A0F84C1004D22B
:10396000B249FFF79FFF0325E7E7216D628EC88B01
:10397000904240F0A98118B1606B4A6A1042DBD0D6
:10398000627D82B994F85420002AD5D0103B0026DD
:10399000052B00F29781DFE813F01F006000AF00F5
:1039A000D400F00055010022217BA4F84C204909E5
:1039B0000429EBD1237C62758DF80030637C84F898
:1039C00060208DF80130A37C8DF80230E37C8DF807
:1039D0000330009BE365C6E7B4F84030616C84F8BF
:1039E00021301B0A84F8223094F8423084F8306089
:1039F00084F82330CA88A685042AE2851BD8C2F140
:103A000004039B0003F00C0343F0230384F82030ED
:103A1000096804F12400FFF751FF04F11800FFF7D3
:103A200057FF0023012584F854301123A4F84C508B
:103A300084F860301AE0212384F82030C2F3072391
:103A400084F8242084F82530C2F30743C2F30762C8
:103A500084F8263084F82720DFE7237B5B09032BDB
:103A600007D073492046FFF701FF03250023637544
:103A700063E7637BB4F840208DF80030A37B8DF8BA
:103A80000130BDF800309A4201D06A49EAE7E27B92
:103A900094F842309A42F8D1E28D042A04D80023E7
:103AA00084F860300225E1E7636C04F121001968B5
:103AB000A38D07339A420EDCD5B22A46FFF7FEFEED
:103AC000E38DC5F10705A38594F8303043EA45033B
:103AD00043F0010305E00722FFF7F0FEA28594F80A
:103AE0003030012584F82030A4F84C5004F118003F
:103AF000FFF7EEFE12239BE7237B5A09012AB0D180
:103B000094F8302003F01003934201D04A49A9E70A
:103B100083F01003E28D84F83030A38D9A42BED931
:103B2000616CDD1D0968AA42194404F1210001DC21
:103B3000D21AC1E70722FFF7C1FEA38D1344A38564
:103B4000CDE7B4F84030012584F821301B0A84F811
:103B5000223094F8423084F8306084F823304023D7
:103B6000A68584F8203004F11800FFF7B1FE142375
:103B7000A4F84C5084F854605AE7227B5609022E70
:103B80007FF46FAF637BB4F840108DF80030A37BF7
:103B90008DF80130BDF8003099427FF476AFE17BBB
:103BA00094F8423099427FF470AF02F00305032D80
:103BB00016D1636CC2F38102D988C2F1040292B2B9
:103BC0009142E28504D220461C49FFF76BFE4DE787
:103BD000186804F11001FFF771FEE38DA3855EE71D
:103BE000012D21D1237C626C8DF80030637CD2885A
:103BF0008DF80130A37C8DF80230E37C8DF8033022
:103C0000BDF800309A42E38501D20C492AE700232F
:103C1000A3856023A4F84C5084F8203004F11800E8
:103C2000FFF756FE152303E705491BE700000405CF
:103C300023000A06430004060000030505000405EE
:103C400010000706237B5D097FF40BAF94F830105A
:103C500003F010028A427FF459AF82F0100284F818
:103C60003020626CA18D1068E28DCE1DB2420844F6
:103C700003F001030EDC13B94FF00061F2E6521AB3
:103C800092B204F10D01FFF719FEE38D84F8605044
:103C9000A38507E7002BEFD10722012504F10D01D1
:103CA000FFF70CFEA38D04F118001344A38594F8CC
:103CB000303043F0600384F82030FFF709FEA4F8A9
:103CC0004C50D3E60125D1E6002A3FF459AE33E645
:103CD000002310B59CB2A24200D810BDCC5CC454E5
:103CE0000133F7E7014B1B68184700BF700700203E
:103CF00070B50124047091F85C40856904F5B066E4
:103D000066F31C05856108250585456804F5C064D2
:103D100064F31C0500248482C46280F8304045604E
:103D2000B1F85E5080F84240C363B1F86030C0E93A
:103D30001144C0E9164445860487A0F84040A0F825
:103D40004C40A0F84E30026580F85440A0F8604026
:103D500070BDFFFF037873B5044623B9012584F8CD
:103D6000615002B070BDB0F84C3063B11944B0F886
:103D70004E3089B28B42A0F84C1004D2A949FFF70B
:103D800091FD0325EBE7637D83B994F85430002B54
:103D9000E4D094F86030113B042B00F2AE80DFE8F1
:103DA00013F065001401AC0083008A010023257B19
:103DB000A4F84C306D09042D11D1227C63758DF867
:103DC0000020627C84F860308DF80120A27C8DF8A0
:103DD0000220E27C8DF80320009AE265D1E794F896
:103DE0006030002BD5D16B1E012B04D98E492046A3
:103DF000FFF73CFDC5E7637BE06B8DF80030A37BEC
:103E00008DF80130BDF80010E37BA4F8401084F871
:103E10004230FFF780FC4FF6FF739842208712D0A4
:103E2000E26B138883420ED9526894F8423002EB59
:103E3000C00082789A4206D9426803EB43039E0091
:103E400012EB830303D1002378496364CFE76364F3
:103E5000012D197923D1890701D47549C7E79B68DA
:103E6000DBB99359A364112384F8603094F854307B
:103E7000002B4FD0636C9B685B68984703283AD14E
:103E8000002504F1180084F85450A4F84C50FFF7B2
:103E900029FF84F8605002256EE01B68E2E7CB073B
:103EA000DBD5142384F860300026637B616C84F8D2
:103EB0002130E38984F830606384CA88A685042AA7
:103EC000E28504F1180500F2DD80C2F104039B00D5
:103ED00003F00C0343F0430384F82030096804F135
:103EE0002400FFF7F5FE2846FFF7FCFEE38D84F87B
:103EF0006060A385CFE7022801D001253CE00023C4
:103F00004C4984F85430A4F84C302046FFF7AEFCFE
:103F1000032531E084F83030A385637B84F82130B9
:103F2000E3896384237B03F00305032D27D1626CAF
:103F3000C3F38103D288C3F104039BB2934298BFB9
:103F40001A46E385A06C04F11001FFF7C1FEE38D72
:103F5000A385602384F82030636C9B683BB904F12F
:103F60001800FFF7BFFE002384F8603093E70125B7
:103F7000A4F84C5084F8545000236375EFE6012DEB
:103F800021D1237C626C8DF80030637CD2888DF85F
:103F90000130A37C8DF80230E37C8DF80330BDF84E
:103FA00000309A42E38501D22349AEE76023A4F8AA
:103FB0004C5084F8203004F11800FFF793FE1223D0
:103FC00084F86030D8E71D499FE794F85430002BFF
:103FD0007FF450AF237B5A0901D0194995E794F833
:103FE000301003F01002914201D016498DE7A18DE7
:103FF000E28DA06CCD1DAA42084403F0010323DC2E
:1040000013B94FF0006180E7521A92B204F10D012A
:10401000FFF75EFEE38DA38594F8303043F0200374
:1040200098E700BF0000040501000405110009061F
:104030000000010621000008050004051000070625
:1040400023000A0600000305002BDAD10722012510
:1040500004F10D01FFF73CFEA38DA4F84C5013446E
:10406000A38594F8303004F1180043F0200384F85D
:104070002030FFF737FE94F8303083F0100384F8D7
:10408000303079E741232846012584F82030C2F3F7
:10409000072384F8242084F82530C2F30743C2F3B1
:1040A000076284F8263084F82720FFF71BFE1523CB
:1040B000A4F84C5084E7237B5A09032A8DD194F845
:1040C000302003F010039A428FD1626CA38D1168E7
:1040D000E28DDE1DB242194404F1210004F11805FD
:1040E0001ADCD21AD6B23246FFF7F2FDE38DC6F1E2
:1040F0000706A38594F83030284643EA460343F088
:10410000010384F82030FFF7EDFD94F8303083F0A0
:10411000100384F8303026E70722FFF7D9FD284640
:104120000125A38D1344A38594F8303084F8203002
:10413000FFF7D8FDA4F84C509DE700BF037E01F0C7
:104140007F0161F306030376037961F306030371CC
:10415000704703460A46D1E9010183E803000321C1
:10416000198291899982D189D982B2F8581019831C
:1041700092F85A209A760022DA6183F820205A6257
:1041800083F828207047FFFF13B590F90310044609
:104190000029C37855DB818B0A4492B2914238BF23
:1041A000828313F0400335D0828B838A9A4246D3B0
:1041B000C38B028B01339BB29A42C38311D201227B
:1041C00090F82030817E1344DBB2994280F8203091
:1041D0003CBF002380F8203090F82030C2839A4002
:1041E0004262E38B20462372C3F30723637294F881
:1041F0002030A372144B1B68984700230120A3832F
:10420000A38BE28A93428CBF0023012384F82830D9
:1042100002B010BD407C0028F2D0227AA17A8DF83D
:104220000020627A84F820108DF80120BDF800206B
:10423000A383E28301228A4062626374E0E7002084
:10424000DEE70020E4E700BF7007002010B5044659
:1042500094F873300830022B09D1636F98470A4BEA
:1042600020461B689847002384F8723010BD04F183
:10427000100304F1300253F8041F0978934200F848
:10428000011BF8D1EBE700BF700700202DE9F041DA
:104290000446069D0E4611461A469DF81C80089F4E
:1042A000FFF7D6FA2B892968AA89A4F864306B89AC
:1042B000E165A4F86630A4F86820A87BB8F1020F85
:1042C00084F86A002869216084F871304FF0080191
:1042D0004FF00103E0662182A66584F8702084F81F
:1042E000723084F87380676701D107B9FEE7BDE8D3
:1042F000F08190F90330002B15DB4FF6FF71B0F819
:1043000064308B4204D190F8723063B1FFF79EBFE6
:104310004AB1826DD18B994203D1C16E526A11426A
:10432000F4D1002BEFD07047037861F306030370DC
:104330007047A0F8641070470123016003711846AC
:104340007047FFFF012810B516D1144CE3681868B8
:1043500008F0FAFA08B1002010BDE368186808F008
:10436000F9FA0028F7D1E3680D49186808F090FAC7
:10437000B0FA80F04009EFE70028ECD1074CE36881
:10438000186808F0E1FA0028E5D1E368186808F039
:10439000E1FA0028DFD1E3685968E6E71808002051
:1043A000E03E0200036810B59A681868146901229B
:1043B000A047B0FA80F0400910BD08B503689A68BC
:1043C0001868D2689047012008BD2DE9F0470546DE
:1043D0000F46904699466424D0F800A02846FFF77F
:1043E000ECFFDAF8083042469E6839464B46DAF868
:1043F0000000B0470646012005F002FA013C11D04A
:10440000002EEBD164242B79032B06D04FF47A7164
:1044100001200AF0E1F8013CF5D12879013818BFF4
:10442000012002E0002EEDD02046BDE8F0872DE906
:10443000F04705460F46904699466424D0F800A000
:104440002846FFF7BAFFDAF8083042465E68394678
:104450004B46DAF80000B0470646012005F0D0F9D7
:10446000013C11D0002EEBD164242B79022B06D015
:104470004FF47A7101200AF0AFF8013CF5D12879A8
:10448000013818BF012002E0002EEDD02046BDE823
:10449000F0870171704700234360037083607047A9
:1044A00070B50D460021044600F0CDFD134B1E26CD
:1044B00018700120FFF746FF0121204600F0B3FDF0
:1044C00030B94FF47A7101200AF086F8013EF3D139
:1044D0001E2640232A464FF47861204600F08DFEC8
:1044E00030B94FF47A7101200AF076F8013EF0D12C
:1044F0000020BDE87040FFF725BF00BF3C2400202E
:104500000B892DE9F04101220160838005460C46AC
:1045100038484FF48061FDF7B1F90526364F214642
:10452000286800F020FD10B10526334F12E0013E4F
:1045300016F0FF0603D100263046BDE8F08138466C
:1045400007F074FFEBE7013E16F0FF06F3D03846A4
:1045500007F06CFF286800F13C0100F009FD00281D
:10456000F1D00526244F0021204600F04AFD10B16D
:104570000526214F0EE0013E16F0FF06DBD038463F
:1045800007F054FFEFE7013E16F0FF06D3D03846A0
:1045900007F04CFF3021204600F040FD0028F2D00B
:1045A0000526154F06E0013E16F0FF06C3D038463B
:1045B00007F03CFF0C21204600F02BFD0028F2D034
:1045C0000527DFF8348006E0013F17F0FF07B2D07F
:1045D000404607F02BFF0021204600F02CFD064648
:1045E0000028F1D04FF45471204600F05AFD00230A
:1045F000AB71A1E72420002004370020552373B5B8
:1046000040F20132214900930446214B214800F039
:104610009BFC20492048FFF773FF18B10023237645
:1046200002B070BD0123062623761C4D1C4CD5F824
:10463000C82040F20231C2F3400282F0010220465B
:1046400007F054FF6A6B0D21C2F3400282F00102B1
:10465000204607F04BFFAA6B0E21C2F3400282F006
:104660000102204607F042FFD5F8982040F20621CB
:10467000C2F3400282F00102204607F037FF6420B7
:1046800005F0BEF8013ED2D1CAE700BF9C1D002054
:10469000A41D0020D8240020402400200008084049
:1046A0006C3500202DE9F0470F4682460AF063FF83
:1046B00084B2224D04F108081FFA88F806464246E3
:1046C000002128460AF01FFD7F232B70230A6E70FD
:1046D000AB702646002303F103099E421FFA89F9B5
:1046E00021DCE11C154889B2FDF720F90D22231DBC
:1046F00005F809009BB2000AE854631D9BB2EA5416
:104700000A22A31D9BB2EA5400230734A4B20B4A29
:104710002B5598450DDC4246002108480AF0F3FC71
:104720004046BDE8F0871AF80320013305F8092058
:10473000D1E712F8011BF9540133EAE7241E0020E7
:10474000F8B50446B0F801305BBA9BB2DD1CA9B2E3
:1047500003441E79475DFDF7E9F823787F2B08D1E4
:1047600046EA072686424FF0000304D1E01C635559
:10477000F8BD0020FCE71846FAE7FFFFFFFFFFFF48
:104780002DE9F04F2DED068BADF23C4D04461E2673
:10479000026800AF02F14A052A460621206800F0AF
:1047A000BBFC30B94FF47A71012009F015FF013ECE
:1047B000F2D11E26226802F144052A460021206813
:1047C00000F0AAFC30B94FF47A71012009F004FF1F
:1047D000013EF2D1A6792068012E23D0022E00F0EE
:1047E0005A8386B990F84A30D9070CD5012100F0D8
:1047F0002AFC0B4B18700121206800F014FC0028E3
:10480000F9D00123A37123680821D868FFF7CAFDF6
:1048100007F23C47BD46BDEC068BBDE8F08F00BFFC
:104820003C24002090F84A30DA0640F1E782DFF8B5
:10483000AC83402342464FF4786100F029FDC84B19
:1048400018704046FFF77CFF0546002800F0E18223
:10485000FCF7EAFEC3498046FCF710FF08EE100A99
:10486000FDF705F8C0490AF063FE0546002840F050
:104870005F81324640F20231BC4807F037FE3246D3
:104880000D21BA4807F032FE32460E21B74807F034
:104890002DFE324640F20621B44807F027FEB44E02
:1048A00007F1380330465919FDF723F818B10135DF
:1048B000B5F5806FF4D14FF00A09AE4BAE4DD3F889
:1048C0005CC0D3E9102108EE901ADCF8041093F8CC
:1048D00058B009EE101A196FDFF804E309FB01F96B
:1048E000A649098B09EE901A996CA54B0AEE101A8D
:1048F0002E4603CE764518605960354603F108030D
:10490000F6D13068186031799E481971994BD3F807
:104910008C30191F0C3351F8045FAD7A994240F87E
:10492000045BF8D14FF0000A40F674659148954B4E
:10493000C16F897A1961D0F88010897A5961DCF8E1
:10494000003091491B6803F1C00658680C33A84237
:1049500041F8040B04BF0AF101005FFA80FA9E429D
:10496000F3D18A4B07F1080503F1080C2E461868AD
:104970005968083303C663453546F7D118681B7973
:10498000306033710023DFF85CC27B75804B07F128
:104990001806354618685968083303C563452E461E
:1049A000F7D17A60FCF7F4FE06469FED6B0B794970
:1049B000FCF79EFE78493046FCF7F6FE7A6805461D
:1049C00010460AF0B7F841EC100B74492846FCF782
:1049D0008FFE18EE900A0AF0ADF841EC100B70490A
:1049E0002846FCF785FE19EE100A0AF0A3F841EC00
:1049F000100B6C492846FCF77BFE48460AF0AAF8E3
:104A000041EC100B68492846FCF772FE19EE900A3B
:104A10000AF090F841EC100B64492846FCF768FE58
:104A20001AEE100A0AF086F841EC100B604928468D
:104A3000FCF75EFE58460AF07DF841EC100B5D492C
:104A40002846FCF755FE28464D4A5B49FCF77EFE9A
:104A5000484BDB6D93F85F305BB1BAF1100F08D0B3
:104A600010214948FCF7B5FE544902462846FCF798
:104A700008FE06214348FCF7ACFE51490246284691
:104A8000FCF7FFFD28464F4907F10802FCF75EFEE0
:104A900028464D4907F11802FCF758FE00234FF451
:104AA00000724A493046FCF7C3FD49494748FFF7C1
:104AB000F9FD00258146DFF818A1DFF8B4B0ABB2EC
:104AC0004B4507D20AEB05015846FCF7F7FE0135C6
:104AD0000028F4D13046FCF77BFB402200213D4802
:104AE0000AF011FB00253B4EDFF88490484671190F
:104AF000FCF7FFFE10B10135402DF7D13549206894
:104B0000FFF7CEFC002240F20231184807F0EEFC1D
:104B100000220D21154807F0E9FC00220E21134860
:104B200007F0E4FC002240F20621104807F0DEFC0A
:104B300018EE100AFCF79BFE27490AF0F9FC06461E
:104B4000002840F0528140461349FCF797FD81460A
:104B5000002800F04A8147E00000000000006940A2
:104B60003C2400200D3F0200113F02006C35002064
:104B700024200020E02C002080000008741D00206C
:104B8000BC1D0020CC1D0020E41D0020873F02003A
:104B9000C5000008403F0200153F02001E3F020012
:104BA000223F0200263F02002E3F0200363F020055
:104BB0003D3F0200473F0200503F02005E3F0200BF
:104BC000633F0200683F0200733F02003C20002068
:104BD0003C220020882400207B3F02004824002043
:104BE00088000008D5000008B149FCF747FD0028FF
:104BF00065D0FCF73CFE0546012240F20231AD488B
:104C000007F074FC01220D21AA4807F06FFC012275
:104C10000E21A84807F06AFC012240F20621A548AF
:104C200007F064FC2946A4480AF08CFCFCF7B0FDB0
:104C300082469FED9B0BA149FCF75AFD334620228B
:104C400007F118015046FCF7F3FC07F118000AF0D1
:104C500092FC07F1380583464022314628460AF087
:104C600052FA7F235A4607F1180107F13B0087F8F3
:104C7000383087F839B00AF039FA1FFA8BF2D11CB4
:104C800089B228467A60FCF751FE0D217A68AB4460
:104C9000131D8BF803009BB2000AE854531D9BB20E
:104CA000E9540A21931D07329BB292B2E95420685D
:104CB0002946AE54FFF7F4FB5046FCF789FA484604
:104CC0007F49FCF7DBFC002800F08F80FCF7CFFD6C
:104CD000012240F202310546764807F007FC012226
:104CE0000D21744807F002FC01220E21714807F0E3
:104CF000FDFB012240F206216E4807F0F7FB6E46ED
:104D000090B0EE46DFF8C8C1DFF8C89103AB624649
:104D100003CA4A4518605960944603F10803F6D166
:104D2000106805F10C0218602846734650F8041B01
:104D3000904243F8041BF9D102781A7062B64023FE
:104D4000012270465F4904F0E1FC0546642004F04E
:104D500057FDB546FCF71CFDEDB28146002D55D13F
:104D60009FED4F0B5549FCF7C3FC0023202207F1B0
:104D700018014846FCF75CFC07F118000AF0FBFB41
:104D800007F1380582464022002128460AF0BBF987
:104D90007F231FFA8AF6524607F1180107F13B00FC
:104DA00087F8383087F839A00AF0A0F9F11C89B2E9
:104DB0002846FCF7BBFD0D22331DAA448AF80300E8
:104DC0009BB2000AE854731D9BB2EA540A22B31D39
:104DD0009BB2EA5400230736B6B220682946AB5589
:104DE000FFF75EFB4846FCF7F3F94046FCF7F0F9A5
:104DF0000121206800F027F9334B1870236893F8DD
:104E00004A30DB073FF5FFAC0223FBE49FED260BA6
:104E1000A8E798F800600246012E40F202312548CA
:104E200026D107F063FB32460D21224807F05EFBD6
:104E30002A460E211F4807F059FB324640F2062150
:104E40001C4807F053FB4022294620480AF05BF932
:104E50001E4EDFF8848040467119FCF74AFD10B100
:104E60000135402DF7D119492068FFF719FBBFE73D
:104E700007F03CFB2A460D210E4807F037FB2A4677
:104E80000E210C4807F032FB2A4640F20621094861
:104E900007F02CFBACE70023B4E400BFAFF30080C5
:104EA00000000000000069400000000000007940A0
:104EB000733F02006C35002034270020403F020081
:104EC000803F0200800000083C240020882400204D
:104ED0008C000008BC0000082420002073B5C568C1
:104EE0008DF80710C179284616461C46FFF75AFA76
:104EF00018B90024204602B070BD002301222846C4
:104F00000DF10701FFF761FA0028F2D021460123D5
:104F10002846B2B2FFF78BFA04462846FFF74DFA4F
:104F2000E8E713B58DF806200422FE248DF805105D
:104F30008DF807300DEB02010123C0688DF80440A5
:104F4000FFF743FA02B010BD10B4044618462281A0
:104F50000022019BE160E37122612275A0615DF88E
:104F6000044BFFF798BA0B4607220021FFF7B6BFA4
:104F700038B50D4C0D46234610223A21FFF7AEFFFF
:104F800080B1204623782B7063786B70A378AB7068
:104F9000E378EB7023792B7163796B71A379AB7133
:104FA000E379EB7138BD00BFC82400207FB5FE2334
:104FB00004468DF80110C179C06816468DF800309E
:104FC000FFF7F0F9002302226946E068FFF7FDF9D8
:104FD00080B1012369461A46E068FFF728FA0546C2
:104FE00040B1E068FFF7E9F99DF8003033702846DA
:104FF00004B070BDE068FFF7E0F90025F7E7FFF7C0
:10500000D5BF002914BF8023002380220021FFF791
:1050100088BF0B460C220021FFF783BF0B463022CE
:105020000021FFF77EBF002914BF40230023402248
:105030000021FFF776BF002914BF022300230222BC
:105040000021FFF76EBF30B5002485B001910DF14E
:105050000F02214605468DF80F40FFF7D0FF9DF85F
:105060000F20019B02F00101994211D012F0400182
:1050700011D021462846FFF7D6FF214601222846B7
:10508000019BFFF74EFF012104462846FFF7CBFFA7
:10509000204605B030BD01222846FFF742FF0446F6
:1050A000F6E770B5CBB20C46FF2203210546FFF7A9
:1050B00038FF38B12846230AFF22BDE8704004219A
:1050C000FFF72FBF70BDF8B5044680F82C10C179EA
:1050D000C06817461D46FFF765F900230122E06806
:1050E00004F12C01FFF771F908B90020F8BD04F1B3
:1050F0001C06012310223146E068FFF798F90028CA
:10510000F3D0102D28BF10250023AB42EED216F8A5
:10511000012BFA540133F8E738B5FE23044680F832
:105120002C3080F82D10C179C0681546FFF73AF988
:1051300000230222E06804F12C01FFF746F908B9C8
:10514000002038BD0123E0681A4604F11C01FFF776
:105150006EF90028F4D0237F2B70F2E773B5102B83
:105160000D466FF02C064FF00001044628BF1023B7
:105170008DF8071080F82C50013A00F12D01361AF5
:105180007018834232D8591CC9B2C3F110021029D9
:1051900003F12D0388BF012254FA83F0002109F0A6
:1051A000B2FFE179E068FFF7FDF801231122E06822
:1051B00004F12C01FFF709F90646E0B10835EDB21C
:1051C000032D18D90325052004F01AFB06212046DB
:1051D0000DF10702FFF7A0FF30B9013D0BD09DF89C
:1051E00007309B07EFD4304602B070BD12F8010FB4
:1051F00001F8010BC4E70020F6E72DE9F74F074659
:105200008A4691469846002600F11C0B464501D37C
:10521000012019E00AEB0604C4F3071104F00F049F
:10522000A8EB0605C4F11003ADB29BB29D4228BFA6
:105230001D46102D28D0002338461A460191FFF74D
:1052400042FF019918B1002003B0BDE8F08F11B9F9
:105250000CB1FB793B77002309EB06020F2C98BFBA
:10526000D05C03F1010398BF0BF804009D4204F1E8
:105270000104F3D810235A463846FFF76FFF002881
:10528000E1D12E44B6B2C1E72B4609EB0602F3E7A3
:105290002DE9F84F07468A4691469846002600F1C8
:1052A0001C0B464501D3012017E00AEB0605C5F3A8
:1052B000071105F00F05A8EB0604C5F11003A4B211
:1052C0009BB29C4228BF1C46102C19D000233846A4
:1052D0001A46FFF7F8FE10B90020BDE8F88F00234A
:1052E00009EB06020F2D98BF1BF8051005F101050B
:1052F00098BFD15401339C42F4D82644B6B2D0E7CB
:105300002346384609EB0602FFF7DDFE0028F4D1FC
:10531000E2E70368013304D04068431C5842584117
:1053200070470120704710B50B6804689C4209D093
:1053300040684A68904205D0944203D0181A18BFBA
:10534000012010BD0020FCE740F30903B3F1FF3F4B
:1053500008BF0130C0F309000430704710B5031FC7
:105360000439083053F8042F51F8044F834282EA7D
:1053700004021A60F6D110BD08B503681B0D13F4C2
:10538000E06306D00430FFF7CEFFB0FA80F04009AA
:1053900008BD1846FCE7836E10B51A6A436DD31A30
:1053A0001944B1FBF2F302FB1311836D8B420BD94D
:1053B0000123426E4C0901F01F0103FA01F152F87A
:1053C00024300B4342F82430002010BD164A11F05F
:1053D000805F30B5154C18BF1446036883EA010599
:1053E00025421FD043F3090401341BD001EA020413
:1053F0000F4A1A4042F09F4242F4E002944211D018
:105400000A0D02F4E064B4F5806F09D1C3F3892476
:10541000C1F389218C4203D352B203EB8223036090
:10542000002000E0012030BD00FCFF7F00FC0F7079
:1054300000FC0F00024608B50846FFF785FF136819
:1054400018441060002008BD036B1944C1F3090320
:10545000003B18BF012321F0004141EAC371016301
:10546000704703680133036000207047836E10B5F6
:105470001B6B044613B9C06809F020FEA36E5B6B7A
:1054800013B9E06909F01AFEA36E9B6B13B9606E45
:1054900009F014FE002010BD2DE9F04F89B00392F1
:1054A000826E0693136ADDE912B45B458946DDE935
:1054B0001486059040F29A80D269A319934200F2B3
:1054C0009580069B013B07930EB930468BE0B9F1FE
:1054D000000F3CD0D9F800309B4538D1D9E90152B2
:1054E00005EB020AA24532D9A54211D8AAEB040A5B
:1054F000B24528BFB246D9F80C10651B404652464B
:10550000294409F0F3FDD0445444A6EB0A06DBE736
:105510002D1BB54228BF3546039B1B689B451CD1FC
:10552000039BD3E901120A44944216D28C4210D351
:10553000121B954228BF1546DB68611A40462A4671
:10554000194409F0D3FDA8442C44761BBCE735462A
:10555000E2E7091B8D4228BF0D46059B986E416905
:105560004268B4FBF1F31746069A01FB1343B242BB
:1055700016D8ABB98E4213D3B5FBF1FA01FB1A531F
:10558000A5EB030A0493224643465946CDF800A0F2
:10559000B84740BB049BD0445D1B54442E4493E762
:1055A000039A039DC2F800B0E21A6A60079D1B1BB4
:1055B00005EB010AA244BAFBF1F501FB15A1AAEB28
:1055C000010AC1698A4594BF53445B18816A8B42C2
:1055D00028BF0B4603998B600093CB685946B847A8
:1055E00000283FF471AF09B0BDE8F08F6FF05300B1
:1055F000F9E730B501680446082087B004AD8B6E2A
:105600000390029550680190126800920A46DB6987
:1056100010461031FFF740FF30B92846211DFFF733
:1056200082FE003818BF012007B030BD2DE9F04FD1
:1056300093B0154609931368826E0746126A0C46AA
:10564000934205D36FF05306304613B0BDE8F08F98
:1056500069688A42F6D900214FF004080CAACDE906
:105660000112009302464346CDF80C80CDE90C119F
:10567000FFF712FF064610B110F1540FE4D1CDF838
:105680000C804FF000080DAB0293CDF804806B68DE
:105690003A460093414604233846FFF7FDFE06468E
:1056A00020B110F1540FCFD1414606E0DDE90C31B5
:1056B000C91A0029D4BF0021012155F821304FF02B
:1056C000FF36236081F00103079355F823306360B0
:1056D00012AB03EB810151F8183CA3600023E36097
:1056E00002230893B04A0EAB92E80300042283E839
:1056F00003004FF0FF3004F1080102F033FC0023F7
:10570000B0464FF0FF399A46CDE90533049048463C
:10571000FFF71AFE042282440DF12C0B0392CDE90F
:1057200001AB2268BB6E009200213A463846DB6925
:10573000FFF7B2FE054638B115F1540F40F03A813B
:105740004FF00003A37522E059460422049802F0AA
:1057500009FC0B9B04901BBA89EA030BBBF1000FF9
:10576000CDF82CB03DDA4FEA195A0AF4E06ABAF5DE
:10577000A06F09D1BB6EE5689869B5FBF0F300FB3B
:105780001355B5FA85F56D0905F00100A075E368BC
:10579000002B00F01981214607F13C00FFF7ECFDDA
:1057A00048B1FB6BC6F38922C3F389239A4240F0C8
:1057B000038146F000461D9B3BB1A28AC6F38923B4
:1057C000934228BF13461D9A1380002EBFF63CAFAC
:1057D000A38AC6F38926B3428CBF6FF00106002668
:1057E00032E75846FFF7B0FDBB6E5044DB69984284
:1057F000A6D84FEA1B5202F4E062B2F5A06F7CD14A
:105800000422039210AA02920AF104020192226871
:105810002946009238463A46FFF73EFE05460028E4
:105820008AD1109B049A93428AD10B98030D8BEA7C
:10583000C37BFB6A5340FB62FFF786FD059B4FF07D
:10584000FF32A3820E9B5044A3610F9BC4E9030B5C
:10585000E361069B0492E37543464646D946984663
:1058600055E70122049810A902F07CFB09F1010917
:1058700004900B98FFF768FD4845236818D901216B
:10588000039110A9029109EB0A01CDE90031BA6E2A
:105890000021D36938463A46FFF7FEFD0546002849
:1058A000DFD010F1540F40F085804FF00003A37556
:1058B0000B9B1A0D12F4E06122D1059AC3F38923E0
:1058C0009A4201D8013305931C9B0B9981EA030985
:1058D000099B19EA030950D1236810AA10930AF111
:1058E00004031193DDE91E309847051E42DA15F1D5
:1058F000540F5FD184F8169049E74FF00409B8E7D8
:10590000B1F5806F1DD1059851B240FA82F292B282
:105910000592264A08EA020242F09F4242F4E0025F
:10592000934202D148F00048CEE7B8F1FF3FCBD018
:10593000C3F38923C8F389229342C5D808EB812891
:10594000C2E7B1F5C06FBFD102F001030822039294
:105950000EAA02920AF10402019222680693BB6E1B
:10596000009200213A463846DB69FFF795FD543036
:10597000AAD1E5E60B9B03D198464346B0466CE7B7
:105980000B4988EA03020A420AD0022DF5D1C8F376
:105990008922C3F389218A42EFD343F00048ECE720
:1059A0004FF0FF38E9E700BFA43F020000FC0F0002
:1059B00000FCFF7F2E4647E6711C3FF4FCAE9A4286
:1059C00088BFA6F58066F6E6D4E90032C4E9002374
:1059D000079B12AA02EB830353F8183CA360089BB1
:1059E000012B3FF42FAE012308937BE62DE9F0470E
:1059F0000123002506460F461446C2E90653DFF888
:105A00005C80DFF85C90DFF85CA088B004F11802DD
:105A10001046FFF77EFC10B16FF0010018E0B36E86
:105A20001B6AB5EB530F16D23B68CDE90090069385
:105A30007B682146079305ABCDE902833046534688
:105A400001350596FFF7F2FD0028DFD0831CDDD07D
:105A500008B0BDE8F0876FF05300F9E7F355010097
:105A600008000020FF03F07F1FB50023CDE90233BB
:105A700001934FF0FF330093FFF7D8FD05B05DF8B9
:105A800004FB2DE9F0410123002406468846154613
:105A9000C2E9064302F118073846FFF73AFC10B195
:105AA0006FF0010011E0B36E1B6AB4EB530F0ED21E
:105AB000414638460134FFF736FC30B13A462946B4
:105AC0003046FFF7D1FF0028E6D0BDE8F0816FF047
:105AD0005300FAE72DE9F04F07468846914693B008
