:020000021000EC
:1000000088B20020FDEF010025EE0100D9EF0100CC
:10001000D9EF0100D9EF0100D9EF0100D9EF0100BC
:10002000000000000000000000000000D9EF010007
:10003000D9EF010000000000D9EF0100D9EF010065
:10004000B1E4010061E5010059E6010061E501004C
:1000500059E60100C5D20100D1D30100A1D40100AD
:1000600035D5010091EC01005DCA010085C9010090
:10007000FDCA01003DCB0100C9D8010045E80100DF
:10008000C9D80100C9D80100C1DD010055DD01005A
:100090009DC301000DC40100B5C4010009C50100E4
:1000A000C9D80100000000000000000000000000AE
:1000B0000000000000000000000000000000000040
:1000C0000000000000000000000000000000000030
:1000D0000000000000000000000000000000000020
:1000E0000000000000000000000000000000000010
:1000F0000000000000000000000000000000000000
:1001000000000000000000000000000000000000EF
:1001100000000000000000000000000000000000DF
:1001200000000000000000000000000000000000CF
:1001300000000000000000000000000000000000BF
:1001400000000000000000000000000000000000AF
:10015000000000000000000000000000000000009F
:10016000000000000000000000000000000000008F
:10017000000000000000000000000000000000007F
:10018000000000000000000000000000000000006F
:10019000000000000000000000000000000000005F
:1001A000000000000000000000000000000000004F
:1001B000000000000000000000000000000000003F
:1001C000FFFFFFFFFFFFFFFFFFFFFFFFFFFFFFFF3F
:1001D000FFFFFFFFFFFFFFFFFFFFFFFFFFFFFFFF2F
:1001E000FFFFFFFFFFFFFFFFFFFFFFFFFFFFFFFF1F
:1001F000FFFFFFFFFFFFFFFFFFFFFFFFFFFFFFFF0F
:1002000010B5054C237833B9044B13B1044800E012
:1002100000BF0123237010BD681A002000000000F9
:100220006860020008B5034B1BB10349034800E0B6
:1002300000BF08BD000000006C1A002068600200CA
:10024000CB780278534003704B8842785340437018
:100250000A68837883EA122383700A68C37853405C
:10026000C370CB79027953400371CB8842795340F4
:1002700043714A68837983EA122383714A68C37998
:100280005340C371CB7A027A53400372427A4B894E
:10029000534043728A68837A83EA122383728A689E
:1002A000C37A5340C372CB7B027B53400373CB8929
:1002B000427B53404373CA68837B83EA1223837370
:1002C000CA68C37B5340C3737047FFFF0449431E92
:1002D0000F3013F8012F8A5C83421A70F9D17047EE
:1002E000D03A02001FB50278C3788DF80020427B17
:1002F0008DF80120827A8DF80220C2798DF80320D2
:1003000002798DF8042042788DF80520827B8DF8E3
:100310000620C27A8DF80720027A8DF808204279EB
:100320008DF8092082788DF80A20C27B8DF80B2089
:10033000027B8DF80C20427A8DF80D2082798DF8A1
:100340000E208DF80F3010236A46194600F0D8F9B8
:1003500005B05DF804FB2DE9F74F054608780C461B
:1003600000F0DDF900F0DBF900F0D9F90190207818
:1003700000F0D5F900F0D3F90090207800F0CFF923
:100380008346607800F0CBF900F0C9F900F0C7F9B6
:100390008246607800F0C3F98146A078667800F064
:1003A000BEF900F0BCF900F0BAF98046A07800F080
:1003B000B6F900F0B4F9A1780746E0784E4000F0B5
:1003C000AEF900F0ACF900F0AAF9E178019A4E40DC
:1003D000009B724053408BEA030B8AEA0B0A89EABE
:1003E0000A0988EA090887EA08077840287020780F
:1003F00000F095F900F093F900F091F90190607820
:10040000267800F08CF900F08AF900F088F9009065
:10041000607800F084F900F082F98346607800F09B
:100420007EF98246A07800F07AF900F078F900F0C1
:1004300076F98146A07800F072F9A1788046E078DC
:100440004E4000F06CF900F06AF900F068F90746D8
:10045000E07800F064F900F062F9E178019A4E402A
:10046000009B724053408BEA030B8AEA0B0A89EA2D
:100470000A0988EA090887EA08077840687020783E
:1004800000F04DF900F04BF900F049F901902078A7
:1004900000F045F900F043F900906078267800F00C
:1004A0003EF900F03CF900F03AF961788346A07813
:1004B0004E4000F034F900F032F900F030F9824695
:1004C000A07800F02CF900F02AF98146A07800F01D
:1004D00026F98046E07800F022F900F020F900F0DB
:1004E0001EF90746E07800F01AF9E178019A4E40CB
:1004F000009B724053408BEA030B8AEA0B0A89EA9D
:100500000A0988EA090887EA08077840A87020786D
:1005100000F005F900F003F900F001F982462078B7
:1005200000F0FDF88146607894F800B000F0F7F82C
:1005300000F0F5F800F0F3F80646607800F0EFF808
:1005400000F0EDF863788046A0788BEA030B00F0AA
:10055000E6F800F0E4F800F0E2F8A3788BEA030B89
:100560008AEA0B0B89EA0B0986EA090688EA06087B
:1005700080EA08005FFA80F8E07800F0D0F800F038
:10058000CEF800F0CCF80746E07800F0C8F800F0AC
:10059000C6F80646E07800F0C2F887EA08077E4011
:1005A0007040E87003B0BDE8F08F70B514460546A2
:1005B00088B000284AD000294AD0002A4AD0102307
:1005C0000A466846194600F09BF8684604F1A00107
:1005D000FFF736FE04F190066846FFF783FE684693
:1005E000FFF774FE31466846FFF72AFE694604A805
:1005F000FFF7B1FE01A905A8FFF7ADFE02A906A805
:10060000FFF7A9FE03A907A8FFF7A5FE1023684678
:1006100019460DEB0302103E00F072F8B442DBD134
:100620006846FFF75FFE6846FFF750FE21466846C2
:10063000FFF706FE10236A461946284600F060F8C8
:1006400068461022002100F068F8012008B070BD53
:100650000846FBE71046F9E7F0B50746264E8DB091
:1006600001AD0C460FCE0FC50FCE0FC596E80700A3
:1006700085E807003846002F39D0002C39D0381FC4
:100680000246214610344B780D781B0443EA05637B
:10069000CD7804312B4311F8025C8C4243EA0523E8
:1006A00042F8043FEFD10421144C8A07036916D1A4
:1006B000C3F30742A55C1A0EA25C42EA0562C3F3CB
:1006C0000725655DDBB2E35C42EA054242EA0322AC
:1006D00021F0030330336B4453F82C3C534050F863
:1006E000042F013153402C290361DED101200DB0CC
:1006F000F0BD2046FBE700BFD03B0200FC3B020000
:1007000038B50D46AB4211461C4604D81A460FF0C8
:1007100097F9204638BD0024FBE70FF09EB9C309C6
:1007200003EB430303EBC30383EA4000C0B270470B
:100730002DE9FF41984613070F464FEA12151AD1CB
:1007400004460026B54203DC012004B0BDE8F08178
:1007500007EB061142466846FFF727FF6946204629
:1007600004F1100311F8012B00F8012B9842F9D184
:1007700004460136E6E70135ADB2E1E701EBD1739E
:10078000014430B50C465B10421E601A834200DC07
:1007900030BD12F9010F11F9015D15700870F4E711
:1007A0002DE9F0418CB004AA04460D4690461D4B3D
:1007B00003F11006174618685968083303C7B34297
:1007C0003A46F7D16E46184B08AF0FCB07C60D213E
:1007D00033706846FFF7D2FF4646002239464FF095
:1007E0000D0C4FF0FF0EB2FBFCF00CFB102000F1E3
:1007F00030030DEB030010F8303C16F8018BA85CB9
:10080000434403F5BD730344B3FBFEF001320344DC
:10081000102A07F8013BE6D12046FFF71DFF0CB078
:10082000BDE8F081FC3C0200800000080244013970
:10083000824200D1704712F8013D01F8013FF7E70D
:10084000F0B500240A2785B0CDE90044CDE9024483
:100850000D460F49661C04F110030928F2B26B44DF
:100860000CD8095C684603F8101C2946FFF7DEFF28
:10087000002230462B195A7005B0F0BDB0FBF7F4DA
:1008800007FB1400085C03F8100C20461446E1E74F
:100890000D3D0200021E08B503DBBDE80840FFF76E
:1008A000CFBF2D23504201F8013BFFF7C9FF0130B4
:1008B00008BD70B50025013A12B29542ABB202DD17
:1008C0002B4698B270BD541B04EBD47403EB640345
:1008D0009CB21BB251F823608642F2D08BBF013428
:1008E00004F1FF3225B212B2E7E7B5EEC00AF1EE2D
:1008F00010FA48BFB1EE400A704700290B4602DAF1
:10090000404261EB410319467047FFFFFFFFFFFFC5
:1009100038B517A5D5E900452DED048BB7EE008A53
:10092000F0EE408AB0EE489AF6EE009A28EE087A89
:10093000C7EE287A77EEC97AF5EEC07AF1EE10FAB2
:1009400048BFF1EE677A17EE900A0EF021FD2246BD
:100950002B460EF0E9FD20B9B0EE480ABDEC048B41
:1009600038BD88EE880A30EE088A28EE298ADDE74D
:100970008DEDB5A0F7C6B03E2DE9F74F0E1E05462A
:100980004BDB022876F100034BDB00248246B346A2
:10099000A0462746A146BAEB07026BEB09035208B3
:1009A00042EAC372D21949EB630328463146CDE9C6
:1009B00000320EF02BFE019A009B9042994127DBFA
:1009C00014469846571C43F10009BA457BEB0903CE
:1009D000E1DAA4FB047204FB08F3601C48F1000197
:1009E00002EB4303B5EB070C00FB01FEA0FB00721A
:1009F00066EB030302EB4E027D1B62EB06066545C8
:100A000076EB030301DB2046414603B0BDE8F08FDF
:100A100012F1FF3A43F1FF3BD7E74FF0FF300146B9
:100A2000F3E73146F1E7002210B504461046A15C19
:100A3000A1F13003092B0BD8A0F13003032A01EBFD
:100A4000030002F1010218BF0001042AEFD110BD1A
:100A5000A1F14103052B02D8A0F13703EEE7A1F184
:100A60006103052B02D8A0F15703E7E70020EEE76A
:100A70002DE9F84F0A688B6880465D1CD018D35C5E
:100A80008A46222B154440F0DD802F4600234C6817
:100A9000B91AA14280F0D680397822290ED1C3F14B
:100AA0000103381ADAF810201844904783460028CA
:100AB00000F0C8800446DFF898910FE05C2905D16A
:100AC0000137B91A8C4240F2BD8001330137DFE7AC
:100AD0002B785C2B12D0013504F8013BBD42F7D3D3
:100AE0000023237010230120C8E9033BDAF800300B
:100AF000FB1A0133CAF80830BDE8F88F7A1B002AC8
:100B00000DDD6B78752B0AD86D2B12D8622B2BD08C
:100B100026D82F2B29D05C2B27D0222B25D0584626
:100B2000DAF814309847DAF80000281ACAF80800F2
:100B30008BE06E3B072BF2D801A151F823F000BFE8
:100B4000750B01001F0B01001F0B01001F0B0100A3
:100B5000790B01001F0B01007D0B0100810B0100CF
:100B6000662BDCD10C2300E0082304F8013B0223B0
:100B70001D44B3E70A23F8E70D23F6E70923F4E75A
:100B8000052ACCDDA81CFFF74EFFA0F55C43B3F5AA
:100B9000806F0646C3D3A0F55843B3F5806F2DD2BE
:100BA000AB1DFB1A052BBADDAB795C2BB7D1EB790A
:100BB000752BB4D105F10800FFF735FFA0F55C43B4
:100BC000B3F5806FABD20C2309EA8626C0F3090087
:100BD000304300F580364FF0F00C042000F1FF3E6A
:100BE00054FA8EFEA645F2B224D1012814BF42EA7F
:100BF0000C0202F07F0222700444B9E77F280AD970
:100C0000B0F5006F0CD3B0F5803F0ED3B0F5881F60
:100C100085D20623DFE706234FF0000C0120DDE735
:100C200006234FF0C00C0220D8E706234FF0E00C5B
:100C30000320D3E702F03F0262F07F010EF80119B2
:100C4000B609CFE7002D7FF46EAF002054E700BF58
:100C500000FC0F0010B528B1016889B1D0E901325C
:100C60009A4202D310BD013282608268934203D956
:100C70008C5C202CF7D9F5E7F4D1013B8360F1E7D8
:100C80000846EFE710B1806800B101B9704700680D
:100C90000139F9E738B5044638B1006828B1A568CC
:100CA00028440FF012F92844A06038BD70B50446FE
:100CB000B8B1056865B1436813B18268934210D931
:100CC00000290EDBA2684E1C1644B34202D3154421
:100CD000284670BD236923B9B6F1804F03D3002E97
:100CE0000FDA0025F4E77600236A6BB12846314617
:100CF00098470546B0B9E36920689847C4E90055AC
:100D0000E6E76FF00046EFE73046A36998470546EF
:100D10000028F0D0A268216801320EF091FEE3694C
:100D200020689847A368C4E900561D44D0E7FFFF38
:100D3000F8B50D460446002834D0002931D0846827
:100D4000FAB9194E74B3236AC3B1AB4221D005F18D
:100D5000FF3C013B1CF8011F0F468A5D02F00302B5
:100D6000012A13F8012F08BF01F12007B05C00F041
:100D70000300012808BF203297420FD02468E1E722
:100D800024687CB1216A21B128460FF07BF8002845
:100D9000F6D1236A002B08BF002403E00029D9D133
:100DA000F7E70C462046F8BD0D5C020081B138B172
:100DB00081420DD0836823B98160C1E900310120EF
:100DC00070475A68002AFAD011604A605960F6E705
:100DD000002070472DE9F84F0646084611B900205B
:100DE000BDE8F88F36B331464FF0000A0124424F78
:100DF0000D4611F8013B3BBBAD1B5544E91CFFF709
:100E000055FF07460028EAD04FF0220B441C05F19D
:100E1000010905F1020880F800B0BAF1000F29D1EC
:100E20002A46314620460EF00BFE07F809B007F8B7
:100E300008A007E00321FFF739FF0028CFD02F4992
:100E40000FF02AF80120CBE7222B0BD8072B0CD967
:100E5000A3F10802D2B204FA02F23A4205D00AF132
:100E6000010AC5E75C2BC3D1F9E71F2B98BF0AF134
:100E7000050ABDE75C254FF0740ADFF884B0013E37
:100E800016F8013F2BB9222207F8092007F808308D
:100E9000D8E71F2B07D9222B05D05C2B03D0204687
:100EA0002370441CECE7204600F8015B32780D2AE1
:100EB0000AD8072A1AD9A2F10803052B16D8DFE8A9
:100EC00003F009120E150C10222A01D05C2A0DD154
:100ED0006270E6E762236370E3E76623FBE76E2355
:100EE000F9E77223F7E784F801A0DAE759460EF034
:100EF0002BFF601DD5E700BF37000004173D02003F
:100F00001A3D020037B5054680B10EF0DEFF084BF2
:100F1000421C10461B6801929847044618B12946A6
:100F2000019A0EF08DFD204603B030BD0446FAE76D
:100F300090060020F8B50D461446074600B3F9B1F7
:100F4000F2B190421CD093B1D66846F40076E368C3
:100F50009B0504D4206A10B10A4B5B689847214670
:100F600038462562E660BDE8F840FFF71FBF084637
:100F7000FFF7C8FF054618B1E66826F40076E6E7F5
:100F80000020F8BD90060020034610B528209847A1
:100F9000044618B1282200210EF05FFD204610BD46
:100FA0002DE9F04F0C4680468DB008B900255DE074
:100FB0000029FBD0057B102D00F00E8118DC6B1E84
:100FC000072BF3D8072BF1D801A252F823F000BF6A
:100FD0005B10010075100100AD0F0100451001000C
:100FE000AD0F0100AD0F0100AD0F01008510010034
:100FF000402D00F02081802D00F0D980202DD5D10A
:10100000866801212046FFF751FE0028CED05B23E1
:101010002C274FF000080370A3680133A360E36836
:101020000133E360002E40F0DD8002212046FFF70F
:101030003DFE0028BAD05D2346700370E368013B93
:10104000E36008E005212046FFF730FE0028ADD020
:1010500092490EF021FF012508E006212046FFF706
:1010600025FE0028A2D08E490EF016FF28460DB0AE
:10107000BDE8F08F05212046FFF718FE002895D027
:101080008849E6E70021D0E90667162206A80591FF
:101090000EF0E3FC002200233046CDE9022339465E
:1010A00032463B460EF054FA90B927F0004B4FF011
:1010B000FF32304659467C4BB2460EF049FAF0B941
:1010C0004FF0FF3230465946774B0EF023FAB0B955
:1010D000724905A80EF0E0FE04252046691CFFF7C2
:1010E000E5FD00283FF462AF034605A94619B34267
:1010F00057D100234355A0682844A060ABE7D8F837
:10110000145028460EF032F902460B463046394656
:101110000EF0ECF948B12A46644905A80EF014FE19
:101120000546192D3FF642AFD7E732463B466049A8
:1011300005A80EF009FE5F49054602AA05A80EF0B3
:1011400023FE012826D1DDE9028929F00043CDF8EC
:10115000008001935046DDE9002359460EF0D0F996
:1011600008B9CDE900AB32463B46404649460DF052
:10117000AFFF00228046504B21F00049DDE900011D
:1011800012F0A0F802460B46404649460EF0C2F95E
:101190000028C6D132463B46484905A80EF0D4FD8A
:1011A000BEE711F8012B013303F8012C9FE700691A
:1011B00000283FF4FBAE0EF088FE421C114620468C
:1011C0000092FFF773FD00283FF4F0AE009AD8F8C4
:1011D00010100EF035FC3EE700690DB0BDE8F04F91
:1011E000FFF7F8BD21463046FFF7DAFE00283FF44E
:1011F000DDAE2046FFF74EFD3368BBB16369204684
:10120000002B14BF4FF002094FF0010909F1010151
:10121000FFF74CFD00283FF4C9AE077063693BB986
:10122000431C83F80080A3684B44A3603668F9E64A
:10123000831C4570F5E74B698568002B14BF0226B7
:1012400001262046711CFFF731FD00283FF4AEAEA9
:101250007B230370E26863690132E2600BB10A2309
:101260004370A3683A2733440926A36063693DBBF2
:10127000002B00F08580E16801312046FFF716FD64
:1012800000283FF493AE6369002B40F0838003464F
:101290007D221A7000225A70D0E600BF203D020065
:1012A000253D02002B3D0200FFFFEF7F303D020095
:1012B000333D02003A3D02000000B03C3E3D0200DA
:1012C00073B12046E168FFF7F1FC00283FF46EAEF1
:1012D0000246E168131A99424FD8A3680B44A360F1
:1012E0002146286AFFF776FD00283FF45FAE2046CE
:1012F000FFF7D0FC63692046002B14BF4FF00208B3
:101300004FF001084146FFF7D1FC00283FF44EAEF4
:101310000770636903B14670A368214643442846B9
:10132000A360FFF73DFE00283FF440AE2046FFF7E4
:10133000B1FC2B686269B3F1000818BF4FF00108D7
:10134000002A18BF08F10108204608F10101FFF743
:10135000ADFC00283FF42AAE2B6813B12C2300F813
:10136000013B636913B10A2300F8013B00230370BA
:10137000A3682D684344A36078E702F8016BA8E7EF
:1013800002217AE703F8015BE268191A013A8A42FE
:10139000F8D87DE703460925F6E700BF70B5044697
:1013A0000F4D04B970BDE3682668D90503D4A06861
:1013B00068B9206988B9E3689B0503D4206A08B13D
:1013C0006B68984720466B6898473446E9E7FFF713
:1013D000E5FFE368DA05ECD5EDE76B689847EAE7E7
:1013E00090060020FFFFFFFF2DE9F04706460C4660
:1013F00092B009B9002023E00F68002FFAD08D6861
:10140000D1F8048005F10409C1450BD804229249A2
:1014100078190EF062FD28B90423F360C4F808902F
:1014200001200DE005F1050AD0450CD305228B49BA
:1014300078190EF052FD30B90120F060C4F808A010
:1014400012B0BDE8F087C1450CD804228449781950
:101450000EF043FD30B902230120F3607061C4F83F
:101460000890EDE74545C5D27B5D7819222B06D162
:101470002146304612B0BDE8F047FFF7F9BA2D2BF0
:1014800003D0A3F13002092A62D8002302AA17462A
:101490004FF02E0E0193A8EB050510F8011B39291A
:1014A00010D82A291BD9A1F12B0CBCF10E0F16D88C
:1014B000DFE80CF00D150D3B150D0D0D0D0D0D0D8F
:1014C0000D0D0D0001F0DF0CBCF1450F07D11170BF
:1014D00001333F2B02F1010201D0AB42DDD10025E7
:1014E00048336B44384603F8405C01A90FF03AFBDF
:1014F000DDF804A059EC108BBA453FF47BAF54A340
:10150000D3E9002386ED060B10EE100A49460EF0D3
:101510000BF868B16FF0004373610823AAEB070A68
:10152000A768F3605744A7607AE782F800E0CFE746
:101530000022404649464B4B0DF0ECFF10B14FF0F6
:101540000043E9E7404649460EF018F87061E4E7C9
:101550005B2B54D1E368B3F57A7FBFF44BAF013313
:10156000E3607B5D5B2B7FF445AF01352046A560D2
:10157000FFF770FBD4E90123934264D22268D25C66
:101580005D2A0DD100252F46E368013BE36007B1DA
:101590007D602023C6E90273A3680133A3603FE79F
:1015A00000252F46013BA3602069FFF7EDFCA8460C
:1015B0000546002800F09D80FFB1C8F80000C0F883
:1015C0000480A36820460133A360FFF743FB214654
:1015D0002846FFF709FF002800F08E802046FFF71D
:1015E00039FBD4E90123934280F086802268D35CE2
:1015F0002C2BD9D05D2B7FD1C6E70746E1E77B2BAB
:101600007FF4F8AEE368B3F57A7FBFF4F3AE01334D
:10161000E3607B5D7B2B7FF4EDAE01352046A5605A
:10162000FFF718FBD4E9012393420CD22268D25C65
:101630007D2A19D100252F46E368013BE36007B1FD
:101640007D604023A6E7013BA360D3E6AFF30080B3
:101650000000C0FFFFFFDF41203D0200253D0200EA
:101660002B3D02000000E0C100252F46A846013BAB
:10167000A3602069FFF788FCA9460546002838D0FA
:10168000AFB3C9F80000C0F80490A3682046013346
:10169000A360FFF7DFFA21462846FFF7E9F958B3C0
:1016A0002046FFF7D7FA2B69C5F810802B62D4E9E2
:1016B0000123934220D22268D25C3A2A1CD1013302
:1016C0002046A360FFF7C6FA21462846FFF78CFEA6
:1016D00090B12046FFF7BEFAD4E9012393420BD222
:1016E0002268D35C2C2BC4D07D2B05D1A4E7074600
:1016F000CBE7002F3FF47EAE3846FFF74FFE79E68A
:101700002DE9F04305464FF0000989B02E4F0C46F5
:10171000164600211C2201A898460EF09EF9C7E942
:101720000099002D46D0002C39D0284BCDE901542A
:1017300093E8070008AB03E90700FFF725FC044620
:1017400068B3019870B1039B5BB9029B042B06D967
:1017500003221F490EF0C1FB08B90323039301A81C
:1017600000E04846FFF776FA01462046FFF73CFEC8
:1017700090B1B8F1000F04D1F6B9204609B0BDE828
:10178000F08301A8FFF766FADDE90223934203D252
:10179000019AD35C002BEFD02046FFF7FFFDDDE977
:1017A00002329A420DD303B1013B0EB1EA18326006
:1017B000C7E900530024E0E7019B039A1344336018
:1017C000DBE71346F1E700BF841A002090060020F3
:1017D000453D020037B50D460446019250B10EF06A
:1017E00074FB2A46411C2046019B03B0BDE83040F3
:1017F000FFF786BF03B030BD00221146FFF7EABFF6
:10180000F0B515468BB006460C462422002101A8EF
:101810001F460EF022F9002D11DB94B10123CDE912
:101820000537094BCDE9014593E807000AAB03E909
:101830000700304601A9FFF7B3FB0BB0F0BD002055
:10184000FBE72046F9E700BF90060020002901DBF6
:10185000FFF718BA002070470022FFF769BA00238B
:10186000FFF768BBFFFFFFFF174BD0B5186857ECB9
:10187000106BFFF789FB044670B10823C0E90667C7
:10188000C36039460EA3D3E9002330460DF04CFE69
:1018900020B16FF0004363612046D0BD0022304686
:1018A00039460A4B0DF036FE10B14FF00043F2E717
:1018B000304639460DF062FE6061EDE7AFF300801F
:1018C0000000C0FFFFFFDF41900600200000E0C1E4
:1018D00037B505460191FFF7C7FF002302460446CE
:1018E00001992846FFF726FB054618B92046FFF761
:1018F00055FD2C46204603B030BDFFFF38B50A4BDE
:1019000005461868FFF740FB044658B11023C36032
:101910002846FFF7F7FA0546206118B92046FFF779
:101920003DFD2C46204638BD9006002037B50546C3
:1019300010460191FFF7E2FF002302460446019999
:101940002846FFF7F7FA054618B92046FFF726FDA7
:101950002C46204603B030BD08B5044B1868FFF78D
:1019600013FB08B12023C36008BD00BF9006002010
:1019700008B5044B1868FFF707FB08B14023C360A4
:1019800008BD00BF9006002037B505460191FFF75E
:10199000EFFF00230246044601992846FFF7CAFAE2
:1019A000054618B92046FFF7F9FC2C46204603B03F
:1019B00030BD2DE9F843B1F10009804603DA002477
:1019C0002046BDE8F8830028F9D0FFF7C5FF0026C0
:1019D00004463746002CF2D0B94504D8A368002B42
:1019E000EED05E60ECE758F827000DF0BFFC41EC4C
:1019F000100BFFF739FF054618B92046FFF7CEFC5C
:101A0000DDE71FB9A0602E460137E3E7306046608E
:101A1000F9E720B1007BA0F1080358425841704714
:101A200008B50246FFF7F5FF10B192ED060B08BDB1
:101A30009FED010BFBE700BF000000000000F87FF6
:101A400020B1007BA0F1100358425841704708B5FF
:101A50000246FFF7F5FF00B1106908BD70B50D46ED
:101A60001646044618B918200DF0CAFF0446002394
:101A700063614FF0FF33681CC4E90106E360704303
:101A800023610DF0BDFF206020B90348BDE8704020
:101A90000EF03AB970BD00BF493D020038B5C568C7
:101AA00043680135B5FBF3F203FB125503690446A5
:101AB000AB420CD02368C068A26802FB00300DF076
:101AC000BFFF0120E56063690133636138BD002019
:101AD000FCE710B50446E268236908469A4213D031
:101AE0002368A268216902FB01310DF0A9FF236977
:101AF00062680133B3FBF2F1012002FB1133236171
:101B00006369013B636110BD0020FCE74FF6FF7283
:101B100010B5074C0144884201D1104610BD10F8A1
:101B2000013B5340DBB234F8133083EA1222F2E770
:101B30005A3D02002DE9F84F0B7806467E2B0D46E4
:101B4000904600AF66D1B1F801304FF400725BBA35
:101B500083809CB2831D184600210DF07EFF034652
:101B60006FF00100AA1C401B81188C4231DC04F18B
:101B7000030BB8F1000F31D0AB4406F2062306F296
:101B800016221BF8011B03F8011B9A42F9D1EA4601
:101B900004F113092A1915F8093092F814801A343F
:101BA000E40848EA0328AAEBC4039D464A462946AE
:101BB0006846A6F816820DF043FF68461FFA89F1C1
:101BC000FFF7A4FF804524D1D5463046BD46BDE889
:101BD000F88F12F8011F03F8011BC5E7EA462A191E
:101BE00015F80B3092F804900A34E40849EA032906
:101BF000AAEBC4039D465A4629466846A6F81692A3
:101C00000DF01EFF68461FFA8BF1FFF77FFF81453D
:101C1000D9E7D5460026D8E7D0ED037A9FED1B7AA9
:101C2000F4EEC77AF1EE10FA10B504462DED028BF2
:101C300003D50020BDEC028B10BD9FED157AF4EEAC
:101C4000C77AF1EE10FAF4DC90ED000AFEF74DFED3
:101C50009FED108AB4EEC80AF1EE10FAE9D494EDC3
:101C6000010AFEF742FEB4EEC80AF1EE10FAE0D423
:101C700094ED020AFEF739FEB4EEC80AF1EE10FA4E
:101C800054BF0120002040B2D4E700BF0000A042B2
:101C90000000C8426F12833A044B0360044B436058
:101CA000044B8360044BC360704700BF815585427D
:101CB00060559543DD40A7440000C8429FED1A7A65
:101CC000C0EE077AF8FE677A67EE877AC0ED017A90
:101CD00007EE901A9FED157AF8EEE76A0029C6EE36
:101CE000877ABCBF9FED127A67EE877AC0ED007AE3
:101CF000DFED107A90ED007A27EE277ADFED0E7A8D
:101D0000C7EE276AD0ED047A77EEE67A0029B8BFED
:101D100049421429C8BFB0F84030C0ED047AC4BFAE
:101D20000133A0F8403070476F12833A0000C8C3F7
:101D3000CDCC8C3F9A99193F00006145D0ED017AD6
:101D400090ED020A37EEC00AC0ED027A10B580EDC0
:101D5000030A0446FEF7C9FDDFED137AB4EEE70A85
:101D6000F1EE10FA03D50023E360236110BDDFED2F
:101D70000F7A94ED047ADFED0E6A27EE277AD4ED20
:101D8000037A67EEA67AC7EE276ADFED0A7AF4EEE9
:101D9000E76AF1EE10FAE6D4F7EE087AF4EEE76AB5
:101DA000F1EE10FADFDCE1E70AD7233C00006145E1
:101DB000000073463333333F90ED037A9FED526A50
:101DC00067EE075A10B5DFED516A2DED028BD0EDAD
:101DD0000C7A85EE868A07EEA68AD0ED047A27EE85
:101DE000277AC7EE065A90ED0D5AB0EE657A67EE87
:101DF000A77A05EE267A80ED067A87EE867AD0ED10
:101E00000E5AF0EE477A45EEA67A80ED058AC0EDCF
:101E1000077A9FED3F0A0446FEF77AFDF0EE408A0E
:101E20009FED3B0AFEF774FDD4ED077A28EE800A99
:101E300000EE678A9FED360AFEF76AFDF0EE488AEB
:101E4000B0EE408A9FED320AFEF762FD38EE088A56
:101E500028EE008A94ED060A28EE008A88EE880AA9
:101E600084ED0A0A20EE008A9FED290AFEF750FD54
:101E7000F0EE408A9FED260AFEF74AFD28EE800A22
:101E8000F7EE008AC8EE807A37EE880AFEF740FD4A
:101E9000D4ED0A7A30EE670ADFED1E7A84ED090A86
:101EA0009FED1D7A20EE270ADFED1C6A20EE070A5F
:101EB00080EE267AB4EEE77AF1EE10FA94ED0F0A8E
:101EC00077FE877AC4ED087A30EE670AFEF70DFDDB
:101ED000B4EEE80AF1EE10FA114B13D5226AE26370
:101EE00062692263A2696263E269A26301221A70D5
:101EF0000022BDEC028B2261002293F90000A4F8BD
:101F0000402010BD0022F2E78FC2F53A77BE7F3F36
:101F100066CF8B3A0000C84200006145000073465E
:101F20008C1A0020D0ED0F7AF8FE677AFCEEE77A83
:101F300017EE900A7047F0B50025B0F90810013986
:101F4000ECB28C424FEAC4060ADA4768013507EB67
:101F5000060C57F83470DCF8044097429C41EFDBE4
:101F600003683344D3E90001F0BDFFFFFFFFFFFF2B
:101F70002DE9F04100210646B0F90850076805F147
:101F8000FF3ECCB2744511DBF4B9D7E90001821AE7
:101F900061EB03018B00746843EA92739200D4E909
:101FA0000001801A61EB0301BDE8F08101F1010835
:101FB00007EBC40C57F83410DCF804008A4273EBCA
:101FC00000011CDB4146DCE774451AD105F10055E0
:101FD000023D57F8351007EBC5004468521A63EB11
:101FE00004017368890053F8350003EBC50441EA26
:101FF000927163689200101841EB0301D4E7002C42
:10200000C3D0716804F10055013D51F8356001EB12
:10201000C50CDCF80C10DCE90140801B61EB040C02
:1020200007EBC50E57F83510DEF80470521A63EB53
:10203000070100FB01F7A0FB020102FB0C7706A3DE
:10204000D3E9002339440DF0E1FA801944EB010192
:10205000AAE700BFAFF30080404B4C000000000037
:10206000D0B504464FF2244100260027226A406A78
:10207000A2FB012301FB0033C4E91467C4E9122366
:102080002068FFF758FFC4E91867C4E91601D0BDFE
:102090002DE9F8430025002600272C4BC0E9041544
:1020A000C0E90815036005644560C0E90667C0E93A
:1020B0000A67C0E90C67C0E90E670446FFF7D0FF66
:1020C000D4E9169845F6F323214AC4F89851C4E997
:1020D0001A23C4E91C231F4B25724B4575EB0803DB
:1020E000C4F8B451C4E96A67C4E96267C4E96467C3
:1020F000194D18DA0023194AC5E900234FF47A7103
:102100002B68B3FBF1F2C4F8A03101FB1233B3F535
:10211000FA7F4FF0000328BF0132C4F8A421C4F8AD
:10212000B031BDE8F883002342F2107248464146C0
:102130000DF06CFA0A4B99454FF0FF3378EB03032F
:10214000ACBFC5E90001C5E90067D7E79C060020E0
:1021500000407A100FF19A3B901A0020A0860100EF
:10216000F1D8FFFFFFFFFFFF2DE9F04F044646F2D5
:10217000A610A1F52F43C93B83429CBF0023636196
:1021800041F216532DED028B98BF216102F6AB513F
:1021900099429CBFD317C4E90A23D4E90601D4E9C4
:1021A0000432C01841EB0201D4E90C53D4E90A67A8
:1021B000751947EB0308236CC4E9060101333B2B77
:1021C000C4E90C588BB0236415D93C2200230DF0D0
:1021D0006DFA3C22C4E908010023284641460DF06F
:1021E00015FA00230022C4E90623C4E90C230023C6
:1021F000C4E90E012364257ADDB1012D3AD0D4F86B
:102200009831227A0133C4F89831002A52D0012A39
:1022100000F02E83D4E91676224B234DBB424FF0BB
:102220000003B34180F23083204A0023C5E9002334
:102230003AE363683046013363603946FEF75DFB7D
:102240003D2871F1000301D36560D8E74EF66023A5
:1022500062689A42D3D120466560FFF701FF0023F0
:102260000022C4E96A230123C4F8B451C4F8985188
:102270002372C4E730463946FEF73FFB3D2871F133
:102280000003BCD345F6F323094AC4E91A23C4E981
:102290001C2300230022C4E96A230023C4F89831D8
:1022A000E6E700BF0FF19A3B901A0020A0860100DC
:1022B00000407A103B2BADD9D4E916674FF2244188
:1022C000236AC4F89821A3FB0132606A04F1780AFA
:1022D00001FB0022C4E91232A26BE06BE0495342D9
:1022E00001FB0033A2FB01210B44C4E91423D4E910
:1022F000180104F1A00301935346E3E80267019A31
:10230000C3E908019A42F8D1D4E91A01FEF734FB77
:102310000F25A0FB05064FF47A7205FB016100232F
:102320000DF074F9D4E920320E461B1842EB01017E
:10233000C4E92031D4E92432181A62EB0602C4E958
:102340002402D4E91C01FEF717FBA0FB05064FF49D
:102350007A7205FB016100230DF058F9D4E92C35A0
:102360000E461B1845EB0101C4E92C31D4E930328B
:10237000D4E91457181A62EB0602C4E93002B2A37A
:10238000D3E90023B7486E4200FB0766A5FB0001B6
:1023900031440DF03BF932220291064600232846D3
:1023A00039460DF033F9554680468946D5E9003265
:1023B0000299F31845F8083B41EB0202D5E908B74A
:1023C0004FF0FF3345F8042C58466FF03102394680
:1023D0000DF01CF9019B10EB0B0047EB010110EB1A
:1023E000080049EB0101AB42C5E90801DED1002339
:1023F000002500222E46C4E91623C4E918232846E6
:1024000053462946D3E900270833101847EB01014A
:10241000D3E90872ED1946EB0206019A9A42F1D10E
:10242000052200230DF0F2F80522CDE90601C4E9EA
:1024300016010023284631460DF0E8F8CDE90801E1
:10244000C4E918015146D1E90032069808311B1A37
:10245000079862EB00020898C1E91232D1E908320C
:102460001B1A099862EB0002C1E91C32019B9942D8
:10247000E9D19FED778B45F6F32E04F1C80584ED85
:102480001A8B84ED1C8B2F46DFF8E0C1764BCDE92B
:1024900004CE0293DFF8D0B104F1F0030393DBE93B
:1024A0000038D7E9000603FB06F9A3FB002100FB77
:1024B00008995643494400FB0161A2FB0002114404
:1024C000049A08378018059A0BF1080B41EB0201BA
:1024D000D7E9086203FB02F906FB0898A3FB06395B
:1024E0005A43C84406FB0828A3FB063613EB0C0C22
:1024F000039BB04448EB0E0EBB42CDE90401CED1A4
:102500005346C4E91B1CA066C4F874E0069A08335D
:1025100043F8082C079A43F8042C089A1A62099A7F
:102520005A62019A9A42F1D1FEF726FA0F26A0FBD1
:1025300006074FF47A7206FB017100230DF066F86E
:10254000D4E920378C461B1847EB0101C4E9203140
:10255000D4E92432181A62EB0C02C4E92402D4E94B
:102560001C01FEF709FAA0FB06074FF47A7206FB7E
:10257000017100230DF04AF8D4E92C360F461B18E0
:1025800046EB0101C4E92C31D4E93032181A62EB70
:102590000702C4E93002FAE802232068FFF7E8FCEA
:1025A0006FF0630280460F46DAE908014FF0FF330F
:1025B0000DF02CF810EB080847EB01074FF0FF3344
:1025C000D4E914016FF031020DF020F8019B18EBF3
:1025D000000047EB01015345CAE92A01DBD1002382
:1025E0000022002004F59476C4E9462301463346D0
:1025F00004F5A877D3E9002C083310184CEB01013F
:102600009F42F7D1052200230DF000F8CDE9040127
:10261000C4E94601D6E90032049908365B1A0599E7
:1026200062EB0102B742C6E90832F3D10AA3D3E94B
:102630000023DFF834C0C4E94823DFF834E03B4628
:1026400018E000BFAFF3008000E40B54020000006C
:1026500000407A10F35A00000000C16FF286230098
:1026600060DAD9FFAAB3FAFF104C020000407A10DA
:10267000F2862300D24F04F5BC78D3E9000100FBB9
:1026800001F9DCE90026A0FB0001464301EB49010A
:1026900002FB0161A0FB02020833C019114441EBA7
:1026A0000E029845074696460CF1080C0192E4D1BB
:1026B00000260023C4E948020022B0463746B1464E
:1026C000C4E95E23C4E96023D5E9002B0299029B8B
:1026D000D1F804E008310291D5F88C10D5F888C003
:1026E00002FB01FA0CFB0BAAA2FB0C2BDA4402FB47
:1026F0000EFB1B68083503FB0ABAA2FB032BD71994
:10270000DA444AEB0909D5E908A20CFB02F201FB05
:102710000A22AAFB0CAC94440AFB0EF203FB0C2227
:10272000AAFB03A313441AEB060643EB0808039B1A
:10273000AB42C9D1A0A3D3E90023C4E95E79C4E9BF
:10274000606801990CF062FF51EA000305468A4671
:1027500002900FD002460B46384649460CF056FF11
:102760002A46C4E962015346304641460CF04EFF0A
:10277000C4E96401D4E96273D4E912010193049BB2
:10278000B0EB0308059BA7FB080661EB030B07FBF7
:102790000BF1019B08FB031187A3D3E9002331440C
:1027A0000CF034FFD4E91632D4E96469181842EB0E
:1027B0000101C4E9160180A3D3E9002308FB09F154
:1027C00006FB0B1BA8FB060159440CF01FFFD4E9C4
:1027D00018321818019B42EB0101C4E9180103FBF0
:1027E00005F175A3D3E90023A5FB070C07FB0A112C
:1027F00061440CF00BFF019B09FB05F5434307FB0C
:102800000131D4E91A23A0FB0707101A0F4463EB28
:102810000707002FBEBF00220023C4E96223029BEA
:10282000A8BFC4E91A0706FB0A5AA3FB060162A364
:10283000D3E90023B8BF84ED1A8B51440CF0E6FEB7
:1028400000FB09F906FB0199D4E91C31A0FB06063F
:10285000181A4E4461EB0606002EBDBF002200236D
:1028600084ED1C8BC4E91C06B8BFC4E96423D1E421
:1028700044F24F6293427FF6CDAC00232046C4F869
:102880009831FFF7EDFBC5E4002342F210723846A1
:1028900031460CF0BBFE4B4B9F424FF0FF3376EBC3
:1028A000030336DBC5E90001D4F8A0312868C01A5B
:1028B000C4F8B001C117FEF720F842F21173984234
:1028C00071F1000303D32046216AFFF7E1FB237A6D
:1028D0000BB3012B3FD04FF47A71D4F8A03140F202
:1028E000BD20B3FBF1F201FB1233B3F1960561EBAE
:1028F0000101854271F1000105D3B3F5FA7F28BFCC
:102900000132C4F8A42100200BB0BDEC028BBDE85D
:10291000F08F002289E4D4E90E01FDF7EEFF50EAC2
:102920000103D8D0D4F8B021D4F8A031002A09DAB4
:10293000D4E90E120A3172F1FF32CCDA013BC4F84D
:10294000A031C8E7C7D0D4E90E120B2972F10002FA
:10295000C1DB0133F3E7D4E96A31D4E90E259A18D3
:1029600040F6B733D4F8B40141EB05010130984289
:10297000C4E96A21C4F8B401ADD90020C4F8B40197
:10298000D4F8B001D4F8A03110F1640F07DA643B39
:10299000C4F8A03100220023C4E96A239BE764281D
:1029A000F8DD47F23150824271F10002F2DB64330C
:1029B000EEE700BFAFF3008000E1F5050000000086
:1029C0000000C16FF1D8FFFF37B5019054200D46CC
:1029D0000DF016F8044680B195F900300146722BCF
:1029E0000CBF01234FF48173019A054805F030FBB9
:1029F00018B120460DF00CF80024204603B030BD7D
:102A000090300020F8B5024604460B46144E154F90
:102A1000354603CDBD42106051602E4602F10802DA
:102A2000F6D12868106022781D2A0FD00E4B0122A3
:102A300063600E4B2046A3600D4B0949E3600D4BCC
:102A40002361402307F000F90020F8BD62680120EF
:102A50001A60A2685A60E2689A602269DA60F4E754
:102A6000400100085001000881558542605595439A
:102A7000DD40A7440000C8421D2208B502700A6864
:102A8000402342604A6882608A68C260CA6804491A
:102A90000261012207F0D8F8B0FA80F0400908BDC1
:102AA000400100082DE9F04F05460E4690464FF0D4
:102AB0000009DFF878A01C4FDFF874B089B0C14579
:102AC00003DB002009B0BDE8F08F51463046FFF728
:102AD0007BFF044610232A460146384604F0BAF923
:102AE0002146384605F078F920460CF091FF59460A
:102AF0003046FFF769FF044610236A460146384610
:102B000004F084FB2146384605F066F920460CF0B7
:102B10007FFF694628460DF0B5F910B109F10109AA
:102B2000CDE70120CEE700BF90300020384C0200F6
:102B30001E4D020013B5164904461648FFF744FF20
:102B4000014698B9144805F047F921461348FFF7A4
:102B500059FFD8B92046FFF79FF8204605220D49B6
:102B6000FFF7A0FF44B2204602B010BD224610235A
:102B70000190094804F04AFB019944B2064805F067
:102B80002BF9019908460CF043FFECE70124EAE732
:102B90001E4D02003A4C020090300020981A00208E
:102BA0001FB504460846FF21039005F01AFD1023C7
:102BB000FF22009321460023039805F0A3FD04B0F3
:102BC00010BDFFFF38B590F92C30044600F13005F8
:102BD0008BB905220A492846FFF764FF29460948B0
:102BE000FFF74AFF28460849FFF7DAFF10B901232B
:102BF00084F82C3038BD28460349FFF7D1FFF9E7A8
:102C00003A4C0200981A0020502F002038B50B498A
:102C10000546FFF7D9FE04460146094854B105F0C0
:102C2000DBF820460CF0F4FE2946054805F01AFAB8
:102C3000012038BD05F0D0F82046FAE71E4D02000D
:102C40009030002008B50448FFF7E0FFBDE80840D9
:102C50000248FFF7DBBF00BF4A4C0200534C0200A2
:102C60008160704737B50C46154690B94B780133F3
:102C70004B701D2328462370FD2105F0B2FC042370
:102C8000FD22009321460023284605F03BFD03B0BA
:102C900030BD012802BF8B7801338B70E9E773B533
:102CA00004230E46054601460093FD2200233046CC
:102CB00005F0AAFD2B781D2B00D190B900241D230F
:102CC000FD2130462B706C70AC70EC7005F089FC07
:102CD0000423FD22009329462346304605F012FDC9
:102CE000204602B070BDFFFF64224FF47A51C0E964
:102CF0001022094A0023C0E9071244F26821074A5A
:102D000080F858304262064AC363C0E90B124DF2A4
:102D1000D862038742637047005C26053200FCFFDF
:102D2000B8050100D0F8603513B15B1AC0F8603502
:102D3000D0F868351BB9002380F870357047591AF0
:102D4000C0F868150029F6D0704710B590F8A83083
:102D5000044680F8A93006F0B5FE84F8A80010BD3E
:102D600090F8A8007047B0F8A800431E5842584198
:102D70007047FFFFC36D30B51B681B685A6803F1CD
:102D8000C00511465C680C33A24238BF2246A142FE
:102D900028BF2146AB42F5D141F267039A420FD8D2
:102DA00040F6B73399420BD90023434A1370434A84
:102DB0001370434A1370434A1370434A137030BD73
:102DC00090F858400E2CFAD844F28A03E340DB070F
:102DD0005BD5A1F5FA63B3F57A7F26D2816C41F019
:102DE00001038364036F0A3308DA334D2B78052B14
:102DF0008BBF41F00301013381642B7041F2680302
:102E00009A42DCD9826C42F00A038364036F0A2B76
:102E100008DD2C490B78052B8BBF42F00F020133E4
:102E200082640B70042CCAD135E0A1F59663B3F52A
:102E3000487F1CD2836C43F001018164016F11F162
:102E40000A0F07DA1D4D297805290DD943F0030330
:102E50008364D3E7B1F5967FD0DD1B4D2978052932
:102E600002D943F00703F3E701312970C6E7B1F552
:102E7000966FC3D212490B78052B03D9836C43F0AC
:102E80000403E5E701330B70B8E7042C97D141F256
:102E900068039A4293D9826C42F00A038364036FF9
:102EA0000A2B8CDD07490B78052B8BBF42F00F02F4
:102EB000013382640B7082E7B11A0020B21A00203D
:102EC000B41A0020B01A0020B31A002010B504462E
:102ED000C06D05F048FDE36D1B69E36410BD10B5DE
:102EE0000446C06D05F050FDE36D5B69236710BDBE
:102EF000C06D05F05ABDC06D05F068BD10B5044643
:102F0000C06D05F074FDE36D5B7F236510BDC06D82
:102F100005F07EBDC06D05F0A1BDFFFF012240F2AE
:102F20000121014809F0D6BE2C3E0020C06D05F0FD
:102F3000F8BEFFFF08B5064B1B683BB9054800F01B
:102F400057FABDE808400448FFF73CBE08BD00BF83
:102F5000D83B0020D41A0020A833002010B5044626
:102F6000C06D05F0A2FC00236365A36410BDFFF7EC
:102F7000F5BF10B5046EA36820469847012323705F
:102F800010BD10B5046E6368204698470023237077
:102F900010BD10B5846E63682046984700232370E7
:102FA00010BD10B5846EA368204698470123237096
:102FB00010BDC06D05F088BCC06D05F0C7BC38B54C
:102FC00004460025D4F88820EBB29A4205F10105A9
:102FD00000D838BDD4F88C2052F8230005F083F9CE
:102FE000F0E7C06F05F064B9D0F8800005F060B973
:102FF000C06D05F061BD13B50446C36D01AA1B6821
:103000001979186805F031FC0199E06D06F048FA6D
:1030100002B010BDC06D06F02BBAFFFF4B1E70B59D
:1030200004460D46122B12D8DFE803F00A113311C3
:10303000354011232527292B2D2F4411111148002C
:10304000FFF7AFFF00236365012384F8583094F83D
:103050008C35002B3BD1AB1E102B36D8DFE803F0AC
:1030600030354635353E35353535353535354A30EB
:1030700030000823E9E70923E7E70A23E5E70B2304
:10308000E3E70C23E1E70D23DFE7FFF78AFF0E23D9
:10309000DBE70323D9E70026FFF783FF204684F808
:1030A0008460FFF7B7FF0523E663CEE7FFF73EFF37
:1030B0000623CAE7FFF73EFF0F23C6E71323C4E743
:1030C0002046FFF766FF0023A36784F85850D4F822
:1030D00078359BB12046BDE8704018472046FFF781
:1030E00099FF074A136801331360EEE72046FFF7A4
:1030F00048FFEAE72046FFF73CFFE6E770BD00BF68
:10310000B81A0020D0F8A400FFF7AABDD0F8A40098
:10311000D0F81038184710B50446FFF7F3FF2046E3
:10312000BDE81040FFF7F2BF10B590F884300446B8
:1031300063B990F85820132A16D8274BD340DA07E2
:1031400012D50E21BDE81040FFF768BF012B0CD14E
:1031500090F858300E2B01D0132B02D112212046AB
:10316000F0E7002380F8843010BD022B05D190F8E1
:1031700058300E2BF8D11121E4E7032B09D190F838
:103180005820132AF0D84FF41423D340DB07E5D49A
:10319000EAE7042B09D190F858300E2B03D003F046
:1031A000FB03032BE0D11021D9E7052B08D190F8C0
:1031B0005830DA1E012A01D9012BD5D11321CEE7CF
:1031C0000521FFF72BFF0023204684F884301621C9
:1031D000BDE81040FFF79FBF1800090030B585B06B
:1031E00001A90C46D0F88C301A1F0C3352F8045F3A
:1031F0006D899A4221F8025BF8D1C36F01215B8986
:10320000ADF80C30D0F880305B89ADF80E30BDF9E8
:1032100004301A4634F9110001318342A8BF034635
:103220008242B8BF02460629F4D15A2A02DC13F1C1
:103230000A0F0CDA0C4A1388022B8BBF01200020E6
:103240000A4B01338CBF1870138005B030BD07499D
:10325000087818B1502AF8DC002BF6DB0020024B6E
:1032600008701880F1E700BFBC1A0020BE1A0020C9
:1032700010B50446FFF7B2FFE26DA36C92F822107E
:1032800079B923F0FF0392F8232062B923F47F4336
:1032900060B923F480332046A364BDE81040FFF7F3
:1032A00069BD0B43EFE743EA0223F1E743F48033C0
:1032B000F1E790F88D355A1C80F88D251846704737
:1032C000002380F88D3518467047FFFF37B5019011
:1032D00054200D460CF094FB044680B195F9003063
:1032E0000146722B0CBF01234FF48173019A0548EC
:1032F00004F0AEFE18B120460CF08AFB00242046F4
:1033000003B030BD90300020F8B5024604460B46AD
:10331000154E164F354603CDBD42106051602E4606
:1033200002F10802F6D12868106022781D2A0ED01A
:1033300000251D230122237020464023C4E90155A6
:10334000C4E90355084906F07FFC2846F8BD6268C9
:1033500001201A60A2689A60E268DA60228A1A8202
:10336000628A5A82F2E700BF8001000890010008DB
:103370001D2208B502700A68402342608A68C0E9CD
:1033800002220A8A02824A8A04494282012206F003
:103390005BFCB0FA80F0400908BD00BF8001000866
:1033A0001FB51D22034608460C4CFE2122701A68E8
:1033B000039062609A68A260DA68E2601A8A5B8AA7
:1033C0002282638205F00DF91423FE220093214628
:1033D0000023039805F096F904B010BDC01A002030
:1033E0000023C0E90033C0E90233036183827047E0
:1033F00070B539490546C0B03848FFF767FF044645
:1034000050B10146364804F0E7FC20460CF000FBC2
:103410003249334804F026FE2146314804F0DCFCF2
:1034200020460CF0F5FA2F492C48FFF74FFF0646CF
:10343000FEF79EFA044628680BF098FF41EC100B4B
:1034400020462949FEF744FAA8680BF07FFF41ECBB
:10345000100B20462549FEF73BFAE8680BF076FF93
:1034600041EC100B20462249FEF732FA288A0BF075
:103470006DFF41EC100B20461E49FEF729FA688AC1
:103480000BF064FF41EC100B20461B49FEF720FABD
:10349000694600234FF480722046FEF7B1F9684672
:1034A0000CF013FD6A46034631460D4803F0D2FC8A
:1034B00031460B4804F090FC30460CF0A9FA29463E
:1034C0000E48FFF755FF0E492846FFF769FF2046D3
:1034D000FDF764FF40B070BD1E4D0200644C020059
:1034E00090300020384C0200704C0200744C0200F6
:1034F0007C4C0200854C0200904C0200C01A002057
:10350000502F002038B503680446CB1A002B0D4617
:10351000436012DAC268D31A632BC3600BD9428AA4
:10352000643BC3608369013242820BB1C069984732
:103530002046FFF75DFF256038BDFCD0826813444C
:10354000632B8360F7D9028A643B01320282836075
:10355000F1E7FFFF2DE9F04F46490446ADF2044D77
:103560004548FFF7B3FE064690B90023C4E900338F
:10357000C4E9023323610A232146A3823F48FFF7AF
:10358000C3FE20460DF2044DBDE8F04FFFF730BFFB
:103590004FF48062002168460CF05FFA4FF48063BC
:1035A0006A463146364803F031FE6846FEF724F994
:1035B000054638B93146324804F00EFC30460CF06E
:1035C00027FAD2E72F49FEF747F92F4983462846C5
:1035D000FEF742F92D4982462846FEF73DF92C496F
:1035E00081462846FEF738F92A4980462846FEF7E4
:1035F00033F907465846FEF713FA51EC100B0BF05F
:10360000BDFF20605046FEF70BFA51EC100B0BF09B
:10361000DDFFA0604846FEF703FA51EC100B0BF0FB
:10362000D5FFE0604046FEF7FBF951EC100B0BF0C4
:10363000CDFF20823846FEF7F3F951EC100B0BF06A
:10364000C5FF238A80B260821844C0F34E00314621
:10365000A0820B4804F0C0FB30460CF0D9F9284694
:10366000FDF79CFE20460C49FFF79AFE0DF2044D33
:10367000BDE8F08F1E4D0200644C0200C01A00200D
:1036800090300020704C0200744C02007C4C020010
:10369000854C0200904C0200502F002010B50023F2
:1036A0000C4608824882C1E9023320460B60116C47
:1036B000FFF728FF2046BDE81040FFF799BE0160E4
:1036C0000021C0E90423416000F25C4000F078B8BA
:1036D00038B50446164B92B91A7801321A701B7825
:1036E000022B0ED104F1180504F576740122284648
:1036F0001146F03500F07BFCA542F7D138BD002221
:10370000ECE7042BFAD1012204F19000114600F0FD
:103710006EFC012204F5C070114600F068FC012225
:1037200004F51C701146BDE8384000F060BC00BFD5
:10373000F41A002037B504460D460A4600F58660A7
:10374000012100F09FFB2946019004F5727000F002
:103750007FF929462046019A03B0BDE83040FFF7C3
:10376000B7BF2DE9F341054600F5727005F1180663
:103770000F46344600F060FB05F558782046394680
:10378000783400F04FFC4445F8D1BC000B3CA4B2A7
:1037900005F57675032F8CBF214600213046019137
:1037A00000F045FC06F178000199F03600F03FFC8E
:1037B0000134AE42A4B2EDD102B0BDE8F081704751
:1037C00000B9FEE70023C0E902330360436070479D
:1037D00070B5054600240288944211D2A3185E10E9
:1037E000C3F34F006B6833F836308B4211D003D9E6
:1037F0002EB1421E92B2EFE7431C9CB2ECE7B442FA
:1038000008D14FF6FF706B6833F834308B4208BF35
:10381000204670BD4FF6FF70FBE7FFFF054A00F141
:103820001403343043F8042B834202F10102F9D12E
:10383000704700BFAC06002010B510B10A78072A07
:1038400000D9FEE7002380F83420043138309A4252
:1038500000DC10BD51F8044B013340F8044BF6E78F
:103860002DE9F84F4FF000090446884607464D46BB
:103870004FF6FF7AC37843F08003C37094F8343076
:103880004B4501DCBDE8F88F4046398F97F83A6028
:1038900097F83BB0FFF79CFF504504D12046BDE8A8
:1038A000F84FFFF7BBBFB8F800308342F6D9D8F81D
:1038B000043003EBC0008378B342EFD9436806EBD2
:1038C000460613EB8606E9D000200F4B1A686B1DE5
:1038D00004EB8303834507DCE37809F101096FF307
:1038E000C713E3700437C9E7F18801358142C8BFC7
:1038F0003168EDB2C6BF091819601A60082D03F1CE
:103900000403CBD80130E5E7B406002038B51546EE
:10391000044638B1FFF790FF29462046BDE83840FD
:10392000FFF79EBF38BDFFFF38B5802380F82030F9
:10393000082380F82830094B04461B684162183080
:103940000D4698470023A4F84C30637584F8543032
:103950004FF44073A565A4F8603038BDA806002078
:103960000023A0F84C30437580F854304FF4407376
:103970008165A0F860307047012310B54FF4C06432
:103980000370836964F31C03836108234FF4B064FC
:103990000385436864F31C034360002380F83030E0
:1039A000C362B1F86440896E4375C0E91133C0E960
:1039B0001332C0E9163344864163A0F8403080F8E2
:1039C000423080F85430A0F8603010BD002310B5AC
:1039D0009CB2A24200D810BDCC5CC4540133F7E7BE
:1039E000014B1B68184700BFA806002070B50124D2
:1039F000047091F85C40856904F5B06666F31C05B7
:103A0000856108250585456804F5C06464F31C05D7
:103A100000248482C46280F830404560B1F85E5072
:103A200080F84240C363B1F86030C0E91144C0E996
:103A3000164445860487A0F84040A0F84C40A0F802
:103A40004E30026580F85440A0F8604070BDFFFF22
:103A5000037873B5044623B9012584F8615002B098
:103A600070BDB0F84C3063B11944B0F84E3089B233
:103A70008B42A0F84C1004D2A949FFF771FF03252F
:103A8000EBE7637D83B994F85430002BE4D094F8CD
:103A90006030113B042B00F2AE80DFE813F06500CC
:103AA0001401AC0083008A010023257BA4F84C306C
:103AB0006D09042D11D1227C63758DF80020627C84
:103AC00084F860308DF80120A27C8DF80220E27C21
:103AD0008DF80320009AE265D1E794F86030002B5E
:103AE000D5D16B1E012B04D98E492046FFF71CFF50
:103AF000C5E7637BE06B8DF80030A37B8DF8013068
:103B0000BDF80010E37BA4F8401084F84230FFF7C2
:103B10005FFE4FF6FF739842208712D0E26B138846
:103B200083420ED9526894F8423002EBC00082788A
:103B30009A4206D9426803EB43039E0012EB8303CB
:103B400003D1002378496364CFE76364012D1979B9
:103B500023D1890701D47549C7E79B68DBB993591D
:103B6000A364112384F8603094F85430002B4FD0B4
:103B7000636C9B685B68984703283AD1002504F181
:103B8000180084F85450A4F84C50FFF729FF84F82B
:103B9000605002256EE01B68E2E7CB07DBD51423FB
:103BA00084F860300026637B616C84F82130E389FF
:103BB00084F830606384CA88A685042AE28504F10B
:103BC000180500F2DD80C2F104039B0003F00C0332
:103BD00043F0430384F82030096804F12400FFF720
:103BE000F5FE2846FFF7FCFEE38D84F86060A385B0
:103BF000CFE7022801D001253CE000234C4984F89E
:103C00005430A4F84C302046FFF78EFE032531E0F7
:103C100084F83030A385637B84F82130E3896384A2
:103C2000237B03F00305032D27D1626CC3F38103CB
:103C3000D288C3F104039BB2934298BF1A46E3852E
:103C4000A06C04F11001FFF7C1FEE38DA385602392
:103C500084F82030636C9B683BB904F11800FFF7CF
:103C6000BFFE002384F8603093E70125A4F84C5090
:103C700084F8545000236375EFE6012D21D1237C95
:103C8000626C8DF80030637CD2888DF80130A37CA3
:103C90008DF80230E37C8DF80330BDF800309A4295
:103CA000E38501D22349AEE76023A4F84C5084F8A1
:103CB000203004F11800FFF793FE122384F86030DF
:103CC000D8E71D499FE794F85430002B7FF450AF9C
:103CD000237B5A0901D0194995E794F8301003F075
:103CE0001002914201D016498DE7A18DE28DA06CA2
:103CF000CD1DAA42084403F0010323DC13B94FF0A1
:103D0000006180E7521A92B204F10D01FFF75EFEE6
:103D1000E38DA38594F8303043F0200398E700BF8B
:103D20000000040501000405110009060000010659
:103D300021000008050004051000070623000A06FC
:103D400000000305002BDAD10722012504F10D0143
:103D5000FFF73CFEA38DA4F84C501344A38594F8C0
:103D6000303004F1180043F0200384F82030FFF7CE
:103D700037FE94F8303083F0100384F8303079E760
:103D800041232846012584F82030C2F3072384F814
:103D9000242084F82530C2F30743C2F3076284F875
:103DA000263084F82720FFF71BFE1523A4F84C507B
:103DB00084E7237B5A09032A8DD194F8302003F03D
:103DC00010039A428FD1626CA38D1168E28DDE1DC3
:103DD000B242194404F1210004F118051ADCD21A88
:103DE000D6B23246FFF7F2FDE38DC6F10706A38592
:103DF00094F83030284643EA460343F0010384F840
:103E00002030FFF7EDFD94F8303083F0100384F894
:103E1000303026E70722FFF7D9FD28460125A38D7C
:103E20001344A38594F8303084F82030FFF7D8FD90
:103E3000A4F84C509DE700BF037E01F07F0161F3C1
:103E400006030376037961F30603037170470346A3
:103E50000A46D1E9010183E803000321198291890F
:103E60009982D189D982B2F85810198392F85A20D0
:103E70009A760022DA6183F820205A6283F828209B
:103E80007047FFFF13B590F9031004460029C3786B
:103E900055DB818B0A4492B2914238BF828313F082
:103EA000400335D0828B838A9A4246D3C38B028BE0
:103EB00001339BB29A42C38311D2012290F8203081
:103EC000817E1344DBB2994280F820303CBF00234E
:103ED00080F8203090F82030C2839A404262E38B11
:103EE00020462372C3F30723637294F82030A37231
:103EF000144B1B68984700230120A383A38BE28AFD
:103F000093428CBF0023012384F8283002B010BDF7
:103F1000407C0028F2D0227AA17A8DF80020627AC3
:103F200084F820108DF80120BDF80020A383E283DF
:103F300001228A4062626374E0E70020DEE700202D
:103F4000E4E700BFA806002010B5044694F87330DB
:103F50000830022B09D1636F98470A4B20461B6833
:103F60009847002384F8723010BD04F1100304F167
:103F7000300253F8041F0978934200F8011BF8D16E
:103F8000EBE700BFA80600202DE9F0410446069D9E
:103F90000E4611461A469DF81C80089FFFF7B6FC96
:103FA0002B892968AA89A4F864306B89E165A4F893
:103FB0006630A4F86820A87BB8F1020F84F86A0084
:103FC0002869216084F871304FF008014FF0010337
:103FD000E0662182A66584F8702084F8723084F847
:103FE0007380676701D107B9FEE7BDE8F08190F9FA
:103FF0000330002B15DB4FF6FF71B0F864308B42B5
:1040000004D190F8723063B1FFF79EBF4AB1826D60
:10401000D18B994203D1C16E526A1142F4D1002B67
:10402000EFD07047037861F3060303707047A0F880
:104030006410704701230160037118467047FFFF49
:10404000012810B516D1144CE368186809F070F80F
:1040500008B1002010BDE368186809F06FF8002867
:10406000F7D1E3680D49186809F006F8B0FA80F056
:104070004009EFE70028ECD1074CE368186809F025
:1040800057F80028E5D1E368186809F057F80028C8
:10409000DFD1E3685968E6E7500700209C4C020036
:1040A000036810B59A68186814690122A047B0FA2D
:1040B00080F0400910BD08B503689A681868D26896
:1040C0009047012008BD2DE9F04705460F46904670
:1040D00099466424D0F800A02846FFF7ECFFDAF8F0
:1040E000083042469E6839464B46DAF80000B04731
:1040F0000646012005F025FE013C11D0002EEBD133
:1041000064242B79032B06D04FF47A7101200AF036
:1041100057FE013CF5D12879013818BF012002E093
:10412000002EEDD02046BDE8F0872DE9F04705468A
:104130000F46904699466424D0F800A02846FFF721
:10414000BAFFDAF8083042465E6839464B46DAF87C
:104150000000B0470646012005F0F3FD013C11D0F8
:10416000002EEBD164242B79022B06D04FF47A7108
:1041700001200AF025FE013CF5D12879013818BF4D
:10418000012002E0002EEDD02046BDE8F08701714D
:1041900070470023436003708360704737B5019018
:1041A00054200D460BF02CFC044680B195F90030EC
:1041B0000146722B0CBF01234FF48173019A05480D
:1041C00003F046FF18B120460BF022FC00242046E5
:1041D00003B030BD9030002070B50D46002104467C
:1041E00001F0BBF8134B1E2618700120FFF728FFC3
:1041F0000121204601F0A1F830B94FF47A71012075
:104200000AF0DEFD013EF3D11E2640232A464FF47C
:104210007861204601F07BF930B94FF47A710120C2
:104220000AF0CEFD013EF0D10020BDE87040FFF75E
:1042300007BF00BFA42A0020F0B599B00C4607467E
:10424000FDF796FB064620460BF080F841EC100B7C
:1042500030462649FDF73CFB0023694620223046C4
:10426000FDF7CEFA68460BF030FE402205460021ED
:1042700008A80BF0F2FB7F23ACB22A4669460DF189
:1042800023008DF820308DF821500BF0D9FBE11C74
:1042900089B208A8FDF73AFC05F1600318AA0DEBF6
:1042A0000305231D05F83D0C12FA83F3000A03F8F9
:1042B000400C631D12FA83F30D2203F8402C18AA58
:1042C000A31D12FA83F30A22073403F8402C18AB1B
:1042D00013FA84F40023384604F8403C08A9FFF799
:1042E0007BFF3046FDF75AF819B0F0BD024D0200D1
:1042F00010B50B49FFF752FF044678B101464FF461
:104300000073084A084802F0A5FD2146064803F05C
:1043100063FD2046BDE810400BF07ABB10BD00BF26
:10432000384C0200702C00209030002037B50D462C
:104330000B490192FFF732FF044678B12A46014645
:10434000019B084802F062FF2146064803F044FD45
:10435000204603B0BDE830400BF05ABB03B030BD7F
:104360001E4D0200903000200B892DE9F041012202
:104370000160838005460C4638484FF48061FDF7A4
:104380006DFB0526364F2146286800F076FF10B1F8
:104390000526334F12E0013E16F0FF0603D100263A
:1043A0003046BDE8F081384608F0FCFBEBE7013E03
:1043B00016F0FF06F3D0384608F0F4FB286800F149
:1043C0003C0100F05FFF0028F1D00526244F0021BA
:1043D000204600F0A0FF10B10526214F0EE0013E5F
:1043E00016F0FF06DBD0384608F0DCFBEFE7013EB5
:1043F00016F0FF06D3D0384608F0D4FB3021204613
:1044000000F096FF0028F2D00526154F06E0013E89
:1044100016F0FF06C3D0384608F0C4FB0C21204636
:1044200000F081FF0028F2D00527DFF8348006E095
:10443000013F17F0FF07B2D0404608F0B3FB002160
:10444000204600F082FF06460028F1D04FF4547158
:10445000204600F0B0FF0023AB71A1E78C240020C0
:10446000C43F00202DE9F0470F4682460BF02DFD9A
:1044700084B2224D04F108081FFA88F80646424625
:10448000002128460BF0E9FA7F232B70230A6E7077
:10449000AB702646002303F103099E421FFA89F9F7
:1044A00021DCE11C154889B2FDF730FB0D22231DEC
:1044B00005F809009BB2000AE854631D9BB2EA5458
:1044C0000A22A31D9BB2EA5400230734A4B20B4A6C
:1044D0002B5598450DDC4246002108480BF0BDFAEB
:1044E0004046BDE8F0871AF80320013305F809209B
:1044F000D1E712F8011BF9540133EAE7741D0020DB
:104500002DE9F0410024904DADF5886D10AB2846A3
:104510001919FDF7DEFA18B10134B4F5806FF5D141
:104520000E22002104A80BF098FA884B04AC0FCBA4
:1045300007C48749874D08462370D5F88C301A1F69
:104540000C3352F8044FA47A9A4241F8044BF8D144
:10455000002740F67464EB6F7F4A9B7A0361D5F8BD
:1045600080309B7A4361EB6D1B681B6803F1C000D0
:1045700059680C33A14204BF0137FFB2834242F8AD
:10458000041BF5D16A46754B03F1080614461868FA
:104590005968083303C4B3422246F7D118681B791F
:1045A0006F4E23716F4B206008AC22461868596823
:1045B000083303C2B3421446F7D1FDF7D9F90646D2
:1045C0009FED5F0B6849FDF783F968493046FDF7B9
:1045D000DBF90446286C0AF0B9FE41EC100B644983
:1045E0002046FDF775F9686C0AF0B0FE41EC100B3F
:1045F00060492046FDF76CF9EB6DDFF8C081586823
:104600000AF0A4FE41EC100B5B492046FDF760F96F
:104610000A202B6F58430AF0A9FE41EC100B5749B2
:104620002046FDF755F9B8F812000AF08FFE41EC6C
:10463000100B53492046FDF74BF9D8F80C000AF04F
:1046400085FE41EC100B4F492046FDF741F9A86C5F
:104650000AF07CFE41EC100B4B492046FDF738F97F
:1046600095F858000AF072FE41EC100B47492046BD
:10467000FDF72EF92046464904AAFDF757F9EB6DE0
:1046800093F85F3053B1102F08D010213248FDF756
:1046900090F9404902462046FDF7E1F806212C48F2
:1046A000FDF787F93C4902462046FDF7D8F86A46EF
:1046B00020463A49FDF73AF9394908AA2046FDF75C
:1046C00035F93848FDF798F8374902462046FDF796
:1046D000C6F895F87C050AF039FE41EC100B20462F
:1046E0003249FDF7F5F895F88C050AF02FFE41ECFC
:1046F000100B20462E49FDF7EBF800234FF48062A3
:104700002C493046FDF77CF82B492A48FFF7AAFED2
:1047100000240546284FDFF83080A3B29D4206D919
:1047200039194046FDF7BAF901340028F5D1304671
:10473000FCF734FE0DF5886DBDE8F081AFF3008025
:1047400000000000000069408C2400208000000868
:104750001C1D00207C350020341D0020594D020016
:10476000D5000008C5000008024D0200C94C020037
:10477000D24C0200D64C0200DA4C0200E24C02009D
:10478000EA4C0200F14C0200FF4C0200094D02000D
:10479000124D0200204D0200254D02002A4D02005C
:1047A000354D0200682B00203D4D0200494D0200AE
:1047B000504D0200A4240020A4260020D41A00207A
:1047C000F8B50446B0F801305BBA9BB2DD1CA9B263
:1047D00003441E79475DFDF799F923787F2B08D1B3
:1047E00046EA072686424FF0000304D1E01C6355D9
:1047F000F8BD0020FCE71846FAE7FFFF2DE9F04777
:104800000D46814610B90020BDE8F0879A49FDF7B2
:1048100023F8FDF71CF9994982460BF033FB044657
:10482000C8B948469649FDF717F8064698B121469B
:10483000FDF70CF8044618B12946FFF7DFFF0446E0
:1048400001213046FDF702F810B12946FFF7D6FFE7
:104850002040C0B2D8E750468A490BF013FB04460B
:10486000C0B948468649FCF7F7FF064690B1214695
:10487000FCF7ECFF044618B12946FFF7BFFF0446DA
:1048800001213046FCF7E2FF10B12946FFF7B6FFE1
:104890002043DEE750467C490BF0F4FA0646002838
:1048A00076D148467949FCF7D7FF074600286FD0F4
:1048B0007749FCF7D1FFFDF7CAF8764980463846BC
:1048C000FCF7CAFFFDF7ACF851EC100B0AF07EFEC6
:1048D000714904463846FCF7BFFFFDF7B8F86F4949
:1048E000074640460BF0CEFA00B96E6C40466C4964
:1048F0000BF0C8FA00B92E6C40466A490BF0C2FAB8
:1049000008B9694B5E8A404668490BF0BBFA08B9A2
:10491000654BDE68404666490BF0B4FA00B92E6F6D
:10492000404664490BF0AEFA08B9EB6D5E68384654
:1049300061490BF0A7FA20B9B4422CBF0020012036
:1049400062E738465D490BF09DFA20B9B44294BF46
:104950000020012058E7384659490BF093FA20B956
:10496000B4428CBF002001204EE7384655490BF079
:1049700089FA20B9B44234BF0020012044E7384608
:1049800051490BF07FFA18B9A31B584258413BE735
:1049900050464E490BF076FA064600287FF433AFB6
:1049A00048463A49FCF758FF074600283FF42BAF2A
:1049B0003749FCF751FFFDF74AF83649804638463B
:1049C000FCF74AFFFDF72CF851EC100B0AF0FEFD46
:1049D000314904463846FCF73FFFFDF738F82F49C8
:1049E000074640460BF04EFA00B96E6C40462C4923
:1049F0000BF048FA00B92E6C40462A490BF042FAF7
:104A000008B9294B5E8A404628490BF03BFA08B9A1
:104A1000254BDE68404626490BF034FA00B92E6F6C
:104A2000404624490BF02EFA08B9EB6D5E68384613
:104A300021490BF027FA00289CD038461F490BF07B
:104A400021FA00288CD038461D490BF01BFA0028AB
:104A50003FF47CAF38461B490BF014FA00283FF4B2
:104A60006BAF384618490BF00DFA00287FF4CBAE37
:104A7000A01B18BF0120C7E6664D02006B4D020067
:104A80006F4D0200754D0200784D0200444D02004A
:104A90007D4D0200814D0200874D0200904D0200C5
:104AA000704C0200944D0200D41A0020F14C020018
:104AB000E24C0200DA4C02009A4D02009C4D0200CA
:104AC0009E4D0200A14D0200A44D0200A74D020020
:104AD00010B5431813F8012C04460F2A04D8881A7D
:104AE000204400210AF0B9FF207810BD2DE9F04FD5
:104AF00083B004461E26026800AF02F14A052A462A
:104B00000621206800F092FC30B94FF47A71012040
:104B10000AF056F9013EF2D11E26226802F1440540
:104B20002A460021206800F081FC30B94FF47A71E8
:104B300001200AF045F9013EF2D1DFF8F082B8F821
:104B4000003001339BB20A2BA8F8003067D1A04B8C
:104B50001A88002A6BD000269E4D012228469E49C5
:104B60001E80FCF7E7FF05F206219C48FBF718FEC4
:104B70004FF4007231469A480AF06FFFAA88974BAB
:104B8000A91D9748FBF7D4FDA9889548FFF7A0FF1A
:104B90009348FCF731FE054600286AD09149FCF79E
:104BA0005BFE0646FCF753FF8F490BF06BF988B9A3
:104BB0008E48FFF79DFBDFF86492C8212068FFF75D
:104BC0003BFB8B492846FCF747FE4946FFF716FE9C
:104BD00089F87C053046FCF73AFF86490BF052F91C
:104BE0000646C8B98448FFF783FBC8212068FFF751
:104BF00023FB28468149FCF72FFE814660B14FF424
:104C0000807231467E480AF028FF33464FF48072A6
:104C100048467B49FCF7F4FD2846FCF7BFFBB8F893
:104C20000030B3F5FA7F04BF0023A8F80030A37961
:104C30002068012B23D0022B00F0918183B990F8DA
:104C40004A30D9070CD5012100F087FB6D4B187055
:104C50000121206800F071FB0028F9D00123A37125
:104C600023680821D868FFF71BFA0C37BD46BDE85A
:104C7000F08F4FF4C8712068FFF7DEFACCE790F8A8
:104C80004A30DA0640F160815F4D40232A464FF4F6
:104C9000786100F087FC0023A8F800302B78594E8B
:104CA0007E2B307057D12B464B4A05F1400153F80B
:104CB000040B8B4242F8040BF9D1DFF81881012272
:104CC00040464549FCF736FF002844D008F206214B
:104CD0004248FBF765FD4FF40072002140480AF09E
:104CE000BCFE3E4BB8F8042008F106013C48FBF737
:104CF0001FFDB8F804103A48FFF7EAFE3848FCF701
:104D00007BFD40B33749FCF7A7FDFCF7A0FE3F4908
:104D10000BF0B8F80146F0B94FF400723C480AF0C5
:104D20009CFE3C493148FFF739FA014658B178609A
:104D3000394803F051F8796808460AF069FE2B49B2
:104D4000354803F08FF9C8212068FFF775FA002273
:104D5000324B83F87D252B781D2B21D02A48FFF775
:104D60002FFD8046002865D12B78012B40F0E7808D
:104D7000014640222A480AF070FE4546DFF8B0900E
:104D8000DFF89C80484608EB0501FCF7A2FE10B155
:104D90000135402DF6D122492068FFF71DFACEE0FB
:104DA0000B4A2049138801339BB213801E4AC3EB80
:104DB00083130B4402F13C0152F8040B8A4243F87E
:104DC000040BF9D11188198092789A70C6E700BF58
:104DD000181D0020741F0020702C0020A82A00201D
:104DE000181B0020AB4D0200AF4D0200B74D020072
:104DF000C34D0200CD4D0200D74D0200444D0200CC
:104E0000682B0020A42A0020702E0020E14D020013
:104E10008C210020384C0200903000207C3500208E
:104E2000B22E0020712C0020712E0020B02E002008
:104E30008C240020FCF7E0FC4A498046FCF70CFD7E
:104E40008146FCF704FE48490BF01CF80546B8B94A
:104E5000FFF756FB4022294644480AF0FEFDDFF8E2
:104E60000CA1DFF824B158460AEB0501FCF731FE2E
:104E700010B10135402DF6D13C492068FFF7ACF95F
:104E80004846FCF7E4FD3A490AF0FCFF8146002859
:104E900052D140463749FCF7DFFC054600284BD08D
:104EA0003549FCF7D9FC78B1FCF7D1FD82462022C8
:104EB000494632480AF0D1FD514630480AF0ECFF2D
:104EC000C8212068FFF7B8F928462D49FCF7C4FC33
:104ED00090B3FCF7BCFDE94690B00346EC46DFF822
:104EE000ACE0DFF8ACA003AA754603CD55451060D1
:104EF0005160AE4602F10802F6D1286803F10C01B8
:104F00001060624653F8040B8B4242F8040BF9D14F
:104F10001B78137062B6402301226046194904F0E1
:104F200093FE05466420EDB204F00BFFCD469DB91B
:104F3000C8212068FFF780F94046FCF72FFA0121CD
:104F4000206800F00AFA3070236893F84A30DB07D3
:104F50003FF586AE022382E64FF4C871E9E70023ED
:104F60007DE600BFAB4D0200EA4D0200B22E0020EC
:104F7000EE4D0200C94C0200354D020062310020A6
:104F8000F34D0200800000088C2400208C000008F3
:104F9000BC00000870B5264C01220D460146204693
:104FA000FCF7C8FD04F206212248FBF7F9FB4FF499
:104FB0000072002120480AF050FDA2881D4BA11D5F
:104FC0001D48FBF7B5FBA1881B48FFF781FD1A4878
:104FD000FCF712FC044638B31849FCF73DFC0646C2
:104FE000FCF735FD16490AF04DFF68B91549204612
:104FF000FCF732FC2946FFF701FC85F87C052046CA
:10500000FCF7CCF9012070BD3046FCF720FD0E49BD
:105010000AF038FF08B985F87C052046FCF7BEF990
:10502000002085F87C05EEE785F87C05EBE700BFFE
:10503000741F0020A82A0020181B0020AB4D02007E
:10504000AF4D0200C34D0200E14D020038B5224CC5
:10505000014601222046FCF76DFD04F206211F489F
:10506000FBF79EFB4FF4007200211D480AF0F5FC8F
:10507000A2881A4BA11D1A48FBF75AFBA1881848B1
:10508000FFF726FD1648FCF7B7FB044608B31549A1
:10509000FCF7E2FBFCF7DBFC13490AF0F3FE0546E4
:1050A000A0B920461149FCF7D7FB044660B14FF484
:1050B000807229460E480AF0D0FC2B464FF48072CD
:1050C00020460B49FCF79CFB012003E02046FCF73F
:1050D00065F9002038BD00BF741F0020A82A0020F9
:1050E000181B0020AB4D0200CD4D0200444D0200C4
:1050F000682B00200F4B10B518464FF400720021AA
:105100000AF0ABFC0C4C01464FF400720B48FFF761
:105110000DF94FF48072002120460AF09EFC2146D2
:1051200007484FF48072FFF701F92046BDE81040B0
:10513000FFF78CBF8C2100208C230020B74D02008C
:10514000D74D0200552373B540F201322249009336
:105150000446224B224800F081F821492148FFF7FC
:1051600003F930B10023237602B0BDE87040FFF7A9
:10517000C1BF0123062623761B4D1C4CD5F8C82041
:1051800040F20231C2F3400282F00102204607F0F1
:10519000A1FD6A6B0D21C2F3400282F0010220469C
:1051A00007F098FDAA6B0E21C2F3400282F00102C3
:1051B000204607F08FFDD5F8982040F20621C2F373
:1051C000400282F00102204607F084FD642004F0D2
:1051D000B8FD013ED2D1C7E7F81A0020001B00201D
:1051E000042F0020682C0020000808402C3E0020DE
:1051F00073B5C5688DF80710C179284616461C4658
:10520000FEF74EFF18B90024204602B070BD0023FF
:10521000012228460DF10701FEF755FF0028F2D0C4
:10522000214601232846B2B2FEF77FFF04462846F6
:10523000FEF741FFE8E713B58DF806200422FE24AF
:105240008DF805108DF807300DEB02010123C068C1
:105250008DF80440FEF737FF02B010BD10B40446CD
:10526000184622810022019BE160E37122612275D0
:10527000A0615DF8044BFEF78CBF0B4607220021AE
:10528000FFF7B6BF38B50D4C0D46234610223A2124
:10529000FFF7AEFF80B1204623782B7063786B70E8
:1052A000A378AB70E378EB7023792B7163796B7122
:1052B000A379AB71E379EB7138BD00BFF22E00200A
:1052C0007FB5FE2304468DF80110C179C0681646EB
:1052D0008DF80030FEF7E4FE002302226946E06804
:1052E000FEF7F1FE80B1012369461A46E068FEF739
:1052F0001CFF054640B1E068FEF7DDFE9DF800307A
:105300003370284604B070BDE068FEF7D4FE002577
:10531000F7E7FFF7D5BF002914BF802300238022C1
:105320000021FFF788BF0B460C220021FFF783BF47
:105330000B4630220021FFF77EBF002914BF402317
:10534000002340220021FFF776BF002914BF02236B
:10535000002302220021FFF76EBF30B5002485B084
:1053600001910DF10F02214605468DF80F40FFF720
:10537000D0FF9DF80F20019B02F00101994211D04E
:1053800012F0400111D021462846FFF7D6FF2146F2
:1053900001222846019BFFF74EFF012104462846C3
:1053A000FFF7CBFF204605B030BD01222846FFF7AE
:1053B00042FF0446F6E770B5CBB20C46FF2203214C
:1053C0000546FFF738FF38B12846230AFF22BDE81B
:1053D00070400421FFF72FBF70BDF8B5044680F878
:1053E0002C10C179C06817461D46FEF759FE0023F0
:1053F0000122E06804F12C01FEF765FE08B90020E7
:10540000F8BD04F11C06012310223146E068FEF7C6
:105410008CFE0028F3D0102D28BF10250023AB42AE
:10542000EED216F8012BFA540133F8E738B5FE2313
:10543000044680F82C3080F82D10C179C0681546DC
:10544000FEF72EFE00230222E06804F12C01FEF795
:105450003AFE08B9002038BD0123E0681A4604F17D
:105460001C01FEF762FE0028F4D0237F2B70F2E7C8
:1054700073B5102B0D466FF02C064FF0000104465B
:1054800028BF10238DF8071080F82C50013A00F146
:105490002D01361A7018834232D8591CC9B2C3F193
:1054A0001002102903F12D0388BF012254FA83F062
:1054B00000210AF0D2FAE179E068FEF7F1FD01235C
:1054C0001122E06804F12C01FEF7FDFD0646E0B173
:1054D0000835EDB2032D18D90325052004F031FC61
:1054E000062120460DF10702FFF7A0FF30B9013D6C
:1054F0000BD09DF807309B07EFD4304602B070BD4B
:1055000012F8010F01F8010BC4E70020F6E72DE9BE
:10551000F74F07468A4691469846002600F11C0B35
:10552000464501D3012019E00AEB0604C4F3071134
:1055300004F00F04A8EB0605C4F11003ADB29BB252
:105540009D4228BF1D46102D28D0002338461A46FC
:105550000191FFF742FF019918B1002003B0BDE8A7
:10556000F08F11B90CB1FB793B77002309EB0602F0
:105570000F2C98BFD05C03F1010398BF0BF8040017
:105580009D4204F10104F3D810235A463846FFF730
:105590006FFF0028E1D12E44B6B2C1E72B4609EBDC
:1055A0000602F3E72DE9F84F07468A4691469846EA
:1055B000002600F11C0B464501D3012017E00AEB41
:1055C0000605C5F3071105F00F05A8EB0604C5F1A4
:1055D0001003A4B29BB29C4228BF1C46102C19D0C9
:1055E000002338461A46FFF7F8FE10B90020BDE840
:1055F000F88F002309EB06020F2D98BF1BF805104A
:1056000005F1010598BFD15401339C42F4D82644DA
:10561000B6B2D0E72346384609EB0602FFF7DDFEB7
:105620000028F4D1E2E70368013304D04068431C4A
:105630005842584170470120704710B50B68046804
:105640009C4209D040684A68904205D0944203D0F9
:10565000181A18BF012010BD0020FCE740F3090311
:10566000B3F1FF3F08BF0130C0F3090004307047B9
:1056700010B5031F0439083053F8042F51F8044FB4
:10568000834282EA04021A60F6D110BD08B50368AD
:105690001B0D13F4E06306D00430FFF7CEFFB0FA21
:1056A00080F0400908BD1846FCE7836E10B51A6A01
:1056B000436DD31A1944B1FBF2F302FB1311836D4E
:1056C0008B420BD90123426E4C0901F01F0103FAF2
:1056D00001F152F824300B4342F82430002010BD71
:1056E000164A11F0805F30B5154C18BF1446036898
:1056F00083EA010525421FD043F3090401341BD07E
:1057000001EA02040F4A1A4042F09F4242F4E002CA
:10571000944211D00A0D02F4E064B4F5806F09D10F
:10572000C3F38924C1F389218C4203D352B203EB22
:1057300082230360002000E0012030BD00FCFF7FD9
:1057400000FC0F7000FC0F00024608B50846FFF78A
:1057500085FF136818441060002008BD036B1944CE
:10576000C1F30903003B18BF012321F0004141EAC6
:10577000C371016370470368013303600020704701
:10578000836E10B51B6B044613B9C0680AF040F96C
:10579000A36E5B6B13B9E0690AF03AF9A36E9B6BD9
:1057A00013B9606E0AF034F9002010BD2DE9F04FF6
:1057B00089B00392826E0693136ADDE912B45B45E9
:1057C0008946DDE91486059040F29A80D269A319D2
:1057D000934200F29580069B013B07930EB9304639
:1057E0008BE0B9F1000F3CD0D9F800309B4538D19F
:1057F000D9E9015205EB020AA24532D9A54211D8D6
:10580000AAEB040AB24528BFB246D9F80C10651BB2
:105810004046524629440AF013F9D0445444A6EBBA
:105820000A06DBE72D1BB54228BF3546039B1B68E4
:105830009B451CD1039BD3E901120A44944216D222
:105840008C4210D3121B954228BF1546DB68611AA3
:1058500040462A4619440AF0F3F8A8442C44761B23
:10586000BCE73546E2E7091B8D4228BF0D46059B84
:10587000986E41694268B4FBF1F31746069A01FB42
:105880001343B24216D8ABB98E4213D3B5FBF1FA2B
:1058900001FB1A53A5EB030A0493224643465946DB
:1058A000CDF800A0B84740BB049BD0445D1B5444D6
:1058B0002E4493E7039A039DC2F800B0E21A6A608F
:1058C000079D1B1B05EB010AA244BAFBF1F501FB86
:1058D00015A1AAEB010AC1698A4594BF53445B181C
:1058E000816A8B4228BF0B4603998B600093CB687B
:1058F0005946B84700283FF471AF09B0BDE8F08FB2
:105900006FF05300F9E730B501680446082087B00E
:1059100004AD8B6E0390029550680190126800925E
:105920000A46DB6910461031FFF740FF30B92846C0
:10593000211DFFF782FE003818BF012007B030BDDF
:105940002DE9F04F93B0154609931368826E074610
:10595000126A0C46934205D36FF05306304613B0DB
:10596000BDE8F08F69688A42F6D900214FF004083B
:105970000CAACDE90112009302464346CDF80C80F3
:10598000CDE90C11FFF712FF064610B110F1540FCC
:10599000E4D1CDF80C804FF000080DAB0293CDF8A8
:1059A00004806B683A460093414604233846FFF76B
:1059B000FDFE064620B110F1540FCFD1414606E05E
:1059C000DDE90C31C91A0029D4BF0021012155F8A5
:1059D00021304FF0FF36236081F00103079355F823
:1059E0002330636012AB03EB810151F8183CA360D4
:1059F0000023E36002230893B04A0EAB92E8030051
:105A0000042283E803004FF0FF3004F1080102F0A4
:105A100033FC0023B0464FF0FF399A46CDE90533F9
:105A200004904846FFF71AFE042282440DF12C0B25
:105A30000392CDE901AB2268BB6E009200213A4689
:105A40003846DB69FFF7B2FE054638B115F1540F51
:105A500040F03A814FF00003A37522E0594604223A
:105A6000049802F009FC0B9B04901BBA89EA030B13
:105A7000BBF1000FCDF82CB03DDA4FEA195A0AF409
:105A8000E06ABAF5A06F09D1BB6EE5689869B5FB0D
:105A9000F0F300FB1355B5FA85F56D0905F001002B
:105AA000A075E368002B00F01981214607F13C0046
:105AB000FFF7ECFD48B1FB6BC6F38922C3F38923E2
:105AC0009A4240F0038146F000461D9B3BB1A28AFA
:105AD000C6F38923934228BF13461D9A1380002ED4
