:10000000E82D0020893C0000E13A0000853C00001A
:10001000853C0000853C0000853C0000853C0000DC
:10002000000000000000000000000000853C00000F
:10003000853C000000000000853C0000853C00007D
:10004000613200003D330000653400003D330000A4
:1000500065340000FD2C0000812C000051380000A8
:10006000513800005138000000000000000000007E
:100070000000000000000000000000000000000080
:100080000000000000000000000000000000000070
:100090000000000000000000000000000000000060
:1000A0000000000000000000000000000000000050
:1000B0000000000000000000000000000000000040
:1000C0000000000000000000000000000000000030
:1000D0000000000000000000000000000000000020
:1000E0000000000000000000000000000000000010
:1000F0000000000000000000000000000000000000
:1001000000000000000000000000000000000000EF
:1001100000000000000000000000000000000000DF
:1001200000000000000000000000000000000000CF
:1001300000000000000000000000000000000000BF
:1001400000000000000000000000000000000000AF
:10015000000000000000000000000000000000009F
:10016000000000000000000000000000000000008F
:10017000000000000000000000000000000000007F
:10018000000000000000000000000000000000006F
:10019000000000000000000000000000000000005F
:1001A000000000000000000000000000000000004F
:1001B000000000000000000000000000000000003F
:1001C000FFFFFFFFFFFFFFFFFFFFFFFFFFFFFFFF3F
:1001D000FFFFFFFFFFFFFFFFFFFFFFFFFFFFFFFF2F
:1001E000FFFFFFFFFFFFFFFFFFFFFFFFFFFFFFFF1F
:1001F000FFFFFFFFFFFFFFFFFFFFFFFFFFFFFFFF0F
:1002000010B5054C237833B9044B13B1044800E012
:1002100000BF0123237010BDE80E00200000000085
:10022000B841000008B5034B1BB10349034800E087
:1002300000BF08BD00000000EC0E0020B841000027
:1002400008B50160002141600261436100F53D7025
:1002500000F026F808BDF8B505460E460A4601210D
:1002600000F5327000F05CFF0746314605F5187066
:1002700000F0AAFD314605F5FC7000F099F9002464
:100280000AE0C4EB0413DB0018333A463146E818A1
:1002900001F003F80134E4B2032CF2D9F8BD704741
:1002A0000028FDD0002302E00022C2540133072BB6
:1002B000FADD00238360C360704700B5864603887B
:1002C0004FF0000C02E001301FFA80FC9C4510D278
:1002D0000CEB0300C0F34F00DEF8042032F83020AE
:1002E0008A4209D0EFD910B1431E9BB2EEE7034614
:1002F000ECE703D04FF6FF705DF804FBDEF8043046
:1003000033F83C308B4202D04FF6FF70F4E7604682
:10031000F2E7C0B100B5864691F800C0BCF1070F06
:1003200000D9FEE780F834C0002308E001EB830227
:10033000506803F10C020EEB8202906001339C4581
:10034000F4DC5DF804FBFEE72DE9F84305460F46B3
:10035000C37843F08003C3704FF00008444695F81B
:100360003430434561DD08F10C0305EB830393F85A
:100370000A90DE7A19893846FFF79FFF4FF6FF7320
:1003800098421ED03B8898421DD24FF6FF73984288
:100390001BD07B6803EBC0008378994517D2416876
:1003A00009EB490901EB8901E9B1002328E024495F
:1003B00019441A1D05EB820251600133072BF6DD4B
:1003C00033E00023FAE70021EEE70021ECE700210B
:1003D000EAE71B4919441A1D05EB820251600133FB
:1003E000072BF6DD21E00023FAE7221D05EB820250
:1003F0001448006850600134E4B2082C17D8013367
:100400009E4216DDCA889A42EFDD0A68D018221D86
:1004100005EB82025060EEE7094919441A1D05EB0D
:10042000820251600133072BF6DDBDE8F88300231B
:10043000F9E7EB786FF3C713EB7008F101088EE76B
:10044000D4050020DC05002048B138B51446054627
:10045000FFF75FFF21462846FFF776FF38BD70475C
:1004600081650023A0F84C30437580F8543080F843
:100470006030032380F861307047FFFF10B582B011
:1004800004460191802380F8203000F124010023EC
:1004900007E003F108026A4412F8042CCA5401333D
:1004A0009BB2032BF5D9082384F82830054B1B6831
:1004B00004F11800984701992046FFF7D1FF02B0D8
:1004C00010BD00BFD0050020002380F830308385A8
:1004D000B0F8403080F821301B0A80F8223090F8C4
:1004E000423080F82330704710B4012303708369D1
:1004F0004FF4C06464F31C038361082380F8283040
:10050000002380F8293044684FF4B06C6CF31C046D
:10051000446043758385C38580F83030B1F864400A
:100520004486896E4163A0F8403080F842304364CD
:100530008364A0F84C30A0F84E30026580F8543047
:100540008365C36580F8603080F861305DF8044BE6
:100550007047FFFF10B5029C4FF0010C80F861C09E
:1005600001F07F0190F818E061F3060E80F818E0C2
:1005700090F804E061F3060E80F804E0A0F8402053
:1005800080F84230BDF80C30A0F84E302279074B8D
:100590001A71E288DA8022681A60A2689A6043645D
:1005A00080F854C0102380F8603010BD080F002080
:1005B00070B582B004460378002B00F05F8290F89B
:1005C0006050002D00F05B82B0F84C203AB111442D
:1005D00089B2A0F84C10B0F84E20914226D8216D77
:1005E000C88B628E904226D000210AB101B9002347
:1005F000002B00F04982637D23B994F85420002A2F
:1006000000F0448233B10023A4F84C30237B5B0913
:10061000042B18D0103D052D00F22E82DFE815F0D6
:1006200027006700CC0031015001C8019F49FFF746
:1006300017FF032523E2606B496A084201D00121BC
:10064000D3E70021D1E7237C8DF80030637C8DF85F
:100650000130A37C8DF80230E37C8DF80330009BE1
:10066000E3650023637584F86030032507E22046C4
:10067000FFF72AFF616CCA88E285042A24D8C2F1F8
:1006800004039B0003F00C0343F0230384F82030A1
:1006900004F124050868002303E0C15CE954013338
:1006A0009BB29A42F9D8824B1B6804F11800984714
:1006B0000125A4F84C50002384F85430112384F809
:1006C000603000236375DAE1212384F82030009242
:1006D00084F82420C2F3072384F82530C2F30743AB
:1006E00084F82630C2F3076284F82720DBE7257BF5
:1006F0006D09032D20D1637B8DF80030A37B8DF82D
:100700000130BDF80020E17BB4F840309A4219D1A5
:1007100094F84230994215D1E28D042A17D9636CBE
:100720001968A38D07339A4235DC5FFA82FC04F125
:1007300021056246002313E05E492046FFF79EFE36
:100740000325BEE75C492046FFF798FEB9E7002382
:1007500084F860300225B4E7C85CE85401339BB2EA
:100760009A42F9D8E38DA38594F93030CCF1070291
:1007700043EA42035BB243F0010384F820300125D1
:10078000A4F84C504A4B1B6804F1180098471223F8
:1007900084F8603095E704F12100002303E0CA5C8F
:1007A000C25401339BB2062BF9D90723A38594F8D1
:1007B000303084F82030E2E7237B5D09012D1DD124
:1007C00094F8302003F0100393421DD182F0100200
:1007D00084F83020E38DA08D83421BD9626C1168B0
:1007E0000144C21D93423ADCDAB2C0B2121A5FFA77
:1007F00082FE04F1210C7246002315E02D492046AB
:10080000FFF73CFE03255CE72C492046FFF736FE48
:10081000032556E7002384F86030022551E7C85CC1
:100820000CF8030001339BB29A42F8D8E38DA385FC
:1008300094F93030CEF1070243EA42035BB243F051
:10084000010384F820300123A4F84C30184B1B68B6
:1008500004F118009847122384F8603031E704F15E
:100860002100002303E0CA5CC25401339BB2062B73
:10087000F9D9A38D0733A38594F8303084F820305C
:10088000E1E72046FFF720FE402384F82030084BA4
:100890001B6804F1180098470125A4F84C50002368
:1008A00084F85430142384F860300AE7000004050B
:1008B000D005002023000A064300040600000305BB
:1008C000237B590902293AD1627B8DF80020A27B53
:1008D0008DF80120BDF80000E57BB4F8402090427F
:1008E00033D194F8422095422FD103F00305032D14
:1008F00031D0012D56D1237C8DF80030637C8DF8EA
:100900000130A37C8DF80230E37C8DF80330BDF814
:100910000030E385626CD28893423DD80023A385E2
:10092000602384F820300123A4F84C30584B1B6816
:1009300004F118009847152384F86030C1E6554942
:100940002046FFF79BFD0325BBE653492046FFF7F2
:1009500095FD0325B5E6C3F38102C2F1040292B20C
:10096000E285636CD888824204D81E6804F11005C1
:10097000002308E049492046FFF772FDA1E6E85C44
:10098000F05401339BB29A42F9D8E38DA38500233A
:1009900084F860300D4694E640492046FFF76EFD2E
:1009A00003258EE63E492046FFF768FD032588E6CD
:1009B000217B4B091AD194F8303001F010029A4291
:1009C0001AD183F0100384F83030636C1A68A08D5C
:1009D0000244E38DC51DAB4228DC11F0010F11D09C
:1009E00004F10D051B1A99B2002316E0294920468F
:1009F000FFF744FD032564E62A492046FFF73EFD44
:100A000003255EE64FF000612046FFF737FD032522
:100A100057E6E85CD05401339BB29942F9D8E38D94
:100A2000A385002384F8603002254AE611F0010F07
:100A300003D104F10D0000230AE04FF000612046CD
:100A4000FFF71CFD03253CE6C15CD15401339BB28A
:100A5000062BF9D9A38D0733A38594F8303043F0E2
:100A6000600384F820300A4B1B6804F11800984793
:100A70000125A4F84C5024E6012522E601250DB1FC
:100A800084F8615002B070BD0125F8E70125F6E752
:100A9000D005002023000A064300040605000405D3
:100AA0001000070600000305002380F8303083851E
:100AB000437B80F82130837B80F82230C37B80F831
:100AC0002330704730B583B0044690F8543023B3D8
:100AD000436C9B685B689847032805D0022811D0B7
:100AE0000125284603B030BD002584F85450A4F8F1
:100AF0004C503F4B1B6804F11800984784F8605035
:100B00000225EEE7002384F85430A4F84C3039492C
:100B10002046FFF7B3FC0325E3E7FFF7C5FF227B81
:100B200002F00305032D25D0012D5BD1237C8DF828
:100B30000030637C8DF80130A37C8DF80230E37CBB
:100B40008DF80330BDF80030E385626CD2889342A3
:100B500042D80023A385602384F820300123A4F821
:100B60004C30234B1B6804F118009847122384F87B
:100B70006030B6E7C2F38102C2F1040292B2E285AC
:100B8000636CDB889A4204D8A56C04F11000002342
:100B900008E019492046FFF771FCA2E7C15CE9545F
:100BA00001339BB29A42F9D8E38DA385602384F880
:100BB0002030636C9B682BB10125A4F84C5084F85D
:100BC00054508EE70A4B1B6804F118009847002325
:100BD00084F86030022584E707492046FFF74EFC81
:100BE00003257EE705492046FFF748FC032578E703
:100BF000D0050020210000080500040510000706AC
:100C000038B5044690F8543013B3436C9B685B6866
:100C10009847032803D002280FD0012038BD0025B3
:100C200084F85450A4F84C50454B1B6804F118004C
:100C3000984784F860500220F0E7002384F854308D
:100C4000A4F84C303F492046FFF718FC0320E5E7A5
:100C5000037B5A0915D190F8301003F0100291422D
:100C600014D1826C808D0244E18DC51DA9423ADC0D
:100C700013F0010F0FD004F10D05091A89B20023FA
:100C800014E03149FFF7FAFB0320C7E72F49FFF7CC
:100C9000F5FB0320C2E74FF000612046FFF7EEFBB3
:100CA0000320BBE7E85CD05401339BB29942F9D8EA
:100CB000E38DA38594F8303043F0200384F820308E
:100CC000636C9B682BB10120A4F84C0084F854009D
:100CD000A4E71B4B1B6804F118009847002384F815
:100CE000603002209AE713F0010F03D104F10D00E8
:100CF00000230AE04FF000612046FFF7BFFB03200E
:100D00008CE7C15CD15401339BB2062BF9D9A38D7A
:100D10000733A38594F8303043F0200384F8203063
:100D20000125A4F84C50064B1B6804F118009847A5
:100D300094F8303083F0100384F8303028466DE7A3
:100D4000D00500202100000823000A06000003054A
:100D500030B40124047091F85C4004F5B0648569F6
:100D600064F31C058561082480F82840002480F87D
:100D7000294091F85CC00CF5C06C45686CF31C050B
:100D80004560047544758485C48580F83040B1F8A9
:100D90005E5045860487C363A0F8404080F8424017
:100DA00044648464A0F84C40B1F86030A0F84E3040
:100DB000026580F854408465C46580F8604080F81E
:100DC000614030BC7047FFFF70B582B004460378C5
:100DD000002B00F07581B0F84C303BB1194489B25A
:100DE000A0F84C10B0F84E3099421ED8637D23B95C
:100DF00094F85420002A00F061814BB10023A4F83C
:100E00004C30237B5B09042B14D094F860302BB357
:100E100094F86030113B042B00F24E81DFE813F0B0
:100E20008B0098004C019D00E300A849FFF718FBD8
:100E3000032546E1237C8DF80030637C8DF801307A
:100E4000A37C8DF80230E37C8DF80330009BE365D2
:100E50000023637584F86030032532E1257B6D093A
:100E60006B1EDBB2012B38D8637B8DF80030A37B7F
:100E70008DF80130BDF80010A4F84010E37B84F831
:100E80004230E06BFFF719FA20874FF6FF73984264
:100E90002FD0E36B94F842201988884223D24FF672
:100EA000FF71884221D05B6803EBC00083789A42CF
:100EB0001DD2436802EB420203EB82036364D3B1A9
:100EC000012D1ED01B7913F0010F2ED0142384F8AE
:100ED00060300125032D9BD1F3E07D492046FFF7CB
:100EE000CDFA0325F6E70023E8E70023E6E7002331
:100EF000E4E70023E2E777492046FFF7BFFA03253E
:100F0000E8E71A7912F0020F07D09A685AB113680D
:100F1000A364112384F86030DCE76F492046FFF7B3
:100F2000ADFA0325D6E71B68F2E76B492046FFF7C9
:100F3000A5FA0325CEE72046FFF7C4FD06460023A9
:100F4000637594F86050002D00F0BB803546B8E022
:100F50002046FFF755FE0646F1E72046FFF7A4FDC1
:100F6000616CCA88E285042A1DD9412384F82030A7
:100F7000009284F82420C2F3072384F82530C2F3BA
:100F8000074384F82630C2F3076284F82720534BC6
:100F90001B6804F1180098470126A4F84C6015233B
:100FA00084F86030CBE7C2F104039B0003F00C032C
:100FB00043F0430384F8203004F12405086800233B
:100FC00003E0C15CE95401339BB29A42F9D8434B28
:100FD0001B6804F118009847E38DA385002384F86B
:100FE00060300226ABE7237B5E09032E11D194F813
:100FF000302003F01003934211D1636C1A68A08D66
:101000000244E38DC11D8B420EDD04F1210000235B
:101010003AE033492046FFF731FA03268FE731499A
:101020002046FFF72BFA8AE7D9B2C0B2091ACEB22E
:1010300004F1210531460023994204D9D05CE854DB
:1010400001339BB2F8E7E38DA38594F93030C6F104
:10105000070243EA42035BB243F0010384F8203005
:101060001E4B1B6804F11800984794F8303083F049
:10107000100384F83030002384F8603002265EE7E5
:10108000D15CC15401339BB2062BF9D9A38D073330
:10109000A38594F8303084F82030104B1B6804F19D
:1010A000180098470126A4F84C6094F8303083F07B
:1010B000100384F8303042E7012640E7012640E77C
:1010C000012584F8615002B070BD00BF0000040526
:1010D000010004051100090600000106D0050020EA
:1010E00023000A060000030503460A460321017493
:1010F000111D03C983E80300002159749089988267
:10110000D089D882B2F85800188392F85A209A767B
:101110009983D98383F82010596283F82810704787
:10112000C17890F90330002B5CDB10B582B0044627
:10113000838B1A4492B2934200D2828311F0400F03
:1011400038D0A28BA38A9A424AD3E38B01339BB255
:10115000E383228B934212D90123E38394F8203056
:101160000133DBB284F82030A27E934202D90023FF
:1011700084F8203094F82020012393406362E38BAD
:10118000ADF800302372C3F30723637294F8203064
:10119000A372154B1B68204698470023A3830120A8
:1011A000A38BE28A93428CBF0023012384F828306A
:1011B00002B010BD607C0028F2D0237A8DF8003098
:1011C000637A8DF80130BDF80030E383A27A84F8A9
:1011D00020200123934063620023A3836374DFE72D
:1011E0000020DDE700207047D005002010B5044640
:1011F00090F87330022B01D0002311E0436F0830C8
:1012000098470B4B1B68204698470FE004F11402E7
:1012100052F8231004F108020978D1540133DBB2EB
:10122000072BF3D9024B1B682046984710BD00BF1F
:10123000D00500202DE9F04104460E461146069DDA
:101240009DF81C80089F1A46FFF7FEF82B68E3659F
:101250002A89A4F864206A89A4F86620A989A4F8D8
:101260006810A87B84F86A00236008232374002395
:101270006374A66584F8701084F8712084F8723065
:1012800084F873806767B8F1020F02D025B1BDE81A
:10129000F081002FFBD1FEE7FEE708B590F903309F
:1012A000002B14DBB0F864304FF6FF718B420BD08B
:1012B0006AB1826DD18B8B420DD043B990F87230F8
:1012C0002BB1FFF793FF02E090F8723003B908BD2D
:1012D000FFF78CFFFBE7C16E526A1142EDD0FFF7BA
:1012E00085FFF4E7B8B1844600234FF6FF708B42C8
:1012F00012D210B41CF8032082EA1022074C246892
:1013000034F9122082EA002080B201338B42F1D3FB
:101310005DF8044B70477047704700BFE005002040
:1013200030B58BB005461F4C0DF1080CA646BEE843
:101330000F00ACE80F009EE80F008CE80F000DF1E5
:10134000090105F10C0000F02BF90DF1170105F171
:101350002C0000F025F94FF400432B614FF42033AB
:101360002B630DF1080E04F1400CBCE80F00AEE851
:101370000F009CE80F008EE80F009DF808308DF8F4
:1013800000309DF809308DF801309DF80A308DF855
:1013900002309DF80B308DF80330009B6B600BB072
:1013A00030BD00BF0004000838B504460D460023D8
:1013B00001F8013B0C3000F02AF905F10F0104F1AE
:1013C0002C0000F024F938BDC0F86C147047017887
:1013D000072905D8DFE801F00C0C0C0C0C070C0CED
:1013E00000218C4608E040F28A214FF0000C03E017
:1013F00041F288314FF0000C89184CEB0303C0F820
:101400006014C0F86434704703788B4202D00170D6
:10141000012303727047FFFF70B590B00446402669
:1014200032460021684602F0A2FC134DEC46AE465F
:10143000BEE80F00ACE80F00BEE80F00ACE80F00FC
:10144000BEE80F00ACE80F009EE80F008CE80F002C
:1014500069462046FFF7A8FFD4F86C341B6A324671
:1014600069462846984708B910B070BD0721204644
:10147000FFF7CAFFF8E700BF0004000810B50446F4
:10148000D0F86C34DB6998476368012B0CD004F109
:101490000C0000F0E5F860B9012384F868340521F8
:1014A0002046FFF7B1FF10BD01212046FFF7ACFF3A
:1014B000F9E705212046FFF7A7FFF4E710B504463A
:1014C000D0F86C341B689847002384F868342046B1
:1014D000FFF726FF2046FFF7D1FF10BD10B50446E9
:1014E0000C3000F0CDF870B1E1682069FFF7FAFE2A
:1014F000A082002363762046FFF78EFF0621204658
:10150000FFF782FF10BD07212046FFF77DFFF9E7B7
:1015100030B591B00446124DEC4605F1400EBEE8E0
:101520000F00ACE80F00BEE80F00ACE80F00BEE80B
:101530000F00ACE80F009EE80F008CE80F000023BE
:101540000093D4F86C341B6A40226946A818984767
:1015500008B911B030BD07212046FFF755FFF8E765
:101560000004000810B50446002343760C3000F058
:10157000A6F86368022B0DD0D4F880342046984733
:10158000D4F86C34DB6920469847D4F86C349B68F7
:10159000204698472046FFF7BBFF0023636010BD3D
:1015A00082B00B788DF800304B788DF801308B7855
:1015B0008DF80230CB788DF80330009BB3F5004FE7
:1015C00028BF4FF4004303600B798DF800304B794E
:1015D0008DF801308B798DF80230CB798DF803309E
:1015E000009B43600B7A003B18BF01234373B1F8A3
:1015F0000920CB7A428103730B7B8DF800304B7B43
:101600008DF80130BDF80030038102B0704782B020
:10161000036800930B70C3F307224A70C3F30742B9
:101620008A70C3F30763CB70436800930B71C3F3F5
:1016300007224A71C3F307428A71C3F30763CB7170
:10164000437B0B724289037BA1F80920CB7203898B
:10165000ADF800300B73C3F307234B7302B0704730
:1016600008B5C369984708BD10B5044601684068CD
:10167000FFF738FE2389834214BF0020012010BDEC
:1016800010B5044601684068FFF72CFE23898342A9
:1016900014BF0020012010BD38B50446436901691C
:1016A00051F80C0B4FF480629847054620694FF4BF
:1016B0008062FF210C3002F05AFB284638BD08B585
:1016C000836904214068984708BD10B504468188A5
:1016D0000C30FFF707FE2389834214BF002001204E
:1016E00010BDFFFF10B5044C0449204601F0BEFFB9
:1016F000204602F039F810BDAC270020FC3E000067
:1017000010B5044C0449204601F0B0FF204602F019
:101710002BF810BDC8270020303F000010B5044C46
:101720000449204601F0A2FF204602F01DF810BD3A
:10173000E4270020643F000008B5FFF7D3FFFFF760
:10174000DFFFFFF7EBFF08BD08B5084B9A68D26AC8
:1017500018689047064B9A68D26A18689047054BFC
:101760009A68D26A1868904708BD00BFF03E000032
:10177000243F0000583F000008B5037913B9024820
:101780000368984708BD00BF140F002008B503790F
:1017900013B902484368984708BD00BF140F0020E2
:1017A00008B5037913B902488368984708BD00BF9C
:1017B000140F002070B50E4615461C46012824D093
:1017C000022829D0002240F20231354800F01BFEE9
:1017D000012E2ED0022E32D000220D21304800F0F2
:1017E00012FE012D36D0022D3AD000220E212C48B7
:1017F00000F009FE012C3ED0022C43D0002240F222
:101800000621274800F0FFFD70BD012240F20231A1
:10181000234800F0F8FDDBE7224BD3F8C820C2F3E1
:10182000400282F0010240F202311D4800F0EBFD5F
:10183000CEE701220D211A4800F0E5FDD1E7194B52
:101840005A6BC2F3400282F001020D21144800F0ED
:10185000DAFDC6E701220E21114800F0D4FDC9E7E8
:10186000104B9A6BC2F3400282F001020E210C4829
:1018700000F0C9FDBEE7012240F20621084800F051
:10188000C2FDC1E7074BD3F89820C2F3400282F0B3
:10189000010240F20621024800F0B5FDB4E700BFA6
:1018A0002027002000080840094B1B781BB9094B72
:1018B0001B78002BF8D0064B1B781BB90020054B7A
:1018C00018707047024B00221A700320704700BF47
:1018D000220F0020200F002010B5054C054920469E
:1018E00001F012F801220221204601F0C4F910BDD6
:1018F00068270020DC3E000008B5024800F026FF03
:1019000008BD00BF6827002070B582B006460D46AE
:1019100000238DF807300A460146124801F090F97D
:10192000B0B90024AC4210D20DF107034FF40042CD
:1019300006EBC4310B4801F055F960B99DF807304A
:10194000012B0BD00134E4B2ECE7002002B070BDF3
:101950004FF0FF30FAE74FF0FF30F7E74FF0FF307E
:10196000F4E700BF68270020002393420ED200B5A1
:1019700010F903E011F903C0E64505D101339342A4
:10198000F6D301205DF804FB0020FBE7012070473F
:10199000F8B505460E461446134602460B4801F0BC
:1019A0003EF968B90A4F22462946384602F0D2F974
:1019B000224631463846FFF7D7FF20B10020F8BD58
:1019C0004FF0FF30FBE74FF0FF30F8E768270020CB
:1019D000240F00202DE9F04182B000AF04460D46EF
:1019E00016460023FB7162B6012201462D4801F024
:1019F00027F9002849D12C4B93F80080B8F1000F4B
:101A000006D02A4B1B78002BFBD0284B00221A70E3
:101A1000FB1D40222146234801F0E4F8002837D17D
:101A2000FB79012B37D0022B25D03346224629469D
:101A30001C4801F0F4F888BBB8F1000F06D01C4830
:101A400000780028FBD01A4B00221A706C46F31D58
:101A5000DB08A4EBC3039D4632462946684602F0E4
:101A600079F92946684602F08AF958B9A546083737
:101A7000BD46BDE8F081FFF717FF0028D5D04FF035
:101A8000FF30F4E74FF0FF30F0E74FF0FF30EEE7C4
:101A90004FF0FF30EBE74FF0FF30E8E74FF0FF305B
:101AA000E5E700BF68270020DC3E0000210F002092
:101AB000230F00200378032B12D8DFE803F00A0E6F
:101AC0000602084B01221A707047074B01221A7058
:101AD0007047064B01221A707047054B01221A709D
:101AE000704700BF220F0020200F0020210F002090
:101AF000230F002008238371002303714371704773
:101B000010B5074C04F10800FFF7F4FF04F11C00C6
:101B1000FFF7F0FF0349044801F076FA10BD00BF5B
:101B2000241F0020983E0000282700208288B2F55C
:101B3000806F11D108B50346084A02F1280C006AEB
:101B4000596AACE80300997E82F822105B69D36180
:101B5000136B1046984708BD704700BF241F002034
:101B600010B57F4B93F8383373B97D4B93F830330E
:101B7000072B12D8DFE813F0120032004E006E007F
:101B80008E00AA00D100EB00764C774BD3E90023FE
:101B90002046FFF71CFC0023237210BD724B18680F
:101BA00059686F4BD3F89027D3F8943790429941F6
:101BB00003D3134308D1002300E0002333B10721EE
:101BC0006848FFF721FCE8E70123F7E7654C20466A
:101BD000FFF774FC204600F033FBDEE7624B186829
:101BE00059685F4BD3F89027D3F8943790429941C6
:101BF00003D3134308D1002300E0002333B10721AE
:101C00005848FFF701FCC8E70123F7E75548FFF7FD
:101C1000A9FCC2E7544B18685968514BD3F8902778
:101C2000D3F894379042994103D313430BD1002347
:101C300000E000234BB94A48D0F89C37DB6800F538
:101C40004C709847A9E70123F4E707214548FFF7BF
:101C5000DBFBA2E7444B18685968414BD3F8902747
:101C6000D3F894379042994103D313430BD1002307
:101C700000E000234BB93A48D0F89C371B6900F5C7
:101C80004C70984789E70123F4E707213548FFF7AF
:101C9000BBFB82E7344B18685968314BD3F8902767
:101CA000D3F894379042994103D3134308D10023CA
:101CB00000E0002333B107212A48FFF7A5FB6CE7BA
:101CC0000123F7E72748FFF709FC66E7264B18686A
:101CD0005968234BD3F89027D3F894379042994111
:101CE00003D3134312D1002300E000231BB11C4B8C
:101CF00093F8983763B11A4B93F83933002B3FF4BC
:101D00004CAF01211748FFF77FFB46E70123EDE7C2
:101D100006211448FFF778FB3FE7134B1868596812
:101D20000F4BD3F89027D3F894379042994103D3BF
:101D300013430AD1002300E00023002B3FF42DAF12
:101D400006210848FFF760FB27E70123F5E7044871
:101D5000D0F89C379B6900F54C7098471DE700BF91
:101D6000601F0020902200201827002008B50121C4
:101D70000148FEF770FA08BD601F002008B51C4A34
:101D800013685168013341F1000113605160194A31
:101D9000136801331360012B0BD0C82B0FD0B3F5A0
:101DA000C87F13D0B3F5167F17D0B3F5487F1BD08B
:101DB00008BD002211461046FFF7FCFCF8E700239F
:101DC000012219461846FFF7F5FCF1E700231A46F1
:101DD00001211846FFF7EEFCEAE700231A461946F0
:101DE0000120FFF7E7FCE3E7024B00221A60DFE780
:101DF00018270020581F002008B5054B054A1A6017
:101E0000054A5A60054A9A60FFF796FC08BD00BF74
:101E1000140F00207D1D00006D1D0000611B0000DF
:101E20007047FFFF034BB3F88E22A3F880230320F3
:101E3000704700BF601F0020024B042283F830234C
:101E400003207047601F002008B50648FFF73DFCDF
:101E500008B9022008BD03210348FFF7D5FA032083
:101E6000F8E700BFDC2200209022002008B50448DB
:101E7000FFF706FC08B9022008BD0320FCE700BFFD
:101E80009C2200207047704770477047C269283015
:101E9000264BD3F8C832C3F31C039A420ED0234B0F
:101EA000D3F8FC31C3F31C039A421ED01F4BD3F866
:101EB0006432C3F31C039A4236D070471B4B93F82D
:101EC000CB3213F0400FF8D1184B93F8D8C200234F
:101ED00004E0C15C164A995401339BB29C45F8D882
:101EE000124B012283F8D9227047104B93F85832D5
:101EF000002BDBD0002304E0C15C0E4A995401336F
:101F00009BB2072BF8D9094B012283F80D227047A9
:101F1000C15C094A995401339BB2072BF8D9034B92
:101F2000012283F87522C8E70023F6E7601F00202E
:101F30003022002064210020CC21002010B503466F
:101F4000094C04F114028068D96803C21A68C2F30C
:101F50001C02A2601B7CA37304F1080261680348A1
:101F600000F0A8FF10BD00BF241F0020282700207C
:101F700070B584B0FFF754FF294B2A4A1A602A4AE9
:101F8000A2F14805294C2A4B1B6852F8481C2046F0
:101F9000FEF756F9294604F53270FFF7A5F800243C
:101FA00025E0244B53F824300293204804EBC4036B
:101FB0009A0002F5CC7220490A44C4EB041C4FEA93
:101FC000CC0303F1180E0223019304EB840C0CFAEA
:101FD00003F303F5A4730B44043300934369043201
:101FE00000F532717044FFF725F90134E4B2032C97
:101FF000D7D90E4C04F532760F4D63693246294627
:1020000004F51870FEF7A4FE3246294604F5FC706C
:10201000FEF76AFA094B0A4A1A6304B070BD00BFA2
:10202000D00500203D1F00003C080020601F00205C
:10203000FC0C0020AC0D0020F4070020241F002021
:102040008D1E000070477047BFF34F8F0549CA6867
:1020500002F4E062044B1343CB60BFF34F8F00BF29
:10206000FDE700BF00ED00E00400FA0508B572B618
:10207000FFF78EFC62B608BD08B5FFF7ABFC08BDE4
:1020800008B5FFF775FFFFF73BFD08BD70B586B0DB
:1020900005460E4600235C1CE4B2B3422ED81A4B10
:1020A00093F85932002BFAD1039503218DF81010C3
:1020B0000123ADF812300023059341F288330193D8
:1020C00003AB0093062342F201021048FEF742FAE6
:1020D0000D4B93F85932012BFAD0032B05D10A4B43
:1020E000002283F859222346D5E7074B002283F8C4
:1020F000592202212846FFF787F903E007212846E5
:10210000FFF782F906B070BD601F00205821002043
:1021100010B504460C30FFF7BFFA68B9B4F8523076
:102120000133A4F8523002212046FFF76DF9032154
:102130002046FFF7ABFF10BD07212046FFF764F9EB
:10214000F9E710B504460221FFF75EF994F8683408
:1021500023B1F1212046FFF799FF10BD0321F9E7D4
:1021600008B5FFF7C9FB08BD08B5FFF7B5FB08BD0B
:1021700008B572B6FFF7C8FB62B608BD08B50249DC
:10218000FFF722F908BD00BFBC0D002010B50C4CB4
:102190002046FFF7F3FF04F14C02E263E261094AD3
:1021A00022642262084A62646262084AA262A264ED
:1021B000074AC4F8802400212046FFF725F910BD06
:1021C000902200206D20000071210000691600009F
:1021D0007D21000070B592B005467E211748FFF7BB
:1021E00081F804464FF000660DF1080C06F1800EF0
:1021F000BEE80F00ACE80F00BEE80F00ACE80F002F
:10220000BEE80F00ACE80F009EE80F008CE80F005E
:10221000ADF800408DF80840C4F307248DF809405C
:10222000402202A906F18000FFF7D4FB08B112B0EA
:1022300070BD07212846FFF7E7F8F8E7820000089D
:10224000F0B595B000AF69464FF00063D3F8D430D5
:10225000FB643B73C3F307227A73C3F30742BA7379
:10226000C3F30763FB73FA68234B9A423CD00446DE
:102270000D464022002107F10C0001F078FD4FF0DF
:10228000006607F10C0C06F1C00EBEE80F00ACE8CA
:102290000F00BEE80F00ACE80F00BEE80F00ACE88E
:1022A0000F009EE80F008CE80F00134B7B600222AA
:1022B00087F84C20002287F84D20012187F84E1026
:1022C00087F84F203B62D4F86C341B6A402207F138
:1022D0000C0106F1C000984740B92046FFF77AFF8D
:1022E000AD465437BD46F0BD8D46FAE7072120467E
:1022F000FFF78AF8F1E700BF0200010008B54FF0D0
:10230000E02300221A6103F550639860BFF34F8FFA
:10231000036883F308884368984708BD08B5FFF74A
:1023200013FA084B9A68526918689047064B9A68E6
:10233000D26818689047054B9A68526818689047A9
:1023400008BD00BFD03E00008C3E0000803E000073
:1023500008B5FFF71BFFFFF70BFEFFF74DFD094B1D
:1023600093F83033062BFAD1FFF7D8FF4FF47A7188
:10237000322001F061FB034BD3F84003FFF7BEFFAF
:10238000EDE700BF601F0020022800D0704708B5AD
:10239000024B5968024800F061F908BD803E000018
:1023A0002027002008B5FFF7D3FF002008BD034613
:1023B000002018607047FFFF0B0A1B0153FA81F1E0
:1023C000034B53F82130C3F34003137000207047D0
:1023D00000080840090A490101F1804101F5002186
:1023E0004B6813800020704702EA030023EA0203CF
:1023F000090A490101F1804101F5002140EA034346
:102400008B6000207047CBB20120984080B262B947
:10241000024600200B0A5B0103F1804303F5002311
:1024200040EA02409860002070470022F2E7090A63
:10243000490101F1804101F50021086802EA030C1D
:1024400040EA0C0062EA030202400A600020704782
:10245000090A490101F1804101F500214B68C3F3EC
:102460000F431380002070470B0A5B0103F1804388
:1024700003F500235868CBB2012199408BB201EAE1
:102480001041994203D000231370002070470123AC
:102490001370FAE702EA030023EA0203090A49017A
:1024A00001F1804101F5002140EA0343CB600020A7
:1024B000704710B4000A400100F1804000F5002090
:1024C000C468012B0AD044EA02426FEA01416FEA74
:1024D00011411140C1605DF8044B704721434FF634
:1024E000FF7343EA02421140F4E708B5134601F4D2
:1024F0007F40012A09D0C9B2012202FA01F18AB251
:102500000021FFF7D6FF002008BDC9B2012202FA60
:1025100001F189B20022F4E710B411F4803F0ED02B
:10252000030A0C4A1B0153FA80F352F823406FF35D
:10253000104442F8234021F4803442F82340030A37
:102540001B0153FA80F0034B43F820105DF8044B55
:10255000704700BF0008084070B5064600242546B5
:10256000224620E001219940C9B20D430133022BDC
:1025700018D8716801EBC20CBCF804E0144830F8BC
:1025800013C0E645F2D151F8321001F0F851B1F123
:10259000807FE7D0B1F1106FE4D001219940C9B23A
:1025A0000C43E3E701323388934201D90023DEE78D
:1025B000012001F03BFB074A92F8BB342B43E54373
:1025C000EDB21D4082F8BB54012001F0FBFA70BD52
:1025D000E040000000E0014038B50546FFF7BCFFD1
:1025E000EFF31081012383F310881A4B1B6823B982
:1025F000194B0022DA704022DA70164A1368013350
:10260000136081F31088002409E06B6803EBC402B7
:1026100053F834109088FFF77FFF0134A4B22B8861
:10262000A342F2D8EFF31083012282F31088094A03
:1026300012681AB107490A68013A0A60054A126825
:1026400022B9054A0021D1708021D17083F310880E
:1026500038BD00BF58280020000D084008B5034BC6
:1026600003600846FFF7B8FF002008BD54524F50E2
:1026700008B50846FFF7B0FF002008BD70B584B06C
:102680000C461546ADF8041000920126ADF808601E
:10269000CDF80CD002A8FFF75FFFEFF3108286F3AE
:1026A0001088144B1B6823B9134B0021D9704021AB
:1026B000D970104E33680133336082F31088294695
:1026C0002046FFF729FFEFF31083012282F31088E1
:1026D000326812B13268013A3260064A126822B991
:1026E000054A0021D1708021D17083F31088002029
:1026F00004B070BD58280020000D0840054BB3F809
:10270000843003F0810313B90B700020704701235C
:102710000B70FAE700E07F40062070470620704704
:1027200006207047062070470B46064A92E80300D1
:1027300083E80300044A083392E8030083E80300B7
:102740000020704718410000204100000023036072
:10275000436893F91130002B0CDB03F01F015B0978
:1027600001228A402033104941F82320BFF34F8FC4
:10277000BFF36F8F0D4B00221A76436893F9133025
:1027800093420CDB03F01F015B0901228A402033D6
:10279000054941F82320BFF34F8FBFF36F8F00200F
:1027A000024B1875704700BF00E100E000E07F4079
:1027B00081630264C36300207047FFFF10B40023ED
:1027C00080F83430374C012384F81634226AC2F37F
:1027D000027CC2F30262344B196801FA02F222FA57
:1027E0000CF2236AC3F302639940D9402F4B9A42FB
:1027F00055D902F5742202F23F2204F1467404F521
:10280000FF348334A4FB0232920C01F5742303F2EB
:102810003F23A4FB03139B0C02F5F0522449A1F8BB
:10282000E42043F6B85103FB01F1224AA2FB014127
:102830008908816040F6D86103FB01F1A2FB0141E8
:102840008908C1605900A2FB014189080161542136
:1028500003FB01F1A2FB014189084161164903FB19
:1028600001F1A2FB01418908816144F2506103FB3F
:1028700001F1A2FB014189084162104903FB01F10A
:10288000A2FB0141890801620D4901FB03F3A2FB90
:1028900003239B08C36100205DF8044B70474FF48D
:1028A000FB70F9E700E00140E4290020FF083D004B
:1028B00000E07F40ABAAAAAA38AF040080DE0F0078
:1028C000A0F7030008B5FFF779FF08BD10B582B087
:1028D00004460A46C36BA3B193E803000DF1080C4C
:1028E0000CE903001A70226C5A60A26B18469047DC
:1028F000E36B23B102AA12E9030083E8030002B0EC
:1029000010BD6B46EEE7FFFF2DE9F0410446416044
:102910000B785BB92F4B00221A761A752046FFF709
:102920004DFF08B92C4B2360BDE8F0814B688363F1
:10293000CB6803640026C663DFF898E001228EF8B6
:10294000182091F91130087C0001C0B2234DEF1816
:1029500087F80003DFF88CC04CF82340204803F1CF
:10296000C00750F8278066F3104840F8278050F8D9
:102970002770BFF35F8F03F01F075B0902FA07F7A9
:1029800003F1600845F8287045F8237098238EF805
:10299000143091F91330897C0901C9B2EF1887F816
:1029A00000134CF8234003F1C00150F8217066F386
:1029B000104740F8217050F82110BFF35F8F03F0EB
:1029C0001F015B098A4003F1600145F8212045F8A9
:1029D0002320A3E700E07F404E45504F00E100E098
:1029E000006000405C28002030B482B04FF4964371
:1029F000019343681A782AB9274B4AF68022A3F834
:102A0000842039E093F91130244A03F1C00152F8CF
:102A100021406FF3104442F8214052F82110BFF3D7
:102A20005F8F03F01F055B09012101FA05F51C4CBE
:102A300003F1600C44F82C5044F82350436893F998
:102A4000133003F1C00052F820506FF3104542F8E4
:102A5000205052F82020BFF35F8F03F01F025B0964
:102A600001FA02F203F1600144F8212044F8232026
:102A7000C2E7019B013B0193074BB3F884309BB243
:102A8000802B05D0019B002BF3D14FF4FA7000E0AE
:102A9000002002B030BC704700E07F400060004082
:102AA00000E100E008B501F0DBF908BD70B50546AE
:102AB000FFF79AFFE0B96B681B78D3B1012385F863
:102AC0003430064632460421284601F099F96B68F5
:102AD0001B786BB918224FF4805101F0A1F904461C
:102AE0002B6B0BB10028EDD001F0B2F904B12046F8
:102AF00070BDEE68E6E7FFFF70B5054681620263D0
:102B0000FFF772FF18BB06466B681B78EBB1022318
:102B100085F834300F4B0122A3F8E02032464021E3
:102B2000284601F08DF96B681B786BB919224FF4B8
:102B3000005101F075F904462B6B0BB10028EDD064
:102B400001F086F904B1204670BD6E6AE2E74FF4E9
:102B5000FA70F9E700E07F40F8B507460C461646E4
:102B60001D46FFF741FFD0B91D4B002283F8D0204E
:102B70001C633444013C5C63A3F5F03371221A708A
:102B8000D0221A707B681B7823B97969B20802FBDE
:102B9000011206E0032387F8343002232B70F8BDBE
:102BA000013A0F49D1F8801011F4004F02D1002AE8
:102BB000F6D114204FF4FC72002101F031F90446E3
:102BC000074B93F8D430DBB2012B07D000232B70D6
:102BD00001F03EF9002CE2D02046E0E72B70F7E749
:102BE00000E07F40B1F1006F15D24FF0000C80F88B
:102BF00034C083F800C0604690420AD211F800C089
:102C0000BCF1FF0F01D10130F6E701221A7000205C
:102C100070470020704708B5FFF79EFF08BD08B554
:102C20005B0803638162C262002380F83430B2F132
:102C3000006F02D201F01CF908BDFFF737FFFBE778
:102C400008B5002380F83430B1F1006F0ED2B1F531
:102C5000803F06D221F4FF5121F01F0101F0E8F876
:102C600008BD21F4FF4121F07F01F7E721F03F018A
:102C7000FFF742FFF4E708B501F0CAF808BDFFFF0F
:102C800070B5EFF30383C3F30803103B5CB2184B3A
:102C900053F82450174A137CD2F8802013F0080F01
:102CA0000BD1D9B211F0800F1BD111F0100F1AD037
:102CB00012F4405F19D0072600E00426284601F0F0
:102CC000CFF80D4A04F1C00352F823106FF31041FE
:102CD00042F8231052F8233031462846FFF7F6FD1C
:102CE00070BD0526EAE70726E8E70626E6E700BF07
:102CF0005C28002000E07F400060004038B5EFF322
:102D00000383C3F30803103B5BB21F4A52F823400E
:102D10001E4AC03352F823106FF3104142F82310BB
:102D200052F8233094F83450012D12D0022D1ED0C9
:102D3000174B93F8D430DBB2012B22D0022501F0DF
:102D400087F8002384F8343029462046FFF7BEFD7B
:102D500038BD236B002BF2D000220421204601F065
:102D60004FF80028F4D0204601F07AF8F0E7236B02
:102D70000BB90025E3E700224021204601F060F86E
:102D8000E6E70325DBE700BF5C2800200060004089
:102D900000E07F4030B40346002098601A6892F942
:102DA000152002F01F055109012202FA05F51E4CFB
:102DB000203144F82150BFF34F8FBFF36F8F196854
:102DC00091F9161001F01F05490902FA05F52031A5
:102DD00044F82150BFF34F8FBFF36F8F196891F9FB
:102DE000171001F01F05490902FA05F5203144F8D2
:102DF0002150BFF34F8FBFF36F8F596881F84C0894
:102E0000C1F82C04EFF3108582F3108807494C6851
:102E10001B681B68C3F102039A4022434A604B6857
:102E200085F3108830BC704700E100E000400840A6
:102E3000062070474268B2F842389BB20B6092F8A5
:102E40004E384B7392F84F380B7392F8503803F0AA
:102E50007F030B6183F07F0382F8503800207047B6
:102E6000C1614262036200207047FFFF037B5BB1D8
:102E7000022B06D0022B12D00023106820F06040F5
:102E800007E010790028F5D11068094B03EA80406B
:102E90000023527943EA827303430B60704713792E
:102EA000012B01D00023E8E74FF00043E5E700BF26
:102EB0000000FC1FF8B503461746026810695E68FB
:102EC000731893F82038DB091FD10D4601F1200358
:102ED00006EB03143A462146FFF7C8FFBA79A388E8
:102EE00062F30303A380B879A31D07F10C0204E089
:102EF00012F8010B03F8010B0846411E0028F7D118
:102F00003544802385F82038F8BD4EF66320FBE772
:102F100070B58AB005468C46066A6EB3EE463446F6
:102F20000FCCAEE80F000FCCAEE80F0094E8030022
:102F30008EE80300B646BCE80F00AEE80F00BCE820
:102F40000F00AEE80F009CE803008EE80300EB6979
:102F5000304698472B6A6BB19C46EE46BEE80F00A0
:102F6000ACE80F00BEE80F00ACE80F009EE80300DD
:102F70008CE803000AB070BD0E46E8E74268B2F87C
:102F800040386FF38A23A2F84038B2F8403861F332
:102F90000923A2F84038B2F8423803F4E063B3EBF7
:102FA000012FF8D17047F8B504460D464768437BBA
:102FB00093420AD1237BAB4206D0052D0FD0294680
:102FC0002046FFF7DBFF2573F8BD16460221FFF709
:102FD000D5FF87F85868667302232373EAE7022156
:102FE0002046FFF7CBFFB7F8403843F48063A7F8DB
:102FF0004038B7F8423813F4806FFAD0E3E708B5E9
:10300000FFF7D1FF002008BD2DE9F04107468846B3
:103010000D690E6806F58026A83636034660EFF384
:10302000108C012181F31088864A5468D8F800304A
:10303000C3F1020301FA03F324EA03035360536864
:103040008CF31088C0F80080D8F80830C361D8F835
:103050000C304362002404622B7803762246FFF78B
:10306000A2FF2A7B2B7DDB0043EA420343F4E0739B
:10307000A6F84038D8F804201368591E724B03EAAA
:1030800001435168013943EA01739168013943EA08
:103090000123D268013A43EA02333A7E1343C6F869
:1030A0004438224602213846FFF77DFF802386F808
:1030B00050384FF400722146B01800F058FE04E07A
:1030C0000023321982F8203801341F2C11D8AA6845
:1030D00002EBC4029379002BF2D12969A142F0D905
:1030E00004F1200106EB01112846FFF7BFFE402343
:1030F000E7E70023184608E003F5807146F8212031
:1031000099000F228A40104301332A69B3EB920FD2
:103110000DD26A6852F823206FF060418A42F3D2E0
:10312000297B0029E8D1494901EA8242E4E7C0430A
:10313000C6F82804002211463846FFF734FFB6F8D7
:10314000403843F02003A6F84038B6F8403813F072
:10315000200FFAD198F9151098F814201201D2B264
:103160003B4B581880F800233A4D45F821703A4AF5
:1031700001F1C00052F820406FF3104442F82040A3
:1031800052F82000BFF35F8F01F01F0449090120AE
:1031900000FA04F401F1600C43F82C4043F821409C
:1031A00098F9161098F814402401E4B203EB010CCE
:1031B0008CF8004345F8217001F1C00452F824C096
:1031C0006FF3104C42F824C052F82440BFF35F8FD5
:1031D00001F01F04490900FA04F401F1600C43F8FE
:1031E0002C4043F8214098F9171098F81440240116
:1031F000E4B203EB010C8CF8004345F8217001F1B7
:10320000C00452F824506FF3104542F8245052F88D
:103210002420BFF35F8F01F01F024909904001F1A4
:10322000600243F8220043F821003E2386F84C3820
:103230004FF0FF33C6F82C34084BBB600020BDE8CC
:10324000F08100BF004008400000FF030000FC1FA9
:1032500000E100E05C280020006000404E41435245
:1032600030B58BB0EFF30383C3F30803103B5BB2BD
:103270002F4AC03352F823106FF3104142F8231045
:1032800052F82330EFF30383C3F30803103B5BB220
:10329000284A52F8235028220021684600F067FD92
:1032A0006C6894F84D38ADF80430002284F84D284D
:1032B000B4F8422812F0100F38D043F02003ADF8D4
:1032C000043094F85328D2B2022384F8533894F887
:1032D000523803F01F0384F85328E11891F820288E
:1032E0006FF3820281F820282A68126800926A6AC5
:1032F0000492039369462846FFF70AFE2B68196972
:10330000B4F8422812F0100F0ED00A7D62B193F982
:103310001530002B08DB03F01F015B0901228A40F6
:103320004033054941F823200BB030BD0023DBE7D3
:10333000006000405C28002000E100E0F0B58BB0A8
:10334000EFF30383C3F30803103B5BB2424AC0337D
:1033500052F823106FF3104142F8231052F8233033
:10336000EFF30384C4F30804103CE6B264B23B4BB1
:1033700053F824004FF48063ADF80430456895F8A5
:103380005338DBB2002285F8532895F8527807F0BD
:103390001F0785F85338D0F804C007F12001090150
:1033A0005CF80120C2F380738DF8193003681B6943
:1033B0001B7B5CF8011043EAD17303F001038DF825
:1033C0001830A3B9C2F38A42059207F120030CEB2F
:1033D00003139B88C3F3030203F00F038DF81A2035
:1033E000082B02D908238DF81A3000230EE022F0B2
:1033F00060420592E9E70CEB07121A4492F80612B4
:1034000003F128026A4402F8081C01339DF81A20CF
:103410009342F0D3BC4444238CF820380023079314
:10342000039703681B680093436A04936946FFF798
:103430006FFDB5F8423813F0010F0BD0002C09DBFB
:1034400006F01F066409012303FA06F64034044B14
:1034500043F824600BB0F0BD006000405C28002001
:1034600000E100E030B58BB0EFF30383C3F3080352
:10347000103B5BB2254AC03352F823106FF3104162
:1034800042F8231052F82330EFF30383C3F3080309
:10349000103B5BB21E4A52F823500022ADF80420C4
:1034A0006C6894F85318C9B2012384F8533894F81F
:1034B000523803F01F0384F85318E11881F82028CC
:1034C00081F8202803934FF40063ADF804302B6893
:1034D0001B6800936B6A049369462846FFF718FD42
:1034E000B4F8423813F0020F0DD02B6893F917305F
:1034F000002B08DB03F01F015B0901228A404033E7
:10350000044941F823200BB030BD00BF00600040EB
:103510005C28002000E100E0C3688268013B9BB2A8
:1035200013808368F1221A72002070478368F022AA
:103530001A72002070470620704701618261436162
:103540000020704781680A7A02F001020B7AC3F307
:1035500040039A42FAD10020704710B50446FFF7A5
:10356000F1FF10B9A368F0221A7210BD10B504461D
:10357000FFF7E8FF20B9E368A268013B9BB2138024
:1035800010BD38B505460C46FFF7DCFF40B9AB6807
:103590001B7AC3F340032371AB681B889BB2236083
:1035A00038BDFFFF10B50446FFF7CCFF68B9A3682C
:1035B000F4221A72A36800221A73636893F9123016
:1035C00013F1210F02D10023236010BD93420CDBC5
:1035D00003F01F015B0901228A402033064941F8AC
:1035E0002320BFF34F8FBFF36F8F636893F91220CF
:1035F000024B43F82240E6E700E100E05C280020AF
:1036000010B5CA691478234692F804E092F803C012
:103610000CF0070C34B90A7AB2B182F002031B0134
:10362000002202E0502C11D00A7A43EA0C03816890
:1036300081F80CE0816800248C738168DBB24B72E6
:103640008168D3B28B7210BD0022EEE70022ECE756
:10365000C16043681A7C044B43F8221089B20139D7
:1036600089B28368198070470028002070B504462D
:103670000D460B7C03F5800303F568631B02836032
:103680004160EFF3108C012383F310880B7C032B34
:1036900030D82F480168032B2ED8C3F10302012331
:1036A0009340DB430B4003602B7C032B2AD8284B31
:1036B0001B688CF31088A36800221A72A3681A7A18
:1036C00012F0020FFAD100229A7229462046FFF723
:1036D00097FF69682046FFF7BBFF95F91230002B72
:1036E00012DA6B692361AB69A36100206061194B39
:1036F000236070BD1848CDE7C3F113020123934046
:10370000DB43CFE7144BD3E76A7C1201D2B21349F3
:10371000C81880F80023124A42F82340114A03F1E6
:10372000C00052F820606FF3104642F8206052F853
:103730002020BFF35F8F03F01F005B09012282404E
:1037400003F1600041F8202041F82320C9E700BFC1
:103750000C400840544741001040084000E100E0A0
:103760005C2800200060004038B50446FFF7EAFE00
:10377000054630B963681B78012B04D0A368F12299
:103780001A72284638BDE1682046FFF761FFF5E769
:1037900070B504460D46FFF7D5FE064608B1304623
:1037A00070BD29462046FFF753FFF8E7437AC3F37D
:1037B0000213194633F003020ED10B4A106AC0F30C
:1037C000022CC0F30260094A1268824022FA0CF00F
:1037D0003BB183F0020104E0817A01F007014FF46C
:1037E0000040C840704700BF00E00140E4290020CD
:1037F00070B504460D46FFF7A5FE064618BBE36804
:10380000AB606368DA691278502A16D1A068A0F517
:1038100080701B7C013B0D4A52F823300BB96B6062
:103820000FE0FFF7C3FF63681B7C013B074A52F8B8
:103830002330B0FBF3F0686003E0A068FFF7B6FF49
:10384000686000232B70304670BD00BF0028002048
:1038500030B585B0EFF30383C3F30803103B5BB2CD
:10386000214A03F1C00152F821006FF3104042F8E1
:10387000210052F821201D4A52F82340A1680A7AFB
:10388000D2B2134660680078012823D02269DAB1E9
:10389000656935B395E807000DF1100C0CE90700D8
:1038A00013F0200F01D000232B71A3692B60236933
:1038B00028469847636923B104AA12E9070083E800
:1038C0000700A3681B7ADBB2A26803F00F03137230
:1038D00005B030BDF4230B7202F0F003A26813723E
:1038E000D4E701ADDCE700BF006000405C280020A9
:1038F000064A92F82610064B53F82130126AC2F39A
:103900000262D340034A1360704700BF00E00140E9
:10391000CC0E0020E429002008B5084B084A1A60A4
:10392000084A5A604FF400429A600749D9601A6108
:10393000064A5A61FFF7DCFF08BD00BFCC0E00202D
:10394000002D310100127A00001BB70000E1F505DF
:1039500008B50A4B012283F81C2103F50053084ADD
:103960001A62052283F82620FFF7C2FF054BF122D9
:103970001A7300221A72F0221A7308BD00C00140A7
:10398000100101100020004008B5264B4AF20352F6
:10399000A3F8FE23A3F500530122A3F80421224B30
:1039A000B3F804319BB2002BF9D11F4B0122A3F8CD
:1039B0000021FFF7B1FF1B4B202283F813240922BB
:1039C00083F8A22093F8803413B3164B002283F8B7
:1039D000812483F8802483F83220124B93F83C3002
:1039E00013F0080FF9D00F4B43F202121A85002290
:1039F00083F82A200B4B93F83C3013F0200FF9D0BA
:103A0000FFF7A6FF074B4FF42542A3F8FE2308BD9E
:103A10000121044B83F8801440F2C44000F00CF8FC
:103A2000D3E700BF00E0014000C001407047A0F1B3
:103A300001000028FBD1704708B500FB01F1214BC4
:103A40001B682148B0FBF3F0CA0E4B015B1A62F110
:103A50000002920042EA93729B005B1842F100025E
:103A6000D20042EA5372DB004FF0FF3C9C454FF01E
:103A7000000C7CEB020206D3B3FBF0F3980808B10C
:103A8000FFF7D5FF08BD8000B1FBF0F1CB0E480178
:103A9000401A63F100039B0043EA907380004018D2
:103AA00043F10003DB0043EA5073C0004FF0FF32E4
:103AB00082424FF0000272EB0303E0D24FF0FF307E
:103AC000DEE700BFE429002000CA9A3B08B5034B9B
:103AD00053F8203003B1984708BD00BF18280020D4
:103AE00038B50B4BB3F84051ADB2002401E00134BE
:103AF000E4B20F2C08D825FA04F313F0010FF6D026
:103B00002046FFF7E3FFF2E7014BA3F8305138BD41
:103B10000060004000B585B0032000F087F8244B1A
:103B20006FF0FF029A644FF0FF3301930293039307
:103B3000002300E001335F2B14D81E4A32F8132013
:103B4000002AF7D05A0903F01F00012101FA00F002
:103B500004A901EB820252F80C1C21EA000142F890
:103B60000C1CE7E700230DE004AA02EB830252F8E5
:103B70000C2C114941F8232003F1A0000F4941F812
:103B800020200133022BEFD9032000F01BF8002383
:103B900008E0084A32F8130003F1C001084A42F86D
:103BA000210001335F2BF4D905B05DF804FB00BFA1
:103BB00000800040EC3F00007080004000E100E029
:103BC00000600040EFF31082012383F31088144B50
:103BD00033F810309BB23BB1114931F810309BB231
:103BE000013B9BB221F810300D4B33F810309BB2E3
:103BF00093B910B40B49B1F8FE339BB20A4C34F8B8
:103C0000100043F4254323EA0003A1F8FE3382F3B6
:103C100010885DF8044B704782F31088704700BF2E
:103C2000DC29002000E00140B041000010B4EFF3B7
:103C30001081012383F310880F4B33F810309BB2AF
:103C400063B90E4AB2F8FE339BB20D4C34F810C083
:103C500043EA0C0343F42543A2F8FE33064A32F844
:103C600010309BB201339BB222F8103081F31088E0
:103C70005DF8044B704700BFDC29002000E00140E4
:103C8000B041000000BE704708B500F003F8FEF731
:103C900089FBFEE738B5254B4FF47002C3F8882046
:103CA000234C9C600020FEF76FFBFFF76DFE0120A8
:103CB000FEF76AFB2368A3F5806383F30A881D4837
:103CC0001D4A121A002100F052F81C481C4A121A10
:103CD0001C4900F03FF81C4D1C4BED1AAD100024A0
:103CE00004E01A4B53F8243098470134AC42F8DB17
:103CF000FFF7FEFD0320FFF799FF002307E003F124
:103D00000801134A4FF6FF7022F811000133082B07
:103D1000F5D90320FFF756FF0220FEF735FBFFF72A
:103D2000F9FE0020FFF782FE38BD00BF00ED00E085
:103D300000000000E80E0020E8290020000000201C
:103D4000CC0E0020BC410000C80E0020C40E002094
:103D5000000D08400A44431E914200D1704710B53F
:103D600011F8014B914203F8014FF9D110BD024403
:103D70000346934200D1704703F8011BF9E710F89E
:103D8000012B11F8013B012A28BF9A42F7D0D01A23
:103D90007047FFFF4275696C742077697468205220
:103DA000656E6573617320416476616E636564203E
:103DB000466C657869626C6520536F6674776172D2
:103DC00065205061636B6167652076657273696F0A
:103DD0006E20342E322E3000342E322E3000000071
:103DE00000000204F8B500BFF8BC08BC9E4670474E
:103DF000F8B500BFF8BC08BC9E467047FFFFFFFF48
:103E000001B40248844601BC604700BFC9010020DC
:103E100001B40248844601BC604700BFF50400209D
:103E200001B40248844601BC604700BF99020020EB
:103E300001B40248844601BC604700BF4B04002027
:103E400001B40248844601BC604700BF7D010020E8
:103E500001B40248844601BC604700BF0100002055
:103E600001B40248844601BC604700BFFD00002049
:103E700001B40248844601BC604700BF150400201D
:103E8000202700208C3F0000AC40000028270020A5
:103E9000983E00006441000000000000E40D002096
:103EA0002D1B000000000000B03E000002000102D7
:103EB0000000000050270020F40D0020000000004A
:103EC00018000000000000000000000000000000DA
:103ED00068270020DC3E00002841000001000000AF
:103EE000B51A0000000000000000000001050106F6
:103EF000AC270020FC3E00008041000000000000D4
:103F000050C3000000000000A8610000000307008B
:103F100079170000000000001C3F000000000001B5
:103F2000000000FFC8270020303F00008041000053
:103F30000000000050C3000000000000A861000065
:103F4000010408008D17000000000000503F000031
:103F500000000001000000FFE4270020643F000093
:103F6000804100000000000050C30000000000007D
:103F7000A861000002050900A11700000000000070
:103F8000843F000000000001000000FF0B00000063
:103F9000943F000004000000020000000400000044
:103FA0000D000000040000000E00000004000000EE
:103FB0000F000000000001100201000000000110CD
:103FC00003010000000001000801000004000000DF
:103FD00001020000040000000602000000000100D1
:103FE000000300000400000002030000A100A40080
:103FF000A500A200A30031003000400043004600AD
:1040000000000000000000000000000000000000B0
:1040100000000000000000000000000000000000A0
:104020000000000000000000000000000000000090
:104030000000000000000000000000000000000080
:104040000000000000000000000000000000000070
:104050000000000000000000000000000000000060
:104060000000000000000000000000000000000050
:104070000000000000000000000000000000000040
:104080000000000000000000000000000000000030
:104090000000000000000000000000000000000020
:1040A0000000000000000000000000005D2600008D
:1040B000AF230000712600007D2600006924000067
:1040C000EB240000B9230000072400002F24000087
:1040D0005124000095240000D5230000E9230000AE
:1040E000020403040404FFFF00000000FFFF0000BF
:1040F000002000008000000000000100FFFF05001C
:10410000008000008000000000000008FF1F000881
:10411000400000000400000002000000E840000031
:104120000100000008410000092900001F2C0000C8
:10413000412C0000E52B0000292700004D2700003E
:10414000FD2600001D270000212700001927000080
:10415000A52A0000C5280000772C000025270000B4
:10416000B127000009300000B52E0000312E0000FC
:10417000952D0000FF2F0000352E0000612E00005D
:104180006D360000693700005B3500006D350000BA
:10419000193500002D35000091370000373500003B
:1041A000F1370000833500003B350000A5350000E5
:0C41B000010002000800100000000000E8
:1041BC00164BB3F8841089B24FF42A42A3F884202A
:1041CC004FF49642002000E0013A104BB3F88430D3
:1041DC009BB223B1002AF7D14FF4FA70F4E701290E
:1041EC0000D07047094B4DF60112A3F84420084B40
:1041FC000122A3F80421064BB3F804319BB2002B27
:10420C00F9D1034B0122A3F80021EAE700E07F403B
:10421C0000C0014082B04FF4964301930E4BB32281
:10422C001A7002E0019B013B01930C4BD3F88030D8
:10423C0013F4004F05D1019B002BF3D1142002B0D5
:10424C007047064B1B7C13F0100F01D10020F6E7D2
:10425C0040F2F510F3E700BF00007E4000E07F4025
:10426C0082B04FF4964301930E4B50221A7002E029
:10427C00019B013B01930C4BD3F8803013F4004F9E
:10428C0005D1019B002BF3D1142002B07047064BD3
:10429C001B7C13F0100F01D10020F6E740F2F51053
:1042AC00F3E700BF00007E4000E07F4070B504469D
:1042BC0043681A78EAB193F9113003F01F015B09D6
:1042CC00012202FA01F11748203340F82310BFF302
:1042DC004F8FBFF36F8F636893F9133003F01F0197
:1042EC005B098A40203340F82320BFF34F8FBFF384
:1042FC006F8F0D4BB3F884309BB27BB1FFF78AFF05
:10430C000646FFF7ADFF054606B13546FFF750FFF1
:10431C0005B12846002384F8343070BD204600F0E7
:10432C0027FAEBE700E100E000E07F4010B4846A7C
:10433C000F4B1C630F4C20232370D0232370836AF4
:10434C000B448362036B013B036310461AB95DF89F
:10435C00044B70470138064BD3F8803013F4004FF0
:10436C0003D10028F6D11420F1E70020EFE700BFBD
:10437C0000E07F4000007E4030B482B014467AB931
:10438C00436893F9113003F01F055B090122AA4021
:10439C0020332A4D45F82320BFF34F8FBFF36F8F87
:1043AC00C26A274B1A63A3F5F033E8221A704FEA5E
:1043BC00510CC1F34701197000218C451FD90369B9
:1043CC000193836A1A881F4B1A801D4BD3F88030D7
:1043DC0013F4806F08D0019B5A1E0192002BF4D16C
:1043EC00142002B030BC7047836A02338362C36A04
:1043FC000233C362036B013B03630131DDE7114BF5
:10440C00D0221A7064B9436893F9113003F01F017C
:10441C005B0901228A40094941F823202046E0E744
:10442C00074BD3F8803013F4004F04D10CB1013C8E
:10443C00F6E71420D5E70020D3E700BF00E100E049
:10444C0000E07F4000007E4010B50446114B1B7C01
:10445C0013F0100F0BD100200E4BD3F880300B4211
:10446C0000D1024604B914468CB9204610BD094B44
:10447C00D3F8803013F4804F02D140F2F510EBE703
:10448C00044B187C0020187440F2F510E4E7FFF799
:10449C00C1FEEAE700E07F4082B083690193134BD1
:1044AC001963A3F5F03340221A7008221A70002306
:1044BC0005E00F4A32F813100E4A11800133072B16
:1044CC00F7D90C4BD0221A7002E0019B013B0193EF
:1044DC00064BD3F8803013F4004F04D1019B002B12
:1044EC00F3D1142000E0002002B0704700E07F40C0
:1044FC00B40E002000007E400D4B4FF6FF7CA3F85D
:10450C0000C0A3F802C0C00380B2104380B240F4D4
:10451C00F040D8806FEA41516FEA51519980A3F86D
:10452C0008C0A3F80AC0A3F80CC0A3F80EC07047CB
:10453C00B40E002010B483B04FF49643019343683B
:10454C001A78EAB193F9113003F01F015B090122CB
:10455C0002FA01F1194C203344F82310BFF34F8FAA
:10456C00BFF36F8F436893F9133003F01F015B099E
:10457C008A40203344F82320BFF34F8FBFF36F8F53
:10458C000F4B4FF45942A3F844204AF60122A3F8EA
:10459C00842002E0019B013B0193094BB3F884306A
:1045AC009BB2012B05D0019B002BF3D14FF4FA7079
:1045BC0000E0002003B05DF8044B704700E100E020
:1045CC0000E07F4038B50546FFF7B4FF044690B9CC
:1045DC002B6B63B15CB9AA6880212846FFF7CCFE2F
:1045EC0018224FF4A041FFF72FFF0446F0E7FFF726
:1045FC00DFFD04B90446204638BD38B50446816257
:10460C000263FFF797FF0546F8B9114B0122A3F897
:10461C00E0200BE0226A4FF400412046FFF786FEB3
:10462C0019224FF4C041FFF70FFF0546236B43B12E
:10463C003DB9A36AB3F5803FECD2E2694FF4005167
:10464C00EBE7FFF7B5FD05B90546284638BD00BFB9
:10465C0000E07F40F8B504460E4617460F4BD3F8E2
:10466C00DC50FFF767FF034608B11846F8BDED0FA5
:10467C007A0B710B2846FFF73FFF09492046FFF7DD
:10468C000BFF18220021FFF7DFFE0446FFF790FD19
:10469C000346002CE9D02346E7E700BF00E07F404B
:1046AC0030A1000170B506460C461546FFF742FFD7
:1046BC0050B955B144F4CC41114BA3F8E810044661
:1046CC00FFF776FD04B1204670BD0E4B4FF0FF3264
:1046DC001A605A609A60DA6014F0010F0DD14FF62F
:1046EC00FF72084BDA8008493046FFF7D5FE1822D6
:1046FC000021FFF7A9FE0446E2E747F6FF72F0E758
:10470C0000E07F40B40E002030A1000170B50646D9
:10471C000D461446FFF70EFF034638B1184670BD20
:10472C0055F82310114A42F823100133032B07D8F4
:10473C00002CF5D10D4A4FF0FF3142F82310F4E76D
:10474C001CB10A4BDA891443DC814AF25011304611
:10475C00FFF7A2FE18220021FFF776FE0446FFF7B2
:10476C0027FD0346002CD9D02346D7E7B40E0020F2
:10477C0001B40248844601BC604700BFE92900002F
:10478C009F0200006D61705F6661696C040F002010
:10479C00E405002000002110422063308440A55025
:1047AC00C660E770088129914AA16BB18CC1ADD16B
:1047BC00CEE1EFF13112100273325222B552944213
:1047CC00F772D662399318837BB35AA3BDD39CC3BB
:1047DC00FFF3DEE36224433420040114E664C7745F
:1047EC00A44485546AA54BB528850995EEE5CFF50B
:1047FC00ACC58DD55336722611163006D776F666B3
:10480C009556B4465BB77AA719973887DFF7FEE75A
:10481C009DD7BCC7C448E5588668A778400861187E
:10482C0002282338CCC9EDD98EE9AFF948896999AA
:10483C000AA92BB9F55AD44AB77A966A711A500A52
:10484C00333A122AFDDBDCCBBFFB9EEB799B588BFA
:10485C003BBB1AABA66C877CE44CC55C222C033C9E
:10486C00600C411CAEED8FFDECCDCDDD2AAD0BBD4A
:10487C00688D499D977EB66ED55EF44E133E322EF2
:10488C00511E700E9FFFBEEFDDDFFCCF1BBF3AAF9A
:10489C00599F788F8891A981CAB1EBA10CD12DC1F8
:1048AC004EF16FE18010A100C230E320045025408E
:1048BC0046706760B9839893FBA3DAB33DC31CD3EE
:1048CC007FE35EF3B1029012F322D23235421452DE
:1048DC0077625672EAB5CBA5A89589856EF54FE53A
:1048EC002CD50DC5E234C324A0148104667447642E
:1048FC0024540544DBA7FAB79987B8975FE77EF78E
:10490C001DC73CD7D326F2369106B016576676767D
:10491C00154634564CD96DC90EF92FE9C899E98959
:10492C008AB9ABA94458654806782768C018E108CD
:10493C008238A3287DCB5CDB3FEB1EFBF98BD89B2D
:10494C00BBAB9ABB754A545A376A167AF10AD01A1D
:10495C00B32A923A2EFD0FED6CDD4DCDAABD8BAD79
:10496C00E89DC98D267C076C645C454CA23C832C6D
:10497C00E01CC10C1FEF3EFF5DCF7CDF9BAFBABFCD
:10498C00D98FF89F176E367E554E745E932EB23EBD
:10499C00D10EF01E53454C45585F424F4F54315F7A
:1049AC00504D550000000000800000800000000009
:1049BC0001000100E40700200000000002000100DB
:1049CC0000000000000000008100008000000000DA
:1049DC0000000800000000000000000000000000C3
:1049EC0000000000000000000000000000000000BB
:1049FC0000000000000000000000000001000100A9
:104A0C0001000100E80300000000000000000000AD
:104A1C00000000800000000000000000000000000A
:104A2C0000000000000000800000000000000000FA
:104A3C0000000000000000000000008000000000EA
:104A4C0000000000000000000000000000000080DA
:104A5C00000000000000000000000000000000004A
:104A6C00000000000000000000000000000000003A
:104A7C00000000000000000000000000000000002A
:104A8C00000000000000000000000000000000001A
:104A9C00000000000000000000000000000000000A
:104AAC0000000000000000000000000000000000FA
:104ABC0000000000000000000000000000000000EA
:104ACC0000000000000000000000000000000000DA
:104ADC0000000000000000000000000000000000CA
:104AEC0000000000000000000000000000000000BA
:104AFC008101004000000000FFFFE80310270000C8
:104B0C0000000000810200C0000000000000E8036B
:104B1C001027000000000000810300C0000000000E
:104B2C000000E8031027000000000000810400C012
:104B3C00000000000000E803102700000000000047
:104B4C000000000000000000000000000000000059
:104B5C000000000000000000000000000000000049
:104B6C000000000000000000000000000000000039
:104B7C000000000000000000000000000000000029
:104B8C000000000000000000000000000000000019
:104B9C000000000000000000000000000000000009
:104BAC0000000000000000000000000000000000F9
:104BBC0000000000000000000000000000000000E9
:104BCC0000000000000000000000000000000000D9
:104BDC00A622002003000300600C00209C22002071
:104BEC000300040000000000A422002003000200C7
:104BFC00580C0020DC220020030004000000000000
:104C0C00E822002003000004500D0020E4220020C4
:104C1C0003000200480D0020902200200300010038
:104C2C000000000000000000000001000000000077
:104C3C00000000000000010000000000992200208C
:104C4C00030001000000000019000000A00A002071
:104C5C0000100100C80B0020011001004C0C0020BA
:104C6C0002100100580D002003100900E00B002079
:104C7C00051001007C0D002006100100680B0020BF
:104C8C0007100100940D002008100100BC0B00203F
:104C9C00091001009C0C00200A100100640D00207A
:104CAC000C100100840C00200D100100F00C0020F1
:104CBC0012100100A00D002013100100900C002018
:104CCC0014100100D40B002016100600740B0020E9
:104CDC0017100100000D002018100400A80C002073
:104CEC0019100100880D002030100100700D0020FB
:104CFC0031100300240D0020321002000C0D002096
:104D0C0001200A00200A002001230200D80C0020F8
:104D1C0000500100680C0020000800200300020075
:104D2C00000000002208002001000100000000002B
:104D3C0024080020030004000000000028080020C4
:104D4C0003000400000000002C08002003000400F5
:104D5C0000000000300800200300040000000000E8
:104D6C0034080020030004000000000004080020A8
:104D7C000100100000000000F407002001000400F6
:104D8C0000000000180800200300040000000000D0
:104D9C0064220020010001000000000068220020B5
:104DAC0001000400000000006C220020010004003F
:104DBC000000000070220020010004000000000030
:104DCC007422002001000400000000007822002062
:104DDC0001000400000000007C22002001000400FF
:104DEC0000000000802200200100040000000000F0
:104DFC00842200200100040000000000602200203A
:104E0C000100010000000000A42200206D1E000023
:104E1C00A6220020391E0000740C00200100100096
:104E2C000000000053454C45585F504D555F424FB4
:104E3C004F54310010080020030002000000000055
:104E4C006C1F002003000400000000000808002074
:104E5C0001000400000000003C08002003000400D6
:104E6C0000000000400800200100040000000000C9
:104E7C004408002001000400000000004808002045
:104E8C000100040000000000000000000000000011
:104E9C0000000000800000080100800000000000FD
:104EAC00120800200300010000000000980A0020F6
:104EBC003808002003000200000000005808002001
:104ECC0003000200000000005C0800200300040046
:104EDC00000000005008002003000100000000004A
:104EEC0052080020030002000000000054080020BB
:104EFC000300020000000000E4220020491E000014
:104F0C00E8220020251E0000641F00200100040080
:104F1C00000000000C08002001000400000000004C
:104F2C004E0800200300010000000000F8070020DC
:104F3C0003000400000000004C08002003000200E5
:104F4C000000000002080020030002000000000026
:104F5C00140800200300040000000000851E00005F
:104F6C00871E0000891E00008B1E000069210000B6
:104F7C0061210000432100004520000011210000A8
:104F8C00472000004920000081200000792000000B
:104F9C006D200000050000000E0000000500000060
:104FAC0004000000000000000000000001000000F0
:104FBC0000000000020000000000000003000000E0
:104FCC0000000000040000000000000005000000CC
:104FDC0000000000060000000000000007000000B8
:104FEC0000000000080000000000000009000000A4
:104FFC00000000000A000000000000000B00000090
:10500C00000000000C000000000000000D0000007B
:10501C00000000000E000000000000000F00000067
:10502C000000000010000000000000001100000053
:10503C00000000001200000000000000130000003F
:10504C00000000001400000000000000150000002B
:10505C000000000016000000000000001700000017
:10506C0000000000FFFF0000000000000000000036
:0C507C00000000002502000001020000FE
:0400000300003C8934
:00000001FF
