:020000021000EC
:10000000283F0020B5BB0100EDBF0100C3BB0100CC
:10001000C3BB0100C3BB0100C3BB0100C3BB0100E4
:10002000000000000000000000000000C3BB010051
:10003000C3BB010000000000C3BB0100C3BB010043
:1000400031D201002FD30100DFD301002FD30100F3
:10005000DFD30100C5D90100B7E80100E7E70100DF
:1000600073E90100BDE90100FFCA0100C5D9010023
:10007000C5D90100E5EA010051F40100B5F3010022
:1000800095DF0100000000000000000000000000FB
:100090000000000000000000000000000000000060
:1000A0000000000000000000000000000000000050
:1000B0000000000000000000000000000000000040
:1000C0000000000000000000000000000000000030
:1000D0000000000000000000000000000000000020
:1000E0000000000000000000000000000000000010
:1000F0000000000000000000000000000000000000
:1001000000000000000000000000000000000000EF
:1001100000000000000000000000000000000000DF
:1001200000000000000000000000000000000000CF
:1001300000000000000000000000000000000000BF
:1001400000000000000000000000000000000000AF
:10015000000000000000000000000000000000009F
:10016000000000000000000000000000000000008F
:10017000000000000000000000000000000000007F
:10018000000000000000000000000000000000006F
:10019000000000000000000000000000000000005F
:1001A000000000000000000000000000000000004F
:1001B000000000000000000000000000000000003F
:1001C000FFFFFFFFFFFFFFFFFFFFFFFFFFFFFFFF3F
:1001D000FFFFFFFFFFFFFFFFFFFFFFFFFFFFFFFF2F
:1001E000FFFFFFFFFFFFFFFFFFFFFFFFFFFFFFFF1F
:1001F000FFFFFFFFFFFFFFFFFFFFFFFFFFFFFFFF0F
:1002000010B5054C237833B9044B13B1044800E012
:1002100000BF0123237010BD381300200000000030
:100220001011020008B5034B1BB10349034800E05D
:1002300000BF08BD000000003C13002010110200A8
:1002400080B500AF0FF09EFA0FF0A4FB0FF0D8FAC4
:100250000FF0D0F90FF0ACFB00BF80BD80B487B0C9
:1002600000AFF860B9601346FB800023FB820AE010
:10027000FB8ABA681A44FB8AF9680B4412781A7030
:10028000FB8A0133FB82FA8AFB889A42F0D300BFD3
:1002900000BF1C37BD4680BC704780B485B000AF3E
:1002A00078607B681B783B727B685B787B723B89EC
:1002B00018461437BD4680BC704780B485B000AF87
:1002C00078607B681B783B727B685B787B727B68AD
:1002D0009B78BB727B68DB78FB72BB68184614376F
:1002E000BD4680BC704780B483B000AF78607B6847
:1002F00093F8613018460C37BD4680BC704780B417
:1003000083B000AF78607B68002283F8612000BF73
:100310000C37BD4680BC704780B483B000AF7860B6
:100320000B46FB707B68FA7883F8512000BF0C37CE
:10033000BD4680BC704780B582B000AF7860396040
:100340007B68D3F8303139687868984700BF083740
:10035000BD4680BD80B582B000AF78607B689B6889
:10036000002B04D07B689B687868984700E000BF4A
:100370000837BD4680BD80B582B000AF78607B682D
:10038000DB68002B04D07B68DB687868984700E066
:1003900000BF0837BD4680BD80B582B000AF786031
:1003A0000B46FB70FB7819467868FFF7B5FF00BF76
:1003B0000837BD4680BD80B483B000AF78607B68ED
:1003C00000221A6000BF0C37BD4680BC704780B564
:1003D00082B000AF78607B6808331846FFF7BAFF39
:1003E00000BF0837BD4680BD80B582B000AF7860E1
:1003F0007B6808331846FFF7BEFF00BF0837BD46CD
:1004000080BD80B483B000AF78600B46FB707B6822
:10041000FA7883F8482500BF0C37BD4680BC70478A
:1004200080B584B000AF78607B6893F8A5391A4630
:100430004D4B4E49786808F0ECFB7B6804229A60CB
:100440007B684FF4C0625A647B684FF4B0621A64F0
:100450007B68474AC3F830217B68464AC3F8342199
:100460007B68454AC3F834257B68444AC3F838257D
:100470007B68434AC3F840257B68424AC3F8442559
:100480007B68414AC3F83C25404937480FF074FA6D
:100490007B6800225A700023FB7341E07B68D3F82D
:1004A0008019FA7B13461B019B1A9B00CA18FB7B21
:1004B00012682E4941F82320FB7B2C4A52F8233046
:1004C00004229A60FB7B294A52F8233000221A60EA
:1004D000FB7B264A52F823309A68FB7B234951F86C
:1004E000233002F5B062DA600023BB730AE0FB7BC5
:1004F0001E4A52F82320BB7B134400221A74BB7B94
:100500000133BB73BB7B1F2BF1D9FB7B174A52F81E
:10051000233000211846FFF7FFFEFB7B0133FB73FE
:10052000FA7B7B685B689A42B8D300237B7310E048
:100530007B68D3F880197A7B13461B019B1A9B00BA
:100540000B441B6802211846FFF726FF7B7B013313
:100550007B737B6893F8A5397A7B9A42E8D300BF16
:1005600000BF1037BD4680BD582D00205813002015
:1005700091050100C1050100F10501006D060100B2
:100580000D0F010045070100750701001912010058
:1005900080B582B000AF78603960084BD3F880191D
:1005A0003A6813461B019B1A9B000B441846FFF741
:1005B0001BFF00BF0837BD4680BD00BF202E0020B6
:1005C00080B582B000AF78603960084BD3F88019ED
:1005D0003A6813461B019B1A9B000B441846FFF711
:1005E000F6FE00BF0837BD4680BD00BF202E0020AC
:1005F00080B584B000AFF860C7E90023F9684FF018
:1006000000024FF00003C1E90623FB6806221A74BA
:10061000154B93F84835002B0CD1F86808F058FFBB
:10062000FB68072283F86824D7E900230E4808F006
:1006300093FF14E00C4B93F84835012B04D00A4B80
:1006400093F84835022B0AD1FB685B6A03211846F0
:10065000FFF762FED7E90023F86808F047FE00BF05
:100660001037BD4680BD00BF202E002080B584B06D
:1006700000AFF860C7E90023FB685B6A00211846F9
:10068000FFF74AFE2D4B93F84835002B32D12C4B07
:100690001B780133DAB22A4B1A70294B1B78012BD5
:1006A00005D8D7E90023F86808F008FB42E0244B9E
:1006B00000221A70F86808F0EAFE03461946F86846
:1006C000FFF739FE0221F86808F0B8FE0246FB6821
:1006D0005A62FB685B6A002B06D1184804F04EFA98
:1006E000FB6806221A7425E0D7E90023F86808F0B1
:1006F000E5FA1FE0114B93F84835012B04D00F4B5E
:1007000093F84835022B15D1FB685B6A9A68FB6841
:100710009B68D31A1946F868FFF70DFED7E9002346
:10072000F86808F0E3FDFB68D3F828315A1CFB6831
:10073000C3F828211037BD4680BD00BF202E002001
:100740005413002080B485B000AFF860C7E90023DF
:10075000074B93F84935002B04D1FB680022C3F8FE
:10076000202100E000BF1437BD4680BC704700BFA9
:10077000202E002080B584B000AFF860C7E90023C8
:10078000FB685B6A03211846FFF7C6FD054805F0C4
:1007900031FC02210348FFF734FE00BF1037BD468D
:1007A00080BD00BF202E002080B582B000AF7860F1
:1007B0007B6803F54C731846FFF795FD0346032B42
:1007C0000FD10B4B1B885A1C91B2094A1180B3F50B
:1007D0007A7F09D97B6803F54C731846FFF78FFDC4
:1007E00002E0034B00221A8000BF0837BD4680BDDF
:1007F00056130020B0B5BEB000AF78607B6807F13B
:10080000140003F26943C622194610F02BFA7B68E4
:1008100003F26943C7F8EC307B6803F29453C7F8DE
:10082000E830734BC7F8E4303B7D002B3FD07B7D35
:100830005B09DBB203F00303DAB26E4B83F8B82531
:10084000BA7D6C4B83F8A225FA7D6A4B83F8A1250B
:100850003A7E684B83F8A0257B7E1A46654BC3F829
:100860009C25BB7E1A46634BC3F8982507F11403F9
:10087000013306331846FFF710FD034618460FF004
:1008800053FF0346D7F8E41018460FF0A1FF0346C4
:10089000184610F089F90346564AC2F89435D7F83D
:1008A000EC3000221A70D7F8E83001221A627B7F00
:1008B000002B3CD0FA7F4F4B83F8A52597F82020DA
:1008C0004C4B83F8A42597F821204A4B83F8A325A5
:1008D000484BD3F8B438474AC2F8AC3807F1140390
:1008E0000A3304331846FFF7E8FC0346414AC2F8CE
:1008F000B438404BD3F8B4283E4BD3F8AC389A42C6
:1009000003D23C4B0022C3F8AC283A4BD3F8B428AE
:10091000384BD3F8AC38D31A364AC2F87038354B56
:10092000012283F84C29D7F8EC3000225A7297F84C
:100930002630002B08D097F82E202E4B83F8AC25BC
:10094000D7F8EC3000229A743B7D002B06D17B7FD8
:10095000002B03D197F82630002B08D0254B01221D
:1009600083F8B925234B002283F8BB2516E03B7D95
:1009700083F00103DBB2002B0CD17B7F83F00103FA
:10098000DBB2002B06D197F8263083F00103DBB2EF
:10099000002B03D0174B012283F8BB2597F8D130E9
:1009A000002B1CD097F8D220124B83F8C92A97F855
:1009B000D320104B83F8CA2A97F8D4200D4B83F824
:1009C000CB2A0C4B012283F8C82A0A4B002283F859
:1009D000CC2AD7F8EC30002283F8BD2003E0054B89
:1009E000012283F8CC2A002387F8F73082E200BF87
:1009F0003A6DB63D202E0020934BD3F8801997F81E
:100A0000F72013461B019B1A9B000B441B6893F8AD
:100A10005130032B40F0688297F8F730362202FB02
:100A200003F307F1F8021344C93B1B78002B00F0D5
:100A3000B38097F8F73007F11402362101FB03F376
:100A400018331344191D07F10C0308221846FFF749
:100A500005FC07F10C031846FFF71FFC03461A4676
:100A600013469B0013445B00C7F8E030D7F8E03032
:100A700047F23052934212D9D7F8E030734A93428A
:100A80000DD8714BD3F8801997F8F72013461B0146
:100A90009B1A9B000B441B68D7F8E0209A6607F16D
:100AA0000C0302331846FFF7F8FB03461BB21A4645
:100AB0006FF0090303FB02F3C7F8DC30D7F8DC3032
:100AC000634A934212DBD7F8DC30624A93420DDC72
:100AD0005D4BD3F8801997F8F72013461B019B1A3A
:100AE0009B000B441B68D7F8DC201A67564BD3F8E1
:100AF000801997F8F72013461B019B1A9B000B44A3
:100B00001B683A7C83F863203B7C98B24E4BD3F849
:100B1000801997F8F72013461B019B1A9B000B4482
:100B20001B680246114689000A44520092B2A3F89B
:100B30006420454BD3F8801997F8F72013461B0122
:100B40009B1A9B000B441B687A7C83F85C2007F19E
:100B50000C0306331846FFF7A0FB034618463A4B32
:100B6000D3F8801997F8F72013461B019B1A9B00B6
:100B70000B441B68C2B283F89E20334B012283F8DA
:100B8000BF2997F8F730D7F8EC20362101FB03F3A3
:100B900013441B3300221A7097F8F730362202FBF9
:100BA00003F307F1F8021344C03B1B78002B3AD043
:100BB000002387F8F63027E097F8F73007F11402A2
:100BC000362101FB03F320331344053397F8F62055
:100BD000520098181C4BD3F8801997F8F720134649
:100BE0001B019B1A9B000B441C6897F8F650FFF7FB
:100BF00054FB03461A4605F13C0324F8132097F8EA
:100C0000F630013387F8F63097F8F630032BD3D956
:100C100097F8F730D7F8EC20362101FB03F31344A3
:100C2000243300221A7097F8F730362202FB03F3C0
:100C300007F1F8021344B73B1B78002B44D0002384
:100C400087F8F53031E000BF202E0020F7240100A6
:100C500081C7FEFF7F38010097F8F73007F11402D3
:100C6000362101FB03F328331344063397F8F520AC
:100C700052009818A44BD3F8801997F8F720134620
:100C80001B019B1A9B000B441C6897F8F5301D1D37
:100C9000FFF703FB03461A4605F13C0324F8132033
:100CA00097F8F530013387F8F53097F8F530032BD6
:100CB000D2D997F8F730D7F8EC20362101FB03F3AF
:100CC00013442D3300221A7097F8F730362202FBB6
:100CD00003F307F1F8021344AE3B1B78002B70D0EE
:100CE000894BD3F8801997F8F72013461B019B1AFC
:100CF0009B000B441B6803F1980097F8F73007F14D
:100D00001402362101FB03F3303313440733062268
:100D10001946FFF7A3FA97F8F7107B4BD3F8800931
:100D200097F8F72013461B019B1A9B0003441B688E
:100D30004A1C362101FB02F207F1F8010A44DD3AB0
:100D4000127883F89F2097F8F730362202FB03F3DE
:100D500007F1F8021344A63B1B7887F8DB3097F8BD
:100D6000DB30002B22D097F8DB30092B1ED8664BE6
:100D7000D3F8801997F8F72013461B019B1A9B00A4
:100D80000B441B68B3F8640097F8DB3099B25E4BF4
:100D9000D3F8804997F8F72013461B019B1A9B0054
:100DA00023441B68421892B2A3F8642097F8F730E6
:100DB000D7F8EC20362101FB03F31344363300222D
:100DC0001A7097F8F730362202FB03F307F1F802A6
:100DD0001344A53B1B78002B3CD0002387F8F4304C
:100DE00029E097F8F73007F11402362101FB03F3ED
:100DF00038331344083397F8F42052009818424BC4
:100E0000D3F8801997F8F72013461B019B1A9B0013
:100E10000B441C6897F8F43003F10805FFF73DFA1E
:100E200003461A4605F13C0324F8132097F8F430E2
:100E3000013387F8F43097F8F430032BD1D997F8C1
:100E4000F730D7F8EC20362101FB03F313443F338E
:100E500000221A7097F8F730362202FB03F307F1ED
:100E6000F80213449C3B1B78002B3ED0002387F8EC
:100E7000F33029E097F8F73007F11402362101FB2F
:100E800003F340331344093397F8F32052009818C2
:100E90001D4BD3F8801997F8F72013461B019B1AB6
:100EA0009B000B441C6897F8F33003F10C05FFF727
:100EB000F4F903461A4605F13C0324F8132097F889
:100EC000F330013387F8F33097F8F330032BD1D99F
:100ED00097F8F730D7F8EC20362101FB03F31344E1
:100EE000483300221A7000E000BF97F8F730013352
:100EF00087F8F73097F8F730022B7FF67DAD00BF0B
:100F000000BFF837BD46B0BD202E002080B586B0AA
:100F100000AF78607B68D3F82431DB6B23F07F036C
:100F20007B617B68D3F82431DB6BDBB203F07F039A
:100F3000FB740023BB747B6803F26943FB60FB7C9A
:100F4000022B11D17B69B3F5C07F0DD1FB68012263
:100F50001A70FB68581C7B68D3F82431943308223C
:100F60001946FFF77BF951E1FB7C022B12D17B691B
:100F7000B3F5207F0ED1FB6801225A72FB6803F1A2
:100F80000A007B68D3F82431943308221946FFF70E
:100F900065F93BE1FB7C022B11D17B69B3F5607FE6
:100FA0000DD1FB6801229A74FB6803F113007B6882
:100FB000D3F82431943308221946FFF74FF9FB7C0C
:100FC000082B12D17B69B3F5C07F0ED1FB680122DB
:100FD00083F8BD20FB6803F1BE007B68D3F82431A1
:100FE000943308221946FFF739F97B689B68DBB216
:100FF000FA7CD31ABB74BA7C7B685B689A4280F037
:101000000281844BD3F88019BA7C13461B019B1ACA
:101010009B000B441B681846FFF7CDF97D4BD3F8B6
:101020008019BA7C13461B019B1A9B000B441B685A
:1010300093F85130032B0BD0764BD3F88019BA7C40
:1010400013461B019B1A9B000B44012283F8382096
:10105000704BD3F88019BA7C13461B019B1A9B0076
:101060000B441B6893F85130032B40F0CF807B6911
:10107000B3F5906F77D07B69B3F5906F00F2C580C0
:101080007B69B3F5607F54D07B69B3F5607F00F274
:10109000BC807B69B3F5407F00F09A807B69B3F533
:1010A000407F00F2B2807B69B3F5207F27D07B6957
:1010B000B3F5207F00F2A9807B69B3F5C07F04D02F
:1010C0007B69B3F5007F68D09FE0BB7CFA6836216E
:1010D00001FB03F313441B3301221A70BB7C36223D
:1010E00002FB03F31833FA681344181D7B68D3F826
:1010F0002431943308221946FFF7B0F886E0BB7C10
:10110000FA68362101FB03F31344243301221A70D9
:10111000BB7C362202FB03F32033FA681344581DCC
:101120007B68D3F82431943308221946FFF796F8E8
:101130006CE0BB7CFA68362101FB03F313442D33CA
:1011400001221A70BB7C362202FB03F32833FA68B3
:101150001344981D7B68D3F8243194330822194630
:10116000FFF77CF852E0BB7CFA68362101FB03F301
:101170001344363301221A70BB7C362202FB03F380
:101180003033FA681344D81D7B68D3F82431943384
:1011900008221946FFF762F838E0BB7CFA6836216E
:1011A00001FB03F313443F3301221A70BB7C362248
:1011B00002FB03F33833FA68134403F108007B6839
:1011C000D3F82431943308221946FFF747F81DE07D
:1011D000BB7CFA68362101FB03F313444833012238
:1011E0001A70BB7C362202FB03F34033FA681344C7
:1011F00003F109007B68D3F824319433082219469F
:10120000FFF72CF802E000BF00E000BF1837BD4632
:1012100080BD00BF202E002080B584B000AF786074
:101220007B68DA6B7B6894331946104605F000FF43
:101230007B68DB6BFB607B68DB6B23F07F03B3F5C4
:10124000906F1AD0B3F5906F1DD8B3F5607F14D0AE
:10125000B3F5607F17D8B3F5407F0ED0B3F5407F6C
:1012600011D8B3F5207F08D0B3F5207F0BD8B3F5A4
:10127000C07F02D0B3F5007F05D1254BD3F84035B0
:101280002348984741E000BF214BDB68FA689A4247
:101290003BD11F4B1B7C002B19D11D4BD3F82431A4
:1012A0001B4AD2689A621A4BD3F8243100229A63FF
:1012B000174BD3F82421164BD3F824318433194625
:1012C00010460EF0BFFA124B01221A741AE0104BAE
:1012D0001B7C022B03D10E4B03221A7412E00C4B21
:1012E0001B7C042B0ED17B6893F894301A46084B74
:1012F0005B6A9B689A4207D1064BD3E900230448F6
:1013000007F0DCFC00BF00E000BF1037BD4680BD29
:10131000202E00204018002080B500AF0A4B93F823
:10132000FB3983F00103DBB2002B0BD1064B00220B
:1013300083F8FB29012164200AF09EFD024805F094
:1013400077FB00E000BF80BD202E002080B483B07A
:1013500000AF0346FB800949FB881B0A9BB21A4673
:10136000FB88DBB21201134451F82330C3F340036E
:10137000DBB218460C37BD4680BC704700080840F9
:1013800080B582B000AF78607B689B68002B04D08A
:101390007B689B687868984700E000BF0837BD46C7
:1013A00080BD80B582B000AF78607B68DB68002BC1
:1013B00004D07B68DB687868984700E000BF083796
:1013C000BD4680BD80B483B000AF78600B46FB7033
:1013D0007B68FA781A7000BF0C37BD4680BC704736
:1013E00080B582B000AF78607B685D4AC3F85C2846
:1013F0007B685C4AC3F858287B685B4AC3F8B82608
:101400007B685A4AC3F8BC267B68594AC3F8C02691
:101410007B68584AC3F8D8267B68574AC3F8DC264D
:101420007B68564AC3F8E0267B68554AC3F8E42631
:101430007B68544AC3F8F8267B68534AC3F8FC26F5
:101440007B68524AC3F800277B68514AC3F80427D7
:101450007B68504AC3F818277B684F4AC3F81C279B
:101460007B684E4AC3F820277B684D4AC3F824277F
:101470007B684C4AC3F834267B684B4AC3F838264D
:101480007B684A4AC3F83C267B68494AC3F854261D
:101490007B68484AC3F858267B68474AC3F85C26ED
:1014A0007B68464AC3F894267B68454AC3F8982669
:1014B0007B68444AC3F89C267B68434AC3F8582794
:1014C0007B68424AC3F838277B68414AC3F87827CB
:1014D0007B68404AC3F87C277B683F4AC3F8802773
:1014E0007B683E4AC3F874267B68374AC3F858279E
:1014F0007B683B4AC3F85C277B683A4AC3F860279D
:101500007B68394AC3F83C287B68384AC3F84028CE
:101510007B68374AC3F81C287B68364AC3F8202802
:101520007B68354AC3F898277B68344AC3F8B827E4
:101530007B6842F22502C3F8AC277B68304AC3F8C7
:10154000D8277B682F4AC3F8F8277B6803F5C56363
:10155000184606F05FFC00BF0837BD4680BD00BFDF
:1015600045240100D1220100F1160100511E0100A5
:10157000C120010029160100751F01004121010051
:10158000951F010071160100C51F010061210100B6
:10159000692201008F160100E51F01008121010071
:1015A0009D220100AB16010005200100A1210100D0
:1015B000BF16010019200100B5210100BD1701006F
:1015C00039200100D5210100DD1601008D17010031
:1015D000CD1A01005D20010005220100A1170100C4
:1015E0004B200100E9210100A92001005122010046
:1015F000852001002D220100411D0100D9170100A5
:10160000091601009119010080B584B000AF78601F
:1016100040F20110FFF79AFE0346FB73FB7B18466E
:101620001037BD4680BDFFFF80B584B000AF786045
:1016300040F20740FFF78AFE0346FB730B4B1B7813
:1016400023F00203DAB2094B1A70084B1B785AB226
:10165000FB7B5B005BB213435BB2DAB2034B1A70E5
:10166000FB7B18461037BD4680BD00BF64130020C9
:1016700080B584B000AF786040F20130FFF766FEBD
:101680000346FB73FB7B18461037BD4680BD80B513
:1016900084B000AF78600F20FFF758FE0346FB735D
:1016A000FB7B18461037BD4680BD80B483B000AFC9
:1016B0007860002318460C37BD4680BC704780B563
:1016C00084B000AF786040F20940FFF73FFE034668
:1016D000FB73FB7B18461037BD4680BD80B483B0DA
:1016E00000AF7860002318460C37BD4680BC7047B9
:1016F00080B584B000AF78607B681B78FB734FF4D3
:101700008160FFF723FE0346BB73BA7BFB7B9A42E3
:101710001AD01B4B1B785A1CD1B2194A11700A2BD4
:1017200012D9184B1B7823F00103DAB2154B1A704B
:10173000144B1A78BB7B1343DAB2124B1A70104B5E
:1017400000221A70BB7B17E0BA7BFB7B9A4202D166
:101750000B4B00221A700C4B93F82D31012B0AD140
:10176000084B1B7823F00103DAB2064B1A70054BC5
:101770001A78044B1A70FB7B18461037BD4680BDA3
:101780006D13002064130020202E002080B483B04D
:1017900000AF7860002318460C37BD4680BC704708
:1017A00080B582B000AF78604FF40070FFF7CEFDD7
:1017B0000346DBB218460837BD4680BD80B582B00F
:1017C00000AF78604FF40070FFF7C0FD0346DBB256
:1017D00018460837BD4680BD80B582B000AF78603E
:1017E0007B681B78002B16D1644B5B7823F01003C9
:1017F000DAB2624B5A70614B5A78604B5A705F4B49
:101800005B7823F02003DAB25C4B5A705B4B5A785A
:101810005A4B5A7036E05A4B1B78002B19D0574B55
:101820005B7823F01003DAB2544B5A70534B5A785A
:10183000524B5A70514B5B7823F02003DAB24F4B76
:101840005A704E4B5B7843F02003DAB24B4B5A7020
:1018500018E04A4B5B7823F01003DAB2474B5A701A
:10186000464B5B7843F01003DAB2444B5A70434B5B
:101870005B7823F02003DAB2404B5A703F4B5A7822
:101880003E4B5A707B681B78002B2FD13D4BD3F811
:101890009435002B2AD13B4B93F8F436012B25D1FC
:1018A000384B93F81437012B20D1364B93F8B436CC
:1018B000012B1BD140F20620FFF748FD0346012B08
:1018C00006D17B68DA69304B1B681A447B68DA61A1
:1018D0007B68DB6940F2DC5293420AD97B680122C3
:1018E0001A707B680022DA61012342E07B680022E3
:1018F000DA617B681B78012B39D1224B93F8F436DF
:10190000012B09D11F4B93F81437012B04D11D4B28
:1019100093F8B436012B05D07B6800221A70184B5F
:1019200001221A7040F20620FFF710FD0346012B3A
:1019300007D1164B1A68144B1B681344134A1360E3
:1019400002E0124B00221A60104B1B68322B0ED1A2
:101950000B4B1B78002B14BF01230023DBB283F059
:101960000103DBB203F00103DAB2054B1A707B68A6
:101970001B7818460837BD4680BD00BF64130020A1
:1019800000080020202E00200C11020080130020EF
:1019900080B584B000AF786040F20620FFF7D6FC37
:1019A0000346FB73FB7B002B0AD1444B1B68312B96
:1019B00006D8424B1A68424B1B6813443F4A1360D7
:1019C0007B681B78002B34D13E4B93F84835022BB3
:1019D0002FD13C4B93F87437002B2AD1FB7B012B82
:1019E0000BD1364B1B68312B07D97B68DA69344B36
:1019F0001B681A447B68DA610BE0FB7B002B08D183
:101A00007B68DB6940F6B732934202D87B680022DC
:101A1000DA617B68DB6940F6B73293420CD97B68A8
:101A20000022DA61254B00221A607B6801221A70BD
:101A300002E07B680022DA617B681B78012B33D1DE
:101A4000204B93F84835022B04D11E4B93F8743782
:101A5000012B02D17B6800221A70FB7B012B0BD17A
:101A6000164B1B68312B07D9174B1A68144B1B6890
:101A70001344154A136009E0FB7B002B06D1124B7F
:101A80001B68C72B02D8104B00221A600E4B1B6834
:101A9000C72B0CD90C4B00221A60084B00221A608D
:101AA0007B6800221A7002E0074B00221A607B68F4
:101AB0001B7818461037BD4680BD00BF8813002034
:101AC0000C110200202E00208413002080B584B069
:101AD00000AF78607B681B78002B1ED1904B1B8871
:101AE0001E2B13D98F4B1B7823F02003DAB28D4BBA
:101AF0001A708C4B1B785AB27B681B785B015BB207
:101B000013435BB2DAB2874B1A7019E0844B1B881F
:101B100001339AB2824B1A8012E0824B1B7823F079
:101B20002003DAB27F4B1A707E4B1B785AB27B6867
:101B30001B785B015BB213435BB2DAB2794B1A706C
:101B4000794B93F8B436002B01D10123E3E0764BB7
:101B500093F8B436012B0FD1734BD3F89435002B87
:101B60000AD17B681B78002B06D1704B1B88013390
:101B70009AB26E4B1A8002E06C4B00221A806B4BBB
:101B80001B8847F23052934205D9674B012283F8F4
:101B9000BA250123BFE0644B93F8B437012B08D179
:101BA0007B681B78012B02D17B6800221A7000230E
:101BB000B1E040F20720FFF7C9FB0346FB735C4B23
:101BC0001B88092B0CD8FB7B002B09D17B681B7869
:101BD000002B05D1564B1B8801339AB2544B1A8007
:101BE000FB7B012B13D1524B1B88092B0FD94E4B7A
:101BF000D3F89435002B0AD17B681B78002B06D1D3
:101C00004C4B1B8801339AB24A4B1A8002E0494B75
:101C100000221A80474B1B88322B15D9424B93F870
:101C20004835022B04D0404B93F84835032B0BD199
:101C3000404B00221A80404B00221A803A4B01226E
:101C400083F8BA25012366E03B4B1B88092B0CD88F
:101C5000FB7B002B09D17B681B78012B05D1364B10
:101C60001B8801339AB2344B1A80FB7B012B0AD1BB
:101C7000314B1B88092B06D9304B1B780133DAB264
:101C80002E4B1A7002E02D4B00221A702B4B1B7842
:101C90001E2B3ED97B681B78012B3AD1224B93F83F
:101CA000CD3A012B35D1204B93F8C93A012B30D1D5
:101CB0001D4B93F85035012B2BD01B4B93F8483517
:101CC000052B26D0184B93F8103A112B21D0164B28
:101CD00093F8283A112B1CD0134B93F8403A112B50
:101CE00017D0114B93F8403A122B12D00E4BD3F869
:101CF000083AB3F5FA7F0CD97B6800221A700A4BB8
:101D0000022283F8BA250A4B00221A80044B0022D3
:101D10001A807B681B7818461037BD4680BD00BF0F
:101D20007A13002064130020202E00206E13002060
:101D30007013002078130020721300206C13002011
:101D400080B584B000AF78603C4B93F8B437012B7A
:101D500002D17B681B786DE040F20620FFF7F6FAAF
:101D60000346BB737B681B78FB73BB7B002B09D1DD
:101D7000334B1B88042B05D8314B1B8801339AB297
:101D80002F4B1A80BB7B012B0AD12D4B1B88042BB8
:101D900006D92C4B1B8801339AB22A4B1A8002E0D9
:101DA000284B00221A80274B1B881E2B09D97B68E1
:101DB0001B78002B05D10123FB73214B00221A80D5
:101DC0000CE0204B1B881E2B08D97B681B78012B4D
:101DD00004D10023FB731A4B00221A80174BD3F84F
:101DE000003A022B10D9154B93F87437002B0BD106
:101DF0000123FB73144B1B685A1C13490A60322BD6
:101E000005D90023FB7302E00F4B00221A600F4B31
:101E10001B7823F01003DAB20C4B1A700B4B1B78B3
:101E20005AB2FB7B1B015BB213435BB2DAB2074BC6
:101E30001A70FB7B18461037BD4680BD202E00204F
:101E400076130020741300204C1800206413002027
:101E500080B582B000AF78603D48FFF791FA3D4B06
:101E600093F85035012B18D03A4B93F8103A112BB8
:101E700013D0384B93F8283A112B0ED0354B93F8EA
:101E8000403A132B09D0334B93F8FA39002B04D185
:101E9000304B93F8003B002B1DD02E4B93F8483568
:101EA000052B2AD02B4B93F8403A122B25D0294BE7
:101EB00093F8403A112B20D0264B012283F8BA2503
:101EC000244B012283F874272348FFF76AFA23483A
:101ED00004F0EAF911E01F4B93F84835022B0DD1BD
:101EE0001D48FFF74DFA1B4BD3F8082A1C4B1B6803
:101EF0001344184AC2F8083A00E000BF194805F038
:101F000040FD144B012283F8A82701211648FFF752
:101F100059FA164BD3E90023104619460EF0C4FABD
:101F200009A3D3E900230EF03FF902460B46104601
:101F300019460EF059FE02460B460D49C1E9002331
:101F400000BF0837BD4680BD000000000088C340C8
:101F500054360020202E002034360020B4330020D8
:101F60000C110200B4350020483400204018002035
:101F7000B009002080B582B000AF78600122012155
:101F800003480CF074F900BF0837BD4680BD00BFA0
:101F9000882B002080B582B000AF78600120FFF769
:101FA000D5F90346002B0CBF01230023DBB21A46F0
:101FB000012103480CF05BF900BF0837BD4680BD26
:101FC000882B002080B582B000AF7860012240F2FB
:101FD000024103480CF04BF900BF0837BD4680BDF5
:101FE000882B002080B582B000AF7860012240F2DB
:101FF000091103480CF03BF900BF0837BD4680BD0E
:10200000882B002080B483B000AF786000BF0C370D
:10201000BD4680BC7047FFFF80B582B000AF7860DE
:102020000122002103480CF022F900BF0837BD4609
:1020300080BD00BF882B002080B483B000AF7860E3
:1020400000BF0C37BD4680BC704780B483B000AF82
:10205000786000BF0C37BD4680BC704780B483B049
:1020600000AF7860064B012283F8F426044B01226E
:1020700083F8142700BF0C37BD4680BC704700BFF3
:10208000202E002080B582B000AF78607B680122EE
:102090001A7001220E2103480CF0E9F800BF08373E
:1020A000BD4680BD882B002080B483B000AF78602F
:1020B0007B6801221A7000BF0C37BD4680BC704798
:1020C00080B582B000AF7860164805F0A3FE164BCD
:1020D00093F8403A112B08D0144805F03EFC144800
:1020E00005F03BFC134805F038FC0F4B93F84835DE
:1020F000052B0FD00C4B93F8403A122B0AD00A4B09
:1021000093F8403A112B05D00B4805F026FC0B48FC
:1021100004F0CAF800210348FFF754F900BF08375C
:10212000BD4680BD48340020202E0020F43400201D
:10213000143500203435002034360020B43300201C
:1021400080B582B000AF78600022012103480CF016
:102150008EF800BF0837BD4680BD00BF882B002029
:1021600080B582B000AF7860002240F2024103489F
:102170000CF07DF800BF0837BD4680BD882B0020DD
:1021800080B582B000AF7860002240F209110348A8
:102190000CF06DF800BF0837BD4680BD882B0020CD
:1021A00080B483B000AF786000BF0C37BD4680BC00
:1021B0007047FFFF80B582B000AF78600022002139
:1021C00003480CF054F800BF0837BD4680BD00BF7F
:1021D000882B002080B483B000AF786000BF0C373C
:1021E000BD4680BC7047FFFF80B483B000AF78600D
:1021F000034B93F82C36002B0C37BD4680BC704740
:10220000202E002080B483B000AF7860064B0022FF
:1022100083F8F426044B002283F8142700BF0C3700
:10222000BD4680BC704700BF202E002080B582B024
:1022300000AF78607B6800221A7000220E210348EC
:102240000CF015F800BF0837BD4680BD882B002074
:1022500080B483B000AF78607B6800221A7000BF42
:102260000C37BD4680BC704780B582B000AF786047
:1022700040F20240FFF76AF80346002B0CBF01232F
:102280000023DBB21A4640F2024103480BF0EFFF95
:1022900000BF0837BD4680BD882B002080B582B0C6
:1022A00000AF786040F20910FFF750F80346002BAA
:1022B0000CBF01230023DBB21A4640F20911034888
:1022C0000BF0D5FF00BF0837BD4680BD882B00202E
:1022D00080B483B000AF78607B6893F8A030002BA7
:1022E00022D17B6893F8C030002B1DD17B6893F816
:1022F000E030002B18D17B6893F80031002B13D10C
:102300004D4B1B78002B0FD17B6893F86031002B6D
:102310000AD17B6893F88830002B05D1474B93F89E
:10232000BD39002B00F08280434B1B78002B02D07C
:10233000414B00221A70414B93F8BD39002B03D05A
:102340003E4B002283F8BD297B6893F88830002B30
:1023500055D07B681B79022B37D0022B50DC002B29
:1023600002D0012B17D04BE0354B5B7823F00103F3
:10237000DAB2334B5A70324B5A78314B5A70304B79
:102380005B7823F00203DAB22D4B5A702C4B5A784B
:102390002B4B5A7034E02A4B5B7823F00203DAB2FD
:1023A000274B5A70264B5B7843F00203DAB2244B7A
:1023B0005A70234B5B7823F00103DAB2204B5A703A
:1023C0001F4B5A781E4B5A701AE01D4B5B7823F056
:1023D0000203DAB21A4B5A70194B5A78184B5A70DA
:1023E000174B5B7823F00103DAB2154B5A70144B8C
:1023F0005B7843F00103DAB2114B5A7000E000BF82
:102400000F4B5B7823F00403DAB20D4B5A700C4B80
:102410005B785AB2094B93F850359B005BB213437B
:102420005BB2DAB2064B5A70012300E00023184673
:102430000C37BD4680BC70477C130020202E002046
:102440006413002080B483B000AF786000BF0C3705
:10245000BD4680BC7047FFFF80B500AF224B1B78A4
:1024600023F00403DAB2204B1A7040F20910FEF791
:102470006DFF034699001C4B1A78CBB21343DAB2B6
:10248000194B1A70184B1B7823F00803DAB2164B5D
:102490001A7040F20240FEF759FF0346D900124B72
:1024A0001A78CBB21343DAB20F4B1A700F4B93F872
:1024B000B436002B15D10C4B1B7823F00403DAB291
:1024C000094B1A70084B1A78074B1A70064B1B7889
:1024D00023F00803DAB2044B1A70034B1A78024B4C
:1024E0001A7000BF80BD00BF64130020202E0020A2
:1024F00080B483B000AF78607B6893F86130184691
:102500000C37BD4680BC704780B582B000AF7860A4
:102510007B68DB68002B04D07B68DB6878689847B1
:1025200000E000BF0837BD4680BD80B483B000AF77
:1025300078600B46FB707B68FA7883F85E2000BFFA
:102540000C37BD4680BC704780B584B000AF786062
:102550007B68032283F8A5297B68002283F849253C
:102560007B68002283F89C297B68002283F8C829B5
:102570007B68002283F8A4297B682C4AC3F8802951
:102580007B682B4AC3F8A0297B6803F51D614FF0D7
:1025900000024FF00003C1E900230023FB7339E080
:1025A000FA7B7B6802F26222002143F82210FA7B58
:1025B00013461B019B1A9B001C4A1344FA7B1146CD
:1025C000184605F087FAFB7BFA7B1A4951F823106D
:1025D000164813461B019B1A9B00034410331960D5
:1025E000FB7BFA7B144951F82310104813461B015A
:1025F0009B1A9B00034414331960FA7B0B49134662
:102600001B019B1A9B000B4434330C4A1A60FB7B62
:102610000133FB737B6893F8A539FA7B9A42BFD3E9
:1026200000BF00BF1037BD4680BD00BF8C13002027
:102630004126010098090020A4090020C9270100B3
:1026400080B483B000AF78607B6893F89C39022B2C
:1026500004D97B68032283F89C2908E07B6893F8FF
:102660009C39002B03D17B68002283F89C2900BF92
:102670000C37BD4680BC704780B584B000AF786031
:102680000023FB7310E0FA7BF87B124913461B0111
:102690009B1A9B000B4419687B6800F5067243F88F
:1026A0002210FB7B0133FB737B6893F8A539FA7B1F
:1026B0009A42E8D37B6803F50663184605F060FE8E
:1026C0007B6803F50663184605F044FE00BF10372B
:1026D000BD4680BD8C13002080B582B000AF78600D
:1026E0007B6801221A70012240F20B1103480BF0A3
:1026F000BEFD00BF0837BD4680BD00BF882B00204F
:1027000080B582B000AF78607B6801221A70012228
:102710004FF4827103480BF0AAFD00BF0837BD4695
:1027200080BD00BF882B002080B582B000AF7860EC
:102730007B6801221A7001224FF4867103480BF066
:1027400096FD00BF0837BD4680BD00BF882B002026
:1027500080B582B000AF78607B6800221A700022DA
:1027600040F20B1103480BF082FD00BF0837BD4655
:1027700080BD00BF882B002080B582B000AF78609C
:102780007B6800221A7000224FF4827103480BF01C
:102790006EFD00BF0837BD4680BD00BF882B0020FE
:1027A00080B582B000AF78607B6800221A7000228A
:1027B0004FF4867103480BF05AFD00BF0837BD4641
:1027C00080BD00BF882B0020B0B586B004AF786014
:1027D0000B46FB701346BB701848FFF789FE034693
:1027E000002B27D17B681B68FA7811461846FFF743
:1027F0009CFE134A7B68C2F88439114ABB7882F880
:1028000068347B681B6899687B681B6803F15E000D
:102810000C4BD3E9002312F5FA7443F10005CDE91E
:1028200002450123009303460A460749044806F07F
:10283000D7FA00E000BF0837BD46B0BD50310020D8
:10284000202E0020401800200103200080B58AB00F
:1028500000AF78607B6893F8BF3983F00103DBB287
:10286000002B40F035817B68002283F8BF299B4B09
:102870001B685A1E99490A60022B00F22B81974B64
:1028800001221A6000237B6296233B620023FB61D6
:102890000023BB610023FB600023BB600023FB75AA
:1028A0000023BB7500233B6148E07B68D3F88019A7
:1028B0003A6913461B019B1A9B000B441B6893F853
:1028C0005C30032B37D13B69BB757B6A01337B627C
:1028D000BB69FB607B68D3F880193A6913461B011A
:1028E0009B1A9B000B441B6893F863301A46BB6924
:1028F0001344BB617B68D3F880193A6913461B0106
:102900009B1A9B000B441B687833184605F0F5F9B9
:1029100003461A46FB7D1344FB75BB69002B01DCA3
:102920000123BB61BA69FB689A4204DDFB68002B96
:1029300001D0FB68BB613B6901333B617B6893F865
:10294000A5391A463B699342AFDBBB69002B01DC1A
:102950000123BB61BB69632B01DD6323BB61604A5B
:10296000BB6952F82330BB607B6A012B02D19623EE
:102970003B620AE07B6A022B02D15A233B6204E0ED
:102980007B6A032B01D13C233B62BB68A3F54F4319
:10299000083B4FF47A7202FB03F23B6A92FBF3F3BB
:1029A000FB617B6A032B71D07B6A032B00F386806B
:1029B0007B6A012B03D07B6A022B4FD07EE0BB6980
:1029C000142B03DCFB69A3F5FA63FB61FB6948F692
:1029D000B702934202DD48F6B803FB61FB6941F29E
:1029E0008832934202DC41F28833FB617B68D3F882
:1029F0008019BA7D13461B019B1A9B000B441B6870
:102A000093F89830372B0AD9FB6944F62062934239
:102A100005DD44F62063FB61324B01221A70314B15
:102A20001B78002B16D07B68D3F88019BA7D13462B
:102A30001B019B1A9B000B441B6893F89830362BA4
:102A400008D9FB6944F62062934203DD44F6206313
:102A5000FB6138E0234B00221A7034E0BB69142B71
:102A600003DCFB69A3F5FA63FB61FB694AF6C772F5
:102A7000934202DD4AF6C873FB61FB6942F21072B1
:102A800093421DDC42F21073FB6119E0BB69142B09
:102A900003DCFB69A3F5FA63FB61FB694CF24F327F
:102AA000934202DD4CF25033FB61FB6943F69822FE
:102AB000934207DC43F69823FB6103E000BF02E08A
:102AC00000BF00E000BF7B68FA69C3F8A82902E0F4
:102AD00000BF00E000BF2837BD4680BD5818002069
:102AE000040800204014002080B58AB000AF786050
:102AF0007B6803F506633B617B6893F8AC351B0983
:102B0000FB73FB7B002B05D0FB7B012B02D0FB7BF7
:102B1000022B03D1002387F8273002E0012387F836
:102B2000273097F82730002B02D16F4B3B6201E032
:102B30006E4B3B627B6893F87437012B01D16B4B72
:102B40003B623B690022DA630023FB7625E0FA7ED4
:102B50003B6953F8223093F85130032B1AD1FA7E97
:102B60003B6953F8223093F8A830022B12D0FA7E3A
:102B70003B6953F8223093F8B430022B0AD03B69FA
:102B8000DB6BF97E3A6952F82120B2F864201A44CE
:102B90003B69DA63FB7E0133FB76FB7E022BD6D9E1
:102BA0004FF07E51386A0DF0B1FF0346002B02D082
:102BB0004FF07E533B623B69DB6B312B02D8002325
:102BC000FB611CE03B69DA6B13469B0013445B001E
:102BD0001344A3F2262318460DF0A2FD0346BB6062
:102BE000396AB86805F044FD0346414918460DF0BE
:102BF000A3FE034618460DF0D7FF0346FB61FB69B1
:102C0000002B01D10023FB61FB69952B01D9962391
:102C1000FB617B6893F84835032B50D17B68D3F870
:102C2000003A022B4BD9FB69052B0BD83B69D3F833
:102C3000FC30304AA2FB03239B09FA69D21A3B6994
:102C4000DA600AE03B69D3F8FC302A4AA2FB03238E
:102C50009B09C3F105023B69DA607B6803F50663F3
:102C6000184605F0A5FD3B69D3F8FC3041F28732E8
:102C700093422BD93B690022DA601F48FFF744FCDE
:102C80001E4B1B685A1C1D490A600A2B1ED90023C3
:102C90007B610CE07B69DBB21946786803F046FA89
:102CA0007B68184606F014FC7B6901337B617B6806
:102CB00093F8A5391A467B699342EBD306E00F4B94
:102CC00000221A603B69FA69DA6000E000BF7B68A5
:102CD00003F5066397F827201146184605F0A6FB72
:102CE00000BF2837BD4680BD0000B0410000E04174
:102CF00000002041D34D62103436002050180020CF
:102D000080B485B000AF78607B681B783B727B68CD
:102D10005B787B727B689B78BB727B68DB78FB722D
:102D2000BB6818461437BD4680BC704780B483B07A
:102D300000AF78607B6893F8613018460C37BD4669
:102D400080BC704780B483B000AF78607B6800229D
:102D500083F8612000BF0C37BD4680BC7047FFFF81
:102D600080B400AFBFF34F8F00BF064BDB6803F4A6
:102D7000E0620449044B1343CB60BFF34F8F00BFA5
:102D800000BFFDE700ED00E00400FA0580B483B069
:102D900000AF0346FB800949FB881B0A9BB21A4619
:102DA000FB88DBB21201134451F82330C3F3400314
:102DB000DBB218460C37BD4680BC7047000808409F
:102DC00080B483B000AF78600B46FB707B68002B4B
:102DD00004D07B68FA7883F85D2000E000BF0C37F0
:102DE000BD4680BC704780B483B000AF78607B681C
:102DF000002283F8A9207B68002283F8AA207B6840
:102E00000022C3F8AC2000BF0C37BD4680BC704721
:102E100080B582B000AF78600B46FB701346BB7084
:102E20007B685B6BBA78F9787868984700BF083799
:102E3000BD4680BD80B483B000AF78600B46FB70A8
:102E40007B68FA7883F8482500BF0C37BD4680BC04
:102E5000704780B483B000AF78600B46FB707B682E
:102E600093F84935FA789A4208D07B68FA7883F863
:102E700049257B68012283F8D82900E000BF0C3780
:102E8000BD4680BC7047FFFF80B582B000AF786060
:102E9000044BD3E9002379680348884700BF08370B
:102EA000BD4680BD40180020202E002080B485B093
:102EB00000AFF860C7E90023FB6803F51D63D3E9A1
:102EC0000023D7E90001994208BF904208D3FB686C
:102ED00003F51D63D3E90023134301D0012300E070
:102EE000002303F00103DBB218461437BD4680BC53
:102EF000704780B483B000AF78607B686422DA6189
:102F000000BF0C37BD4680BC704780B483B000AFB3
:102F100078600B46FB707B68FA7883F8FC2A00BF68
:102F20000C37BD4680BC704780B500AFFDF788F90F
:102F300005F092FC064805F0ADFC064805F058FD8A
:102F4000054806F09BFB054805F0C2FD00BF80BDAB
:102F50007433002008340020F0330020DC330020DC
:102F600080B582B000AF78607868FEF739FA78688B
:102F700000F02EF87868FFF7E7FA7868FFF77CFB37
:102F80007868FDF74DFA04F063F87B68D3F8C4392C
:102F9000184606F0F7FC786803F05CFC7B680B4A87
:102FA000C3F8C429786800F02EF8786803F04CFD67
:102FB000786800F055FB786800F070FC00217868B4
:102FC000FFF7A3FF00BF0837BD4680BDA81C002047
:102FD00080B582B000AF78607B6803F6582320226A
:102FE000034918460DF03EFE00BF0837BD4680BDC0
:102FF0009C00000880B483B000AF786000BF0C373D
:10300000BD4680BC704780B483B000AF78607B68F9
:10301000012283F8CD2A7B68012283F8B9257B68D9
:10302000012283F8C92A7B68002283F8C82A7B68BA
:10303000012283F8BA257B68002283F8BB257B68D0
:10304000002283F8CC2A7B68002283F8CF2A7B6891
:10305000002283F8CE2A00BF0C37BD4680BC7047E3
:10306000B0B586B000AFF860C7E90023FB687B61AC
:10307000FB6893F84835022B16D1FB6893F8BB35F3
:10308000002B11D0FB6893F8B436012B0CD1FB68F0
:1030900093F81438012B07D1AF4B1A68AF4B1B685C
:1030A0001344AD4A136002E0AB4B00221A60FB6888
:1030B00093F8B935012B0DD1A74B1B6842F2107262
:1030C000934207D9FB68002283F8B925FB680022E8
:1030D00083F8BB25FB6893F8CC3A002B07D0A04BB4
:1030E0001A689E4B1B6813449D4A136002E09C4B78
:1030F00000221A60FB6893F8C83A012B0DD1984B57
:103100001B6842F21072934207D9FB68002283F8D1
:10311000C82AFB68002283F8CC2AFB6893F848355C
:10312000022B40F0F680FB6893F8B436012B40F098
:10313000F080FB6893F8B935012B40F0EA80FB681A
:1031400093F81438012B40F0E480FB6893F8FC3AC4
:10315000002B03D10221F868FFF7D7FEFB6893F834
:10316000FC3A022B40F0E580FB6893F87437002BA3
:1031700067D1FB68002283F8CF2A7A4B00221A60BD
:10318000FB6893F8CE3A83F00103DBB2002B4ED0FC
:103190007B6903F54C731846FFF7C8FD0346002B07
:1031A00007D1714B1B68052B03D8F86800F0B6F9FE
:1031B000AEE07B6903F54C731846FFF7B7FD034695
:1031C000022B11D1FB68012283F8CE2A7B6903F51B
:1031D0004C731846FFF7B6FD0021F868FFF795FE1F
:1031E000614B00221A60A4E07B6903F54C7318461A
:1031F000FFF79CFD0346032B0BD17B6903F54C7352
:103200001846FFF79FFD584B1B680133564A136061
:103210008FE0554B1B68052B40F28B80FB6800222A
:1032200083F8CE2A0021F868FFF76FFE81E0FB6883
:1032300093F8FC3A022B7CD10021F868FFF765FE79
:1032400077E0FB68002283F8CE2A474B00221A6001
:10325000FB6893F8CF3A83F00103DBB2002B4DD02B
:103260007B6903F54C731846FFF760FD0346002B9E
:1032700007D13C4B1B68052B03D8F86800F04EF9CA
:1032800046E07B6903F54C731846FFF74FFD034694
:10329000022B11D1FB68012283F8CF2A7B6903F549
:1032A0004C731846FFF74EFD0021F868FFF72DFE1E
:1032B0002C4B00221A603CE07B6903F54C731846E6
:1032C000FFF734FD0346032B0BD17B6903F54C73E9
:1032D0001846FFF737FD234B1B680133214A136063
:1032E00027E0204B1B68052B23D9FB68002283F8BD
:1032F000CF2A0021F868FFF708FE1AE0FB6893F870
:10330000FC3A022B15D10021F868FFF7FEFD10E012
:103310000FE0154B00221A60124B00221A60FB6866
:1033200093F8FC3A022B05D10021F868FFF7EDFD78
:1033300000E000BFFB6893F8C83A012B18D1FB6886
:1033400093F8B935012B13D1084B00221A60FB68A2
:10335000012283F8CD2A7AE0501400200C110200DB
:103360005414002074140020781400204C14002001
:10337000FB6893F84835022B69D1FB6893F8B436A3
:10338000012B1DD15F4B1B6818464FF000015E4BAF
:10339000D3E90023841841EB03055B4BC3E90045E7
:1033A000594BD3E9002340F2DC504FF00001994221
:1033B00008BF90420BD2FB68002283F8CD2A06E0BA
:1033C00051494FF000024FF00003C1E900234F4B79
:1033D0001A684C4B1B6813444C4A13604B4B1B68D8
:1033E00047F23052934232D9FB6893F8C83A002B27
:1033F00011D1FB6893F8C93A002B0CD0FB6893F805
:10340000B436012B04D1D7E90023F86800F0A6F800
:103410003F4B01221A70FB6893F8B935002B16D187
:10342000FB6893F8C83A002B11D0FB6893F8C93AAF
:10343000002B0CD0FB6893F8B436012B04D1D7E9EC
:103440000023F86800F0C6F8324B01221A70FB68BE
:1034500093F8B436002B12D1FB6893F85035012B4A
:103460000DD0FB6893F8103A112B08D0FB6893F845
:10347000283A112B03D0FB68012283F8BA25FB6898
:1034800093F8C93A002B0CD1FB6893F8B436012BA2
:1034900004D1D7E90023F86800F060F81E4B012240
:1034A0001A70FB6893F8B935012B27D1FB6893F8A4
:1034B000C83A012B22D1FB6893F8C93A012B1DD1E0
:1034C000134B1B78002B05D0F86800F0B1F8104BB7
:1034D00000221A700F4B1B78002B05D0F86800F003
:1034E000A7F80C4B00221A700B4B1B78002B05D051
:1034F000F86800F09DF8084B00221A7000BF1837DA
:10350000BD46B0BD0C110200581400204C14002020
:1035100061140020601400206214002080B588B07F
:1035200002AF78607B6803F2BA53FB6003233B74FD
:1035300001237B8200237B616423019307F10C0349
:103540000093002342F250120221034806F08CFD42
:1035500000BF1837BD4680BD50310020B0B584B0E3
:1035600000AFF860C7E90023FB68D3F89435012B5E
:1035700007D8FB68012283F8BA25FB68012283F88B
:103580007427134BD3E90001D7E90023994208BF00
:10359000904218D2FB68D3F80437FA6802F2F4625A
:1035A00010469847FB68D3F82437FA6802F2147281
:1035B00010469847D7E9002312F5FA7443F1000545
:1035C000034BC3E9004500BF1037BD46B0BD00BF87
:1035D00080140020B0B584B000AFF860C7E90023C4
:1035E000124BD3E90001D7E90023994208BF90426A
:1035F00018D2FB68D3F80437FA6802F2F462104676
:103600009847FB68D3F82437FA6802F21472104620
:103610009847D7E9002312F5FA7443F10005034BEC
:10362000C3E9004500BF1037BD46B0BD8814002077
:1036300080B582B000AF78607B68D3F800377A68D5
:1036400002F2F462104698477B68D3F820377A6814
:1036500002F214721046984700BF0837BD4680BD7D
:1036600080B582B000AF78607B68002283F8F02AD2
:10367000786800F004F800BF0837BD4680BD80B40C
:1036800083B000AF78607B68002283F8F22A7B6801
:10369000002283F8F32A7B680022C3F8F42A7B68AF
:1036A000002283F8F82A00BF0C37BD4680BC704763
:1036B00080B582B000AF78607B6893F84835022B04
:1036C0004CD17B6893F8C83A012B47D17B68D3F87B
:1036D000F42A324B1B681A447B68C3F8F42A7B68CF
:1036E000D3F8F43AB3F5FA7F4BD97B68012283F81B
:1036F000F82A7B6893F8FC3A002B0BD17B6893F88F
:10370000F23A83F00103DBB2002B03D00321786887
:10371000FFF7FBFB7B6893F8FC3A032B31D17B6806
:1037200093F8F23A83F00103DBB2002B08D07B68F8
:1037300093F8F33A052B03D8786800F031F820E0CD
:103740007B6893F8F33A052B1BD97B680122A3F819
:10375000FC2900217868FFF7D8FB12E07B6893F81A
:10376000C83A002B0ED17B68002283F8F32A7B68CD
:1037700093F8FC3A032B05D100217868FFF7C5FBCD
:1037800000E000BF7B68B3F8FC39012B02D17868F8
:10379000FFF775FF00BF0837BD4680BD0C11020062
:1037A00080B584B000AF78602B4BFB60F868FFF702
:1037B000BDFA0346032B4BD801A252F823F000BFF9
:1037C000D13701004F380100D93701002F380100EF
:1037D000786800F043F83BE0F868FFF7B3FA00219F
:1037E0007868FFF792FB7B6803F6D91318460DF053
:1037F00058FA0346012B15D97B6803F6D9131846EE
:103800000DF04FFA03460C2B0CD87B68002283F88E
:10381000F32A7B68012283F8F22A7B680022A3F84E
:10382000FC2915E07B680122A3F8FC2910E0F86868
:10383000FFF788FA7B6893F8F33A0133DAB27B68D2
:1038400083F8F32A7B68002283F8F22A00E000BFA5
:1038500000BF1037BD4680BD5031002080B588B014
:1038600002AF78607B6803F6D913FB6003233B74D7
:1038700020237B8200237B616423019307F10C03E7
:10388000009300234FF420520821034806F03CFC2B
:1038900000BF1837BD4680BD5031002080B584B0D0
:1038A00000AF78600B48FFF72BFAF860FB68022B3B
:1038B00004D17B68022283F8F02A06E0FB68012B22
:1038C00003D17B68012283F8F02A00BF1037BD4680
:1038D00080BD00BF4C02000880B483B000AF7860A8
:1038E0007B6893F8F13A022B04D17B68022283F8BB
:1038F000F02A08E07B6893F8F13A012B03D17B684A
:10390000012283F8F02A00BF0C37BD4680BC704707
:1039100080B582B000AF7860786801F06DF97B689F
:1039200093F85035002B02D0012B04D007E07868C3
:1039300000F03CF803E0786800F078F800BF00BFC2
:103940000837BD4680BDFFFF80B582B000AF78600C
:103950007B68D3F89035144898477B6893F8B43661
:10396000012B04D07B6893F88835012B04D17B6848
:10397000012283F8482513E07B68D3F8103642F221
:103980000F72934208D87B68012283F848257B6830
:10399000012283F8F92903E07B68002283F8F929E2
:1039A0000837BD4680BD00BF7433002080B582B0AB
:1039B00000AF78607B68D3F890357A6802F2545291
:1039C000104698477B6893F88835012B23D17B6894
:1039D00093F84935002B1ED1134B1B680133124A53
:1039E0001360114B1B68B3F5AF7F18D97B68D3F810
:1039F0007038632B13D87B68D3F864357A6802F289
:103A00005C52104698477B68012283F85025064B8C
:103A100000221A6003E0044B00221A6000E000BF9D
:103A200000BF0837BD4680BD6814002080B582B055
:103A300000AF78607B68D3F890357A6802F2545210
:103A4000104698477B6893F88835002B15D1194BA1
:103A50001B680133174A1360164B1B68322B25D99C
:103A60007B68D3F868357A6802F25C521046984752
:103A70007B68002283F8502518E0786802F09EFAEF
:103A80000346002BB8BF5B42B3F5FA7F0BDA094B54
:103A900000221A607B68D3F868357A6802F25C52BB
:103AA0001046984702E0034B00221A6000BF083717
:103AB000BD4680BD64140020B0B584B000AF78600E
:103AC0007B6893F8F03A012B19D10023FB730FE0C8
:103AD0007B68D3F88019FA7B13461B019B1A9B0065
:103AE0000B441B68002283F8A820FB7B0133FB7387
:103AF0007B6893F8A539FA7B9A42E9D3F7E07B68B3
:103B000093F8F83A83F00103DBB2002B40F0EE802B
:103B10000023BB736FE07B68D3F88019BA7B134630
:103B20001B019B1A9B000B441B6893F85130032B1D
:103B30005ED17B68D3F88019BA7B13461B019B1AB0
:103B40009B000B441B68303318460DF0AAF804465E
:103B50007B6803F6D91318460DF0A3F803469C4280
:103B60000DD07B68D3F88019BA7B13461B019B1AD2
:103B70009B000B441B68022283F8A82038E07B6876
:103B8000D3F88019BA7B13461B019B1A9B000B4488
:103B90001B6803F130047B6803F6D9157B6803F6D4
:103BA000D91318460DF07DF803461A4629462046DB
:103BB00000F012FB0346002B0DD07B68D3F8801970
:103BC000BA7B13461B019B1A9B000B441B68012206
:103BD00083F8A8200CE07B68D3F88019BA7B1346E1
:103BE0001B019B1A9B000B441B68022283F8A82030
:103BF000BB7B0133BB737B6893F8A539BA7B9A42D0
:103C000089D300237B7362E07B68D3F880197A7BC9
:103C100013461B019B1A9B000B441B6893F85C30F6
:103C2000032B51D17B6893F85035012B4CD07B6826
:103C3000D3F880197A7B13461B019B1A9B000B4417
:103C40001B6893F8A830022B3ED17B68D3F810365E
:103C500042F20F72934232D87B68D3F880197A7B94
:103C600013461B019B1A9B000B441B68B3F8A00072
:103C7000204B1B6899B27B68D3F880497A7B134646
:103C80001B019B1A9B0023441B68421892B2A3F8A5
:103C9000A0207B68D3F880197A7B13461B019B1AFE
:103CA0009B000B441B68B3F8A03044F6206293429B
:103CB0000AD97B7B1946786802F038FA04E07B7BEE
:103CC0001946786802F032FA7B7B01337B737B689C
:103CD00093F8A5397A7B9A4296D3786800F00CF86D
:103CE00003461A467B6883F8FA2900E000BF1037C4
:103CF000BD46B0BD0C11020080B485B000AF786045
:103D00000023FB732EE07B68D3F88019FA7B1346FF
:103D10001B019B1A9B000B441B6893F85130032B2B
:103D20001DD17B68D3F88019FA7B13461B019B1ABF
:103D30009B000B441B6893F8A830012B0DD07B68C7
:103D4000D3F88019FA7B13461B019B1A9B000B4486
:103D50001B6893F8A830002B01D1002309E0FB7BFE
:103D60000133FB737B6893F8A539FA7B9A42CAD377
:103D7000012318461437BD4680BC704790B585B006
:103D800000AF78607B6893F8FD3A022B33D17B68F3
:103D9000D3F880391B6893F85130032B07D17B6827
:103DA000D3F880391B68022283F8B4200EE07B68C8
:103DB000D3F880391B68D3F8B810AB4B1A687B680E
:103DC000D3F880391B680A44C3F8B8207B68D3F85D
:103DD00080391B68D3F8B830B3F5FA5F17D97B6820
:103DE000002283F8FD2A7B68D3F880391B68002203
:103DF000C3F8B8200BE07B6893F8FD3A012B06D19D
:103E00007B68D3F880391B68012283F8B4207B6873
:103E100093F8FE3A022B39D17B68D3F880393C33D2
:103E20001B6893F85130032B08D17B68D3F8803995
:103E30003C331B68022283F8B42010E07B68D3F87F
:103E400080393C331B68D3F8B810874B1A687B68FD
:103E5000D3F880393C331B680A44C3F8B8207B6828
:103E6000D3F880393C331B68D3F8B830B3F5FA5F28
:103E700019D97B68002283F8FE2A7B68D3F8803941
:103E80003C331B680022C3F8B8200CE07B6893F831
:103E9000FE3A012B07D17B68D3F880393C331B688D
:103EA000012283F8B4207B6893F8FF3A022B39D1C2
:103EB0007B68D3F8803978331B6893F85130032B33
:103EC00008D17B68D3F8803978331B68022283F8E5
:103ED000B42010E07B68D3F8803978331B68D3F8BE
:103EE000B810614B1A687B68D3F8803978331B6847
:103EF0000A44C3F8B8207B68D3F8803978331B684C
:103F0000D3F8B830B3F5FA5F19D97B68002283F88B
:103F1000FF2A7B68D3F8803978331B680022C3F806
:103F2000B8200CE07B6893F8FF3A012B07D17B683F
:103F3000D3F8803978331B68012283F8B42000233A
:103F4000FB737BE07B68D3F88019FA7B13461B0177
:103F50009B1A9B000B441B6893F85130032B0CD128
:103F60007B68D3F88019FA7B13461B019B1A9B00D0
:103F70000B441B680022C3F8B8207B68D3F8801973
:103F8000FA7B13461B019B1A9B000B441B6893F89A
:103F90005C30032B4FD17B6893F85035012B4AD00E
:103FA0007B68D3F88019FA7B13461B019B1A9B0090
:103FB0000B441B6893F8B430022B3CD17B68D3F8D8
:103FC000103642F20F72934230D87B68D3F88019D2
:103FD000FA7B13461B019B1A9B000B441B68D3F80A
:103FE000B000214B19687B68D3F88049FA7B1346EF
:103FF0001B019B1A9B0023441B684218C3F8B02086
:104000007B68D3F88019FA7B13461B019B1A9B002F
:104010000B441B68D3F8B03044F6206293420AD9AF
:10402000FB7B1946786802F081F804E0FB7B1946B7
:10403000786802F07BF8FB7B0133FB737B6893F8B5
:10404000A539FA7B9A42FFF47DAF786800F00EF84C
:1040500003461A467B6883F8002B786800F048F81E
:1040600000BF1437BD4690BD0C11020080B485B06E
:1040700000AF78600023FB732EE07B68D3F88019D3
:10408000FA7B13461B019B1A9B000B441B6893F899
:104090005130032B1DD17B68D3F88019FA7B13466E
:1040A0001B019B1A9B000B441B6893F8B430012B37
:1040B0000DD07B68D3F88019FA7B13461B019B1A3D
:1040C0009B000B441B6893F8B430002B01D10023F4
:1040D00009E0FB7B0133FB737B6893F8A539FA7B1E
:1040E0009A42CAD3012318461437BD4680BC704794
:1040F00080B483B000AF78607B68D3F880391B68E8
:1041000093F8B430022B0ED1324B1B7823F04003CE
:10411000DAB2304B1A702F4B1B7843F04003DAB2FF
:104120002C4B1A700AE02B4B1B7823F04003DAB2B9
:10413000284B1A70274B1A78264B1A707B68D3F8D5
:1041400080393C331B6893F8B430022B0ED1214BDD
:104150005B7823F04003DAB21E4B5A701D4B5B783C
:1041600043F04003DAB21B4B5A700AE0194B5B78FC
:1041700023F04003DAB2174B5A70164B5A78154B9E
:104180005A707B68D3F8803978331B6893F8B43061
:10419000022B0ED10F4B5B7803F07F03DAB20D4B8D
:1041A0005A700C4B5B7863F07F03DAB2094B5A709C
:1041B0000AE0084B5B7803F07F03DAB2054B5A70D4
:1041C000044B5A78034B5A7000BF0C37BD4680BC75
:1041D000704700BF6413002080B487B000AFF86060
:1041E000B9607A6000237B6110E0FA687B69134450
:1041F00093F90020B9687B690B4493F900309A4227
:1042000001D0002307E07B6901337B617A697B6819
:104210009A42EAD3012318461C37BD4680BC70473A
:1042200090B585B000AF7860AF4BBB607B6893F80A
:10423000F03A012B2BD17B68B3F8FC39032B03D167
:104240007B680022A3F8FC297B6893F8FC3A042BD6
:1042500003D100217868FEF758FE0023FB730FE0BE
:104260007B68D3F88019FA7B13461B019B1A9B00CD
:104270000B441B681846FEF7B6FDFB7B0133FB734E
:104280007B6893F8A539FA7B9A42E9D329E10023A8
:10429000BB731FE17B68D3F88019BA7B13461B01FF
:1042A0009B1A9B000B441B6893F8A830022B40F02C
:1042B000AF807B68D3F88019BA7B13461B019B1A29
:1042C0009B000B441B68012283F8BC207B68D3F859
:1042D0008019BA7B13461B019B1A9B000B441B6879
:1042E000D3F8AC00814B19687B68D3F88049BA7B5E
:1042F00013461B019B1A9B0023441B684218C3F8FA
:10430000AC207B68D3F88019BA7B13461B019B1A3B
:104310009B000B441B68D3F8AC304EF660229342EE
:1043200040F2BE807B6893F8FC3A002B14D17B6886
:10433000D3F88019BA7B13461B019B1A9B000B44D0
:104340001B6893F8A93083F00103DBB2002B03D084
:1043500004217868FEF7D9FD7B6893F8FC3A042BBA
:1043600040F09E807B68D3F88019BA7B13461B010E
:104370009B1A9B000B441B6893F8A93083F0010340
:10438000DBB2002B13D07B68D3F88019BA7B1346BD
:104390001B019B1A9B000B441B6893F8AA30052B4A
:1043A00005D8BB7B1946786800F0A2F878E07B68F6
:1043B000D3F88019BA7B13461B019B1A9B000B4450
:1043C0001B6893F8AA30052B6AD97B680322A3F8EF
:1043D000FC2900217868FEF798FD7B68D3F88019E6
:1043E000BA7B13461B019B1A9B000B441B680022DF
:1043F000C3F8AC207B68D3F88019BA7B13461B0145
:104400009B1A9B000B441B68002283F8AA2047E0FC
:104410007B68D3F88019BA7B13461B019B1A9B005B
:104420000B441B6893F8BC30002B23D07B68D3F877
:104430008019BA7B13461B019B1A9B000B441B6817
:1044400093F8A830012B15D1B868FEF76FFC03462E
:10445000022B0FD1B868FEF775FC7B68D3F8801982
:10446000BA7B13461B019B1A9B000B441B6800225E
:1044700083F8BC207B68D3F88019BA7B13461B01F4
:104480009B1A9B000B441B681846FEF7ACFC7B682C
:1044900093F8FC3A042B03D100217868FEF735FD30
:1044A0007B68D3F88019BA7B13461B019B1A9B00CB
:1044B0000B441B6893F85130032B08D07B6893F8AA
:1044C000FC3A042B03D100217868FEF71EFDBB7B6C
:1044D0000133BB737B6893F8A539BA7B9A42FFF42A
:1044E000D9AE1437BD4690BD503100200C110200EA
:1044F00080B584B000AF78600B46FB70314BFB6039
:10450000F868FEF713FC0346032B56D801A252F8B5
:1045100023F000BF25450100B945010031450100E8
:1045200063450100FB781946786800F04DF844E0D7
:10453000F868FEF707FC7B680022A3F8FC297B687B
:10454000D3F88019FA7813461B019B1A9B000B4481
:104550001B681846FEF747FC00217868FEF7D5FC7B
:104560002BE0F868FEF7EEFB7B68D3F88019FA7849
:1045700013461B019B1A9B000B441B6893F8AA105F
:104580007B68D3F88009FA7813461B019B1A9B00BD
:1045900003441B684A1CD2B283F8AA207B68D3F874
:1045A0008019FA7813461B019B1A9B000B441B6869
:1045B000002283F8A92000E000BF00BF1037BD46ED
:1045C00080BD00BF5031002080B588B002AF786058
:1045D0000B46FB707B68D3F88019FA7813461B01F1
:1045E0009B1A9B000B441B683033FB6003233B7416
:1045F00020237B8200237B61FB78053319466423EB
:10460000019307F10C030093012342F204020348D3
:1046100005F07AFD00BF1837BD4680BD503100203F
:10462000B0B584B000AFF860C7E90023FB6893F829
:10463000F939002B22D0FB68D3F8103642F67B62A2
:10464000934216D9FB68D3F81436344A934206D9FC
:10465000F86800F0B2FAFB680022C3F81426FB6881
:10466000D3F814262E4B1B681A44FB68C3F8142693
:1046700050E0FB680022C3F814264BE0FB6893F877
:104680005035012B45D0FB6893F8403A112B40D0B0
:10469000FB6893F8103A112B3BD0FB6893F8283A4B
:1046A000112B36D0FB6893F8B436012B06D0FB688B
:1046B000D3F8103642F60312934207D819494FF047
:1046C00000024FF00003C1E9002323E0144B1B68F4
:1046D00018464FF00001134BD3E90023841841EB37
:1046E0000305104BC3E900450E4BD3E900230E48E8
:1046F0004FF000018B4208BF82420BD109494FF0B5
:1047000000024FF00003C1E90023F86800F055FAF9
:1047100000E000BF1037BD46B0BD00BF40771B00B2
:104720000C1102009014002000DD6D0090B585B0E2
:1047300000AF78600023FB73F2E07B68D3F8801948
:10474000FA7B13461B019B1A9B000B4493F83830ED
:10475000002B05D0FB7B7A681344012283F83025B7
:104760007B68D3F88019FA7B13461B019B1A9B00C8
:104770000B441B6893F85130032B40F0C7807B68D3
:10478000D3F88019FA7B13461B019B1A9B000B443C
:104790001B681868AB4B19687B68D3F88049FA7BB3
:1047A00013461B019B1A9B0023441B6842181A6086
:1047B0007B68D3F88019FA7B13461B019B1A9B0078
:1047C0000B44002283F83820FB7B7A6813440022D4
:1047D00083F830257B68D3F88019FA7B13461B01D8
:1047E0009B1A9B000B441B681B68B3F5167FC0F037
:1047F0008F807B68D3F88019FA7B13461B019B1AC4
:104800009B000B441B681B6840F6B73293421BD8D1
:104810007B68D3F88019FA7B13461B019B1A9B0017
:104820000B441B6893F85C30032B73D07B68D3F880
:104830008019FA7B13461B019B1A9B000B441B68D3
:1048400093F85C300E2B65D07B68D3F89435052B3C
:104850000ED97B68D3F88019FA7B13461B019B1A8B
:104860009B000B441B681B6842F20F72934253D9A2
:104870007B68D3F88019FA7B13461B019B1A9B00B7
:104880000B441B6893F85C30032B1BD17B68D3F877
:104890008C39002B10D17B68D3F89039002B0BD1C9
:1048A000786802F0C5F8FB7B1946786801F03EFC99
:1048B000786800F063F95EE1FB7B1946786801F0E7
:1048C00035FC2AE07B68D3F88019FA7B13461B017C
:1048D0009B1A9B00CA187B68D3F894399A4203D17B
:1048E0007B680022C3F89429FB7B1946786801F0A5
:1048F0001DFC7B68D3F88019FA7B13461B019B1AB9
:104900009B000B441B6801225A6006E000BF04E0D4
:1049100000BF02E000BF00E000BFFB7B0133FB7380
:104920007B6893F8A539FA7B9A42FFF406AF7B685F
:10493000D3F880391B6893F85D30032B69D07B680E
:10494000D3F880393C331B6893F85D30032B60D07B
:104950007B68D3F8803978331B6893F85D30032B7C
:1049600057D07B68D3F880391B6893F85D30042BEF
:104970004FD07B68D3F880393C331B6893F85D30A7
:10498000042B46D07B68D3F8803978331B6893F8C2
:104990005D30042B3DD07B68D3F880391B6893F8D9
:1049A0005C30072B35D07B68D3F880393C331B68EB
:1049B00093F85C30072B2CD07B68D3F880397833A0
:1049C0001B6893F85C30072B23D07B68D3F88039C1
:1049D0001B6893F85C30022B1BD07B68D3F88039BE
:1049E0003C331B6893F85C30022B12D07B68D3F801
:1049F000803978331B6893F85C30022B09D07B68D0
:104A000093F8FA39002B04D17B6893F8003B002B14
:104A100003D00D4B00221A6010E00B4B1B680133D2
:104A2000094A1360084B1B6840F2DC52934205D9D7
:104A3000786801F0FDFF786800F0A0F80023BB73F0
:104A400095E000BF0C1102006C1400207B68D3F8C5
:104A50008019BA7B13461B019B1A9B000B441B68F1
:104A600093F85C30032B0DD07B68D3F88019BA7BA8
:104A700013461B019B1A9B000B441B6893F85C3088
:104A8000042B0DD17B68D3F88019BA7B13461B0128
:104A90009B1A9B000B441B680022A3F8602050E087
:104AA0007B68D3F88019BA7B13461B019B1A9B00C5
:104AB0000B441B6893F85C300E2B42D17B68D3F813
:104AC0008019BA7B13461B019B1A9B000B441B6881
:104AD00093F85D30032B34D17B68D3F88019BA7B0F
:104AE00013461B019B1A9B000B441A68B2F86030F6
:104AF000591C89B2A2F86010B3F5167F21D97B68E2
:104B0000D3F88019BA7B13461B019B1A9B000B44F8
:104B10001B68002283F85D207B68D3F88019BA7B7C
:104B200013461B019B1A9B000B441B680022A3F831
:104B300060207B6893F89C39013BDAB27B6883F88C
:104B40009C297B68D3F88019BA7B13461B019B1AFA
:104B50009B000B441B6893F85C30052B04D1BB7B96
:104B60001946786801F0E2FABB7B0133BB73BB7B6B
:104B7000022B7FF66BAF1437BD4690BD80B582B077
:104B800000AF78607B68012283F848257868FDF7DC
:104B9000DBFC7B6803F29453184601F085FB7868D0
:104BA000FDF76AFD7868FBF73BFC7B68184604F06C
:104BB0008FFC00BF0837BD4680BD80B582B000AF16
:104BC00078607B68042283F848257B6803F294535D
:104BD000184601F069FB7868FDF7B6FC7868FDF7C8
:104BE0004BFD7868FBF71CFC7B68184604F070FCF2
:104BF00000BF0837BD4680BD80B582B000AF786089
:104C00007B6893F8D839002B09D0584BD3E900239F
:104C1000786800F0B9F87B68002283F8D8297B68AF
:104C200093F84935062B00F29C8001A252F823F03C
:104C30004D4C0100894C0100AD4C0100D14C0100EC
:104C4000F54C0100194D01003D4D01007B6893F8C2
:104C50005035002B09D1786800F0B4FE786800F078
:104C6000D5FF786800F0A1FF7AE07B6893F85035B3
:104C7000012B75D1786801F053F8786801F017F9C5
:104C8000786800F092FF6BE0384BD3E90023786836
:104C9000FEF70CF90346002B04D000217868FEF7DC
:104CA000D8F85EE03248FEF7EFF85AE02F4BD3E930
:104CB00000237868FEF7FAF80346002B04D00021A1
:104CC0007868FEF7C6F84CE02A48FEF7DDF848E0C1
:104CD000264BD3E900237868FEF7E8F80346002B5B
:104CE00004D000217868FEF7B4F83AE02248FEF7D5
:104CF000CBF836E01D4BD3E900237868FEF7D6F8F1
:104D00000346002B04D000217868FEF7A2F828E0C3
:104D10001A48FEF7B9F824E0144BD3E90023786869
:104D2000FEF7C4F80346002B04D000217868FEF794
:104D300090F816E01248FEF7A7F812E00B4BD3E903
:104D400000237868FEF7B2F80346002B04D0002158
:104D50007868FEF77EF804E00A48FEF795F800E070
:104D600000BF00BF0837BD4680BD00BF401800200F
:104D7000214F0100D5500100E9540100554E0100BA
:104D80005153010041520100B0B487B000AFF86048
:104D9000C7E90023FB6893F84935062B41D801A2E7
:104DA00052F823F0C14D0100CF4D0100DD4D01004F
:104DB000EB4D0100F94D0100074E0100154E0100B9
:104DC0004FF000024FF00003C7E9042330E044F63F
:104DD00020624FF00003C7E9042329E044F6206273
:104DE0004FF00003C7E9042322E044F620624FF0AD
:104DF0000003C7E904231BE044F620624FF00003E0
:104E0000C7E9042314E044F620624FF00003C7E929
:104E100004230DE044F620624FF00003C7E90423A9
:104E200006E04FF000024FF00003C7E9042300BF83
:104E3000D7E90001D7E90423841841EB0305FB6897
:104E400003F51D63C3E9004500BF1C37BD46B0BC78
:104E5000704700BF80B584B000AFF860C7E9002399
:104E6000FB68D3F89439002B0AD10021F868FDF7CC
:104E7000F0FFFB6803F54C731846FDF763FF4BE04A
:104E8000FB68D3F89439002203211846FDF7C0FFD0
:104E9000FB6803F54C731846FDF748FF0346022BE9
:104EA00022D1FB6893F86834002B1DD1FB68D3F83E
:104EB00094391B6803211846FDF782FFF86801F05A
:104EC000DCF8FB6893F89C390133DAB2FB6883F8AD
:104ED0009C290021F868FDF7BCFFFB6803F54C73C3
:104EE0001846FDF72FFF17E0FB6803F54C731846D3
:104EF000FDF71CFF0346032B0ED1FB6893F86834C3
:104F0000002B09D10021F868FDF7A3FFFB6803F52A
:104F10004C731846FDF716FF1037BD4680BDFFFFE6
:104F200080B586B000AFF860C7E900230023FB75A9
:104F300022E0FA7DFB6802F2622253F82230002B55
:104F400016D0FA7DFB6802F2622253F822301B6809
:104F500093F85D30032B0CD1FA7DFB6802F26222DC
:104F600053F82230012204211846FDF751FF06E0D4
:104F700000BFFB7D0133FB75FB7D022BD9D9FB689C
:104F800003F54C731846FDF7D1FE0346022B40F0A3
:104F90008180FB6893F86834012B7BD10023BB75BB
:104FA00033E0BA7DFB6802F2622253F82230002B14
:104FB00027D0BA7DFB6802F2622253F822301B68C8
:104FC00093F85D30032B1DD1BA7DFB6802F262229B
:104FD00053F82220FB68D3F884399A4212D1BA7D63
:104FE000FB6802F2622253F822301B680421184643
:104FF000FDF7E6FEFB6803F54C731846FDF7A2FECD
:1050000000E000BFBB7D0133BB75BB7D022BC8D95F
:1050100000237B7528E07A7DFB6802F2622253F858
:105020002230002B1CD07A7DFB6802F2622253F8FA
:1050300022301B6893F85D30032B12D1FB6803F517
:105040004C731846FDF77EFE7A7DFB6802F2622201
:1050500053F82230012204211846FDF7D9FE31E031
:1050600000BF7B7D01337B757B7D022BD3D9022171
:10507000F868FDF7EEFE154B4FF47A721A60144B88
:105080004FF47A721A80FB6803F54C731846FDF7EB
:1050900059FE17E0FB6803F54C731846FDF746FE12
:1050A0000346032B0ED1FB6893F86834012B09D11A
:1050B0000021F868FDF7CDFEFB6803F54C73184638
:1050C000FDF740FE1837BD4680BD00BF48140020E4
:1050D0007014002080B584B000AFF860C7E90023E9
:1050E00001F0C8F8034683F00103DBB2002B40F067
:1050F0009C80FB68D3F89439002B0AD10521F8680D
:10510000FDF7A7FEFB6803F54C731846FDF71AFE82
:105110008CE0FB6893F85035012B0BD1454B1B6895
:105120000A2B07D9434B1A68434B1B68D31A414AD1
:1051300013607BE0FB68D3F8943902220321184600
:10514000FDF766FEFB6803F54C731846FDF7EEFDB0
:105150000346022B48D1FB6893F86834022B43D1F5
:10516000FB6893F85035002B1BD1FB68D3F89439BA
:105170001B6803211846FDF723FEF86800F07DFF49
:10518000FB6893F89C390133DAB2FB6883F89C29F9
:105190000321F868FDF75DFE284B4FF47A721A8000
:1051A0001BE0FB6893F85035012B16D1FB68D3F850
:1051B00094391B6803211846FDF702FEFB6893F83B
:1051C0009C390133DAB2FB6883F89C29F86800F057
:1051D00054FF0021F868FDF73CFEFB6803F54C73B3
:1051E0001846FDF7AFFD21E0FB6803F54C73184648
:1051F000FDF79CFD0346032B18D1FB6893F8683438
:10520000022B13D1FB68D3F894391B680021184690
:10521000FDF7D6FD0521F868FDF71BFEFB6803F5D9
:105220004C731846FDF78EFD00E000BF1037BD46F9
:1052300080BD00BF481400200C1102007014002033
:1052400080B584B000AFF860C7E9002301F012F820
:10525000034683F00103DBB2002B75D1FB68D3F862
:105260009439002B0AD10021F868FDF7F2FDFB68A4
:1052700003F54C731846FDF765FD66E0FB68D3F84F
:10528000C435FA6802F2BC50C82201219847FB6875
:10529000D3F8CC35FA6802F2BC5210469847FB6846
:1052A000D3F89439032203211846FDF7B1FDFB68BA
:1052B00003F54C731846FDF739FD0346022B22D146
:1052C000FB6893F86834032B1DD1FB68D3F894393D
:1052D0001B6803211846FDF773FDF86800F0CDFE4A
:1052E000FB6893F89C390133DAB2FB6883F89C2998
:1052F0000021F868FDF7ADFDFB6803F54C73184617
:10530000FDF720FD21E0FB6803F54C731846FDF71F
:105310000DFD0346032B18D1FB6893F86834032B6B
:1053200013D1FB68D3F894391B6800211846FDF7A8
:1053300047FD0021F868FDF78CFDFB6803F54C7311
:105340001846FDF7FFFC00E000BF1037BD4680BDEA
:1053500080B586B000AFF860C7E900230023FB7575
:1053600022E0FA7DFB6802F2622253F82230002B21
:1053700016D0FA7DFB6802F2622253F822301B68D5
:1053800093F85D30042B0CD1FA7DFB6802F26222A7
:1053900053F82230042203211846FDF739FD06E0B8
:1053A00000BFFB7D0133FB75FB7D022BD9D9FB6868
:1053B00003F54C731846FDF7B9FC0346022B78D170
:1053C000FB6893F86834042B73D10023BB7533E07A
:1053D000BA7DFB6802F2622253F82230002B27D0FC
:1053E000BA7DFB6802F2622253F822301B6893F800
:1053F0005D30042B1DD1BA7DFB6802F2622253F8A6
:105400002220FB68D3F884399A4212D1BA7DFB6816
:1054100002F2622253F822301B6803211846FDF77E
:10542000CFFCFB6803F54C731846FDF78BFC00E0DE
:1054300000BFBB7D0133BB75BB7D022BC8D90023E8
:105440007B7528E07A7DFB6802F2622253F82230F5
:10545000002B1CD07A7DFB6802F2622253F82230C6
:105460001B6893F85D30042B12D1FB6803F54C7375
:105470001846FDF767FC7A7DFB6802F2622253F85A
:105480002230042203211846FDF7C2FC29E000BFA8
:105490007B7D01337B757B7D022BD3D90021F8689E
:1054A000FDF7D7FCFB6803F54C731846FDF74AFC83
:1054B00017E0FB6803F54C731846FDF737FC03460D
:1054C000032B0ED1FB6893F86834042B09D100211B
:1054D000F868FDF7BEFCFB6803F54C731846FDF752
:1054E00031FC1837BD4680BD80B586B000AFF8608E
:1054F000C7E9002300F0BEFE034683F00103DBB2E0
:10550000002B40F0A781FB6893F85035002B29D180
:105510000023FB7522E0FA7DFB6802F2622253F859
:105520002230002B16D0FA7DFB6802F2622253F87B
:1055300022301B6893F85D30042B0CD1FA7DFB6898
:1055400002F2622253F82230052200211846FDF7AC
:105550005FFC30E000BFFB7D0133FB75FB7D022B60
:10556000D9D928E00023BB7522E0BA7DFB6802F29E
:10557000622253F82230002B16D0BA7DFB6802F26B
:10558000622253F822301B6893F85D30032B0CD154
:10559000BA7DFB6802F2622253F822300522002114
:1055A0001846FDF735FC06E000BFBB7D0133BB7537
:1055B000BB7D022BD9D9FB6803F54C731846FDF768
:1055C000B5FB0346022B40F02C81FB6893F868344E
:1055D000052B40F02681FB6893F85035002B40F0F6
:1055E000868000237B7545E07A7DFB6802F26222AB
:1055F00053F82230002B39D07A7DFB6802F2622208
:1056000053F822301B6893F85D30042B2FD17A7D3C
:10561000FB6802F2622253F82220FB68D3F8843937
:105620009A4224D17A7DFB6802F2622253F822303A
:105630001B6800211846FDF7C3FB7A7DFB6802F268
:105640006222002143F82210F86800F0E2FDFB68B6
:1056500093F89C39013BDAB2FB6883F89C29FB681C
:1056600003F54C731846FDF76DFB00E000BF7B7D32
:1056700001337B757B7D022BB6D900233B7528E077
:105680003A7DFB6802F2622253F82230002B1CD0D4
:105690003A7DFB6802F2622253F822301B6893F8CD
:1056A0005D30042B12D1FB6803F54C731846FDF7EF
:1056B00049FB3A7DFB6802F2622253F82230052250
:1056C00000211846FDF7A4FBC5E000BF3B7D013378
:1056D0003B753B7D022BD3D90021F868FDF7B9FB60
:1056E000FB6803F54C731846FDF72CFB92E0FB6852
:1056F00093F85035012B40F08D800023FB7445E07A
:10570000FA7CFB6802F2622253F82230002B39D077
:10571000FA7CFB6802F2622253F822301B6893F88D
:105720005D30032B2FD1FA7CFB6802F2622253F822
:105730002220FB68D3F884399A4224D1FA7CFB6892
:1057400002F2622253F822301B6800211846FDF74E
:1057500037FBFA7CFB6802F26222002143F8221038
:10576000F86800F056FDFB6893F89C39013BDAB20B
:10577000FB6883F89C29FB6803F54C731846FDF71A
:10578000E1FA00E000BFFB7C0133FB74FB7C022BE1
:10579000B6D90023BB7428E0BA7CFB6802F262220F
:1057A00053F82230002B1CD0BA7CFB6802F2622234
:1057B00053F822301B6893F85D30032B12D1FB683D
:1057C00003F54C731846FDF7BDFABA7CFB6802F28C
:1057D000622253F82230052200211846FDF718FBFB
:1057E00039E000BFBB7C0133BB74BB7C022BD3D937
:1057F0001A4B4FF47A721A80194B42F210721A60E7
:105800000221F868FDF725FBFB6803F54C73184689
:10581000FDF798FAFB6803F54C731846FDF792FA0A
:1058200019E0FB6803F54C731846FDF77FFA034651
:10583000032B10D1FB6893F86834052B0BD10021A2
:10584000F868FDF706FBFB6803F54C731846FDF797
:1058500079FA00E000BF1837BD4680BD7014002003
:105860004814002080B586B000AFF860C7E9002377
:105870000023FB752CE0FB68D3F88019FA7D1346F2
:105880001B019B1A9B000B441B6893F85130032BA0
:105890001BD1FB68D3F88019FA7D13461B019B1AB4
:1058A0009B000B441B6893F85C300E2B0DD1FB68FA
:1058B000D3F88019FA7D13461B019B1A9B000B44F9
:1058C000062203211846FDF7A3FAFB7D0133FB7581
:1058D000FB7D022BCFD9FB6803F54C731846FDF70F
:1058E00025FA0346022B54D1FB6893F86834062B43
:1058F0004FD1FB6803F54C731846FDF723FA0023DC
:10590000BB7542E0FB68D3F88019BA7D13461B01D2
:105910009B1A9B00CA18FB68D3F884399A4231D18C
:10592000FB6803F54C731846FDF70CFAFB68D3F8D7
:105930008019BA7D13461B019B1A9B000B441B6800
:1059400003211846FDF73CFAFB68D3F88019BA7DAD
:1059500013461B019B1A9B00CA18FB68C3F88829D1
:10596000FB6893F89C390133DAB2FB6883F89C2911
:105970000221F868FDF75EFAFB6803F294531846BB
:10598000FDF7B7FABB7D0133BB75BB7D022BB9D9DF
:1059900014E0FB6803F54C731846FDF7C7F903469E
:1059A000032B0BD1FB6893F86834062B06D1FB68F8
:1059B00003F54C731846FDF7C5F9FFE700BF18372C
:1059C000BD4680BD80B586B000AF78607B680022A0
:1059D000C3F89429786800F083FB02467B68C3F81B
:1059E00098290023FB75D4E07B68D3F88019FA7DF1
:1059F00013461B019B1A9B000B441B6893F8513004
:105A0000032B40F0BC807B68D3F88019FA7D1346E5
:105A10001B019B1A9B000B441B6893F85D30032B02
:105A200000F0AD807B68D3F88019FA7D13461B0126
:105A30009B1A9B000B441B689B6E002B00F09F8001
:105A40007B68D3F88019FA7D13461B019B1A9B00D3
:105A50000B441B6893F85C30052B00F090807B684A
:105A6000D3F88019FA7D13461B019B1A9B000B4447
:105A70001B6893F8A830022B00F081807B68D3F874
:105A80008019FA7D13461B019B1A9B000B441B686F
:105A900093F8B430022B72D07B68D3F89439002B82
:105AA0000CD17B68D3F88019FA7D13461B019B1A31
:105AB0009B00CA187B68C3F8942967E07B68D3F819
:105AC0009839002B5DD07B68D3F894391B689A6EA7
:105AD0007B68D3F898391B689B6ED31A3B617B684F
