:020000021000EC
:10000000F03D002089A00100C1A4010097A00100DB
:1000100097A0010097A0010097A0010097A0010000
:1000200000000000000000000000000097A0010098
:1000300097A001000000000097A0010097A0010018
:1000400005B7010003B80100B3B8010003B801000F
:10005000B3B8010099BE01008BCD0100BBCC0100FB
:1000600047CE010091CE0100D3AF010099BE01003F
:1000700099BE0100B9CF010025D9010089D801003E
:1000800069C4010000000000000000000000000042
:100090000000000000000000000000000000000060
:1000A0000000000000000000000000000000000050
:1000B0000000000000000000000000000000000040
:1000C0000000000000000000000000000000000030
:1000D0000000000000000000000000000000000020
:1000E0000000000000000000000000000000000010
:1000F0000000000000000000000000000000000000
:1001000000000000000000000000000000000000EF
:1001100000000000000000000000000000000000DF
:1001200000000000000000000000000000000000CF
:1001300000000000000000000000000000000000BF
:1001400000000000000000000000000000000000AF
:10015000000000000000000000000000000000009F
:10016000000000000000000000000000000000008F
:10017000000000000000000000000000000000007F
:10018000000000000000000000000000000000006F
:10019000000000000000000000000000000000005F
:1001A000000000000000000000000000000000004F
:1001B000000000000000000000000000000000003F
:1001C000FFFFFFFFFFFFFFFFFFFFFFFFFFFFFFFF3F
:1001D000FFFFFFFFFFFFFFFFFFFFFFFFFFFFFFFF2F
:1001E000FFFFFFFFFFFFFFFFFFFFFFFFFFFFFFFF1F
:1001F000FFFFFFFFFFFFFFFFFFFFFFFFFFFFFFFF0F
:1002000010B5054C237833B9044B13B1044800E012
:1002100000BF0123237010BDF01200200000000079
:10022000B8F5010008B5034B1BB10349034800E0D2
:1002300000BF08BD00000000F4120020B8F5010066
:1002400080B500AF0DF008FD0DF00EFE0DF042FD83
:100250000DF03AFC0DF016FE00BF80BD80B487B0F3
:1002600000AFF860B9601346FB800023FB820AE010
:10027000FB8ABA681A44FB8AF9680B4412781A7030
:10028000FB8A0133FB82FA8AFB889A42F0D300BFD3
:1002900000BF1C37BD4680BC704780B485B000AF3E
:1002A00078607B681B783B727B685B787B723B89EC
:1002B00018461437BD4680BC704780B485B000AF87
:1002C00078607B681B783B727B685B787B727B68AD
:1002D0009B78BB727B68DB78FB72BB68184614376F
:1002E000BD4680BC704780B483B000AF78607B6847
:1002F00093F8613018460C37BD4680BC704780B417
:1003000083B000AF78607B68002283F8612000BF73
:100310000C37BD4680BC704780B483B000AF7860B6
:100320000B46FB707B68FA7883F8512000BF0C37CE
:10033000BD4680BC704780B582B000AF7860396040
:100340007B68D3F8303139687868984700BF083740
:10035000BD4680BD80B582B000AF78607B689B6889
:10036000002B04D07B689B687868984700E000BF4A
:100370000837BD4680BD80B582B000AF78607B682D
:10038000DB68002B04D07B68DB687868984700E066
:1003900000BF0837BD4680BD80B582B000AF786031
:1003A0000B46FB70FB7819467868FFF7B5FF00BF76
:1003B0000837BD4680BD80B483B000AF78607B68ED
:1003C00000221A6000BF0C37BD4680BC704780B564
:1003D00082B000AF78607B6808331846FFF7BAFF39
:1003E00000BF0837BD4680BD80B582B000AF7860E1
:1003F0007B6808331846FFF7BEFF00BF0837BD46CD
:1004000080BD80B483B000AF78600B46FB707B6822
:10041000FA7883F8402500BF0C37BD4680BC704792
:1004200080B584B000AF78607B6893F87D391A4658
:100430004D4B4E49786806F056FE7B6804229A6060
:100440007B684FF4C0625A647B684FF4B0621A64F0
:100450007B68474AC3F830217B68464AC3F8342199
:100460007B68454AC3F82C257B68444AC3F830258D
:100470007B68434AC3F838257B68424AC3F83C2569
:100480007B68414AC3F83425404937480DF0DEFC0B
:100490007B6800225A700023FB7341E07B68D3F82D
:1004A0005819FA7B13461B019B1A9B00CA18FB7B49
:1004B00012682E4941F82320FB7B2C4A52F8233046
:1004C00004229A60FB7B294A52F8233000221A60EA
:1004D000FB7B264A52F823309A68FB7B234951F86C
:1004E000233002F5B062DA600023BB730AE0FB7BC5
:1004F0001E4A52F82320BB7B134400221A74BB7B94
:100500000133BB73BB7B1F2BF1D9FB7B174A52F81E
:10051000233000211846FFF7FFFEFB7B0133FB73FE
:10052000FA7B7B685B689A42B8D300237B7310E048
:100530007B68D3F858197A7B13461B019B1A9B00E2
:100540000B441B6802211846FFF726FF7B7B013313
:100550007B737B6893F87D397A7B9A42E8D300BF3E
:1005600000BF1037BD4680BD902C00201013002026
:1005700091050100C1050100F10501006D060100B2
:10058000690E0100450701007507010049110100CE
:1005900080B582B000AF78603960084BD3F8581945
:1005A0003A6813461B019B1A9B000B441846FFF741
:1005B0001BFF00BF0837BD4680BD00BF582D00207F
:1005C00080B582B000AF78603960084BD3F8581915
:1005D0003A6813461B019B1A9B000B441846FFF711
:1005E000F6FE00BF0837BD4680BD00BF582D002075
:1005F00080B584B000AFF860C7E90023F9684FF018
:1006000000024FF00003C1E90623FB6806221A74BA
:10061000154B93F84035002B0CD1F86807F0C2F960
:10062000FB68072283F86824D7E900230E4807F007
:10063000FDF914E00C4B93F84035012B04D00A4B24
:1006400093F84035022B0AD1FB685B6A03211846F8
:10065000FFF762FED7E90023F86807F0B1F800BFA2
:100660001037BD4680BD00BF582D002080B584B036
:1006700000AFF860C7E90023FB685B6A00211846F9
:10068000FFF74AFE2D4B93F84035002B32D12C4B0F
:100690001B780133DAB22A4B1A70294B1B78012BD5
:1006A00005D8D7E90023F86806F072FD42E0244B34
:1006B00000221A70F86807F054F903461946F868E2
:1006C000FFF739FE0221F86807F022F90246FB68BD
:1006D0005A62FB685B6A002B06D1184802F018FFCB
:1006E000FB6806221A7425E0D7E90023F86806F0B3
:1006F0004FFD1FE0114B93F84035012B04D00F4BF9
:1007000093F84035022B15D1FB685B6A9A68FB6849
:100710009B68D31A1946F868FFF70DFED7E9002346
:10072000F86807F04DF8FB68D3F828315A1CFB68CD
:10073000C3F828211037BD4680BD00BF582D0020CA
:100740000C13002080B485B000AFF860C7E9002327
:10075000074B93F84135002B04D1FB680022C3F806
:10076000202100E000BF1437BD4680BC704700BFA9
:10077000582D002080B584B000AFF860C7E9002391
:10078000FB685B6A03211846FFF7C6FD054804F0C5
:10079000E1F802210348FFF734FE00BF1037BD46E1
:1007A00080BD00BF582D002080B582B000AF7860BA
:1007B0007B6803F54C731846FFF795FD0346032B42
:1007C0000FD10B4B1B885A1C91B2094A1180B3F50B
:1007D0007A7F09D97B6803F54C731846FFF78FFDC4
:1007E00002E0034B00221A8000BF0837BD4680BDDF
:1007F0000E130020B0B5BCB000AF78607B6807F185
:10080000140003F26943BD2219460EF089FC7B688F
:1008100003F26943C7F8E4307B6803F28C53C7F8EE
:10082000E030BB4BC7F8DC303B7D002B3FD07B7DFD
:100830005B09DBB203F00303DAB2B64B83F8B025F1
:10084000BA7DB44B83F89A25FA7DB24B83F899258B
:100850003A7EB04B83F898257B7E1A46AD4BC3F8A1
:100860009425BB7E1A46AB4BC3F8902507F11403C1
:10087000013306331846FFF710FD034618460EF005
:10088000B1F90346D7F8DC1018460EF0FFF903461D
:1008900018460EF0E7FB03469E4AC2F88C35D7F89F
:1008A000E43000221A70D7F8E03001221A627B7F10
:1008B000002B3CD0FA7F974B83F89D2597F820209A
:1008C000944B83F89C2597F82120924B83F89B2525
:1008D000904BD3F88C388F4AC2F8843807F1140350
:1008E0000A3304331846FFF7E8FC0346894AC2F886
:1008F0008C38884BD3F88C28864BD3F884389A42AE
:1009000003D2844B0022C3F88428824BD3F88C286E
:10091000804BD3F88438D31A7E4AC2F848387D4BCE
:10092000012283F82429D7F8E43000225A7297F87C
:100930002630002B08D097F82E20764B83F8A4257C
:10094000D7F8E43000229A74002387F8EF307EE273
:10095000704BD3F8581997F8EF2013461B019B1AD8
:100960009B000B441B6893F85130032B40F06982C5
:1009700097F8EF30362202FB03F307F1F00213443D
:10098000C13B1B78002B00F0B38097F8EF3007F1E4
:100990001402362101FB03F318331344191D07F128
:1009A0000C0308221846FFF759FC07F10C03184600
:1009B000FFF773FC03461A4613469B0013445B0083
:1009C000C7F8D830D7F8D83047F23052934212D90E
:1009D000D7F8D830504A93420DD84E4BD3F8581917
:1009E00097F8EF2013461B019B1A9B000B441B68D2
:1009F000D7F8D8209A6607F10C0302331846FFF7A0
:100A00004CFC03461BB21A466FF0090303FB02F3CA
:100A1000C7F8D430D7F8D430404A934212DBD7F825
:100A2000D4303F4A93420DDC3A4BD3F8581997F82B
:100A3000EF2013461B019B1A9B000B441B68D7F841
:100A4000D4201A67334BD3F8581997F8EF20134680
:100A50001B019B1A9B000B441B683A7C83F86320A4
:100A60003B7C98B22B4BD3F8581997F8EF201346DC
:100A70001B019B1A9B000B441B6802461146890010
:100A80000A44520092B2A3F86420224BD3F85819BA
:100A900097F8EF2013461B019B1A9B000B441B6821
:100AA0007A7C83F85C2007F10C0306331846FFF7C5
:100AB000F4FB03461846174BD3F8581997F8EF2064
:100AC00013461B019B1A9B000B441B68C2B283F8A0
:100AD0009E20104B012283F8972997F8EF30D7F822
:100AE000E420362101FB03F313441B3300221A7068
:100AF00097F8EF30362202FB03F307F1F0021344BC
:100B0000B83B1B78002B44D0002387F8EE3031E04F
:100B10000A07CA3D582D0020F724010081C7FEFFB7
:100B20007F38010097F8EF3007F11402362101FBFE
:100B300003F320331344053397F8EE20520098183E
:100B4000C84BD3F8581997F8EF2013461B019B1A8E
:100B50009B000B441C6897F8EE50FFF79EFB034682
:100B60001A4605F13C0324F8132097F8EE300133C0
:100B700087F8EE3097F8EE30032BD3D997F8EF30A3
:100B8000D7F8E420362101FB03F313442433002279
:100B90001A7097F8EF30362202FB03F307F1F002E8
:100BA0001344AF3B1B78002B3BD0002387F8ED307C
:100BB00028E097F8EF3007F11402362101FB03F328
:100BC00028331344063397F8ED2052009818A54BAC
:100BD000D3F8581997F8EF2013461B019B1A9B0076
:100BE0000B441C6897F8ED301D1DFFF756FB0346BC
:100BF0001A4605F13C0324F8132097F8ED30013331
:100C000087F8ED3097F8ED30032BD2D997F8EF3015
:100C1000D7F8E420362101FB03F313442D330022DF
:100C20001A7097F8EF30362202FB03F307F1F00257
:100C30001344A63B1B78002B70D08A4BD3F858196D
:100C400097F8EF2013461B019B1A9B000B441B686F
:100C500003F1980097F8EF3007F11402362101FBF9
:100C600003F330331344073306221946FFF7F6FA2D
:100C700097F8EF107B4BD3F8580997F8EF201346FD
:100C80001B019B1A9B0003441B684A1C362101FB75
:100C900002F207F1F0010A44D53A127883F89F2056
:100CA00097F8EF30362202FB03F307F1F00213440A
:100CB0009E3B1B7887F8D33097F8D330002B22D097
:100CC00097F8D330092B1ED8664BD3F8581997F8EC
:100CD000EF2013461B019B1A9B000B441B68B3F8C3
:100CE000640097F8D33099B25E4BD3F8584997F81F
:100CF000EF2013461B019B1A9B0023441B684218DC
:100D000092B2A3F8642097F8EF30D7F8E4203621A8
:100D100001FB03F31344363300221A7097F8EF30C7
:100D2000362202FB03F307F1F00213449D3B1B78CC
:100D3000002B3CD0002387F8EC3029E097F8EF3007
:100D400007F11402362101FB03F33833134408334F
:100D500097F8EC2052009818424BD3F8581997F89E
:100D6000EF2013461B019B1A9B000B441C6897F84D
:100D7000EC3003F10805FFF790FA03461A4605F137
:100D80003C0324F8132097F8EC30013387F8EC305B
:100D900097F8EC30032BD1D997F8EF30D7F8E4204F
:100DA000362101FB03F313443F3300221A7097F8F6
:100DB000EF30362202FB03F307F1F0021344943BB9
:100DC0001B78002B3ED0002387F8EB3029E097F802
:100DD000EF3007F11402362101FB03F340331344D3
:100DE000093397F8EB20520098181E4BD3F8581986
:100DF00097F8EF2013461B019B1A9B000B441C68BD
:100E000097F8EB3003F10C05FFF747FA03461A4653
:100E100005F13C0324F8132097F8EB30013387F8F1
:100E2000EB3097F8EB30032BD1D997F8EF30D7F8A8
:100E3000E420362101FB03F31344483300221A70E7
:100E400000E000BF97F8EF30013387F8EF3097F8F4
:100E5000EF30022B7FF67CAD00BF00BFF037BD4600
:100E6000B0BD00BF582D002080B586B000AF7860BF
:100E70007B68D3F82431DB6B23F07F037B617B68D5
:100E8000D3F82431DB6BDBB203F07F03FB74002368
:100E9000BB747B6803F26943FB60FB7C022B11D1BE
:100EA0007B69B3F5C07F0DD1FB6801221A70FB6826
:100EB000581C7B68D3F82431943308221946FFF775
:100EC000CDF93BE1FB7C022B12D17B69B3F5207F8E
:100ED0000ED1FB6801225A72FB6803F10A007B689D
:100EE000D3F82431943308221946FFF7B7F925E1E6
:100EF000FB7C022B11D17B69B3F5607F0DD1FB68C0
:100F000001229A74FB6803F113007B68D3F8243143
:100F1000943308221946FFF7A1F97B689B68DBB27E
:100F2000FA7CD31ABB74BA7C7B685B689A4280F007
:100F30000281844BD3F85819BA7C13461B019B1AC3
:100F40009B000B441B681846FFF735FA7D4BD3F81E
:100F50005819BA7C13461B019B1A9B000B441B6853
:100F600093F85130032B0BD0764BD3F85819BA7C39
:100F700013461B019B1A9B000B44012283F8382067
:100F8000704BD3F85819BA7C13461B019B1A9B006F
:100F90000B441B6893F85130032B40F0CF807B69E2
:100FA000B3F5906F77D07B69B3F5906F00F2C58091
:100FB0007B69B3F5607F54D07B69B3F5607F00F245
:100FC000BC807B69B3F5407F00F09A807B69B3F504
:100FD000407F00F2B2807B69B3F5207F27D07B6928
:100FE000B3F5207F00F2A9807B69B3F5C07F04D000
:100FF0007B69B3F5007F68D09FE0BB7CFA6836213F
:1010000001FB03F313441B3301221A70BB7C36220D
:1010100002FB03F31833FA681344181D7B68D3F8F6
:101020002431943308221946FFF718F986E0BB7C77
:10103000FA68362101FB03F31344243301221A70AA
:10104000BB7C362202FB03F32033FA681344581D9D
:101050007B68D3F82431943308221946FFF7FEF851
:101060006CE0BB7CFA68362101FB03F313442D339B
:1010700001221A70BB7C362202FB03F32833FA6884
:101080001344981D7B68D3F8243194330822194601
:10109000FFF7E4F852E0BB7CFA68362101FB03F36A
:1010A0001344363301221A70BB7C362202FB03F351
:1010B0003033FA681344D81D7B68D3F82431943355
:1010C00008221946FFF7CAF838E0BB7CFA683621D7
:1010D00001FB03F313443F3301221A70BB7C362219
:1010E00002FB03F33833FA68134403F108007B680A
:1010F000D3F82431943308221946FFF7AFF81DE0E6
:10110000BB7CFA68362101FB03F313444833012208
:101110001A70BB7C362202FB03F34033FA68134497
:1011200003F109007B68D3F824319433082219466F
:10113000FFF794F802E000BF00E000BF1837BD469B
:1011400080BD00BF582D002080B584B000AF78600E
:101150007B68DA6B7B6894331946104604F078FAA2
:101160007B68DB6BFB607B68DB6B23F07F03B3F595
:10117000906F1AD0B3F5906F1DD8B3F5607F14D07F
:10118000B3F5607F17D8B3F5407F0ED0B3F5407F3D
:1011900011D8B3F5207F08D0B3F5207F0BD8B3F575
:1011A000C07F02D0B3F5007F05D1254BD3F8383589
:1011B0002348984741E000BF214BDB68FA689A4218
:1011C0003BD11F4B1B7C002B19D11D4BD3F8243175
:1011D0001B4AD2689A621A4BD3F8243100229A63D0
:1011E000174BD3F82421164BD3F8243184331946F6
:1011F00010460CF091FD124B01221A741AE0104BAC
:101200001B7C022B03D10E4B03221A7412E00C4BF1
:101210001B7C042B0ED17B6893F894301A46084B44
:101220005B6A9B689A4207D1064BD3E900230448C6
:1012300005F0AEFF00BF00E000BF1037BD4680BD27
:10124000582D00207817002080B500AF0A4B93F886
:10125000D33983F00103DBB2002B0BD1064B002204
:1012600083F8D3290121642009F070F8024804F0C2
:1012700047F800E000BF80BD582D002080B483B047
:1012800000AF0346FB800949FB881B0A9BB21A4644
:10129000FB88DBB21201134451F82330C3F340033F
:1012A000DBB218460C37BD4680BC704700080840CA
:1012B00080B582B000AF78607B689B68002B04D05B
:1012C0007B689B687868984700E000BF0837BD4698
:1012D00080BD80B582B000AF78607B68DB68002B92
:1012E00004D07B68DB687868984700E000BF083767
:1012F000BD4680BD80B483B000AF78600B46FB7004
:101300007B68FA781A7000BF0C37BD4680BC704706
:1013100080B582B000AF78607B685B4AC3F8342840
:101320007B685A4AC3F830287B68594AC3F8B0260C
:101330007B68584AC3F8B4267B68574AC3F8B82676
:101340007B68564AC3F8D0267B68554AC3F8D42632
:101350007B68544AC3F8D8267B68534AC3F8DC2616
:101360007B68524AC3F8F0267B68514AC3F8F426DA
:101370007B68504AC3F8F8267B684F4AC3F8FC26BE
:101380007B684E4AC3F810277B684D4AC3F8142780
:101390007B684C4AC3F818277B684B4AC3F81C2764
:1013A0007B684A4AC3F82C267B68494AC3F8302632
:1013B0007B68484AC3F834267B68474AC3F84C2602
:1013C0007B68464AC3F850267B68454AC3F85426D2
:1013D0007B68444AC3F88C267B68434AC3F890264E
:1013E0007B68424AC3F894267B68414AC3F8502779
:1013F0007B68404AC3F830277B683F4AC3F87027B0
:101400007B683E4AC3F874277B683D4AC3F8782757
:101410007B683C4AC3F86C267B68354AC3F8502782
:101420007B68394AC3F854277B68384AC3F8582781
:101430007B68374AC3F814287B68364AC3F81828F3
:101440007B68354AC3F8F4277B68344AC3F8F82729
:101450007B68334AC3F890277B68324AC3F8B027C9
:101460007B6842F22502C3F8A4277B682E4AC3F8A2
:10147000D0277B6803F5C463184604F041FF00BF22
:101480000837BD4680BD00BFB521010041200100E5
:1014900015160100C91B0100391E01004D15010080
:1014A000ED1C0100B11E01000D1D0100951501008C
:1014B0003D1D0100D11E0100D91F0100B31501001F
:1014C0005D1D0100F11E01000D200100CF1501007E
:1014D0007D1D0100111F0100E3150100911D010098
:1014E000251F0100E1160100B11D0100451F01008B
:1014F00001160100B1160100B5180100D51D01004B
:10150000751F0100C5160100C31D0100591F010010
:10151000211E0100C11F0100FD1D01009D1F0100D2
:10152000B51A0100FD1601002D15010080B584B02B
:1015300000AF786040F20110FFF7A0FE0346FB7396
:10154000FB7B18461037BD4680BDFFFF80B584B0D9
:1015500000AF786040F20740FFF790FE0346FB7350
:101560000B4B1B7823F00203DAB2094B1A70084BBD
:101570001B785AB2FB7B5B005BB213435BB2DAB2FF
:10158000034B1A70FB7B18461037BD4680BD00BF69
:101590001C13002080B584B000AF786040F20130A9
:1015A000FFF76CFE0346FB73FB7B18461037BD4606
:1015B00080BD80B584B000AF78600F20FFF75EFE7D
:1015C0000346FB73FB7B18461037BD4680BD80B4D5
:1015D00083B000AF7860002318460C37BD4680BC4E
:1015E000704780B584B000AF786040F20940FFF7E3
:1015F00045FE0346FB73FB7B18461037BD4680BD96
:1016000080B483B000AF7860002318460C37BD4625
:1016100080BC704780B584B000AF78607B681B7871
:10162000FB734FF48160FFF729FE0346BB73BA7B5F
:10163000FB7B9A421AD01B4B1B785A1CD1B2194A19
:1016400011700A2B12D9184B1B7823F00103DAB260
:10165000154B1A70144B1A78BB7B1343DAB2124B3A
:101660001A70104B00221A70BB7B17E0BA7BFB7B11
:101670009A4202D10B4B00221A700C4B93F82D3179
:10168000012B0AD1084B1B7823F00103DAB2064B79
:101690001A70054B1A78044B1A70FB7B18461037EA
:1016A000BD4680BD251300201C130020582D0020AE
:1016B00080B483B000AF7860002318460C37BD4675
:1016C00080BC704780B582B000AF78604FF4007086
:1016D000FFF7D4FD0346DBB218460837BD4680BD90
:1016E00080B582B000AF78604FF40070FFF7C6FDA0
:1016F0000346DBB218460837BD4680BD80B582B0D0
:1017000000AF78607B681B78002B16D1644B5B7848
:1017100023F01003DAB2624B5A70614B5A78604B77
:101720005A705F4B5B7823F02003DAB25C4B5A703F
:101730005B4B5A785A4B5A7036E05A4B1B78002B49
:1017400019D0574B5B7823F01003DAB2544B5A7020
:10175000534B5A78524B5A70514B5B7823F020030D
:10176000DAB24F4B5A704E4B5B7843F02003DAB23B
:101770004B4B5A7018E04A4B5B7823F01003DAB2F7
:10178000474B5A70464B5B7843F01003DAB2444B38
:101790005A70434B5B7823F02003DAB2404B5A7007
:1017A0003F4B5A783E4B5A707B681B78002B2FD1E9
:1017B0003D4BD3F88C35002B2AD13B4B93F8EC36BC
:1017C000012B25D1384B93F80C37012B20D1364B08
:1017D00093F8AC36012B1BD140F20620FFF74EFDEB
:1017E0000346012B06D17B68DA69304B1B681A442B
:1017F0007B68DA617B68DB6940F2DC5293420AD98C
:101800007B6801221A707B680022DA61012342E0C2
:101810007B680022DA617B681B78012B39D1224B6F
:1018200093F8EC36012B09D11F4B93F80C37012BA1
:1018300004D11D4B93F8AC36012B05D07B680022F8
:101840001A70184B01221A7040F20620FFF716FD9D
:101850000346012B07D1164B1A68144B1B6813441F
:10186000134A136002E0124B00221A60104B1B68EF
:10187000322B0ED10B4B1B78002B14BF01230023FE
:10188000DBB283F00103DBB203F00103DAB2054BF4
:101890001A707B681B7818460837BD4680BD00BFAC
:1018A0001C13002000080020582D0020B4F5010072
:1018B0003813002080B584B000AF78607B681B7857
:1018C000002B1ED1734B1B881E2B13D9724B1B7818
:1018D00023F02003DAB2704B1A706F4B1B785AB2A8
:1018E0007B681B785B015BB213435BB2DAB26A4B75
:1018F0001A7019E0674B1B8801339AB2654B1A8046
:1019000012E0654B1B7823F02003DAB2624B1A70A9
:10191000614B1B785AB27B681B785B015BB2134347
:101920005BB2DAB25C4B1A705C4B93F8AC36002BAE
:1019300001D10123A9E0594B93F8AC36012B0FD10B
:10194000564BD3F88C35002B0AD17B681B78002BC3
:1019500006D1534B1B8801339AB2514B1A8002E0D7
:101960004F4B00221A804E4B1B8847F23052934255
:1019700001D9012389E0494B93F8AC37012B08D1F9
:101980007B681B78012B02D17B6800221A70002330
:101990007BE040F20720FFF771FC0346FB73414BED
:1019A0001B88092B0CD8FB7B002B09D17B681B788B
:1019B000002B05D13B4B1B8801339AB2394B1A805F
:1019C000FB7B012B13D1374B1B88092B0FD9334BD2
:1019D000D3F88C35002B0AD17B681B78002B06D1FD
:1019E000314B1B8801339AB22F4B1A8002E02E4BE9
:1019F00000221A802C4B1B88322B11D9274B93F8CD
:101A00004035022B04D0254B93F84035032B07D1EA
:101A1000254B00221A80254B00221A80012334E036
:101A2000224B1B88092B0CD8FB7B002B09D17B6830
:101A30001B78012B05D11D4B1B8801339AB21B4B20
:101A40001A80FB7B012B0AD1184B1B88092B06D966
:101A5000174B1B780133DAB2154B1A7002E0144BA6
:101A600000221A70124B1B781E2B0CD97B681B7836
:101A7000012B08D17B6800221A700A4B00221A80C1
:101A8000044B00221A807B681B7818461037BD462D
:101A900080BD00BF321300201C130020582D0020F1
:101AA0002613002028130020301300202A130020C2
:101AB0002413002080B584B000AF78603C4B93F8CD
:101AC000AC37012B02D17B681B786DE040F2062019
:101AD000FFF7D4FB0346BB737B681B78FB73BB7BB0
:101AE000002B09D1334B1B88042B05D8314B1B88A5
:101AF00001339AB22F4B1A80BB7B012B0AD12D4B9D
:101B00001B88042B06D92C4B1B8801339AB22A4B15
:101B10001A8002E0284B00221A80274B1B881E2BBC
:101B200009D97B681B78002B05D10123FB73214B5E
:101B300000221A800CE0204B1B881E2B08D97B68E2
:101B40001B78012B04D10023FB731A4B00221A804F
:101B5000174BD3F8D839022B10D9154B93F86C37A3
:101B6000002B0BD10123FB73144B1B685A1C134928
:101B70000A60322B05D90023FB7302E00F4B0022D1
:101B80001A600F4B1B7823F01003DAB20C4B1A705B
:101B90000B4B1B785AB2FB7B1B015BB213435BB24E
:101BA000DAB2074B1A70FB7B18461037BD4680BD72
:101BB000582D00202E1300202C1300208417002005
:101BC0001C130020FFFFFFFF80B582B000AF7860DC
:101BD0003F48FFF76DFB3F4B93F84835012B18D07A
:101BE0003C4B93F86C37012B13D03A4B93F8E03908
:101BF000112B0ED0374B93F8F839112B09D0354BF8
:101C000093F8103A132B04D0324B93F8D239002BAF
:101C100012D0304B93F84035052B2DD02D4B93F837
:101C2000103A122B28D02B4B93F8103A112B23D0BB
:101C30002948FFF74EFB1FE0264B93F86C37002B2B
:101C40001BD1244B93F84035022B04D0214B93F841
:101C50004035032B11D11F4BD3F8A835002B07D0EB
:101C60001C4BD3F8A835013B1A4AC2F8A83504E04A
:101C70001948FFF71DFB00E000BF184804F021F9E8
:101C8000144B012283F8A02701211548FFF732FBEE
:101C9000144BD3E90023104619460CF063FE0AA347
:101CA000D3E900230CF0DEFC02460B461046194631
:101CB0000DF0F8F902460B460B49C1E9002300BFBD
:101CC0000837BD4680BD00BF000000000088C3404B
:101CD00064350020582D002044350020E4340020D5
:101CE0007833002078170020B009002080B582B03A
:101CF00000AF78600122012103480AF022FD00BFF5
:101D00000837BD4680BD00BFC02A002080B582B024
:101D100000AF78600120FFF7B1FA0346002B0CBF3B
:101D200001230023DBB21A46012103480AF009FD12
:101D300000BF0837BD4680BDC02A002080B582B0F4
:101D400000AF7860012240F2024103480AF0F9FC3A
:101D500000BF0837BD4680BDC02A002080B582B0D4
:101D600000AF7860012240F2091103480AF0E9FC53
:101D700000BF0837BD4680BDC02A002080B483B0B4
:101D800000AF786000BF0C37BD4680BC7047FFFFD6
:101D900080B582B000AF78600122002103480AF0CC
:101DA000D0FC00BF0837BD4680BD00BFC02A002060
:101DB00080B483B000AF786000BF0C37BD4680BCF4
:101DC000704780B483B000AF786000BF0C37BD4669
:101DD00080BC704780B483B000AF7860064B0122AE
:101DE00083F8EC26044B012283F80C2700BF0C3744
:101DF000BD4680BC704700BF582D002080B582B022
:101E000000AF78607B6801221A7001220E2103481E
:101E10000AF097FC00BF0837BD4680BDC02A0020ED
:101E200080B483B000AF78607B6801221A7000BF75
:101E30000C37BD4680BC704780B582B000AF78607B
:101E4000154804F05DFA154B93F8103A112B08D0A1
:101E5000134804F022F8134804F01FF8124804F065
:101E60001CF80E4B93F84035052B0CD00B4B93F818
:101E7000103A122B07D0094B93F8103A112B02D0CD
:101E80000A4804F00AF800210348FFF733FA00BFBC
:101E90000837BD4680BD00BF78330020582D002094
:101EA00024340020443400206434002044350020D1
:101EB00080B582B000AF78600022012103480AF0AB
:101EC00040FC00BF0837BD4680BD00BFC02A0020CF
:101ED00080B582B000AF7860002240F20241034832
:101EE0000AF02FFC00BF0837BD4680BDC02A002085
:101EF00080B582B000AF7860002240F2091103483B
:101F00000AF01FFC00BF0837BD4680BDC02A002074
:101F100080B483B000AF786000BF0C37BD4680BC92
:101F20007047FFFF80B582B000AF786000220021CB
:101F300003480AF006FC00BF0837BD4680BD00BF5D
:101F4000C02A002080B483B000AF786000BF0C3797
:101F5000BD4680BC7047FFFF80B483B000AF78609F
:101F6000034B93F82436002B0C37BD4680BC7047DA
:101F7000582D002080B483B000AF7860064B00225B
:101F800083F8EC26044B002283F80C2700BF0C37A3
:101F9000BD4680BC704700BF582D002080B582B080
:101FA00000AF78607B6800221A7000220E2103487F
:101FB0000AF0C7FB00BF0837BD4680BDC02A00201D
:101FC00080B483B000AF78607B6800221A7000BFD5
:101FD0000C37BD4680BC704780B582B000AF7860DA
:101FE00040F20240FFF74AF90346002B0CBF0123E1
:101FF0000023DBB21A4640F2024103480AF0A1FB7B
:1020000000BF0837BD4680BDC02A002080B582B021
:1020100000AF786040F20910FFF730F90346002B5B
:102020000CBF01230023DBB21A4640F2091103481A
:102030000AF087FB00BF0837BD4680BDC02A0020DC
:1020400080B483B000AF78607B6893F8A030002B39
:1020500022D17B6893F8C030002B1DD17B6893F8A8
:10206000E030002B18D17B6893F80031002B13D19E
:102070004D4B1B78002B0FD17B6893F86031002B00
:102080000AD17B6893F88830002B05D1474B93F831
:102090009539002B00F08280434B1B78002B02D037
:1020A000414B00221A70414B93F89539002B03D015
:1020B0003E4B002283F895297B6893F88830002BEB
:1020C00055D07B681B79022B37D0022B50DC002BBC
:1020D00002D0012B17D04BE0354B5B7823F0010386
:1020E000DAB2334B5A70324B5A78314B5A70304B0C
:1020F0005B7823F00203DAB22D4B5A702C4B5A78DE
:102100002B4B5A7034E02A4B5B7823F00203DAB28F
:10211000274B5A70264B5B7843F00203DAB2244B0C
:102120005A70234B5B7823F00103DAB2204B5A70CC
:102130001F4B5A781E4B5A701AE01D4B5B7823F0E8
:102140000203DAB21A4B5A70194B5A78184B5A706C
:10215000174B5B7823F00103DAB2154B5A70144B1E
:102160005B7843F00103DAB2114B5A7000E000BF14
:102170000F4B5B7823F00403DAB20D4B5A700C4B13
:102180005B785AB2094B93F848359B005BB2134316
:102190005BB2DAB2064B5A70012300E00023184606
:1021A0000C37BD4680BC704734130020582D0020EA
:1021B0001C13002080B483B000AF786000BF0C37E0
:1021C000BD4680BC7047FFFF80B500AF224B1B7837
:1021D00023F00403DAB2204B1A7040F20910FFF723
:1021E0004DF8034699001C4B1A78CBB21343DAB270
:1021F000194B1A70184B1B7823F00803DAB2164BF0
:102200001A7040F20240FFF739F80346D900124B2A
:102210001A78CBB21343DAB20F4B1A700F4B93F804
:10222000AC36002B15D10C4B1B7823F00403DAB22B
:10223000094B1A70084B1A78074B1A70064B1B781B
:1022400023F00803DAB2044B1A70034B1A78024BDE
:102250001A7000BF80BD00BF1C130020582D002045
:1022600080B483B000AF78607B6893F86130184623
:102270000C37BD4680BC704780B582B000AF786037
:102280007B68DB68002B04D07B68DB687868984744
:1022900000E000BF0837BD4680BD80B483B000AF0A
:1022A00078600B46FB707B68FA7883F85E2000BF8D
:1022B0000C37BD4680BC704780B584B000AF7860F5
:1022C0007B68032283F87D297B68002283F84125FF
:1022D0007B68002283F874297B68002283F8A02998
:1022E0007B68002283F87C297B682C4AC3F8582934
:1022F0007B682B4AC3F878297B6803F6A8114FF056
:1023000000024FF00003C1E900230023FB7339E012
:10231000FA7B7B6802F51672002143F82210FA7BE3
:1023200013461B019B1A9B001C4A1344FA7B11465F
:10233000184603F06FFEFB7BFA7B1A4951F8231015
:10234000164813461B019B1A9B0003441033196067
:10235000FB7BFA7B144951F82310104813461B01EC
:102360009B1A9B00034414331960FA7B0B491346F4
:102370001B019B1A9B000B4434330C4A1A60FB7BF5
:102380000133FB737B6893F87D39FA7B9A42BFD3A4
:1023900000BF00BF1037BD4680BD00BF3C1300200A
:1023A000B123010098090020A4090020392501006B
:1023B00080B483B000AF78607B6893F87439022BE7
:1023C00004D97B68032283F8742908E07B6893F8BA
:1023D0007439002B03D17B68002283F8742900BF75
:1023E0000C37BD4680BC704780B584B000AF7860C4
:1023F0000023FB7310E0FA7BF87B124913461B01A4
:102400009B1A9B000B4419687B6800F20E2243F86C
:102410002210FB7B0133FB737B6893F87D39FA7BD9
:102420009A42E8D37B6803F63803184604F012FAA0
:102430007B6803F63803184604F0F6F900BF10373E
:10244000BD4680BD3C13002080B582B000AF7860EF
:102450007B6801221A70012240F20B1103480AF036
:1024600070F900BF0837BD4680BD00BFC02A0020FC
:1024700080B582B000AF78607B6801221A700122BB
:102480004FF4827103480AF05CF900BF0837BD467B
:1024900080BD00BFC02A002080B582B000AF786048
:1024A0007B6801221A7001224FF4867103480AF0FA
:1024B00048F900BF0837BD4680BD00BFC02A0020D4
:1024C00080B582B000AF78607B6800221A7000226D
:1024D00040F20B1103480AF034F900BF0837BD463B
:1024E00080BD00BFC02A002080B582B000AF7860F8
:1024F0007B6800221A7000224FF4827103480AF0B0
:1025000020F900BF0837BD4680BD00BFC02A0020AB
:1025100080B582B000AF78607B6800221A7000221C
:102520004FF4867103480AF00CF900BF0837BD4626
:1025300080BD00BFC02A0020B0B586B004AF78606F
:102540000B46FB701346BB701848FFF789FE034625
:10255000002B27D17B681B68FA7811461846FFF7D5
:102560009CFE134A7B68C2F85C39114ABB7882F83A
:1025700068347B681B6899687B681B6803F15E00A0
:102580000C4BD3E9002312F5FA7443F10005CDE9B1
:1025900002450123009303460A460749044804F014
:1025A00089FE00E000BF0837BD46B0BD883000207E
:1025B000582D0020781700200103200080B58AB034
:1025C00000AF78607B6893F8973983F00103DBB242
:1025D000002B40F033817B68002283F897299A4BC7
:1025E0001B685A1E98490A60022B00F22981964BFB
:1025F00001221A6000237B6296233B620023FB6169
:102600000023BB610023FB600023BB600023FB753C
:102610000023BB7500233B6148E07B68D3F8581961
:102620003A6913461B019B1A9B000B441B6893F8E5
:102630005C30032B37D13B69BB757B6A01337B620E
:10264000BB69FB607B68D3F858193A6913461B01D4
:102650009B1A9B000B441B6893F863301A46BB69B6
:102660001344BB617B68D3F858193A6913461B01C0
:102670009B1A9B000B441B687833184603F0B3FD8C
:1026800003461A46FB7D1344FB75BB69002B01DC36
:102690000123BB61BA69FB689A4204DDFB68002B29
:1026A00001D0FB68BB613B6901333B617B6893F8F8
:1026B0007D391A463B699342AFDBBB69002B01DCD5
:1026C0000123BB61BB69632B01DD6323BB615F4AEF
:1026D000BB6952F82330BB607B6A012B02D1962381
:1026E0003B620AE07B6A022B02D15A233B6204E080
:1026F0007B6A032B01D13C233B62BB68A3F54F43AC
:10270000083B4FF47A7202FB03F23B6A92FBF3F34D
:10271000FB617B6A032B71D07B6A032B00F38480FF
:102720007B6A012B03D07B6A022B4FD07CE0BB6914
:10273000142B03DCFB69A3F5FA63FB61FB6948F624
:10274000B702934202DD48F6B803FB61FB6941F230
:102750008832934202DC41F28833FB617B68D3F814
:102760005819BA7D13461B019B1A9B000B441B682A
:1027700093F89830372B0AD9FB6944F620629342CC
:1027800005DD44F62063FB61314B01221A70304BAA
:102790001B78002B16D07B68D3F85819BA7D1346E6
:1027A0001B019B1A9B000B441B6893F89830362B37
:1027B00008D9FB6944F62062934203DD44F62063A6
:1027C000FB6136E0224B00221A7032E0BB69142B09
:1027D00003DCFB69A3F5FA63FB61FB694AF6C77288
:1027E000934202DD4AF6C873FB61FB6942F2107244
:1027F00093421BDC42F21073FB6117E0BB69142BA0
:1028000003DCFB69A3F5FA63FB61FB69114A9342A0
:1028100001DD114BFB61FB6943F69822934207DC13
:1028200043F69823FB6103E000BF02E000BF00E035
:1028300000BF7B68FA69C3F8802902E000BF00E0AE
:1028400000BF2837BD4680BD901700200408002037
:10285000F01300206F1101007011010080B58AB0E3
:1028600000AF78607B6803F638033B617B6893F8C0
:10287000A4351B09FB73FB7B002B05D0FB7B012BD5
:1028800002D0FB7B022B03D1002387F8273002E024
:10289000012387F8273097F82730002B02D16B4BA4
:1028A0003B6201E06A4B3B627B6893F86C37012B1B
:1028B00001D1674B3B623B690022DA630023FB7660
:1028C0001DE0FA7E3B6953F8223093F85130032B18
:1028D00012D1FA7E3B6953F8223093F8A830022BCC
:1028E0000AD03B69DB6BF97E3A6952F82120B2F8D5
:1028F00064201A443B69DA63FB7E0133FB76FB7E7E
:10290000022BDED94FF07E51386A0CF05DFB034696
:10291000002B02D04FF07E533B623B69DB6B312BC7
:1029200002D80023FB611CE03B69DA6B13469B0075
:1029300013445B001344A3F2262318460CF04EF90F
:102940000346BB60396AB86804F0FCF803464149A5
:1029500018460CF04FFA034618460CF083FB03466A
:10296000FB61FB69002B01D10023FB61FB69952B07
:1029700001D99623FB617B6893F84035032B50D136
:102980007B68D3F8D839022B4BD9FB69052B0BD8C0
:102990003B69D3F8FC30304AA2FB03239B09FA6958
:1029A000D21A3B69DA600AE03B69D3F8FC302A4A64
:1029B000A2FB03239B09C3F105023B69DA607B6834
:1029C00003F63803184604F05DF93B69D3F8FC3090
:1029D00041F2873293422BD93B690022DA601F48CB
:1029E000FFF74AFC1E4B1B685A1C1D490A600A2B44
:1029F0001ED900237B610CE07B69DBB21946786845
:102A000002F044F87B68184604F0CCFF7B69013380
:102A10007B617B6893F87D391A467B699342EBD3DF
:102A200006E00F4B00221A603B69FA69DA6000E0A9
:102A300000BF7B6803F6380397F827201146184635
:102A400003F05EFF00BF2837BD4680BD0000B041E7
:102A50000000E04100002041D34D621044350020C9
:102A60008817002080B485B000AF78607B681B7841
:102A70003B727B685B787B727B689B78BB727B6800
:102A8000DB78FB72BB6818461437BD4680BC7047C4
:102A900080B483B000AF78607B6893F861301846EB
:102AA0000C37BD4680BC704780B483B000AF7860FF
:102AB0007B68002283F8612000BF0C37BD4680BCD4
:102AC0007047FFFF80B400AFBFF34F8F00BF064BCE
:102AD000DB6803F4E0620449044B1343CB60BFF3AB
:102AE0004F8F00BF00BFFDE700ED00E00400FA05D6
:102AF00080B483B000AF78600B46FB707B68002B1E
:102B000004D07B68FA7883F85D2000E000BF0C37C2
:102B1000BD4680BC704780B582B000AF78600B4680
:102B2000FB701346BB707B685B6BBA78F97878688A
:102B3000984700BF0837BD4680BD80B483B000AF62
:102B400078600B46FB707B68FA7883F8402500BFFD
:102B50000C37BD4680BC704780B483B000AF78604E
:102B60000B46FB707B6893F84135FA789A4208D09F
:102B70007B68FA7883F841257B68012283F8B029C5
:102B800000E000BF0C37BD4680BC704780B582B006
:102B900000AF7860044BD3E9002379680348884785
:102BA00000BF0837BD4680BD78170020582D002093
:102BB00080B485B000AFF860C7E90023FB6803F676
:102BC000A813D3E90023D7E90001994208BF904236
:102BD00008D3FB6803F6A813D3E90023134301D0FD
:102BE000012300E0002303F00103DBB21846143791
:102BF000BD4680BC704780B483B000AF78607B680E
:102C00006422DA6100BF0C37BD4680BC7047FFFF0D
:102C100080B500AFFDF714FB04F088F8064804F017
:102C2000A3F8064804F04EF9054804F091FF054862
:102C300004F0B8F900BF80BDA43200203833002072
:102C4000203300200C33002080B582B000AF7860C4
:102C50007868FEF75DFB786800F01EF87868FFF78B
:102C60002BFB7868FFF7C0FB7868FDF7D9FB02F013
:102C7000FFFC7B68D3F89C39184605F0EDF87868BE
:102C800002F04EFA7B68034AC3F89C2900BF08375C
:102C9000BD4680BDE01B002080B582B000AF7860EB
:102CA0007B6803F628232022034918460CF038FAE3
:102CB00000BF0837BD4680BD9C00000880B483B0CB
:102CC00000AF786000BF0C37BD4680BC704780B451
:102CD00083B000AF786000BF0C37BD4680BC704742
:102CE00080B582B000AF7860786800F043FC7B6804
:102CF00093F84835002B02D0012B04D007E0786808
:102D000000F03CF803E0786800F078F800BF00BFFE
:102D10000837BD4680BDFFFF80B582B000AF786048
:102D20007B68D3F88835144898477B6893F8AC36AD
:102D3000012B04D07B6893F88035012B04D17B688C
:102D4000012283F8402513E07B68D3F8083642F26D
:102D50000F72934208D87B68012283F840257B6874
:102D6000012283F8D12903E07B68002283F8D1296E
:102D70000837BD4680BD00BFA432002080B582B0B8
:102D800000AF78607B68D3F888357A6802F24C52DD
:102D9000104698477B6893F88035012B23D17B68D8
:102DA00093F84135002B1ED1134B1B680133124A97
:102DB0001360114B1B68B3F5AF7F18D97B68D3F84C
:102DC0004838632B13D87B68D3F85C357A6802F2F5
:102DD0005452104698477B68012283F84825064BD9
:102DE00000221A6003E0044B00221A6000E000BFDA
:102DF00000BF0837BD4680BD0014002080B582B0FA
:102E000000AF78607B68D3F888357A6802F24C525C
:102E1000104698477B6893F88035002B15D1194BE5
:102E20001B680133174A1360164B1B68322B25D9D8
:102E30007B68D3F860357A6802F25452104698479E
:102E40007B68002283F8482518E0786801F066FD69
:102E50000346002BB8BF5B42B3F5FA7F0BDA094B90
:102E600000221A607B68D3F860357A6802F2545207
:102E70001046984702E0034B00221A6000BF083753
:102E8000BD4680BDFC13002080B483B000AF7860E5
:102E900000BF0C37BD4680BC704780B487B000AF20
:102EA000F860B9607A6000237B6110E0FA687B69A2
:102EB000134493F90020B9687B690B4493F90030FF
:102EC0009A4201D0002307E07B6901337B617A6974
:102ED0007B689A42EAD3012318461C37BD4680BC62
:102EE0007047FFFFB0B584B000AFF860C7E90023BA
:102EF000FB6893F8D139002B22D0FB68D3F8083651
:102F000042F67B62934216D9FB68D3F80C36344AFA
:102F1000934206D9F86800F014FBFB680022C3F85E
:102F20000C26FB68D3F80C262E4B1B681A44FB6852
:102F3000C3F80C2650E0FB680022C3F80C264BE0D7
:102F4000FB6893F84835012B45D0FB6893F8103A9D
:102F5000112B40D0FB6893F8E039112B3BD0FB6874
:102F600093F8F839112B36D0FB6893F8AC36012B67
:102F700006D0FB68D3F8083642F60312934207D80E
:102F800019494FF000024FF00003C1E9002323E08C
:102F9000144B1B6818464FF00001134BD3E9002374
:102FA000841841EB0305104BC3E900450E4BD3E9F0
:102FB00000230E484FF000018B4208BF82420BD124
:102FC00009494FF000024FF00003C1E90023F868FF
:102FD00000F0B7FA00E000BF1037BD46B0BD00BF3B
:102FE00040771B00B4F501001014002000DD6D00D7
:102FF00090B585B000AF78600023FB73F2E07B688A
:10300000D3F85819FA7B13461B019B1A9B000B44FB
:1030100093F83830002B05D0FB7B7A6813440122EB
:1030200083F827257B68D3F85819FA7B13461B01D0
:103030009B1A9B000B441B6893F85130032B40F004
:10304000C7807B68D3F85819FA7B13461B019B1A7B
:103050009B000B441B681868954B19687B68D3F874
:103060005849FA7B13461B019B1A9B0023441B689B
:1030700042181A607B68D3F85819FA7B13461B0173
:103080009B1A9B000B44002283F83820FB7B7A6854
:103090001344002283F827257B68D3F85819FA7B5C
:1030A00013461B019B1A9B000B441B681B68B3F55E
:1030B000167FC0F08F807B68D3F85819FA7B1346CF
:1030C0001B019B1A9B000B441B681B6840F6B73220
:1030D00093421BD87B68D3F85819FA7B13461B011F
:1030E0009B1A9B000B441B6893F85C30032B73D036
:1030F0007B68D3F85819FA7B13461B019B1A9B0077
:103100000B441B6893F85C300E2B65D07B68D3F8BA
:103110008C35052B0ED97B68D3F85819FA7B1346EA
:103120001B019B1A9B000B441B681B6842F20F7229
:10313000934253D97B68D3F85819FA7B13461B0185
:103140009B1A9B000B441B6893F85C30032B1BD12C
:103150007B68D3F86439002B10D17B68D3F86839C9
:10316000002B0BD1786802F0CBF8FB7B194678680E
:1031700001F08CFC786800F0CBF9C3E1FB7B1946C9
:10318000786801F083FC2AE07B68D3F85819FA7B51
:1031900013461B019B1A9B00CA187B68D3F86C3935
:1031A0009A4203D17B680022C3F86C29FB7B194645
:1031B000786801F06BFC7B68D3F85819FA7B1346EA
:1031C0001B019B1A9B000B441B6801225A6006E0FE
:1031D00000BF04E000BF02E000BF00E000BFFB7BD7
:1031E0000133FB737B6893F87D39FA7B9A42FFF4D5
:1031F00006AF0023BB7365E07B68D3F85819BA7B30
:1032000013461B019B1A9B000B441B6893F85C3010
:10321000032B54D17B6893F84835012B4FD07B6842
:10322000D3F85819BA7B13461B019B1A9B000B4419
:103230001B6893F8A830022B41D17B68D3F808367D
:1032400042F20F72934235D87B68D3F85819BA7B93
:1032500013461B019B1A9B000B441B68B3F8A0008C
:10326000134B1B6899B27B68D3F85849BA7B134655
:103270001B019B1A9B0023441B68421892B2A3F8BF
:10328000A0207B68D3F85819BA7B13461B019B1A00
:103290009B000B441B68B3F8A03044F620629342B5
:1032A0000DD9BB7B1946786801F0F0FB07E000BF41
:1032B000B4F50100BB7B1946786801F0E7FBBB7BE6
:1032C0000133BB737B6893F87D39BA7B9A4293D301
:1032D0007B68D3F858391B6893F85D30032B64D0B2
:1032E0007B68D3F858393C331B6893F85D30032B67
:1032F0005BD07B68D3F8583978331B6893F85D301E
:10330000032B52D07B68D3F858391B6893F85D3093
:10331000042B4AD07B68D3F858393C331B6893F8A8
:103320005D30042B41D07B68D3F8583978331B6863
:1033300093F85D30042B38D07B68D3F858391B687C
:1033400093F85C30072B30D07B68D3F858393C3386
:103350001B6893F85C30072B27D07B68D3F858396B
:1033600078331B6893F85C30072B1ED07B68D3F84A
:1033700058391B6893F85C30022B16D07B68D3F861
:1033800058393C331B6893F85C30022B0DD07B68B6
:10339000D3F8583978331B6893F85C30022B04D08B
:1033A0007B6893F8D239002B03D0584B00221A6067
:1033B00010E0564B1B680133544A1360534B1B6893
:1033C00040F2DC52934205D9786801F099FF7868A1
:1033D00000F09EF800237B7390E07B68D3F85819C7
:1033E0007A7B13461B019B1A9B000B441B6893F8C6
:1033F0005C30032B0DD07B68D3F858197A7B1346C9
:103400001B019B1A9B000B441B6893F85C30042B38
:103410000DD17B68D3F858197A7B13461B019B1A90
:103420009B000B441B680022A3F8602050E07B68DF
:10343000D3F858197A7B13461B019B1A9B000B4447
:103440001B6893F85C300E2B42D17B68D3F8581977
:103450007A7B13461B019B1A9B000B441B6893F855
:103460005D30032B34D17B68D3F858197A7B13462F
:103470001B019B1A9B000B441A68B2F86030591C60
:1034800089B2A2F86010B3F5167F21D97B68D3F812
:1034900058197A7B13461B019B1A9B000B441B682F
:1034A000002283F85D207B68D3F858197A7B134695
:1034B0001B019B1A9B000B441B680022A3F8602091
:1034C0007B6893F87439013BDAB27B6883F874291E
:1034D0007B68D3F858197A7B13461B019B1A9B0013
:1034E0000B441B6893F85C30052B04D17B7B194699
:1034F000786801F0CBFA7B7B01337B737B7B022BFB
:103500007FF66BAF1437BD4690BD00BF041400209A
:1035100080B582B000AF78607B68012283F84025D7
:103520007868FEF7C9FE7868FEF75EFF7868FCF7FA
:1035300077FF7B68184604F035FA00BF0837BD46B0
:1035400080BD80B582B000AF78607B68042283F8CC
:1035500040257868FEF7B0FE7868FEF745FF78688A
:10356000FCF75EFF7B68184604F01CFA00BF0837C2
:10357000BD4680BD80B582B000AF78607B6893F8AF
:10358000B039002B09D0584BD3E90023786800F0FC
:10359000B9F87B68002283F8B0297B6893F841353D
:1035A000062B00F29C8001A252F823F0C9350100DD
:1035B00005360100293601004D3601007136010043
:1035C00095360100B93601007B6893F84835002B29
:1035D00009D1786800F0B4FE786800F0C7FF786819
:1035E00000F092FF7AE07B6893F84835012B75D1A3
:1035F000786801F045F8786801F009F9786800F01A
:1036000083FF6BE0384BD3E900237868FFF7D0FAEB
:103610000346002B04D000217868FFF79DFA5EE096
:103620003248FFF7B3FA5AE02F4BD3E9002378680A
:10363000FFF7BEFA0346002B04D000217868FFF79D
:103640008BFA4CE02A48FFF7A1FA48E0264BD3E971
:1036500000237868FFF7ACFA0346002B04D0002162
:103660007868FFF779FA3AE02248FFF78FFA36E0F8
:103670001D4BD3E900237868FFF79AFA0346002B25
:1036800004D000217868FFF767FA28E01A48FFF7AE
:103690007DFA24E0144BD3E900237868FFF788FA19
:1036A0000346002B04D000217868FFF755FA16E096
:1036B0001248FFF76BFA12E00B4BD3E9002378684E
:1036C000FFF776FA0346002B04D000217868FFF755
:1036D00043FA04E00A48FFF759FA00E000BF00BFD0
:1036E0000837BD4680BD00BF781700209D38010017
:1036F000513A0100653E0100D1370100CD3C010087
:10370000BD3B0100B0B487B000AFF860C7E900234B
:10371000FB6893F84135062B41D801A252F823F0FB
:103720003D3701004B370100593701006737010071
:103730007537010083370100913701004FF0000217
:103740004FF00003C7E9042330E044F620624FF055
:103750000003C7E9042329E044F620624FF0000388
:10376000C7E9042322E044F620624FF00003C7E9D2
:1037700004231BE044F620624FF00003C7E9042352
:1037800014E044F620624FF00003C7E904230DE083
:1037900044F620624FF00003C7E9042306E04FF02F
:1037A00000024FF00003C7E9042300BFD7E900017E
:1037B000D7E90423841841EB0305FB6803F6A8133B
:1037C000C3E9004500BF1C37BD46B0BC704700BF11
:1037D00080B584B000AFF860C7E90023FB68D3F878
:1037E0006C39002B0AD10021F868FFF7B5F9FB68A6
:1037F00003F54C731846FFF757F94BE0FB68D3F815
:103800006C39002203211846FFF785F9FB6803F5A0
:103810004C731846FFF73CF90346022B22D1FB6894
:1038200093F86834002B1DD1FB68D3F86C391B6802
:1038300003211846FFF75CF9F86801F0CEF8FB6841
:1038400093F874390133DAB2FB6883F874290021E4
:10385000F868FFF781F9FB6803F54C731846FFF72A
:1038600023F917E0FB6803F54C731846FFF710F9CE
:103870000346032B0ED1FB6893F86834002B09D163
:103880000021F868FFF768F9FB6803F54C731846E8
:10389000FFF70AF91037BD4680BDFFFF80B586B03F
:1038A00000AFF860C7E900230023FB7522E0FA7D32
:1038B000FB6802F5167253F82230002B16D0FA7D01
:1038C000FB6802F5167253F822301B6893F85D30DE
:1038D000032B0CD1FA7DFB6802F5167253F82230E7
:1038E000012204211846FFF716F906E000BFFB7D10
:1038F0000133FB75FB7D022BD9D9FB6803F54C73B3
:103900001846FFF7C5F80346022B40F08180FB689C
:1039100093F86834012B7BD10023BB7533E0BA7D6B
:10392000FB6802F5167253F82230002B27D0BA7DBF
:10393000FB6802F5167253F822301B6893F85D306D
:10394000032B1DD1BA7DFB6802F5167253F82220B5
:10395000FB68D3F85C399A4212D1BA7DFB6802F554
:10396000167253F822301B6804211846FFF7C0F87E
:10397000FB6803F54C731846FFF796F800E000BFAC
:10398000BB7D0133BB75BB7D022BC8D900237B7582
:1039900028E07A7DFB6802F5167253F82230002B7E
:1039A0001CD07A7DFB6802F5167253F822301B6832
:1039B00093F85D30032B12D1FB6803F54C73184666
:1039C000FFF772F87A7DFB6802F5167253F8223021
:1039D000012204211846FFF79EF831E000BF7B7DED
:1039E00001337B757B7D022BD3D90221F868FFF769
:1039F000B3F8154B4FF47A721A60144B4FF47A7285
:103A00001A80FB6803F54C731846FFF74DF817E072
:103A1000FB6803F54C731846FFF73AF80346032B8F
:103A20000ED1FB6893F86834012B09D10021F868A6
:103A3000FFF792F8FB6803F54C731846FFF734F86C
:103A40001837BD4680BD00BFF813002008140020C1
:103A500080B584B000AFF860C7E9002301F0BAF880
:103A6000034683F00103DBB2002B40F09C80FB682F
:103A7000D3F86C39002B0AD10521F868FFF76CF8F0
:103A8000FB6803F54C731846FFF70EF88CE0FB68F3
:103A900093F84835012B0BD1454B1B680A2B07D9EE
:103AA000434B1A68434B1B68D31A414A13607BE0AF
:103AB000FB68D3F86C39022203211846FFF72BF874
:103AC000FB6803F54C731846FEF7E2FF0346022B32
:103AD00048D1FB6893F86834022B43D1FB6893F814
:103AE0004835002B1BD1FB68D3F86C391B680321C8
:103AF0001846FEF7FDFFF86800F06FFFFB6893F8CB
:103B000074390133DAB2FB6883F874290321F86849
:103B1000FFF722F8284B4FF47A721A801BE0FB68FB
:103B200093F84835012B16D1FB68D3F86C391B6824
:103B300003211846FEF7DCFFFB6893F87439013364
:103B4000DAB2FB6883F87429F86800F046FF0021B8
:103B5000F868FFF701F8FB6803F54C731846FEF7A9
:103B6000A3FF21E0FB6803F54C731846FEF790FFB6
:103B70000346032B18D1FB6893F86834022B13D14A
:103B8000FB68D3F86C391B6800211846FEF7B0FFBC
:103B90000521F868FEF7E0FFFB6803F54C73184653
:103BA000FEF782FF00E000BF1037BD4680BD00BFBA
:103BB000F8130020B4F501000814002080B584B08B
:103BC00000AFF860C7E9002301F004F8034683F072
:103BD0000103DBB2002B75D1FB68D3F86C39002BE5
:103BE0000AD10021F868FEF7B7FFFB6803F54C73B4
:103BF0001846FEF759FF66E0FB68D3F8BC35FA6853
:103C000002F2B450C82201219847FB68D3F8C435AA
:103C1000FA6802F2B45210469847FB68D3F86C3940
:103C2000032203211846FEF776FFFB6803F54C7369
:103C30001846FEF72DFF0346022B22D1FB6893F8AE
:103C40006834032B1DD1FB68D3F86C391B68032142
:103C50001846FEF74DFFF86800F0BFFEFB6893F8CA
:103C600074390133DAB2FB6883F874290021F868EB
:103C7000FEF772FFFB6803F54C731846FEF714FF5E
:103C800021E0FB6803F54C731846FEF701FF03467D
:103C9000032B18D1FB6893F86834032B13D1FB680E
:103CA000D3F86C391B6800211846FEF721FF00216C
:103CB000F868FEF751FFFB6803F54C731846FEF7F2
:103CC000F3FE00E000BF1037BD4680BD80B586B072
:103CD00000AFF860C7E900230023FB7522E0FA7DFE
:103CE000FB6802F5167253F82230002B16D0FA7DCD
:103CF000FB6802F5167253F822301B6893F85D30AA
:103D0000042B0CD1FA7DFB6802F5167253F82230B1
:103D1000042203211846FEF7FEFE06E000BFFB7DED
:103D20000133FB75FB7D022BD9D9FB6803F54C737E
:103D30001846FEF7ADFE0346022B78D1FB6893F8D8
:103D40006834042B73D10023BB7533E0BA7DFB6864
:103D500002F5167253F82230002B27D0BA7DFB688B
:103D600002F5167253F822301B6893F85D30042B6D
:103D70001DD1BA7DFB6802F5167253F82220FB684C
:103D8000D3F85C399A4212D1BA7DFB6802F51672FB
:103D900053F822301B6803211846FEF7A9FEFB6882
:103DA00003F54C731846FEF77FFE00E000BFBB7DB5
:103DB0000133BB75BB7D022BC8D900237B7528E07E
:103DC0007A7DFB6802F5167253F82230002B1CD066
:103DD0007A7DFB6802F5167253F822301B6893F85F
:103DE0005D30042B12D1FB6803F54C731846FEF7C7
:103DF0005BFE7A7DFB6802F5167253F822300422CE
:103E000003211846FEF787FE29E000BF7B7D0133C2
:103E10007B757B7D022BD3D90021F868FEF79CFED1
:103E2000FB6803F54C731846FEF73EFE17E0FB688F
:103E300003F54C731846FEF72BFE0346032B0ED1F9
:103E4000FB6893F86834042B09D10021F868FEF769
:103E500083FEFB6803F54C731846FEF725FE183702
:103E6000BD4680BD80B586B000AFF860C7E90023CD
:103E700000F0B0FE034683F00103DBB2002B40F0FC
:103E8000A781FB6893F84835002B29D10023FB75E7
:103E900022E0FA7DFB6802F5167253F82230002BFF
:103EA00016D0FA7DFB6802F5167253F822301B68B3
:103EB00093F85D30042B0CD1FA7DFB6802F5167285
:103EC00053F82230052200211846FEF724FE30E088
:103ED00000BFFB7D0133FB75FB7D022BD9D928E0A8
:103EE0000023BB7522E0BA7DFB6802F5167253F819
:103EF0002230002B16D0BA7DFB6802F5167253F8FB
:103F000022301B6893F85D30032B0CD1BA7DFB681F
:103F100002F5167253F82230052200211846FEF7EA
:103F2000FAFD06E000BFBB7D0133BB75BB7D022BF4
:103F3000D9D9FB6803F54C731846FEF7A9FD034673
:103F4000022B40F02C81FB6893F86834052B40F07D
:103F50002681FB6893F84835002B40F086800023CB
:103F60007B7545E07A7DFB6802F5167253F82230C6
:103F7000002B39D07A7DFB6802F5167253F8223097
:103F80001B6893F85D30042B2FD17A7DFB6802F516
:103F9000167253F82220FB68D3F85C399A4224D178
:103FA0007A7DFB6802F5167253F822301B680021F7
:103FB0001846FEF79DFD7A7DFB6802F5167200211A
:103FC00043F82210F86800F0D4FDFB6893F87439C8
:103FD000013BDAB2FB6883F87429FB6803F54C7384
:103FE0001846FEF761FD00E000BF7B7D01337B7565
:103FF0007B7D022BB6D900233B7528E03A7DFB6818
:1040000002F5167253F82230002B1CD03A7DFB6863
:1040100002F5167253F822301B6893F85D30042BBA
:1040200012D1FB6803F54C731846FEF73DFD3A7D4F
:10403000FB6802F5167253F822300522002118465B
:10404000FEF769FDC5E000BF3B7D01333B753B7D5D
:10405000022BD3D90021F868FEF77EFDFB6803F53B
:104060004C731846FEF720FD92E0FB6893F8483544
:10407000012B40F08D800023FB7445E0FA7CFB6847
:1040800002F5167253F82230002B39D0FA7CFB6807
:1040900002F5167253F822301B6893F85D30032B3B
:1040A0002FD1FA7CFB6802F5167253F82220FB68C8
:1040B000D3F85C399A4224D1FA7CFB6802F5167277
:1040C00053F822301B6800211846FEF711FDFA7CD8
:1040D000FB6802F51672002143F82210F86800F020
:1040E00048FDFB6893F87439013BDAB2FB6883F84A
:1040F0007429FB6803F54C731846FEF7D5FC00E005
:1041000000BFFB7C0133FB74FB7C022BB6D9002380
:10411000BB7428E0BA7CFB6802F5167253F82230B3
:10412000002B1CD0BA7CFB6802F5167253F82230C3
:104130001B6893F85D30032B12D1FB6803F54C73B9
:104140001846FEF7B1FCBA7CFB6802F5167253F80C
:104150002230052200211846FEF7DDFC39E000BFC1
:10416000BB7C0133BB74BB7C022BD3D91A4B4FF4FD
:104170007A721A80194B42F210721A600221F868A2
:10418000FEF7EAFCFB6803F54C731846FEF78CFC5F
:10419000FB6803F54C731846FEF786FC19E0FB68D4
:1041A00003F54C731846FEF773FC0346032B10D13E
:1041B000FB6893F86834052B0BD10021F868FEF7F3
:1041C000CBFCFB6803F54C731846FEF76DFC00E072
:1041D00000BF1837BD4680BD08140020F81300202A
:1041E00080B586B000AFF860C7E900230023FB75F7
:1041F0002CE0FB68D3F85819FA7D13461B019B1A73
:104200009B000B441B6893F85130032B1BD1FB68B8
:10421000D3F85819FA7D13461B019B1A9B000B44D7
:104220001B6893F85C300E2B0DD1FB68D3F858193E
:10423000FA7D13461B019B1A9B000B4406220321A7
:104240001846FEF768FCFB7D0133FB75FB7D022BF6
:10425000CFD9FB6803F54C731846FEF719FC0346EB
:10426000022B54D1FB6893F86834062B4FD1FB68BE
:1042700003F54C731846FEF717FC0023BB7542E0AC
:10428000FB68D3F85819BA7D13461B019B1A9B0093
:10429000CA18FB68D3F85C399A4231D1FB6803F540
:1042A0004C731846FEF700FCFB68D3F85819BA7D2A
:1042B00013461B019B1A9B000B441B6803211846E5
:1042C000FEF716FCFB68D3F85819BA7D13461B019C
:1042D0009B1A9B00CA18FB68C3F86029FB6893F817
:1042E00074390133DAB2FB6883F874290221F86863
:1042F000FEF723FCFB6803F28C531846FEF77BFCA9
:10430000BB7D0133BB75BB7D022BB9D914E0FB68C3
:1043100003F54C731846FEF7BBFB0346032B0BD18A
:10432000FB6893F86834062B06D1FB6803F54C73E1
:104330001846FEF7B9FBFFE700BF1837BD4680BD42
:1043400080B586B000AF78607B680022C3F86C2926
:10435000786800F075FB02467B68C3F8702900237B
:10436000FB75C5E07B68D3F85819FA7D13461B012D
:104370009B1A9B000B441B6893F85130032B40F0B1
:10438000AD807B68D3F85819FA7D13461B019B1A40
:104390009B000B441B6893F85D30032B00F09E805C
:1043A0007B68D3F85819FA7D13461B019B1A9B00B2
:1043B0000B441B689B6E002B00F090807B68D3F849
:1043C0005819FA7D13461B019B1A9B000B441B686E
:1043D00093F85C30052B00F081807B68D3F8581986
:1043E000FA7D13461B019B1A9B000B441B6893F834
:1043F000A830022B72D07B68D3F86C39002B0CD11B
:104400007B68D3F85819FA7D13461B019B1A9B0051
:10441000CA187B68C3F86C2967E07B68D3F87039E9
:10442000002B5DD07B68D3F86C391B689A6E7B6873
:10443000D3F870391B689B6ED31A3B617B68D3F845
:104440005819FA7D13461B019B1A9B000B441B68ED
:104450009A6E7B68D3F870391B689B6ED31AFB6029
:104460003B69002B13DDFB68002B10DD3A69FB680C
:104470009A4237DD7B68D3F85819FA7D13461B0141
:104480009B1A9B00CA187B68C3F86C292AE0FB685A
:10449000002B0CDD7B68D3F85819FA7D13461B01FD
:1044A0009B1A9B00CA187B68C3F86C291DE03B6906
:1044B000002B1ADAFB68002B17DA3A69FB689A427C
:1044C00012DA7B68D3F85819FA7D13461B019B1A40
:1044D0009B00CA187B68C3F86C2905E000BF04E0A4
:1044E00000BF02E000BF00E000BFFB7D0133FB75B1
:1044F0007B6893F87D39FA7D9A42FFF433AF00BFB1
:1045000000BF1837BD4680BD80B582B000AF78606F
:104510007B6893F84135002B23D17B68D3F86C3945
:10452000002B1ED07B68D3F858391B6893F85D3098
:10453000002B17D17B68D3F858393C331B6893F8AC
:104540005D30002B0ED17B68D3F8583978331B6867
:1045500093F85D30002B05D106217868FEF7FCFA50
:1045600000E000BF0837BD4680BDFFFF80B584B0C6
:1045700000AF78607B68D3F86C39002B74D07B680F
:10458000D3F87039002B6FD07B68D3F86C391B6877
:104590009A6E7B68D3F870391B689B6ED31AFB60E8
:1045A000786800F06DF903461A46324B1A70FB68C2
:1045B00013F1640F1EDBFB68642B1BDC786800F0D2
:1045C000ADF9034644F24F6293420FDC2A4B1B685D
:1045D0005A1C29490A60642B10D904217868FEF717
:1045E000BBFA7B68042283F8412507E0224B0022B6
:1045F0001A6003E0204B00221A6000E000BF1D4B50
:104600001B7883F00103DBB2002B2FD1FB6813F57D
:10461000FA6F12DBFB68B3F5FA6F0EDC174B1B6801
:104620005A1C16490A60642B21D904217868FEF7C8
:1046300093FA124B00221A6019E0FB68B3F5FA6F87
:104640000EDD0E4B1B685A1C0C490A60642B0ED9F8
:1046500001217868FEF780FA084B00221A6006E014
:10466000064B00221A6002E000BF00E000BF1037D6
:10467000BD4680BD941700201C1400201814002093
:1046800080B487B000AF78607B680022C3F86C29E3
:104690000023FB75AEE07B68D3F85819FA7D13460A
:1046A0001B019B1A9B000B441B6893F85130032B92
:1046B00040F098807B68D3F85819FA7D13461B01A7
:1046C0009B1A9B000B441B6893F85D30032B00F092
:1046D00089807B68D3F85819FA7D13461B019B1A11
:1046E0009B000B441B689B6E002B7BD07B68D3F830
:1046F0005819FA7D13461B019B1A9B000B441B683B
:1047000093F85C30052B6DD07B68D3F86C39002BA7
:104710000CD17B68D3F85819FA7D13461B019B1AFC
:104720009B00CA187B68C3F86C2960E07B68D3F8EB
:104730006C391B689A6E7B68D3F860391B689B6E76
:10474000D31A3B617B68D3F85819FA7D13461B01D5
:104750009B1A9B000B441B689A6E7B68D3F86039E8
:104760001B689B6ED31AFB603B69002B13DAFB6856
:10477000002B10DA3A69FB689A4235DD7B68D3F882
:104780005819FA7D13461B019B1A9B00CA187B68B7
:10479000C3F86C2928E0FB68002B0CDA7B68D3F89F
:1047A0005819FA7D13461B019B1A9B00CA187B6897
:1047B000C3F86C291BE03B69002B18DDFB68002B5C
:1047C00015DD3A69FB689A4210DD7B68D3F8581909
:1047D000FA7D13461B019B1A9B00CA187B68C3F81D
:1047E0006C2903E000BF02E000BF00E000BFFB7DDA
:1047F0000133FB757B6893F87D39FA7D9A42FFF4AB
:104800004AAF00BF00BF1C37BD4680BC704780B5B3
:1048100084B000AF78607B68D3F86C39002B2AD065
:104820007B68D3F86039002B25D07B68D3F86039DA
:104830001B689A6E7B68D3F86C391B689B6ED31A21
:10484000FB60FB6813F5967F0CDBFB68B3F5967F86
:1048500008DC04217868FEF77FF97B68042283F87E
:10486000412509E0FB68B3F5967F05DD03217868F3
:10487000FEF772F900E000BF1037BD4680BDFFFFB4
:1048800080B485B000AF78607B68D3F86039002BC6
:1048900012D07B68D3F860391B681B6FFB60FB6824
:1048A000002BB8BF5B4241F28832934204DD194BC2
:1048B00000221A60002327E07B68D3F86439002BBC
:1048C00012D07B68D3F864391B681B6FFB60FB68F0
:1048D000002BB8BF5B4241F28832934204DD0D4B9E
:1048E00000221A6000230FE00A4B1B6841F2873256
:1048F000934208D8074B1A68074B1B681344054AB4
:104900001360002300E0012318461437BD4680BC25
:10491000704700BFF4130020B4F5010080B483B0E9
:1049200000AF78607B68D3F858391B681A6F7B68D2
:10493000D3F858393C331B681B6F1A447B68D3F893
:10494000583978331B681B6F134418460C37BD4623
:1049500080BC704780B584B000AF78600023FB73E3
:1049600032E07B68D3F85819FA7B13461B019B1A77
:104970009B000B441A687B685B6A9A4203D0FB7BFE
:104980000133FB7320E07B68D3F85819FA7B134698
:104990001B019B1A9B000B44184601F07BFB7B68B4
:1049A000D3F85819FA7B13461B019B1A9B00CA18AF
:1049B0007B68C3F860297B6893F874390133DAB2F5
:1049C0007B6883F8742905E07B6893F87D39FA7B6E
:1049D0009A42C6D31037BD4680BD80B485B000AFC3
:1049E00078600023FB731FE0FA7B7B6802F5167288
:1049F00053F822207B68D3F86C399A421BD0FA7B9B
:104A00007B6802F5167253F82230002B09D1FA7B2D
:104A10007B68D3F86C197B6802F5167243F8221094
:104A20000AE0FB7B0133FB737B6893F87D39FA7BEB
:104A30009A42D9D300E000BF1437BD4680BC70470E
:104A400080B485B000AF78600023FB7312E0FA7B7E
:104A50007B6802F5167253F82230002B03D1FB7BE2
:104A60000133FB7306E0FA7B7B6802F5167253F89C
:104A7000223006E07B6893F87D39FA7B9A42E6D3D0
:104A8000002318461437BD4680BC704780B584B0FB
:104A900000AF78600B46FB707B68D3F85819FA7842
:104AA00013461B019B1A9B000B44184601F0DCFACD
:104AB000FB78362202FB03F303F590637A68134414
:104AC0000433184602F047FB0023FB7348E0FA7BEF
:104AD0007B6802F5167253F822107B68D3F85809E8
:104AE000FA7813461B019B1A9B000344994203D09A
:104AF000FB7B0133FB7333E0FA7B7B6802F51672B4
:104B0000002143F822107B68D3F86039002B0FD1C5
:104B10007B68D3F864297B68C3F860297B68D3F885
:104B200068297B68C3F864297B680022C3F8682978
:104B30007B68D3F86439002B09D17B68D3F86829E6
:104B40007B68C3F864297B680022C3F868297B6806
:104B500093F87439013BDAB27B6883F8742905E075
:104B60007B6893F87D39FA7B9A42B0D31037BD4603
:104B700080BD80B485B000AF78600023FB731FE078
:104B8000FA7B7B6802F5167253F82230002B14D1A1
:104B9000FB7B591CFA7B7B6801F5167153F82110D9
:104BA0007B6802F5167243F82210FB7B5A1C7B6867
:104BB00002F51672002143F82210FB7B0133FB73D0
:104BC000FB7B012BDCD900BF00BF1437BD4680BC86
:104BD0007047FFFF80B400AF094B1B88002B01D149
:104BE000012309E0064B1A88064B1B689BB2D31AB7
:104BF0009AB2034B1A8000231846BD4680BC70470A
:104C000008140020B4F5010080B483B000AF7860D0
:104C10007B681B6A03F5FA727B681A627B681B6A01
:104C2000B3F5FA6F21D37B6800225A747B680022A7
:104C30005A737B680022DA737B6800229A737B6860
:104C400000221A737B6800229A607B6800221A7423
:104C50007B6800221A607B6800225A607B68002211
:104C60005A617B68002283F8242000BF0C37BD46C0
:104C700080BC7047FFFFFFFF90B58DB000AF78603C
:104C800039607D4BD3F88C35184609F027FE78A3A0
:104C9000D3E9002309F0B6FB02460B46104619463D
:104CA00009F096FE0346BB62734BD3F89435184661
:104CB00009F094FF03467B627B6893F84835002B2C
:104CC00058D1002387F82F304FE06B4BD3F8581999
:104CD00097F82F2013461B019B1A9B000B441B685F
:104CE00093F85130032B3BD1634BD3F8581997F805
:104CF0002F2013461B019B1A9B000B441B689B6EC5
:104D0000184609F06BFF03467B615B4BD3F85819DB
:104D100097F82F2013461B019B1A9B000B441B681E
:104D20001B6F184609F05EFF03463B6139697869DD
:104D300009F0ACFF0346514918460AF05BF80346F8
:104D4000FB603B68DC684E49F8680AF053F803469C
:104D50001946204609F092FE03461A463B68DA607F
:104D600097F82F30013387F82F3097F82F30022B28
:104D7000ABD95CE07B6893F84835012B57D1002311
:104D800087F82E304FE03C4BD3F8581997F82E2077
:104D900013461B019B1A9B000B441B6893F8513070
:104DA000032B3BD1344BD3F8581997F82E201346D8
:104DB0001B019B1A9B000B441B689B6E184609F055
:104DC0000DFF03463B622C4BD3F8581997F82E2061
:104DD00013461B019B1A9B000B441B681B6F184654
:104DE00009F000FF0346FB61F969386A09F04EFFDC
:104DF00003462449184609F0FDFF0346BB613B68A2
:104E00005C691F49B86909F0F5FF03461946204659
:104E100009F034FE03461A463B685A6197F82E3073
:104E2000013387F82E3097F82E30022BABD9B96AB0
:104E3000786A09F02BFF03461A463B685A603B68C4
:104E40009C683B685B680E49184609F0D3FF03462F
:104E50001946204609F012FE03461A463B689A603E
:104E6000386802F059FF00BF3437BD4690BD00BF1F
:104E70000AD7A3703D0AF33F582D0020002474493F
:104E80000000E145002474C980B584B000AF7860AB
:104E90007B6803F2B453FB60FB689B78012B10D155
:104EA000FB685B68002B07D1FB6800225A70FB6827
:104EB000DB68F868984704E0FB685B685A1EFB688B
:104EC0005A6000BF1037BD4680BD80B582B000AFCC
:104ED00078607B68D3F8F4357A6802F5BD621046D5
:104EE000984700BF0837BD4680BD80B584B000AF8D
:104EF000F860C7E90023FB6803F51E631946F868EC
:104F000000F092F8FB6803F6F8131946F86800F011
:104F10008BF8FB6803F521631946F86800F0BCF8CC
:104F2000FB6893F8103A122B0DD1FB6893F8B0355B
:104F3000022B08D0FB6893F8B035032B03D0F86838
:104F400000F030F925E0FB6893F8103A122B0ED1EF
:104F5000FB6893F8B035022B04D0FB6893F8B035AA
:104F6000022B04D1FB68112283F8102A11E0FB68A0
:104F700093F8103A132B08D1FB6893F8B035012B46
:104F800003D0F86800F052F903E0FB680022C3F890
:104F9000202AFB6893F8B035032B0ED1FB6893F8F9
:104FA000103A112B09D1D7E90023F86800F060F915
:104FB000FB68012283F8252A0DE0FB6893F8253A67
:104FC000002B08D0D7E90023F86800F07FF9FB68D0
:104FD000002283F8252A00BF1037BD4680BDFFFFA1
:104FE00080B588B002AF0346FB710C4AFB791370A1
:104FF0000B4A07F10C0307CA83E807003223019329
:1050000007F10C03009300234FF4045202210548DA
:1050100003F094FA00BF1837BD4680BD9C170020EE
:1050200048F2010088300020B0B485B000AF78604D
:1050300039603B68D3E90223002B08BF022A0AD358
:105040003B68D3E9022312F1FF3443F1FF353B689B
:10505000C3E902451CE03B685B78FB73FB7B102BCC
:1050600003D13B6810221A7012E0FB7B112B0FD189
:105070003B681B78112B0BD07B68D3F88C35012B48
:1050800003D93B6812221A7002E03B6811221A70A1
:105090001437BD46B0BC7047B0B485B000AF78607F
:1050A00039603B68D3E90223002B08BF022A0AD3E8
:1050B0003B68D3E9022312F1FF3443F1FF353B682B
:1050C000C3E9024527E03B685B78FB73FB7B002B61
:1050D00020D0FB7B102B06D13B6813221A703B6853
:1050E00000225A7017E0FB7B112B14D13B681B7810
:1050F000112B10D03B681B78122B0CD07B68D3F897
:105100008C35012B07D83B6812221A703B680022AD
:105110005A7000E000BF1437BD46B0BC7047FFFFB7
:1051200080B586B000AF78601B48FDF79BFC7861C6
:105130001A48FDF797FC38611948FDF793FCF860B1
:105140007B69112B05D17B69DAB27B6883F8E02992
:1051500003E07B68102283F8E0293B69112B05D11D
:105160003B69DAB27B6883F8F82903E07B68102298
:1051700083F8F829FB68112B05D1FB68DAB27B684C
:1051800083F8112A03E07B68102283F8112A00BFFC
:105190001837BD4680BD00BF400200084402000829
:1051A0004802000880B584B000AF78607B68D3F80F
:1051B000F4371C4898471C4BFB60F868FDF768FC07
:1051C0000346032B2AD801A252F823F0DD51010037
:1051D00017520100FF5101000F5201007B68D3F804
:1051E000203A591C7A68C2F8201AC82B15D9012018
:1051F000FFF7F6FE7B680022C3F8202A0DE0F8686E
:10520000FDF752FC7B68112283F8102A06E0F8684B
:10521000FDF74AFC02E000BF00E000BF00BF10370E
:10522000BD4680BD443500208830002080B582B066
:1052300000AF78607B68D3F8F8370C4898477B68F4
:10524000D3F8203A591C7A68C2F8201A0A2B08D8D9
:105250007B680022C3F8202A7B68102283F8102A7A
:1052600000E000BF0837BD4680BD00BF44350020C8
:10527000B0B584B000AFF860C7E90023124BD3E9A2
:105280000001D7E90023994208BF904218D2FB6879
:10529000D3F8FC36FA6802F2EC6210469847FB68D5
:1052A000D3F81C37FA6802F20C7210469847D7E917
:1052B000002312F5FA7443F10005034BC3E90045DE
:1052C00000BF1037BD46B0BD2014002080B584B0AB
:1052D00000AFF860C7E90023FB68D3F8F836FA6836
:1052E00002F2EC6210469847FB68D3F81837FA6868
:1052F00002F20C721046984700BF1037BD4680BDC1
:1053000080B582B000AF78607B6803F5B96318465A
:1053100002F064FCFDF7D6FB80B487B000AFF86004
:10532000B9601346FB800023FB820AE0FB8ABA685F
:105330001A44FB8AF9680B4412781A70FB8A01330D
:10534000FB82FA8AFB889A42F0D300BF00BF1C3769
:10535000BD4680BC704780B485B000AF78600B4616
:105360007B807B883B813A7A7B681A707B6801334B
:105370007A7A1A7000BF1437BD4680BC704780B47B
:1053800085B000AF786039603B68BB603A7A7B6873
:105390001A707B6801337A7A1A707B680233BA7AA2
:1053A0001A707B680333FA7A1A7000BF1437BD464F
:1053B00080BC704780B483B000AF7860034A7B68DC
:1053C000136000BF0C37BD4680BC7047C811002079
:1053D00080B584B000AFF860B9607A60FB68D3F83C
:1053E000C832C3F31C031A46BB68934218D1FB684A
:1053F00093F8CB3203F04003DBB2002B0ED1FB68F5
:1054000003F53470FB6893F8D8329BB21A4679687A
:10541000FFF782FFFB68012283F8D922012333E0E2
:10542000FB68D3F8FC31C3F31C031A46BB689342F4
:1054300012D1FB6893F85832002B0DD0FB6803F5AE
:105440000173082279681846FFF766FFFB6801229E
:1054500083F80D22012317E0FB68D3F86432C3F30D
:105460001C031A46BB6893420DD1FB6803F51B73FE
:10547000082279681846FFF74FFFFB68012283F87E
:105480007522012300E0002318461037BD4680BD79
:1054900080B582B000AF7860164B1B789BB219467E
:1054A0007868FFF758FF7B680133124A527892B24E
:1054B00011461846FFF74FFF7B6802330E4AD2F8B9
:1054C000442892B211461846FFF745FF7B68181D25
:1054D000094BD3F88039094A82FB03129210DB177B
:1054E000D31A9BB21946FFF736FF00BF0837BD46F7
:1054F00080BD00BF1C130020582D00206766666623
:1055000090B583B000AF78600D4BD3F8DC3518460A
:1055100009F0A8FD034619467868FFF730FF7B685D
:105520001C1D074BD3F8D435184609F09BFD0346E4
:1055300019462046FFF723FF00BF0C37BD4690BD3C
:10554000582D002080B582B000AF78607B680333AF
:10555000154AB2F8D42911461846FFF7FCFE124B43
:10556000D3F858391B6893F8A8207B681A707B68B9
:1055700001337B600C4BD3F858393C331B6893F8EC
:10558000A8207B681A707B6801337B60064BD3F8D8
:10559000583978331B6893F8A8207B681A7000BFCD
:1055A0000837BD4680BD00BF582D002080B582B0B1
:1055B00000AF7860184BD3F808369BB2194678686C
:1055C000FFF7C9FE7B6802337B60134BD3F81039B9
:1055D000184609F047FD0346DAB27B681A707B680B
:1055E00001337B600C4B93F8E0297B681A707B6871
:1055F00001337B60084B93F8F8297B681A707B684D
:1056000001337B60044B93F8102A7B681A7000BF4B
:105610000837BD4680BD00BF582D002080B582B040
:1056200000AF7860094BD3F824017B681B68C3F393
:105630001C0319467B681B7C1A467B68083308F0FC
:105640008FFB00BF0837BD4680BD00BF582D00202E
:1056500080B582B000AF786039603A6879680348F5
:10566000FFF7B6FE00BF0837BD4680BD902E002074
:10567000B0B586B004AF00F0C3FB2B48FFF79AFE2D
:105680002A4B19682A4B1B682A4A2B4804F05FFBF7
:1056900026492A4804F06CF90023FB712FE0FA79BF
:1056A00013461B019B1ADB0003F5A873244A9818C4
:1056B000FA791346DB0013449B0003F5CC731B4AB5
:1056C0001344191D1E4BD3F84C41FA7913469B0025
:1056D00013449B0003F5A473144A13440433FA796A
:1056E000184D55F82220029202220192009323467F
:1056F0000A46124904F04EFAFB790133FB71FB793B
:10570000032BCCD90E4BD3F84C310C4A07490E4829
:1057100003F07DFC094A05490C4802F0ABFE00BFCE
:105720000837BD46B0BD00BF1D560100980D0020D2
:10573000880D0020E00D0020902E00205831002020
:10574000582D0020B8090020F030002088300020BB
:1057500080B485B000AF78607B681B783B727B6853
:105760005B787B727B689B78BB727B68DB78FB72B3
:10577000BB6818461437BD4680BC704780B485B0FE
:1057800000AF78600B467B807B883B813A7A7B68F0
:105790001A707B6801337A7A1A7000BF1437BD46DD
:1057A00080BC704780B485B000AF786039603B68DA
:1057B000BB603A7A7B681A707B6801337A7A1A7018
:1057C0007B680233BA7A1A707B680333FA7A1A70EC
:1057D00000BF1437BD4680BC704780B483B000AFB3
:1057E00078600B46FB707B68FA7883F8402500BF31
:1057F0000C37BD4680BC70472DE9B04F92B000AF6A
:10580000414BD3F88C35012B01D9022376E03F4B75
:105810001B78102B05D03D4B1B78112B01D0022398
:105820006CE03B48FFF794FF7864384B1B781A46CE
:105830007B6C93420BD1354B1A78334B83F8F929A3
:1058400005220021314809F078FC032356E0314B52
:105850003C1D1D460FCD0FC40FCD0FC40FCD0FC47F
:1058600095E80F0084E80F003B1D0433274A1278A7
:1058700011461846FFF796FF3B1D40221946254862
:1058800008F046FB0346002B32D1204B1A781E4B02
:1058900083F8F929204B1846FFF75AFF03461C46A8
:1058A0004FF0000522462B4612EB020A43EB030B96
:1058B00052465B46121945EB03034FF000004FF0D0
:1058C0000001590141EAD2615001121841EB030372
:1058D00012EB040843EB05090B4B03F52063C3E906
:1058E000008905220021094809F027FC032305E06F
:1058F00005220021054809F020FC022318464837FC
:10590000BD46BDE8B08F00BF582D002028140020F0
:105910004402000840020008291400202DE9B04F7D
:1059200092B000AF3D4B1B78102B05D03B4B1B7842
:10593000112B01D002236CE03948FFF709FF78648E
:10594000364B1B781A467B6C93420BD1334B1A783B
:10595000344B83F8E12905220021304809F0EDFBA2
:10596000032356E02E4B3C1D1D460FCD0FC40FCD1B
:105970000FC40FCD0FC495E80F0084E80F00274B2C
:105980001B781A463B1D11461846FFF70BFF3B1DBF
:1059900040221946224808F0BBFA0346002B32D1B8
:1059A0001E4B1A781F4B83F8E1291F4B1846FFF74F
:1059B000CFFE03461C464FF0000522462B4612EB55
:1059C000020A43EB030B52465B46121945EB0303F5
:1059D0004FF000004FF00001590141EAD26150013F
:1059E000121841EB030312EB040843EB05090D4BBE
:1059F00003F6E813C3E9008905220021074809F0EE
:105A00009CFB032305E005220021044809F095FBD7
:105A1000022318464837BD46BDE8B08F3014002039
:105A200040020008582D0020311400202DE9B04F0D
:105A300092B000AF434BD3F88C35012B05D9424BC4
:105A40001B78112B01D0022376E03F4B1B78102BE3
:105A500005D03D4B1B78112B01D002236CE03B4855
:105A6000FFF776FE7864384B1B781A467B6C9342BE
:105A70000BD1354B1A78334B83F8112A05220021BC
:105A8000314809F05AFB032356E0314B3C1D1D46BB
:105A90000FCD0FC40FCD0FC40FCD0FC495E80F006D
:105AA00084E80F003B1D0833274A12781146184638
:105AB000FFF778FE3B1D40221946254808F028FADA
:105AC0000346002B32D1204BDAB21E4B83F8112A49
:105AD000204B1846FFF73CFE03461C464FF00005DE
