:020000021000EC
:10000000901F0120BD480100A5460100994801004C
:100010009948010099480100994801009948010058
:10002000000000000000000000000000F5040100D6
:1000300099480100000000000D0501007505010050
:10004000A11801000D180100351901007D190100EA
:10005000A11801000D180100351901007D190100DA
:10006000A11801000D180100351901007D190100CA
:10007000FD3C0100D53D0100F13E0100D53D0100F0
:10008000F13E0100011D0100351E0100A90D010016
:10009000350E0100550F01003510010061370100D8
:1000A000ED360100A12D010071260100E5260100B9
:1000B0000000000000000000000000000000000040
:1000C0000000000000000000000000000000000030
:1000D0000000000000000000000000000000000020
:1000E0000000000000000000000000000000000010
:1000F0000000000000000000000000000000000000
:1001000000000000000000000000000000000000EF
:1001100000000000000000000000000000000000DF
:1001200000000000000000000000000000000000CF
:1001300000000000000000000000000000000000BF
:1001400000000000000000000000000000000000AF
:10015000000000000000000000000000000000009F
:10016000000000000000000000000000000000008F
:10017000000000000000000000000000000000007F
:10018000000000000000000000000000000000006F
:10019000000000000000000000000000000000005F
:1001A000000000000000000000000000000000004F
:1001B000000000000000000000000000000000003F
:1001C0000348044B834202D0034B03B118477047E6
:1001D000BC250020BC25002000000000064B07497C
:1001E000C91A891048BF0131491003D0044B0BB123
:1001F00001481847704700BFBC250020BC250020DF
:100200000000000010B5064C237843B9FFF7D8FF73
:10021000044B13B10448AFF300800123237010BDD9
:10022000D82500200000000064A2020008B5054B9C
:100230001BB105490548AFF30080BDE80840FFF752
:10024000CDBF00BF00000000DC25002064A202003A
:1002500008B541F288300BF06EFF012420460BF008
:100260006AFFFBE77047FFFF08B505F089FB024B0B
:1002700018601868002108BDF425002008B50BF0AF
:10028000ADFC0321044806F0DBFB11F0C3F8034C7E
:10029000204611F00FF9FBE765020100E817002086
:1002A00008B541F288300BF046FF044D0124284682
:1002B00011F038F920460BF03EFFF8E7E817002070
:1002C000022800D0704708B50249034802F070FBCD
:1002D00008BD00BFEC9602000426002010B50446BD
:1002E00000F08EF82046FFF7B3FF10BD00B583B0D5
:1002F0000C4A1368013313600B4B019307230093DF
:100300000A4B4FF400720A490A4805F0B5FA012871
:1003100002D103B05DF804FB0021034B186800F024
:100320006CF8F6E70C2D0020F8250020549402000C
:10033000DC810200DD02010010B5044600F060F827
:100340002046FFF79BFF10BD00B583B00C4A136831
:10035000013313600B4B0193072300930A4B4FF4B7
:10036000C0620A490A4805F087FA012802D103B0A1
:100370005DF804FB0021034B186800F03EF8F6E737
:100380000C2D0020FC25002058940200E88102007A
:100390003903010010B5044600F032F82046FFF79B
:1003A0007FFF10BD00B583B00C4A136801331360A2
:1003B0000B4B0193072300930A4B4FF4A0620A49A9
:1003C0000A4805F059FA012802D103B05DF804FB90
:1003D0000021034B186800F010F8F6E70C2D002000
:1003E000002600205C940200F081020095030100C9
:1003F000704708B5FFF7FCFF08BD00BE7047FFFF60
:1004000070B54FF0FF31184B186804F01FFF01283A
:1004100003D1164B1B7833B170BD0021124B186805
:10042000FFF7EBFFF5E7114B01221A70FFF7E1FF31
:100430000F4A1368013B1360002BEDD00A4E0024D5
:10044000154604E02B68013B2B60002BE4D02346CB
:1004500022462146306804F067FD0128F2D021468B
:100460003068FFF7CAFFEDE7042D0020082D0020BB
:100470000C2D002008B500230D4A13600D4A13709F
:100480000D4A01214FF4807004F030FD0B4B1860D1
:1004900048B1FFF787FFFFF757FFFFF727FF05F08A
:1004A0001FFA002008BD00210846FFF7A6FFF0E76D
:1004B0000C2D0020082D0020BC2C0020042D002035
:1004C000034B0360034B0B6080231360704700BF36
:1004D000542C0020542A0020034B0360034B0B6074
:1004E00080231360704700BFEC290020EC27002018
:1004F00000BEFEE71EF0040F0CBFEFF30880EFF321
:100500000980014908470000990501000F4B19684F
:10051000EFF309821EF0100F08BF22ED108A22E9C6
:10052000F04FEFF30B8342F8043D0A604FF01000E8
:1005300080F31188BFF34F8FBFF36F8F05F00CFC72
:100540004FF0000080F3118800F002B890B0002056
:10055000074801680A6802CA81F30B88B2E8F04FC5
:100560001EF0100F08BFB2EC108A82F309887047A2
:1005700090B0002010B5EFF31184102383F311889D
:1005800005F004FA18B1034B4FF080525A6084F31F
:10059000118810BD00ED00E008B5836913F8023C36
:1005A000022B02D0032B03D808BDFFF7D1FFFBE7D6
:1005B000034B044A4FF47E71034804F024F800BF53
:1005C000FC810200B09802001082020010B44FF0CB
:1005D000807440F8044C22F0010240F8082C074ACD
:1005E00040F80C2C40F8203C6FF0020340F8243C0B
:1005F000283140F8481D5DF8044B7047F1040100B4
:1006000008B5EFF31181102383F311880A4A1368A8
:1006100001331360012B00D008BD084B1960084B53
:100620005B68C3F30803002BF6D0064B064A40F282
:10063000A441064803F0E7FF142D0020102D0020F0
:1006400000ED00E0388202009C9802001082020057
:1006500008B5094B1B6843B1013B074A13601BB93E
:10066000064B1B6883F3118808BD054B054A40F211
:10067000AD41054803F0C7FF142D0020102D0020C8
:10068000808202008898020010820200E8B1184BB4
:100690009B8998B21BB2002B18DBBFF34F8F30BF82
:1006A000BFF36F8F62B6BFF36F8F72B6002B0CDA99
:1006B0000F4AB2F8FE339BB24AF20251A2F8FE137F
:1006C000908143F42543A2F8FE3370470849B1F8FE
:1006D000FE2392B24AF2025CA1F8FEC34FF0000C76
:1006E000A1F80CC042F42542A1F8FE23D5E700BFD3
:1006F00000E0014008B572B605F03AF90120FFF7B5
:10070000C5FF62B605F02AFA08BDFFFF0A4B1B6859
:100710000A4AA2FB03239B09013BB3F1807F0AD263
:100720004FF0E0225361064BF02183F823100023A1
:100730009361072313617047E82E0020D34D6210A8
:1007400000ED00E008B50C4BF02283F82220FFF703
:10075000DDFF0A4A536B43F04043536362B6BFF375
:100760006F8FEFF3148C2CF0040C8CF31488BFF310
:100770006F8F02DF00BEFDE700ED00E000EF00E05C
:100780004162C262836200207047FFFF10B50446D9
:100790000023036043685B691BB19A68126A18689A
:1007A000904763681B691BB19A68126A1868904782
:1007B000636893F90230002B0DDB5A0903F01F0325
:1007C0000121994002F12003214A42F82310BFF38E
:1007D0004F8FBFF36F8F636893F90130002B0DDBF0
:1007E0005A0903F01F030121994002F12003184A1E
:1007F00042F82310BFF34F8FBFF36F8F636893F9F5
:100800000330590903F01F03012202FA03F31048D1
:10081000203140F82130BFF34F8FBFF36F8F6368F3
:1008200093F90430590903F01F039A4001F12003A2
:1008300040F82320BFF34F8FBFF36F8FA268137868
:1008400023F040031370A368DA780020D87010BD3D
:1008500000E100E070B50E461D469DF8103081683D
:10086000097811F0400F40F0DB800446C660026159
:10087000002141618161C56180F82030416848698B
:1008800000282BD0A5610F2B7FD94B695B681B68B3
:10089000D978022060F30511D97063685B695B68E1
:1008A0001B689978022060F38301997063685B6923
:1008B0005B681B68A9B2D98163685B695B681B6868
:1008C0009A60002A74D063685B6959689A685268B4
:1008D0000968186890470346002854D163681A696C
:1008E000002A31D0656194F820200F2A6FD91B6946
:1008F0005B681B68DA78022161F30512DA706368BD
:100900001B695B681B68DA78022161F38302DA7085
:1009100063681B695B681B68ADB2DD8163681B6936
:100920005B681B685E60002E64D0A268137823F0B9
:100930002003137063681B6959689A6852680968D4
:10094000186890470346F0B9A068C27AD2B2038A09
:100950009BB294F820100F295BD922F0400242F09C
:10096000200201318908053923F47063D2B2C272C2
:10097000A26843EA01239BB21382A268137843F072
:10098000600313700023184670BD072B07D84B690E
:100990005B681968CB7823F03003CB707DE74B6937
:1009A0005B681B68D978012060F30511D97074E782
:1009B00063685B695B681A68937823F00C03937033
:1009C00063685B695B681B68164A9A607BE7072A65
:1009D00007D81B695B681A68D37823F03003D3709B
:1009E0008DE71B695B681B68DA78012161F30512EA
:1009F000DA7084E763681B695B681A68D37823F050
:100A00000C03D37063681B695B681B68064A5A60F5
:100A10008BE7072994BF42F0400222F06002A3E76F
:100A20000823B0E71C2D0020182D002000B583B04E
:100A3000009313460A460021FFF70CFF03B05DF850
:100A400004FB00B583B0009313460022FFF702FFBA
:100A500003B05DF804FB10B582B09DF8104000941F
:100A6000FFF7F8FE02B010BD10B584B004468C4606
:100A7000836AC3B193E807000DF1100E0EE9070079
:100A8000626812781A6083F804C0E26A9A60626A47
:100A900018469047A36A23B104AA12E9070083E825
:100AA000070004B010BD01ABEAE7FFFF2DE9F04FEE
:100AB00085B004460D460E690B781B02B44F1F44E7
:100AC00086B173681B684FF000621A6073681B6818
:100AD0009F60B3681B68716830689847804600283B
:100AE00040F0D7806B69002B00F02E815A681268A5
:100AF0004FF4002111605A68126857609A681268B2
:100B00005968186890478046002800F01D81002E23
:100B100000F0BF80B3681B6A30689847B9E0287856
:100B200008B946EAC11643F0B003507823EAC0136F
:100B3000410141EA40010B430193D37890789840FA
:100B400026F0700E1B011579002D00F0A680022DF5
:100B50000CBF3026202655792DB1012D14BF4CF045
:100B6000010C4CF0030C92F80680157A05F0030591
:100B700043EA850343EA0E03002F40F0908043F4DC
:100B80006043517A0291917A039192F80BE0EFF36E
:100B9000108A012585F310887E4FD7F8049061688C
:100BA00091F800B0CBF1130B05FA0BF529EA050516
:100BB0007D607D688AF31088A568EF780027EF7064
:100BC000A5689DF804102970A168C0B24870A1689A
:100BD000F6B28E70A168D2798A72A2689DF8081068
:100BE0001173A1689DF80C204A73A2685FFA8EFE0B
:100BF00082F80EE0A2685FFA8CFC82F80FC0A2684F
:100C00009BB21382A36883F82080A368102283F824
:100C10002120626892F90230BB4247DA626892F999
:100C20000130002B69DA626892F90430127A1201FD
:100C3000D2B25949C81880F80023584840F82340D8
:100C4000574A03F1C00552F8256026F4803642F871
:100C5000256052F82520BFF35F8F03F01F050122A6
:100C6000AA405B099B0003F1604303F56143C3F8AD
:100C700080211A60636893F90320DB791B01DBB2E2
:100C8000114481F8003340F82240464B23604FF076
:100C90000008404605B0BDE8F08F00265BE74FF046
:100CA000000ECDF80CE0CDF808E070E79279120163
:100CB000D2B203F1604101F5614181F80023374A66
:100CC00042F82340364A03F1C00152F8210020F4D3
:100CD000803042F8210052F82120BFF35F8F03F0EB
:100CE0001F0101228A405B099B0003F1604303F569
:100CF0006143C3F880211A6090E752791201D2B2A1
:100D000003F1604101F5614181F80023234A42F873
:100D10002340234A03F1C00152F8210020F480301F
:100D200042F8210052F82120BFF35F8F03F01F012A
:100D300001228A405B099B0003F1604303F5614394
:100D4000C3F880211A606EE76560AB696362EB6986
:100D5000E3620023A3622B7803F5800303F58D5330
:100D60001B02A3606F7AB7FA87F14909CB004FEAFB
:100D7000011CEA7A6E7B360346EA4206AA7A1643DB
:100D80002A6A107800283FF4CAAE43F0B103CCE6DB
:100D900004A011400040084000E100E05C2D00206C
:100DA0000060004049505352EFF30383103B5BB2A5
:100DB0001D4A03F1C00152F8210020F4803042F8AE
:100DC000210052F82120194A52F823309A69D96932
:100DD0008A421BD0196969B193F820000F280CD9F9
:100DE0009868406841F8220001329A61D9699142BD
:100DF0000CD0704799684968F6E70728986899BF4A
:100E000000798854808821F81200EDE75B6893F937
:100E10000330590903F01F03012202FA03F3044AC5
:100E200042F82130E5E700BF006000405C2D002063
:100E300000E100E0EFF30383103B5BB2424A03F1B1
:100E4000C00152F8210020F4803042F8210052F80D
:100E500021203E4A52F8233059680A6A12B152786A
:100E6000012A11D05A69D9698A426BD0D968002900
:100E70005BD093F820000F285BD9986851F82210B6
:100E8000416001325A617047DA69013A586990420B
:100E90000ED00A69002AE5D091F90320500902F02A
:100EA0001F02012101FA02F2294941F82020D9E765
:100EB00010B491F90320244902F1C00051F82040F8
:100EC00024F4803441F8204051F82010BFF35F8FA4
:100ED00002F01F00012181405209920002F160429C
:100EE00002F56142C2F8801111605A69D9698A42DB
:100EF0000BD0D96861B193F820000F280CD99868FD
:100F000051F82210416001325A615DF8044B70477C
:100F1000996800204860F6E70728986899BF895CBF
:100F2000017131F812108180EDE799680020486066
:100F3000A7E70728986899BF895C017131F81210FA
:100F400081809EE7704700BF006000405C2D00205C
:100F500000E100E0EFF30383103B03F0FF0C5BB212
:100F6000314A03F1C00152F8210020F4803042F8E8
:100F7000210052F821202D4A52F823008268D278AD
:100F800012F0020F04D04268527A012A00D0704752
:100F900010B55B090CF01F0C012202FA0CF2203391
:100FA000234941F82320BFF34F8FBFF36F8F43686E
:100FB00093F90230002B0DDB5A0903F01F030121C6
:100FC000994002F120031A4A42F82310BFF34F8FD1
:100FD000BFF36F8F8268137823F040031370436868
:100FE00093F90230002B03DA0121FFF73DFD10BD1C
:100FF0000D4A03F1C00152F8214024F4803442F834
:10100000214052F82120BFF35F8F03F01F0101221E
:101010008A405B099B0003F1604303F56143C3F819
:1010200080211A60E0E700BF006000405C2D0020D6
:1010300000E100E070B5EFF30383103B5CB2324B8C
:1010400053F824506B6893F90230002B0DDB5A09DA
:1010500003F01F030121994002F120032B4A42F8BB
:101060002310BFF34F8FBFF36F8FAA68137823F05D
:10107000400313706B6893F90230002B1ADAAA68E8
:10108000D378DEB20021D17013F0080F2DD116F005
:10109000010F2FD106F01406142E30D01C4A04F193
:1010A000C00352F8231021F4803142F8231052F883
:1010B000233070BD164A03F1C00152F8210020F41C
:1010C000803042F8210052F82120BFF35F8F03F0F7
:1010D0001F0101228A405B099B0003F1604303F575
:1010E0006143C3F880211A60C9E705212846FFF74C
:1010F000BBFCCCE704212846FFF7B6FCCAE7082171
:101100002846FFF7B1FCC9E75C2D002000E100E0B4
:101110000060004010B40346002058601A6A9070C6
:10112000DA6992F905204FEA521C02F01F020121F0
:1011300001FA02F2284C0CF1200C44F82C20BFF3E9
:101140004F8FBFF36F8FDA6992F90B204FEA521C71
:1011500002F01F0201FA02F20CF1200C44F82C20DC
:10116000BFF34F8FBFF36F8FDA6992F907204FEA11
:10117000521C02F01F0201FA02F20CF1200C44F89A
:101180002C20BFF34F8FBFF36F8FDA6992F90920DC
:101190004FEA521C02F01F0201FA02F20CF1200C7D
:1011A00044F82C20BFF34F8FBFF36F8FEFF3108401
:1011B00081F31088094A5168DB6993F800C04FF049
:1011C000004323FA0CF30B435360536884F31088F5
:1011D0005DF8044B704700BF00E100E000400840AC
:1011E000416182610020704710B4046AA37803F063
:1011F0007B03A370837803F00303D21A02610B44CC
:10120000C360026A937843F080039370837803F09D
:101210000303022B06D0036A0A78DA7000205DF817
:10122000044B7047026A0B8843F47E43D381F5E791
:101230004162C2628362002070474FF0FF334B600F
:101240000B6000207047034611F0020F0CD0006ABB
:10125000827802F07B0282700020186111F0010F89
:101260001CBF0020986170470620F7E7034682699B
:101270000A6000209861704730B4540902F01F03DF
:1012800001259D400E4B203443F82450BFF34F8F6F
:10129000BFF36F8F0B4C02F1C00C54F82C5025F4A7
:1012A000803544F82C5054F82C400901C9B213443D
:1012B00083F80013044B43F8220030BC704700BF92
:1012C00000E100E0006000405C2D002070B584B0BB
:1012D00005460E469446846ACCB194E80F000DF1A1
:1012E000100E0EE90F00EB691B782360A66084F8EE
:1012F00004C0EB6AE3606B6A20469847AC6A24B18D
:1013000004AB13E90F0084E80F0004B070BD6C4615
:10131000E9E7FFFFF8B504460D460B7801229A4035
:1013200012F0060F06D0CA695268127812F0080F40
:1013300040F0468103F5800303F58C531B022362C2
:1013400000232370E5616A696262AA69E262A362AE
:10135000A378012262F30103A3706B78002B08BF0E
:101360000222A37862F30103A37095F90B20A97AF6
:101370002046FFF781FF95F9052029792046FFF7E0
:101380007BFF95F90720A9792046FFF775FF95F9AE
:101390000920297A2046FFF76FFFEFF31080012321
:1013A00083F31088874B5A682E784FF00041F14044
:1013B00022EA01025A605B6880F31088226A0023E7
:1013C0009370226A1371226A5372226A9372226A9C
:1013D000D372226A53832A7840F21923D34013F040
:1013E000010F02D0236A4022DA74236A06221A7798
:1013F0002A7840F21923D34013F0010F03D0236A57
:101400004FF478429A82AA78EB78DB0043EA021321
:101410006A78032A00F0B580002A0CBFE222F2228B
:10142000216ADBB20B70216AD3B28B71E9690B7B45
:10143000082B00F0AA80226A5B0003F002035373BA
:101440004B78DB01DBB28A78520102F020021343B1
:10145000226A002010720A78023AD2B2012A00F2FF
:101460009880226AFF2050700A78022A08BF43F051
:101470001003226ADBB2D3710020E060206160615A
:10148000A061ED69297801F00301E36993F9053062
:101490004D4A03F1C00652F8267060F3104742F837
:1014A000267052F82660BFF35F8F03F01F064FF0DF
:1014B000010C0CFA06F65B099B0003F1604303F58F
:1014C0006143C3F880611E60E36993F90B3003F157
:1014D000C00652F8267060F3104742F8267052F8A2
:1014E0002660BFF35F8F03F01F060CFA06F65B0958
:1014F0009B0003F1604303F56143C3F880611E6004
:10150000E36993F9073003F1C00652F8267060F3DF
:10151000104742F8267052F82660BFF35F8F03F041
:101520001F060CFA06F65B099B0003F1604303F506
:101530006143C3F880611E60E36993F9093003F1E8
:10154000C00652F8267060F3104742F8267052F831
:101550002620BFF35F8F03F01F020CFA02F25B0933
:101560009B0003F1604303F56143C3F880211A60D7
:1015700041F07001236A99706B892381134B63607A
:10158000F8BD43F04003F2224AE7236A0A225A7365
:1015900056E7226ADBB2D371236A4A6891785970A0
:1015A0005078197860F301011970D1789974D9795C
:1015B000127802F05C0201F0A3010A43DA715BE7E2
:1015C0000320DDE7004008400060004055494353D8
:1015D0000346C26910780122824012F0060F03D040
:1015E0000A7812F0080F25D110B5186A827802F037
:1015F0007B0E02F00B0282700020D8601A6A8C7891
:1016000054704C7892F800C064F3010C82F800C06A
:1016100091F803C082F812C092F807C0097801F06F
:101620005C010CF0A30C41EA0C01D1711B6A83F838
:1016300002E010BD032070472DE9F04F8BB00690FB
:10164000009192461E46FF23B370337823F00403C3
:1016500033708023F370674B1B6AC3F30261664AE1
:1016600012688A40C3F3023322FA03FE634B9A45A1
:1016700000F394804FF00008614FAEFB0723019206
:101680004FEA1E2205924446CDF81CE0CDF824A076
:101690009A4675E0337843F00403337086F803808C
:1016A000A4EB0B04002D38D0013D2246E31701982E
:1016B000514611F0C1FB009B002B73D0059BB4FB7E
:1016C000F3F313F0800F50D0DAB202FB00F00028E1
:1016D000B8BFFF300012A0F5C330A0380028B8BF53
:1016E0004042B842D6DA5FFA83F8464B13F8092035
:1016F000C2F30001337861F38613039961F3041395
:10170000049961F3C3033370C2F3C102737862F3C7
:1017100001037370B5700746BCE74B46DDF808E07F
:1017200001330D2B25D0374A12F803B0CBF3400C10
:10173000CBF3800B4CEA0B027245F1D1324A32F8FE
:101740001320069901FB02F9079AB2FBF9F5691E0D
:10175000FF29E5D805FB09F4CDF80CC0CDF810B091
:10176000CB469946CDF808E09EE74B46DDF808E009
:10177000D6E7089C0134022C07D0099B9F420FDD5D
:1017800000235FFA84FE0894CDE7DDF824A05745D6
:10179000CCBF032000200BB0BDE8F08F0020FAE79B
:1017A0000020F8E7DDF80CC0DDF810B04B46DDF89E
:1017B00008E0A0F5C330A0380028B8BF4042B842C6
:1017C000AEDA104A12F80940C4F30001327861F32E
:1017D00086126CF304126BF3C3023270C4F3C104BB
:1017E000727864F301027270B57007464FF000081A
:1017F00096E700BF00E00140E82E00209F86010030
:10180000A08601001C9902000099020008B5EFF3C0
:101810000383103B5BB2204A03F1C00152F8210060
:1018200020F4803042F8210052F821201B4A52F85F
:101830002300C3691B6913B10369E3B108BD0369E0
:10184000CBB1837803F00303022B0DD0036AC26887
:101850001278DA70837803F003030269D21A026106
:10186000C2681A44C260E7E7026AC3681B8843F48F
:101870007E43D381EEE7026A937803F07F0343F05F
:10188000040393700023C360436A002BD6D08022E8
:101890000021FFF71BFDD1E7006000405C2D002018
:1018A00010B582B0EFF30383103B5BB21F4A03F124
:1018B000C00152F8210020F4803042F8210052F893
:1018C00021201B4A52F82340A37803F00303022B84
:1018D000236A07BF198AC1F308015979C9B2019176
:1018E000A3693BB9636A1BB104222046FFF7EEFCF3
:1018F00002B010BDA27802F0030201A9606913F0E2
:1019000010FDA27802F00302636913446361A369C6
:101910009B1AA361002BEBD1636A002BE8D0012254
:1019200000212046FFF7D2FCE2E700BF0060004044
:101930005C2D002010B5EFF30383103B5CB20D4B20
:1019400053F82400026A937803F07B039370436A90
:101950001BB102220021FFF7B9FC074A04F1C003C2
:1019600052F8231021F4803142F8231052F823302A
:1019700010BD00BF5C2D00200060004010B5EFF3EB
:101980000383103B5CB2194B53F82400837803F0B7
:101990000303022B036A07BF198AC1F308015979AF
:1019A000C9B2036A93F804C00CF038021CF0100F9F
:1019B00006D093F81CC01CF0010F08BF42F0400293
:1019C00093F804C00CF0C70C83F804C0436A0BB151
:1019D000FFF77CFC064A04F1C00352F8231021F4FF
:1019E000803142F8231052F8233010BD5C2D0020C6
:1019F0000060004041600272002070474163C26392
:101A0000836300207047FFFFC368044A934214BFFA
:101A1000002301230B700020704700BF433249535D
:101A200003460269002090701A69F021D172186291
:101A300083F8300083F82E0093F82A2083F82C20B6
:101A4000DA695A6270478161C261017A012924D042
:101A5000003B18BF012380F82D30002380F82C3084
:101A60004362026290F82A2080F82B2080F82F3001
:101A700080F8313080F8333090F82D3013B10123E5
:101A800080F831300369B4229A7090F8303083B90D
:101A900003695122DA7200207047002180F8291072
:101AA000416843EA410180F82810012180F82A109A
:101AB000CEE7002380F8303090F82A30012B0CBF9D
:101AC00090F8282090F829200369DA7090F82B30DC
:101AD000013B80F82B3090F82C30013380F82C300B
:101AE000D9E708B580F82E300123FFF7ACFF08BD19
:101AF00008B580F82E300023FFF7A5FF08BDFFFFD3
:101B0000F0B503460A7802F5800202F58C52120203
:101B1000026101608A6842600A7B0272CA6942639C
:101B20000A6AC26300209863EFF310864FF0010C3D
:101B30008CF31088474A54680F784FF00045FD40F9
:101B400024EA05045460526886F310881A68546ABF
:101B50001A6990701A69F025D5721D69A27802F091
:101B600003022A701A69FA2595711A696578557009
:101B70002278920042F02002D2B21D69EA711A69FD
:101B8000657915721A69E57895742279D20042EA6E
:101B90000C02D2B21C6962721A69232494721A6907
:101BA000507391F90F204C7B2401E4B22A4DAE18FA
:101BB00086F80043294E46F82230294C02F1C0072E
:101BC00054F827E060F3104E44F827E054F82770EB
:101BD000BFF35F8F02F01F070CFA07F7520992005C
:101BE00002F1604202F56142C2F88071176091F91A
:101BF0001020497B0901C9B2154485F8001346F845
:101C0000223002F1C00154F8215060F3104544F82D
:101C1000215054F82110BFF35F8F02F01F010CFA1E
:101C200001F15209920002F1604202F56142C2F8EC
:101C3000801111609861D8611862586283F82D0094
:101C400083F82E0083F82F0083F83000054ADA600D
:101C5000F0BD00BF0040084000E100E05C2D002026
:101C6000006000404332495310B40346026900202B
:101C700090701A6990701A69F021D172186283F815
:101C8000300083F82E0093F82A2083F82C20DA699C
:101C90005A62D860EFF31081012282F31088084A5B
:101CA00054681B6893F800C04FF0004323FA0CF30C
:101CB00023435360536881F310885DF8044B7047E9
:101CC0000040084010B582B004460A46836BA3B1B9
:101CD00093E803000DF1080C0CE90300E16B1960B7
:101CE0001A71626B18469047A36B23B102AA12E9DE
:101CF000030083E8030002B010BD6B46EEE7FFFF70
:101D0000EFF30383103B5BB2484AC03352F8231011
:101D100021F4803142F8231052F82330EFF303838B
:101D2000103B5BB2424A52F823301A69117B11F022
:101D3000010F54D193F82C1093F82A00884215D043
:101D400093F82D0008B102290DD093F82810D17016
:101D500093F82B20013A83F82B2093F82C200132A2
:101D600083F82C2070475223D3727047196A51B3FD
:101D700093F82D0048B95A6A9869805C0139196254
:101D800001325A621B69D870704793F8310030B144
:101D9000002083F83100012910D9907209E05079B0
:101DA00099695A6A88541A6A013A1A625A6A01325F
:101DB0005A621A6A012A01D0FF20E3E71A6920213A
:101DC0009172FF20DEE793F82E1029B15221D172D3
:101DD000012283F8302070475423D372704793F860
:101DE0002D1011B193F8311039B100211962012180
:101DF00083F82F105423D3727047507999695A6A27
:101E000088541A6A013A1A625A6A01325A6293F87D
:101E10002E2032B11A695221D172012283F830206A
:101E200070471B695422DA72704700BF006000409F
:101E30005C2D002008B5EFF30383103B5BB2324A00
:101E400052F823000269D37A23F00803D37290F882
:101E50002F30B3B990F82A2090F82C309A4225D12F
:101E6000036AA3B990F82D10C1F10301C9B290F82B
:101E70003030002B3FD003690022DA72FFF722FFD7
:101E800005E00369F022DA720121FFF71BFFEFF38F
:101E90000383103B5BB21D4AC03352F8231021F478
:101EA000803142F8231052F8233008BDABB9012A23
:101EB0000CBF90F8283090F8293002690021D172C7
:101EC0000269D37090F82B30013B80F82B3090F8EA
:101ED0002C30013380F82C30D9E790F82D2042B116
:101EE000022B01D00023E8E790F8293043F00103EA
:101EF000E3E70023E1E70369F022DA7202699378ED
:101F000003F0CF039370B9E75C2D00200060004020
:101F100043681B780B70044B93F82430C3F3000321
:101F20004B700020704700BF00300840C160426124
:101F30000361002070470620704706207047FFFFAE
:101F4000064A92F8243060F3000382F8243092F8B5
:101F5000243003F001038342F9D170470030084078
:101F600010B504462E4B002283F822201A4692F820
:101F70002230002BFBD10020FFF7E2FF636893F9CA
:101F80000F30002B14DB5A0903F01F030121994085
:101F900002F12003234A42F82310BFF34F8FBFF30F
:101FA0006F8F636893F90F201F4B002143F82210B5
:101FB000636893F90D30002B14DB5A0903F01F03FB
:101FC0000121994002F12003164A42F82310BFF381
:101FD0004F8FBFF36F8F636893F90D20124B002171
:101FE00043F82210636893F91130002B14DB5A096F
:101FF00003F01F030121994002F12003094A42F82E
:102000002310BFF34F8FBFF36F8F636893F91120D5
:10201000054B002143F822100020206010BD00BFB6
:102020000030084000E100E05C2D002000B50178A0
:1020300090F801E090F802C04268224B93F82430F7
:10204000C3F300138B4215D01E4B002083F82E00E3
:10205000184690F82E30002BFBD11A4890F8243007
:1020600061F3041380F8243090F82430C3F3001394
:102070008B42F9D101290FD002F03F0242EA8C12C3
:10208000D2B2104B83F82E20194691F82E30DBB2D5
:102090009342FAD15DF804FB0A4B93F82430C3F362
:1020A00040137345E8D0074991F824306EF3451387
:1020B00081F8243091F82430C3F340137345F9D1EB
:1020C000DAE700BF0030084008B50846FFF7AEFF6A
:1020D000002008BD054BA3FB0023DB0803EB8302B4
:1020E000A0EB420040EA0310C0B27047CDCCCCCC8C
:1020F00070B506460C460020FFF722FF2078FFF758
:10210000E9FF164DA8702079FFF7E4FF2871207AC7
:10211000FFF7E0FF00F03F00A871207EFFF7DAFF35
:102120002872207BFFF7D6FFA87220690130C0B269
:10213000FFF7D0FF287360696438C0B2FFF7CAFFA9
:10214000E88173681A7822B10120FFF7F9FE0020B8
:1021500070BD9868FFF76AFFF6E700BF00300840DF
:10216000030903EB830300F00F0000EB4300C0B250
:102170007047FFFF70B50C46244D287CC6B200F0B6
:102180007F00FFF7EDFF2060F60984F82460A87C4B
:10219000C6B200F07F00FFF7E3FF6060F60984F845
:1021A0002560287DC6B200F07F00FFF7D9FFA06050
:1021B000F60984F82660A87DC6B200F07F00FFF71C
:1021C000CFFFA061F60984F82A60287EC6B200F02D
:1021D0007F00FFF7C5FFE060F60984F82760A87E5E
:1021E000C6B200F07F00FFF7BBFF01382061F6099F
:1021F00084F82860A88BC0B2FFF7B2FF643060613A
:10220000AB7FDB0984F82930002070BD0030084026
:1022100038B504460D4643681A781F4B83F82820CA
:102220000121C82002F0F6F90020FFF789FE63685B
:102230001B78012B2AD0184B002283F824201A4641
:1022400092F82430DB09FBD1134A92F8243043F092
:10225000020382F8243092F8243013F0020FFAD1EE
:102260000D4B002283F822201A4692F82230002BD0
:10227000FBD1094A92F8243043F0400382F824301D
:1022800092F8243013F0400FFAD038BD024B0022F0
:102290005A85AA889A85CEE70030084038B50446AA
:1022A0000D4641604B69C3608B6943610023036144
:1022B0000372FFF7ADFF95F90F20002A0BDBAB7B14
:1022C0001B01DBB202F1604101F5614181F800338D
:1022D000134B43F8224095F90D20002A0BDB2B7B92
:1022E0001B01DBB202F1604101F5614181F800336D
:1022F0000B4B43F8224095F91120002A0BDB2B7C75
:102300001B01DBB202F1604101F5614181F800334C
:10231000034B43F82240034B2360002038BD00BF2D
:102320005C2D00204354520008B54168FFF770FF50
:10233000002008BD1C4A92F8223003F00F0343EA44
:102340000113DBB282F8223092F82230B1EB131F76
:10235000FAD1154A92F8223043F0040382F8223071
:1023600092F8223013F0040FFAD0436893F90F303B
:102370000E4A03F1C00152F8210020F4803042F8E7
:10238000210052F82120BFF35F8F03F01F010122CB
:102390008A405B099B0003F1604303F56143C3F886
:1023A00080211A6000207047003008400060004023
:1023B0002DE9F04106460C46436893F91130002B95
:1023C0000ADB59093F4A52F8212003F01F0322FA81
:1023D00003F818F001082AD13B4A92F8223043F062
:1023E000020382F8223092F8223013F0020FFAD062
:1023F000736893F91130354A03F1C00152F8210096
:1024000020F4803042F8210052F82120BFF35F8F82
:1024100003F01F0101228A405B099B0003F1604326
:1024200003F56143C3F880211A604FF000080027CC
:10243000254D3772A878FFF793FE20602879FFF7C3
:102440008FFE6060A87900F03F00FFF789FEA06072
:10245000287AFFF785FEA061A87AFFF781FEE06089
:10246000287BFFF77DFE01382061E889C0B2FFF7C5
:1024700077FE64306061337A002BDAD1B8F1000F57
:1024800002D00020BDE8F0810F4A92F8223003F01C
:10249000FD0382F8223092F8223013F0020FFAD1B5
:1024A000736893F911305A0903F01F030121994011
:1024B00002F12003034A42F82310BFF34F8FBFF30A
:1024C0006F8FDEE700E100E0003008400060004070
:1024D000F0B583B00C46436893F90D6006F01F0316
:1024E00001279F407509AD0005F1604505F561457F
:1024F000C5F88070BFF34F8FBFF36F8F91F8243012
:10250000002B00F094800878FFF7E4FD60F07F0373
:10251000DBB28DF807309DF80730DBB2524A1374F6
:1025200094F82530002B00F086802079FFF7D2FD4B
:1025300060F07F03DBB28DF807309DF80730DBB227
:10254000494A937494F82630002B78D0207AFFF70C
:10255000C1FD60F07F03DBB28DF807309DF80730D6
:10256000DBB2414A137594F82A30002B6BD0237EDE
:1025700043F080038DF807309DF80730DBB23A4A0C
:10258000937594F82730002B61D0207BFFF7A2FDD4
:1025900060F07F03DBB28DF807309DF80730DBB2C7
:1025A000314A137694F82830002B54D0206901303A
:1025B000C0B2FFF78FFD60F07F03DBB28DF807300C
:1025C0009DF80730DBB2284A937694F82930002B27
:1025D00045D060696438C0B2FFF77CFD8DF8070014
:1025E0009DF80730DBB2204A938394F82930DB0151
:1025F000DBB2937792F8223043F0010382F8223065
:1026000092F8223013F0010FFAD0184BC03653F86D
:10261000262022F4803243F8262053F82630BFF3D8
:102620005F8FC5F880712F60002003B0F0BD0023DC
:102630008DF807306FE700238DF807307DE7002322
:102640008DF807308AE700238DF8073094E70123DF
:102650008DF80730A1E700238DF80730B0E700239D
:102660008DF80730BCE700BF003008400060004034
:1026700030B583B0EFF30383103B5CB2174B53F8D4
:102680002450EB68DBB16B6893F90D20121B18BF67
:10269000012252002B69FBB193E803000DF1080CF5
:1026A0000CE903001A706A695A60EA681846904794
:1026B0002B6923B102AA12E9030083E80300084A48
:1026C00004F1C00352F8231021F4803142F82310A2
:1026D00052F8233003B030BD6B46E3E75C2D002099
:1026E00000600040EFF30383103B5BB2074A52F8EF
:1026F000232001211172064AC03352F8231021F41D
:10270000803142F8231052F8233070475C2D0020AE
:102710000060004003460020186070470B0A1B0150
:1027200053FA81F1034B53F82130C3F34003137084
:102730000020704700080840090A490101F1804162
:1027400001F500214B68138000207047090A4901F8
:1027500001F1804101F5002123EA02001A4042EA1A
:1027600000428A6000207047CBB20120984080B2BE
:1027700062B9024600200B0A5B0103F1804303F5B6
:10278000002340EA02409860002070470022F2E7F0
:1027900010B4090A490101F1804101F500210C68DA
:1027A00002EA0300204362EA030202400A600020BA
:1027B0005DF8044B7047090A490101F1804101F5B8
:1027C00000214B68C3F30F431380002070470B0AAE
:1027D0005B0103F1804303F500235868C9B201236C
:1027E0008B4099B203EA10438B4214BF00230123AC
:1027F000137000207047090A490101F1804101F579
:10280000002123EA02001A4042EA0042CA60002086
:1028100070470B0A5B0103F1804303F50023C8B244
:1028200001218140D868012A07BF20EA0140014305
:10283000884340EA0141D9600020704710B411F488
:10284000803F0ED0030A0C4A1B0153FA80F352F862
:10285000234024F4803442F8234021F4803442F8A9
:102860002340030A1B0153FA80F0034B43F8201066
:102870005DF8044B704700BF000808402DE9F84F91
:102880000388002B4BD007464FF00008DFF898A0D4
:102890004FF001093EE09AF8BB2409FA04F35FFA0D
:1028A00083FB134224D00134032C2ED07B6899196A
:1028B00035F8022B89889142F5D19B5903F0B85322
:1028C000B3F1807FE7D09AF8BB2409FA04F35FFAEA
:1028D00083FB1342E7D0484601F090FF9AF8BB34DF
:1028E00023EA0B038AF8BB34484601F055FFDAE7C8
:1028F000484601F083FF9AF8BB3443EA0B038AF899
:10290000BB34484601F048FFCDE708F101083B8899
:10291000434504D94FEAC806024D0024C6E7BDE886
:10292000F88F00BF8099020000E0014038B50546ED
:10293000FFF7A4FFEFF31081012383F310881A4BF4
:102940001B6823B9194B0022DA704022DA70164A4C
:1029500013680133136081F310882B886BB1002456
:102960006B6803EBC40253F834109088FFF766FFDE
:1029700001342A88A3B29A42F2D8EFF310830122DD
:1029800082F31088084A12681AB107490A68013AA6
:102990000A60054A126822B9044A0021D1708021D8
:1029A000D17083F3108838BD582D0020000D0840E9
:1029B00008B5034B03600846FFF7B8FF002008BDC9
:1029C00054524F5008B50846FFF7B0FF002008BD2D
:1029D00070B586B00C461546ADF808100192012678
:1029E000ADF80C6001AB049303A8FFF747FFEFF3CA
:1029F000108286F31088144B1B6823B9134B0021F7
:102A0000D9704021D970104E33680133336082F39E
:102A1000108829462046FFF711FFEFF310830122AB
:102A200082F31088326812B13268013A3260064A85
:102A3000126822B9054A0021D1708021D17083F338
:102A40001088002006B070BD582D0020000D0840F1
:102A50008368C2689A60002070478368C2685A60C1
:102A6000002070478368C268DA600020704730B485
:102A70004368DB695A6842F00042996841F00044BB
:102A8000D96841F0004185686C618468A161816802
:102A90000A6182681969516282685B6993620020E9
:102AA00030BC70470139836899668368DA6A12F02E
:102AB000010F03D159668368C268DA60002070474D
:102AC0000620704783680139123203EB8203596094
:102AD000002070478368DB6AC3F300030B718368CF
:102AE0009B6C0B60002070474161C26183610020D4
:102AF000704782684FF000431361826853618268B7
:102B0000936182680023536282689362704708B5BC
:102B1000FFF7EFFF002008BD002810DB430900F09D
:102B20001F0101228A402033054941F82320BFF3C9
:102B30004F8FBFF36F8F034B002243F82020704765
:102B400000E100E05C2D002038B504464368DD69F3
:102B500093F91200FFF7E0FF95F92400FFF7DCFF7F
:102B600095F92500FFF7D8FF00202060A368E268F0
:102B70009A60A368586338BD83685B6E01338B60CD
:102B80008368D86AC0F3C350084B1A6AC2F3026C58
:102B9000074B1B6803FA0CF302F00702D340C34053
:102BA0004B6001230B700020704700BF00E0014024
:102BB000E82E002030B585B004468C461546836962
:102BC000B3B193E807000DF1100E0EE9070083F88A
:102BD00004C09D60E2691A60626918469047A36963
:102BE00023B104AA12E9070083E8070005B030BD4D
:102BF00001ABECE7002800DA70470901C9B200F127
:102C0000604303F5614383F800130F4B43F8202022
:102C10000E4B00F1C00253F8221021F4803143F82A
:102C2000221053F82230BFF35F8F00F01F02012300
:102C300093404009800000F1604000F56140C0F819
:102C400080310360D8E700BF5C2D002000600040A9
:102C5000F8B504460D460B7C012202FA03F3C3606B
:102C6000416013F00F0F0CBF134600230374097C5F
:102C7000484B0B441B0283606B694361AB69C361C2
:102C800000238361EE69EFF3108782F31088424AD4
:102C9000116995F810C04FF0004020FA0CF021EABD
:102CA00000011161126987F31088A2684FF4254171
:102CB0001160A268D362A268D363A26893642B7A7E
:102CC000DB056F68013F2A78032A08BF43F480338D
:102CD000A268D3622046FFF70CFFA368B269DA61ED
:102CE000A368F2691A62A3689F66A3685F66B26B05
:102CF0006368DB6993F8301011F0010F03D0A0680E
:102D0000996A0139C16493F8301011F0020F03D0B1
:102D1000A168DB6A013B0B65A16800238B63A16896
:102D2000C1F88830B36B3BB996F8201096F8213083
:102D30005B0743EA41331A4396F83030002B14BF47
:102D40004FF4A0014FF4AA01A3681964A3685A6361
:102D5000A36803221A63A36801221A63A368E268C6
:102D6000DA602246697C95F91200FFF743FF22469C
:102D700096F8221096F92400FFF73CFF224696F8B9
:102D8000231096F92500FFF735FF044B2360002040
:102D9000F8BD00BF90164000004008405450470066
:102DA00038B5EFF30383103B03F0FF0C5BB220490F
:102DB00003F1C00051F8202022F4803241F8202095
:102DC0009A0002F1804202F5C042D2F8001319497C
:102DD00051F8230041680978012906D043691BB1E5
:102DE00000221146FFF7E6FE38BD8168C4688C609A
:102DF00084680021A1648468E164846821650C4CC6
:102E000003F1C00E54F82E5061F3104544F82E50D3
:102E1000D2F80023BFF35F8F5B090CF01F0C012277
:102E200002FA0CF26033044941F82320D6E700BFD0
:102E3000006000405C2D002000E100E0054BB3F88D
:102E4000843003F08103003B18BF01230B70002086
:102E5000704700BF00E07F400620704706207047A3
:102E60000620704706207047062070470B46064A2A
:102E700092E8030083E80300044A083392E8030061
:102E800083E8030000207047449A02002C9A020055
:102E900000230360436893F91130002B0DDB5A09BE
:102EA00003F01F030121994002F12003104A42F868
:102EB0002310BFF34F8FBFF36F8F0E4B00221A7694
:102EC000436893F9133093420DDB5A0903F01F0353
:102ED0000121994002F12003054A42F82310BFF373
:102EE0004F8FBFF36F8F0020024B1875704700BFE4
:102EF00000E100E000E07F4081630264C3630020E2
:102F00007047FFFF30B583B01446002A5BD1436899
:102F100093F911305A0903F01F0301259D4002F176
:102F200020033A4A42F82350BFF34F8FBFF36F8F0D
:102F3000C26A374B1A63A3F5F033E8221A704FEADE
:102F4000510EC1F347021A7001292BD94FF0000C22
:102F5000304D2F4903690193836A1B882B80D1F878
:102F6000803013F4806F07D0019B5A1E0192002B12
:102F7000F5D1142003B030BD836A02338362C36A83
:102F80000233C362036B013B03630CF1010CF44594
:102F9000E0D3204BD0221A7034BB06E00020E9E7D2
:102FA0000020E7E71B4BD0221A70436893F91130D9
:102FB000590903F01F03012202FA03F3134A42F8EE
:102FC00021300020D6E7C26A114B1A63A3F5F03313
:102FD000E8221A704FEA510EC1F347021A70012914
:102FE000B4D80C4BD0221A70094BD3F8803013F4AC
:102FF000004FD3D1064A013CD2F8803013F4004F81
:10300000CED1002CF7D11420B4E700BF00E100E0DE
:1030100000E07F4000007E4010B4002380F8343090
:10302000354C012384F81634216A344B1B68C1F3F4
:10303000026203FA02F2C1F30271CA40216AC1F3CB
:1030400002618B40CB402E498A4251D903F574234B
:1030500003F23F232B49A1FB03439B0C02F574228F
:1030600002F23F22A1FB0212920C02F5F052264915
:10307000A1F8E42043F6B85103FB01F1234AA2FB77
:1030800001418908816040F6D86103FB01F1A2FB90
:1030900001418908C1605900A2FB01418908016111
:1030A000542103FB01F1A2FB014189084161184948
:1030B00003FB01F1A2FB01418908816144F25061E7
:1030C00003FB01F1A2FB014189084162114903FBA5
:1030D00001F1A2FB0141890801620F4901FB03F3E1
:1030E000A2FB03239B08C36100205DF8044B7047DB
:1030F0004FF4FB70F9E700BF00E00140E82E00202C
:10310000FF083D0083DE1B4300E07F40ABAAAAAA74
:1031100038AF040080DE0F00A0F7030008B5FFF70A
:103120007BFF08BD1A4BB3F884C01FFA8CFC4FF428
:103130002A42A3F88420B3F884309BB28BB14FF4B9
:10314000964200201249002A08BF4FF4FA70013A53
:10315000B1F884309BB2002BF5D1BCF1010F02D045
:1031600070470020F9E70A4B4DF60112A3F84420FE
:10317000084B0122A3F804211A46B2F804319BB28D
:10318000002BFAD1034B0122A3F80021E8E700BF8E
:1031900000E07F4000C0014082B04FF496430193AD
:1031A000104BB3221A7003F5F033D3F8803013F4C8
:1031B000004F0AD10C4A019B8BB1019B013B01934B
:1031C000D2F8803013F4004FF5D0074B1B7C13F07E
:1031D000100F40F2F51008BF002002B07047142015
:1031E000FBE700BF00007E4000E07F4010B50346D3
:1031F0001446134A127C12F0100F0CD10020104A12
:10320000D2F880200A4208BF0446A3B9ACB1FFF748
:10321000C3FF204610BD0A4AD2F8802012F4804F26
:1032200002D140F2F510EAE7054A107C0020107444
:1032300040F2F510E3E71C46E9E72046EAE700BF65
:1032400000E07F4010B582B004460A46C36BA3B1CC
:1032500093E803000DF1080C0CE903001A70226CCE
:103260005A60A26B18469047E36B23B102AA12E999
:10327000030083E8030002B010BD6B46EEE7FFFFDA
:103280002DE9F041044641600B785BB9314B0022D7
:103290001A761A752046FFF7BFFE08B92E4B236039
:1032A000BDE8F0814B688363CB6803640026C66386
:1032B000DFF8A0C001228CF8182091F91130087CA9
:1032C0000001C0B2254DEF1887F80003244F47F8DE
:1032D0002340244803F1C00E50F82E8066F31048B6
:1032E00040F82E8050F82EE0BFF35F8F03F01F0EE2
:1032F00002FA0EFE5B099B0003F1604303F5614394
:10330000C3F880E1C3F800E098238CF8143091F9F9
:103310001330897C0901C9B21D4485F8001347F8B0
:10332000234003F1C00150F8215066F3104540F8E6
:10333000215050F82110BFF35F8F03F01F018A4026
:103340005B099B0003F1604303F56143C3F88021EF
:103350001A609FE700E07F404E45504F00E100E0DB
:103360005C2D00200060004010B483B04FF4964301
:10337000019343681A78BAB92C4B4AF68022A3F815
:103380008420B3F884309BB2802B47D0274A019B1E
:10339000002B45D0019B013B0193B2F884309BB2D6
:1033A000802BF4D100203DE093F91130204A03F145
:1033B000C00152F8214024F4803442F8214052F8F0
:1033C0002110BFF35F8F03F01F04012101FA04F401
:1033D0005B099B0003F1604303F56143C3F880413F
:1033E0001C60436893F9133003F1C00052F8204089
:1033F00024F4803442F8204052F82020BFF35F8F3D
:1034000003F01F0201FA02F25B099B0003F1604323
:1034100003F56143C3F880211A60ADE7002001E0A5
:103420004FF4FA7003B05DF8044B704700E07F4042
:10343000006000402DE9F84304465B0803638162A5
:10344000C262002380F83430FFF78EFF38BB636818
:103450001B78EBB1012384F83430074604264FF083
:1034600018094FF480583A4631462046FFF74AFD86
:1034700063681B789BB94A464146FFF7B7FE05468D
:10348000236B3BB10028EED0FFF74CFE284606E048
:10349000E768E3E7FFF746FE002D18BF2846BDE8C2
:1034A000F883FFFF2DE9F0470446002380F834300D
:1034B00021F03F0181620263FFF756FF002849D1E6
:1034C000814663681B7863B1022384F83430074671
:1034D000244B0122A3F8E0201D46234E4FF0200884
:1034E00010E0676AF4E7484600E0384663681B78F6
:1034F00073BB19224FF40051FFF778FE8246236B0D
:1035000003B350BBA36A2B6386F80080D0233370CB
:10351000A36A4033A362236B013B2363002FE4D0F3
:10352000D5F8803013F4004F0AD13B46013BD5F863
:10353000802012F4004FD6D1002BF7D11420D5E70C
:103540004846D3E7FFF7EEFDBAF1000F18BF50462B
:10355000BDE8F0874FF4FA70FAE7FFF7E3FD504655
:10356000F6E700BF00E07F4000007E40F8B5074668
:103570000D4614461E46FFF7F7FE002839D1214BB1
:10358000002283F8D0201D63621E2A445A63A3F5EB
:10359000F03371221A70D0221A707B681B784BBBF3
:1035A000A4087A6904FB0222164BD3F8803013F486
:1035B000004F0AD122B3134C013AD4F8801011F411
:1035C000004F02D1002AF7D114204FF4FC720021E1
:1035D000FFF70CFE04460B4B93F8D430DBB2012B03
:1035E00014BF002301233370FFF79CFD002C18BF8C
:1035F0002046F8BD032387F8343002233370F8E700
:103600001420E2E700E07F4030B583B00546436810
:103610001A78F2B193F91130590903F01F0301220E
:1036200002FA03F32C48203140F82130BFF34F8FCA
:10363000BFF36F8F6B6893F91330590903F01F03C1
:103640009A4001F1200340F82320BFF34F8FBFF3CE
:103650006F8F224BB3F884309BB223B3FFF79CFDEE
:1036600004464FF4964301931D4B50221A7003F504
:10367000F033D3F8803013F4004F0AD1174A019B7E
:10368000ABB1019B013B0193D2F8803013F4004FA2
:10369000F5D0124B1B7C13F0100F12D19CB9FFF721
:1036A00041FD044611E02846FFF75EFED6E754B917
:1036B000FFF738FD142408E0FFF734FD40F2F5145D
:1036C00003E0002CF8D0FFF72DFD002385F83430FF
:1036D000204603B030BD00BF00E100E000E07F40C5
:1036E00000007E4008B5FFF78FFF08BD70B5EFF30F
:1036F0000383103B5CB2174B53F82450164A137CDB
:10370000D2F8802013F0080F0CD1D9B211F0800F3D
:103710001CD111F0100F1BD012F4405F0CBF062615
:10372000072600E004262846FFF76EFF0B4A04F147
:10373000C00352F8231021F4803142F8231052F8CC
:10374000233031462846FFF77DFD70BD0526EAE7A8
:103750000726E8E75C2D002000E07F400060004085
:1037600038B5EFF30383103B5BB2234A52F8234092
:10377000224AC03352F8231021F4803142F823103A
:1037800052F8233094F83450012D13D0022D1FD05D
:103790001B4B93F8D430DBB2012B14BF0225032559
:1037A000FFF7C0FC002384F8343029462046FFF799
:1037B00049FD38BD236B002BF2D0002204212046A6
:1037C000FFF7A0FB0028F4D02046FFF71DFFF0E72D
:1037D000236B0BB90025E3E7A26A094B1A63A3F533
:1037E000F03320221A70D0221A70A36A4033A362E9
:1037F000236B013B2363DCE75C2D0020006000406D
:1038000000E07F4030B4024600209060136893F9D6
:1038100015304FEA531C03F01F01012303FA01F195
:10382000204C0CF1200C44F82C10BFF34F8FBFF349
:103830006F8F116891F916104FEA511C01F01F01AA
:1038400003FA01F10CF1200C44F82C10BFF34F8F58
:10385000BFF36F8F116891F917104FEA511C01F0F7
:103860001F0103FA01F10CF1200C44F82C10BFF3F6
:103870004F8FBFF36F8F516881F84C08C1F82C044B
:10388000EFF3108483F3108807494D6812681268BB
:10389000C2F1020293402B434B604B6884F31088C3
:1038A00030BC704700E100E000400840062070474F
:1038B0004268B2F842389BB20B6092F84E384B73B4
:1038C00092F84F380B7392F8503803F07F030B6176
:1038D00083F07F0382F8503800207047C161426254
:1038E000036200207047FFFF037B43B1022B04D02B
:1038F0000023106820F0604006E0137953B9136884
:10390000074800EA834000235279034343EA827365
:103910000B607047012B14BF00230123DB07E8E78E
:103920000000FC1F2DE9F0414668731893F8203819
:10393000DB0928D10D46144601F120084FEA08178B
:1039400006EB0818036841461869FFF7CDFFA27916
:10395000B8F8043062F30303A8F80430A179B81D65
:10396000304404F10C0239B10346441812F8010B3B
:1039700003F8010BA342F9D12E44802386F82038A6
:103980000020BDE8F0814EF66320FAE770B58AB0FA
:1039900005468C46066A6EB3EE4634460FCCAEE85A
:1039A0000F000FCCAEE80F0094E803008EE8030090
:1039B000B646BCE80F00AEE80F00BCE80F00AEE86A
:1039C0000F009CE803008EE80300EB69304698473F
:1039D0002B6A6BB19C46EE46BEE80F00ACE80F00C8
:1039E000BEE80F00ACE80F009EE803008CE803007F
:1039F0000AB070BD0E46E8E74268B2F8403823F4DA
:103A00008063A2F84038B2F8403861F30923A2F885
:103A100040380902B2F8423803F4E0638B42F9D12E
:103A20007047F8B504460D464768437B93420AD178
:103A3000237BAB4206D0052D0FD029462046FFF749
:103A4000DBFF2573F8BD16460221FFF7D5FF87F887
:103A50005868667302232373EAE702212046FFF7C2
:103A6000CBFFB7F8403843F48063A7F84038B7F885
:103A7000423813F4806FFAD0E3E708B5FFF7D1FFBF
:103A8000002008BD2DE9F84F81468A460D690F6870
:103A900007F58027A8373F034760EFF31086012121
:103AA00081F310888E4A5468DAF80030C3F10203BB
:103AB00001FA03F324EA03035360536886F3108882
:103AC000C0F800A0DAF80830C361DAF80C304362BD
:103AD000002404622B7803762246FFF7A2FF2A7B9C
:103AE0002B7DDB0043EA420343F4E073A7F8403840
:103AF000DAF804205368591E9368013B1B0243EA1D
:103B00000173D168013943EA013399F818100B4366
:103B100011680139734A02EA01421343C7F8443875
:103B2000224602214846FFF77CFF802387F8503861
:103B300007F500764FF400722146304611F01EFB67
:103B4000A0464FF0400B07E043463A1982F8203870
:103B500001341036202C0ED0AA6802EBC4029379EF
:103B6000002BF1D12969A142EFD931462846FFF750
:103B7000BBFE5B46E9E72B69032B21D900231846DE
:103B80006FF060440F26DFF870C10BE003F5807E14
:103B900047F82E2006FA01F1084301332A69B3EBF6
:103BA000920F0ED299006A6852F82320A242F4D2F2
:103BB00095F80CE0BEF1000FE8D10CEA8242E5E78F
:103BC0000020C043C7F82804002211464846FFF7EA
:103BD00028FFB7F8403843F02003A7F84038B7F87B
:103BE000403813F0200FFAD19AF915309AF81420C2
:103BF0001201D2B23C48C11881F800233B4C44F872
:103C000023903B4A03F1C00152F8215025F480353E
:103C100042F8215052F82110BFF35F8F03F01F05C7
:103C2000012101FA05F55B099B0003F1604303F5EF
:103C30006143C3F880511D609AF916309AF8145008
:103C40002D01EDB2C61886F8005344F8239003F115
:103C5000C00552F8256026F4803642F8256052F8F7
:103C60002550BFF35F8F03F01F0501FA05F55B09CF
:103C70009B0003F1604303F56143C3F880511D606D
:103C80009AF917309AF814502D01EDB2184480F8C3
:103C9000005344F8239003F1C00052F8204024F46C
:103CA000803442F8204052F82020BFF35F8F03F0A9
:103CB0001F0291405B099B0003F1604303F56143E0
:103CC000C3F8801119603E2387F84C384FF0FF335A
:103CD000C7F82C34074BC9F808300020BDE8F88F2E
:103CE000004008400000FF0300E100E05C2D0020E0
:103CF000006000404E4143520000FC1F30B58BB0C5
:103D0000EFF30383103B5BB22F4AC03352F823100A
:103D100021F4803142F8231052F82330EFF303836B
:103D2000103B5BB2294A52F82350282200216846F2
:103D300011F024FA6C6894F84D38DBB2ADF8043019
:103D4000002284F84D28B4F8422812F0100F39D020
:103D500043F02003ADF8043094F85328D2B2022384
:103D600084F8533894F8523803F01F0384F853282A
:103D7000E11891F8202822F0040281F820282A680E
:103D8000126800926A6A0492039369462846FFF714
:103D9000FDFDB4F8423813F0100F11D02B681A69EA
:103DA000127D6AB193F91530002B09DB5A0903F033
:103DB0001F030121994002F14003054A42F82310F4
:103DC0000BB030BD0023DAE7006000405C2D00201E
:103DD00000E100E02DE9F0418AB0EFF30383103BEE
:103DE0005BB2404AC03352F8231021F4803142F8CC
:103DF000231052F82330EFF30384103C04F0FF0645
:103E000064B2394B53F824004FF48063ADF80430AA
:103E1000456895F85338DBB2002285F8532895F8A9
:103E2000527807F01F0785F85338D0F8048007F15F
:103E300020031B0158F80320C2F380718DF819107C
:103E400058F8031003681B691B7B43EAD17303F026
:103E500001038DF81830002B41D1C2F38A4205923C
:103E600007F1200308EB03139B8803F00F039C4624
:103E7000082B28BF4FF0080C8DF81AC06BB10DF15C
:103E80001F02002308EB071E0EEB030191F8061238
:103E900002F8011F01336345F6D1B844442388F882
:103EA000203800230793039703681B680093436A35
:103EB00004936946FFF76AFDB5F8423813F0010F25
:103EC0000AD0002C08DB640906F01F060123B3406A
:103ED0004034064A42F824300AB0BDE8F08122F0AE
:103EE0006042BCE7006000405C2D002000E100E083
:103EF00030B58BB0EFF30383103B5BB2244AC03381
:103F000052F8231021F4803142F8231052F8233064
:103F1000EFF30383103B5BB21E4A52F8235000229A
:103F2000ADF804206C6894F85318C9B2012384F8E2
:103F3000533894F8523803F01F0384F85318E118EB
:103F400081F8202881F8202803934FF40063ADF80E
:103F500004302B681B6800936B6A049369462846FB
:103F6000FFF714FDB4F8423813F0020F0ED02B689F
:103F700093F91730002B09DB5A0903F01F030121C5
:103F8000994002F14003044A42F823100BB030BDBF
:103F9000006000405C2D002000E100E081610262D1
:103FA000C361002070470368828A1A80002070472E
:103FB00006207047036800201880704703681B883C
:103FC000C3F3C0330B70002070470368103133F81F
:103FD000113013800020704706207047062070477C
:103FE000002800DA70470901C9B200F1604303F507
:103FF000614383F800130F4B43F820200E4B00F170
:10400000C00253F8221021F4803143F8221053F8F3
:104010002230BFF35F8F00F01F020123934040095D
:10402000800000F1604000F56140C0F8803103601D
:10403000D8E700BF5C2D0020006000402DE9F0476C
:1040400004460D464E694160CB6883610B6903628B
:104050000023C3610B885B0203F1804303F5B813AF
:10406000036049698A78B2F13F0018BF0120B2FAB3
:1040700082F35B091B0243EA4023A87843EA4033FA
:104080000879002861D043F430739BB2A3828A7808
:10409000120202F47C52C87800F03F0042EA000CA1
:1040A000E8782A79D20342EA4002487842EA40128C
:1040B00091F800E0EFF31089012080F31088274F7A
:1040C000D7F80C80B5F800A0CAF1100A00FA0AF07F
:1040D00028EA0000F860F86889F31088206823F463
:1040E00000735B045B0C038023681FFA8CFCA3F84D
:1040F00010C0236892B2DA81236883F80CE08B79D0
:10410000012B14BF00230123226882F8D0302246FD
:10411000697A95F90600FFF763FF2246A97A95F9B7
:104120000700FFF75DFF2246717A96F90700FFF757
:1041300057FF2246B17A96F90800FFF751FF002099
:104140002061074BA360BDE8F0873F2A12BF43F40C
:10415000107343F4024343F0400396E700400840E5
:1041600043444152002810DB430900F01F010122A3
:104170008A402033054941F82320BFF34F8FBFF316
:104180006F8F034B002243F82020704700E100E0CE
:104190005C2D002070B5044600258560C56043682D
:1041A0005E6993F90600FFF7DDFF636893F9070086
:1041B000FFF7D8FF96F90700FFF7D4FF96F908003C
:1041C000FFF7D0FF23681D8223681D80EFF3108066
:1041D000012383F31088074AD66861680988C1F112
:1041E00010018B403343D360D36880F31088284696
:1041F00070BD00BF00400840F0B50E6826F0C04218
:1042000043685C694D6825F0C04E8B6823F0C04C54
:10421000B6B20768BE800668ADB2B58205689BB2CB
:104220002B810368150CDD8003684FEA1E4EA3F84E
:1042300016E003684FEA1C4CA3F80AC0684B1D6ADD
:10424000C5F30266674B1B68B340C5F30215EB402C
:10425000654DA5FB03539B0941F2360505FB03F3AE
:1042600005F1864505F5DE1505F64D65A5FB0353FD
:104270009B0C0133072B38BF07230E684D6846EAB5
:10428000050E1EF0005C21D0EFF3108C012585F3A4
:104290001088564DEE6826F48006EE60ED688CF3CB
:1042A0001088534D90262E700568DEB285F8DE60CA
:1042B0000D6815F0005F0CBF4FF4806C4FF4807CEC
:1042C0008D6815F0005F18BF4CF0010C1EF0804F98
:1042D00011D00568DBB285F8DF300B6813F0804F32
:1042E00014BF4CF4007C4CF4006C8B6813F0804FCE
:1042F00018BF4CF0020C03681FFA8CFCA3F812C024
:10430000CB68002B6AD01D8915F4006F34D0066885
:10431000A6F890500668B3F80AC0A6F89CC00668D4
:10432000B3F80CC0A6F89EC01E681FFA86FC07688A
:10433000A7F894C04FEA164C2CF4C04C1FFA8CFC22
:104340000768A7F896C0C6F34176076887F89260B9
:104350005E681FFA86FC0768A7F898C04FEA164CFB
:104360002CF4C04C1FFA8CFC0768A7F89AC0C6F35F
:104370004176076887F893601E8916F4007F10D095
:104380009E7C93F813C046EA0C06076887F8A6607F
:104390000668B3F80EC0A6F8A8C006681B8AA6F87F
:1043A000AA300368A3F8905003680D8AA3F88050E0
:1043B00023796BB1046823889BB223F01F03B2FA00
:1043C00082F21F339B1A9BB22380828A134383821B
:1043D000084BC3600B6803610020F0BD0025E0E7D7
:1043E00000E00140E82E0020D34D6210004008405C
:1043F00000300F404344415210B50269BAB14FEA50
:1044000072724FF0FF3301249E46013304FA03FC1D
:104410001CEA020FF8D00EF10E04036803EB44030C
:104420000B60B2FA82F2C2F11F02A2EB0E024A60E6
:1044300001230B724FF4B0734B8143681B88043324
:104440005B004B724FF0FF33CB60054BD3F87C31F0
:104450009BB2CB604FF47A630B82002010BD00BF8B
:1044600000B07F400368103133F811309BB24168CF
:104470000979012908BF1B04136000207047FFFF62
:10448000064B93F826101A6AC2F30262044B53F8E3
:104490002130D340034A1360704700BF00E0014061
:1044A000BC250020E82E00207047FFFF38B5424BA6
:1044B0004AF20352A3F8FE23A3F500530122A3F806
:1044C00004211A46B2F804319BB2002BFAD13B4BBF
:1044D0000122A3F800213A4B3A4A1A603A4A5A603C
:1044E0004FF400429A603949D9601A61384A5A61DA
:1044F000FFF7C6FF304B202283F81324092283F8EC
:10450000A22093F880342BB92B4B93F8813413F00D
:10451000030F4CD0284B93F88034002B39D0264B16
:10452000002283F8812483F88024234B002283F81F
:1045300032201A4692F83C3013F0080FFAD01E4B86
:1045400043F202121A85002283F82A201A4692F8B2
:104550003C3013F0200FFAD00125184B83F81C5182
:10456000154C1C4B2362052384F82630FFF788FF87
:10457000194BF1221A7300221A72F0221A7384F86E
:104580003E50812384F83E304FF42543A4F8FE3397
:1045900038BD0121084B83F88014C82000F03AF898
:1045A000054A92F88034DBB2012BFAD1B7E74FF419
:1045B0007A70FFF779FFB8E700E0014000C00140E2
:1045C000BC250020002D310100127A00001BB7002D
:1045D00000E1F505100101100020004010B5002495
:1045E000064B83F82840012000F008F9044B83F8BB
:1045F000BB44012000F0D0F810BD00BF00300840DF
:1046000000E00140704700BEFEE7A0F10100002875
:10461000FBD1704708B500FB01F1204B1B68204817
:10462000B0FBF3F0CA0E4B015B1A62F1000292007C
:1046300042EA93729B005B1842F10002D20042EA08
:104640005372DB004FF0FF3C9C454FF0000C7CEBBD
:10465000020C06D3B3FBF0F3980808B1FFF7D5FFBF
:1046600008BD8000B1FBF0F1CA0E4B015B1A62F18C
:104670000002920042EA93729B005B1842F1000232
:10468000D20042EA5372D8004FF0FF3383424FF01A
:1046900000039341E1D24FF0FF30DFE7E82E002026
:1046A00000CA9A3B70B50E4BB3F82021B3F84051C5
:1046B000ADB2154000240B4E02E001340E2C0BD09D
:1046C00025FA04F313F0010FF7D056F82430002B2D
:1046D000F3D0E0B29847F0E7014BA3F8305170BD3A
:1046E00000600040202D002030B585B0032000F090
:1046F00085F8254B6FF0FF029A644FF0FF3301936A
:1047000002930393214C04F1C005234600224FF08D
:10471000010E02E00132AB4212D033F8021F002931
:10472000F8D0510904A800EB810102F01F0C0EFA29
:104730000CFC51F80C0C20EA0C0041F80C0CE9E7D9
:10474000019A114B1A671249C1F8802202995967E0
:104750004FF0E022C2F8841303999967C2F88813D6
:10476000032000F019F800230A4802E00133AC42AC
:1047700008D034F8022F002AF8D003F1C00140F825
:104780002120F3E705B030BD00800040C69702004D
:1047900000E100E000600040EFF31082012383F3AA
:1047A0001088134B33F810309BB233B1104931F8F5
:1047B0001030013B9BB221F810300D4B33F8103014
:1047C0009BB293B910B40B49B1F8FE339BB20A4CBB
:1047D00034F8100043F4254323EA0003A1F8FE3324
:1047E00082F310885DF8044B704782F3108870479D
:1047F000DC2E002000E00140BC9A020010B4EFF370
:104800001081012383F310880F4B33F810309BB2D3
:104810006BB90E4AB2F8FE339BB20D4C34F810C09F
:1048200043EA0C0343F425439BB2A2F8FE33064A45
:1048300032F8103001339BB222F8103081F3108827
:104840005DF8044B704700BFDC2E002000E0014003
:10485000BC9A020008B503460C4A12685AB10B4ACA
:104860001068033323F003030344094A934206D834
:10487000064A136008BD054A06491160EFE710F0CB
:1048800027FD0C2303604FF0FF30F3E7E42E0020F8
:10489000900F012090CF0020BFF34F8F0549CA68C9
:1048A00002F4E062044B1343CB60BFF34F8F00BFB1
:1048B000FDE700BF00ED00E00400FA0508B500F0D8
:1048C00003F8FBF7D7FDFEE770B52C4B4FF47002F1
:1048D000C3F888202A4C9C600020FBF7F1FCFFF70E
:1048E000E5FD0120FBF7ECFC2368A3F5805383F37F
:1048F0000A882448244A121A002110F03FFC234859
:10490000234A121A234910F00CFD234B234A9B1A09
:10491000002B08DD9E101546002455F8043B9847EF
:104920000134A642F9DCFFF7ABFDFFF757FE032089
:10493000FFF764FF1A4B4FF6FF721A825A829A826F
:10494000DA821A835A839A83DA830320FFF724FFDB
:104950000320FFF753FF134B00245C609C60DC6076
:104960001C610320FFF718FF0220FBF7A9FCFFF7EB
:10497000BBFE2046FFF746FE70BD00BF00ED00E025
:1049800000000100D825002090CF0020000000206A
:10499000BC25002090A20200B8250020B4250020EC
:1049A000000D084000000E4010B4154B1A461B685D
:1049B0008342FBD35468111988420AD04468011914
:1049C0008B4210D00360824200D010605DF8044B2F
:1049D00070474168214451600C4611448B4201D01C
:1049E0001360F3E71046074909688B4205D05B68FE
:1049F0002344436013681B68E4E70B46E2E700BF0B
:104A0000002F0020FC2E002070B5044600F0B0FFFF
:104A1000424B1B68ABB1631E13F10A0F0CD804F1B3
:104A2000080114F007036FD0A3F109028A4203D3EF
:104A30001034E11A002969DC01F090F800252846BD
:104A400070BD374A12F0070F1AD0D11D21F00701AF
:104A500002F50042531A0A463248026000214160C2
:104A60001344083B23F007032C4803605960196086
:104A7000991A516013602C4B19602C4B1960CAE7CE
:104A80004FF40043E8E722461C4663688B4202D29B
:104A90002368002BF7D1214B1B68A342CCD01568AB
:104AA00008352368136063685B1A102B07D96018F8
:104AB00010F0070F22D143606160FFF775FF626855
:104AC000B61A1A490E60184909688E423CBF164949
:104AD0000E6042F00042626000232360144A1368B3
:104AE0000133136001F03AF815F0070FA7D0114B0E
:104AF000114A4FF497711148FFF785FD104B0E4A8C
:104B0000EE210E48FFF77FFD002995DB074B1E685D
:104B10008E4291D3034A1468B7E700BFFC2E0020F1
:104B2000082F0020002F0020F42E0020F82E002057
:104B3000F02E002008830200D09A0200C8820200F2
:104B40009482020070B338B50446A0F1080550F80D
:104B5000043C002B18DA50F8082CE2B923F000438B
:104B600040F8043C00F004FF0F4A54F8043C11687C
:104B70000B4413602846FFF717FF0C4A13680133F4
:104B8000136000F0EBFF38BD094B0A4A40F24111B7
:104B90000948FFF738FD094B064A4FF4A171064852
:104BA000FFF731FD704700BFF82E0020EC2E0020EB
:104BB00044830200C49A0200C8820200B883020043
:104BC00000F1080343604FF0FF328260C36003616D
:104BD00000230360704700230361704730B40D6801
:104BE000B5F1FF3F11D000F108031C465B681A685D
:104BF000AA42FAD963684B6099608C606160086171
:104C000003680133036030BC70470469F2E703694D
:104C1000416882688A60416851605A68824204BF74
:104C200082685A60002202611A68013A1A601868A4
:104C3000704710B50446FBF7E3FCA46BFBF708FDD7
:104C4000B4FA84F0400910BD70B504461546866B71
:104C5000026C5AB903681BB100200136A66370BD0F
:104C6000806801F051FA0023A360F6E76DB940684F
:104C700010F057FB6368226C13446360A268934290
:104C800019D3236863602846E7E7C06810F049FB42
:104C9000226C5142E3689B1AE3602268934202D27D
:104CA000A3680B44E360022D01D00020D5E726B1B4
:104CB000013E0020D1E72846CFE70020CDE703469C
:104CC000026C6AB110B50846D9681144D9609C6875
:104CD000A14224BF1968D960D96810F022FB10BD29
:104CE000704770B50546FBF78BFC95F8454064B2FC
:104CF000002C0FDD05F1240602E0013C64B24CB14A
:104D00006B6A3BB1304601F0C5F80028F5D001F0E0
:104D10008DF9F2E7FF2385F84530FBF799FCFBF7A7
:104D20006FFC95F8444064B2002C0FDD05F11006CD
:104D300002E0013C64B24CB12B693BB1304601F05A
:104D4000A9F80028F5D001F071F9F2E7FF2385F802
:104D50004430FBF77DFC70BD38B520B30D460446EA
:104D6000C36B002B3ED0026CA2FB0323002B39D176
:104D7000FBF746FC2268216CE36B01FB03F3D018C0
:104D8000A0600020A06362605B1A1A44E260FF2307
:104D900084F8443084F84530DDB9236953B9FBF712
:104DA00057FC012038BD134B134A4FF49771134839
:104DB000FFF729FC04F1100001F06CF80028EED098
:104DC0000F4B4FF080525A60BFF34F8FBFF36F8F7E
:104DD000E5E704F11000FFF7F3FE04F12400FFF70C
:104DE000EFFEDCE7074B044A40F263110348FFF78C
:104DF0000AFC00BFE0830200809B0200E8830200FF
:104E000000ED00E01484020030B583B0B3B10D466C
:104E10001C4650B3CAB141B348230193019B482BB0
:104E20001CD1019B012184F846102260E0632564B7
:104E30002046FFF791FF204603B030BD0E4B0F4ACE
:104E400040F277110E48FFF7DEFB71B9482301935A
:104E5000019B482B02D1019B2246E3E7094B074AFD
:104E600040F289110648FFF7CEFB074B034A4FF487
:104E7000D0710348FFF7C7FB38840200649B02002F
:104E8000E8830200488402006484020070B5F8B12F
:104E90000C460646A1FB0023D3B901FB00F010F13C
:104EA000490F15D84830FFF7AFFD054660B1002324
:104EB00080F8463054B100F148032B60EE632C6457
:104EC00001212846FFF748FF284670BD0346F4E756
:104ED000034B044A40F215210348FFF794FB00BF3F
:104EE00064840200509B0200E883020010B582B087
:104EF00068B10C461346884209D302220092002270
:104F00001146FFF781FF00B1846302B010BD034B6F
:104F1000034A40F247310348FFF775FB70840200F3
:104F20002C9B0200E88302002DE9F04784B0019237
:104F3000A8B189461D460446C1B1022D02D1E36BDA
:104F4000012B1DD101F078F8074600BB019BFBB196
:104F5000524B534A40F282315248FFF754FB524BB6
:104F60004F4A40F27D314F48FFF74DFB036C002B59
:104F7000E3D04E4B4A4A40F27E314A48FFF743FBAA
:104F80004B4B474A40F27F314648FFF73CFB002736
:104F90000026DFF8208132E02A4649462046FFF706
:104FA00053FE636A73B938B1424B4FF080525A6076
:104FB000BFF34F8FBFF36F8FFBF74AFB012004B0A5
:104FC000BDE8F08704F1240000F064FF0028F3D06E
:104FD000384B4FF080525A60BFF34F8FBFF36F8F43
:104FE000EAE7FBF735FB0020E9E702A800F0CAFF7B
:104FF00012E02046FFF775FE00F0B0FD0127FBF739
:10500000FFFAA26BE36B9A42C6D3022DC4D0019B78
:10501000002BE6D0002FE8D0FBF71AFB00F0A8FC2D
:10502000FBF7EEFA94F8440040B2B0F1FF3F08BF3E
:1050300084F8446094F8450040B2B0F1FF3F08BFE7
:1050400084F84560FBF704FB01A902A800F0A6FF65
:10505000E8B9FBF7D5FAD4F838A0E76BFBF7F8FA14
:10506000BA45C6D1019904F1100000F0C9FE2046EE
:10507000FFF737FE00F072FD0028BFD14FF08053DC
:10508000C8F80430BFF34F8FBFF36F8FB6E72046E9
:10509000FFF727FE00F062FD002090E72085020068
:1050A000189B0200E8830200E0830200788402007B
:1050B000D084020000ED00E048B108B50021816015
:1050C0000160C1600B460A46FFF72EFF08BD70471E
:1050D00010B5024600210120FFF7D8FE0446FFF775
:1050E000EBFF204610BDFFFF2DE9F04385B0019294
:1050F00078B18846044699B100F09EFF0746C8B9CA
:10510000019BC3B14B4B4C4A40F2A5514B48FFF7B2
:105110007AFA4B4B484A40F29C514848FFF773FAE1
:10512000036C002BE8D0474B434A4FF4B46143482B
:10513000FFF769FA00270025DFF80C9135E04146BA
:105140002046FFF7BCFD731EA36323692BB9FBF751
:105150007FFA012005B0BDE8F08304F1100000F0F3
:1051600099FE0028F3D0384B4FF080525A60BFF3BD
:105170004F8FBFF36F8FEAE7FBF76AFA0020E9E78A
:1051800002A800F0FFFE1AE02046FFF7AAFD00F09B
:10519000E5FC09E02046FFF7A4FD00F0DFFC204617
:1051A000FFF747FD002842D10127FBF729FAA66B3C
:1051B000002EC4D1019B002BDED0002FE0D0FBF7E6
:1051C00047FA00F0D5FBFBF71BFA94F844305BB2CA
:1051D000B3F1FF3F08BF84F8445094F845305BB208
:1051E000B3F1FF3F08BF84F84550FBF731FA01A93E
:1051F00002A800F0D3FE0028CCD12046FFF719FD0D
:105200000028C1D0019904F1240000F0F9FD2046E6
:10521000FFF767FD00F0A2FC0028C5D14FF08053D6
:10522000C9F80430BFF34F8FBFF36F8FBCE7002086
:1052300090E700BF20850200089B0200E88302007F
:10524000F48502000086020000ED00E02DE9F04147
:1052500084B0019180B10446036CA3B900F0ECFE68
:105260000646B8B9019B8046BBB15B4B5B4A40F236
:1052700037615B48FFF7C7F95A4B584A40F22E6135
:105280005748FFF7C0F9584B544A40F2326154482E
:10529000FFF7B9F94FF0000846460025534F43E0A9
:1052A000013BA36323684BB123695BB9FBF7D0F9DA
:1052B0004FF00108404604B0BDE8F08100F0E0FF87
:1052C000A060F1E704F1100000F0E4FD0028EDD04B
:1052D000464B4FF080525A60BFF34F8FBFF36F8F32
:1052E000E4E7FBF7B5F94FF00008E3E702A800F0A8
:1052F00049FE23E0FBF784F9A06800F0ADFE80468C
:10530000FBF7A6F940E02046FFF7EBFC00F026FC97
:1053100009E02046FFF7E5FC00F020FC2046FFF7FF
:1053200088FC002844D10126FBF76AF9A36B002B07
:10533000B6D1019B002BD4D0002ED7D0FBF788F933
:1053400000F016FBFBF75CF994F844305BB2B3F164
:10535000FF3F08BF84F8445094F845305BB2B3F186
:10536000FF3F08BF84F84550FBF772F901A902A876
:1053700000F014FE0028CCD12046FFF75AFC00288C
:10538000C1D02368002BB5D0019904F1240000F0AE
:1053900037FD2046FFF7A5FC00F0E0FB0028C2D156
:1053A0004FF080537B60BFF34F8FBFF36F8FBAE72F
:1053B000B8F1000F3FF47EAFFBF722F9616A19B133
:1053C000236B1968C1F10801A06800F0F7FEFBF734
:1053D0003FF94FF000086DE720850200F49A0200C3
:1053E000E8830200F48502007485020000ED00E00D
:1053F00070B530B1044609B3114B002002461D467A
:105400000EE0104B104A40F615311048FFF7FBF83C
:105410000B4800EBC2000FE0013208330A2A0AD021
:105420005E68A642F4D00028F6D155F83260002E0E
:1054300008BF1846F0E708B10160446070BD00BFC6
:1054400008AF00205C860200E09A0200E8830200B8
:1054500070B504460D461646FBF7D2F894F8443072
:105460005BB2B3F1FF3F04BF002384F8443094F8EB
:1054700045305BB2B3F1FF3F04BF002384F84530F1
:10548000FBF7E6F8A36B1BB12046FFF72AFC70BDC3
:105490003246294604F1240000F0CEFCF4E7FFFF79
:1054A000074B1B681B6823B9064B4FF0FF321A608D
:1054B0007047034B1B68DB681A68024B1A60704721
:1054C000C4AF00205CAF00202DE9F84307469846A2
:1054D000089DDDF824900A9C02F18042013A266B77
:1054E00006EB820626F0070671B10846013904F181
:1054F00033030F3011F8012F03F8012F0AB1814255
:10550000F8D1002384F84330072D1BD8E562656489
:10551000201DFFF760FB04F11800FFF75CFB24611E
:10552000C5F10805A561646243463A46216B3046E1
:10553000FBF74CF82060B9F1000F01D0C9F800402A
:10554000BDE8F883034B044A40F296310348FFF765
:105550005AF800BF98860200A49C02006C860200E4
:1055600070B50446FBF74CF8354A136801331360F5
:10557000344B1B68002B3FD0334B1B683BB9314B7E
:105580001B68DA6AE36A9A429CBF2E4B1C602F4A62
:10559000136801331360E36A2D4A1268934284BF93
:1055A0002B4A13602B4A03EB830302EB83035B68F4
:1055B000A3609868E060211D41609960E36A03EB95
:1055C0008301880002EB81016161115801311150A2
:1055D000FBF73EF81C4B1B686BB11A4B1B68DA6A71
:1055E000E36A9A4207D21C4B4FF080525A60BFF3D5
:1055F0004F8FBFF36F8F70BD124B1C601368012B70
:10560000C5D1144D05F1A0062846FFF7D9FA143587
:10561000B542F9D1114E3046FFF7D2FA104D284667
:10562000FFF7CEFA0F48FFF7CBFA0F48FFF7C8FA9B
:105630000E48FFF7C5FA0E4B1E600E4B1D60A6E725
:105640007CAF002090B0002070AF002060AF002041
:1056500074AF0020F0AF002000ED00E0DCAF0020D0
:10566000C8AF0020ACAF002098AF002080AF002072
:10567000C4AF0020C0AF002010B5044690F86530DC
:1056800023B1012B09D0022B0AD110BD006BFFF70B
:1056900059FA2046FFF756FAF7E7FFF753FAF4E70F
:1056A000034B044A40F6D9710348FEF7ACFF00BF34
:1056B000AC860200949C02006C86020070B5044621
:1056C0000D46254B1E68254B18680430FFF79FFADE
:1056D000B4F1FF3F0DD03444204B1B685C60A64200
:1056E0001CD91F4B18681D4B19680431FFF776FA57
:1056F00070BD0DB31B4A5168184B1868816018685B
:105700008C68C46018680430606018680430886071
:105710001B685A61136801331360E9E7124B18687C
:105720000E4B19680431FFF759FA104B1B68A3425E
:10573000DED90E4B1C60DBE7731E084A126853600B
:105740009E42CED8084B1868044B19680431FFF705
:1057500045FA064B1B68CBE778AF002090B00020DD
:10576000C0AF002080AF0020C4AF00205CAF00209D
:1057700080B5154C154F164E09E0164B4FF0805270
:105780005A60BFF34F8FBFF36F8FFAF7B3FF2368F1
:10579000A3B1FAF735FFFB68DD68281DFFF737FA7C
:1057A0003368013B33602368013B2360FAF750FF05
:1057B0002846FFF761FF2368002BEAD1064B1B68E0
:1057C000012BDAD8E1E700BF94AF002098AF0020AA
:1057D0007CAF002000ED00E0F0AF00202DE9F043A9
:1057E00087B00F9E109C3EB30546894690461F46E3
:1057F0004CB368230493049B682B2BD1049B682231
:10580000002120460FF0BAFC2663022384F865309D
:1058100000230393029405AB01930E9B00933B4638
:10582000424649462846FFF74FFE2046FFF798FEBE
:10583000059807B0BDE8F0830A4B0B4A40F24321BC
:105840000A48FEF7E0FE0A4B074A4FF41171074879
:10585000FEF7D9FE074B044A4FF413710348FEF7D5
:10586000D2FE00BFE0860200BC9C02006C860200F3
:10587000008702001C8702002DE9F04385B007462F
:10588000884614461E469000FFF7BEF818B38146BE
:105890006820FFF7B9F80546B8B1682200210FF07B
:1058A0006DFCC5F830900023039302950D9B019386
:1058B0000C9B00933346224641463846FFF704FED0
:1058C0002846FFF74DFE012007E04846FFF73AF96A
:1058D0004FF0FF3001E04FF0FF3005B0BDE8F0833E
:1058E00010B588B000240594069407AA06A905A857
:1058F000FAF7E6FD059B0293069B0193009423466D
:10590000079A12491248FFF769FF30B100F042FED2
:10591000012806D0B0F1FF3F11D00E4B1B6808B034
:1059200010BD012383F310880B4A4FF0FF31116043
:105930000A4A13600A4B1C60FAF704FFEDE7094BB3
:10594000094A4FF402610948FEF75DFE64870200D0
:1059500071570100D09C02005CAF002070AF0020A6
:1059600078AF00206C870200749C02006C860200F5
:10597000024A136801331360704700BF58AF00201C
:10598000014B1868704700BF78AF00202DE9F8433D
:10599000644B1B68002B40F0BD80634B1C680134D6
:1059A0001C607CB9614B1B681B68E3B95F4A1168D6
:1059B0005F4B1868106019605E4A1368013313600A
:1059C000FFF76EFD5C4B1B68A34200F29180574BC2
:1059D0001B681B6873B1002054490546574E584A4E
:1059E000DFF86C9145E0574B574A40F6F421574891
:1059F000FEF709FE0020504B4FF0FF321A6078E0AE
:105A00004D4BC3F800C074E0D3F82CE0D6F800800A
:105A1000C64588BFC6F800E00EEB8E0E02EB8E0E78
:105A2000DEF804E0C3F808E0DEF80880C3F80C8074
:105A3000C8F804C0CEF808C0D3F82CC00CEB8C0E0C
:105A400002EB8E08C3F8148052F82EE00EF1010E1E
:105A50000CEB8C0C42F82CE0D9F800E0D3F82CC009
:105A6000DEF82C309C4588BF01200B681B68002B9A
:105A7000C1D00B68DB68DB68D3F804C06445BFD3D2
:105A8000D3F814E0D3F80CC09F68C7F808C09F682B
:105A9000CCF8047003F1040CDEF80470674504BF11
:105AA000DF68CEF804705D61DEF8008008F1FF3831
:105AB000CEF80080D3F828E0BEF1000FA4D0D3F8D0
:105AC0002080DF69C7F80880DF69C8F8047003F137
:105AD0001808DEF80470474504BF1F6ACEF804704A
