:020000021000EC
:1000000018E20120291B020019190200051B020039
:10001000051B0200051B0200051B0200051B020058
:10002000000000000000000000000000F9E40100F2
:10003000051B02000000000011E5010079E5010048
:10004000A5F60100B5F5010069F70100A9F7010067
:10005000A5F60100B5F5010069F70100A9F7010057
:1000600091100200691102008D1202006911020054
:100070008D120200A5F60100B5F5010069F7010037
:10008000A9F7010059FA010085FB01008D09020062
:100090001D09020085ED01000DEE010021EF0100B8
:1000A000DDEF01004517020009000200000000001A
:1000B0000000000000000000000000000000000040
:1000C0000000000000000000000000000000000030
:1000D0000000000000000000000000000000000020
:1000E0000000000000000000000000000000000010
:1000F0000000000000000000000000000000000000
:1001000000000000000000000000000000000000EF
:1001100000000000000000000000000000000000DF
:1001200000000000000000000000000000000000CF
:1001300000000000000000000000000000000000BF
:1001400000000000000000000000000000000000AF
:10015000000000000000000000000000000000009F
:10016000000000000000000000000000000000008F
:10017000000000000000000000000000000000007F
:10018000000000000000000000000000000000006F
:10019000000000000000000000000000000000005F
:1001A000000000000000000000000000000000004F
:1001B000000000000000000000000000000000003F
:1001C000FFFFFFFFFFFFFFFFFFFFFFFFFFFFFFFF3F
:1001D000FFFFFFFFFFFFFFFFFFFFFFFFFFFFFFFF2F
:1001E000FFFFFFFFFFFFFFFFFFFFFFFFFFFFFFFF1F
:1001F000FFFFFFFFFFFFFFFFFFFFFFFFFFFFFFFF0F
:1002000010B5054C237833B9044B13B1044800E012
:1002100000BF0123237010BD18370020000000002C
:1002200030AD020008B5034B1BB10349034800E0A1
:1002300000BF08BD000000001C37002030AD0200E8
:1002400072B110B410444B1E541E51FA84F110F9CF
:10025000012D03F8012F8B42F9D15DF8044B704753
:100260007047FFFFF0B585B00D4600230093019362
:1002700002930393092826D91C46144F144E04AB4D
:100280001919A6FB0023DB0803EB8302A0EB420253
:10029000BA5C01F8102C0134E4B202461846632A15
:1002A000EDD804AB2344094A125C03F8102C661CF9
:1002B000F2B229466846FFF7C3FF2C44002363705F
:1002C000304605B0F0BD0024EBE700BFD88A02003D
:1002D000CDCCCCCC91F900305BB1013810F9012FB5
:1002E0009A4208D14AB111F9013F002BF6D1012001
:1002F0007047012070470020704700207047FFFFC3
:10030000F8B50F4616460C4914F0F2FA851C0B4955
:10031000284614F0EDFA0446094914F0E9FA0023DE
:10032000037004F8033B2946384614F08EFA214640
:10033000304614F08AFAF8BDD08A0200D48A02004E
:100340002097020010B4441E002108460AE0A3F1E1
:100350004102D2B2052A0FD8373B1844022913D8DC
:100360000001013114F8013FA3F13002D2B2092A91
:10037000EDD8303B1844F1E7A3F16102D2B2052A6F
:1003800008D8573B1844E9E74B1C032BE9D95DF823
:10039000044B70470020FAE72DE9F84F0F46096833
:1003A000BB685A1C8D1801EB030CCB5C222B40F070
:1003B000D28080467868824280F0CD802C4600262C
:1003C00004E00134621A824280F0C5802378222B37
:1003D00000F0CE805C2BF4D10134631A834280F0AC
:1003E000BA800136EDE7013506F8013BA54280F001
:1003F000A5802B785C2BF6D1611B002940F39980F6
:100400006A78752A00F295805B2A13D9A2F15C0301
:10041000192B00F28E80DFE803F0118C8C8C8C8C11
:10042000158C8C8C1B8C8C8C8C8C8C8C208C8C8C60
:10043000258C2A2F222A01D02F2A7AD106F8012BC7
:10044000534603E0082306F8013B53461D44CDE71D
:100450000C2306F8013B5346F8E70A2306F8013B54
:100460005346F3E70D2306F8013B5346EEE7092315
:1004700006F8013B5346E9E705295ADDA81CFFF7BA
:1004800061FF8146A0F55C43B3F5806F51D3A0F5C1
:100490005843B3F5806F1FD2AB1DE31A052B48DD1F
:1004A000AB795C2B45D1EB79752B42D105F1080076
:1004B000FFF748FFA0F55C42B2F5806F39D2354AAC
:1004C00002EA8929C0F3090349EA030303F58039E5
:1004D0000C23F02004210CE07F2804D85FFA80F977
:1004E0000623012117E0B0F5006F18D20623C020C3
:1004F00051464A1ED2B209F03F0C6CF07F0C06F850
:1005000002C04FEA9919013A12F0FF02F3D140EA12
:1005100009095FFA89F986F800900E4496E7B0F56C
:10052000803F03D20623E0200321E2E7B0F5881FD5
:100530001AD37B69584698470EE00646002333706D
:100540001023C8F80C30C8F810B03B68E31A013328
:10055000BB60012004E02DB13B68ED1ABD600020B6
:10056000BDE8F88F0020FBE70623F0200421C0E758
:100570008242F0D2A4EB0C00C6F101063B69304484
:10058000984783460028E6D0AC42D6D906464FF0BD
:10059000020A2EE700FC0F00E0B10268C2B110B4FD
:1005A00083684468A3420ED2591E0A4412F8011F00
:1005B000202906D8013383609C42F7D1013C846036
:1005C00001E09C4202D05DF8044B70471C46F5E701
:1005D00010467047704740B1806830B129B1013989
:1005E000006810B10029FAD1704770470B4689B1F5
:1005F00090B1814212D082683AB1526882B11160E2
:100600004A608268516001207047816059600A60C9
:10061000012070470020704700207047002070477D
:100620000120704750B138B50546006828B1AC6864
:10063000204414F030F90444AC6038BD704770B504
:10064000064670B10D4614F026F9441C2B6820466E
:100650009847054618B12246314613F077FF2846E1
:1006600070BD0546FBE748B32DE9F0410E46144640
:100670001D46074621B32AB3904225D0069B9BB165
:10068000D36843F40078E36813F4007F03D1206A51
:1006900008B16B6898472662C4F80C80214638463A
:1006A000FFF7A4FFBDE8F08129463046FFF7C7FFFA
:1006B000064658B1E36823F40078E4E70020704769
:1006C0000020EFE70020EDE70020EBE70698E9E7E0
:1006D00070B50546002846D0066836B3436813B1A6
:1006E0008268934241D9002941DBAA680131114453
:1006F0008B420AD22B69002B3BD1B1F1804F08D33A
:10070000002904DB6FF0004404E016440DE00026ED
:100710000BE04C002B6A8BB12146304698470646C9
:1007200028B16C602E60AB681E44304670BDEB692A
:100730002868984700236B602B60F6E7AB6920467A
:100740009847064640B1AA680132296813F0FEFEB8
:10075000EB6928689847E4E7EB6928689847002325
:100760006B602B60E1E70646DFE70026DDE7002649
:10077000DBE70026D9E710B5036828209847044630
:1007800018B12822002113F0EEFE204610BDFFFF15
:10079000002900F094802DE9F0470546084645B150
:1007A0002A78002A00F093802C460026012752491F
:1007B00011E00321FFF78CFF002800F082804F4AF0
:1007C0001188927801808270012076E05C2A0DD039
:1007D00014F8012F82B1222AF8D8072A08D9A2F1E9
:1007E0000803DBB207FA03F30B4201D00136EFE74F
:1007F0001F2A98BF0536EBE7641B3444E11CFFF762
:1008000067FF804600285ED0002E67D00646222370
:1008100006F8013B2B78002B49D05C27DFF8E0A0DD
:100820004FF0740906E033703046461C15F8013F5E
:10083000002B3CD01F2B03D9222B01D05C2BF2D1F3
:10084000304600F8017B2A78222A15D8072A29D9B0
:10085000A2F108031A2B25D8DFE803F015211B2489
:10086000181E24242424242424242424242424245A
:1008700024242424242412005C2A13D17770D4E782
:1008800022237370D1E762237370CEE766237370FF
:10089000CBE76E237370C8E772237370C5E786F8E1
:1008A0000190C2E7514613F06BFF701DBDE7444451
:1008B000222363700023A3700120BDE8F08700208D
:1008C00070470020F9E70020F7E70020F5E7032153
:1008D000FFF7FEFE80460028F7D00024222640467F
:1008E00000F8016B2246294613F030FE444466703E
:1008F0000023A3700120E0E737000004E48A02002F
:10090000E88A0200F8B50446002834D00E460029D3
:1009100033D084681AB974B3DFF868C00CE054B3FC
:10092000216A61B3304613F086FF20B32468002C9F
:10093000F6D120E02468F4B1226A002AFAD0B2424B
:1009400019D0771E013A17F8010F10F80C3003F098
:100950000303012B0CBF00F12001014612F8013FF7
:1009600013F80C5005F00305012D08BF2033994200
:10097000E0D10028E7D12046F8BD0C46FBE70C4645
:10098000F9E700BFE5A902002DE9F04F8DB000287E
:1009900000F054828A468046002900F05182047B90
:1009A000202C28DC002C00F04D82631E1F2B00F24F
:1009B0004E82DFE813F04C005A004C023D004C021E
:1009C0004C024C0269004C024C024C024C024C029C
:1009D0004C024C0215014C024C024C024C024C02DF
:1009E0004C024C024C024C024C024C024C024C0297
:1009F0004C024C021A01402C00F04F81802C18BF91
:100A0000002440F020820069002800F0288213F0C2
:100A100042FF441C21465046FFF75AFE002800F0D2
:100A200020822246D8F8101013F090FD01240AE22B
:100A300005215046FFF74CFE0346002800F00982CE
:100A4000B64A1068186012791A710124FBE1062178
:100A50005046FFF73DFE0346002800F0FC81B04AF7
:100A60001068186092889A80EDE105215046FFF7E2
:100A70002FFE0346002800F0F081AA4A1068186093
:100A800012791A710124DEE1D0E9064500230593AD
:100A900006930793089309930A93ADF82C3000222C
:100AA0000023CDE9022322462B462046294613F097
:100AB000F9FA90B9264625F000474FF0FF329A4BDD
:100AC0002046394613F0EEFA70BB4FF0FF32964BDA
:100AD0002046394613F0C8FA30BB904B93E8030028
:100AE00005908DF818100424611C5046FFF7F0FDA6
:100AF0000546002872D0002C6ED005A903462018A8
:100B00002E2611F8012B2E2A0CBF1E701A700133ED
:100B10009842F6D122460023AB54DAF808301C4440
:100B2000CAF8084001248EE1D8F81480404612F03B
:100B3000B5FF02460B462046294613F081FA30B134
:100B400042467A4905A813F01BFE0446CCE722462C
:100B50002B46774905A813F013FE834602AA754970
:100B600005A813F02DFE012827D19DED027B8DED08
:100B7000007B53EC172B17EE108A23F000494B46ED
:100B80003046394613F066FA08B9B046B9462246EF
:100B90002B46DDE9000112F033FE064621F0004746
:100BA0000022654B4046494612F0E2FF02460B46E2
:100BB0003046394613F058FA30B922462B465F4981
:100BC00005A813F0DDFD83465C46BBF1190F88BF15
:100BD000002400F2388187E722469CE7002432E1B6
:100BE0000069FFF7D5FD04462DE1856801215046D7
:100BF000FFF76EFD002800F036815B220270DAF804
:100C000008300133CAF80830DAF80C300133CAF87A
:100C10000C3085B32C274FF0200800260AE0821CF8
:100C200080F801801670DAF808302344CAF80830DA
:100C30002D6805B351462846FFF7A6FE0446002856
:100C400000F001815046FFF7EDFC2B689BB1DAF80C
:100C50001430002B14BF02240124611C5046FFF7FE
:100C600037FD002800F001810770DAF81420002A0F
:100C7000D5D1421CD6E702215046FFF729FD0028B6
:100C800000F0F5805D22027000224270DAF80C302C
:100C9000013BCAF80C300124D5E04B69002B14BF8E
:100CA000022401248568611C5046FFF711FD0028CD
:100CB00000F0DF807B230370DAF80C300133CAF8D0
:100CC0000C30DAF814300BB10A234370DAF808302C
:100CD0002344CAF80830002D00F0868009263A2700
:100CE0004FF02C0836E0DAF80C105046FFF7F0FC15
:100CF0000146002800F0BF80DAF80C203AB100234A
:100D000001F8016B0133DAF80C209342F8D3DAF8DA
:100D100008301A44CAF8082020E000BFF08A020018
:100D2000F88A0200008B0200FFFFEF7F088B0200B1
:100D30000C8B0200148B02000000B03C188B0200E8
:100D400000221A70DAF808301C44CAF808402D68EE
:100D5000002D49D0DAF81430002BC4D15146286A4E
:100D6000FFF716FD044600286DD05046FFF75AFCE9
:100D7000DAF81430002B14BF022401242146504617
:100D8000FFF7A6FC002878D00770DAF8142002B12B
:100D90004670DAF808102144CAF80810514628466F
:100DA000FFF7F2FD044600284DD05046FFF73AFC0D
:100DB0002B68DAF81440003C18BF0124002B18BF40
:100DC0000134611C5046FFF783FC0346002856D0CF
:100DD0002A680AB103F8018BDAF81420002AAFD090
:100DE0000A2203F8012BABE7DAF8143023B3DAF860
:100DF0000C1001315046FFF76BFC0146002840D033
:100E0000DAF814306BB1DAF80C30012B09D000227B
:100E1000092001F8010B0132DAF80C30013B9A424B
:100E2000F7D37D230B7000234B70DAF80C30013BB5
:100E3000CAF80C30012406E00221DBE7002402E0BE
:100E4000002400E0002420460DB0BDE8F08F00240F
:100E5000F9E70024F7E70024F5E70024F3E700248E
:100E6000F1E70024EFE70024EDE70024EBE700249E
:100E7000E9E70024E7E70024E5E70024E3E70024AE
:100E8000E1E70024DFE700BF20B370B50546124E4E
:100E90000FE0206908B173689847E36813F4007F96
:100EA00003D1206A08B17368984773682046984751
:100EB0007DB12C462D68E36813F4807FEDD1A068E6
:100EC0000028E6D0FFF7E0FFE36813F4807FE0D06E
:100ED000E3E770BD704700BFE0070020FFFFFFFFA2
:100EE000002900F0A0812DE9F04792B006460C469B
:100EF0000F68002F00F099818D68D1F804802B1DB8
:100F0000434525D804229A49781913F0CCFCC0B186
:100F10006B1D984507D305229649781913F0C3FC39
:100F2000002800F0A68104229349781913F0BBFC35
:100F300090B90223F36001207061A3680433A360B9
:100F400076E10423F360A3680433A36001206FE11A
:100F50006B1D984580F08581454580F068817B5DFB
:100F6000222B1BD02D2B1ED0A3F13002D2B2092A86
:100F700019D95B2B00F081807B2B18BF002040F03B
:100F80005781E368B3F57A7F80F059810133E360DC
:100F90007B5D7B2B00F0CE80002049E1214630466E
:100FA000FFF7FAF944E1002101916B1E1F4402A8EA
:100FB000A8EB05054FF02E0C17F8012F452A15D880
:100FC0002A2A15D9A2F12B031A2B11D8DFE803F036
:100FD0003610363F1036363636363636363636101A
:100FE000101010101010101010103600652A25D0A7
:100FF00012AB1944002301F8403C02AF01A9384666
:1010000014F0B8FA59EC108B019DBD4233D086ED37
:10101000060B55A3D3E9002310EE100A494613F03E
:101020002DF8B8B16FF0004373610823F3606B448F
:10103000ED1AA3681D44A5600120F9E0027001319A
:101040003F29D5D00130A942B6D12946D0E780F852
:1010500000C0F4E70022494B4046494613F004F82B
:1010600018B14FF000437361DFE74046494613F083
:101070002FF87061D9E70020DAE0E368B3F57A7FF2
:1010800080F0D9800133E3607B5D5B2B01D00020D1
:10109000CEE00135A5602046FFF77EFAA3686268BE
:1010A000934280F0D5802268D25C5D2A00F0CB802C
:1010B000013BA36000252F4604F1100816E0074607
:1010C000A3680133A3602046FFF766FA214628464D
:1010D000FFF706FF30B32046FFF75EFAA3686268A9
:1010E00093421FD22268D35C2C2B0CD1A9464046D8
:1010F000FFF741FB0546A8B1002FE0D0C9F800007A
:10110000C0F80490DCE75D2B0CD1E368013BE360A1
:1011100007B17D602023F360B760A3680133A3604B
:10112000012085E0002F00F088803846FFF7ACFEF4
:1011300000207DE00135A5602046FFF72DFAA36869
:10114000626893420CD22268D25C7D2A00F08480CF
:10115000013BA36000252F4604F11008A94640E09A
:10116000013BA360002063E00000C0FFFFFFDF4100
:10117000F08A0200F88A0200008B02000000E0C141
:101180000746A3680133A3602046FFF705FA21460E
:101190002846FFF701F900283FD02046FFF7FCF969
:1011A0002B692B62C5F81090A3686268934234D211
:1011B0002268D25C3A2A30D10133A3602046FFF77F
:1011C000EBF921462846FFF78BFE30B32046FFF7A8
:1011D000E3F9A368626893421FD22268D35C2C2B88
:1011E0000CD1AA464046FFF7C6FA0546A8B1002F23
:1011F000C6D0CAF80000C0F804A0C2E77D2B0CD10D
:10120000E368013BE36007B17D604023F360B760B2
:10121000A3680133A36001200AE097B13846FFF7C5
:1012200033FE002004E000207047002000E0002092
:1012300012B0BDE8F0870020FAE70020F8E70020B0
:10124000F6E70020F4E7E368013BE360002761E78D
:10125000013BA3600020EBE7E368013BE36000276C
:10126000D3E705220649781913F01DFB00287FF407
:1012700073AE0120F060A3680533A360D8E700BF18
:10128000F88A0200F0B589B01E4600240294039447
:1012900004942E4B1C605C600446002854D0154614
:1012A00039B9039B029A934244D3002A41D0531E7A
:1012B00040E001900291264B93E8070008AF07E950
:1012C00007001846FFF757FA07460028E9D00198AB
:1012D00080B1039B5BB9029B042B0AD903221D49F1
:1012E00013F0E1FAA0B90323039301A802E0002060
:1012F00000E001A8FFF750F901463846FFF7F0FD7E
:1013000098B13EB9EDB1019B039A13442B6018E0EC
:1013100001A8EFE701A8FFF73FF9039B029A934268
:1013200003D2019AD35C002BECD03846FFF7ACFD1A
:10133000B7E713460DB1E2182A60044A14605360FF
:101340000027384609B0F0BD0746FAE734370020D9
:10135000E0070020208B020070B5044648B10D461E
:10136000164613F098FA33462A46411C2046FFF7EA
:1013700089FF70BD08B500221146FFF7EDFF08BDDB
:10138000F0B58BB007460D4614461E4624220021B8
:1013900001A813F0E8F8002C13DBA5B10195029425
:1013A00000230393012305930696084B93E8070057
:1013B0000AAB03E9070001A93846FFF7E5FA0BB0CD
:1013C000F0BD0020FBE70020F9E700BFE0070020A8
:1013D00048B183682BB1002001301B68002BFBD182
:1013E00070470020704700207047002903DB08B5D4
:1013F000FFF7F1F808BD0020704708B50022FFF79D
:1014000081FA08BD08B50122FFF77CFA08BD08B5CE
:10141000FFF7ECF808BDFFFF00B583B00023009391
:10142000024BFFF720F903B05DF804FBE007002052
:1014300000B583B001230093024BFFF714F903B00A
:101440005DF804FBE007002008B50348FFF793F9B7
:1014500008B10423C36008BDE007002070B582B066
:1014600005460E46FFF7F0FF044600230093074BA6
:10147000024631462846FFF7F6F810B1204602B082
:1014800070BD2046FFF700FD0024F7E7E0070020CD
:1014900010B504460548FFF76EF928B10346002C45
:1014A00014BF02230123C36010BD00BFE00700206A
:1014B00070B582B005460E461046FFF7E9FF0446B8
:1014C00000230093074B024631462846FFF7CBF82E
:1014D00010B1204602B070BD2046FFF7D5FC0024B5
:1014E000F7E700BFE007002070B555EC104B164839
:1014F000FFF741F9064670B10823C360C0E906450D
:101500000FA3D3E900232046294612F0B7FD20B1EE
:101510006FF000437361304670BD00220B4B2046D4
:10152000294612F0A1FD18B14FF000437361F2E7B4
:101530002046294612F0CCFD7061ECE7AFF3008045
:101540000000C0FFFFFFDF41E00700200000E0C116
:1015500070B582B005460E46FFF7C6FF044600236D
:101560000093074B024631462846FFF77CF810B13E
:10157000204602B070BD2046FFF786FC0024F7E746
:10158000E007002038B504460A48FFF7F4F805469E
:1015900040B11023C36007492046FFF750F80446C6
:1015A000286108B1284638BD2846FFF76DFC25465E
:1015B000F8E700BFE007002070B582B005460E4690
:1015C0001046FFF7DFFF044600230093074B024657
:1015D00031462846FFF747F810B1204602B070BDEB
:1015E0002046FFF751FC0024F7E700BFE00700208A
:1015F00008B50348FFF7BFF808B12023C36008BD52
:10160000E007002008B50348FFF7B5F808B140230C
:10161000C36008BDE007002028B1007B202814BF6C
:10162000002001207047002070477B2300F8013B19
:1016300070477D230370002300F8013F7047222389
:1016400000F8013B91F900302BB100F8013B11F992
:10165000013F002BF9D1222303703A23437002305B
:1016600070477D2300F8013B7047222300F8013BBF
:1016700091F900302BB100F8013B11F9013F002B2B
:10168000F9D1222303703A214170C11C837092F971
:1016900000302BB101F8013B12F9013F002BF9D1C9
:1016A0000846222300F8013B7047FFFFFFFFFFFFC2
:1016B000F8B52DED028B1546FCEEC07AB8EE678AC0
:1016C00030EE488A222300F8013B91F900302BB11B
:1016D00000F8013B11F9013F002BF9D10646222306
:1016E00006F8023B3A234370314617EE900AFEF7A4
:1016F000B9FD341801342E233354681C12F0CEF98E
:1017000041EC110B9FED140B15F0EEFF57EC106B35
:1017100018EE100A12F0D4F932463B4612F028FABD
:1017200012F0FEFC06462146FEF79CFD431EDBB28E
:101730009D4207D821463046FEF794FD2044BDEC7B
:10174000028BF8BDED1A2A463021204612F00BFF1D
:101750002C44EFE7AFF300800000000000002440BD
:1017600030B589B004460D46101E2ADB00230093D5
:101770000193029303930493059306930793694699
:10178000FEF770FD2346222203F8012B95F9002075
:101790002AB103F8012B15F9012F002AF9D11846B7
:1017A000222200F8022B3A225A709DF9003033B100
:1017B0006A4600F8013B12F9013F002BF9D109B04C
:1017C00030BD002300930193029303930493059388
:1017D0000693079369464042FEF744FD23462222C2
:1017E00003F8012B95F900202AB103F8012B15F914
:1017F000012F002AF9D122221A703A225A70D81CDD
:101800002D229A709DF90030002BD8D06A4600F83E
:10181000013B12F9013F002BF9D1D0E7F0B589B0B7
:101820000024009401940294039404940594069473
:101830000794222400F8014B91F900402CB100F8E4
:10184000014B11F9014F002CF9D1222101703A21ED
:101850004170C41C5B218170E3B1154602EB430665
:101860002C2705E02046044604F8017BB54211D040
:10187000694635F8020BFEF7F5FC9DF90030002BA8
:10188000F0D06A46204600F8013B12F9013F002BD8
:10189000F9D1E8E75D2304F8013C204609B0F0BD2A
:1018A000F0B589B000240094019402940394049448
:1018B000059406940794222400F8014B91F9004006
:1018C0002CB100F8014B11F9014F002CF9D1222164
:1018D00001703A214170C41C5B218170DBB1154657
:1018E000D6182C2705E02046044604F8017BAE42BA
:1018F00011D0694615F8010BFEF7B4FC9DF90030D4
:10190000002BF0D06A46204600F8013B12F9013F57
:10191000002BF9D1E8E75D2304F8013C204609B02B
:10192000F0BD013901290EDD10B401230022C45C91
:101930002244D2B201339BB28B42F8DB5042C0B298
:101940005DF8044B704700225042C0B27047FFFF61
:10195000F8B503783A2B01D02448F8BD04460D466B
:10196000234E64273A460021304612F0FCFD204603
:1019700010F8013B324602F8013B691E89B200F0C3
:1019800069F81A4C3378237075786570B278F378FB
:1019900043EA0223638033792371164E3A460021CD
:1019A000304612F0E0FDA660EDB100230521104E97
:1019B00022460846013189B2355C98B294682554B4
:1019C0000133547898B28442F3D80948445C074BF9
:1019D0001C73013189B2FFF7A4FF044B84420CBF92
:1019E00018460020B9E70521EFE700BF205A012083
:1019F000AC59012048590120F0B40446144F39462F
:101A000001230020A4F15705EDB2A4F1370C5FFAD1
:101A10008CFCA4F13006F6B205E0304601E0152B4F
:101A200013D801339BB211F8012FA242F7D15A1EED
:101A300092B2092AF1D9A1F10B02D21B92B2052A66
:101A400098BF6046EDD92846E9E7F0BC704700BF73
:101A5000EB0700202DE9F84306460F46904611F0AB
:101A6000010517D1A1B16C00A4B2305DFFF7C4FF2E
:101A7000814633195878FFF7BFFF40EA091008F88C
:101A800005000135ADB20234A4B2A742EBD81DE087
:101A90000D461BE04D1E002D1BDD02F1FF380446F4
:101AA000C0F102062078FFF7A7FF81466078FFF7B4
:101AB000A3FF40EA091008F8010F33199BB2023462
:101AC000AB42EFDBBD1E6D080135ADB22846BDE867
:101AD000F8830025FAE7FFFF49B1431E4A1E50FA7A
:101AE00082F003498A7A03F8012F8342FAD17047C2
:101AF0000408002049B1431E4A1E50FA82F00349EF
:101B0000CA7A03F8012F8342FAD1704704080020F3
:101B1000014BDB7A0370704704080020F0B51D46C6
:101B20008BB1C9B3632B35DD012764230137FFB2C5
:101B3000B94206D303EB83035C002346A542F5DAE2
:101B400003E0012701E039B301270026DFF84CC08C
:101B5000DFF84CE00BE01EF8033083558CFB0543A7
:101B6000ED17C5EBA3050136F3B28B4214D28CFB03
:101B70000543EC17C4EBA30303EB8303B5EB43036B
:101B8000E9D1F4B2A242E6D8A742E4D89EF80A30DE
:101B90008355E3E70127D8E7F0BD00BF67666666B7
:101BA0000408002008B50369984708BD0CB4F0B5D7
:101BB00083B0124B1B68984204DA03B0BDE8F040D2
:101BC00002B0704704460E4609AA01920C4F0899CC
:101BD000384613F0CBFD0B4D2B680B4A52F824000E
:101BE00098472B68304698472B68084898472B68D9
:101BF000384698472B6806489847DEE73C37002070
:101C0000305A01204037002010080020248B0200A9
:101C1000A8980200024B1860024B1960704700BF81
:101C20003C3700204037002038B504460379052BA7
:101C300004D8DFE803F005242854405429484FE035
:101C4000284D05F108004FF0FF33AB60436083601F
:101C5000C36003616388244A1360244A126843EA1C
:101C60000243234A13602B60627813446B606278EE
:101C7000A16812F06BFC6378EB66284630E01948E7
:101C80000023C3662CE081680A784B7843EA02227D
:101C9000184B1A60438843EA0213154A1360190C63
:101CA000124A1160D9B2104A11600E4803604360B5
:101CB0000023C36614E081680A784B7843EA022265
:101CC0000A4B1A60438808490B6043EA0243084AFA
:101CD00013600448036043600023C36600E00020F3
:101CE00038BD00BF50370020C03700204C370020DF
:101CF000443700204837002083680B70C3F3072265
:101D00004A70C3F307428A70C3F30763CB7043681A
:101D10000B71C3F307224A71C3F307428A71C3F3FD
:101D20000763CB71837B0B7202888378A1F809204B
:101D3000CB7283890B73C3F307234B737047FFFF89
:101D400010B4094B03F13204FF2203F8012FA34220
:101D5000FBD1064B1860064B00221A60054B196038
:101D60005DF8044B704700BF2F620120C43700208C
:101D7000C8370020646201202DE9F04182B0224F73
:101D800032252A460021384612F0EDFB1F4B1E6813
:101D9000C6F30B04C4F58054AC4228BF2C46DFF8D0
:101DA00074800094C6F30B03320B3946D8F8000058
:101DB0000BF0A8F9AC4209D0274426442D1B2C4631
:101DC000B5F5805F28BF4FF48054EAE70E4B00243E
:101DD00013F8012B0A2A03D00134A4B2322CF7D114
:101DE00032220B49084812F0A3FB58B106480319E8
:101DF00000225A70054A136801331C44146002B073
:101E0000BDE8F0810020FAE768620120C4370020B5
:101E10003062012064620120002070470120704779
:101E200001600123437100230371704700230360A5
:101E300043710371704738B504460D4690F8F43489
:101E400001F8013B00F28C40FFF756FF05F10F014E
:101E500004F2BC40FFF750FF38BDFFFFB0B10346AE
:101E6000B1B130B40B4805685C1E013913FA81F139
:101E7000104614F8013F83EA102335F8132082EA54
:101E8000002080B28C42F4D130BC704700207047F3
:101E900010467047240800209AB110B41346094A2E
:101EA00014680139CA1811F8013F83EA102334F885
:101EB000133083EA002080B29142F4D15DF8044BE4
:101EC0007047704724080020B8B1C1B110B40D4A62
:101ED0001468421E013910FA81F14FF6FF7012F8B2
:101EE000013F83EA102334F8133083EA002080B2E4
:101EF0008A42F4D15DF8044B7047002070474FF6DA
:101F0000FF707047240800200378002B39D0F0B40C
:101F100002461F4D1F4E3F271EE000231370013065
:101F20002BE0431C441D13F8011F895D11F0440F81
:101F300029D0A342F7D11770431D09E005EB4303F5
:101F400093F9011009B3431C117001E013700346AB
:101F5000581C01325B7893B1222BDED05C2BF5D17B
:101F600041787529DDD049B2002315F913408C4220
:101F7000E4D00133082BF8D10020F0BC70470020DA
:101F8000FBE7002070470020F7E70020F5E700BFDF
:101F9000888B0200E5A90200012340F8043C50F8B8
:101FA0000C0C704750F8043C50F8082C934209D2AE
:101FB00050F80C2C591C40F8041C03EB830302EB73
:101FC0008300704700207047013911F9013F1BB1B0
:101FD0008342FAD1012070470020704738B504468B
:101FE0000D4690F9000040B12946FFF7EDFF30B1F2
:101FF00014F9010F0028F7D102E0002000E020468C
:1020000038BDFFFF90F9003053B1064A9B5C13F0D6
:10201000040F06D010F9013F002BF7D100207047C4
:1020200000207047E5A902002C2803D1012000F010
:102030000100704710B504460649FFF7C5FF18B107
:10204000012000F0010010BD03492046FFF7BCFF4E
:10205000F7E700BF508B0200588B0200F8B504462A
:102060000F461E46013A12F9010F28B114F9013B3F
:102070008342F8D0002010E084B194F90050284643
:10208000FFF7D2FF60B107492846FFF79DFF10B95F
:10209000002304F8013B3E742046F8BD2046FCE7CF
:1020A0000020FAE7588B020038B50D46846814B951
:1020B00009E024683CB160680028FAD0294612F093
:1020C000BAFB0028F5D1204638BDFFFF2DE9F04FBF
:1020D00083B08946C649FFF781FF0546002800F016
:1020E000858190F9003023F020035B2B40F0908134
:1020F000D9F8003048469847804600234360036083
:10210000836015F9013B7B3B18BF0123037407462D
:10211000DFF8DCA2DFF8F4B236E0451C34E000233F
:1021200003703B68002B00F0758100223A60451C6B
:102130001F4629E00023436061E0BE60FE6066E068
:1021400000233374B3603760651C37461CE00123FD
:1021500033740023B3603760651C374614E0601C9D
:10216000B060FFF7D1FE0546002800F0C8800223CA
:10217000337409E003239F4A31462046FFF76EFF80
:102180000546002D00F0BB8051462846FFF726FF8C
:102190000446002800F0B38090F900302C2BBCD00E
:1021A0003A7C002A0CBF7D225D229342B7D0D9F839
:1021B0000430484698470646002800F0A0803B7C43
:1021C000012BB7D094F90030222B40F09880601C8E
:1021D0007060FFF799FE002800F091805146FFF7EC
:1021E000FDFE002800F08B8010F9013B3A2B40F0F7
:1021F00086805146FFF7F2FE044600287FD0002378
:102200003360BB68002B98D0FB681E60FE60B46032
:1022100094F90030222BA2D0A3F15B02D2B2202A83
:1022200058D8A3F15B02202A54D801A151F822F01A
:102230004F210100D5220100D5220100D522010045
:10224000D5220100D5220100D5220100D5220100AE
:10225000D5220100D5220100D5220100B5220100BE
:10226000D5220100D5220100D5220100D52201008E
:10227000D5220100D5220100D5220100C52201008E
:10228000D5220100D5220100D5220100D52201006E
:10229000D522010075210100D5220100D5220100BF
:1022A000D5220100D5220100D5220100D52201004E
:1022B000412101000323504A31462046FFF7CEFE5C
:1022C00005465EE706234D4A31462046FFF7C6FE27
:1022D000054656E72D2B0CBF601C204690F90030B8
:1022E00013F80B2012F0040F09D0302B0AD1451C33
:1022F00090F9013013F80B3013F0040F07D04FF0B2
:10230000000887E0FFF77EFE05460028F7D004238B
:10231000337495F900302E2B29D095F9003023F035
:102320002003452B36D095F9003001931846FFF76E
:102330007BFE0028E3D0337C042B49D194F9006064
:102340002D2E0CBF142313232A1B9A42D7D83FD11A
:1023500000232B7021462A482A4B2D2E18BF1846E1
:1023600012F069FA0028CADB019B2B7030E095F966
:10237000013013F80B3013F0040FC0D0A81CFFF786
:1023800041FE002838BF002005460028B7D00523AD
:102390003374C2E795F901302D2B03D02B2B01D0DC
:1023A000013500E0023595F9003013F80B3013F0D9
:1023B000040FA4D0681CFFF725FE054600289ED018
:1023C0000523337490F90000FFF72EFE002896D005
:1023D0000D4995F90000FFF7F7FD00287FF4D4AE12
:1023E0002846002300F8013B0546CDE6804611E073
:1023F000508B0200008B0200F88A0200F08A020073
:10240000708B02005C8B0200588B0200E5A9020071
:102410004FF00008404603B0BDE8F08F00B587B02C
:1024200001910292044B0493044B059304A9FFF716
:102430004DFE07B05DF804FB991F0100A51F0100C8
:1024400008B50160002141600261436100F53D7003
:1024500000F04FF808BDFFFF2DE9F04104460D469E
:102460000A46012100F5327000F0BCFF8046294683
:1024700004F5187000F0ACFC04F5FC7629463046F3
:1024800000F0E8F90B4B1F7818343A4629462046ED
:1024900001F063F87834B442F7D1B8F1000F04D1F9
:1024A000044B00221A70BDE8F081024B01221A7021
:1024B000F9E700BFCC37002038B504460D4600F5DB
:1024C000187000F067FF294604F1180001F06AF85F
:1024D000294604F1900001F065F8294604F584705E
:1024E00001F060F8294604F5C07001F05BF838BDD2
:1024F00070470028FDD00023037043708370C370C1
:10250000037143718371C3718360C3607047F0B41A
:1025100007460588D5B14668002403E0431C9CB2F9
:10252000AC420CD263195A10C3F34F0036F8322074
:102530008A4209D0F2D918B1431E9DB2F0E728466D
:10254000844204D04FF6FF70F0BC704728467B6889
:1025500033F830204FF6FF738A4218BF1846F3E76E
:1025600020B10B4602460978072900D9FEE780F81A
:102570003410084661B110B43432002153F8044FCE
:1025800042F8044F01318142F8D15DF8044B7047A5
:102590007047FFFF2DE9F84FC37843F08003C37005
:1025A00090F83430002B4AD005460F4680464FF055
:1025B00000094C464FF6FF7B98F83A6098F83BA02C
:1025C000B8F838103846FFF7A2FF584516D03B88B8
:1025D000834224D97B6803EBC0008378B3421ED9C1
:1025E00006EB4606436813EB860618D05146BAF14F
:1025F000000F4BD02C4B186800232CE02B4B6B6149
:102600005A1CAA619A1CEA61DA1C2A621A1D6A62C3
:102610005A1DAA629A1DEA6207332B630FE0234B0F
:102620006B615A1CAA619A1CEA61DA1C2A621A1DA3
:102630006A625A1DAA629A1DEA6207332B63BDE8DB
:10264000F88F05EB840250610134E4B2082C0CD8F9
:1026500001338B421AD0F2889A42F2DD05EB840CEA
:1026600032681A44CCF81420EEE7104B6B615A1C08
:10267000AA619A1CEA61DA1C2A621A1D6A625A1D52
:10268000AA629A1DEA6207332B63D8E7EB786FF3EF
:10269000C713EB7009F1010908F1040895F834300B
:1026A0004B4589DCCBE700BF340A00202C0A002010
:1026B00048B138B514460546FFF752FF2146284673
:1026C000FFF768FF38BD704730B583B004460A464F
:1026D0000B460191802580F8205080F82410C1F32A
:1026E000072180F82510C2F3074280F826201B0E30
:1026F00080F82730082380F82830094B1B681830F1
:102700009847019BA3650023A4F84C30637584F8B7
:10271000543084F86030032384F8613003B030BD56
:10272000280A002081650023A0F84C30437580F80A
:10273000543080F86030032380F861307047418660
:10274000704730B40123037083694FF4C06464F3AD
:102750001C038361082380F82830002380F8293087
:1027600044684FF4B06565F31C0444604375838589
:10277000C38580F83030B1F864404486896E416387
:10278000A0F8403080F8423043648364A0F84C30B5
:10279000A0F84E30026580F854308365C36580F838
:1027A000603080F8613030BC7047FFFF70B4039C2C
:1027B000012580F8615001F07F01067E61F3060675
:1027C0000676067961F306060671A0F8402080F8C7
:1027D0004230BDF81030A0F84E302279074B1A7104
:1027E000E288DA8022681A60A2689A60436480F8FE
:1027F0005450102380F8603070BC70479C620120F8
:1028000070B4039C012580F8615001F07F01067EC1
:1028100061F306060676067961F306060671A0F8EE
:10282000402080F84230BDF81030A0F84E302279B8
:10283000074B1A71E288DA8022681A60A2689A60EF
:10284000436480F85450132380F8603070BC7047A4
:102850009C620120F0B583B004460378002B00F0A1
:102860006A8290F86030002B00F06882B0F84C204B
:102870003AB1114489B2A0F84C10B0F84E208A4207
:1028800006D3627D4AB994F854206AB9012553E20F
:10289000B249FFF747FF03254EE20022A4F84C207F
:1028A000227B5209042A0BD0103B052B00F24182F7
:1028B000DFE813F01A006800CF0033015E01D50194
:1028C000237C8DF80030637C8DF80130A37C8DF87B
:1028D0000230E37C8DF80330009BE36500236375D1
:1028E00084F86030032527E2002384F83030A38584
:1028F000B4F8403084F821301B0A84F8223094F870
:10290000423084F82330616CCB88E385042B17D8E0
:10291000C3F10402920002F00C0242F0230284F898
:1029200020200868EBB1421E04F12301013B10FA9C
:1029300083F312F8010F01F8010F9342F9D110E06F
:10294000212284F8202084F82430C3F3072284F85D
:102950002520C3F3074284F82620C3F3076384F8D5
:1029600027307F4B1B6804F1180098470125A4F815
:102970004C50002384F85430112384F86030002335
:102980006375D9E1257B6D09032D41D1637B8DF8FA
:102990000030A37B8DF80130BDF80030B4F8402042
:1029A0009A423BD1E27B94F842309A4236D1E38D91
:1029B000042B38D9626C1068A28D0732934237DC41
:1029C000DDB213F0FF020BD0431E04F12001013AE7
:1029D00010FA82F213F8010F01F8010F9342F9D1B6
:1029E000E38DA385C5F1070294F8303043EA420332
:1029F00043F0010384F820300125A4F84C50584BD3
:102A00001B6804F118009847122384F86030B6E779
:102A100054492046FFF758FE0325B0E752492046A7
:102A2000FFF752FEABE7002384F860300225A6E7EB
:102A3000431E04F12002063013F8011F02F8011FA3
:102A40008342F9D10723A38594F8303084F82030ED
:102A5000D2E7237B5D09012D3CD194F8302003F0AF
:102A6000100393423CD182F0100284F83020E28DB2
:102A7000A18D8A423AD9636C18680844CB1D9A42EA
:102A800039DC521AD7B212F0FF020BD0411E04F10A
:102A90002006013A10FA82F311F8012F06F8012FEF
:102AA0009942F9D1E38DA385C7F1070294F830303C
:102AB00043EA420343F0010384F820300123A4F8E1
:102AC0004C30274B1B6804F118009847122384F8F8
:102AD000603054E723492046FFF7F6FD03254EE713
:102AE00022492046FFF7F0FD032548E7002384F83C
:102AF0006030022543E7431E04F12001821D13F8D4
:102B0000010F01F8010F9342F9D1A38D0733A3857B
:102B100094F8303084F82030D0E7002684F8306014
:102B2000A685B4F8403084F821301B0A84F822309E
:102B300094F8423084F82330402384F82030084B46
:102B40001B6804F1180098470125A4F84C5084F83C
:102B50005460142384F8603011E700BF00000405BE
:102B6000280A002023000A0643000406000003058B
:102B7000237B590902293AD1627B8DF80020A27B80
:102B80008DF80120BDF80020B4F84000904234D107
:102B9000E07B94F8422090422FD103F00305032DEF
:102BA00031D0012D55D1237C8DF80030637C8DF818
:102BB0000130A37C8DF80230E37C8DF80330BDF842
:102BC0000030E385626CD2889A423CD30023A3850F
:102BD000602384F820300123A4F84C30584B1B6844
:102BE00004F118009847152384F86030C7E655496A
:102BF0002046FFF769FD0325C1E653492046FFF74C
:102C000063FD0325BBE6C3F38103C3F104039BB259
:102C1000E385626CD088984210D304F10F001268EB
:102C2000134410F8015F02F8015B9A42F9D1E38D79
:102C3000A385002384F860300D46A0E64349204672
:102C4000FFF770FD9BE641492046FFF73DFD032558
:102C500095E63F492046FFF737FD03258FE6217BA8
:102C60004B092CD194F8303001F010029A422CD14B
:102C700083F0100384F83030A08D636C1B6803442C
:102C8000E28DC51DAA422DDC11F0010F23D0121ACE
:102C900090B268B104F10C02013B04F10D0101385E
:102CA00011FA80F112F8010F03F8010F8A42F9D1ED
:102CB000E38DA385002384F8603002255FE6214977
:102CC0002046FFF701FD032559E622492046FFF77C
:102CD000FBFC032553E64FF000612046FFF7F4FCB0
:102CE00003254CE611F0010F1CD104F10C02013B4D
:102CF00004F1130012F8011F03F8011F8242F9D1F9
:102D0000A38D0733A38594F8303043F0600384F833
:102D100020300B4B1B6804F1180098470125A4F8DC
:102D20004C502CE64FF000612046FFF7CDFC032508
:102D300025E6012523E6012584F8615003B0F0BDA6
:102D4000280A002023000A064300040605000405A3
:102D5000100007060000030570B40124047091F808
:102D60005C4004F5B064856964F31C058561082442
:102D700080F82840002480F8294091F85C5005F53F
:102D8000C065466865F31C06466004754475848515
:102D9000C48580F83040B1F85E5045860487C3632F
:102DA000A0F8404080F8424044648464A0F84C405D
:102DB000B1F86030A0F84E30026580F85440846568
:102DC000C46580F8604080F8614070BC7047FFFFC8
:102DD00030B583B004460378002B00F0B782B0F81A
:102DE0004C303BB1194489B2A0F84C10B0F84E30C9
:102DF0008B4208D3637D5BB994F85430002B40F0CC
:102E0000AE8201259BE0BB49FFF78CFC03259BE0CC
:102E10000023A4F84C30257B6D09042D0FD094F8C5
:102E2000603003B394F86030113B042B00F28A82C7
:102E3000DFE813F0A0004701880254001E02237C43
:102E40008DF80030637C8DF80130A37C8DF8023062
:102E5000E37C8DF80330009BE3650023637584F801
:102E60006030032570E06B1EDBB2012B70D8637BF2
:102E70008DF80030A37B8DF80130BDF80010A4F868
:102E80004010E37B84F84230E06BFFF740FB208783
:102E90004FF6FF73984200F05B82E26B94F8423089
:102EA0001188814240F25482526802EBC00082785D
:102EB0009A4240F24D8203EB43039900426812EBC1
:102EC000830300F045826364012D47D01B7913F022
:102ED000010F00F09180142384F86030002384F8FF
:102EE0003030A385637B84F82130A37B84F82230C3
:102EF000E37B84F82330616CCB88E385042B40F2BC
:102F00009481412284F8202084F82430C3F30722DE
:102F100084F82520C3F3074284F82620C3F307630F
:102F200084F82730744B1B6804F11800984701257A
:102F3000A4F84C50152384F860300023637594F88E
:102F40006030002B08BF1D4684F8615003B030BDCF
:102F50006A492046FFF7B8FB0325F5E7187910F01A
:102F6000020F42D09B68002B44D01B68A36411233E
:102F700084F8603094F85430002B42D1002384F858
:102F80003030A385637B84F82130A37B84F8223022
:102F9000E37B84F82330237B03F00305032D53D018
:102FA000012D40F08880237C8DF80030637C8DF803
:102FB0000130A37C8DF80230E37C8DF80330BDF83E
:102FC0000030E385626CD2889A426ED3602384F825
:102FD00020300123A4F84C30474B1B6804F1180043
:102FE0009847122384F86030A7E745492046FFF749
:102FF0006BFBB1E75358B9E741492046FFF764FB43
:10300000AAE7636C9B685B68984703280ED0022888
:1030100018BF012591D1002384F85430A4F84C3016
:1030200038492046FFF750FB032586E7002584F842
:103030005450A4F84C50304B1B6804F118009847CA
:1030400084F86050022578E7C3F38102C2F10402DC
:1030500092B2E285636CDB88934217D304F10F01CF
:10306000A36C1A4411F8010F03F8010B9A42F9D12D
:10307000E38DA385602384F82030636C9B6853B193
:103080000125A4F84C5084F8545056E71E492046B8
:10309000FFF71AFB51E7184B1B6804F1180098471B
:1030A000002384F86030022547E717492046FFF7E0
:1030B0000BFB032541E715492046FFF705FB0325D8
:1030C0003BE794F854308BB3636C9B685B6898471C
:1030D00003281DD0022818BF01257FF42EAF00233E
:1030E00084F85430A4F84C3006492046FFF7ECFA37
:1030F000032522E700000405280A0020010004053A
:103100000000010621000008050004051000070664
:10311000002584F85450A4F84C509A4B1B6804F1D5
:103120001800984784F86050022506E7257B6B0954
:1031300031D194F8302005F010039A4231D1A08D9E
:10314000A36C0344E28DC11D8A4241DC15F00105E8
:103150002DD0121A90B268B104F10C02013B04F1B7
:103160000D01013811FA80F112F8010F03F8010F77
:103170008A42F9D1E38DA38594F8303043F02003DF
:1031800084F82030636C9B68C3B10123A4F84C30F1
:1031900084F85430D1E67C492046FFF795FA0325A0
:1031A000CBE67A492046FFF78FFA0325C5E64FF0B4
:1031B00000612046FFF788FA0325BEE6714B1B68C5
:1031C00004F118009847002384F860300225B4E623
:1031D00015F0010F22D104F10C02013B04F11300A0
:1031E00012F8011F03F8011F8242F9D1A38D0733A2
:1031F000A38594F8303043F0200384F82030012573
:10320000A4F84C505F4B1B6804F11800984794F8E1
:10321000303083F0100384F830308EE64FF00061D8
:103220002046FFF751FA032587E6C3F10402920016
:1032300002F00C0242F0430284F8202008685BB1DF
:10324000421E04F12301013B10FA83F312F8010F2F
:1032500001F8010F9A42F9D14A4B1B6804F118009A
:103260009847E38DA385002384F86030022564E647
:10327000237B5D09032D2DD194F8302003F010033A
:103280009A422DD1A28D636C19681144E38DD01D33
:1032900083422ADD4B1E04F12002063113F8010F90
:1032A00002F8010F8B42F9D1A38D0733A38594F85F
:1032B000303084F82030334B1B6804F118009847F5
:1032C0000125A4F84C5094F8303083F0100384F8B2
:1032D000303032E62C492046FFF7F6F903252CE67C
:1032E0002A492046FFF7F0F927E69B1ADDB213F0D2
:1032F000FF020BD04B1E04F12000013A11FA82F1BB
:1033000013F8012F00F8012F8B42F9D1E38DA3852B
:10331000C5F1070294F8303043EA420343F0010359
:1033200084F82030174B1B6804F11800984794F874
:10333000303083F0100384F83030002384F860309C
:103340000225FAE50125F8E50125F6E50125FBE56D
:10335000002363640E492046FFF7B6F9FCE594F8B4
:103360006030113B042BEFD801A252F823F000BFCC
:1033700003300100C330010049330100DD2E01009C
:1033800071320100280A002023000A06000003050C
:103390001100090601F07F01037E61F30603037645
:1033A000037961F306030371704703460A4603215C
:1033B00001749168506883E8030000215974908972
:1033C0009882D089D882B2F85800188392F85A208F
:1033D0009A769983D98383F82010596283F828104C
:1033E0007047FFFFC17890F90330002B5ADB10B50E
:1033F00082B00446838B1A4492B2934238BF8283D0
:1034000011F0400F36D0828B838A9A4248D3C38B07
:1034100001339BB2C383028B9A4212D20123C3832E
:1034200090F820300133DBB280F82030827E9A425F
:103430003CBF002380F8203090F8202001239340E7
:103440004362E38B2372C3F30723637294F8203043
:10345000A372154B1B68204698470023A3830120C5
:10346000A38BE28A93428CBF0023012384F8283087
:1034700002B010BD407C0028F2D0237A8DF80030D5
:10348000637A8DF80130BDF80030E383A27A84F8C6
:1034900020200123934063620023A3836374DFE74A
:1034A0000020DDE700207047280A002010B5044600
:1034B00090F87330022B12D000F11003C21D30308F
:1034C00053F8041F097802F8011F8342F8D1084B12
:1034D0001B6820469847002384F8723010BD436F64
:1034E00008309847024B1B6820469847F3E700BF17
:1034F000280A00202DE9F04104460E461146069D9B
:103500009DF81C80089F1A46FFF7D2F82B68E365E8
:103510002A89A4F864206A89A4F86620A989A4F8F5
:1035200068102869E066A87B84F86A002360082395
:10353000237400236374A66584F8701084F87120E6
:1035400084F8723084F873806767B8F1020F01D095
:10355000BDE8F081002FFBD1FEE708B590F90330FC
:10356000002B14DBB0F864304FF6FF718B420BD0A8
:103570006AB1826DD18B99420DD043B990F8723007
:103580002BB1FFF793FF02E090F8723003B908BD4A
:10359000FFF78CFFFBE7C16E526A1142EDD0FFF7D7
:1035A00085FFF4E7037861F3060303707047FFFFBC
:1035B00010B50446094B00F12E011868C4F82E001E
:1035C0001B790B71636C052220469847044B1868E1
:1035D000C4F801001B79637110BD00BF988B020015
:1035E000A08B020008B50146436C2D22013198479B
:1035F00008BD01238366704708B54FF0FF31024BC9
:1036000018680FF005F808BDD037002008B5002372
:103610001A461946024800680EF0E8FD08BD00BFD2
:10362000D037002008B5034901200EF0BEFE024B42
:10363000186008BDA8620120D03700202DE9F041B4
:1036400004460E46412380F82830542380F8293060
:1036500000F12B032B2280F82A20284A4E2503F85C
:10366000015B12F9015F002DF9D196F9002032B10A
:10367000314603F8012B11F9012F002AF9D10D224F
:103680001A700A225A7000279F70FFF7B5FF04F1E5
:1036900004084FF4FA714046FEF7C2FBE28A39464D
:1036A000206910F060FFA782D4F8B03004F1280040
:1036B00098473146204600F099FC002805DA237A25
:1036C000002BF6D04FF0FF3506E0237A9BB9D4F8F3
:1036D000BC30FA21204698474046FEF7A7FBE28A15
:1036E0000021206910F03FFF0023A382FFF78EFF27
:1036F0002846BDE8F0814FF0FF35EDE7A88B0200CA
:10370000F8B50446412380F82830542380F8293046
:1037100000F12B032B2280F82A20234A522503F89C
:10372000015B12F9015F002DF9D10D221A700A22F6
:103730005A7000269E70FFF75FFF271D4FF4FA7145
:103740003846FEF76DFBE28A3146206910F00BFF28
:10375000A682D4F8B03004F128009847134E3146C1
:10376000204600F043FC002805DA237A002BF6D02F
:103770004FF0FF3506E0237A93B9D4F8BC30FA2134
:10378000204698473846FEF751FBE28A002120691F
:1037900010F0E9FE0023A382FFF738FF2846F8BDAA
:1037A0004FF0FF35EEE700BFB08B0200B88B020090
:1037B000002380F8033180F80531A0F88C3080F8C0
:1037C000023180F801318367C36380F800310365FB
:1037D000036080F8043180F88E30704730B583B0D4
:1037E00004461546019101AA2946019811F020FFCF
:1037F00044F8040B0028F6D103B030BD03780BB9B0
:103800000020704710B50C4610F074FE51EC100B00
:1038100010F0A6FC07EE900A9FED0F7AF4EEC77A3F
:10382000F1EE10FA15D4F0EE476A87EEA67ABDEEF7
:10383000C77AB8EEC77A67EE266A77EEE67A9FED2A
:10384000076AC7EE866A36EE877A84ED007A012031
:1038500010BD0020FCE700BF0000C842000070421D
:1038600038B5B0F8BC3643B940F2EE23A0F8BC3608
:10387000254B1B780522002110E05B1AA0F8BC360E
:10388000B0F8BE36002B3AD0591AA0F8BE1636E072
:103890000133DBB2013A12F0FF0210D0052B28BF32
:1038A000002300EB8304D4F894462488002CEFD046
:1038B0002146D0F8A856A542EAD0134A1370124BFD
:1038C0001B78042B1CD0B0F8BE369BB94FF4FA63BA
:1038D000A0F8BE36D0F8942600231380D0F898269E
:1038E0001380D0F89C261380D0F8A0261380D0F83F
:1038F000A4261380D0F8B43600F5D560984738BDBB
:10390000014B00221A70DEE7D437002070B5044660
:103910002026324600210C3010F025FE002565657A
:10392000A56584F8385084F83950E56384F8505020
:1039300084F83A50A4F85E50C4F8885084F81051C6
:103940003246294604F1600010F00DFEC4F88050A4
:10395000A4F8845084F82C5070BD70B5054610F062
:103960009AFF0146202828BF202101280DD94E08A2
:103970006A1E2944134612F9014F11F9010D107006
:103980000C7002335B1B9E42F4D870BDF0B587B05B
:1039900004460D4600F10C06304610F07CFF02464E
:1039A000324F3146384610F0D1FD3846FFF7D5FF8B
:1039B0002846FDF73AFE3A462D49FDF756FE2C25DE
:1039C00000F8015B626D2B49FDF7CAFE00F8015B50
:1039D000A26D2949FDF7C4FE00F8015B102304F134
:1039E00060022649FDF71AFF00F8015B062304F187
:1039F00080022349FDF754FF00F8015BE26B214987
:103A0000FDF7AEFE00F8015B94F850201E49FDF76B
:103A1000A7FE00F8015BB4F85E201C49FDF7A0FE8C
:103A200000F8015B94F838201949FDF799FE00F879
:103A3000015B94F839201749FDF792FE064606F817
:103A4000015B01A904F1F00008F006FC02461249EE
:103A50003046FDF70AFEFDF7ECFD0446202200216A
:103A6000384610F080FD204607B0F0BDD837002062
:103A7000C88B0200948D0200D88B0200DC8B020000
:103A8000E88B0200F08B0200F48B0200F88B02003E
:103A9000008C0200088C0200108C020090F8392083
:103AA00052B190F83A30013303EB830303EB830305
:103AB00002EB8303A0F89C30704708B50C3010F07F
:103AC000EAFE092894BF0020012008BD70B4B0F8B8
:103AD0008420531C9CB21BB220461E1B8D198E578E
:103AE0002A2E10D0002B2BDB12B2121B0A44013BF2
:103AF0001BB21546013A95F900602A2E03D0002B1F
:103B0000F5DA00201AE0002B1CDB00222A701A1BB9
:103B10008D188C562B2C0DD0013B1BB21A1A8D1808
:103B20008C562B2C04D0B3F1FF3FF5D1002005E0DB
:103B3000002B09DB00232B700132881870BC704702
:103B40000020FBE70020F9E70020F7E710B5044666
:103B5000D0F888325B69984701232370D4F8883203
:103B60005B6A2046984710BD2DE9F041B2B004468B
:103B7000084694F884620A226946FEF74FFC38B181
:103B800005464049FEF790FA10B1027C022A02D0A5
:103B900032B0BDE8F081C6EBC60204EB02128368C6
:103BA0001B7882F8343138492846FEF77DFA002820
:103BB000EED0027C022AEBD1D0F80880C6EBC60713
:103BC0003F01404610F067FE024607F235104146BD
:103BD000204410F0BBFC2D492846FEF765FA00286A
:103BE000D6D0027C002AD3D18568002DD0D02B7C82
:103BF000022BCDD1D5F80880404610F04CFE02468D
:103C000007F237134146E01810F0A0FC2D6835B3D9
:103C10002B7C022B17D0C6EBC60604EB0613012241
:103C200083F89D2194F884321344DBB284F8843203
:103C300094F83021013284F83021022B84BF002314
:103C400084F88432A4E7D5F80880404610F023FEBB
:103C5000024607F247134146E01810F077FC2B6844
:103C6000002BD8D02A7C022AD5D19D68284610F096
:103C700012FE024607F287172946E01910F066FC8B
:103C8000C9E700BF188C0200208C0200288C0200BB
:103C900008B5817051B90378012B00D008BD02230B
:103CA0000370D0F888325B6A9847F7E70378023BE5
:103CB000DBB2022BF2D801230370D0F888325B6AA2
:103CC0009847EBE72DE9F0410546044600F5A87654
:103CD0004FF00008062702E07034B4420CD094F88C
:103CE0009E31002BF8D084F89E812F70D5F8883251
:103CF0005B6A28469847EFE7BDE8F0812DE9F04F71
:103D000085B000AF064600F2371400F2872BDFF8CB
:103D100004A128E0FDF789FC22463949FDF7A5FCFE
:103D200000F8019BD4F869203649FDF719FDFDF72D
:103D300098FCFDF77EFC386800F0E2FBD7F804D071
:103D4000002185F8651085F86610C5F869102960AE
:103D50006960A960E960402204F1100010F003FCE2
:103D600070345C4547D0254694F86630002BF7D078
:103D7000A4F10308D6F88832DB68414630469847FC
:103D8000C7F804D0ADF5007DC7F800D0BAF8003010
:103D9000BB810021B9734FF40072684610F0E3FB59
:103DA0006846FDF742FC14F8033C3B7307F10C0234
:103DB0001549FDF75AFC4FF02C0900F8019B34F827
:103DC000023CBB8107F10C021049FDF74EFC00F8E4
:103DD000019B0F49FDF733FC14F8033C572B99D096
:103DE000522BA6D1D6F888329B6A002BA1D001466F
:103DF000304698479DE71437BD46BDE8F08F00BFB9
:103E0000308C0200008C0200188C0200208C020012
:103E1000288C0200588C020010B50446D0F8C83235
:103E20000133C0F8C832B3F57A7F0ED0D4F8C82277
:103E3000164BA3FB02139B094FF47A7101FB13236A
:103E400073B194F878307BB910BDB0F886200021AA
:103E5000D0F8800010F087FB0023A4F88430E5E759
:103E60002046FFF72FFFECE704F17400FDF7DEFFBB
:103E7000D4F888325B692046984701232370D4F830
:103E800088325B6A20469847DEE700BFD34D621058
:103E90002DE9F8430C460A8844F257539A4237D129
:103EA00005461F49E01C10F0C6FC88BB05F1420125
:103EB00004F1130010F0BFFC50BB04F1530840465E
:103EC00010F0E9FC0746EE1C05F142093A4631467E
:103ED000404610F0E8FC88B115364E45F6D1002377
:103EE000E366414605F1520010F0AFFC03232B704E
:103EF000D5F888325B6A284698470EE00123E366CE
:103F000004232B70D5F888325B6A2846984704E072
:103F10000223E366012384F86A30BDE8F88300BF1A
:103F2000388C020091F90130452B00D0704770B5F4
:103F300005460C460B78572B00D070BDCE1C284987
:103F4000304610F078FC28B32649304610F073FC58
:103F50000028F2D105F1670104F1130010F06BFCA9
:103F6000002837D10123E366D5F888321B6A28463A
:103F70009847D5F88832DB6A2846984705F17400DF
:103F8000FDF754FF04232B70D5F888325B6A28466E
:103F90009847D2E7144904F1130010F04CFC0028B4
:103FA000CBD12B78042B0BD0D5F88832DE691B6976
:103FB0002846984701462846B0470123E366BCE7F8
:103FC0000023E36606232B70D5F888325B6A284607
:103FD0009847B2E70023E366012384F86A30ACE730
:103FE000408C0200508C02004C8C020070B582B0F4
:103FF00005460E46848AADF80640084610F04BFC94
:10400000BDF806309BB2B3B180B2BDF806309BB2AA
:10401000834213D3ACB10024286931462044FCF715
:1040200059F928B90134AB8AA342F5DC4FF0FF34CB
:10403000204602B070BD4FF0FF34F9E74FF0FF3477
:10404000F6E74FF0FF34F3E710B50446C36898472E
:10405000A36803FB00F303EB4313044A82FB031240
:104060001A44DB17C3EBE223636010BD81000880B4
:1040700008B5024902480BF0D1FB08BD889A02003E
:10408000988E0120014B00221A707047F8370020EB
:104090002DE9F84380460F46134E0125A94686F8C0
:1040A00000902B463A46414610480BF0B1FC33785D
:1040B000BBB1632428460EF025FF33788BB1013C59
:1040C000F8D10B4B1C680022294620460CF030F832
:1040D00064200EF017FF0022294620460CF028F835
:1040E000DDE7BDE8F88300BFF8370020988E012097
:1040F000F899020008B50EF005FF08BD8172002096
:1041000070470020704700B583B000238DF807305A
:104110000DF10702018900680BF0E4FF9DF807002C
:1041200003B05DF804FB08B50A46018900680BF08E
:10413000FFFF08BD08B5436818680AF039FB08BDE1
:1041400008B54368596818680AF08EFB08BDFFFF80
:1041500030B583B040680068064C00252570072400
:1041600000940AF0E6FD034B1A78002AFCD00020E8
:1041700003B030BDF937002010B543681868064B0E
:1041800000241C7007230AF0BFFD034B1A78002A95
:10419000FCD0002010BD00BFF937002010B54368E7
:1041A0001868064B00241C7007230AF0B8FD034B67
:1041B0001A78002AFCD0002010BD00BFF93700207B
:1041C0000379012B00D07047014B01221A70FAE7E6
:1041D000F93700200020704700207047002070470A
:1041E00008B54368012118680AF0F0FF08BD08B55A
:1041F0004368022118680AF0E9FF08BD08B5436862
:1042000018680AF04FFF08BD08B543685968186878
:104210000BF038F808BD08B5436818680AF0A0FF2D
:1042200008BDFFFF08B5024902480BF02BF808BD96
:104230008C9B0200688E012008B50279042A02D006
:10424000022A07D008BD034604489B6803718368AF
:104250009847F7E7024B01221A70F3E7F06201205A
:10426000FA37002010B5054C054920460CF060F9DE
:104270000122022120460CF04DFB10BD208F0120B1
:10428000749A020082B003688DF80030C3F30722ED
:104290008DF80120C3F307428DF80220C3F30763B2
:1042A0008DF80330009802B07047FFFF0378032BAE
:1042B00012D8DFE803F00A0E0602084B01221A703A
:1042C0007047074B01221A707047064B01221A7083
:1042D0007047054B01221A70704700BFFD37002060
:1042E000FB370020FC370020FE37002072B110B4ED
:1042F000431E01391044441E13F9010F11F9012F17
:10430000904205D1A342F7D1012002E0012070477D
:1043100000205DF8044B70472DE9F04F85B000AFE9
:104320000546796092460023FB73960912F03F0F11
:1043300018BF0136324601463B480CF095FA044658
:10434000002864D1394B93F800B0BBF1000F06D0C0
:10435000374A1378002BFCD0354B00221A7076B305
:10436000DFF8C490DFF8D48009E0324B1B78EBB95A
:10437000002388F800300134E3B29E421FD907F1D0
:104380000F034022294648460CF0BAF9002841D1D3
:10439000FB7B012B41D0022BEDD1264A1378002B59
:1043A000E3D198F80030002BF8D0DEE7214B002253
:1043B0001A704FF0FF301437BD46BDE8F08F5346FA
:1043C0002A46796818480CF00BFA48BBBBF1000F7D
:1043D00006D0194A1378002BFCD0174B00221A7014
:1043E0006C460AF1070303F4FC73ADEB030D524670
:1043F0002946684610F0AAF8524679686846FFF7E1
:1044000075FF80F00100404240B2A546D3E74FF06F
:10441000FF30D0E74FF0FF30CDE74FF0FF30CAE775
:104420004FF0FF30C7E700BF208F0120749A0200D1
:10443000FC370020FD370020FE370020FB3700202E
:1044400008B5084B0821997300221A735A7383F830
:10445000221083F8202083F82120034903480CF020
:10446000E7FC08BDFC6201203C9A0200008E01209E
:1044700008B5054B00221A7000F108024168034894
:104480000CF032FC08BD00BFFF370020008E012079
:104490008288B2F5006F07D00346B2F5005F03D003
:1044A000B2F5806F04D070470A4B01221A70704732
:1044B00010B5094A02F12804014651F8240F496851
:1044C00003C4997F82F822109B69D361136B104655
:1044D000984710BDFF370020FC62012008B5054950
:1044E00005480AF0CFFE01200DF054FF034B186081
:1044F00008BD00BFC09B0200D08D01203C6301209D
:1045000070B50446124D00232B704FF0FF31114B54
:1045100018680EF07DF8204610F0BDF902462146DD
:104520000D480AF01DFE2B784BB941F28734012665
:1045300030460EF0E7FC2B780BB9013CF8D1002394
:104540001A461946034800680DF050FE70BD00BFC2
:104550007C0A00203C630120D08D012008B50A4967
:104560000A6801320A600279042A02D0022A07D0BE
:1045700008BD034605489B68037183689847F7E7C1
:10458000034B01221A70F3E700380020306301204A
:104590007C0A002008B502480CF0CEFE08BD00BF22
:1045A000AC8D012010B5064C064920460CF0F8FEF3
:1045B000054920460CF0D6FFFFF7ECFF10BD00BF09
:1045C000AC8D0120049A0200289A0200837803B17E
:1045D000704710B5044C22460C2104480CF0B1FE83
:1045E00063682046984710BD04380020AC8D012038
:1045F00008B5034B596818680BF01CFD08BD00BFD7
:10460000F49B020038B5154D154C4FF486722946BF
:10461000204609F017FD134B18601349134809F0A1
:1046200026FD134B186002222946204609F00AFD98
:10463000104B1860012109F015FD0F490F4809F0D2
:1046400037FD0F4A106003681B699847FFF7D0FFDA
:104650000C490D480BF0B2FB38BD00BFF8990200C1
:10466000380A002010380020E09A0200480A002092
:104670000C380020143800204C9B02005C0A0020FB
:1046800018380020B89A0200088F012008B5024BA4
:1046900018680BF0D5FC08BDF49B020008B5014674
:1046A00001480BF049FB08BD088F012010B5034CF1
:1046B000214603480BF01CFC204610BD406301203E
:1046C000088F012000B583B00379042B04D0022B9E
:1046D0000DD003B05DF804FB83688DF8073001222C
:1046E0000DF10701044B186809F0FEFCF1E7024BDD
:1046F000186809F0FDFCECE71838002003681888FA
:104700007047FFFF10B5054C2046FFF79DFC4FF4A6
:104710007A7104F11000FDF783FB10BD5C2B0020C3
:1047200008B5094B03F5B251084A0A6008495160BF
:1047300041F24C620749995041F2486240F23A21F5
:104740009950FFF72FFF08BD1C15002004380020EA
:1047500005470100FD460100014B00221A70704719
:104760007D0A002070477047704770477047704758
:1047700070B584B0504BD3F84C3AD86AFCF7FAFDC8
:1047800000285DD005464D49FCF737FE0446002859
:1047900056D04B49FCF731FE20B14369012B51D073
:1047A000002B5ED047492046FCF727FE06464649C7
:1047B0002046FCF722FE0446FEB1367D002342F27D
:1047C00030120221304605F061FBB0B93A4B83F854
:1047D000986693F8652483F86624022E4FD803F573
:1047E0009260A0F59266C368002198471E2386F860
:1047F000CD35314B012283F8A426F4B16369DCB2D4
:10480000FF2C57D007EE904AF8EEE77A9FED2F7A0B
:1048100067EE877AFCEEE77ACDED017A9DF8040029
:1048200000234FF40552022105F030FB28B9224B3A
:1048300083F8CD45012283F8A5262846FCF724FB02
:1048400004B070BD002342F202020121084605F0C7
:104850001DFB022342F202020121084605F016FB6D
:10486000A0E742F202020121184605F00FFB0223E5
:1048700042F202020121002005F008FB92E71448F1
:10488000C36801219847134A138812688DF80830CD
:10489000C3F307238DF80930BDF8081045F2AA5379
:1048A000994207BFC2F30742034B034B462283F8EA
:1048B000CD259EE72046B3E71C150020008C0200A2
:1048C0005C8C0200648C0200708C0200FA7E9A3FBD
:1048D000AC19002040010008F8B5254BD3F84C3A3C
:1048E000D86AFCF747FD07462249FCF786FD0546D6
:1048F0002149FCF782FD044620492846FCF77DFD4E
:104900000646C4B16369012B05D043B9184B022296
:1049100083F86C2303E0164B012283F86C23144CBC
:10492000012502E02846FFF7E5FB94F86C0305F04B
:104930000BFA0028F6D0BEB17369012B05D043B93C
:104940000B4B042283F86C2303E0094B032283F80A
:104950006C23074C012594F86C0305F0F5F918B9A0
:104960002846FFF7C7FBF6E73846FCF78DFAF8BD97
:104970001C150020008C02007C8C0200C08E0200FE
:104980002DE9F04104460E4615461F462822002117
:104990000FF0E9FD04F128080023A362E3622386F7
:1049A00030460FF078FF0246314620460FF0CEFD2C
:1049B00028460FF070FF0246294640460FF0C6FD1C
:1049C0006763BDE8F081FFFF2DE9F84F07460C460D
:1049D0000FF044FF8146444910F0D8FD68B3054606
:1049E000DFF804A14FF0000809E0FCF70BFE834656
:1049F000024629462046FCF70FFD5C4635465146E7
:104A0000404610F0C3FD064658B129462046FCF743
:104A1000F4FC0028E9D029462046FCF7EEFC0446C9
:104A2000ECE707F12806314930460FF061FF48B145
:104A30007A6B29462046FCF7BFFD48460FF070FD13
:104A4000BDE8F88F2A4930460FF052FF50B17B6B1A
:104A500018680FF023F841EC100B29462046FCF7AC
:104A600077FDEAE7234930460FF042FF50B17B6BF8
:104A700018680FF025F841EC100B29462046FCF78A
:104A800067FDDAE71C4930460FF032FF50B17B6B0F
:104A900018780EF0F3FF41EC100B29462046FCF786
:104AA00057FDCAE7154930460FF022FF50B17B6B26
:104AB00018880EF0E3FF41EC100B29462046FCF766
:104AC00047FDBAE70E4930460FF012FF0028B4D078
:104AD0007B6B18680EF0D2FF41EC100B2946204684
:104AE000FCF736FDA9E700BF848C0200888C020029
:104AF000908C0200948C02009C8C0200A48C02001A
:104B0000AC8C0200F0B583B012490020FDF782F8AA
:104B1000114A12490220FDF749F8114E114C04F5D3
:104B2000E465114F009733462246D4F81C172846F7
:104B300008F060FB0D490197009623460A46284677
:104B400008F0B6FB38221E21094808F017F803B018
:104B5000F0BD00BF01450100B48C0200C88C02000A
:104B6000D88C02004C180020800A0020DC8C020047
:104B700064630120B34B93F8A53C03B170472DE962
:104B8000F04F8DB0B04C04F5E4652146284608F09E
:104B900060FCAE49284608F05CFCD4F81C0709F01C
:104BA00082F9032802D00DB0BDE8F08FA84B1B7826
:104BB000052B10D8DFE813F0330006003901890314
:104BC000BA064707A049A34A01F5E46008F0FEFBD6
:104BD0009F4B00221A70A04B93F90030B3F1FF3FB6
:104BE000E1D1984C0421D4F84C0A09F059F99A4BB8
:104BF00000221A70964B01221A7004F54C7104F5CC
:104C0000256008F0CBFB94F86033002BCBD0002557
:104C10004FF48A77264604F5256800F026BF894EB2
:104C2000D6F84C3AD3F82C804FF40062002140466D
:104C30000FF099FCFCF7E6FC07460190FCF7E2FC5C
:104C40000446FCF7DFFC0546224684493846FCF75B
:104C5000E3FB2A4682492046FCF7DEFB06F54C7250
:104C600080492846FCF7A8FCFCF7CCFC0646024627
:104C70007D492846FCF7D0FB0024A1467B4FADF8C8
:104C800010902246394604A80FF07AFD04A9304658
:104C9000FCF7E4FB0134032CF1D1754A7549284631
:104CA000FCF78AFC744A75492846FCF785FCFCF73A
:104CB000A9FC0646024672492846FCF7ADFB714C3A
:104CC00004A9204607F0C8FA0246DFF8DCB15946CD
:104CD0003046FCF771FC04A9201D07F0BDFA02461E
:104CE000DFF8C8A151463046FCF766FCDFF8C091FA
:104CF00004F1100249463046FCF75EFC04F11A024A
:104D000061493046FCF758FC604FA4F11002394667
:104D10003046FCF751FCFCF775FC029002465C49FA
:104D20003046FCF779FB04F5D2625A490298FCF749
:104D300043FCFCF767FC0646024657492846FCF749
:104D40006BFB04A904F5AE7007F086FA02465946DB
:104D50003046FCF731FC04A904F5B07007F07CFA8A
:104D6000024651463046FCF727FC04F5B672494628
:104D70003046FCF721FC04F5BB7243493046FCF792
:104D80001BFC04F5A67239463046FCF715FCFCF70F
:104D900039FC0646024641492846FCF73DFB04A97A
:104DA00004F51F7007F058FA024659463046FCF7E2
:104DB00003FC04A904F5207007F04EFA02465146A0
:104DC0003046FCF7F9FB04F5237249463046FCF700
:104DD000F3FB04F296222C493046FCF7EDFB04F578
:104DE0001B7239463046FCF7E7FB01234FF40062A3
:104DF0004146019D2846FCF7C3FA2846FCF744F8D3
:104E00004246A4F1C40104F25C6008F0FCFA124BC3
:104E100018700DF04DFF224B18600DF049FF214B2B
:104E200018600B4B02221A70D5E60DF041FF1C4BA7
:104E30001B68C01A48F6B80398423BD8044B0322BB
:104E40001A70C8E61C1500204C180020DC8C0200EB
:104E50007D0A0020E08C020020380020008C020037
:104E6000E48C0200F08C0200F48C0200088B02003B
:104E7000D88C0200FC8C0200088D02000C8D020010
:104E8000148D020010190020348D02003C8D0200A8
:104E9000448D0200488D0200508D0200548D0200A6
:104EA0001C38002024380020188D0200208D0200BC
:104EB000288D0200CA4CD4F84C3ADD6A4FF40067E2
:104EC0003A46002128460FF04EFB2846FCF7ADFB82
:104ED000DFF8A4A35146FCF7B2FB7B2500F8015B89
:104EE000DFF898934946FCF7AAFB00F8015B04F54C
:104EF0004C784246BB49FCF7B8FB2C2600F8016B06
:104F0000B949FCF79CFB00F8015B41F24463E258AD
:104F1000B649FCF725FC00F8016BB549FCF78FFB9F
:104F200000F8015BD4F86C2AB249FCF719FCFCF7D5
:104F300098FB00F8016BB049FCF781FB00F8015BBE
:104F400004F5AC53082293ED070AAC49FCF7B0FB1B
:104F500000F8016B04F5AD53082293ED000AA8494F
:104F6000FCF7A6FBFCF77DFBFCF77BFB00F8016B75
:104F7000A449FCF764FB00F8015BD4F80C26A249B5
:104F8000FCF7EEFB00F8016B94F899269F49FCF7BB
:104F9000E7FBFCF766FB00F8016B9D49FCF74FFB54
:104FA00000F8015BB4F802259A49FCF7D9FBFCF73D
:104FB00058FBFCF756FBFCF754FBFCF73AFBD4F824
:104FC0004C3ADA6A414604F5256008F01CFA924B27
:104FD0001870D4F84C3ADFF85482DB6A8F4A4146A5
:104FE0000220FCF7E3FDD4F84C3ADB6A029300267A
:104FF000049605960696079608963A463146184650
:105000000FF0B1FAFCF7FEFA0190FCF7FBFA074645
:10501000FCF7F8FA0546FCF7EBFA834603903A46AC
:1050200051460198FCF7F8F92A4649463846FCF7FC
:10503000F3F95A467A492846FCF7EEF9794A41468F
:105040000220FCF7B3FD04F23A74B9E0A4F1720B4C
:105050005B46754A75490220FCF7A8FDFCF7D2FAB9
:105060008046FCF7CFFA0546714A5E49FCF7A4FA80
:10507000704A71492846FCF79FFA2A466F49404614
:10508000FCF7CAF9FCF7B4FA074602466C494046F9
:10509000FCF7C2F9A4F12005DFF8E49135F8020F1E
:1050A0000EF0ECFC41EC100B49463846FCF750FA88
:1050B000A542F3D1A14654F8260C0EF0EFFC41ECCA
:1050C000100B60494046FCF743FA34F8200C0EF010
:1050D000D5FC41EC100B5C494046FCF739FA5B4AC1
:1050E0005B494046FCF768FA04A904F1720007F036
:1050F000B3F8024657494046FCF75EFA50460EF0B8
:10510000BDFC41EC100B54494046FCF721FA14F861
:10511000460C0EF0B3FC41EC100B50494046FCF736
:1051200017FA5A462F494046FCF746FA54F8420C03
:105130000EF0B4FC41EC100B49494046FCF708FA6C
:1051400014F82E0C0EF09AFC41EC100B4549404629
:10515000FCF7FEF914F8450C0EF090FC41EC100B36
:1051600041494046FCF7F4F9FCF742FA074602468B
:105170003E494046FCF750F9651CDFF804B104F1E4
:10518000070A15F8010F0EF079FC41EC100B594697
:105190003846FCF7DDF95545F3D159F82A0C0EF0E5
:1051A0006DFC41EC100B32494046FCF7D1F9414609
:1051B0000398FCF72CF9013604F58A74032E61D0AC
:1051C0005FFA86FAA4F17E00FEF777FC00287FF4F0
:1051D0003DAF3346274A15490320FCF7E7FCEAE7D1
:1051E0001C150020F08C0200148D0200588D020066
:1051F000448D0200648D02006C8D0200708D0200EF
:10520000748D0200548D0200788D0200848D02009E
:10521000508D0200908D020020380020988D0200F1
:10522000A48D0200B08D0200BC8D0200C88C02006B
:105230004C180020D88C0200188C0200C48D02008B
:10524000D08D0200D88B0200DC8D0200DC8C0200C5
:10525000E48D0200F08D0200FC8D0200088E020039
:10526000F08B0200F48B0200088C0200148E020006
:10527000948D02001C8E0200008C0200E48C02005F
:105280002C96020001234FF400620299019C2046F3
:10529000FCF776F82046FBF7F7FDBC4CD4F84C3A07
:1052A000DB6ABB4ABB490220FCF780FCD4F84C3ACD
:1052B000DA6AB94904F5256008F0A5F8B74B18700B
:1052C0000DF0F6FCB64B1860B8E50DF0F1FCB54BEF
:1052D0001B68C01A42F21073984203D8B24B0422E2
:1052E0001A7078E4A94DD5F84C3AD3F82C804FF4D5
:1052F0000062002140460FF036F9FCF783F90446BE
:10530000AA4E05F54C73AA4AAA493046FFF738FB66
:1053100021463046FFF758FB95F8242AA64B1B7808
:1053200093420BD1A54FA7F6F81607F114090025F3
:10533000DFF884A20AF11A0301930FE09E4B1A7062
:105340009F4AA0493046FFF71BFB21463046FFF736
:105350003BFBE7E7052D09D04F4517D057F8043B35
:105360001B88002BF6D10135EDB2F3E70025AAF832
:105370001A50DFF838B2019B934A94495846FFF718
:10538000FFFA21465846FFF71FFBE5E77F4BD3F8AE
:10539000E024894B1B69934240F0B7807B4BD3F8E4
:1053A000D035854A92689A4240F0BD80774B93F899
:1053B0006423814B1B7D934240F0CB80734B93F869
:1053C00066237D4B5B7D934240F0D1806F4B93F819
:1053D0006523794B9B7D934240F00A816B4B93F898
:1053E0006723754BDB7D934240F01081674BD3F808
:1053F000F825714B5B68934240F01681634B93F83C
:1054000098266D4B1B7E934240F01C81704B1A789E
:10541000694B93F83130934240F022815B4A41F668
:10542000AD63D35C644A92F830209A4240F0268102
:10543000564B93F89426604B93F83830934240F0E3
:105440002E81524B93F895265B4B93F8393093425B
:1054500040F033814D4B93F89626574B93F83A30F2
:10546000934240F03881494B93F89726524B93F87A
:105470003B30934240F03D81444BD3F89C264E4B49
:10548000DB6B934240F04381404B93F8A0264A4B9C
:1054900093F84030934240F048813C4B93F8A1266A
:1054A000454B93F84130934240F04D81374BB3F870
:1054B000A226414BB3F84230934240F05281334B25
:1054C00093F8CD253C4B5B7E934240F058812F4BA7
:1054D000D3F8F824384BDB6C934240F05E812B4BC1
:1054E000D3F8FC24344B9B6C934240F06481274BEF
:1054F00093F80025304B93F85030934240F0698187
:10550000344F0025DFF8A4908FE12B4B43F8102F88
:10551000264D2B4A30492846FFF732FA21462846C5
:10552000FFF752FA3AE724498B602C4A82FB0302C8
:10553000DB17C3EBA2020B4643F80C2F1B4D204A8E
:1055400027492846FFF71CFA21462846FFF73CFA70
:105550002CE7194B03F8142F144D224A22492846F0
:10556000FFF70EFA21462846FFF72EFA26E7124BE0
:1055700003F8152F0D4D1B4A1C492846FFF700FA6A
:1055800021462846FFF720FA20E700BF1C1500201F
:10559000308E0200C88C0200DC8C02002038002013
:1055A0001C380020243800207D0A0020B863012028
:1055B000888C02003C8E0200F8480020141F002056
:1055C000908C0200508E0200A48C0200688E0200B3
:1055D000FC3000204C490020808E02006766666621
:1055E000988E02009C8C0200B08E0200C88E0200D1
:1055F000B04B03F8162FB04DB04AB1492846FFF71B
:10560000BFF921462846FFF7DFF9E7E6A94B03F883
:10561000172FA94DA94AAB492846FFF7B1F92146F2
:105620002846FFF7D1F9E1E6A24B43F8042FA24D3B
:10563000A54AA6492846FFF7A3F921462846FFF7C1
:10564000C3F9DBE69B4B03F8182F9B4D9B4AA049FF
:105650002846FFF795F921462846FFF7B5F9D5E624
:10566000944B03F8312F944D944A9A492846FFF7FA
:1056700087F921462846FFF7A7F9CFE61A1E18BF7B
:1056800001228C4B03F8302F8B4D8C4A92492846CF
:10569000FFF776F921462846FFF796F9C8E6854BCD
:1056A00003F8382F844D854A8C492846FFF768F95E
:1056B00021462846FFF788F9C3E67E4B03F8392FC9
:1056C0007D4D7E4A86492846FFF75AF921462846ED
:1056D000FFF77AF9BEE6774B03F83A2F764D774A13
:1056E00080492846FFF74CF921462846FFF76CF918
:1056F000B9E6704B03F83B2F6F4D704A7A49284644
:10570000FFF73EF921462846FFF75EF9B4E6694BFC
:1057100043F83C2F684D754A75492846FFF730F924
:1057200021462846FFF750F9AEE6624B03F8402FBA
:10573000614D624A6F492846FFF722F92146284603
:10574000FFF742F9A9E65B4B03F8412F5A4D5B4A3C
:1057500069492846FFF714F921462846FFF734F92E
:10576000A4E6544B23F8422F534D604A6349284620
:10577000FFF706F921462846FFF726F99FE64D4B2D
:1057800003F8192F4C4D4D4A5D492846FFF7F8F8AC
:1057900021462846FFF718F999E6464B43F84C2F67
:1057A000454D524A57492846FFF7EAF82146284610
:1057B000FFF70AF993E63F4B43F8482F3E4D4B4A1B
:1057C00051492846FFF7DCF821462846FFF7FCF848
:1057D0008DE6384B03F8502F374D384A4B49284651
:1057E000FFF7CEF821462846FFF7EEF888E606F5E3
:1057F000D96B58460FF04FF8092811D9032307F841
:10580000013C2A46424904A80EF0BAFF5B46414AD1
:1058100004A94846FFF7B4F821464846FFF7D4F8F4
:10582000013506F58A76032D23D017F8012B96F85B
:10583000E8369A42F4D0032BD9D0002BF0D106F5EC
:10584000D96B58460FF027F80A28E9D8002307F843
:10585000013C2A462E4904A80EF092FF5B462D4AD1
:1058600004A94846FFF78CF821464846FFF7ACF8F4
:10587000D6E701234FF4006241462046FBF780FD46
:105880002046FBF701FB244BD3F84C3ADC6A234952
:1058900020460FF02DF820B10DF00AFA204B1860C9
:1058A0001CE52049224601F5E46007F0ACFD1E4BE3
:1058B0001870F1E7F8480020B86301209C8C0200C2
:1058C000E48E0200F88E0200908C0200148F020019
:1058D000288F0200448F0200648F0200848F020030
:1058E000A08F0200BC8F0200DC8F0200AC8C020093
:1058F000FC8F0200189002003490020054900200C5
:105900007490020090900200B0900200D0900200CB
:10591000F0900200888C02001C1500200C910200FF
:10592000243800204C18002020380020564B93F8D3
:10593000242A564B1B78934211D1534B93F8CC2514
:10594000524B93F84430934216D1514C514D04F1CF
:105950000A06DFF87491DFF874814F4F17E04B4B64
:105960001A704D4C4D4A4E492046FFF709F8214622
:105970004C4807F025F9E0E7444B03F8442F4A4A26
:105980004A494548FEF7FCFFDFE7B44215D02188BD
:105990002346023455F8042B12889142F5D024F89E
:1059A000022C002AF1D04A4641463846FEF7E8FF6D
:1059B00039463C4807F004F9E7E7334BD3F84C3A53
:1059C000D3F82C804FF40062002140460EF0CBFD4E
:1059D000FBF718FE0546304C324E354F10E03B4683
:1059E000344A35492046FEF7CBFF29462046FEF7CC
:1059F000EBFF29462046FEF7E7FF0120FEF77AFB82
:105A00002146304607F0E4F80028E8D101234FF49E
:105A1000006241462846FBF7B3FC2846FBF734FA00
:105A2000264940460EF064FF20B1254B02221A7031
:105A3000FFF7D1B81E49424601F5E46007F0E3FCE8
:105A4000204B1870F1E7104B93F8A53C002B7FF426
:105A5000C2A81B4B02221A70FFF7BDB8013596F899
:105A60006023EBB29A427FF69EA8ECB207FB046477
:105A700004F5D96420460EF00EFF0228EED9214627
:105A8000404607F08BFCE9E71C150020F848002091
:105A900012490020141F0020B8630120908C0200DE
:105AA000508E0200646301209C8C02001091020061
:105AB0004C180020888C02003C8E02000C910200E1
:105AC0007D0A002020380020A48C0200688E02008D
:105AD0002DE9F041304D4FF4007842460021284630
