:200000003840002069530000C15100006553000065530000655300006553000065530000E2
:200020000000000000000000000000006553000065530000000000006553000065530000E0
:200040004D490000254A00004D4B0000254A00004D4B000065410000F14000002D4F0000A9
:200060002D4F00002D4F0000B535000011360000AD360000693700000000000000000000D4
:20008000000000000000000000000000000000000000000000000000000000000000000060
:2000A000000000000000000000000000000000000000000000000000000000000000000040
:2000C000000000000000000000000000000000000000000000000000000000000000000020
:2000E000000000000000000000000000000000000000000000000000000000000000000000
:200100000000000000000000000000000000000000000000000000000000000000000000DF
:200120000000000000000000000000000000000000000000000000000000000000000000BF
:2001400000000000000000000000000000000000000000000000000000000000000000009F
:2001600000000000000000000000000000000000000000000000000000000000000000007F
:2001800000000000000000000000000000000000000000000000000000000000000000005F
:2001A00000000000000000000000000000000000000000000000000000000000000000003F
:2001C000FFFFFFFFFFFFFFFFFFFFFFFFFFFFFFFFFFFFFFFFFFFFFFFFFFFFFFFFFFFFFFFF3F
:2001E000FFFFFFFFFFFFFFFFFFFFFFFFFFFFFFFFFFFFFFFFFFFFFFFFFFFFFFFFFFFFFFFF1F
:2002000010B5054C237833B9044B13B1044800E000BF0123237010BD9010002000000000FF
:200220006459000008B5034B1BB10349034800E000BF08BD000000009410002064590000AE
:2002400008B50160002141600261436100F53D7000F026F808BDF8B505460E460A46012184
:2002600000F5327000F05CFF0746314605F5187000F0AAFD314605F5FC7000F099F900243C
:200280000AE0C4EB0413DB0018333A463146E81801F003F80134E4B2032CF2D9F8BD704774
:2002A0000028FDD0002302E00022C2540133072BFADD00238360C360704700B586460388E3
:2002C0004FF0000C02E001301FFA80FC9C4510D20CEB0300C0F34F00DEF8042032F83020F8
:2002E0008A4209D0EFD910B1431E9BB2EEE70346ECE703D04FF6FF705DF804FBDEF804304C
:2003000033F83C308B4202D04FF6FF70F4E76046F2E7C0B100B5864691F800C0BCF1070F9B
:2003200000D9FEE780F834C0002308E001EB8302506803F10C020EEB8202906001339C45DB
:20034000F4DC5DF804FBFEE72DE9F84305460F46C37843F08003C3704FF00008444695F821
:200360003430434561DD08F10C0305EB830393F80A90DE7A19893846FFF79FFF4FF6FF73ED
:2003800098421ED03B8898421DD24FF6FF7398421BD07B6803EBC0008378994517D2416891
:2003A00009EB490901EB8901E9B1002328E0244919441A1D05EB820251600133072BF6DD5D
:2003C00033E00023FAE70021EEE70021ECE70021EAE71B4919441A1D05EB820251600133D9
:2003E000072BF6DD21E00023FAE7221D05EB82021448006850600134E4B2082C17D80133AA
:200400009E4216DDCA889A42EFDD0A68D018221D05EB82025060EEE7094919441A1D05EBA7
:20042000820251600133072BF6DDBDE8F8830023F9E7EB786FF3C713EB7008F101088EE7BA
:200440004C0700205407002048B138B514460546FFF75FFF21462846FFF776FF38BD7047E3
:2004600081650023A0F84C30437580F8543080F86030032380F861307047FFFF10B582B0C8
:2004800004460191802380F8203000F12401002307E003F108026A4412F8042CCA540133BD
:2004A0009BB2032BF5D9082384F82830054B1B6804F11800984701992046FFF7D1FF02B0BD
:2004C00010BD00BF48070020002380F830308385B0F8403080F821301B0A80F8223090F8C6
:2004E000423080F82330704710B40123037083694FF4C06464F31C038361082380F8283005
:20050000002380F8293044684FF4B06C6CF31C04446043758385C38580F83030B1F864408C
:200520004486896E4163A0F8403080F8423043648364A0F84C30A0F84E30026580F8543049
:200540008365C36580F8603080F861305DF8044B7047FFFF10B5029C4FF0010C80F861C0D9
:2005600001F07F0190F818E061F3060E80F818E090F804E061F3060E80F804E0A0F840208A
:2005800080F84230BDF80C30A0F84E302279074B1A71E288DA8022681A60A2689A6043647F
:2005A00080F854C0102380F8603010BDB010002070B582B004460378002B00F05F8290F827
:2005C0006050002D00F05B82B0F84C203AB1114489B2A0F84C10B0F84E20914226D8216D79
:2005E000C88B628E904226D000210AB101B90023002B00F04982637D23B994F85420002A6B
:2006000000F0448233B10023A4F84C30237B5B09042B18D0103D052D00F22E82DFE815F0FF
:2006200027006700CC0031015001C8019F49FFF717FF032523E2606B496A084201D0012138
:20064000D3E70021D1E7237C8DF80030637C8DF80130A37C8DF80230E37C8DF80330009B96
:20066000E3650023637584F86030032507E22046FFF72AFF616CCA88E285042A24D8C2F132
:2006800004039B0003F00C0343F0230384F8203004F124050868002303E0C15CE95401336F
:2006A0009BB29A42F9D8824B1B6804F1180098470125A4F84C50002384F85430112384F8D3
:2006C000603000236375DAE1212384F82030009284F82420C2F3072384F82530C2F30743C3
:2006E00084F82630C2F3076284F82720DBE7257B6D09032D20D1637B8DF80030A37B8DF818
:200700000130BDF80020E17BB4F840309A4219D194F84230994215D1E28D042A17D9636C7A
:200720001968A38D07339A4235DC5FFA82FC04F121056246002313E05E492046FFF79EFE92
:200740000325BEE75C492046FFF798FEB9E7002384F860300225B4E7C85CE85401339BB2C3
:200760009A42F9D8E38DA38594F93030CCF1070243EA42035BB243F0010384F820300125D9
:20078000A4F84C504A4B1B6804F118009847122384F8603095E704F12100002303E0CA5C1E
:2007A000C25401339BB2062BF9D90723A38594F8303084F82030E2E7237B5D09012D1DD1AC
:2007C00094F8302003F0100393421DD182F0100284F83020E38DA08D83421BD9626C116887
:2007E0000144C21D93423ADCDAB2C0B2121A5FFA82FE04F1210C7246002315E02D49204619
:20080000FFF73CFE03255CE72C492046FFF736FE032556E7002384F86030022551E7C85C21
:200820000CF8030001339BB29A42F8D8E38DA38594F93030CEF1070243EA42035BB243F085
:20084000010384F820300123A4F84C30184B1B6804F118009847122384F8603031E704F16C
:200860002100002303E0CA5CC25401339BB2062BF9D9A38D0733A38594F8303084F8203047
:20088000E1E72046FFF720FE402384F82030084B1B6804F1180098470125A4F84C500023A4
:2008A00084F85430142384F860300AE7000004054807002023000A06430004060000030504
:2008C000237B590902293AD1627B8DF80020A27B8DF80120BDF80000E57BB4F840209042AA
:2008E00033D194F8422095422FD103F00305032D31D0012D56D1237C8DF80030637C8DF8F6
:200900000130A37C8DF80230E37C8DF80330BDF80030E385626CD28893423DD80023A3850F
:20092000602384F820300123A4F84C30584B1B6804F118009847152384F86030C1E6554991
:200940002046FFF79BFD0325BBE653492046FFF795FD0325B5E6C3F38102C2F1040292B257
:20096000E285636CD888824204D81E6804F11005002308E049492046FFF772FDA1E6E85C7E
:20098000F05401339BB29A42F9D8E38DA385002384F860300D4694E640492046FFF76EFD01
:2009A00003258EE63E492046FFF768FD032588E6217B4B091AD194F8303001F010029A4217
:2009C0001AD183F0100384F83030636C1A68A08D0244E38DC51DAB4228DC11F0010F11D0D1
:2009E00004F10D051B1A99B2002316E029492046FFF744FD032564E62A492046FFF73EFDCC
:200A000003255EE64FF000612046FFF737FD032557E6E85CD05401339BB29942F9D8E38DD0
:200A2000A385002384F8603002254AE611F0010F03D104F10D0000230AE04FF0006120460E
:200A4000FFF71CFD03253CE6C15CD15401339BB2062BF9D9A38D0733A38594F8303043F0C6
:200A6000600384F820300A4B1B6804F1180098470125A4F84C5024E6012522E601250DB109
:200A800084F8615002B070BD0125F8E70125F6E74807002023000A06430004060500040545
:200AA0001000070600000305002380F830308385437B80F82130837B80F82230C37B80F809
:200AC0002330704730B583B0044690F8543023B3436C9B685B689847032805D0022811D069
:200AE0000125284603B030BD002584F85450A4F84C503F4B1B6804F11800984784F8605020
:200B00000225EEE7002384F85430A4F84C3039492046FFF7B3FC0325E3E7FFF7C5FF227BC8
:200B200002F00305032D25D0012D5BD1237C8DF80030637C8DF80130A37C8DF80230E37C1E
:200B40008DF80330BDF80030E385626CD288934242D80023A385602384F820300123A4F81F
:200B60004C30234B1B6804F118009847122384F86030B6E7C2F38102C2F1040292B2E285A2
:200B8000636CDB889A4204D8A56C04F11000002308E019492046FFF771FCA2E7C15CE9543C
:200BA00001339BB29A42F9D8E38DA385602384F82030636C9B682BB10125A4F84C5084F898
:200BC00054508EE70A4B1B6804F118009847002384F86030022584E707492046FFF74EFC81
:200BE00003257EE705492046FFF748FC032578E74807002021000008050004051000070630
:200C000038B5044690F8543013B3436C9B685B689847032803D002280FD0012038BD002535
:200C200084F85450A4F84C50454B1B6804F11800984784F860500220F0E7002384F8543015
:200C4000A4F84C303F492046FFF718FC0320E5E7037B5A0915D190F8301003F0100291422E
:200C600014D1826C808D0244E18DC51DA9423ADC13F0010F0FD004F10D05091A89B2002383
:200C800014E03149FFF7FAFB0320C7E72F49FFF7F5FB0320C2E74FF000612046FFF7EEFB1B
:200CA0000320BBE7E85CD05401339BB29942F9D8E38DA38594F8303043F0200384F8203034
:200CC000636C9B682BB10120A4F84C0084F85400A4E71B4B1B6804F118009847002384F88E
:200CE000603002209AE713F0010F03D104F10D0000230AE04FF000612046FFF7BFFB0320F2
:200D00008CE7C15CD15401339BB2062BF9D9A38D0733A38594F8303043F0200384F82030FA
:200D20000125A4F84C50064B1B6804F11800984794F8303083F0100384F8303028466DE785
:200D4000480700202100000823000A060000030530B40124047091F85C4004F5B064856923
:200D600064F31C058561082480F82840002480F8294091F85CC00CF5C06C45686CF31C0505
:200D80004560047544758485C48580F83040B1F85E5045860487C363A0F8404080F842405D
:200DA00044648464A0F84C40B1F86030A0F84E30026580F854408465C46580F8604080F81B
:200DC000614030BC7047FFFF70B582B004460378002B00F07581B0F84C303BB1194489B2FC
:200DE000A0F84C10B0F84E3099421ED8637D23B994F85420002A00F061814BB10023A4F895
:200E00004C30237B5B09042B14D094F860302BB394F86030113B042B00F24E81DFE813F025
:200E20008B0098004C019D00E300A849FFF718FB032546E1237C8DF80030637C8DF8013090
:200E4000A37C8DF80230E37C8DF80330009BE3650023637584F86030032532E1257B6D096A
:200E60006B1EDBB2012B38D8637B8DF80030A37B8DF80130BDF80010A4F84010E37B84F82E
:200E80004230E06BFFF719FA20874FF6FF7398422FD0E36B94F842201988884223D24FF674
:200EA000FF71884221D05B6803EBC00083789A421DD2436802EB420203EB82036364D3B136
:200EC000012D1ED01B7913F0010F2ED0142384F860300125032D9BD1F3E07D492046FFF757
:200EE000CDFA0325F6E70023E8E70023E6E70023E4E70023E2E777492046FFF7BFFA03256D
:200F0000E8E71A7912F0020F07D09A685AB11368A364112384F86030DCE76F492046FFF7DF
:200F2000ADFA0325D6E71B68F2E76B492046FFF7A5FA0325CEE72046FFF7C4FD06460023B1
:200F4000637594F86050002D00F0BB803546B8E02046FFF755FE0646F1E72046FFF7A4FD42
:200F6000616CCA88E285042A1DD9412384F82030009284F82420C2F3072384F82530C2F3E0
:200F8000074384F82630C2F3076284F82720534B1B6804F1180098470126A4F84C601523A0
:200FA00084F86030CBE7C2F104039B0003F00C0343F0430384F8203004F124050868002326
:200FC00003E0C15CE95401339BB29A42F9D8434B1B6804F118009847E38DA385002384F872
:200FE00060300226ABE7237B5E09032E11D194F8302003F01003934211D1636C1A68A08D78
:201000000244E38DC11D8B420EDD04F1210000233AE033492046FFF731FA03268FE7314915
:201020002046FFF72BFA8AE7D9B2C0B2091ACEB204F1210531460023994204D9D05CE85449
:2010400001339BB2F8E7E38DA38594F93030C6F1070243EA42035BB243F0010384F8203069
:201060001E4B1B6804F11800984794F8303083F0100384F83030002384F8603002265EE7AE
:20108000D15CC15401339BB2062BF9D9A38D0733A38594F8303084F82030104B1B6804F16D
:2010A000180098470126A4F84C6094F8303083F0100384F8303042E7012640E7012640E7B7
:2010C000012584F8615002B070BD00BF000004050100040511000906000001064807002076
:2010E00023000A060000030503460A4603210174111D03C983E803000021597490899882FA
:20110000D089D882B2F85800188392F85A209A769983D98383F82010596283F82810704723
:20112000C17890F90330002B5CDB10B582B00446838B1A4492B2934200D2828311F0400F6B
:2011400038D0A28BA38A9A424AD3E38B01339BB2E383228B934212D90123E38394F820300C
:201160000133DBB284F82030A27E934202D9002384F8203094F82020012393406362E38B2D
:20118000ADF800302372C3F30723637294F82030A372154B1B68204698470023A3830120AD
:2011A000A38BE28A93428CBF0023012384F8283002B010BD607C0028F2D0237A8DF80030C3
:2011C000637A8DF80130BDF80030E383A27A84F820200123934063620023A3836374DFE7B7
:2011E0000020DDE7002070474807002010B5044690F87330022B01D0002311E0436F08308F
:2012000098470B4B1B68204698470FE004F1140252F8231004F108020978D1540133DBB2F4
:20122000072BF3D9024B1B682046984710BD00BF480700202DE9F04104460E461146069DC1
:201240009DF81C80089F1A46FFF7FEF82B68E3652A89A4F864206A89A4F86620A989A4F8D9
:201260006810A87B84F86A0023600823237400236374A66584F8701084F8712084F872307C
:2012800084F873806767B8F1020F02D025B1BDE8F081002FFBD1FEE7FEE708B590F903305B
:2012A000002B14DBB0F864304FF6FF718B420BD06AB1826DD18B8B420DD043B990F8723045
:2012C0002BB1FFF793FF02E090F8723003B908BDFFF78CFFFBE7C16E526A1142EDD0FFF7C9
:2012E00085FFF4E7B8B1844600234FF6FF708B4212D210B41CF8032082EA1022074C24685C
:2013000034F9122082EA002080B201338B42F1D35DF8044B70477047704700BF58070020E4
:201320000023934211D210B411F803C08CEA102C064C246834F91CC08CEA002080B20133AD
:201340009342F1D35DF8044B704770475807002030B58BB005461F4C0DF1080CA646BEE8E9
:201360000F00ACE80F009EE80F008CE80F000DF1090105F10C0000F09FF90DF1170105F105
:201380002C0000F099F94FF400432B614FF420332B630DF1080E04F1400CBCE80F00AEE8CB
:2013A0000F009CE80F008EE80F009DF808308DF800309DF809308DF801309DF80A308DF8AC
:2013C00002309DF80B308DF80330009B6B600BB030BD00BF0004000838B504460D460023CD
:2013E00001F8013B0C3000F09EF905F10F0104F12C0000F098F938BDC0F86C1470470178F0
:20140000072905D8DFE801F00C0C0C0C0C070C0C00218C4608E040F28A214FF0000C03E0C6
:2014200041F288314FF0000C89184CEB0303C0F86014C0F86434704703788B4202D00170D9
:20144000012303727047FFFF70B590B00446402632460021684603F0FAFF134DEC46AE4670
:20146000BEE80F00ACE80F00BEE80F00ACE80F00BEE80F00ACE80F009EE80F008CE80F004C
:2014800069462046FFF7A8FFD4F86C341B6A324669462846984708B910B070BD07212046F9
:2014A000FFF7CAFFF8E700BF0004000810B504460C3000F061F900B910BDA38AA386637E71
:2014C00084F83930E368E362E28A237EE28684F838302046FFF7B8FFD4F870342046984776
:2014E000EAE710B50446838E838290F839304376C36AC360C28E90F83830C2820376FFF709
:20150000A3FFD4F874342046984710BD10B504464368012B17D0022B19D0D0F86C34DB6914
:20152000984704F10C0000F027F9E0B904F12C0000F022F9E0B9012384F868340521204695
:20154000FFF77AFF10BD0121FFF776FFFAE70121FFF772FFD4F87834002BF3D10721204663
:20156000FFF76AFFEEE705212046FFF765FFE9E72046FFF7B6FF05212046FFF75DFFE1E7CA
:2015800010B50446D0F86C341B689847002384F868342046FFF7DCFE2046FFF7B7FF10BD22
:2015A00010B504460C3000F0F7F870B1E1682069FFF798FEA082002363762046FFF744FFC5
:2015C00006212046FFF738FF10BD07212046FFF733FFF9E730B591B00446124DEC4605F1F7
:2015E000400EBEE80F00ACE80F00BEE80F00ACE80F00BEE80F00ACE80F009EE80F008CE88C
:201600000F0000230093D4F86C341B6A40226946A818984708B911B030BD07212046FFF771
:201620000BFFF8E70004000870B588B0044600234376FFF73BFF04F10C06304600F0CBF8D2
:201640006368022B14D0D4F8803420469847D4F86C34DB6920469847D4F86C349B6820461F
:2016600098472046FFF7B6FF0023636008B070BDD4F87C3420469847D4F86C34DB692046D8
:2016800098474FF4F843E364EC460A4D0FCDACE80F0095E80F008CE80F0001A9304600F07F
:2016A0000BF84FF40043236102212046FFF7C4FED7E700BF4004000882B00B788DF80030A9
:2016C0004B788DF801308B788DF80230CB788DF80330009BB3F5004F28BF4FF4004303607A
:2016E0000B798DF800304B798DF801308B798DF80230CB798DF80330009B43600B7A003B82
:2017000018BF01234373B1F80920CB7A428103730B7B8DF800304B7B8DF80130BDF800302C
:20172000038102B0704782B0036800930B70C3F307224A70C3F307428A70C3F30763CB7024
:20174000436800930B71C3F307224A71C3F307428A71C3F30763CB71437B0B724289037B5B
:20176000A1F80920CB720389ADF800300B73C3F307234B7302B0704708B5C369984708BDF7
:2017800010B5044601684068FFF7ACFD2389834214BF0020012010BD10B504460168406818
:2017A000FFF7A0FD2389834214BF0020012010BD38B504464369016951F80C0B4FF4806272
:2017C0009847054620694FF48062FF210C3003F03EFE284638BD08B58369042140689847EE
:2017E00008BD10B5044681880C30FFF77BFD2389834214BF0020012010BD08B503460846BC
:201800009962114600F09CFD08BD036901FB03F34089B3FBF0F0704708B5806A036A9847C9
:2018200008BD08B5806A8369984708BD10B5806AC469A04710BD00B585B08DF80710012372
:201840000DF10F020DF10701FFF7F0FF9DF80F0005B05DF804FB08B5806A8368984708BDAB
:2018600008B5806AC368984708BDF8B50546FFF7F2FF9F212846FFF7DEFFA5212846FFF7E8
:20188000DAFF0746A5212846FFF7D5FF0446A5212846FFF7D0FF06462846FFF7E1FF24022B
:2018A00044EA074444EA0600F8BD38B50546FFF7D2FF4B212846FFF7BEFF0024032C06D809
:2018C000A5212846FFF7B7FF0134E4B2F6E7002407E0A5212846FFF7AEFF2B19587001345D
:2018E000E4B2072CF5D92846FFF7BAFF38BD10B50446FFF7B0FF06212046FFF79CFF204607
:20190000FFF7AEFF4FF47A71012003F005FC10BD38B504460D46FFF79EFF012D11D0022DB9
:201920001BD015212046FFF786FFA5212046FFF782FF054684F826002046FFF791FF2846BB
:2019400038BD05212046FFF776FFA5212046FFF772FF054684F82400EEE735212046FFF796
:201960006AFFA5212046FFF766FF054684F82500E2E7FFFF10B504464FF486723D49FFF7FE
:201980003CFF012084F827004FF47A7103F0C4FBA06A836898472046FFF767FFC0B2113817
:2019A0000F2862D8DFE800F05C57524D48433E383261616161616108092323704FF4806347
:2019C000E3614FF4807363814FF480532361E3691A0162611B041A0AE2604FF48032A26168
:2019E0009B0A23622046FFF760FF01212046FFF78FFF02212046FFF78BFF03212046FFF76D
:201A000087FF002384F82730012010BD082323704FF40073E361D4E7072323704FF48073F6
:201A2000E361CEE7062323708023E361C9E7052323704023E361C4E7042323702023E3610C
:201A4000BFE7032323701023E361BAE7022323700823E361B5E7012323700423E361B0E793
:201A6000002323700223E361ABE7002084F82700CBE700BFCC20002010B504464FF47A7138
:201A8000012003F049FB2046FFF7E5FE05212046FFF7D1FEA5212046FFF7CDFE84F82400D1
:201AA0004FF47A71012003F037FB94F8243013F0010FEFD12046FFF7D3FE10BD70B5044696
:201AC0000E4604E04FF47A71012003F025FB94F82730012BF6D0012384F827302046FFF744
:201AE000CBFF256906FB05F52046FFF700FF2046FFF7B1FE2378072B29D921212046FFF7C0
:201B00009AFE290E2046FFF796FEC5F307412046FFF791FEC5F307212046FFF78CFEE9B2BA
:201B20002046FFF788FE4FF47A71C82003F0F4FA2046FFF795FE2046FFF79EFF4FF47A71B6
:201B4000012003F0E9FA002384F8273070BD20212046FFF770FED8E72DE9F04104460F46BB
:201B600090461D46069E04E04FF47A71012003F0D3FA94F827000128F6D0012384F82730FC
:201B8000721963899A4200D806B95E1B7219934200D25E1B2046FFF76FFF2046FFF7A7FE6C
:201BA0002046FFF758FE638908FB03552378072B2FD912212046FFF73EFE290E2046FFF7F9
:201BC0003AFEC5F307412046FFF735FEC5F307212046FFF730FEE9B22046FFF72CFE32463B
:201BE00039462046FFF71DFE4FF47A71032003F093FA2046FFF734FE2046FFF73DFF4FF4B5
:201C00007A71012003F088FA002384F82730BDE8F08102212046FFF70EFED2E72DE9F041AC
:201C200082B080460E4611461D46089C0369A34202D314B91C4600E01C46AB4221D9621901
:201C4000934200D25C1B4046FFF7DFFDB8F80A20B5FBF2F3C71802FB135500942B463A46D6
:201C600031464046FFF778FF0137B8F80A305B1BE41A1E440025AC42EFDC012002B0BDE8AC
:201C8000F0810020FAE72DE9F04104460F4690461D46069E04E04FF47A71012003F03CFAB3
:201CA00094F827000128F6D0012384F827306389B34202D316B91E4600E01E4672199342FE
:201CC00000D25E1B08FB03552046FFF7C4FD2378072B2BD90C212046FFF7ADFD290E2046A0
:201CE000FFF7A9FDC5F307412046FFF7A4FDC5F307212046FFF79FFDE9B22046FFF79BFDE4
:201D000000212046FFF797FD324639462046FFF783FD2046FFF7A4FD4FF47A71012003F0A0
:201D2000FBF9002384F82730BDE8F0810B212046FFF781FDD6E72DE9F04182B080460E464D
:201D400011461D46089C0369A34202D314B91C4600E01C46AB4221D96219934200D25C1B0E
:201D60004046FFF752FDB8F80A20B5FBF2F3C71802FB135500942B463A4631464046FFF76D
:201D800082FF0137B8F80A305B1BE41A1E440025AC42EFDC012002B0BDE8F0810020FAE702
:201DA00008B503689A68126859681868904708BD08B5C2691378012B0DD0036A013B036218
:201DC000012B05D91378022BF3D18368984705E08368984702E04FF0FF33036208BD08B5CA
:201DE0000368186801F09CF808BD2DE9F04105460F4616460368D3F80080002409E007237E
:201E000001223919404601F0BBFA2846FFF7D0FF0134B442F3D30020BDE8F0812DE9F84376
:201E20000646884617460368D3F80090002400E00134BC420ED20723012208EB040148467B
:201E400001F0A9FA05463046FFF7B2FF002DEFD0122000E00020BDE8F8832DE9F04782B0C9
:201E60000646894690461F460368D3F800A000240DE007250095012308EB040209EB04014E
:201E8000504601F092FA3046FFF792FF0134BC42EFD3002002B0BDE8F08701607047FFFF39
:201EA0000379012B03D0044B02221A707047024B01221A70704700BF8009002008B50348D2
:201EC000034B03604368984708BD00BF5C090020D055000010B5044C0449204602F038FFA8
:201EE000204602F0AFFF10BDDC3900201856000010B5044C0449204602F02AFF204602F031
:201F0000A1FF10BDF83900204C56000010B5044C0449204602F01CFF204602F093FF10BDD5
:201F2000143A00208056000008B5FFF7D3FFFFF7DFFFFFF7EBFF08BD08B5084B9A68D26A11
:201F400018689047064B9A68D26A18689047054B9A68D26A1868904708BD00BF0C56000079
:201F6000405600007456000008B5037913B902480368984708BD00BFBC10002008B50379BF
:201F800013B902484368984708BD00BFBC10002008B5037913B902488368984708BD00BF94
:201FA000BC10002070B50E4615461C46012824D0022829D0002240F20231354801F065FC69
:201FC000012E2ED0022E32D000220D21304801F05CFC012D36D0022D3AD000220E212C485F
:201FE00001F053FC012C3ED0022C43D0002240F20621274801F049FC70BD012240F2023150
:20200000234801F042FCDBE7224BD3F8C820C2F3400282F0010240F202311D4801F035FCEC
:20202000CEE701220D211A4801F02FFCD1E7194B5A6BC2F3400282F001020D21144801F054
:2020400024FCC6E701220E21114801F01EFCC9E7104B9A6BC2F3400282F001020E210C48FE
:2020600001F013FCBEE7012240F20621084801F00CFCC1E7074BD3F89820C2F3400282F010
:20208000010240F20621024801F0FFFBB4E700BF2039002000080840094B1B781BB9094B7D
:2020A0001B78002BF8D0064B1B781BB90020054B18707047024B00221A700320704700BFA1
:2020C000CA100020C810002010B5054C0549204601F0B4FE01220221204602F004F810BD3A
:2020E00068390020BC55000008B5024801F072FD08BD00BF6839002070B582B006460D466C
:2021000000238DF807300A460146124801F0D0FFB0B90024AC4210D20DF107034FF4004245
:2021200006EBC4310B4801F095FF60B99DF80730012B0BD00134E4B2ECE7002002B070BD58
:202140004FF0FF30FAE74FF0FF30F7E74FF0FF30F4E700BF68390020002393420ED200B58E
:2021600010F903E011F903C0E64505D101339342F6D301205DF804FB0020FBE70120704784
:20218000F8B505460E461446134602460B4801F07EFF68B90A4F22462946384603F04AF932
:2021A000224631463846FFF7D7FF20B10020F8BD4FF0FF30FBE74FF0FF30F8E768390020F2
:2021C000CC1000202DE9F04182B000AF04460D4616460023FB7162B6012201462D4801F06B
:2021E00067FF002849D12C4B93F80080B8F1000F06D02A4B1B78002BFBD0284B00221A700A
:20220000FB1D40222146234801F024FF002837D1FB79012B37D0022B25D033462246294615
:202220001C4801F034FF88BBB8F1000F06D01C4800780028FBD01A4B00221A706C46F31DA3
:20224000DB08A4EBC3039D4632462946684603F0F1F82946684603F002F958B9A5460837AC
:20226000BD46BDE8F081FFF717FF0028D5D04FF0FF30F4E74FF0FF30F0E74FF0FF30EEE79B
:202280004FF0FF30EBE74FF0FF30E8E74FF0FF30E5E700BF68390020BC550000C9100020FD
:2022A000CB1000200378032B12D8DFE803F00A0E0602084B01221A707047074B01221A7000
:2022C0007047064B01221A707047054B01221A70704700BFCA100020C8100020C910002034
:2022E000CB10002008B500684368984708BD08B500688368984708BD08B50068036998474B
:2023000008BD10B500684469A04710BD08B50068C368984708BDFFFF08B501228188024845
:2023200001F0B3FA08BD00BF2039002008B500228188024801F0A9FA08BD00BF203900203F
:2023400010B5044681800D4B83600D4BC3600D4B03610D4B43610D4B83610D4BC3610D4BEF
:20236000036201220C4801F090FA00B110BD0B4820600B49FFF791FDF8E700BF2D230000EF
:2023800019230000E5220000EF220000F9220000032300000D230000203900205C0900207A
:2023A000D055000008238371002303714371704710B5074C04F10800FFF7F4FF04F11C00C8
:2023C000FFF7F0FF0349044802F0A0F910BD00BFF020002078550000283900208288B2F53A
:2023E000806F11D108B50346084A02F1280C406A996AACE80300997F82F822109B69D3614D
:20240000136B1046984708BD704700BFF020002010B57F4B93F8383373B97D4B93F8303337
:20242000072B12D8DFE813F0120032004E006E008E00AA00D100EB00764C774BD3E900235F
:202440002046FEF7DCFF0023237210BD724B186859686F4BD3F89027D3F894379042994145
:2024600003D3134308D1002300E0002333B107216848FEF7E1FFE8E70123F7E7654C2046B8
:20248000FFF77EF8204600F08DFCDEE7624B186859685F4BD3F89027D3F8943790429941D0
:2024A00003D3134308D1002300E0002333B107215848FEF7C1FFC8E70123F7E75548FFF74C
:2024C000B3F8C2E7544B18685968514BD3F89027D3F894379042994103D313430BD100233D
:2024E00000E000234BB94A48D0F89C37DB6800F54C709847A9E70123F4E707214548FEF79C
:202500009BFFA2E7444B18685968414BD3F89027D3F894379042994103D313430BD100234D
:2025200000E000234BB93A48D0F89C371B6900F54C70984789E70123F4E707213548FEF75A
:202540007BFF82E7344B18685968314BD3F89027D3F894379042994103D3134308D1002370
:2025600000E0002333B107212A48FEF765FF6CE70123F7E72748FFF713F866E7264B18687E
:202580005968234BD3F89027D3F894379042994103D3134312D1002300E000231BB11C4BE0
:2025A00093F8983763B11A4B93F83933002B3FF44CAF01211748FEF73FFF46E70123EDE71F
:2025C00006211448FEF738FF3FE7134B186859680F4BD3F89027D3F894379042994103D393
:2025E00013430AD1002300E00023002B3FF42DAF06210848FEF720FF27E70123F5E7044865
:20260000D0F89C379B6900F54C7098471DE700BF30310020603400201839002008B5012143
:202620000148FDF718FE08BD3031002008B51C4A13685168013341F1000113605160194ABC
:20264000136801331360012B0BD0C82B0FD0B3F5C87F13D0B3F5167F17D0B3F5487F1BD02F
:2026600008BD002211461046FFF79CFCF8E70023012219461846FFF795FCF1E700231A4674
:2026800001211846FFF78EFCEAE700231A4619460120FFF787FCE3E7024B00221A60DFE774
:2026A000183900202421002008B5054B054A1A60054A5A60054A9A60FFF736FC08BD00BF70
:2026C000BC1000202D2600001D260000112400007047FFFF034BB3F88E22A3F88023032084
:2026E000704700BF30310020024B042283F83023032070473031002008B50648FFF771F8DD
:2027000008B9022008BD03210348FEF795FE0320F8E700BFAC3400206034002008B504489C
:20272000FFF73AF808B9022008BD0320FCE700BF6C3400207047704770477047C2692830E5
:20274000264BD3F8C832C3F31C039A420ED0234BD3F8FC31C3F31C039A421ED01F4BD3F87A
:202760006432C3F31C039A4236D070471B4B93F8CB3213F0400FF8D1184B93F8D8C20023A1
:2027800004E0C15C164A995401339BB29C45F8D8124B012283F8D9227047104B93F858329C
:2027A000002BDBD0002304E0C15C0E4A995401339BB2072BF8D9094B012283F80D2270477E
:2027C000C15C094A995401339BB2072BF8D9034B012283F87522C8E70023F6E73031002065
:2027E00000340020343300209C33002010B50346094C04F114028068D96803C21A68C2F37C
:202800001C02A2601B7CA37304F108026168034801F0D0FE10BD00BFF020002028390020DC
:2028200070B584B0FFF754FF294B2A4A1A602A4AA2F14805294C2A4B1B6852F8481C2046BF
:20284000FDF7FEFC294604F53270FEF74DFC002425E0244B53F824300293204804EBC40358
:202860009A0002F5CC7220490A44C4EB041C4FEACC0303F1180E0223019304EB840C0CFAA3
:2028800003F303F5A4730B44043300934369043200F532717044FEF7CDFC0134E4B2032C34
:2028A000D7D90E4C04F532760F4D63693246294604F51870FEF74CFA3246294604F5FC7056
:2028C000FDF712FE094B0A4A1A6304B070BD00BF48070020ED270000DC0900203031002026
:2028E000580E0020080F002094090020F02000203D270000704770477047FFFFBFF34F8F17
:202900000549CA6802F4E062044B1343CB60BFF34F8F00BFFDE700BF00ED00E00400FA056D
:2029200008B572B6FFF72CFC62B608BD08B5FFF749FC08BD08B5FFF773FFFFF739FD08BDE4
:2029400010B504460C30FEF733FF48B9B4F852300133A4F8523002212046FEF76DFD10BDCF
:2029600007212046FEF768FDF9E7FFFF70B586B005460E4600235C1CE4B2B3422ED81A4B06
:2029800093F85932002BFAD1039503218DF810100123ADF812300023059341F28833019382
:2029A00003AB0093062342F201021048FDF7D2FD0D4B93F85932012BFAD0032B05D10A4B9E
:2029C000002283F859222346D5E7074B002283F8592202212846FEF72FFD03E00721284625
:2029E000FEF72AFD06B070BD303100202833002010B504460C30FEF7DBFE68B9B4F8523074
:202A00000133A4F8523002212046FEF715FD03212046FFF7ABFF10BD07212046FEF70CFD51
:202A2000F9E710B504460221FEF706FD94F8683423B1F1212046FFF799FF10BD0321F9E7B9
:202A400008B5FFF751FB08BD08B5FFF73DFB08BD08B5FFF733FA0248FEF78CFF08BD00BFD4
:202A6000E838002070B582B00446C56805F50045C26C02F58063C364A2F5F842C2F30B0346
:202A80000D490B600D4E4FF480610091120B00F158013046FFF74FF90321A6F59160FEF7A5
:202AA000CBFCE36CAB4201D202B070BDA6F5F763042283F83023F7E728310020E8380020E1
:202AC0002DE9F04383B08146C36A1B0B03F1090806690824002300E00134444519D20F4DB8
:202AE0004FF48052FF21284602F0B1FC4FF4805700970023224629460948FFF71CF9D9F8BC
:202B000020303A462946304698473E4403460028E2D0184603B0BDE8F08300BF282100202B
:202B2000E838002010B504460C30FEF754FE00B110BD2046FFF7C4FFFAE7FFFF2DE9F04100
:202B400082B08046C7683F0B09370824002513E00C4E21463046FEF7B1FFD8F810104FF471
:202B6000805300930023224601EB05313046FFF755F80135EDB20134BC42E9D3002002B0F3
:202B8000BDE8F081E838002008B572B6FFF7B4FA62B608BD08B50249FEF72EFC08BD00BFCE
:202BA000400F002008B50249FEF726FC08BD00BF180F002010B5144C2046FFF7F3FF04F154
:202BC0004C02E263E261114A22642262104A62646262104AA262104AA264104AC4F880245E
:202BE0000F4AC4F87C240F4AC4F870240E4AC4F874240E4AC4F878242046FFF729FF002176
:202C00002046FEF719FC10BD6034002021290000892B000081170000152D0000A52B00001B
:202C2000952B00003D2B0000252B0000A52C00002DE9F04782B08A46060B4FEA113909EB74
:202C4000103909F101094FF000084FF6FF7514E0124F4FF48052FF21384602F0F8FB0094A6
:202C60000023324639460E48FFF765F8224639462846FEF755FB054601364E450AD2AAEB71
:202C8000083408F101082CB1B4F5805FE0D94FF48054DDE7284602B0BDE8F0872821002058
:202CA000E838002010B58AB00DF1080C184C0FCCACE80F0094E80F008CE80F009DF80C3002
:202CC0008DF800309DF80D308DF801309DF80E308DF802309DF80F308DF803300099B1F562
:202CE000004F01D94FF400419DF818308DF800309DF819308DF80130BDF800400020FFF7F6
:202D000097FFA04202D101200AB010BD0020FBE74004000810B501680489B1F5004F28BFDB
:202D20004FF400414FF40040FFF782FFA04214BF0020012010BDFFFF70B592B005467E2103
:202D40001748FEF7CFFA04464FF000660DF1080C06F1C00EBEE80F00ACE80F00BEE80F0083
:202D6000ACE80F00BEE80F00ACE80F009EE80F008CE80F00ADF800408DF80840C4F30724AC
:202D80008DF80940402202A906F1C000FFF71AFA08B112B070BD07212846FEF74DFBF8E73D
:202DA000C2000008F0B595B000AF69464FF00063D3F81431FB643B73C3F307227A73C3F3C0
:202DC0000742BA73C3F30763FB73FB68B3F1011F39D004460D464022002107F10C0002F0A9
:202DE00036FB1C4E07F10C0CB646BEE80F00ACE80F00BEE80F00ACE80F00BEE80F00ACE833
:202E00000F009EE80F008CE80F004FF001137B60012187F84C10002287F84D2087F84E1075
:202E200087F84F203B62D4F86C341B6A402207F10C013046984740B92046FFF77DFFAD4696
:202E40005437BD46F0BD8D46FAE707212046FEF7F3FAF1E70001000808B54FF0E023002211
:202E60001A6103F550639860BFF34F8F036883F308884368984708BD08B5FFF75DF80A4B87
:202E80009A68526918689047084B9A68D26818689047074B9A68526818689047054B9A6881
:202EA00052691868904708BDB05500006C55000060550000D055000008B5FFF77BFEFFF779
:202EC000AFFCFFF7F1FB094B93F83033062BFAD14FF47A71322002F01FF9FFF7CDFF034B8D
:202EE000D3F84003FFF7B8FFEDE700BF30310020022800D0704708B5024B5968024800F04D
:202F0000F1FD08BD605500002039002008B5FFF7D3FF002008BD4162C262836200207047E3
:202F200010B504460023036043685B691BB19A68126A1868904763681B691BB19A68126A53
:202F400018689047636893F9023003F01F005B09012202FA00F01F49203341F82300BFF343
:202F60004F8FBFF36F8F636893F9013003F01F005B0902FA00F0203341F82300BFF34F8F9A
:202F8000BFF36F8F636893F9033003F01F005B0902FA00F0203341F82300BFF34F8FBFF3A4
:202FA0006F8F636893F9043003F01F005B098240203341F82320BFF34F8FBFF36F8FA26837
:202FC00013786FF386131370A368DA780020D87010BD00BF00E100E0F8B5064605690378F4
:202FE00003F5800303F58D531B021C1D002D26D06B681B684FF000621A606B681B689C6042
:20300000AB681B686968286898470746A8B973699BB15A6812684FF4002111605A681268B7
:2030200054609A681268596818689047074620B11DB1AB681B6A286898473846F8BD0027FB
:20304000E5E7FFFF2DE9F04F85B04268557A65BB082141F0B00155BB4FF0100E947AD37AB0
:2030600044EA4304537B44EA0334126A13781BBB05BB80231C4321F00101567821EAC61344
:20308000710141EA46010B43039392F802C0D6780CFA06FC24F0700343EA0613147974B147
:2030A000022C69D0202101910BE00021D1E74FF0000ED3E70023DDE741F00101DDE700210C
:2030C0000191547924B14EF00106012C57D0B64692F80680147A04F0030443EA8403002DAD
:2030E00050D143F46043567A917A0291D47AEFF3108A012585F31088244FD7F804904168E8
:2031000091F800B0CBF1130B05FA0BF529EA05057D607D688AF310888568EF780027EF70CF
:2031200085689DF80C10297081685FFA8CFC81F801C081689DF804508D708168D2798A7255
:203140008268F6B2167381689DF808204A738268E4B2947382685FFA8EFE82F80FE0826848
:203160009BB21382836883F820808368102283F8212005B0BDE8F08F30210191A1E74EF00C
:20318000030EA5E7002402942646B0E70040084010B48468E27AD2B2238A9BB290F820100B
:2031A0000F2916D922F0400242F020028C460F2903D901318908A1F1050C23F4706343EADD
:2031C0000C23D2B2E27282689BB213825DF8044B7047072902D842F04002E7E722F0600201
:2031E000E4E78268137843F0400313707047FFFF70B50E461D469DF810308168097811F0C5
:20320000400F40F0B7800446C6600261002141618161C56180F820304168486900282BD015
:20322000A5610F2B62D94B695B681B68D978022060F30511D97063685B695B681B6899780E
:20324000022060F38301997063685B695B681B68A9B2D98163685B695B681B689A60002AE9
:2032600057D063685B699A68526859680968186890470346002837D163681A69002A2CD066
:20328000656194F820200F2A52D91B695B681B68DA78022161F30512DA7063681B695B6832
:2032A0001B68DA78022161F38302DA7063681B695B681B68ADB2DD8163681B695B681B680C
:2032C0005E60002E47D063681B699A6852685968096818689047034630B92046FFF758FF72
:2032E0002046FFF77EFF0023184670BD072B07D84B695B681B68D9786FF30511D9709AE7A9
:203300004B695B681B68D978012060F30511D97091E763685B695B681B689A786FF3830249
:203320009A7063685B695B681B68134A9A6098E7072A07D81B695B681B68DA786FF3051233
:20334000DA70AAE71B695B681B68DA78012161F30512DA70A1E763681B695B681B68DA7830
:203360006FF38302DA7063681B695B681B68034A5A60A8E70823B7E7403A0020443A0020F0
:2033800000B583B0009313460A460021FFF730FF03B05DF804FB00B583B0009313460022C6
:2033A000FFF726FF03B05DF804FB10B582B09DF810400094FFF71CFF02B010BD8369C269D4
:2033C0009A420BD0026952B190F820100F2909D98168496842F82310013383617047826836
:2033E0005268F9E7072903D881680979D154F3E78168898822F81310EEE74369C2699A42FF
:203400000BD0C26852B190F820100F290AD9816852F823204A600133436170478268002117
:203420005160F8E7072903D88168D25C0A71F2E7816832F813208A80EDE710B584B004461F
:203440008C46836AC3B193E807000DF1100E0EE90700626812781A6083F804C0E26A9A604A
:20346000626A18469047A36A23B104AA12E9070083E8070004B010BD01ABEAE7F0B44368FB
:2034800093F9022099790901C9B2354B9C1884F80013344D45F82200334C02F1C00154F8C5
:2034A00021606FF3104644F8216002F01F065209012101FA06F602F1600743F8276043F834
:2034C0002260466896F9012096F805C04FEA0C1C5FFA8CFC9E1886F800C345F8220002F12E
:2034E000C00654F826706FF3104744F8267002F01F06520901FA06F602F1600743F8276014
:2035000043F82260466896F9042096F808C04FEA0C1C5FFA8CFC9E1886F800C345F822009F
:2035200002F1C00654F826706FF3104744F8267002F01F045209A14002F1600443F824104E
:2035400043F82210426892F90310D2791201D2B20B4483F8002345F82100F0BC704700BF67
:2035600000E100E0A83A00200060004070B504460D460846FFF730FD064608B1304670BD0D
:203580006560AB696362EB69E3620023A3622B7803F5800303F58D531B02A3602046FFF75A
:2035A00051FD2046FFF76AFF014B2360E6E700BF4950535210B5EFF30383C3F30803103B26
:2035C0005BB2104A03F1C00152F821006FF3104042F821000C4A52F823402046FFF7EEFE0C
:2035E000A269E3699A4200D010BD636893F9033003F01F015B0901228A40044941F8232044
:20360000F2E700BF00600040A83A002000E100E010B5EFF30383C3F30803103B5BB2204AFF
:2036200003F1C00152F821006FF3104042F821001C4A52F823004268136A13B15B78012BA0
:2036400002D0FFF7DAFE10BD4169C369013B99420DD01369002BF4D092F9033003F01F01F7
:203660005B0901228A40104941F82320E9E792F903300B4A03F1C00152F821406FF310442B
:2036800042F8214003F01F015B0901228A40064903F1600441F8242041F82320D1E700BF14
:2036A00000600040A83A002000E100E038B5EFF30383C3F30803103B5BB2284A03F1C00112
:2036C00052F821006FF3104042F82100244A52F823008268D27812F0020F03D04268527A07
:2036E000012A3AD103F01F045B09012101FA04F41C4A203342F82340BFF34F8FBFF36F8F6F
:20370000436893F9023003F01F045B0901FA04F4203342F82340BFF34F8FBFF36F8F8468B7
:2037200023786FF386132370436893F902300B4C03F1C00C54F82C506FF3104544F82C50A9
:2037400003F01F045B0901FA04F403F1600542F8254042F82340FFF770FE38BD006000406E
:20376000A83A002000E100E0F8B5EFF30384C4F30804103C64B22C4B53F824506B6893F9B6
:20378000023003F01F005B09012202FA00F02749203341F82300BFF34F8FBFF36F8FA86803
:2037A00003786FF3861303706B6893F90230204803F1C00650F826706FF3104740F8267008
:2037C00003F01F005B09824003F1600041F8202041F82320AA68D378DEB20021D17013F016
:2037E000080F11D116F0010F13D116F0040F02D016F0100F12D10E4BC03453F824206FF3A5
:20380000104243F82420F8BD05212846FFF715FEE8E704212846FFF710FEE6E708212846BB
:20382000FFF70BFEE7E700BFA83A002000E100E00060004003460020186070470B0A1B01D0
:2038400053FA81F1034B53F82130C3F3400313700020704700080840090A490101F180410C
:2038600001F500214B6813800020704702EA030023EA0203090A490101F1804101F50021EC
:2038800040EA03438B6000207047CBB20120984080B262B9024600200B0A5B0103F18043A3
:2038A00003F5002340EA02409860002070470022F2E7090A490101F1804101F50021086820
:2038C00002EA030C40EA0C0062EA030202400A6000207047090A490101F1804101F50021BC
:2038E0004B68C3F30F431380002070470B0A5B0103F1804303F500235868CBB20121994028
:203900008BB201EA1041994203D0002313700020704701231370FAE702EA030023EA02037A
:20392000090A490101F1804101F5002140EA0343CB60002070470620704710B4000A400102
:2039400000F1804000F50020C468012B0AD044EA02426FEA01416FEA11411140C1605DF8F0
:20396000044B704721434FF6FF7343EA02421140F4E708B5134601F47F40012A09D0C9B240
:20398000012202FA01F18AB20021FFF7D6FF002008BDC9B2012202FA01F189B20022F4E745
:2039A00010B411F4803F0ED0030A0C4A1B0153FA80F352F823406FF3104442F8234021F44D
:2039C000803442F82340030A1B0153FA80F0034B43F820105DF8044B704700BF000808408D
:2039E00070B5064600242546224620E001219940C9B20D430133022B18D8716801EBC20CB5
:203A0000BCF804E0144830F813C0E645F2D151F8321001F0F851B1F1807FE7D0B1F1106F8B
:203A2000E4D001219940C9B20C43E3E701323388934201D90023DEE7012001F067FC074AF8
:203A400092F8BB342B43E543EDB21D4082F8BB54012001F027FC70BD6858000000E001408F
:203A600038B50546FFF7BCFFEFF31081012383F310881A4B1B6823B9194B0022DA704022C2
:203A8000DA70164A13680133136081F31088002409E06B6803EBC40253F834109088FFF71D
:203AA0007FFF0134A4B22B88A342F2D8EFF31083012282F31088094A12681AB107490A689C
:203AC000013A0A60054A126822B9054A0021D1708021D17083F3108838BD00BFA43A00204A
:203AE000000D084008B5034B03600846FFF7B8FF002008BD54524F5008B50846FFF7B0FF2E
:203B0000002008BD70B584B00C461546ADF8041000920126ADF80860CDF80CD002A8FFF7FA
:203B20005FFFEFF3108286F31088144B1B6823B9134B0021D9704021D970104E3368013345
:203B4000336082F3108829462046FFF729FFEFF31083012282F31088326812B13268013AFB
:203B60003260064A126822B9054A0021D1708021D17083F31088002004B070BDA43A00206E
:203B8000000D0840054BB3F8843003F0810313B90B700020704701230B70FAE700E07F406D
:203BA000062070470620704706207047062070470B46064A92E8030083E80300044A08337C
:203BC00092E8030083E8030000207047A0580000A858000000230360436893F91130002B02
:203BE0000CDB03F01F015B0901228A402033104941F82320BFF34F8FBFF36F8F0D4B002298
:203C00001A76436893F9133093420CDB03F01F015B0901228A402033054941F82320BFF3AB
:203C20004F8FBFF36F8F0020024B1875704700BF00E100E000E07F4081630264C363002096
:203C40007047FFFF10B4002380F83430374C012384F81634236AC3F30262C3F30273344930
:203C6000096801FA02F2DA40236AC3F302639940D940304B9A4255D902F5742202F23F22C9
:203C800004F1467404F5FF348334A4FB0232920C01F5742303F23F23A4FB03139B0C02F5EA
:203CA000F0522549A1F8E42043F6B85103FB01F1224AA2FB01418908816040F6D86103FB5B
:203CC00001F1A2FB01418908C1605900A2FB014189080161542103FB01F1A2FB0141890861
:203CE0004161174903FB01F1A2FB01418908816144F2506103FB01F1A2FB01418908416296
:203D0000104903FB01F1A2FB0141890801620E4901FB03F3A2FB03239B08C36100205DF83F
:203D2000044B70474FF4FB70F9E700BF00E00140303C0020FF083D0000E07F40ABAAAAAAF7
:203D400038AF040080DE0F00A0F7030008B5FFF779FF08BD10B582B004460A46C36BA3B16E
:203D600093E803000DF1080C0CE903001A70226C5A60A26B18469047E36B23B102AA12E9DE
:203D8000030083E8030002B010BD6B46EEE7FFFF30B482B04FF49643019343681A782AB9C9
:203DA000234B4AF68022A3F8842030E093F91130204C03F1C00254F822106FF3104144F808
:203DC000221003F01F055B09012202FA05F51A4903F1600C41F82C5041F82350436893F9C2
:203DE000133003F1C00054F820506FF3104544F8205003F01F005B09824003F1600041F8E8
:203E0000202041F82320CBE7019B013B0193084BB3F884309BB2802B05D0019B002BF3D1BE
:203E20004FF4FA7000E0002002B030BC704700BF00E07F400060004000E100E02DE9F0417A
:203E4000044641600B785BB92D4B00221A761A752046FFF7F7FE08B92A4B2360BDE8F08107
:203E60004B688363CB6803640025C563DFF890E001228EF8182091F9113091F810C04FEA3D
:203E80000C1C5FFA8CFC2048C61886F800C3DFF880C04CF823401D4E03F1C00756F82780B9
:203EA00065F3104846F8278003F01F075B0902FA07F703F1600840F8287040F82370982344
:203EC0008EF8143091F91330897C0901C9B2C71887F800134CF8234003F1C00156F8217015
:203EE00065F3104746F8217003F01F015B098A4003F1600140F8212040F82320A8E700BF6C
:203F000000E07F404E45504F00E100E000600040A83A002008B501F013FB08BD70B505467C
:203F2000FFF736FFE0B96B681B78D3B1012385F83430064632460421284601F009FB6B68AF
:203F40001B786BB918224FF4805101F0D1FA04462B6B0BB10028EDD001F0C2FA04B1204657
:203F600070BDEE68E6E7FFFF70B5054681620263FFF70EFF18BB06466B681B78EBB10223F2
:203F800085F834300F4B0122A3F8E02032464021284601F0CDFA6B681B786BB919224FF421
:203FA000005101F0A5FA04462B6B0BB10028EDD001F096FA04B1204670BDEE68E2E74FF474
:203FC000FA70F9E700E07F40F8B507460C4616461D46FFF7DDFED0B91D4B002283F8D0209E
:203FE0001C633444013C5C63A3F5F03371221A70D0221A707B681B7823B97969B20802FB8F
:20400000011206E0032387F8343002232B70F8BD013A0F49D1F8801011F4004F02D1002AEC
:20402000F6D114204FF4FC72002101F061FA0446074B93F8D430DBB2012B07D000232B70EE
:2040400001F04EFA002CE2D02046E0E72B70F7E700E07F40B1F5C02F15D24FF0000C80F8C5
:2040600034C083F800C0604690420AD211F800C0BCF1FF0F01D10130F6E701221A7000208C
:2040800070470020704708B5FFF79EFF08BD08B55B0803638162C262002380F83430B2F14E
:2040A000006F02D201F034FA08BDFFF737FFFBE708B5002380F83430B1F1006F0ED2B1F578
:2040C000803F06D221F4FF5121F01F0101F018FA08BD21F4FF4121F07F01F7E721F03F01D6
:2040E000FFF742FFF4E708B501F01AFA08BDFFFF70B5EFF30384C4F30804103C64B2164B15
:2041000053F82450154A137CD2F8802013F0080F0BD1D9B211F0800F18D111F0100F17D087
:2041200012F4405F16D0072600E00426284601F007FA0B4BC03453F824206FF3104243F895
:20414000242031462846FFF705FE70BD0526EDE70726EBE70626E9E7A83A002000E07F4075
:204160000060004038B5EFF30383C3F30803103B5BB21E4A52F823401D4AC03352F8231045
:204180006FF3104142F8231094F83450012D12D0022D1ED0174B93F8D430DBB2012B22D026
:2041A000022501F09DF9002384F8343029462046FFF7D0FD38BD236B002BF2D000220421FF
:2041C000204601F0C5F90028F4D0204601F0B8F9F0E7236B0BB90025E3E7002240212046D5
:2041E00001F0A6F9E6E70325DBE700BFA83A00200060004000E07F400620704706207047BE
:2042000090F90430044AC03352F823106FF3186142F82310002070470060004090F90420B7
:20422000114B53F8223000220A604A60DA7812F0C00F11D04FF480728A60DA89D2B2CA601B
:20424000DA7802F0C002802A0CD14FF480320A609B899BB24B6005E04FF480328A60DB892E
:204260009BB2CB600020704700000020034690F904200849C03251F822006FF3186041F818
:20428000220093F904100020034A42F821001860704700BF006000400000002090F9043029
:2042A0000449C03351F8232042F0807241F82320002070470060004010B582B00191009200
:2042C00090F904202149C03251F822406FF3186441F8224090F90420C03251F82210C1F3E3
:2042E000080141F400411A4AD28992B28A42FAD0174A08211174019A32B190F90410154A1D
:2043000052F8212001995160009A32B190F90410104A52F821200099916090F904100D4A4A
:2043200052F82110CA7802F0C002802A02D012B9CB8100E08B81064B18221A74FFF7AEFFD1
:2043400008B902B010BD1320FBE700BF00600040005400400000002008B5FFF79FFF08BDDF
:20436000002109E0DA89D2B242EA0222DA8101319B7813F0C00F06D000EB0113DA7812F061
:20438000C00FF4D0EEE7704738B505460C460846FFF7E6FF054B08221A7495F90410044A53
:2043A00042F8214018221A7038BD00BF005400400000002010B5044690F904300F4AC0331E
:2043C00052F823006FF3186042F8230094F90430C03352F82320C2F3080242F40042084B6E
:2043E000DB899BB29342FAD02046FFF7CDFF2046FFF754FF00B910BD1320FCE7006000405A
:204400000054004038B50F4B1B7803B138BD01240C4B1C70EFF3108184F310880A4B1A6824
:2044200022F480021A601B6881F31088074D4FF4C0720021284601F00AF8054B5D611C73F3
:20444000E4E700BF483A002000400840000000200054004038B505460C46FFF7D3FF6368D7
:2044600093F90030002B0EDB084A52F823200AB1082038BD2B7121682846FFF785FF044B59
:204480002B600020F5E70B20F3E700BF000000200043544430B40346002098601A6892F984
:2044A000152002F01F055109012202FA05F51E4C203144F82150BFF34F8FBFF36F8F196815
:2044C00091F9161001F01F05490902FA05F5203144F82150BFF34F8FBFF36F8F196891F986
:2044E000171001F01F05490902FA05F5203144F82150BFF34F8FBFF36F8F596881F84C086C
:20450000C1F82C04EFF3108582F3108807494C681B681B68C3F102039A4022434A604B68CF
:2045200085F3108830BC704700E100E000400840062070474268B2F842389BB20B6092F892
:204540004E384B7392F84F380B7392F8503803F07F030B6183F07F0382F8503800207047C7
:20456000C1614262036200207047FFFF037B5BB1022B06D0022B12D00023106820F0604054
:2045800007E010790028F5D11068094B03EA80400023527943EA827303430B607047137940
:2045A000012B01D00023E8E74FF00043E5E700BF0000FC1FF8B503461746026810695E68E8
:2045C000731893F82038DB091FD10D4601F1200306EB03143A462146FFF7C8FFBA79A38827
:2045E00062F30303A380B879A31D07F10C0204E012F8010B03F8010B0846411E0028F7D1A8
:204600003544802385F82038F8BD4EF66320FBE770B58CB005468C46066A7EB30DF1040E1C
:2046200034460FCCAEE80F000FCCAEE80F0094E807008EE80700B646BCE80F00AEE80F00AC
:20464000BCE80F00AEE80F009CE807008EE80700EB69304698472B6A73B19C460DF1040EA6
:20466000BEE80F00ACE80F00BEE80F00ACE80F009EE807008CE807000CB070BD0E46E7E777
:204680004268B2F840386FF38A23A2F84038B2F8403861F30923A2F84038B2F8423803F45E
:2046A000E063B3EB012FF8D17047F8B504460D464768437B93420AD1237BAB4206D0052D6F
:2046C0000FD029462046FFF7DBFF2573F8BD16460221FFF7D5FF87F85868667302232373ED
:2046E000EAE702212046FFF7CBFFB7F8403843F48063A7F84038B7F8423813F4806FFAD05F
:20470000E3E708B5FFF7D1FF002008BD2DE9F041074688460D690E6806F58026A836360361
:204720004660EFF3108C012181F31088804A5468D8F80030C3F1020301FA03F324EA0303E3
:20474000536053688CF31088C0F80080D8F80830C361D8F80C304362002404622B78037619
:204760002246FFF7A2FF2A7B2B7DDB0043EA420343F4E073A6F84038D8F804201368591E1A
:204780006C4B03EA01435168013943EA01739168013943EA0123D268013A43EA02333A7E8A
:2047A0001343C6F84438224602213846FFF77DFF802386F850384FF400722146B01800F071
:2047C00046FE04E00023321982F8203801341F2C11D8AA6802EBC4029379002BF2D12969B7
:2047E000A142F0D904F1200106EB01112846FFF7BDFE4023E7E70023184608E003F5807152
:2048000046F8212099000F228A40104301332A69B3EB920F0DD26A6852F823206FF06041EE
:204820008A42F3D2297B0029E8D1434901EA8242E4E7C043C6F82804002211463846FFF781
:2048400034FFB6F8403843F02003A6F84038B6F8403813F0200FFAD198F9152098F81410F6
:204860000901C9B2354B981880F80013344D45F82270344802F1C00150F821406FF3104419
:2048800040F8214002F01F045209012101FA04F402F1600C43F82C4043F8224098F9162090
:2048A00098F814402401E4B203EB020C8CF8004345F8227002F1C00450F824C06FF3104C26
:2048C00040F824C002F01F04520901FA04F402F1600C43F82C4043F8224098F9172098F85E
:2048E00014402401E4B203EB020C8CF8004345F8227002F1C00450F824506FF3104540F8B5
:20490000245002F01F005209814002F1600043F8201043F822103E2386F84C384FF0FF33F7
:20492000C6F82C34084BBB600020BDE8F08100BF004008400000FF030000FC1F00E100E090
:20494000A83A0020006000404E41435230B58DB0EFF30383C3F30803103B5BB22E4AC03383
:2049600052F823106FF3104142F82310EFF30383C3F30803103B5BB2284A52F823502C229C
:20498000002101A800F063FD6C6894F84D38ADF80830002284F84D28B4F8422812F0100FF1
:2049A00038D043F02003ADF8083094F85328D2B2022384F8533894F8523803F01F0384F85E
:2049C0005328E11891F820286FF3820281F820282A68126801926A6A0692049301A9284631
:2049E000FFF716FE2B681969B4F8422812F0100F0ED00A7D62B193F91530002B08DB03F017
:204A00001F015B0901228A404033054941F823200DB030BD0023DBE700600040A83A0020B7
:204A200000E100E0F0B58DB0EFF30383C3F30803103B5BB2424AC03352F823106FF31041A3
:204A400042F82310EFF30384C4F30804103CE6B264B23C4B53F82400456895F85338DBB27B
:204A6000002285F8532895F8527807F01F0785F85338D0F804C007F1200109015CF801207C
:204A8000C2F380738DF8213003681B691B7B5CF8011043EAD17303F001038DF82030A3B915
:204AA000C2F38A42079207F120030CEB03139B88C3F3030203F00F038DF82220082B02D9FC
:204AC00008238DF8223000230EE022F060420792E9E70CEB07121A4492F8061203F1300270
:204AE0006A4402F8081C01339DF822209342F0D3BC4444238CF820380023099307AB0593FB
:204B00004FF48063ADF80830049703681B680193436A069301A9FFF77BFDB5F8423813F0ED
:204B2000010F0BD0002C09DB06F01F066409012303FA06F64034044B43F824600DB0F0BDE9
:204B400000600040A83A002000E100E030B58DB0EFF30383C3F30803103B5BB2244AC033EE
:204B600052F823106FF3104142F82310EFF30383C3F30803103B5BB21E4A52F823500023CF
:204B8000ADF808306C6894F85318C9B2012284F8532894F8522802F01F0284F85318A1181F
:204BA00081F8203881F8203804924FF40062ADF808202A68126801926A6A0692059301A9FE
:204BC0002846FFF725FDB4F8423813F0020F0DD02B6893F91730002B08DB03F01F015B094D
:204BE00001228A404033044941F823200DB030BD00600040A83A002000E100E0C36882686A
:204C0000013B9BB213808368F1221A72002070478368F0221A720020704706207047016178
:204C2000826143610020704781680A7A02F001020B7AC3F340039A42FAD10020704710B5F3
:204C40000446FFF7F1FF10B9A368F0221A7210BD10B50446FFF7E8FF20B9E368A268013B8F
:204C60009BB2138010BD38B505460C46FFF7DCFF40B9AB681B7AC3F340032371AB681B8848
:204C80009BB2236038BDFFFF10B50446FFF7CCFF68B9A368F4221A72A36800221A7363682E
:204CA00093F9123013F1210F02D10023236010BD93420CDB03F01F015B0901228A40203339
:204CC000064941F82320BFF34F8FBFF36F8F636893F91220024B43F82240E6E700E100E0C8
:204CE000A83A002010B5CA691478234692F804E092F803C00CF0070C34B90A7AB2B182F0B5
:204D000002031B01002202E0502C11D00A7A43EA0C03816881F80CE0816800248C7381680E
:204D2000DBB24B728168D3B28B7210BD0022EEE70022ECE7C16043681A7C044B43F82210E7
:204D400089B2013989B28368198070474C3A002070B504460D460B7C03F5800303F568633B
:204D60001B0283604160EFF3108C012383F310880B7C032B30D82D480168032B2ED8C3F15F
:204D8000030201239340DB430B4003602B7C032B2AD8264B1B688CF31088A36800221A72B0
:204DA000A3681A7A12F0020FFAD100229A7229462046FFF797FF69682046FFF7BBFF95F972
:204DC0001230002B12DA6B692361AB69A36100206061174B236070BD1648CDE7C3F113023C
:204DE00001239340DB43CFE7124BD3E76A7C1201D2B21149C81880F80023104A42F8234088
:204E00000F4A03F1C00052F820606FF3104642F8206003F01F005B090122824003F160009A
:204E200041F8202041F82320CDE700BF0C400840544741001040084000E100E0A83A00203F
:204E40000060004038B50446FFF7EEFE054630B963681B78012B04D0A368F1221A722846EF
:204E600038BDE1682046FFF765FFF5E770B504460D46FFF7D9FE064608B1304670BD2946B2
:204E80002046FFF757FFF8E7437AC3F30213194633F003020FD10B4A106AC0F3026CC0F3EF
:204EA0000220094A126802FA0CF222FA00F03BB183F0020104E0817A01F007014FF4004040
:204EC000C840704700E00140303C002070B504460D46FFF7A9FE064618BBE368AB606368C7
:204EE000DA691278502A16D1A068A0F580701B7C013B0D4A52F823300BB96B600FE0FFF7BC
:204F0000C3FF63681B7C013B074A52F82330B0FBF3F0686003E0A068FFF7B6FF686000236C
:204F20002B70304670BD00BF4C3A002030B585B0EFF30383C3F30803103B5BB2204A03F1D5
:204F4000C00152F821006FF3104042F821001D4A52F82340A1680A7AD2B21346606800785A
:204F6000012823D02269DAB1656935B395E807000DF1100C0CE9070013F0200F01D0002389
:204F80002B71A3692B60236928469847636923B104AA12E9070083E80700A3681B7ADBB216
:204FA000A26803F00F03137205B030BDF4230B7202F0F003A2681372D4E701ADDCE700BFC8
:204FC00000600040A83A0020064A92F82610064B53F82130126AC2F30262D340034A1360CA
:204FE000704700BF00E0014070100020303C002008B5084B084A1A60084A5A604FF4004281
:205000009A600749D9601A61064A5A61FFF7DCFF08BD00BF70100020002D310100127A00A7
:20502000001BB70000E1F50508B50A4B012283F81C2103F50053052283F82620064A1A62D7
:20504000FFF7C2FF054BF1221A7300221A72F0221A7308BD00C00140100101100020004014
:2050600008B5284B4AF20352A3F8FE23A3F500530122A3F80421244BB3F804319BB2002B1E
:20508000F9D10123204AA2F80031A2F5A83293601360FFF7ADFF1B4B202283F813240922EF
:2050A00083F8A22093F8803413B3164B002283F8812483F8802483F83220124B93F83C30CB
:2050C00013F0080FF9D00F4B43F202121A85002283F82A200B4B93F83C3013F0200FF9D07C
:2050E000FFF7A2FF074B4FF42542A3F8FE2308BD0121044B83F8801440F2C44000F00CF8F2
:20510000D3E700BF00E0014000C001407047A0F101000028FBD1704708B500FB01F1214BEA
:205120001B682148B0FBF3F0CA0E4B015B1A62F10002920042EA93729B005B1842F1000201
:20514000D20042EA5372DB004FF0FF3C9C454FF0000C7CEB020206D3B3FBF0F3980808B1DD
:20516000FFF7D5FF08BD8000B1FBF0F1CB0E4801401A63F100039B0043EA9073800040181D
:2051800043F10003DB0043EA5073C0004FF0FF3282424FF0000272EB0303E0D24FF0FF3055
:2051A000DEE700BF303C002000CA9A3B08B5034B53F8203003B1984708BD00BF643A0020C5
:2051C00038B50B4BB3F84051ADB2002401E00134E4B20F2C08D825FA04F313F0010FF6D017
:2051E0002046FFF7E3FFF2E7014BA3F8305138BD0060004000B585B0032000F087F8244BB0
:205200006FF0FF029A644FF0FF33019302930393002300E001335F2B14D81E4A32F813208E
:20522000002AF7D05A0903F01F00012101FA00F004A901EB820252F80C1C21EA000142F826
:205240000C1CE7E700230DE004AA02EB830252F80C2C114941F8232003F1A0000F4941F8AB
:2052600020200133022BEFD9032000F01BF8002308E0084A32F8130003F1C001084A42F8C4
:20528000210001335F2BF4D905B05DF804FB00BF00800040585700007080004000E100E03A
:2052A00000600040EFF31082012383F31088144B33F810309BB23BB1114931F810309BB295
:2052C000013B9BB221F810300D4B33F810309BB293B910B40B49B1F8FE339BB20A4C34F8CF
:2052E000100043F4254323EA0003A1F8FE3382F310885DF8044B704782F31088704700BF3A
:20530000283C002000E001405C59000010B4EFF31081012383F310880F4B33F810309BB2B8
:2053200063B90E4AB2F8FE339BB20D4C34F810C043EA0C0343F42543A2F8FE33064A32F85C
:2053400010309BB201339BB222F8103081F310885DF8044B704700BF283C002000E001401A
:205360005C59000000BE704708B500F003F8FDF7CDFDFEE738B5244B4FF47002C3F8882044
:20538000224A9A600020FDF7B3FDFFF769FE0120FDF7AEFD1E4B83F30A881E481E4A121A5B
:2053A000002100F054F81D481D4A121A1D4900F041F81D4D1D4BED1AAD10002404E01B4B05
:2053C00053F8243098470134AC42F8DBFFF7FCFD0320FFF79BFF002307E003F10801144A52
:2053E0004FF6FF7022F811000133082BF5D90320FFF758FF0220FDF77BFDFFF7FBFE00208C
:20540000FFF784FE38BD00BF00ED00E000000000383C002090100020343C0020800100200E
:2054200070100020685900006C10002068100020000D08400A44431E914200D1704710B5B3
:2054400011F8014B914203F8014FF9D110BD02440346934200D1704703F8011BF9E710F857
:20546000012B11F8013B012A28BF9A42F7D0D01A7047FFFF4275696C742077697468205219
:20548000656E6573617320416476616E63656420466C657869626C6520536F667477617206
:2054A00065205061636B6167652076657273696F6E20332E382E3000332E382E3000000087
:2054C00000000803F8B500BFF8BC08BC9E467047F8B500BFF8BC08BC9E467047FFFFFFFFC7
:2054E00001B40248844601BC604700BF8101002001B40248844601BC604700BF010400200D
:2055000001B40248844601BC604700BFBF05002001B40248844601BC604700BF8905002021
:2055200001B40248844601BC604700BF6906002001B40248844601BC604700BF1D030020C4
:2055400001B40248844601BC604700BF9D02002001B40248844601BC604700BF6903002028
:2055600020390020D85600003058000028390020785500001059000000000000680F0020AE
:20558000DD2300000000000090550000020001020000000050390020780F002000000000D1
:2055A0001800000000000000000000000000000068390020BC550000B058000001000000F8
:2055C000A5220000000000000000000002050206AC390020DC55000018580000000A0B0C2E
:2055E0000D0101010100000001000000A8560000C0560000A11E0000000000000056000070
:20560000010000000000000300000000DC390020185600002C5900000000000050C300004B
:2056200000000000A861000000030700691F0000000000003856000000000001000000FF41
:20564000F83900204C5600002C5900000000000050C3000000000000A861000001040800A9
:205660007D1F0000000000006C56000000000001000000FF143A0020805600002C59000003
:205680000000000050C3000000000000A861000002050900911F000000000000A056000038
:2056A00000000001000000FF303A0020B4560000EC58000038100020BC5600000BFFFFFF90
:2056C000383A0020CC560000EC58000048100020D45600000AFFFFFF0F000000E0560000E4
:2056E0000400000002000000040000000D000000040000000E000000040000000F0000006E
:20570000000001100201000000000110030100000000010008010000000001060901000045
:20572000000001060A010000000001060B010000050000000C01000004000000010200002B
:20574000040000000602000000000100000300000400000002030000A100A400A500A200A4
:20576000A30031003000400043004600C401C501C801C70100000000000000000000000040
:20578000000000000000000000000000000000000000000000000000000000000000000009
:2057A0000000000000000000000000000000000000000000000000000000000000000000E9
:2057C0000000000000000000000000000000000000000000000000000000000000000000C9
:2057E0000000000000000000000000000000000000000000000000000000000000000000A9
:205800000000000000000000000000000000000000000000000000006D3500008133000032
:2058200097330000AB330000172F0000212F0000E53A000035380000F93A0000053B00002B
:20584000ED38000073390000373900003D3800008B380000B3380000D53800001939000085
:20586000593800006D380000020403040404FFFF00000000FFFF0000002000008000000041
:2058800000000100FFFF0500008000008000000000000008FF1F0008400000000400000092
:2058A000020000007058000001000000905800003D3E00008F400000B14000005540000065
:2058C000B13B0000D53B0000853B0000A53B0000A93B0000A13B0000153F00004D3D00008E
:2058E000E7400000AD3B0000393C000055440000B5430000B94200005943000001420000B9
:20590000F9410000FD4100001D4200006D4200000D470000B5450000314500009544000064
:20592000034700003545000061450000514D0000454E00003F4C0000514C0000FD4B00005C
:20594000114C00006D4E00001B4C0000CD4E0000674C00001F4C0000894C000001000200B7
:2059600008001000000000001D4BB3F8841089B24FF42A42A3F884204FF49642002000E024
:20598000013A174BB3F884309BB223B1002AF7D14FF4FA70F4E7012902D0802918D070472C
:2059A0000F4B4DF60112A3F844200E4B0122A3F804210C4BB3F804319BB2002BF9D101235F
:2059C000084AA2F80031A2F5A832936013607047054B01225A60044B5B68002BFBD1DEE721
:2059E00000E07F4000C001400070004082B04FF4964301930E4BB3221A7002E0019B013B03
:205A000001930C4BD3F8803013F4004F05D1019B002BF3D1142002B07047064B1B7C13F0E1
:205A2000100F01D10020F6E740F2F510F3E700BF00007E4000E07F4082B04FF49643019369
:205A40000E4B50221A7002E0019B013B01930C4BD3F8803013F4004F05D1019B002BF3D11A
:205A6000142002B07047064B1B7C13F0100F01D10020F6E740F2F510F3E700BF00007E4022
:205A800000E07F4070B5044643681A78EAB193F9113003F01F015B09012202FA01F117486C
:205AA000203340F82310BFF34F8FBFF36F8F636893F9133003F01F015B098A40203340F882
:205AC0002320BFF34F8FBFF36F8F0D4BB3F884309BB27BB1FFF78AFF0646FFF7ADFF05465B
:205AE00006B13546FFF740FF05B12846002384F8343070BD204600F013FAEBE700E100E0F5
:205B000000E07F4010B4846A0F4B1C630F4C20232370D0232370836A0B448362036B013BD9
:205B2000036310461AB95DF8044B70470138064BD3F8803013F4004F03D10028F6D1142029
:205B4000F1E70020EFE700BF00E07F4000007E4010B582B0224BC46A1C63A3F5F0334FF050
:205B6000E80C83F800C04FEA510EC1F3470119704FF0000CE6451FD903690193836A1988DD
:205B8000184B1980164BD3F8803013F4806F07D0019B591E0191002BF4D1142002B010BD18
:205BA000836A02338362C36A0233C362036B013B03630CF1010CDDE70A4BD02119700AB9E7
:205BC0001046EBE7064BD3F8803013F4004F02D11AB1013AF6E70020E0E71420DEE700BF26
:205BE00000E07F4000007E4010B50446114B1B7C13F0100F0BD100200E4BD3F880300B4207
:205C000000D1024604B914468CB9204610BD094BD3F8803013F4804F02D140F2F510EBE75B
:205C2000044B187C0020187440F2F510E4E7FFF7DDFEEAE700E07F4082B083690193134B82
:205C40001963A3F5F03340221A7008221A70002305E00F4A32F813100E4A11800133072B70
:205C6000F7D90C4BD0221A7002E0019B013B0193064BD3F8803013F4004F04D1019B002B75
:205C8000F3D1142000E0002002B0704700E07F405810002000007E400D4B4FF6FF7CA3F80B
:205CA00000C0A3F802C0C00380B2104380B240F4F040D8806FEA41516FEA51519980A3F8F7
:205CC00008C0A3F80AC0A3F80CC0A3F80EC070475810002010B483B04FF496430193214B75
:205CE00000221A6043681A78EAB193F9113003F01F015B09012202FA01F11B4C203344F8E5
:205D00002310BFF34F8FBFF36F8F436893F9133003F01F015B098A40203344F82320BFF3D1
:205D20004F8FBFF36F8F114B4FF45942A3F844204AF60122A3F8842002E0019B013B0193AC
:205D40000A4BB3F884309BB2012B05D0019B002BF3D14FF4FA7000E0002003B05DF8044BB2
:205D6000704700BF0070004000E100E000E07F4038B50546FFF7AEFF044690B92B6B63B185
:205D80005CB9AA6880212846FFF7E2FE18224FF4A041FFF729FF0446F0E7FFF7E5FD04B9C5
:205DA0000446204638BD38B5044681620263FFF791FF0546F8B9114B0122A3F8E0200BE038
:205DC000226A4FF400412046FFF79CFE19224FF4C041FFF709FF0546236B43B13DB9A36A70
:205DE000B3F5803FECD2E2694FF40051EBE7FFF7BBFD05B90546284638BD00BF00E07F4055
:205E0000F8B504460E4617460F4BD3F8DC50FFF761FF034608B11846F8BDED0F7A0B710B21
:205E20002846FFF739FF09492046FFF705FF18220021FFF7D9FE0446FFF796FD0346002CA4
:205E4000E9D02346E7E700BF00E07F4030A1000170B506460C461546FFF73CFF50B955B1C4
:205E600044F4CC41114BA3F8E8100446FFF77CFD04B1204670BD0E4B4FF0FF321A605A60F0
:205E80009A60DA6014F0010F0DD14FF6FF72084BDA8008493046FFF7CFFE18220021FFF79E
:205EA000A3FE0446E2E747F6FF72F0E700E07F405810002030A1000170B506460D46144692
:205EC000FFF708FF034638B1184670BD55F82310114A42F823100133032B07D8002CF5D18D
:205EE0000D4A4FF0FF3142F82310F4E71CB10A4BDA891443DC814AF250113046FFF79CFEB8
:205F000018220021FFF770FE0446FFF72DFD0346002CD9D02346D7E758100020000000008B
:205F200001B40248844601BC604700BF913D00009F0200006D61705F6661696CAC100020F1
:205F40005C07002000002110422063308440A550C660E770088129914AA16BB18CC1ADD14D
:205F6000CEE1EFF13112100273325222B5529442F772D662399318837BB35AA3BDD39CC325
:205F8000FFF3DEE36224433420040114E664C774A44485546AA54BB528850995EEE5CFF5E1
:205FA000ACC58DD55336722611163006D776F6669556B4465BB77AA719973887DFF7FEE7A5
:205FC0009DD7BCC7C448E5588668A7784008611802282338CCC9EDD98EE9AFF948896999E1
:205FE0000AA92BB9F55AD44AB77A966A711A500A333A122AFDDBDCCBBFFB9EEB799B588B25
:206000003BBB1AABA66C877CE44CC55C222C033C600C411CAEED8FFDECCDCDDD2AAD0BBDE0
:20602000688D499D977EB66ED55EF44E133E322E511E700E9FFFBEEFDDDFFCCF1BBF3AAFA4
:20604000599F788F8891A981CAB1EBA10CD12DC14EF16FE18010A100C230E32004502540BE
:2060600046706760B9839893FBA3DAB33DC31CD37FE35EF3B1029012F322D2323542145224
:2060800077625672EAB5CBA5A89589856EF54FE52CD50DC5E234C324A014810466744764E0
:2060A00024540544DBA7FAB79987B8975FE77EF71DC73CD7D326F2369106B01657667676A4
:2060C000154634564CD96DC90EF92FE9C899E9898AB9ABA94458654806782768C018E108E0
:2060E0008238A3287DCB5CDB3FEB1EFBF98BD89BBBAB9ABB754A545A376A167AF10AD01A24
:20610000B32A923A2EFD0FED6CDD4DCDAABD8BADE89DC98D267C076C645C454CA23C832CDF
:20612000E01CC10C1FEF3EFF5DCF7CDF9BAFBABFD98FF89F176E367E554E745E932EB23EA3
:20614000D10EF01E00000000A11D0000DF1D0000EB1D00001D1E00005B1E0000B11D00000E
:2061600080090020FFFFFFFF0100000053454C45585F424F4F54315F484D490000000000F7
:2061800080000080000000000100010084090020000000000100010000000000000000004E
:2061A0008800008000000000000008000000000000000000000000000000000000000000CF
:2061C00000000000000000000000000000000000000000000100010008000100E8030000C9
:2061E00000000000000000000000008000000000000000000000000000000000000000809F
:206200000000000000000000000000000000000000000080000000000000000000000000FE
:206220000000000000000080000000000000000000000000000000000000000000000000DE
:2062400000000000000000000000000000000000000000000000000000000000000000003E
:2062600000000000000000000000000000000000000000000000000000000000000000001E
:206280000000000000000000000000000000000000000000000000000000000000000000FE
:2062A0000000000000000000000000000000000000000000000000000000000000000000DE
:2062C00000000000000000008801004000000000FFFFE8031027000000000000880200C08B
:2062E000000000000000E8031027000000000000880300C0000000000000E803102700000F
:2063000000000000880400C0000000000000E803102700000000000000000000000000000F
:2063200000000000000000000000000000000000000000000000000000000000000000005D
:2063400000000000000000000000000000000000000000000000000000000000000000003D
:2063600000000000000000000000000000000000000000000000000000000000000000001D
:206380000000000000000000000000000000000000000000000000000000000000000000FD
:2063A00000000000000000007634002003000300F00D00206C340020030004000000000029
:2063C0007434002003000200E80D0020AC3400200300040000000000B834002003000004C1
:2063E000AC0E0020B434002003000200A40E0020603400200300010000000000000000002C
:206400000000010000000000000000000000010000000000693400200300010000000000B9
:2064200017000000400C002000100100580D002001100100DC0D002002100100B40E002033
:2064400003100900700D002005100100D80E002006100100F80C002007100100F00E0020F6
:20646000081001004C0D002009100100100E00200A100100C00E00200C100100F80D0020E7
:206480000D1001004C0E002012100100FC0E002013100100040E002014100100640D00200B
:2064A00016100600040D0020171001005C0E0020181004001C0E002019100100E40E00201B
:2064C00030100100CC0E002031100300800E002032100200680E002001200A00C00B00209F
:2064E000A00900200300020000000000C20900200100010000000000C409002003000400ED
:2065000000000000C80900200300040000000000CC0900200300040000000000D00900208E
:206520000300040000000000D40900200300040000000000A4090020010010000000000072
:20654000940900200100040000000000B80900200300040000000000343400200100010007
:20656000000000003834002001000400000000003C34002001000400000000004034002061
:206580000100040000000000443400200100040000000000483400200100040000000000B8
:2065A0004C34002001000400000000005034002001000400000000005434002001000400E0
:2065C00000000000303400200100010000000000743400201D27000076340020E926000050
:2065E000B009002003000200000000003C3100200300040000000000A80900200100040053
:2066000000000000DC0900200300040000000000E00900200100040000000000E409002053
:206620000100040000000000E80900200100040000000000B2090020030001000000000060
:20664000380C0020D80900200300020000000000F80900200300020000000000FC09002085
:206660000300040000000000F00900200300010000000000F20900200300020000000000D6
:20668000F40900200300020000000000B4340020F9260000B8340020D52600003431002025
:2066A0000100040000000000AC0900200100040000000000EE0900200300010000000000E0
:2066C000980900200300040000000000EC0900200300020000000000A20900200300020008
:2066E00000000000B409002003000400000000003527000037270000392700003B2700003A
:20670000492A0000412A0000232A0000F5280000F1290000F9280000FD2800003529000073
:206720002D29000021290000492A0000412A0000F7280000652A000041290000F9280000A2
:20674000FD280000512A00002D29000021290000050000000E0000000500000004000000DD
:20676000000000000000000001000000000000000200000000000000030000000000000013
:206780000400000000000000050000000000000006000000000000000700000000000000E3
:2067A000080000000000000009000000000000000A000000000000000B00000000000000B3
:2067C0000C000000000000000D000000000000000E000000000000000F0000000000000083
:2067E000100000000000000011000000000000001200000000000000130000000000000053
:20680000140000000000000015000000000000001600000000000000170000000000000022
:20682000000010180000000000000000000000000000081000000000000000000000000018
:20684000FFFF00000000000000000000000000002502000001020000FFFFFFFFFFFFFFFF18
:20686000FFFFFFFFFFFFFFFFFFFFFFFFFFFFFFFFFFFFFFFFFFFFFFFFFFFFFFFFFFFFFFFF38
:20688000FFFFFFFFFFFFFFFFFFFFFFFFFFFFFFFFFFFFFFFFFFFFFFFFFFFFFFFFFFFFFFFF18
:2068A000FFFFFFFFFFFFFFFFFFFFFFFFFFFFFFFFFFFFFFFFFFFFFFFFFFFFFFFFFFFFFFFFF8
:2068C000FFFFFFFFFFFFFFFFFFFFFFFFFFFFFFFFFFFFFFFFFFFFFFFFFFFFFFFFFFFFFFFFD8
:208000002840002049D30000A1D1000045D3000045D3000045D3000045D3000045D30000D2
:2080200000000000000000000000000045D3000045D300000000000045D3000045D30000E0
:208040002DC9000005CA00002DCB000005CA00002DCB000045C10000D1C000000DCF000029
